:020000040800F2
:10000000F87F0120394705088BB9040879B904083D
:100010008DB904089DB90408ADB9040800000000BA
:10002000000000000000000000000000BDB904084E
:10003000BFB904080000000035CA040891CA0408CA
:1000400027460508ADBA0408B9BA0408C1BA0408BD
:10005000AD3705082746050841BA040847BA040821
:100060004DBA040853BA040859BA040875EC0408D8
:1000700085EC040895EC0408A5EC0408B5EC04082C
:10008000C5EC0408D5EC040827460508000000006C
:100090000000000000000000000000005FBA04083B
:1000A000D5BA0408DBBA0408EDBA0408F3BA0408A8
:1000B000F9BA0408FFBA040805BB040837BB0408F2
:1000C0003DBB040843BB040849BB04082746050898
:1000D0002746050825BB04082BBB040800000000C8
:1000E00083BA0408B3BA0408CDB9040800000000BC
:1000F000000000000000000000000000E5EC040823
:1001000000000000274605080DBB04082746050827
:1001100000000000000000000000000000000000DF
:10012000F5EC040805ED040815ED040825ED0408B8
:1001300035ED040800000000000000000000000091
:10014000000000000000000000000000C1B9040829
:1001500045ED040855ED040865ED040831BB0408BD
:100160004FBB040855BB040800000000000000005D
:10017000000000000000000000000000000000007F
:1001800000000000274605080000000000000000F5
:100190002746050842884378007843EA022340EA6C
:1001A000032070470B0A017043700B0C090E83701B
:1001B000C1707047036A0239023B8B4283BFC38917
:1001C000406B01FB03000020704700F10B0100228F
:1001D000D30143EA520310F8012B52FA83F3884209
:1001E000DAB2F5D11046704737B50D46044620B94E
:1001F000092000232B6003B030BD0368002BF7D02B
:100200005A79002AF4D081885A899142F0D118682D
:100210000DF10702062102F0F3FA9DF8073003F012
:100220000103034313F0FF00E2D12368E2E738B58E
:100230000568044615F8010B20B140F2B51154F0E1
:10024000D7FA08B1256038BD4FF0FF30FBE7CA7E12
:100250008B7E032843EA022301BF487D0A7D42EAE0
:10026000002243EA024318467047C2F307238A7606
:10027000CB760378032B01BF120C0A75120A4A755C
:10028000704737B5C37904461BB90025284603B02B
:1002900030BD00F13C01826B00680191012302F046
:1002A0009AFA054680B9E36AE071A06B626AC31AE4
:1002B0009342EAD2A3790199022BE6D102440123A9
:1002C000206802F088FAE1E70125DFE738B5836BA3
:1002D0008B4205460C4610D0FFF7D3FF60B922468B
:1002E0002868012305F13C0102F066FA00281CBFD2
:1002F0004FF0FF340120AC6338BD0020FCE7000064
:1003000038B50023C3714FF0FF3383630546FFF711
:10031000DDFF044618BB95F83B2295F83A3243EAD4
:1003200002234AF6552293421BD195F83C30EB2B21
:1003300003D01833DBB2012B15D80C49032205F189
:1003400072003FF0B9FF40B10949052205F18E0066
:100350003FF0B2FF002818BF0224204638BD042415
:10036000FBE70324F9E70224F7E700BF12E60608DB
:1003700016E606082DE9F047437986B0044601F0F9
:10038000FE0593B10DF107020068062102F038FA6C
:100390009DF80730DA0708D41DB113F0040500D02A
:1003A0000A25284606B0BDE8F0870023637120685F
:1003B0000DF10702052102F023FA9DF8073013F032
:1003C000010840F014810DB15B07E9D400212046FB
:1003D000FFF796FF022803D0012823D8277987B397
:1003E00002AD04F2022104F242272E4611F8040C59
:1003F00010B10846FFF7CEFE10318F4245F8040BCE
:10040000F4D1257905B1013D56F825707FB1394603
:100410002046FFF775FF23795BB9012811D9013513
:10042000032DF1D9042808D14FF0010807E003207B
:10043000F1E70428F8D0012803D94FF00D0845460C
:10044000AFE794F8482094F8473043EA0223B3F525
:10045000007FF2D194F8530094F8526056EA0026D7
:1004600004D104F16000FFF795FE064694F84C5065
:1004700066626B1E012BA571DFD894F84990A4F831
:100480000E904B46002BD8D009F1FF3313EA090F29
:10049000D3D194F84E3094F84DA04AEA032A1AF0CA
:1004A0000F0F0FFA8AF1A4F80CA0C6D194F85030BF
:1004B00094F84F0050EA032003D104F15C00FFF7E9
:1004C00069FE94F84BE094F84A3053EA0E2EB4D00B
:1004D00006FB05FC0EEB1A1262448242ADD8801A6C
:1004E0004845B0FBF9F5A8D3464B9D42A5D84FF639
:1004F000F5739D427DD94FF0030902350EEB0703DA
:100500003A44B9F1030F2562A762E36262635CD1EA
:1005100094F8672094F8663043EA02230B431BB239
:10052000002B8AD104F16800FFF734FEAD00206390
:1005300005F2FF15B6EB552FFFF47FAF4FF0FF33F9
:10054000C4E90533B9F1030F4FF0800323722FD1B3
:1005500094F86D2094F86C3043EA0223012B27D1E4
:10056000791C2046FFF7B2FE10BB94F83B2294F8AA
:100570003A32207243EA02234AF65522934217D1B7
:1005800004F13C00FFF706FE1F4B984210D104F522
:100590000870FFF7FFFD1D4B984209D104F5097063
:1005A000FFF7F8FDA06104F50A70FFF7F3FD606145
:1005B000174A84F80590138801339BB21380638136
:1005C000144B23610023E36139E7BAF1000F3FF4D4
:1005D00034AF6344B9F1020F23634FEA45031BBFF5
:1005E0005B1905F001051D4605EB5305A0E7032542
:1005F000D7E640F6F5794D458CBF4FF002094FF034
:1006000001097AE7F5FFFF0F5252614172724161B1
:100610006C5900206E59002001292DE9F04706464B
:100620000C46174673D9036A8B4270D94379022B63
:100630003FD0032B50D0012B69D101EB5108C16A87
:1006400001EB5821FFF742FE054638BB06F13C0995
:1006500008F1010AC8F3080814F001041FBF19F8D3
:10066000083003F00F023B0103F0F00314BF134303
:10067000FBB209F80830F16A0123F37101EB5A214A
:100680003046FFF723FE054640B9CAF3080A44B1D5
:10069000C7F3071709F80A700123F3712846BDE86C
:1006A000F08719F80A30C7F3032723F00F031F431D
:1006B000F0E7C16A01EB1421FFF708FE05460028A8
:1006C000ECD1640006F13C0304F4FF7418191F55C3
:1006D000C7F307274770DFE7C16A01EBD411FFF7C3
:1006E000F5FD05460028D9D1A40006F13C0304F429
:1006F000FE741C442046FFF74DFD27F0704700F0C4
:10070000704047EA00012046FFF74CFDC4E7022590
:10071000C4E70129F8B505460C4652D9036A994247
:100720004FD24379022B29D0032B38D0012B48D14B
:1007300001EB5106C16A01EB5621FFF7C7FD10B16D
:100740004FF0FF30F8BD771CE96AC6F308062E4467
:1007500001EB5721284696F83C60FFF7B7FD0028CB
:10076000EED1C7F308073D44E30795F83C0046EA9D
:1007700000204CBF0009C0F30B00E3E7C16A01EBA6
:100780001421FFF7A3FD0028DAD164003C3504F4FE
:10079000FF742B19285D5B7840EA0320D2E7C16A19
:1007A00001EBD411FFF792FD0028C9D1A40005F197
:1007B0003C0004F4FE742044FFF7ECFC20F0704091
:1007C000C0E70120BEE7B1F5001FF8B506460C46AC
:1007D00001D30220F8BDCA06FBD182680568016119
:1007E000CAB96B79022B01D92B6B9BB9AB89B3EBDF
:1007F000541FEED92B6BB361B3697261002BE8D043
:1008000003EB54233C35C4F308042C44B361F46176
:100810000020DFE71A46EF897F02BC42114604D26E
:100820002846FFF7C7FCB061E6E73068FFF771FFC5
:10083000431C024606D00128CBD92B6A8342C8D973
:10084000E41BEAE70120C5E72DE9F0410568804691
:100850000F4649B96E69C6B12B6AB34298BF0126EB
:10086000AB69A3B9002406E02846FFF752FF012830
:10087000044603D801242046BDE8F081421C51D033
:100880002B6A8342F7D83E46EAE70126E8E7BE42F4
:1008900015D12B6AD8F80000741CA34298BF02241B
:1008A0002146FFF736FF0128E4D0431C3AD0D8B1E7
:1008B0006B69012B03D92A6A934238BF1E4634461E
:1008C0002B6A0134A34202D8012ECBD90224D8F8D6
:1008D00000002146FFF71DFF40B10128CAD00130BA
:1008E00020D0B442ECD1BDE7002CE8D04FF0FF326D
:1008F00021462846FFF790FE90B957B92A6AAB699E
:100900006C61023A934210D92B7A43F001032B72A7
:10091000B1E7224639462846FFF77EFE0028EDD093
:100920000128A7D14FF0FF34A5E7013BAB61EBE70E
:1009300073B50C46012C0568064611462CD92B6A66
:10094000A34229D92AB14FF0FF322846FFF764FEAF
:1009500040B9214630680194FFF7DBFE0199044657
:1009600010B9002002B070BD012815D0431C15D06D
:1009700000222846FFF750FE0028F3D12A6AAB690F
:10098000911E8B4205D20133AB612B7A43F00103F8
:100990002B72A242DDD8E4E70220E3E70120E1E781
:1009A000F7B505460191FFF76CFC044600BB0199C1
:1009B0002846FFF7FFFB05F13C070646A8634FF406
:1009C0000072214638463FF061FCEB899C4205D31A
:1009D000E889001B18BF012003B0F0BD286801237F
:1009E0003219394601F0F7FE0028F1D10134ECE765
:1009F0000120F1E72DE9F843076906682037B7F5CC
:100A0000001F24BF0023836183690446894673B1B4
:100A1000C7F30808B8F1000F39D141690133836188
:100A200039B9B389B3EB571F31D80023A361042030
:100A30000BE0F389013B13EA572328D13046FFF737
:100A400068FE0128054602D80220BDE8F883421C52
:100A500001D10120F9E7336A834212D8B9F1000FBE
:100A6000E3D061692046FFF7EFFE0546A8B10128F3
:100A7000EAD0431CEDD001463046FFF791FF002835
:100A8000E7D1656129463046FFF794FBA0613C360B
:100A900046442761E6610020D7E70720D5E7F8B58F
:100AA0000E46002107680446FFF78DFEA8B90546EB
:100AB000A1693846FFF70AFC78B9E3691B78E52B92
:100AC00000D01BB90135B54201D1F8BD0546012161
:100AD0002046FFF78FFF0028EAD0042808BF072030
:100AE000F3E700002DE9F84FFF27D0F80090064605
:100AF00088463D4604244FF6FF7AB16911B9002CAF
:100B000073D063E04846FFF7E1FB044600285DD15F
:100B1000F0690378002B70D0C27AE52B02F03F0217
:100B2000B27158D02E2B56D022F02001A1F1080C22
:100B3000DCF1000141EB0C0141454CD10F2A4FD1B2
:100B40005C0646D53269477BF26203F0BF03427B05
:100B5000BA4240D1C17E827E42EA012211B2002A0D
:100B600039D10278D9F81050DFF894E022F0400231
:100B7000013A0D2462434FF0010C1EF8014B00EBCB
:100B8000040B045D9BF801B044EA0B24BCF1000F98
:100B900023D0FF2A1FD825F81240A4460132013184
:100BA0000D29EAD10178490607D5BCF1000F04D020
:100BB000FF2A10D8002125F812105D1EEDB2002189
:100BC0003046FFF717FF0446002896D00023B36194
:100BD0000CE09D42BBD0FF25F1E75445DFD0FAE79A
:100BE0003DB9FFF7F2FAB84203D100242046BDE830
:100BF000F88F4FF0FF33F362F8E70424E6E700BF15
:100C0000E0E60608C16A4B1C2DE9F041056806695B
:100C1000044618D1E5274FF00108A1692846FFF7DF
:100C200055FB60B9E3691F7085F807802369B342FB
:100C30000DD201462046FFF7DDFE0028EDD0042846
:100C400008BF022003E0FFF7BEFD0028E2D0BDE8A8
:100C5000F08100002DE9F04F002185B0D0F800A010
:100C60000446FFF7B0FD0746002840F092804FF0A1
:100C7000FF334FF0FF09E362C8460093A169504675
:100C8000FFF724FB0746002840F08380E5692E78B3
:100C9000002E00F08280EA7AE52E02F03F03A37175
:100CA00003D0100704D50F2B04D0009BE36253E060
:100CB0000F2B59D194F82B30590643D4720649D5DD
:100CC000236995F80D90E36206F0BF066B7B4B45F8
:100CD00042D1EA7EAB7E53EA02233DD12F78DAF887
:100CE00010B007F03F077B1E0D275F432C4B0122FE
:100CF00013F8011B681815F80180407848EA0028AD
:100D00006AB3FF2F039327D8404653F085FD791C23
:100D100002903BF81700019153F07EFD029A824247
:100D20001AD10199039B42460F461E499942DFD1D1
:100D30002B785B0603D512B13BF8173063B9013E3F
:100D40005FFA86F800212046FFF754FE0746002888
:100D500094D01EE0B045B9D04FF0FF08F2E74FF64F
:100D6000FF718845E1D0F7E7B8F1000F04D12846BC
:100D7000FFF72BFA48450CD094F82B7017F00107B9
:100D800093D10B2204F1200128463FF095FA002868
:100D90008BD1384605B0BDE8F08F0427F9E700BFD6
:100DA000E0E60608EDE606082DE9F04F90F82BB0D6
:100DB0001BF0A00489B0054640F0E38007683A695B
:100DC00032F81430002B6CD105F1200696E80700AC
:100DD0000DF1140A1BF0010F8AE8070000F0D8801B
:100DE000402385F82B304FF001089AE80700B446FD
:100DF0003B69ACE803002CF8022BB8F1050F4FEA71
:100E000012428CF8002060D9981E424630F8021F2A
:100E1000002948D10DF1130C072102F00F0E0EF13D
:100E20003000392888BF0EF137000F2A0CF801096D
:100E300001F1FF314FEA121049D808AB5A187E2051
:100E400002F8140C05F11F0084460022914206D0DE
:100E50001CF801EFBEF1200F02F1010939D1072979
:100E60009CBF08AB03EB010C02F1010296BF1CF81A
:100E700014CC4FF0200C0131072A00F802C0EED943
:100E80002846FFF7E7FE814600287DD108F10108DA
:100E9000B8F1640FA9D14FF00709484609B0BDE881
:100EA000F08F01348CE74FF0100C01F0010E0EEBC7
:100EB0004202D30344BF82F4883282F02102BCF1A3
:100EC000010C4FEA5101F0D1A0E74246A2E70246E9
:100ED000A3E74A46BAE729692846A1EB4411FFF780
:100EE00072FC81460028D8D13046FFF76EF94FF6E4
:100EF000FF780190A9693846FFF7E8F98146002894
:100F0000CBD1EB69019AD7F810E05A73E1B24FF0F8
:100F10000F024FF00D0CDA72DFF8D8A018734A1EDA
:100F20000CFB02F29876D87684461AF8019B40456D
:100F300018BF3EF8120003F8090003EB090B0CF18F
:100F4000010C18BF01324FEA1029002808BF4046A3
:100F5000BCF10D0F8BF80190E7D1404502D03EF86F
:100F600012200AB941F0400119700123FB710021E0
:100F70002846FFF73FFD814600288ED1013CB9D1BC
:100F80001AE04FF0060988E7042886D185F82BB0CF
:100F90001BF0020F1BBF0C340D210124B4FBF1F434
:100FA00018BF013421462846FFF779FD8146002805
:100FB0007FF473AF013C8ED1A9693846FFF786F9FB
:100FC000814600287FF469AF01462022E8693FF09E
:100FD0005DF903CEEB6918605960B27831881981E8
:100FE0009A7295F82B30EA6903F018031373012302
:100FF000FB7152E7E0E60608F8B50446FFF741F951
:101000000546002842D16379032B37D1277A012F77
:1010100034D104F13C0601464FF4007230463FF0F3
:1010200035F9552384F83A32AA2384F83B32522307
:101030004122722184F83C3084F83D30612384F8E9
:101040003E3084F83F2084F8222284F8233284F84A
:10105000201284F8211204F50970A169FFF7A2F8A3
:10106000616904F50A70FFF79DF8A26A20680132F1
:10107000A2633B46314601F0AEFB25720022206898
:10108000114601F0BDFB003818BF0120F8BD2DE965
:10109000F0470026D0F800A08E75836907460C46FD
:1010A000002B00F09380C36A01336ED1F9690023ED
:1010B0004D1E18462E2615F8012F202A00F101009A
:1010C0000CD0052A08BFE522092804D10B2B9EBFAE
:1010D000E71801337E72E71801337A720B28EAD1E0
:1010E000E21800205072A27D002A5ED1002B53D05E
:1010F0006FF0080604F109020825361BB31812F830
:10110000010B00284BD02E2883B261D0A3F14100FF
:10111000192803D8087B054200D020331373EDE76C
:10112000B9F1000F05D100F520539BB2B3F5006F64
:1011300013D340F2B51140EA094053F039FBFF28C0
:10114000C8F1FF0519D9012D22D904EB0803020AC1
:101150009A75D87502239844002002368146DAF841
:101160001030985B0028DBD14546B9F1000F18BF5D
:10117000002525440023AB7598E758B1002DF4D025
:1011800004EB080398750123E5E7B146B046E6E7AE
:101190000025EAE70546E8E73F23A375012323443A
:1011A00000229A750B7B03B96372CB7A237201F12B
:1011B0001C00FEF7EFFF2060CA7D8B7D43EA02230F
:1011C000E3804A7E0B7E43EA0223A380BDE8F087DA
:1011D0001025A3E72DE9F04F0B78D0F800B02F2BA6
:1011E00087B00646884601D05C2B0AD14246137868
:1011F0002F2B904602F10102F9D05C2BF7D000238F
:1012000001E0DBF81C30B36098F800301F2B00F2CF
:101210002A81802386F82B3000213046FFF7D3FA4D
:1012200007B0BDE8F08FFE2D00F246812AF8153098
:1012300001351EE108F101010591DDF8148098F8EF
:1012400000202F2AF6D05C2AF4D0202B34BF0424AF
:101250000024012D2CD1BAF800302E2B2ED10023E2
:101260002AF8153006F120029D428CBF2E21202144
:1012700001330B2B02F8011BF6D144F0200486F851
:101280002B403046FFF7E6FC96F82B30002800F0A4
:10129000D9800428C4D1990603F0040240F1CE801D
:1012A000002A00F0E080802386F82B300020B7E78A
:1012B000022D03D1BAF802302E2BCCD0AAF10202B3
:1012C0008DBB00232AF81530002D00F0F5803AF888
:1012D0001320202A194603F10103F8D009B92E2A58
:1012E00001D144F00304AAF1020232F815302E2B8A
:1012F00001D0013DF9D14FF020334FF00009736266
:101300003362C6F827304F4608233AF811004A1CCA
:10131000E8B1202803D02E280DD195420FD044F0FB
:1013200003041146F1E732F81530202B01D02E2BA3
:10133000C7D1013DC4E7994504D2954233D10B2B67
:101340002AD101E00B2B22D144F003040B2396F8A1
:101350002020E52A04BF052286F82020082B04BFA0
:10136000BF00FFB207F00C030C2B03D007F0030300
:10137000032B01D144F00204A30780D4FD0748BF2A
:1013800044F01004780748BF44F0080477E795421A
:1013900002D044F00304DAD3BF00FFB22A460B2385
:1013A0004FF00809BDE77F2813D9CDE9022340F2A9
:1013B000B51144F00203019353F0FAF910F0800FD5
:1013C000DDE9022310D03E4900F07F00085C019C5B
:1013D00030B1DFF8F4C01CF8011BE9B18142FAD149
:1013E00044F003045F2010E0FF28F0D9591E89451E
:1013F00003D344F00304994693E706EB0901040A7A
:1014000081F82040019C09F1010906EB090109F16D
:10141000010981F8200084E7A0F1410189B219296E
:1014200002D847F00207F0E7A0F1610189B219295B
:101430009EBF203847F0010780B2E6E7002A08BFC8
:101440000520EDE65A073FF5EBAEB379DB0635D55F
:1014500033699BF80500C3F308030BF13C01194401
:10146000FEF7F5FEB0603368CDF81480D3F810A015
:10147000002505A8FEF7DBFE421C1DD0B0F5803F1D
:1014800024BF030C2AF8153083B228BF01351F2B67
:101490007FF6D3AE2F2B3FF4D0AE5C2B3FF4CDAE16
:1014A0007F2B3FF6C0AE0749184611F8012B002AE2
:1014B0003FF4B9AE8242F8D10620B1E60520AFE68E
:1014C00060E606081CE6060825E6060800214171CC
:1014D000FEF750BF2DE9F04305468DB090461E46FD
:1014E0000C46002900F0BC8003F03F073946FEF7A8
:1014F00041FF002840F0AC80414668460095FFF768
:1015000069FE024620B99DF92B30002BB8BF062298
:1015100016F01C0F6BD0002A3CD0042A37D1684645
:10152000FFF742FC024690BB47F00807DDF81C902D
:10153000A846494618F8050FFEF789FE064652F000
:1015400019FB014609F10E00FEF72CFE079B202235
:10155000DA72079900224046FEF787FE079B0022B9
:101560001A775A779A77DA770123EB71DEB1314631
:101570006846D5F83880FFF7DBF9024638B94146AE
:101580002846FEF7A3FE013E6E61024658B10023D5
:10159000236028E09DF8063013F0110F31D1700759
:1015A00058D43107C2D4AB6B079E23626662687958
:1015B0003907314648BF47F04007FEF748FE01466D
:1015C000A06006F11C00FEF7E5FD6B89A380BA065A
:1015D0004FF000030646E060256027746374E36102
:1015E000636110D4002210460DB0BDE8F083002ADC
:1015F000CDD19DF80630DA062ED4B607D3D5D8075C
:10160000D1D50722C3E70028ECD0EF8960617F02C3
:10161000B7420FD30022A161002AB8D1C6F3080354
:10162000002BDFD02846FEF7C5FDB8B100EB5620F1
:10163000E061D8E72068FFF76CF801280146A6EBC7
:10164000070603D9431CE3D10122E4E70222E2E7C3
:1016500002469CE708229AE7042298E7022296E7CE
:101660000922C0E72DE9F04F994685B0002388464E
:10167000C9F8003003A904461746FEF7B5FD064633
:10168000F8B9667CEEB994F810A01AF00103009343
:101690007CD0E2686369D21A974228BF174687B1A7
:1016A0006269C2F30803002B57D1039BDB89013B1E
:1016B00013EA522A15D142B9A06801280AD8022695
:1016C0006674304605B0BDE8F08FA1692068FFF769
:1016D00020F8F2E7431C03D10123009E6374F0E776
:1016E000A061DDF80CB0A1695846FEF763FD002843
:1016F000E5D0B7F5007F0AEB00022DD3BBF80E1042
:1017000001920AEB572088424FEA572588BFA1EB88
:101710000A05DBF800002B46414601F04DF8002891
:10172000DAD10399CB795BB1886B019A801AA84210
:1017300006D24FF400723C3108EB40203EF060FDD1
:101740006D02D9F800302B44C9F8003063692B448E
:101750007F1BA8446361A2E7E2616569E1690398C0
:10176000C5F30805C5F50075BD4228BF3D46FEF727
:10177000ADFD0028B0D1039963693C31C3F3080380
:101780002A46194440463EF03BFDDAE7072698E733
:101790002DE9F04F9A4685B000238946CAF80030FB
:1017A00003A904461746FEF71FFD064620BB667CCC
:1017B00016BB237C9A0740F1A9806369FB4200D3E2
:1017C000DF43AFB16369C3F30802002A40F08180B0
:1017D000039AB2F80E8008F1FF3818EA53281ED198
:1017E00073B9A06870B901462046FFF72DF848B9D3
:1017F000237C43F040032374304605B0BDE8F08FEE
:10180000A169F1E7012802D102266674F4E7431CBE
:1018100001D10126F9E7A368A06103B9A06003988C
:10182000E369826B9A4203D1FEF72BFD0028F0D1C9
:10183000039DA1692846FEF7BDFC0028E4D0B7F55A
:10184000007F08EB000B36D3E98908EB572088426C
:101850004FEA5723286888BFA1EB08035A46494638
:10186000019300F0B8FF05460028D2D1DDF80C80C6
:10187000019BD8F83810A1EB0B0199420AD24FF422
:10188000007209EB412108F13C003EF0B9FC019BDC
:1018900088F807505D02DAF8003062692B44CAF814
:1018A00000307F1BE368A94415446561AB422CBF3F
:1018B000E360E56085E76169E368994207D32846FC
:1018C000FEF7DFFC0028A4D1039BC3F838B0C4F8AE
:1018D0001CB06569E1690398C5F30805C5F5007595
:1018E000BD4228BF3D46FEF7F1FC002891D1039888
:1018F00063693C30C3F308032A46184449463EF066
:101900007FFC039B4FF00102DA71C4E7072673E7FF
:10191000F7B501A90546FEF767FC044668BB2C7CB9
:1019200014F0400429D052F025F9296A074601989D
:10193000FEF7CCFC044600BB6E6AF37A43F020034A
:10194000F3722868AA6831460530FEF78EFCE96814
:1019500006F11C00FEF726FC394606F11600FEF7DC
:1019600021FC0198B4740123F474C371FFF744FBA4
:101970002B7C23F0400304462B74204603B0F0BDBB
:1019800013B50446FFF7C4FF28B901A92046FEF7A6
:101990002BFC00B9206002B010BD70B50E468CB0B3
:1019A00000210546FEF7E6FC044660B9314668466C
:1019B0000095FFF70FFC044690B99DF92B30002BE2
:1019C00004DA029BEB6120460CB070BD9DF8063036
:1019D000DB0609D507996879FEF739FCE861F2E77B
:1019E000042808BF0524EEE70524ECE72DE9F047BD
:1019F0000E460021D2B0317081469046FEF7BAFC07
:101A00000546F8B9D9F81C30CDF800900293444649
:101A1000DDF808A0BAF1000F1AD1444502BF04F165
:101A2000FF342F233355A11B33461A5D03F8012BD6
:101A30005A189045F9D8A8EB04030134A04538BFE3
:101A400001231E4400232846337052B0BDE8F087BE
:101A500020216846FEF7B7FE00284BD1069948467C
:101A6000FEF734FC0746002842D1079999F8050093
:101A7000FEF7EDFB394602906846FEF7A4FE00280B
:101A800038D100216846FFF72DF80746B0BB07990B
:101A900099F80500FEF7DBFB50450AD03946684649
:101AA000FEF7A8FF0028ECD00546042D08BF02254C
:101AB000C8E70CA96846FFF7EAFA0DF1460212F8EA
:101AC000011B3B4601370029F9D1BC4214D331191F
:101AD0001A4632B9621ED21ADB431C442F23B35478
:101AE00096E7013A0CA81044807D01F8010DF0E75B
:101AF0000546A7E70546A5E71125A3E70546D4E770
:101B00002DE9F3410D4601A90446FEF76DFB06469B
:101B1000002850D1667C002E4DD1E368AB4204D240
:101B2000227C12F0020F08BF1D4600226369626129
:101B30009DB90020E2686369934282BF227CE36022
:101B400042F04002C3F3080388BF2274002B32D056
:101B5000E369834218BFE0612DE0019AD7897F02D3
:101B6000FBB1013B6A1EB3FBF7F1B2FBF7F28A420D
:101B700017D37A421340A1696361ED1A0029D8D0C6
:101B8000BD42636922D863692B446361C5F30803CE
:101B9000002BCED00198FEF70DFB50B100EB552085
:101BA000C8E7A16881B92046FEF74EFE012801462C
:101BB00005D102266674304602B0BDE8F081481CAB
:101BC00001D10126F6E7A160A161D7E73B4463613B
:101BD000237C9A07A5EB070806D52046FEF734FEBE
:101BE000054628B90146CEE72068FEF792FD054676
:101BF0006B1CE6D0012DDCD9019B1B6AAB42D8D906
:101C0000A56129464546BBE770B5054616460C4614
:101C100021B30021FEF7AEFB68B9256031462046AE
:101C2000FFF7D8FAE0B994F92B30002B0BDBA3793E
:101C3000DB0603D40520002323600EE06879E16908
:101C4000FEF705FBA0606B89A38000212046FEF70C
:101C5000BAFD0428EED00028EDD170BD0920FCE7C4
:101C60000428E7D0E7E713B501A90446FEF7BCFA5C
:101C700000B9206002B010BD73B50D4601A904463D
:101C8000FEF7B2FA20B9014620461DB9FEF79BFDCA
:101C900002B070BDFEF726FF10F0FB06F8D1294612
:101CA0002046FFF7F4F931462046FEF7A3FE04284C
:101CB00008BF0020ECE770B50E468CB0002104464A
:101CC0001546FEF757FB0094044670B93146684646
:101CD000FFF780FA044640B99DF92B30002B07DB53
:101CE0001DB129466846FFF7D2F920460CB070BDF9
:101CF0000624FAE72DE9F84F884600210446FEF74E
:101D000039FB054640B9D4F820A0A369AAF1020224
:101D1000934204D8C8F800302846BDE8F88F6379AC
:101D2000012B17D10227064639462046FEF7F1FC63
:101D3000431C37D0012837D000B90136236A013758
:101D4000BB42F1D8C8F80060237AA66143F00103D2
:101D50002372E1E7E16A0746064604F13C0937B918
:101D6000204601F1010BFEF7B1FAF8B95946637943
:101D7000022B09EB07000DD119F80730427853EA1E
:101D8000022308BF01360237BAF1010AC7F3080778
:101D9000E5D1D7E7FEF7FEF930F0704308BF013612
:101DA0000437F1E70125CDE70225CBE70546C9E772
:101DB000F0B50E4699B002210546FEF7DBFA04465F
:101DC00088B9314668460095FFF704FA044650B9D1
:101DD0009DF82B3098063BD4190639D49DF806702F
:101DE000FA0703D50724204619B0F0BD0799687992
:101DF000FEF72DFAFB0606460BD46846FEF702FFF7
:101E000004460028EFD1D6B92846FFF7F5F8044676
:101E1000E9E7EB698342E5D00E9021460CA80C95CA
:101E2000FEF7D1FC04460028DDD101460CA8FEF7E0
:101E300059FE04460028D5D00428D4D1DDE7024657
:101E400031466846FEF774FD04460028CBD1DBE737
:101E50000624C8E72DE9F0430E4691B0022105465D
:101E6000FEF788FA044600286CD1314604A8049590
:101E7000FFF7B0F90446002872D0042862D19DF81B
:101E80003B1011F020016DD168460095FEF7DCFC97
:101E9000064600285AD001285AD0431C5C425C41B7
:101EA00051F068FE0746002C54D131462846FEF713
:101EB00077FD044600284DD14FF02033EB632B64AF
:101EC000C5F843302E2385F83C30102385F8473081
:101ED000394605F1520005F13C0405F10508FEF70D
:101EE00061F9324621464046FEF7BFF905F15C0331
:101EF0001A4651F8040B42F8040B9942F9D12E23EB
:101F0000069A85F85D3040464FF00109FEF7ADF9BD
:101F100085F8079004A8FEF747FF0446D0B90B9850
:101F200039461630FEF73EF90B9932464046FEF729
:101F30009CF90B9B1022DA72284685F80790FFF770
:101F40005BF80446204611B0BDE8F0830724A7E7FC
:101F50000224A5E7002231466846FEF7E9FCF1E7D6
:101F60000824EFE70624EDE7F0B50D46A1B0022105
:101F700004461746FEF7FEF9002877D1294608A83F
:101F80000894FFF727F9002870D19DF84B3013F023
:101F9000A00F6DD10F9B6D4603F12006186859689C
:101FA0002A4603C20833B3421546F7D108AE0FCE16
:101FB00014AD0FC50FCE0FC596E80F0085E80F00D2
:101FC000394614A8FFF706F948B9169A0A9B9A42AF
:101FD00003D1189A0C9B9A4203D0082046E00428AB
:101FE00044D114A8FEF7E0FE00283FD11B990DF163
:101FF0000D0301F10D020DF11D0053F8045B42F8D1
:10200000045B8342F9D1188810809B7893709DF807
:102010000B30DA0658BF43F020030125CB72E5717F
:10202000CB7ADB061BD50A9A169B9A4217D06079A9
:10203000FEF70DF901462046FEF7BCF80146C8B18F
:102040002046FEF743F988B994F85D302E2B06D16F
:10205000169A04F15C01601DFEF707F9E57108A806
:10206000FEF7D0FD10B92046FEF7C6FF21B0F0BD47
:102070000620FBE70220F9E7F0B595B0064601918E
:102080000221FEF777F90446002833D102AF4FF062
:102090002033029305467B60C7F80730019B1B780D
:1020A0001F2B20D89DF80830E52B22D01DB16B1EC8
:1020B000FA5C202A35D0002108A808960A91FEF77C
:1020C00082FB0446B0B9012108A8FEF70BFD98BBBE
:1020D0000F9A45B33B4603CB1060516019889B783B
:1020E0009372118121E001A8FEF7A1F8B0F5803FBD
:1020F00003D30624204615B0F0BD52F08DFB40F20C
:10210000B51152F055FB0028F3D01D4A12F8013BDF
:1021100013B19842FAD1ECE7FF2822D80A2D28D92A
:10212000E7E71D46C2E7E52313700123F37130464C
:10213000FEF762FF0446DDE70428FBD1002DD9D06D
:10214000012108A8FEF7ABFC04460028D2D12022CA
:1021500001460F983EF09AF80F9B0822DA720F9A08
:10216000B8E7092DC5D814AB2B44020A03F8482C54
:10217000013514AB2B44013503F8480C8EE700BF42
:10218000EDE606082DE9F04FD0F800808BB01C4634
:1021900000234371029103790193154605210DF146
:1021A0001F02404600F02CFB9DF81F30DA0700F1BB
:1021B00089825E0700F1888208AA0321404600F068
:1021C0001FFB30B9089A531EB3F5004F01D21A42D3
:1021D00001D0012308935DB15C4BA5F500729A42D2
:1021E00003D913200BB0BDE8F08F6B1E2B42F8D142
:1021F000002C00F06B82149BB3F5007FC0F0668268
:10220000019B002B66D0012300222146404600F0AE
:10221000D3FA08B10120E5E794F8FF2194F8FE31E4
:1022200043EA02234AF65522934201D00E20D9E711
:10223000019B04EB031303F5D77193F8B231002B24
:10224000F4D001F10800FDF7A5FF074601F10C00ED
:10225000FDF7A0FF0990DDF824A0BAF1150FE5D92C
:10226000B5F5813FBDD2029B13F0020305934FEAFF
:102270005522029B41D003F00703022B00F0348269
:10228000029BD80740F13082002A3FD130484FEA04
:102290001A35012630F8023B0BB1AB4234D940F677
:1022A000F573BAFBF6F59D429BBF05EB450501357D
:1022B00002356D088CBF6D0003354FF0200305F229
:1022C000FF1504938CBF4FF002094FF001096D0A0E
:1022D00001232CE209AA0121404600F091FA0028CE
:1022E00098D1029B13F0080F099B14BF00273F27CA
:1022F000BB429BD3DB1B0993ADE7D907C4D470E77E
:102300005200F8E11346FDE17600C3E71646C6E742
:10231000B9F1020F1ED103994FF6F570814208D929
:10232000002A40F0DD817600402E00F238823246ED
:10233000AAE7039940F6F570814213D8002A7FF48A
:1023400075AF7200802A9FD970E700BF00FEFF00C2
:1023500000E70608039940F6F57291423FF666AF32
:102360004FF001094FF400720021204605933DF023
:102370008DFFD74A059B1168216051686160A37386
:102380001189927A2181C3F30723B9F1030F4FF02A
:102390000201A272E3734FF000024FF001032374B5
:1023A00014BF0B461346BAF5803FE2722173667381
:1023B0006274A37480F01D8184F813A0CAF3072A05
:1023C00084F814A0F82363753F2323764FF0000AA6
:1023D000FF2384F819A0A37684F81BA0394604F1E2
:1023E0001C00FDF7DFFEB9F1030F40F0088151F04A
:1023F000C1FB014604F14300FDF7D4FE294604F178
:102400002400FDF7CFFE022384F82C30012384F84A
:102410003030062384F83230802384F8403029237A
:1024200084F84230AB4B84F82DA084F82EA084F8B9
:102430002FA084F831A084F833A004F1470203F1FF
:10244000100153F8040B42F8040B8B42F9D11988A0
:102450009B7893704FF05503118084F8FE316FF034
:10246000550384F8FF313A4601232146404600F0E7
:10247000B2F9824600287FF4CDAEB9F1030F3ED108
:102480000123BA1D2146404600F0A5F94FF4007221
:10249000514620463DF0FAFE5223237063706123BB
:1024A000A37084F8E731039B41227221E27084F823
:1024B000E41184F8E51184F8E621591E04F5F4705E
:1024C000FDF770FE022384F8EC314FF0550384F8D9
:1024D000FE316FF0550384F8FF31FA1D01232146C8
:1024E00084F8EDA184F8EEA184F8EFA1404600F055
:1024F00072F90123FA182146404600F06CF9149B4A
:1025000023F4FF7222F00102002120463DF0BEFEBE
:10251000B9F1030F40F09080F8232370FF2363701C
:10252000A370E37023716371A371E371237263720B
:10253000A3720F23E372149B5B0A0393039BAB42CA
:1025400028BF2B4621465A4640469A4600F043F99A
:10255000014600287FF45EAE4FF4007220463DF045
:1025600095FEB5EB0A05D344E8D1049BB9F1030FFE
:1025700018BF1E46039BB34228BF33465A46214626
:1025800040461D4600F027F900287FF443AE761B35
:10259000AB44EFD1B9F1030F58D0099BB3F5803F9D
:1025A00056D2B9F1020F0CBF04250125019B002B67
:1025B00050D0002201232146404600F0FDF802469B
:1025C00000287FF427AE019B04EB031383F8B2517C
:1025D00001232146404600F0FEF800287FF41AAEA1
:1025E00000221146404600F00BF9003818BF0120C8
:1025F000F8E5514604F12000FDF7D4FDE2E651F084
:10260000B9FA014604F12700FDF7CCFDC5F3072315
:10261000E375802384F82430292384F826302E4B58
:10262000A57504F12B0203F1100153F8040B42F8D5
:10263000040B8B42F9D10AE7B9F1010F2749204673
:1026400018BF6FF00701FDF7ADFD74E70C25ADE78E
:102650000625ABE7029B1B07C2D401994FF4007219
:1026600020463DF013FE5523099A84F8FE31AA2333
:1026700084F8FF31019B84F8BE3184F8C1313A44BB
:1026800043F6C163B2FBF3F2FE2384F8C33193082F
:1026900043F03F03012684F8C43184F8C52139464C
:1026A00004F5E37084F8BF6184F8C06184F8C25116
:1026B000FDF778FD099904F5E570FDF773FD019AC2
:1026C000334686E703208DE50A208BE5112089E556
:1026D0002CE6060838E606084CE60608F8FFFF0078
:1026E000059B002B3FF4A2AD002A7FF40BAE3048CF
:1026F0004FEA5A45012230F8023B1BB1AB427FF64C
:10270000FFAD0023BAFBF2F02A4E8500A0F57F4012
:10271000F63805F20725B0424FEA55253FF686AD5B
:1027200016461A46002304934FF003092023049809
:10273000DDF820E007EB030B05EB000CDC440EF1A9
:10274000FF306044CEF1000E00EA0E00A0EB0C005A
:10275000B9F1030F06BF1B1883442D18C7EB0610F1
:102760008444E245FFF462AD0498AAEB0000C01A6D
:10277000B9F1030FA0EB0500B0FBF6F003907FF476
:10278000C7AD03994FF6F57081423FF6EBAD002AD5
:102790007FF44CAD012E7FF649AD7208A4E7059B8E
:1027A000002BA4D1802E3FF641AD324677E500BF25
:1027B0000EE70608FFFFFE0F10B50C4611461A463D
:1027C00038B1234604303CF077FB003818BF0120B5
:1027D00010BD0420FCE710B50C4611461A4650B156
:1027E000234604303CF0AAFB10F11E0F05D0003840
:1027F00018BF012010BD0420FCE70220FAE700000A
:1028000070B50D4614460646002833D0244A01F020
:102810000703D15C00292FD0002204303CF0DAFB02
:10282000062D27D8DFE805F008050A162619190035
:1028300006202AF0B3FD2060002070BD062805D1D7
:102840004FF4007323802388B360F5E72AF0A6FDD8
:102850002080F8E701232360EEE7062801D0430833
:1028600006D1336A002B0CBF042300232370E3E757
:102870000123FBE70420E0E7062DFBD801A353F872
:1028800025F000BF39280008312800084128000839
:1028900055280008752800086328000863280008E8
:1028A000B8330608086833F056B9000037B51D463E
:1028B000043001AB1446FEF76BFF38B1064B1B5CCE
:1028C0002B604FF0FF34204603B030BD019BA34284
:1028D000F9D01C23F4E700BFF833060813B51C46F3
:1028E000043001ABFEF7BEFE30B1044B1B5C23602D
:1028F0004FF0FF3002B010BD0198FBE7F833060837
:102900002DE9F843814650680E46904630F076FC3B
:102910002E4A2F490138002410F8013FD3B92C204A
:102920001DF0CEFB0746054647F8046BD8F80000BB
:1029300030F064FCE3B20246394609F14400FEF788
:10294000C9FD0646C0B328461DF0D4FB214B985D57
:1029500029F00AFF782BDFD8712B08D8612B24D0FF
:10296000622B25D02B2BD7D144F00304D4E7723B44
:10297000062BD1D801A555F823F000BF99290008EE
:1029800019290008B5290008192900081929000883
:102990009F290008A529000844F00104BCE744F081
:1029A0000A04B9E744F00604B6E744F01204B3E7BA
:1029B0000E46B1E71646AFE7E30603D52969384668
:1029C000FFF79EF82846BDE8F88300BF48340608A4
:1029D0000C340608F833060830B587B0044603AD5A
:1029E000084611461A46064B0093019503232AF028
:1029F000D3F92A4621460020FFF782FF07B030BDF9
:102A0000E03306081FB50623CDE9011203490393FD
:102A100001AAFFF775FF05B05DF804FB483406080E
:102A200013B50446084601912AF02CFC019B044989
:102A30000246204602B0BDE8104000F0BBBF00BF18
:102A4000C0330608022970B5044615461E4613D148
:102A50005368012B0AD0022B0CD01BB91168201D22
:102A6000FFF74EF8A3692B60002070BD81692B68C9
:102A70001944F4E70169FAE701290AD10430FEF7A5
:102A800047FF0028F0D0084B1B5C33604FF0FF304D
:102A9000EBE7042906D14368002BE5D00430FEF7AC
:102AA0006FFFEEE71623F0E7F83306082DE9F74F3E
:102AB00006299DF8305010D8012905D93F2300F888
:102AC000013B0023037001E00029FAD1012994BFE2
:102AD0000020012003B0BDE8F08F10EE104A002C5A
:102AE000044622DAB4EE400AF1EE10FA1DD62D2586
:102AF00004F8015BB1EE400A9FEDC27AF0EEC07AB5
:102B0000F4EE477AF1EE10FA02F0200E12DD8EF0AC
:102B1000490323708EF046058EF04E036370E11C6E
:102B2000A57000230B70081AD4E7002DE4D004F838
:102B3000015BE1E7B4EE400AF1EE10FA08D74EF07F
:102B40004E038EF0410523706570E11CA370E8E729
:102B5000002B42F02002B8BF0623672A02D1002BC7
:102B600008BF012310EE106A251A491B002E01F13F
:102B7000FF3547D1662A37D15E1CAE42A8BFCB1EB7
:102B800000275D1C6621BC463E46652923EAE378A2
:102B900040F0098108F10105002301934FF02E0B4D
:102BA000B2EE047A019B9D4200F30681662A40F052
:102BB0003381AE4240F3848197B10A2196FBF1F351
:102BC00001FB136693FBF1F201FB12324EF0450E4E
:102BD0003032303684F800E06770A270E67004345A
:102BE00000232370201A75E75E1DAE42A8BFCB1FDD
:102BF000652A11464FF0000540F0CF802B27AC46E8
:102C00002E46C2E7B6F17E5F6FD2DFED7F7ADFF846
:102C10000082DFF800A2B4EEE70AF1EE10FA4FF0FE
:102C20000007ACBF4FF031094FF030094FF0200CD6
:102C30003E46B8EC017AB4EEC07AF1EE10FAC4BFA9
:102C40000AEB070B9BED007A07F10407C4BF66444B
:102C500020EE070A182F4FEA6C0CEAD110EE107A1A
:102C6000B7F17E5F27D2B4EEE70AF1EE10FA1DDB72
:102C7000002E14BF2D272B27B7EE000A662A03D09B
:102C8000672A28D1042E26DC672A04BF06F1FF3705
:102C9000DB195F1CAF42A8BFCB1E84F8009063B95C
:102CA00001341D461F464FF0FF3C58E0F2EE047A17
:102CB00020EE270A01362D27E0E72E2161701D4600
:102CC00002343021013E6AD00DB92F46EBE704F8FB
:102CD000011B013DF6E78D1F9D4202DC672A60D093
:102CE000CB1F11460025AC464FE70027DFF82481B3
:102CF000DFF81C914FF0200C3E46F8EC017AF4EE20
:102D0000C07AF1EE10FA9CBF09EB070ADAED007AFF
:102D100007F104079CBF664420EE270A182F4FEAEC
:102D20006C0CEAD1FDEEC07A17EE907A092FC2BF83
:102D3000DFED367A013620EE270A662A11D1AE423F
:102D400017DA99190131A94205DBAD1B012DA5F157
:102D5000020308BF0023F5180135B4460027662199
:102D600013E7652A05D0672A0CD0114600252B27CA
:102D7000B9E78D1F9D4200DCCB1F00252B27AC46F9
:102D8000652102E71F1DAF4200DB8B1F9E4201DB66
:102D90006721EBE7711C5B1ADDE72F462FE737460B
:102DA00081E72B469DE767297FF4F6AE002BDABF5B
:102DB0000125A8464546EFE6FDEEC07A04F1010A7A
:102DC00017EE903A002BA8BF03F13009019BACBF6E
:102DD0005FFA89F94FF030099C4584F8009006D1DC
:102DE000B8F1000F03D004F1020A84F801B0F8EE44
:102DF000E77A019B30EE670A013320EE070A019360
:102E00005446CFE6FFFF7F7FF8FF7F3FCDCCCC3D20
:102E100014DD05082CDD0508F1EE047AB4EEE70AAE
:102E2000F1EE10FA24DB631E4FF030091D782E2DD1
:102E300003F1FF3C2ED0A5F1300ABAF1090F2BD9CE
:102E400001331D78302D13D193F801C0BCF12E0F42
:102E50002FD166292DD02D2F83F800C05D7026D18B
:102E6000013E08BF2B2721468B4224D33121197004
:102E7000672A7FF4A1AEB8F1000F3FF49DAE234660
:102E80001C46013B14F8012C302AF9D02E2A08BF29
:102E90001C4691E66346C9E7392D02D001351D7005
:102EA000CFE798428CF80190F4D10346C9E7013688
:102EB000D9E70134D7E711F8015C01F80159D3E7EC
:102EC000F1EE047AB4EEE70AF1EE10FAABDA73E64B
:102ED00008B5044631B1054B8A6B036009680023CD
:102EE0002CF078FA20461DF0B7F800BF78ED050801
:102EF0002DE9FF471E460192451812B1023A222AD7
:102F000034D80446AC42274639D214F8010B1EF0DF
:102F100069F980460028F5D13B782B2B29D127462B
:102F2000E91B384601AA27F03AFF0744B9460024B6
:102F3000A9454B4626D3B8F1000F00D06442640087
:102F400044F00104BB4209D01F46AF423B4641D288
:102F5000187801371EF046F90028F6D12049019A69
:102F600020482CF0FBF93146FFF7B2FF1E4829F04C
:102F700013FA2D2B04BF27464FF00108D0E74FF07E
:102F80000008CDE719F8012BA2F1300ABAF1090FB8
:102F900009D95F2ACCD042F02002A2F1610119299F
:102FA000C9D8A2F1570A01995145C4D9204636F033
:102FB0004BFE28B9019B03FB04A494EA4403B7D554
:102FC000019B03974246E91B03A82DF0D3FB039B0B
:102FD0000446B7E7C2D1204604B0BDE8F08700BF81
:102FE00059DD050868EE050844DD05082DE9F04FB8
:102FF0002DED028B83B00446DDF8388001939146B5
:103000004618B442254680F0318128781EF0EAF84F
:10301000013407460028F4D12B782B2B09D1254603
:103020008246B4420CD30023DFED938A1F46184634
:103030008BE02D2B03D125464FF0010AF1E78246A4
:103040002B7843F02003692B32D1AB1C9E4240F217
:1030500005816B7843F020036E2B40F0FF80AB7846
:1030600043F02003662B40F0F980EB1D9E4205F1F2
:1030700003041AD9EB7843F02003692B15D12B797F
:1030800043F020036E2B10D16B7943F02003692BA2
:103090000BD1AB7943F02003742B06D1EB7943F0CD
:1030A0002003792B01D105F108049FED748A14E007
:1030B0006E2B2AD1AB1C9E4240F2D0806B7843F03D
:1030C0002003612B40F0CA80AB7843F020036E2BC5
:1030D00040F0C4809FED6A8AEC1CBAF1000F01D069
:1030E000B1EE488AA54209D0B442234680F09880C8
:1030F000187801341EF076F80028F5D1614962484D
:103100002CF0A2F84146FFF7E3FE0023DFED5A8AD8
:103110009FED5E7A0093AC4618461946F2EE046ABB
:10312000644614F801EBAEF1300BBBF1090F38D84F
:10313000022922D1564A904202DC0A2202FB00B048
:10314000A6425ED8009A02B14042034413F1250F13
:10315000BEBFDFED507A253368EEA78A13F1090F61
:1031600053D35B4200EE903AB2EE040AF8EEE00A66
:103170003EF0ECF888EE808AAFE7F4EEC78AF1EE15
:1031800010FA0BD507EE90BAF8EEE77A0129E8EECF
:10319000A67AF0EE678A31D1013BD1E729B9013334
:1031A000CEE721B9BEF12E0F03D10121C8E70229D4
:1031B00017D04EF0200BBBF1650F12D1A64258D9A3
:1031C0009CF801102B2905D10CF10204B44295D0D2
:1031D0000221B5E72D2913D101220CF1020400923E
:1031E000F4E7B9F1000F04D04EF0200BBBF16A0FE9
:1031F00009D0BEF15F0FA3D06446A3E700219FE78B
:103200000221A4468CE74F469CE707EE903AB2EEC7
:10321000040AF8EEE70A3EF099F828EE808A5CE7A7
:103220007FF46CAF57B19FED140AF0EE480A03B07B
:10323000BDEC028BBDE8F04F2BF0BAB8019B23B177
:10324000DFED0D0AB0EE480AF1E7B0EE480A03B030
:10325000BDEC028BBDE8F04F2CF0DAB9BAF1000FEB
:103260003FF44CAF9FED048A2C4639E74FF0000A3B
:10327000D9E63FF443AF65E7000000000000807F1F
:103280000000C07F65DD050868EE0508EC78AD60DC
:1032900064666606EA1C08020846114649F04CBA04
:1032A00037B50546084601913DF028F8044620B19F
:1032B00002466B68019928689847204603B030BDE4
:1032C0002DE9F74F89469DF8301017460D9A11F0F9
:1032D000DF0F0646A2EB07023DD0302925490CA896
:1032E00013BF804688464FF0100A4FF0010A13F0D2
:1032F000800535D002EBD2746510A2EB6404002D7A
:1033000035DDAB46DA45524673683068A8BF5A4689
:10331000414601929847019AABEB020BBBF1000FBB
:10332000F0DC2FB1736830683A46494698473D440F
:10333000002C0CDD2544A2455746A8BF27467368DC
:1033400030683A464146E41B9847002CF3DC284697
:1033500003B0BDE8F08FDFF820804FF0100AC6E719
:1033600013F0010401D11546C9E71446D9E7002539
:10337000D7E700BFF1CD0508E0CD05082DE9F04302
:1033800089B006460020119D9DF84880139F8DF856
:103390000F000AB381421ADA2D228DF80F2049421C
:1033A000109A08ACA2F10A000DF11009B1FBF3FC70
:1033B00003FB1C12092A8CBF1218303204F8012DAD
:1033C0004C458E4661460ED07345EFD90BE0A807F9
:1033D00027D52B228DF80F200029E1D130238DF83D
:1033E0001F300DF11F0415F040099DF80F301CD05F
:1033F00023B30122CDE900822B460DF10F013046A7
:10340000FFF75EFF013F814608AACDE900872B4602
:10341000121B21463046FFF753FF484409B0BDE870
:10342000F0836A07D8D52022D4E7002BECD004AA79
:103430009442E9D904F8013C013CE5E79946E3E709
:103440002DE9F04F93B081461D46C8079DF87430B2
:103450001C9E0693DDE91E7A0C4690460BD4A1070C
:1034600003D12268794B9A4205D0204629F096FF75
:10347000400040F0010416F0810306D1069A302A7C
:1034800003D15745B8BF57469A4620462DF084F8D9
:1034900000280DF1280B18DBB20712D52B238DF86D
:1034A00028300DF12902F006EDB21DD5B8F1020F5A
:1034B0000DD11346302103F8021B691C51701A46C6
:1034C00012E0730701D52023E9E75A46EBE7B8F18C
:1034D000080F60D1B1054FF03003137045BF05F1FF
:1034E0000E03537001320232A2EB0B03002116F0DF
:1034F000200F117005930EAA0CBF0B462C23BAF1B6
:10350000010F0B92C8BF46F040061022CDE90C21F6
:1035100016F04002CDE902538DF82710079244D0EF
:10352000CDE9008123460DAA0CA90BA82CF014FFAD
:1035300003782D2B804606D18DF827300D9B013B5B
:1035400000F101080D93BAF1010F3CDD0D9D079BC1
:103550005545B8BF55462BB19DF8273003B101350D
:10356000059B1D44AF422BDD16F00103A7EB0505BB
:1035700027D12C461D4626F001064CB1202300938E
:103580000023019432491A464846FFF799FE044643
:103590003023069319E0B8F1100FA5D1134630215E
:1035A00003F8021B05F1170188E70AABCDE9008398
:1035B0000DAA23460CA90BA82CF0CEFE8046C2E72C
:1035C00000250024D7E700252C46079BDBB19DF89A
:1035D000273053B100230122CDE900320DF127013C
:1035E0004846FFF76DFE013F0444059B5BB1002395
:1035F0000122CDE900325946059A4846FFF760FEA0
:10360000059B0444FF1A069B0093BAF1010FC8BF43
:1036100057460D9A0197334641464846FFF750FEFC
:1036200004444DB1202300930023094901951A4613
:103630004846FFF745FE04440B980EAB984201D074
:103640001CF058FD204613B0BDE8F08FB8F3050814
:10365000338E06082DE9F04316468BB0B207DDF82D
:103660004890074698463DD416F0040F0CBF00233F
:10367000202300930A46139B202102A8FFF716FA85
:10368000F30504460DD5431C1F2B0AD80AAA14447F
:10369000252204F8202C0AAA1A44002102F8201C32
:1036A0001C4616F040051FD09DF808302F2B4FF018
:1036B00000031BD8012202A9CDE900323846FFF7EA
:1036C000FFFD09F1FF390546013C0DF10901CDE986
:1036D0000089334622463846FFF7F2FD28440BB0F6
:1036E000BDE8F0832B23C4E702A9F0E702A91D4639
:1036F000EDE700002DE9F04F824689B01446002620
:103700000B461D4613F8012B82B9A94211D30B7841
:10371000002B00F04681013120234FF000080A46BB
:1037200012F8015B7DB94FF00A0C2AE0252AE8D196
:10373000EBE76F1ADAF80430DAF800003A469847F7
:103740003E442946E3E72D2D03D148F001081146F8
:10375000E5E72B2D02D148F00208F8E7202D02D131
:1037600048F00408F3E7212D02D148F00808EEE7FD
:10377000302D22D148F040082B46E8E70CFB052508
:10378000303D0F4611F8012BA2F130000928F5D980
:103790002E2A42D17A782A2A11D00A464FF00A0CF2
:1037A0000021174612F801BBABF13000092809D8F7
:1037B0000CFB01BBABF13001F3E70025B3E754F894
:1037C000041B023721EAE17B3A786C2A08BF0137F3
:1037D00097F80090B9F1000F00F0E380B9F1780F8D
:1037E0006BD8B9F1570F1BD8B9F1470F62D8B9F1AF
:1037F000440F62D9073424F00704F4E8020104936B
:1038000054F0CAFACDE9005B00EE100A049B424670
:1038100049465046FFF71EFF63E04FF0FF3BD3E7FA
:10382000A9F15802202A48D801A151F822F000BF7E
:1038300071390008BB380008BB380008BB380008E5
:10384000BB380008BB380008BB380008BB3800088C
:10385000BB380008BB380008CD380008EF38000836
:1038600055390008F5370008F5370008F537000826
:10387000BB380008BB380008BB380008BB3800085C
:10388000BB380008BB380008BB380008BB3800084C
:103890009339000803390008BB3800082D390008A7
:1038A000BB38000871390008BB380008BB38000875
:1038B00071390008B9F1500F6BD0DAF80430DAF83A
:1038C000000001223946984701360BE054F8042BDA
:1038D000CDE9003543463AB1344904225046FFF75A
:1038E000EFFC0644791C0BE731490522F6E754F852
:1038F000042B8DF81C20CDE900350122434607A991
:10390000ECE707A954F8040B04931DF03EFABBF151
:10391000FF3F049B014604D0079A934538BFCDF87A
:103920001CB0CDE90035079A4346D7E754F8041B8D
:103930000593084604913CF0E1FCBBF1FF3FDDE953
:103940000413024602D0584528BF5A46CDE9003537
:103950004346C3E7CDE9023561230093CDF80480E7
:103960000A23012254F8041B5046FFF707FDB8E76D
:1039700029F00F0209F101010F3A01F00601D2B25C
:10398000CDE90235CDF804800092C1F11003002288
:10399000E8E7CDE9023561230093CDF804801023D8
:1039A000F5E7304609B0BDE8F08F00BFCCCD050883
:1039B000D1CD05080EB403B503AA52F8041B019239
:1039C000FFF798FE02B05DF804EB03B0704700000B
:020000040802F0
:10000000034B1B685B681A69026018610020704727
:1000100038620020034B1B685B681A6912681A611A
:10002000704700BF38620020C46005614661876187
:10003000C0F81C80C0F82090C0F824A0C0F828B0F8
:10004000C0F82CD080ED0C8B80ED0E9B80ED10ABBA
:10005000C0F808E0FFF7D4BF08B5114B1B6859681A
:100060000B690BB92BF042FA1A6858600A611846FE
:10007000C468056946698769D0F81C80D0F820906B
:10008000D0F824A0D0F828B0D0F82CD090ED0C8B6C
:1000900090ED0E9B90ED10ABD0F808E0012070477A
:1000A0003862002010B50021044600F0B9FA18B9F2
:1000B00014B120460CF05CF910BD002100F0B0BA7C
:1000C00010B50121044600F0ABFA18B914B120466E
:1000D0000CF04EF910BDFFF7E5BF10B501220C463C
:1000E00000F0B2FB18B914B120460CF041F910BD74
:1000F00000F0AABB00F06ABB2DE9F0432A4C0025B2
:100100000326D4F8F4710021013143189A0803F052
:100110000303BA5C5B0042FA03F303F00303022B10
:10012000F2D0D4F8003209018A0803EB001089B339
:1001300000EB820103681A0729D1D4F800229A4201
:1001400025D89A1AC2F301174FEA470ED4F8047261
:100150009F424FEA921C4FEA121218D9D4F8F48148
:1001600018F80C9049FA0EF707F00307012F0ED18B
:1001700006FA0EF304EB450E3F2D43EA090308F897
:100180000C309ABF0135AEF80C22C4F80872043066
:100190008842CFD12DB1013D04EB4503B3F80C02E9
:1001A000AFE7BDE8F08300BF705B0020F0B4194EEC
:1001B000D6E97F43C01AC109C0F30215635C01226E
:1001C000AA4023EA02036354D6F89822830904095B
:1001D000B2EB901FD6F8F40188BFC6F89832C15C24
:1001E000A50804F0030303275B0007FA03F321EAE1
:1001F000030343550134D6F8F401A50804F00303C2
:10020000415D5A0041FA02F202F00302022AEBD0E9
:10021000F0BC7047705B002021F00F0370B5144AEA
:10022000144D1C1AE400A2FB0424640A0219A3EB77
:100230008416C5F8FC2100212246C5E98063C5E982
:100240007D0420F023F8A2000732D2080021D5F85F
:10025000FC0120F01BF800234FF480314FF0FF32F7
:10026000C5E9A432C5F88C12C5F8983270BD00BF3C
:10027000F32C23FA705B0020034AB2F88C3201336E
:10028000A2F88C32704700BF705B0020034AB2F8BE
:100290008C32013BA2F88C32704700BF705B0020AB
:1002A000034BB3F88C02003818BF0120704700BF21
:1002B000705B0020F8B51D4CB4F88C32002201337D
:1002C000A4F88C32C4F89022C4F80822251D04F545
:1002D000E876032755F8042F13071AD1D4F8000243
:1002E000824216D3D4F80412101AC0F301138A42C2
:1002F0004FEA901C4FEA43034FEA101009D2D4F89A
:10030000F41111F80CE04EFA03F202F00302012A94
:1003100002D0AE42DED1F8BD07FA03F343EA0E0382
:1003200001F80C30FFF7E8FEF3E700BF705B002038
:1003300081B3F8B5041F184E04EB8105032754F868
:10034000043F1A071AD1D6F80002984216D8D6F8F8
:100350000412181AC0F3011299424FEA901C4FEA96
:1003600042024FEA101009D9D6F8F41111F80CE046
:100370004EFA02F303F00303012B02D0A542DED1B3
:10038000F8BD07FA02F242EA0E0201F80C20FFF76C
:10039000B3FEF3E7704700BF705B00202DE9F04F1C
:1003A0005A4CD4F8083285B0002B00F0AB80D4F85A
:1003B000F83100269A00C4F80862002A43D00025CC
:1003C000D4F8F411AB08CB5C05F0030149000B41F4
:1003D00003F00303032B41D001359542F0D3D4F849
:1003E0000832002BE7D172B34FF0000E76464FF083
:1003F000030A4FF001094FF0020804E0012B4BD033
:10040000013696421FD2D4F8F4C1B70806F00305AE
:100410001CF807106D0041FA05F303F00303022BEB
:100420000CEB96002AD0032BE8D108FA05F521EA57
:1004300005010CF80710D4F8F83101369A009642FD
:100440004FF0000EDFD3B4F88C320022013BA4F849
:100450008C32C4F8982205B0BDE8F08F2846FFF72B
:100460004BFED4F8F8310135B5EB830F4FEA830228
:10047000A6D3D4F80832002B9DD1B4E7BEF1000F0B
:10048000BED00AFA05F521EA05010170D4F8F83169
:100490004FF0010E9A00B3E7D4F8FC21F30806F000
:1004A000070B12F803C001934CFA0BFE1EF0010F6C
:1004B00002EBD602E5D0D4F800023101415800EB3E
:1004C0000610A1B102AAB1210BF058F9DDE9013201
:1004D00042B10CF091F9DDE902010CF063F90CF086
:1004E000A1F9019BD4F8FC2112F803C01A4409FABF
:1004F0000BFB2CEA0B0C82F800C0D4F8F431D95D68
:10050000D819BEE7D4F8F8319A006CE7705B002088
:10051000054BB3F88C2200210132A3F88C22C3F8DA
:100520000812FFF73BBF00BF705B00203B4BD3E9D5
:1005300080122DE9F047D3E97D760023C0E902332C
:10054000C0E90433521AC0E900231D4683619E4668
:100550009C461C461A46994619469846B60017F816
:10056000093049000B4103F00303012B49D0022B52
:1005700043D0002B39D0013296420ED04FEA920977
:1005800002F0030117F809304FEA410A43FA0AF36F
:1005900013F0030301D0012BE1D1012C11D0022C67
:1005A00002D14169013141618169A14238BF846151
:1005B00096420FD0012B28D04FEA920902F0030196
:1005C000CDE70169013101618169A14238BF8461D0
:1005D0009642EFD1C44501D9C0F80CC02D014FEAB5
:1005E0000E13C0E90153BDE8F0870EF1010EC0F80B
:1005F00008E00CF1010C1C46BDE7013545600134F3
:10060000B9E7013545601C46B5E7E04502D2C0F8C0
:100610000CC0E0464FF0000CCEE700BF705B00203E
:100620000F302DE9F843060951D0674CB4F88C32ED
:10063000002B4CD1B4F88E32002B0D460CBF4FF07E
:10064000010E4FF0000E47D1D4F89802D4F8F8719B
:10065000874239D9D4F8F4C1411E614400221AE01E
:100660000132964253D913F00C0F1ED1013296423B
:1006700040F2A08013F0300F1CD10132964240F2BC
:100680009C8013F0C00F1AD10132964240F298803C
:100690000130B84218D211F8013F13F0030FDFD038
:1006A00013F00C0F4FF00002E0D013F0300F4FF0BA
:1006B0000002E2D013F0C00F4FF00002E4D001308E
:1006C000B8424FF00002E6D3BEF1000F14D04FF055
:1006D00000084046BDE8F883D4E9A4239A42B3D386
:1006E00030F03EFCD4F89802D4F8F871B84238BF24
:1006F0004FF0010EAED3EAE730F032FCD4F89802A6
:10070000D4F8F87187424FF0010EA3D8DFE78000DC
:10071000811A012A01F1010703D1431C9B08C4F887
:1007200098324FEA970E07F003031CF80E904FEA39
:100730004308012303FA08F3023143EA090388421C
:100740000CF80E3013D34FF002084FEA910CD4F896
:10075000F4E101F003031EF80C905B0008FA03F3C8
:10076000013143EA090388420EF80C30EDD2D4F887
:100770000092D4F8903209EB07181E44120140464B
:100780000021C4F890621FF081FDEB074FEA0716C5
:100790009FD50023D4F8FC1149F80630FA0801234C
:1007A000885C07F0070703FA07F707438F544046B2
:1007B000BDE8F88380000130AAE780000230A7E797
:1007C00080000330A4E700BF705B0020034BB3F848
:1007D0008C2212B908B1FFF7E9BC7047705B0020AA
:1007E00010F00F021CD11749D1F80032834218D8FB
:1007F00010B4D1F8044284420ED9C31AD1F8F4419E
:100800009909C3F30110615C4000014101F003014B
:1008100001294FEA131306D010465DF8044B7047C8
:1008200000221046704701329918880801F0030130
:10083000205C490040FA01F101F003010229F2D0E5
:100840001201E9E7705B00202DE9F84F8E4607465C
:10085000002800F0AA80002974D0584EB6F88C42C7
:10086000002C74D1D6F80012D6F8F831411A0809D4
:1008700000F1010C0EF10F05BCEB830F4FEA830A68
:100880004FEA151580F09780D6F8F4914FF00108E3
:100890004FEA9C0B0CF0030319F80BB05B004BFA0A
:1008A00003F303F00303022B55D023B9013404EB07
:1008B0000803AB4251D3454540D020D34444AC4219
:1008C00050D2002A43D0D6F8FC31C90900F0070005
:1008D000595C014101F001017046FFF7A1FE044699
:1008E000A8B34FEA081239461FF08AFCB6F88C32DA
:1008F0002BBB3846FFF75AFC2046BDE8F88F05446D
:100900002C4640444FF003094FEA940ED6F8F411F8
:1009100004F0030311F80EC05B0009FA03F301347D
:100920002CEA0303844201F80E30EDD1D6F8983258
:10093000AA08B3EB950F88BFC6F898223C4620461C
:10094000BDE8F88F1D4BB3F88C42002CD2D00024A8
:100950002046BDE8F88F08F101080CF1010CE245D2
:1009600096D1A8E700EB08022844904211D94FF035
:10097000020E9408D6F8F41102F0030311F804C033
:100980005B000EFA03F3013243EA0C0390420B556D
:10099000EFD1A5EB0802120107EB081000213C463D
:1009A0001FF074FC2046BDE8F88F01467046BDE894
:1009B000F84FFFF735BE4FF001087CE7705B002071
:1009C00010B58AB00B4C03A8FFF7B0FD059B009350
:1009D0000949DDE903232046E2F7ECFF069A099B6B
:1009E000019200930549DDE907232046E2F7E2FF83
:1009F0000AB010BDD8CD0508588105087C810508CE
:100A00002DE9F047DFF86CA14B49DAF800224B489A
:100A1000E2F7D0FFDAF8F811890078D0DFF85891C2
:100A2000DFF85881454F00250EE0012E3ED02E22E2
:100A300043493846E2F7BEFFDAF8F8310135B5EB45
:100A4000830F4FEA830162D215F03F0610D005F004
:100A500003067600DAF8F421AB08D35C43FA06F615
:100A600006F00306022E1FD0032EDED16D22DFE733
:100A7000DAF8F4012C46A20804F00303825C5B0060
:100A800042FA03F39B0702D101348C42F3D3621B79
:100A90007F2A30D805F00306760009EA05124146A0
:100AA0003846E2F787FFD5E73D22C1E7DAF80012C2
:100AB000244B2A018A589A422FD0234B9A422ED097
:100AC000224B9A422FD0224B9A422AD0214B9A4253
:100AD00027D0214B9A4228D0204B9A4225D0204B38
:100AE0009A4226D01F4B9A4221D01F4B9A420CBFEC
:100AF0004D2268229CE71D4992093846E2F75AFFC9
:100B0000DAF8F83124F03F05B5EB830FC5D3BDE823
:100B1000F04717490948E2F7C3BB542288E74C2243
:100B200086E7532284E7442282E7412280E742227B
:100B30007EE746227CE700BFC4810508D8CD0508C2
:100B4000088205089803060828F50508B8E705088F
:100B500018010608B4FE050848E305080CE305087B
:100B600068EF0508F8EF0508DCF60508E4810508DC
:100B7000E0810508705B0020F0FF0F00008205088F
:100B8000054B5B695A68824204D8801A043053F8D6
:100B9000200070471B68F5E7705B0020014441F2BC
:100BA0000553884204D398B2012838BF012070470A
:100BB00010F8012B03EB43135340F2E7034B044AB5
:100BC0005A610022C3F8D421704700BF705B002037
:100BD000307F06082DE9F84F80460D46FFF7DEFF0F
:100BE000134B5C6907460CB920461EE0E36804F12C
:100BF000100B0BEB83095E464E45B24601D32468C9
:100C0000F1E756F8040B0388BB42F5D18378AB4279
:100C1000F2D12A46414603301FF04EFB0028EBD1AB
:100C20006068AAEB0B0A00EBAA00BDE8F88F00BFD2
:100C3000705B00202DE9F04780460E46FFF7CAFFA3
:100C40000246002877D1FF2E03D9404940480AF0D8
:100C50000BFE404CD4F8D401351D90B1D4E9761385
:100C60002B448B422BD92944FFF742FA0746E8B9B7
:100C70000246D4F8DC11D4F8D401FFF739FAC4F8ED
:100C8000D471802D2F4638BF80273846FFF715FADC
:100C9000C4F8D401002852D12846FFF70EFAC4F850
:100CA000D40100284AD128460BF062FBD4F8D83191
:100CB0002B44C4F8D831D4F8D431002BE1D0D4F887
:100CC000DC91D4F8D4A131464D444046C4F8DC51FF
:100CD000FFF764FF0AEB09070AF80900000A7870B9
:100CE000BE7032464146F81C1FF08AFAB919002638
:100CF000CE706369D3E90253AB4212D36D000A2D63
:100D000038BF0A25281D8000FFF7D7F90028CAD070
:100D1000626902605368D268C6601344C0E9013555
:100D200060616369D9685A68481C0431D860013A27
:100D300043F8217002441046BDE8F0872F46002397
:100D4000C4F8D871C4F8DC31B9E700BF0B820508DC
:100D5000C4EC0508705B002010B504461FF0CEFA05
:100D600001462046BDE81040FFF764BF08B5FFF715
:100D700007FF008808BD08B5FFF702FF807808BDAF
:100D800008B5FFF7FDFE033008BD08B5FFF7F8FE14
:100D900083780B60033008BD2DE9F8431D4600231E
:100DA00003600B6013602B60174BDFF860905C6989
:100DB0000746884616460CB14C4505D12B6832686B
:100DC00013442B60BDE8F8833B6801333B60E26865
:100DD000D8F800301344C8F80030E26804F110037A
:100DE00003EB8202934207D32046FFF7F9FC2B68FE
:100DF000246818442860DEE753F8041B88783168BB
:100E0000043101443160EDE7705B0020307F06085B
:100E10002DE9F8430E4B0F4F5C69DFF83C80DFF89B
:100E20003C900CB1BC4201D1BDE8F883E36804F109
:100E3000100505EB8306B54201D32468F1E755F8A8
:100E4000042B414603324846E2F7B4FDF3E700BF06
:100E5000705B0020307F060813820508D8CD050896
:100E600030B50023202411F8012F0AB9027030BDDB
:100E7000120600F101051FD50BB1047028460B784E
:100E8000124A03F07F036BB9013A12F8013F13F0E5
:100E9000800F054600F101000BD003F07F032B709B
:100EA0000123E0E712F9015B002DFBDA013BDBB225
:100EB000E9E700F8013CE8E7012B04BF047028468D
:100EC0000B7800F8013B0223CDE700BF1A8205082A
:100ED00038B54468036821449942054611D9037B1B
:100EE000DB0703D5074800210AF0BEFC01F110041E
:100EF00024F00704083480682146FFF7EEF82C60E0
:100F0000A86038BDC4EC050870B504460E4611460D
:100F10001546FFF7DDFFD4E901302A463146184473
:100F20001FF09CF962682A44626070BD70B5466823
:100F3000B142044628BF31460D460121FFF7C8FFE4
:100F4000A368681C5919721B18441FF087F963685D
:100F5000A06801336360284470BD38B50129044698
:100F600038BF01210025084621606560FFF79AF827
:100F7000237BA06065F30003237338BD38B50546B5
:100F80000C460131FFF7E9FF6C6038BD0023C0E972
:100F90000132037B016043F00103037370470000DB
:100FA00038B514460546FFF7D8FF024B256063604D
:100FB00038BD00BF090F0208037BDB0710B50446EC
:100FC00002D48068FFF796F80023A36010BD13B524
:100FD00001901020FFF766F801990446FFF7BDFF66
:100FE000204602B010BD10B5044650B1037BDB07AC
:100FF00002D48068FFF77EF82046BDE81040FFF776
:1010000079B810BD38B5037BDB0704460D4603D520
:10101000074800210AF028FC016880682944FFF78E
:101020005CF82368A0601D442560184438BD00BFEB
:10103000C4EC050838B504460D46FFF749FFD4E96E
:1010400001301D446560184438BDD0E900239A4240
:1010500010B5044602D10121FFF7D4FFD4E90132D3
:101060000021D154A06810BD10B50C460121FFF736
:10107000E1FF047010BD7F29F8B50C46CEB204D84C
:101080000121FFF7D7FF0670F8BD06F03F06B1F566
:10109000006FC1F3871546F0800607D20221FFF7E3
:1010A000C9FF65F03F0505704670EDE705F03F05A7
:1010B000B1F5803FC1F3073745F0800508D2032121
:1010C000FFF7B8FF67F01F07077045708670DBE712
:1010D0000421FFF7AFFFA40C07F03F0764F00F04F3
:1010E00067F07F07047047708570C670CCE713B552
:1010F0000446084601911FF001F901990246204675
:1011000002B0BDE81040FFF7FFBE10B51446FFF770
:101110000DFF047010BD10B51446FFF707FF0470F3
:1011200010BD43688B422CBF591A002141607047A3
:1011300038B50446154662688A42084603D92944F0
:101140008A4201D8606038BDA368521A1844194415
:101150001FF084F86268521B6260F4E790F9001097
:1011600003780029024601DB1846704703F07F0030
:101170004023184206D112F8013F03F0C001802934
:1011800004D0704720EA03005B08F2E703F03F0356
:1011900043EA8010EFE7431C18460133027802F05F
:1011A000C002802AF8D0704703460020994200D838
:1011B000704711F8012D02F0C002802A18BF0130DB
:1011C000F4E701440346002099421A4600D87047CC
:1011D000127802F0C002802A03F1010318BF013027
:1011E000F2E700007F289DBF024B185CC0F340006F
:1011F0000020704702CE05087F289DBF024B185C77
:10120000C0F3C0000020704702CE05087F289DBFB4
:10121000024B185CC0F380000020704702CE050826
:101220007F289DBF024B185CC0F3801000207047E0
:1012300002CE05087F2809D8064B1B5C13F00C0F63
:1012400006D1A0F15F035842584170470020704713
:101250000120704702CE05087F289DBF024B185C15
:10126000C0F300100020704702CE05087F289DBF04
:10127000024B185CC0F340100020704702CE0508F6
:1012800008B50246FFF7E8FF00B12032104608BD5E
:1012900008B50246FFF7EAFF00B1203A104608BD44
:1012A0003038092884BF20F020000738704710B577
:1012B00001440246E5240020914203D8B0FA80F0B0
:1012C000400917E012F8013B30B103F0C003802B56
:1012D00011D1431ED8B2EFE7BF2B09D9F72B09D89C
:1012E000DB0803F0060344FA03F303F00300E3E72B
:1012F0001B06E1D510BD0020FCE7023981420B46F8
:1013000003D20233181A401070471A880239002A93
:10131000F4D0F6E7B2EB131F70B54FEA131415D9EA
:10132000121B03F00F0301EB440115460E46012D7D
:1013300031F8024B18BF3468DC40A4B2013D20F8FC
:10134000024BF3D104B9013A104670BD0022FBE70D
:10135000F0B5059F0024D21B2646A74210D100EB12
:10136000470C01EB47010024A24214D10CEB4203CD
:101370001EB101212CF812100233181A4010F0BDD2
:1013800031F8145033F814C06544354420F8145033
:101390002E0C0134E1E731F8145035442CF8145088
:1013A0002E0C0134E0E7F0B4049F0025D21B2C463C
:1013B000AF420BD100EB470601EB470500239A42F1
:1013C0000FD106EB4201F0BCFFF797BF31F8156073
:1013D000344433F81560A41B20F81540241401355B
:1013E000E6E735F813100C4426F8134024140133B3
:1013F000E5E72DE9F043079CDDF828E0DDE9087614
:101400000239154684464FF6FF78A4EB020955B918
:1014100000EB42011FB1012320F812300231BDE878
:10142000F043FFF76ABF31F8024F013D44442644C0
:1014300005EB0904AC4296BF33F8024B4FF6FF743C
:101440004444744486EA040E17FA8EF72CF8027BA3
:101450004FEA144E360C3F0CD9E738B50229044642
:10146000806838BF02210D4618B12368B1EB930F95
:1014700007D96900FEF731FE2368A06065F39F037A
:10148000236038BD38B504460C20FEF70BFE2368F8
:101490002278054602F00102C3F39D0023F0030306
:1014A00013432B6063686B604000FEF7FBFDA86090
:1014B0002268A168C2F39D0252001EF0A1FE2846D8
:1014C00038BD10B500EB410002EB410209B90846F6
:1014D00010BD30F8023D32F8024D1B1B002B02DB21
:1014E00004D10139F2E74FF0FF30F1E70120EFE7D7
:1014F00010B5044638B18068FEF7FCFD2046BDE813
:101500001040FEF7F7BD10BD38B505460C46022168
:10151000FFF7A3FF002C2B78B4BF0122002262F357
:1015200000032B70AB68B4BF61422146023B01222D
:1015300023F8021F090C104602F10102F8D168607D
:1015400038BD0023C0E900338360704728B10378B9
:101550009B0702D48068FEF7CDBD704738B50546BD
:101560000C464968FFF779FF22782B78A86862F368
:1015700000032B7063686B606268A1685200BDE86D
:1015800038401EF03DBE09B941607047FFF7BCBF4F
:1015900008B5FFF7D6FFBDE80840FFF7F4BF92009B
:1015A00042F0020210B402600022C0E901215DF89D
:1015B000044B1946FFF7E7BFF8B59DF818700421F2
:1015C000064614461D46FFF748FF87B1002C75F10B
:1015D00000030CDA624265EB4503317867F30001E2
:1015E00031700021716052EA030104D1F8BD224636
:1015F0002B460027F1E7D6E901104C1C746020F857
:101600001120110C41EA0341180C0A460346EAE78F
:101610002DE9F3418DED010A019C0378E20F62F39D
:1016200000030370C4F30F4313F4FF43074604D1D0
:1016300000237B6002B0BDE8F081B3F5FF4FF7D027
:10164000C4F3C753A3F17F05002DF1DB05D10121C0
:1016500002B0BDE8F041FFF757BFB3F16F0848BFD4
:10166000A3F16008C4F31604162D4FEA281844F4B9
:10167000000421DCC5F11705EC4000252E4641464B
:101680003846FFF7EAFEC7F8048026B1B868720052
:1016900000211EF0FBFD45B1BB6804FA05F223F8FA
:1016A0001620C5F11005EC400136B045C2D0BB682C
:1016B00023F81640240CF7E7B3F1960605F1090567
:1016C00048BFA3F1870605F00F053611D7E72DE9CE
:1016D000F84304468F18C2F35B020D46511C98462E
:1016E000089EFFF7BAFE237868F3000323700023F7
:1016F000636029461FFA86FCB942084602D3401BA4
:10170000BDE8F8830278A2F13003092B01F1010151
:1017100005D9A2F14103192B14D8A2F13703B34222
:10172000EDD2D4E901E0F0468146B8F1000F10D1C6
:1017300000EB4E0213B120F81E300232121A521082
:101740006260D9E7A2F16103192BD8D8A2F157033F
:10175000E5E7B9F8002002FB0C3329F8023B08F159
:10176000FF381B0CE1E7F8B5044615461E46C1B12B
:10177000531E1E444FF0FF37E9000F310909204680
:10178000FFF76BFE237800216FF300032370616085
:101790004DB9D4E9011000EB4101FFF7AEFD6060E7
:1017A000F8BD0127E8E700230F2908DC32788A40DA
:1017B0001343013D9BB201F108013E44F4D162683C
:1017C000501C6060A068103920F81230E0E770B556
:1017D000456804460DB9486898B10B78267803F03F
:1017E000010306F00100181A0BD14B689D4209D382
:1017F0000BD88A68A0682946FFF763FEF30748BF45
:10180000404270BD4FF0FF30F8E70120F6E7884214
:1018100010B5044601D0FFF7A1FE23786FF3000353
:10182000237010BD884210B5044601D0FFF796FE24
:101830002378C3F30002C2F1010262F300032370B4
:1018400010BD88421FB5044601D0FFF787FE6268CD
:1018500062B901212046FFF700FEA2680123138030
:101860006360237843F00103237010E02378D907E5
:101870000FD5A1686FF3000323700123ADF80E307C
:10188000009308460DF10E03FFF78DFD606004B074
:1018900010BD511C2046FFF7E0FDD4E901210123D2
:1018A000ADF80E30009308460DF10E03FFF750FD22
:1018B0006060D6E72DE9F8434B6805460E461446AE
:1018C00003B12AB931462846BDE8F843FFF746BEC2
:1018D00002F10F014FEA111803EB1111FFF7BDFDE3
:1018E000D6E9010208EB0007AB6807F1004114F0EC
:1018F0000F0401F1FF3103EB410308BF102402EB99
:10190000400E014699460022C4F1100401BB6FF05D
:10191000010C0CFB00FC22FA04F403EB0C0023F88E
:101920000C40C8F1010300EB430308F1FF321846F5
:1019300052001EF0ABFC831E17B133F8172092B192
:101940006F6032782B7862F300032B70BDE8F88368
:101950003EF802CD4CEA020222FA04FC29F802C940
:1019600012040139D2E7013FE6E7F0B50E464968B7
:1019700085B00546144601B12AB931462846FFF71D
:10198000EDFD05B0F0BDFFF768FDD6E90121234666
:10199000A868FFF7BFFC686032782B7862F3000319
:1019A0002B70DB07EDD500237168ADF80E302209EE
:1019B000994201D093420FD19142E2D9B36804F029
:1019C0000F0433F81220012303FA04F4013C2242ED
:1019D00013D0ADF80E3008E0B76837F8137057B180
:1019E00001239142ADF80E30E8D8A968012348B927
:1019F0000B806B60C5E70133DAE7BDF80E30002BD2
:101A0000BFD0F2E7009302460DF10E030846FFF740
:101A10009FFC6860B5E773B553680C464968994206
:101A20000646154606D308D89268A068FFF749FD18
:101A3000002802DA23462C461D4623782A7861685E
:101A40005340DB0713D401313046FFF706FD6B68C6
:101A50000093D4E90121AB68B068FFF779FC7060AE
:101A60002278337862F30003337002B070BD3046E1
:101A7000FFF7F3FC6B680093D4E90121AB68B06811
:101A8000FFF791FCEBE7F7B553680C4649689942BC
:101A90000646154606D328D89268A068FFF711FDC0
:101AA000002822DA234601272C461D4623782A786F
:101AB00061685340DB071AD501313046FFF7CDFC92
:101AC0006B680093D4E90121AB68B068FFF740FC74
:101AD0007060237803F001030FB183F001033278C3
:101AE00063F30002327003B0F0BD0027DEE730463A
:101AF000FFF7B3FC6B680093D4E90121AB68B068D1
:101B0000FFF751FCE4E72DE9F04F15464A686B6892
:101B10009A420E463EBF2E460B461D4633787168EC
:101B2000DB0785B0044621D42B7813F001071DD1C3
:101B3000FFF793FCD5E9011CA068B6683B469942C3
:101B40000BD100EB4101FFF7D8FB237860606FF306
:101B50000003237005B0BDE8F08F36F813203CF881
:101B600013502A4020F813200133E8E701312046C2
:101B7000FFF773FC96F800A02B78D6F804C0A06895
:101B80008AEA0307FF4307F0010E47F30007BFB2DD
:101B9000D5E901120AF001084AF3000A02971FFA78
:101BA0008AF703F00109019743F30003B7689BB27A
:101BB000A1EB0C01A7F1020A00936746834603914B
:101BC000BFB900EB4C01BEF1000F03D0012320F898
:101BD0001C300231FFF791FB606033782A78C3F341
:101BE0000003C2F300021340227863F30002227064
:101BF000B0E73AF8021F019B5940039B013F88441C
:101C0000D919B9429BBF32F8021B009B0099594079
:101C10008944029B08EA090159401EFA81F12BF818
:101C2000021B4FEA19494FEA18484FEA114EC7E71D
:101C30002DE9F84F16464A6873689A420D463EBF32
:101C400035460B461E462B786968DB07044631D4BF
:101C5000327812F001072DD1FFF7FFFBD6E9013EE4
:101C6000A9686D68D4F808C0ED1A3A46934212D1BB
:101C700001EB430100220CEB4303954214D103EB2B
:101C80004503A3EB0C035B10636023786FF3000341
:101C90002370BDE8F88F31F812003EF8126030432F
:101CA0002CF812000132E1E731F8120023F812009B
:101CB0000132E2E701312046FFF7CFFB2F7833787E
:101CC0006968A068AD68D6E901E203F0010947F34D
:101CD000000643F3000307F00108A5F1020CB6B2B9
:101CE0009BB20F4682460125AEEB010E47B900EBD1
:101CF0004101FFF702FB2378606043F00103C7E76F
:101D00003CF802BF013F8BEA060BD8440EEB070BF1
:101D1000BB4596BF32F802BB9B468BEA030BD94406
:101D200048EA090B6FEA0B0B15FA8BF52AF8025BF0
:101D30004FEA19494FEA18482D0CD7E7F0B5164677
:101D40004A6873689A4238BF0B460C463CBF34461B
:101D50001E462778337861685F4017F0010785B029
:101D600005463AD1FFF779FB237813F0010328D118
:101D7000D6E9012C6168A868A768891A9A4211D12E
:101D800007EB4207002300EB4202994213D102EB1A
:101D90004101FFF7B2FA2B7868606FF300032B70F4
:101DA00005B0F0BD37F813403CF81360744020F8DC
:101DB00013400133E2E737F8134022F813400133B0
:101DC000E3E7CDE90277019773680093D4E9012135
:101DD000B368A868FFF70DFBDDE70131FFF73DFBB6
:101DE0003378A868DB4303F0010303932378DB43D4
:101DF00003F0010302930123019373680093B36816
:101E0000D4E90121FFF7F5FA2B78686043F001036C
:101E1000C5E72DE9F04F4B6885B006460D461446E0
:101E20000BB1536823B90023736005B0BDE8F08F90
:101E300081422ED1FFF726FBB4420546074600D16A
:101E400004466368696830461944FFF706FB326848
:101E5000B068C2F39D02520000211EF017FAAB6871
:101E6000D6F808E0D5F804A00193A36802930022F5
:101E7000636803930EEB4A08F4461146039B9342B2
:101E800031D0DDF804B0CDF800A0ACF102000023A1
:101E900018E0824204D1FFF7F5FA04460746D0E77E
:101EA0000027CEE730F8029F99443BF8023B1946E1
:101EB000029B33F8123003FB019300990380013930
:101EC0001B0C009100990029ECD14146881C13B1EC
:101ED000A8F800300146A1EB0E0149100CF1020CEC
:101EE00001328046CAE7716022782B7853403278FD
:101EF000384663F30002327005B0BDE8F04FFFF7DB
:101F0000F7BA4B6870B50646144613B11378DA0772
:101F100002D50023736070BD636823B9BDE87040CB
:101F20000121FFF7F1BA0846FFF7ACFA0546204653
:101F3000FFF7A8FA012104463046FFF7E5FA636887
:101F400083B1A3681B88DB0704D52A463146304697
:101F5000FFF75FFFD4E9012101230846FFF7DAF913
:101F6000606038B92846FFF7C3FA2046BDE87040E4
:101F7000FFF7BEBA2A4629462846FFF74AFFDEE7A2
:101F80002DE9F04F0C4651688FB09146013105465E
:101F90000293FFF762FAD9F80420A86801325200D0
:101FA00000211EF073F900236B60D9F8041020465D
:101FB0000131FFF752FA49462046FFF7CFFA029B5C
:101FC000D4F804805B680193434531D8029BA6682E
:101FD0009F68AB6803932DD33A4641463046FFF7DE
:101FE00070FA18BB039A6060012313806B60029A39
:101FF00099F8003012785340DB0714D52B7843F062
:1020000001032B70636873B14FF0FF310BA8FFF72A
:10201000BFFA0BAA29462846FFF7FDFC029A214683
:102020002046FFF7F8FC0FB0BDE8F08F013001D17A
:102030000023DBE7019B03F10042013A53000493C4
:1020400037F812304FF0000E18040EF1010151D58F
:102050004FEA4800002108F1010326F818101FFA82
:102060008EFA00F1020805936360B044B446CAF1E9
:10207000100BC44542D3019B37F81220012B02FA02
:102080000AFB08D9049BFA18CAF1100132F8022C95
:10209000CA404BEA020B059A019BD31A6B60039A64
:1020A00003F10043013B02EB43030593049B02331E
:1020B0000993BB1E3044089363680493049A019B00
:1020C000934226D302F1004B0BF1FF3B06EB4B0B87
:1020D0000021CAF110005E4579D96FF000416B68AC
:1020E0002BB103985A1830F81220002A79D06FF0DB
:1020F00000417BE05B009BB28E46A5E7BCF800E0A8
:102100000EFA0AF319432CF8021B2EFA0BF189B2CE
:10211000AFE7038830F8022C42EA0342099BB2FB86
:10212000FBF2C31A0693089B0793DDF818E000231F
:10213000984670450CD801885B1A002B41D1059B4D
:1021400023F802290593049B013B02386360B3E73F
:10215000079FBEF800C037F8021F079701FA0AF17F
:1021600041EA18481FFA88F15143614503D2ACEBAC
:1021700001079F420ED80B44A3EB0C01ACEB030309
:102180009FB28BB2003B18BF012303EB11432EF823
:10219000027BCEE7FF1ABFB20023F8E738F802CF80
:1021A0000CFA0AFC4CEA1E4EB7F800C011FA8EF188
:1021B000614427F8021B090CB842EFD85B1A013AB8
:1021C000BBE70021DDF82080069F8E46F4E7BBF8D0
:1021D000003043FA0AF20A4383402BF8022999B2ED
:1021E00079E7013B6B607AE7013B63606368002B32
:1021F0003FF4FDAE5A1836F81220002AF4D0F6E665
:10220000F0B51F464B6885B006460C4615464BB1E7
:102210001378DA0706D47B68012B07D1BB681B88CB
:10222000012B03D10023736005B0F0BD01213046BE
:10223000FFF76AF96B68002BF6D02046FFF722F90A
:1022400004462846FFF71EF9054601A8FFF779F96D
:102250006B68B3B1AB681B88DB070AD522463146F1
:102260003046FFF7D6FD3B463246314601A8FFF720
:1022700087FED5E9012101230846FFF74BF8686086
:1022800048B901A8FFF762F92046FFF731F928465F
:10229000FFF72EF9C8E7224621462046FFF7B9FD91
:1022A0003B462246214601A8FFF76AFED0E710B55B
:1022B000D0E90121034601EB42020020914204D300
:1022C0001B78DB0748BF404210BD32F8024D44EA9C
:1022D0000040F3E730B5D0E90124002304EB4202CB
:1022E000944206D30278D20748BF5B420B600120BC
:1022F00030BDB3F5004F04D232F8025D45EA034326
:10230000EEE70020F4E72DE9F0470546D1B1981833
:10231000D5E901840026A4F1020E4FF0010C3746E6
:1023200003EB0209B8F1000F0ED1B9B3C21A184677
:102330002B7813F0010FBDE8F04714BFFF210021F7
:102340001DF0A4BF1846E3E73EF8024F103744EAF9
:10235000064695F800A0072F0AF0010A02DC08F1F2
:10236000FF38DFE7B4B2BAF1000F06D0E4435CFAFD
:1023700084FC1FFA8CF4CCF3072CE4B249B100F1D1
:10238000FF3A00F8014C53450BD0083F360A50463F
:10239000DFE782460AF8014BCA45F5E71A44121AEC
:1023A000C6E7BDE8F0870000D0E901329FED0C0AD6
:1023B0009FED0C7A02EB43039A4205D30378DB07C7
:1023C00048BFB1EE400A704733F8021D07EE901A7D
:1023D000F8EEE77AE0EE077AB0EE670AECE700BFC6
:1023E00000000000000080472DE9F84F44689DF888
:1023F00028B00B9F81468A4615461E469CB982B17D
:10240000551E3B4615F8011F184639B93023037095
:10241000002300F8013FC01BBDE8F88F03F8011B43
:10242000F0E73846F2E764002046FDF73BFED9F8B6
:102430000810804622461DF0E3FE3846394608EB78
:102440000402A6F13A03A2F1020C0026E04564461C
:1024500039D93036392E0C4688BFF61804F8016B8E
:102460004646B242B44638D8BBF1000F0AD0012626
:10247000A4EB000CBCF1030F02BF8C1C81F801B06F
:102480002046F6B14046FDF735FE5DB128461DF009
:1024900035FF2A18611E1346AB4229D8954288BFE2
:1024A0000020044499F80030DB0744BF2D2304F8D2
:1024B000013B3B46621E9A421FD800232370E01B5B
:1024C000AAE72146BFE7248844EA0646B6FBFAF4A9
:1024D0002CF802490AFB1466B8E7BCF800C00236C3
:1024E000BCF1000FBDD0BBF1000FEAD00026BFE762
:1024F00013F8016D01F8016FCEE71978107803F831
:10250000010B02F80119D6E7D0E9023293423DBF30
:102510005A1C826018784FF0FF307047036810B57E
:10252000044613B14068FDF7E5FD2046BDE81040C4
:10253000FDF7E0BDF8B5054610200C461F461646CF
:10254000FDF7B0FD054B8460C0E900743444C460FD
:102550006B60034B2860AB60F8BD00BF0925020823
:102560001D2502080369272B1DD0222B1BD0752B9C
:1025700003D023F01002622A10D14269272A12D018
:10258000222A10D0722B09D1622A0ED18069272805
:1025900009D0A0F12203584258417047622B04D160
:1025A0004369722BF1E701207047002070470269F0
:1025B0000A2A10B5044622D1C3690133C36101233D
:1025C000236263692361A3696361D4E901039847C6
:1025D0006369A0610D2B07D10A239842636103D17F
:1025E000D4E901039847A061A369013306D1636967
:1025F0005A1C03D00A2B1CBF0A23A36110BD036A17
:10260000092A04BF073323F007030133D8E770B565
:1026100004460D4600262069431C01D1304670BD9A
:102620000A2808D115B1A36A002BF7D02046FFF77E
:10263000BEFF0126EFE7FEF7D5FD18B12046FFF7F4
:10264000B6FFE8E72369232B08D12046FFF7AFFF49
:1026500023695A1CDFD00A2BF7D1DCE75C2BDDD1D4
:1026600063690A2BDAD12046FFF7A1FFE6E70000F5
:102670002DE9F74F044600218164FFF7C8FF656A22
:10268000E369A363002D236AE36307DA062384F872
:1026900040300135656203B0BDE8F08F04D00523FA
:1026A00084F84030013DF5E7002834D0A26A92BB9F
:1026B000042284F84020D4E90C205D1E6FF0004312
:1026C000D11830F811108D42E5D019D9E16A8A424B
:1026D00007D308314900FDF700FDE36A6063083362
:1026E000E362D4E90C32591C216322F81350636A67
:1026F00001336362CFE7013A2263626A013A6262A0
:10270000226BD11830F811108D42F4D3C3D00223BC
:1027100084F84030BFE72169481C01D10023F7E766
:102720002046FFF71FFF0090002800F0588100238B
:1027300084F8403004F144062369752B5CD0622B89
:102740004ED16369722B009B15BF4FF0000898466D
:10275000012702270B2394F84020002A53D184F844
:1027600040303FB12046FFF722FF022F02D1204622
:10277000FFF71DFF23692046222B14BF4FF0270AC5
:102780004FF0220AFFF713FF236953453ED16369D7
:102790009A453BD12046FFF70AFF2046FFF707FF87
:1027A0004FF003090027D4F810B0BBF1FF3F00F051
:1027B0001081B9F1010F03D1BBF10A0F00F00981BB
:1027C0004F4526D339463046FEF7ABFC0121204663
:1027D000FFF71DFF2046FFF7C5FE0028ACD15AE7E2
:1027E000722B0ED16369DDF80080622B15BF0127C3
:1027F00002270A230B23AEE701270A234FF0000824
:10280000A9E72F46F9E79A42ABD044E74FF0010918
:10281000C8E7DA4508D1514630460137FEF72BFCB0
:102820002046FFF7C4FEBEE7BBF15C0F40F0CB8053
:102830002046FFF7BCFE2769B8F1000F05D05C21E8
:102840003046FEF718FCBB469DE0782F06D85B2F7C
:102850000BD8222F7AD055D80A2F51D0A7F1300BA0
:10286000BBF1070FEBD80327A1E0A7F15C021C2AFC
:10287000F4D801A353F822F04D2902085D2802087C
:102880005D2802085D2802085D280208ED2802087C
:102890001F2902085D2802085D2802085D28020839
:1028A000372902085D2802085D2802085D28020811
:1028B0005D2802085D2802085D2802085D280208DC
:1028C0002B2902085D2802085D2802085D280208FD
:1028D000192902085D280208252902083D29020855
:1028E000312902085D2802089D2902084FF0070BD4
:1028F00094F840300A2B61D159463046FEF7BBFBB5
:1029000000278DE7552F19D0A8D8272F1ED04E2F7E
:10291000A4D1B54809F034FF4FF00D0BE8E74FF0B4
:10292000080BE5E74FF0090BE2E74FF00A0BDFE792
:102930004FF00B0BDCE74FF00C0BD9E794F840207D
:102940000B2A05D15C213046FEF795FBBB46CFE74D
:10295000752F0CBF042708274FF0000B11E020460D
:10296000FFF725FE226901921046FEF759FC002868
:1029700000F05081019A1046FEF792FC4FEA0B1BC3
:102980008344013FEBD2BBF1FF3FB9D0BBF5881FB9
:10299000AED34FF0010384F84030B1E70227DBE704
:1029A0002046FFF704FE2269303A02EBCB0B626946
:1029B000303A072AE7D8013FF2D1E4E7BBF1FF0F35
:1029C000E7D80B2BE5D15FFA8BF13046FEF74CFBD5
:1029D00096E74F453CBF032284F84020F2E60846C4
:1029E000FEF70AFC064620691EB95F2801D07F2841
:1029F0003ED9072384F8403004F14405C1B228468B
:102A0000FEF732FB2046FFF7D2FD2069421C1BD1A6
:102A10002846FEF71AFB754F0646002557F8041B9B
:102A200030461DF079FC00281CD10D35EDB2102D7B
:102A300084F840507FF42FAE6D4BD3F8E031002B7B
:102A40000CBF0F230D2363E6FEF7D6FB40B92069C8
:102A50005F2805D07F2803D8FEF7D8FB0028D7D001
:102A6000217CCCE7FFF617AE0135242DD6D112E636
:102A7000FEF7CCFB68B321692E2935D1092384F8F0
:102A8000403004F144052846FEF7F5FA2046FFF7EA
:102A90008EFD09272069431C3FF4FDAD002E35D182
:102AA00020F02003452B31D16521284684F8407061
:102AB000FEF7E1FA2046FFF77AFD21692B2901D0C4
:102AC0002D29E7D12846FEF7D6FA2046FFF76FFDFD
:102AD000E0E723692E2B04D16069FEF797FB0028FD
:102AE000C9D1444D002631E00823302984F8403014
:102AF000C7D1636943F02003623B162B9EBF3E4D56
:102B0000DD4005F0010505F00106BAE7FEF774FBAC
:102B100028B121692E290DD184F84070D2E72069AF
:102B2000FEF774FB0028F4D123692E2BF1D05F2B24
:102B3000CBD0B0E521F020034A2BC3D1ECE7652FC1
:102B400001D0632F00D10135013601352F7817B13F
:102B50002369BB42F3D12046FFF729FD0FB90123BA
:102B6000D6E5212F07D123693D2BF8D12046FFF769
:102B70001EFD3823CCE52E2F0FD123692E2B02D139
:102B800063692E2B01D05B23C2E52046FFF70FFDC2
:102B90002046FFF70CFD0C23BAE50335334615F844
:102BA000027C632F0FD0652F0DD0144AD35C84F8BC
:102BB000403003F0FB02532A01D0552B20D1A36AE9
:102BC0000133A36267E515F8012C2169914206F1F2
:102BD000010607D12046FFF7EAFC3346652FE4D013
:102BE0000235DCE7632FFAE7C7CE050888CF050872
:102BF000705B002082CE0508012040005CCF0508F4
:102C000003F0FD02542A02D0582B7FF444ADA36A8E
:102C1000013BD6E74FF0010384F84030834667E676
:102C20007FB5064601AD542085E80E00FDF73AFA5F
:102C30000446034695E8070043F8046B83E8070061
:102C400001236FF00102C4E9073200250A22C4E91A
:102C50000B23C4E909551420FDF724FA20216063F1
:102C600004F14400FEF779F9636B20461D80C4E946
:102C700005552561FFF79BFC2046FFF798FC204691
:102C8000FFF795FC2046FFF7F3FCE36B012B18BF21
:102C90000523204618BF84F8403004B070BD30B51D
:102CA00085B001AC05462046FFF744FC94E80E00D1
:102CB0002846FFF7B5FF05B030BD30B585B001AC93
:102CC0000146054620461CF0D9F92846FEF744F88F
:102CD00094E80E00FFF7A4FF05B030BD10B5044620
:102CE00070B1C3684068984704F14400FEF764F986
:102CF000606BFDF7FFF92046BDE81040FDF7FAB91B
:102D000010BDD0E90432013B036152F82300704743
:102D10000369C9431944436953F821007047F8B562
:102D2000446A06460D46B4B1D4E900030B4483421D
:102D300022D90831002201442046FDF7D9F9024684
:102D4000B8B9616820460831FDF7D2F9636823609D
:102D5000336A63603462802D2F4638BF802707F1C5
:102D60000800FDF79FF90023076043600446706286
:102D700002E023682B4423606068054465600834E2
:102D80002044F8BD38B5D0E903329A4204460D46D6
:102D900008D3103399004069FDF79FF9E36860613B
:102DA0001033E360D4E90432591C216142F8235006
:102DB00038BDF8B504461D46D0E9000383420F46EE
:102DC000164608D31030C100A068FDF786F92368C5
:102DD000A06010332360D4E90103421C626053F801
:102DE000301067F3170143F8301003EBC002D670C0
:102DF0005560F8BD10B48469CAB20023A16B5DF8B8
:102E0000044BFFF7D6BF0000F7B5866996F840304F
:102E1000072B05460F461ED1D6E91210FDF70AFF13
:102E2000902F04460ED1C100002241F0020105F1AD
:102E300028000AF003F828B14468E3071FD544F0DE
:102E4000010102E0210141F00201284603B0BDE882
:102E5000F040FFF797BF082B07D1D6E91210334691
:102E60000022E0F745F80446E7E7092B13D1009666
:102E7000D6E9121000230122E0F7B8F804460C212D
:102E80002846B66BFFF74BFF4FF49D73C0E9013442
:102E900001460660D9E7A3F10A02012A1CD8D6E947
:102EA00012100A290BD8FDF7C5FE96F8403048B13C
:102EB0000A2B0CBF06230A2343EA0011C5E7FDF7DE
:102EC00089FEF2E7064C0748D6E912210A2B08BF13
:102ED00020460FF02FFCD1E7190141F00E01B4E7B5
:102EE00018010608B4FE0508DE2807D010F001031B
:102EF00006D043080CBF0120002070470120704716
:102F000018467047FE2807D010F0010306D043088A
:102F100014BF0120002070470120704718467047F9
:102F200010F0010204D040F0010008600120704759
:102F3000A8B110F003030FD102793A2A0ED18368A9
:102F40000B6013F00100F1D19A0708D11868044B07
:102F5000C31A584258417047104670471846704788
:102F6000B8F305082DE9F04F2D2A85B004468846B0
:102F700016461D460BD10021FFF7CAFE98B3810704
:102F800002D10379922B2ED005B0BDE8F08FA2F1CB
:102F90001E03012B5AD8A9462F460AE01E2E48D1FF
:102FA000FFF7B0FFC8B91046FFF79EFF002808BF23
:102FB000574607F1FF3AB9F1000F0ED009F1FF397A
:102FC00049462046FFF7A4FE23696169DB1B0246E0
:102FD00041F82300B9F1000FE0D10021514530D173
:102FE0006D1A012DD0D0A6F12303022B01D92A2E70
:102FF00078D1691E2046FFF78BFE01A9FFF790FFED
:10300000002859D0232E39D0242E3AD0252E0CBF9B
:103010004FF018094FF02209AF1E002F34DA002DAF
:1030200040F06D81019EF30740F16E8146F0010191
:103030001EE0FFF759FF0028CFD11046FFF762FFCF
:10304000B4E72046FFF75DFE0131C7E7202ACAD169
:103050000021FFF75DFE0246FFF746FF60B910460C
:10306000FFF750FF0028BED0DE212046FFF749FEC3
:103070002046FFF787FE87E7FE21F6E74FF01609A7
:10308000CAE74FF01709C7E739462046FFF740FE69
:1030900002A9FFF745FF78B1B9F1220F07D0DDE9AA
:1030A0000112484609F080F9013F0190B5E7029806
:1030B0000DF072FA0028F2DAA91C89002046FFF709
:1030C0002EFE46EA052646600146C0F8008000F163
:1030D0000806002DCCD02046FFF713FE013D46F830
:1030E0002500F6E7A6F12603022B38D8691E2046F4
:1030F000FFF70EFE01A9FFF713FF0028DCD0A5F1B2
:103100000209B9F1000F8ADD09F1FF312046FFF70E
:10311000FFFD02A9FFF704FF0028CDD04946204655
:10312000FFF7F6FDC0F3071000F0FD03412BC3D0FD
:103130002338C7B202980DF02FFA1A2F0AD80028A8
:10314000BADBDDE90112384609F02EF9A9F10209CE
:103150000190D6E71E2FF4D90028F2D1ACE7292E32
:1031600019D100212046FFF7D3FD01A9FFF7D8FEB2
:103170000028A1D001212046FFF7CAFDC0F30710A7
:10318000322818BF3E38019914BFC0B2022008F09F
:10319000D1FB019043E7052E71D100212046FFF7B6
:1031A000B7FD0746002887D010F0030A05D1436811
:1031B00003F0FE03562B3FF47FAF01212046FFF7BB
:1031C000A7FD00F00F03022B7FF476AFBAF1000FDA
:1031D0007FF472AF3B792C2B7FF46EAFBB6803F0AA
:1031E0000F02022A7FF468AF1B09482B7FF464AFFB
:1031F000FB68002B3FF460AF9A077FF45DAF1A794C
:10320000302A7FF459AFD3F808B04FEA101902A959
:103210005846FFF785FE68B9414942480CF014F85A
:10322000A1693A680968054653460CF0D3F8284668
:10323000FCF712FF4FEAC901012241F0020104F13B
:10324000280009F0FBFD029B43604846FDF798FD0E
:1032500003785F2B20460BD1FFF753FD2046FFF785
:1032600050FD0023082219462046FFF77BFE8BE61F
:10327000FFF747FD59462046FFF784FD1CE72C2E3B
:103280007FF41AAF01212046FFF742FD00F00F0343
:10329000022B02467FF410AF00212046FFF738FDD5
:1032A00000283FF409AF87077FF406AF0379322B7C
:1032B0007FF402AF1109C90087681B48002241F062
:1032C000020109F0BBFD00283FF4F6AE406802AAF7
:1032D000390908F053FA029B002B3FF4EDAED907F1
:1032E00007D49A077FF4E8AE1968104A91427FF438
:1032F000E3AE039A002A7FF4DFAE01938FE6204607
:10330000FFF7FFFC013D8AE60C212046FFF707FD91
:103310004FF49D73C0E9013601460560A8E600BF81
:1033200018D0050878ED050864D00508B8F305083D
:103330000346006830B508B9106030BD840702D07C
:1033400013600120F9E74468E5B28D42F8D10830F6
:103350001060200AF1E700002DE9F04F93B000243F
:10336000402301904FF400700D460092CDE90534E2
:10337000FCF798FE202307908020CDE90834FCF765
:1033800091FE2146CDE90A050FA8CDE90D4409F0CB
:103390001FFD009B002B49D0022B0CBF3F22224671
:1033A000A96BDFF8E0A2002305A8FFF702FD0027C4
:1033B000069C002C00F06881013C0799AC4E0694F5
:1033C00001EBC40351F83410DA785B68C1F31709D4
:1033D000A84911F802B0A849895C632A88BF41F462
:1033E000807106EB41060BF0300110290BF00F083D
:1033F0001ED020294BD0002F00F00D81B8F1020F14
:1034000040F0FC80012B18D000211BF0010F03F1CC
:10341000FF3006D074880AEA0404B4F5805F08BF60
:103420005808012800D161B10346B3E03D22B7E757
:103430002BB906EB4306984505D80127B8E7002FBE
:10344000F7D10027B4E7374636F8021B01EA0A0035
:10345000B0F5805F0DD195F84000C1F30B018842B3
:1034600013D105A81146FFF7CFFC2846FFF700F956
:10347000E7E70133434503D2494605A8FFF799FC26
:10348000398805A8FFF7B6FCDBE70133D3E78FB136
:1034900003F10041013936F811100AEA0101B1F5D2
:1034A000405F1ED1002105A8CDE90232FFF76AFC7A
:1034B000DDE9023206EB4304984526D8009B002B39
:1034C00049D1002406EB48082746464567D1012F1D
:1034D00040F088801BF0400F00F0848000263146C9
:1034E0007AE0012BA9D995F84030052B40F0FA80FD
:1034F000624963480BF0A8FEAA6B296804460023C2
:103500000BF068FF2046FCF7A7FD274634F8021BA6
:1035100001EA0A00B0F5805F1BD195F84000C9B2FE
:10352000884212D1072807D1114605A803930292B9
:10353000FFF76AFCDDE902232846CDE90232FFF7F6
:1035400097F8029B039A0133B6E7002B3FF475AF5F
:10355000C9E7013390E7052AB3D1002105A80292FB
:10356000FFF7D6FB029A0028ABD1012105A8FFF78F
:10357000CFFB10F0030F029A00F0BB8000F00F00A9
:1035800002289ED005A8FFF7BCFB05A8FFF7B9FBF2
:1035900000230822494605A8FFF7E4FC51E738F864
:1035A000023D03EA0A01B1F5805F05D1DBB2072BCA
:1035B0008BD10134013788E7214605A80292FFF735
:1035C000A7FB029A00B1013701347EE7FFF799FBB0
:1035D0000136002818BF0146A64205A8F6D1FFF71C
:1035E000D1FB2EE71BF0800F06D0002105A8029228
:1035F000FFF7C8FB029A01342346CBE7012B3FF4C7
:103600001CAF13F001013FF400AFB8F1030F7FF4DA
:103610006AAF0121F9E608EA030101F0010136F879
:10362000114004EA0A00B0F5805F17D195F8400018
:10363000C4F30B04A04203F101040DD129B91146D2
:1036400005A80292FFF7E0FB029A02922846FFF7D4
:103650000FF8029A2346DEE72346CFE6494605A83F
:103660000133FFF7A6FB214605A8FFF7C3FB9FE642
:1036700050D10508A0D00508D8D4050826D00508E3
:103680006CEA050800F0FFFF0FA809F0B5FB0E98E3
:1036900050B1416822460831FCF72AFD0E9B5A685A
:1036A0001A600D9A5A600D9395F84030002B7FF404
:1036B0001AAF099B002B3FF416AF0A9B07981B68B3
:1036C0000C93FCF717FD0A98FCF714FD2846FFF74A
:1036D00005FBDDE90C01019B83E80300184613B0EC
:1036E000BDE8F08F022B01D1064902E706490748E1
:1036F00000E700283FF4E5AE03793A2B3FF442AFF0
:10370000DFE600BF38D005085FD0050878ED050872
:1037100010B5406800B910BD4468FCF7EBFC2046CA
:10372000F8E700002DE9F041054630200E469046AE
:103730001F46FCF7D0FC072D04460570C660A0F8B4
:10374000148001D0012D10D1B268C2F30F12E282B1
:1037500007F060FB04232061678323852020FCF7AA
:10376000A1FCE0622046BDE8F081014B5A5DEEE726
:1037700088D5050810B50446C06AFCF7BBFC204696
:10378000BDE81040FCF7B6BC30B5458D04460022BC
:10379000954201D8002030BDE36A03EBC2004368C4
:1037A0008B42F8D00132F3E770B504460D46164659
:1037B000FFF7EAFFC0B9238D628D9A4208D3063322
:1037C000D900E06AFCF789FC238DE062063323858B
:1037D000638DE26A591C02EBC300618502F8336015
:1037E000002343704380456070BD034618465B6804
:1037F000002BFBD1FFF7C8BFF8B544680E462CB9C3
:10380000F8BD032BFCD104230370F9E725462846B5
:103810006D68002DF4D077683946FFF7B5FF0028B2
:10382000F5D00378033B022BEAD8052333701D46FD
:10383000002239462046FFF7B7FF0378002BE0D17E
:1038400005706468F4E7436A5B8B012B1EBF036954
:10385000C91801617047C36A10B50446DB6F806AFE
:103860009847A38B626A0133D18C9BB29942A383A0
:1038700038BFD38410BD838B10B5013B8383C36AEB
:103880000446D3F88430806A984720460121BDE879
:103890001040FFF7D8BFF7B51E4659B111F0030528
:1038A00011D14F68FCB294420DD13F0A01F10804D6
:1038B000BD4201DB03B0F0BD54F8041B019001359B
:1038C000B0470198F4E7334603B0BDE8F04018472D
:1038D0002DE9F04F2DED028B044608EE102A83B03F
:1038E0000D4698461BB10B8B43F008030B8318EE73
:1038F000103A2B84636A1A8B42F030021A831B78C9
:10390000002B4CD1E36AA06AD3F8B46018EE102AF9
:1039100043462946B44603B0BDEC028BBDE8F04FE8
:103920006047DB6A03EBC60B13F83630043B012B10
:103930001DD84FF0000917E0EB6A03EBC90213F83A
:103940003930052B0ED1DBF804105368994209D1A8
:10395000E36ABBF802205B69A06A1F460023B847F0
:103960000AF1010A09F101096B8D4B45E4DC0136CE
:10397000636A5A8DB242D4DCBAF1000FC2D0E36A56
:10398000CDF80080D3F8B860A06A18EE103A52461D
:103990002946B04703B0BDEC028BBDE8F08F00268E
:1039A000B246E5E7F8B504460E4611461A4600232E
:1039B00085794769837143610E4BFFF76CFFA368FC
:1039C000BBB9E18A51B1A28A42B9E36AA06AD3F8CD
:1039D000A0309847E36AA06A5B6C9847A38AE28AA2
:1039E00031462046FFF774FF003D18BF0125A57141
:1039F0006761F8BDA9510208024B89689D22FFF753
:103A00004ABF00BF815E0208024B89686B22FFF744
:103A100042BF00BFBD410208C36A10B50446D3F8D7
:103A20008830806A00219847E36AA06A5B6B0E21A8
:103A30009847E36AA06AD3F8CC3001219847204622
:103A40000321BDE81040FFF7FEBE38B5C36A044647
:103A50009B6C806A00229847E36AA06AD3F8C05042
:103A600000231A461946A8472046BDE83840FFF70C
:103A7000D3BFC36A89685B6D806A00220909184751
:103A8000C36A89681B6C806A184710B504460846EB
:103A900011462268FFF746FE636A43600023836095
:103AA000236A0BB9206210BD1A469B68002BFBD11C
:103AB0009060F8E770B54379012B05460C4606D1B6
:103AC000436A0A465B8B0221FFF7DFFF2061A26891
:103AD000216928464C23BDE87040FFF763BF70B5ED
:103AE00013464279012A05460C4604D10A460721AD
:103AF000FFF7CBFFA061A669E2682846462331465E
:103B0000FFF750FFF08A70BD2DE9F04F87B00546F2
:103B100000AF0C4611B90121116015E011F0030846
:103B20001BD10B79682B07D1CB681B0913608C68FC
:103B3000002CF0D04FF0010804F00F03022B0FD13E
:103B40002109B8F1000FE7D0EB6AA86A1B6B0022CD
:103B500098471C37BD46BDE8F08F4FF00008EBE7F3
:103B6000B8F1000F02D1A3681B09136063684FEA24
:103B7000132904F1080309F1FF3AFB609B46002674
:103B80004E4526DB0AF1070323F00703ADEB030DD7
:103B90006B461E464FF0000BCB4522DB51461846C4
:103BA000FDF748F8EB6A01461B6BA86A00229847AC
:103BB000B8F1000FCDD00C3401264E45C9DA54F8C7
:103BC000041BEB6AA86A5B6D00220909984701365D
:103BD000F3E75BF8040B0009FDF7CDF801368244EA
:103BE000CEE7BBF1000F03D04FF02E0206F8012BF9
:103BF0007B60FB6853F8040BFB6007F114010009BC
:103C0000FDF7C3F87A69BA60014630461CF0F8FA4D
:103C1000BA687B6816440BF1010BBDE731B102684D
:103C200001F00303134304BF0B68036070470000F7
:103C300038B583680D460446114653B905480BF064
:103C400003FB2946A06004F10C00BDE83840FFF7F3
:103C5000E5BF38BD78ED05082DE9F04F0E4641620D
:103C60000021427101613378072B8DB0044615465F
:103C700005D0824AFFF7DCFF0DB0BDE8F08F012AC6
:103C800006D0436B00F108021B68006B2946984779
:103C90006379D6F80C90032B10D10BAA462109F1B9
:103CA0000C00FFF745FB636B0B9A9B680146206B8A
:103CB0009847A368B083002B40F0AF80D9F810106C
:103CC000C1B101F00F06022E10D10B09752B3DD0AA
:103CD00006D83E2B3CD05E2B0DD0694A2046C9E762
:103CE00040F2A6429342F8D1032604E0654A2046FA
:103CF000FFF79EFF0226D9F8143009930AAA19216A
:103D000009A8FFF715FB4FF0000A0690069B9A459D
:103D100020D16379012B15D9636B206B5B68314629
:103D200098476379042B0DD10023606A03960293B0
:103D3000818B226BCDE900310521D2E90232006985
:103D400007F082F8A368002B67D195E70026D2E739
:103D50000126D0E70A9B53F82A100B79082B4FEA6B
:103D60008A0B02D10AF1010AD0E7052B01D0464A9D
:103D7000B4E7CB68002BFAD18B681A792C2AF6D1DC
:103D80009F6807F00F02022AF1D1DB680593002B30
:103D9000EDD09807EBD11B79302BE8D1059B0BAA0E
:103DA000A42103F10800FFF7C3FA3F09B7F56C7FC0
:103DB00080461BD1012805D10B9A136803F00F032D
:103DC000022B04D0314A0A9B53F80B1086E7216975
:103DD000012D01F1010323611AD01268636B206B7E
:103DE000DB681209984798B9294AECE740F2EE23BC
:103DF0009F4216D1012803D10B9B1968CA0701D431
:103E0000244AE0E7012D03D0206B491003F06FFA3C
:103E1000A368002BA6D0DDF81490D9F80030E36039
:103E20002AE740F231339F421CD1012804D90B9B71
:103E3000196811F0010701D1174AC4E7012DE7D035
:103E400049100B9B53F82720D30701D4134ABAE734
:103E5000206B07915210013703F050FAB8450799CB
:103E6000EFD1D5E7012DD3D0636B0246D3F810B064
:103E7000206B0B9B3946D847CAE700BF8FD5050892
:103E8000A5D50508A9D50508B1D50508BFD50508EC
:103E9000CBD50508CFD50508DBD50508EDD5050838
:103EA000014AFFF7C5BE00BFF8D505080B79092BFD
:103EB00070B50CBF058B458B4FF6FF739D420446D2
:103EC00002D1064AFFF7B4FEA18BE28BE36AA06A37
:103ED0009B6F8A1A2946BDE87040184705D6050829
:103EE00013B50446B9B101F00F03022B0FD10A0933
:103EF0001046019208F0E6FD0028019A05DA07490C
:103F000007480BF02BFAA060002002B010BD054A54
:103F1000FFF78EFEF8E70846F7E700BF1ED6050854
:103F2000A4EE050823D605082DE9F8430646406AA5
:103F3000048B14F002050F46904606D0334A3946EA
:103F40003046BDE8F843FFF773BE01F00F02022AC6
:103F500017D1B37909097BB1C28B0132C2834FF00B
:103F60000109002950D00022FFF71EFC0378044607
:103F7000002B35D0264AE2E7828B013282831D4630
:103F8000EDE70A7942450D460BD18968B3790909F5
:103F90001BB1C38B0133C383E1E7838B013383837D
:103FA000DDE79A4214D1B579002DC7D10123B37151
:103FB000896849B301F00F02022A18BF0D4644F088
:103FC000040418BFA968048309094FF00309C8E76E
:103FD000896844F00204090904834FF00509C0E729
:103FE0000323037080F80190736A5B8B032B0BD162
:103FF000B8F1480F08D13DB1E9683046FFF770FFCE
:10400000637843EA00136370BDE8F8835FD0050866
:104010002AD605084F234E22FFF786BF49234822A0
:10402000FFF782BF10B404460B466279406A012A4A
:1040300003D15DF8044BFFF7B7BBE16A02461431C8
:10404000A06A5DF8044B02F04BBC10B4426A04460F
:10405000407901280B4604D15DF8044B104602F06C
:1040600031BCE16AA06A5DF8044B1C3102F038BC37
:10407000436A10B55A8B0446FFF731FD01462046CE
:10408000BDE81040FFF7E1BFF0B58D6805F00F0304
:104090000E2B85B004460E4606D0002D2FD0AB0760
:1040A0002DD12B79652B1DD10295002503AA652101
:1040B00002A8FFF73DF9039B002103EB800040F2CB
:1040C000BE52984214D1F26840F20E439A4234D163
:1040D000636A1F78AFB1384A31462046FFF7A8FD22
:1040E00005B0F0BD622B0AD1AB680293ED68DDE745
:1040F00053F8047B97420CBF01310331E1E7002103
:10410000E1E7E36AA06A9B6B9847E36AA06ADB6B0E
:1041100005219847E36AA06AD3F8A0303A46012106
:10412000984703AA29462046FFF7EEFCE36AA06AF7
:104130001B6B022239469847D2E7E36AA06A9B6B61
:10414000984706F10C0002AA6A21FFF7F1F8002750
:104150000646B742D4E90A0311D1D3F8A0300022B1
:1041600031469847294603AA2046FFF7CDFC002593
:10417000B542D4E90A030BD11B6E9847B0E7029A07
:10418000DB6B52F827209168090998470137E0E76F
:10419000029A1B6B52F82570B96801220909019136
:1041A0009847FB682BB901992046FFF74EFF013570
:1041B000DEE71909F8E700BF34D60508C36A37B54A
:1041C00004460D469B6B806A00219847E36AA06A0B
:1041D0005B6B0E21984701AA29462046FFF794FC05
:1041E00001992046FFF731FF03B030BD10B4426A99
:1041F0000446407901280B4604D15DF8044B104673
:1042000002F060BBE16AA06A5DF8044B243102F061
:1042100067BB000037B504460D46B1B1CA0705D5E6
:10422000C36A9B6B4910A06A98470EE08B0731D098
:1042300001F00F05062D4FEA111308D00A2D0CD0FE
:10424000022D1FD11946FFF7EDFE03B030BDC26A43
:10425000806AD26B19469047F7E74279042A03D067
:10426000C36A06211B6CDEE701A91846FCF78DFD29
:10427000E36A0199A46A1D6C0EF0FEFC014620461B
:10428000A847E2E7042BE0D0C26A806A526BD9B239
:104290009047DAE7C36A09681B69806A98472A79F8
:1042A000024B294653F822302046BDE764D7050863
:1042B0002DE9F14F0D46A9070446164611D005F029
:1042C0000F03022B16D1F2074FEA151104D401B0E7
:1042D000BDE8F04FFFF7B9BE01B0BDE8F04FFFF702
:1042E000A1BE6968CBB22D2B7BD00BD8062B0DD08D
:1042F0002C2B12D0544A2946204601B0BDE8F04F7D
:10430000FFF796BC2E2B7DD09D2BF3D1002EF1D143
:1043100005F108030A0A002187E0022A02D0A968F1
:10432000FFF778FFEF68002FE4D017F00309E1D121
:104330007B68DAB28E2AB8460DD1022E4FEA1328D6
:1043400005D007F1080A08F1FF3BD94511DB08F158
:10435000010857F8288098F80430312B24D1022E18
:104360000FD1E36AA06A9B6E9847E36A1B6D012137
:1043700015E05AF8041B2046FFF74CFF09F101092C
:10438000E3E7D8F808102046FFF744FF012EE36A60
:10439000ECD1DB6DA06A9847E36A1B6D0021A06A2F
:1043A00001B0BDE8F04F1847322BA3D1012ED4E95C
:1043B0000A030CD19B6D9847E36AD8F808105B6D2F
:1043C0000022A06A090901B0BDE8F04F1847022E8B
:1043D00001D15B6E9847E36AD8F808105B6D012243
:1043E000EFE7A868002885D0002A83D1C16839B3D7
:1043F00011F0030324D14A68D6B2952E17D11A467C
:10440000816812E0002A7FF475AFA96829B90B46CC
:1044100001B0BDE8F04F00F019B88B0703D10B795C
:10442000922B0846E2D000231A462046F0E7962E4B
:1044300003D101F10803120AE2E7AC2E3FF45AAFB0
:1044400000F10803022266E746D605082DE9F84F79
:104450000E1E044690461F4614BF4FF001094FF050
:10446000000921D016F003051ED13379222B1BD170
:10447000C36A806AD3F8B030294698474FF0000AE3
:1044800008F1FF3BC24512D16B1C2DD1E36AA06A33
:10449000D3F8AC3009EB0801984776BB07EB8808E6
:1044A00047452DD1BDE8F88F4FF0FF35E6E757F8C7
:1044B0002A1081B18A070ED10B79222B0BD101353D
:1044C0000CD1E36AA06AD3F8B0300AEB0905ABEB74
:1044D0000A02294698470AF1010AD3E720460E4A04
:1044E000BDE8F84FFFF7A4BB002ED7D02DB9B168B7
:1044F0002A462046FFF7DCFED0E700223146F8E7E7
:1045000057F8041BA94508BF896800222046FFF719
:10451000CFFE09F10109C3E751D605082DE9F74F90
:1045200004460D4616461F462846FEF7DDFC20B120
:10453000CEB9E36A3946DB6E4CE02846FEF7E2FC72
:1045400008B186B1F5E7002D55D0AB0753D16B68A4
:104550004FEA132BDBB21E2B1BD1F6B1083505EB4E
:104560008B0B5D450DD103B0BDE8F08F5AF8041BED
:10457000019243462046FFF7D1FF09F10109019A54
:1045800019E055F8041B3B4632462046FFF7C6FFAC
:10459000E7E71F2B23D1002EE0D0D4F8108008F1DC
:1045A000010323610BF1FF3305F1080A4FF0000905
:1045B000009386F00102009B4B45D7DC0BF1010113
:1045C0003B4655F8211032462046FFF7A7FFE36A25
:1045D000DB6A4146A06A03B0BDE8F04F1847202BC4
:1045E00003D1AD6886F001069EE72D2B03D1AB68A1
:1045F000002BA6D19CE729462046FFF70BFEE36A75
:10460000A06A1B6F3A46314603B0BDE8F04F184729
:104610002DE9F04707691E46BB1C0361C36A0446C7
:104620000D46DB6A806A394690469847E36AA06A7D
:10463000D3F88C3007F1010949469847A968002250
:104640002046FFF735FE2D69002D2DD1414620462D
:10465000FFF7E0FD636AE06A197806291DD1D0F8FA
:10466000CC30A06A2946984720460121FFF7EBF895
:10467000E36AA06A1B6E9847E36AA06ADB6E39465C
:104680009847E36AA06ADB6A49469847E36AA06AEA
:10469000D3F89030BDE8F0471847B200D0F8A850E2
:1046A000A06A0532A847E7E72B79AD2B07D1A968A7
:1046B0003B4600222046FFF731FFED68C4E7E9687A
:1046C0002046FFF7A7FDE36AA06AD3F888300121EE
:1046D0009847731C424629462046FFF799FFCBE7CF
:1046E000C36A2DE9F0410D46427100260446114689
:1046F00006611B6845622A46806A98470621204663
:10470000FFF7A1F86779012F08BF6E62EE686EB1FE
:10471000B2070BD133793F2B08D1B168FFF77AFD8F
:10472000E36AA06AD3F8C43098472CE02B784BB9E1
:1047300031462046FFF76EFDE36A5B6BA06A0E21EF
:104740009847EDE7072B24D1012F12D10023A37145
:10475000F1685F4B46222046FFF79DF86B8B032BD9
:1047600007D131692046FFF7BBFB2B8B43EA801052
:10477000288320467169FFF74DFDE36AA06A9B68B4
:1047800098470028D8D0E36AA06A5B68BDE8F0418A
:104790001847022B1BD1E36A31681B69A06A98474E
:1047A0006379012B07D10023A371B168494B4C22D7
:1047B0002046FFF770F8F1682046FFF72BFD2B8BA2
:1047C000DB07ADD5E36AA06A1B6E9847B4E7033BED
:1047D000032B4FD8012FD6F80C8005D1606A032235
:1047E0003946FEF7E1FFAF83E36A31681B69A06ACF
:1047F00098472B78032B24D1E36AD3F8A030012209
:10480000A06A002198472B78062B28D1E36AA06A7A
:104810005B6C984701212046FFF704FCE36AA06A1D
:104820005B6C9847E36AA06A5B6C98470023B268A8
:1048300041462046FFF7ECFE2B78062B7FF470AF45
:104840007AE7042B04D1E36A0222D3F8A030D7E739
:10485000052BD8D1E36A0322D3F8A030D0E7204655
:104860000121FFF7DFFBE36AA06AD3F8883001215A
:104870009847DBE7012F04D103220A212846FEF7DF
:1048800093FF17212046FFF7CDFB16212046FFF7A7
:10489000DCFBB168E36AA06ADB6B090998471A215F
:1048A0002046FFF7D2FB31692046FFF7B3FC0A210F
:1048B0002846FEF769FF0378032BE36A3FF43DAF18
:1048C0005D694288A06A00230A21A84728E700BF43
:1048D0001D4002081540020838B5426A1278072ABE
:1048E00004460B4606D0022A04D0BDE83840144ADC
:1048F000FFF79EB99D6885B9E36AA06A5B6B0E21DC
:104900009847E36AA06AD3F8CC3000219847204644
:104910000121BDE83840FEF796BFAB070BD12B79DC
:10492000AF2B08D12046A968FFF774FC2046BDE8EC
:104930003840FFF771B829462046FFF76BFCE0E7E7
:1049400058D6050801F00F03022B70B504460D463A
:10495000164602D00B4AFFF76BF931462046FFF7A7
:1049600059FCE36AA06A9B6D9847666A3378033BFB
:10497000032B9CBF7368636229092046FFF765FB20
:10498000666270BD46D60508D1E90212FFF7DABFAC
:1049900070B54379CE68012B0446154606D1436AAB
:1049A0000A465B8B2946FFF770F870610023716936
:1049B0001A462046FEF78CFFF1682046FFF72AFCD6
:1049C000062D05D1E36AA06AD3F888300021984704
:1049D000E36AA06AD3F8BC500023AC461A46BDE88F
:1049E00070400121604700002DE9F04F87B0CDE90C
:1049F0000221044605AAA42103A81F46FEF798FC3D
:104A00004FF0000B0190D946DA465E46D846019B2E
:104A10009B451AD16EB1BAF1000F74D1E36AA06A56
:104A20005B6C9847B9F1000F73D1E36AA06A5B6CC5
:104A30009847029AD4E90A03002A70D0D3F8C040FC
:104A4000334642463946A04710E0059A52F82B50AB
:104A5000002D49D0A80747D12A79A62A0FD1F107FE
:104A600007D5304A29462046FFF7E2F807B0BDE8EF
:104A7000F08F46F00106AA460BF1010BC7E7A72A03
:104A800007D1B20701D5284AECE746F00206A9464D
:104A9000F2E7A82A28D1EA686AB193070BD1117905
:104AA000AA2906D19268A9682046FFF74BFF013773
:104AB000E2E7AC2912D0A96801F00F02022A01D066
:104AC0001A4ACFE7E26AA06AD26B09099047E968FF
:104AD0002046FFF79FFB08F10108CDE70622294693
:104AE0002046FFF755FFE2E70EB1114ABAE7B8F1E9
:104AF000000F01D00F4AB5E729462046FFF78AFB91
:104B000001374646B8E7DAF808102046FFF782FB7F
:104B100088E7D9F808102046FFF77CFB89E7D3F82F
:104B2000BC408DE763D605086AD6050872D605082D
:104B30007FD6050888D6050870B50D46417901294C
:104B40000446134603D12A46FEF79FFF6861E36AD5
:104B5000A06ADB6C98476E6900231A4631462046EE
:104B6000FEF7B6FEE36AF18ADB6BA06A9847E96854
:104B700029B18B0703D10B79A32B08BF0021204655
:104B800002230022FFF730FFF08A70BD436A10B5A0
:104B90005A8B0446FFF7D0FF01462046BDE810407F
:104BA000FFF753BA002389681A46FFF71DBF38B5CF
:104BB0000C460546C968FFF72DFBA1682846BDE8ED
:104BC0003840FFF727BB0B79342B70B504460D46F0
:104BD00010D18968FFF71EFBED68AD6885B9E36AFF
:104BE000A06A5B6B0E219847E36A0422D3F8A030D9
:104BF00002211AE0C36A806A5B6B0E219847ECE7DA
:104C0000AB071FD12B799A2B13D1E36AA06A5B6B98
:104C10000E219847A9680029E6D02046FFF7FAFA46
:104C2000E36AD3F8A03004220321A06ABDE87040F3
:104C300018479B2B06D1A9682046FFF7EBFAEB68D3
:104C40009968E8E729462046FFF7E4FACCE710B573
:104C500004468968FFF7DEFAE36AA06A1B6DBDE8C7
:104C600010400021184700002DE9F7438D680446E5
:104C7000164645B9FAB1C36AD3F8A03002222946D4
:104C8000A06A984717E015F0030740F084802B795D
:104C9000372B13D132B1C36A806AD3F8A030022215
:104CA0000121984720462946FFF7B4FAE36AA06A33
:104CB000D3F8A430984703B0BDE8F0839F2B6AD1A6
:104CC000EB681A79A12A56D1A22101AA03F10800A2
:104CD000FEF72EFBA968804611B38B0720D10B7914
:104CE000372B1DD136B1E36A411CD3F8A030A06A3E
:104CF00002229847A9682046FFF78CFAE36AA06A67
:104D0000D3F8A43098474FF0010947450ED1B9F1C7
:104D1000000FD0D1E36A0322D3F8A030791CAFE7AB
:104D20002046FFF777FA4FF00009EEE7019B53F8B2
:104D3000271099B18E0711D10E79A6F1370046429E
:104D400046412046FFF766FAB9F1000F0FD03EB991
:104D5000164A29462046FEF76BFFACE70026F0E72F
:104D6000E36AA06AD3F8A43098470137CDE7002E54
:104D7000FBD00F4AEDE7AB684BB19A0707D11B791F
:104D8000372B04D104222946FFF702FE93E70522C0
:104D900029462046F8E729462046FFF73BFAE36A12
:104DA0000322D3F8A03001216AE700BF8FD605089F
:104DB0009DD605080122FFF757BF2DE9F0410646B1
:104DC00015460C4611B1FFF725FA01243DB16F6875
:104DD0004FF000083F0A0835B84509DB3C44F36A48
:104DE000B06AD3F8A03021460022BDE8F041184750
:104DF00055F8041B3046FFF70DFA08F10108EBE700
:104E00000A460021FFF7D9BF2DE9F7430C46896810
:104E10000546FFF7FFF9E668002E58D07768696A03
:104E2000FBB209788E2BA36819BF04F10C06012789
:104E30003F0A0836072903F00F024DD1022A49D153
:104E40001A099A2A4AD132681179302946D19268D2
:104E5000002A43D10A212846FFF7E4F86A6AD36A98
:104E6000528D3AB9424A3168284603B0BDE8F04352
:104E7000FEF7DEBE5978C9070FD559682846FFF7F7
:104E8000D1F8022FEB6A0BD8D3F8BC40A86A0023F4
:104E90001A460221A047012417E0013A0833E0E74F
:104EA000726811793229EFD1B46821793029EBD1B8
:104EB00091689B6CA86A012209099847A1680023A0
:104EC00001222846FFF790FD0324A74227D803B00C
:104ED000BDE8F0830024F8E7022AFBD140F2A122CA
:104EE000B2EB131FF6D133681A79302AF2D19C68DD
:104EF000002CEAD014F00302ECD123792F2BE9D156
:104F0000EB6AA86AD3F8BC40019213461146A04749
:104F10003368019A99682846FFF7A6FEBBE704F1BB
:104F20000108B84556F824104FEA84031AD20A79CA
:104F3000322A17D13344D3F8049099F80430302B37
:104F400010D18968EB6AA86A9B6C0022090998470E
:104F5000D9F80810002301222846FFF745FD08F183
:104F60000104B2E72846FFF755F9A046F7E700BF6E
:104F7000A8D6050810B5426A1278072A04460B46DF
:104F800006D0022A04D0BDE81040064AFEF750BE03
:104F900020461946FFF738FF2046BDE81040FEF7CF
:104FA0003BBD00BFBBD6050870B50D46C9680446B9
:104FB000FFF730F9A968E36AA06AD3F89830C1F323
:104FC0000711322918BF3E39BDE8704014BFC9B27D
:104FD00002211847F8B54F680C4689680546FFF767
:104FE00019F93F0A0C3400260236B74204F10804CE
:104FF00000DCF8BD54F8041C2846FFF70BF954F800
:10500000081CEB6AA86AD3F89C3009092339C9B295
:105010009847E9E72DE9F0414E680C468968054656
:10502000FFF7F8F8A6F10D085FFA88F8360A0C3495
:105030000127B74201DBBDE8F08154F8041B284684
:10504000FFF7E8F8EB6AA86AD3F89C304146984726
:105050000137EEE72DE9F0414E6804460D46360A69
:105060008968FFF7D7F8032E83BFD4F8108008F1C2
:10507000010323614FF0000801277B1C9E4222DCC4
:10508000032E55DD2569A06A6B1C2361E36A29465E
:10509000DB6E9847E36AA06ADB6A41469847E36A99
:1050A000A06ADB6801219847E36AA06A5B6E9847B3
:1050B000E36AA06A1B6E9847E36AA06ADB6A294626
:1050C000BDE8F0411847296920460237FFF7A2F8EA
:1050D000B74207DAE36AA06A9B6D9847E36AA06A61
:1050E0009B6E9847EB68E26AA06AD2F89C2003F0B6
:1050F0000F010E2911D1C3F30713242B1ABF333B21
:10510000D9B206219047B74205DAE36AA06A5B6F1D
:105110004246002198470835AFE71979852901D122
:105120003221EFE79B680BB90721EBE73321E9E771
:10513000BDE8F08110B504468968FFF76BF8E36AB3
:10514000A06AD3F89830BDE81040032118472DE934
:10515000F0474E68D0F810805FFA86F9A9F11E0377
:10516000D3F1000949EB030908F101030446036187
:10517000360A01F108050027B74206DBE36AA06A98
:10518000DB6A4146BDE8F047184755F8041B204646
:105190000137FFF73FF8B742F0DAE36AA06A5B6FC6
:1051A000424649469847E7E701F00F03022B70B5E6
:1051B00004460FD00B79492B01D04F2B02D101238C
:1051C000A37170BD4A2BFCD0502BFAD0482B0DD1C7
:1051D0000D696DB9A379002BF3D1E38A002BF0D0D0
:1051E00020461D4ABDE87040FEF722BDCD68F0E7BD
:1051F000A37943B3A38A8E6801339BB2012BA382A8
:105200000ED1E18AD4E90A03D1B1D3F8A03000224B
:105210009847E36AA06AD3F8A03002220021984799
:1052200029462046FEF7F6FFE36AA06ADB6B3109E8
:105230009847E36AA06AD3F8A430BDE870401847E5
:105240005B6C9847E5E7E38A0133E3822946204611
:10525000BDE87040FEF7DEBFC6D605082DE9F04177
:105260000569D1F80C80AB1C03610E460446002290
:105270002B46D8F80810FFF751F9B1682046FEF721
:10528000C9FFE36AA06ADB6E6F1C39469847E36A80
:10529000A06ADB6A29469847E36AA06ADB684FF098
:1052A000FF319847D8F80C102046FEF7B3FFE36AA9
:1052B000A06ADB6A3946BDE8F04118472DE9F7439B
:1052C0000446904699460F4629B9194603B0BDE8F1
:1052D000F043FEF79FBF0669731C036115684DB369
:1052E00015F0030226D12B797B2B23D1A9680192DB
:1052F000FEF790FF019A31462046FEF7ACFA019A7C
:10530000E9682046FEF7D4FF08F104024B46791EF7
:105310002046FFF7D3FFE36AA06AD3F88030314616
:10532000984703212046FEF78EFA03B0BDE8F0430C
:10533000FEF7A1BA29462046FEF76CFF2046002260
:105340003146FEF788FAE36AA06A1B6E9847DBE7EE
:1053500037B50C46054601AA7A2104F10800FDF78D
:10536000E7FFE368019A01462846FFF7A7FF03B06D
:1053700030BD00002DE9F04F2DED028B83B00569A3
:1053800001921E460E9B08EE103AAB1C04460361C8
:105390000F4601222946FEF75EFA39462046FEF7FF
:1053A00039FFE36AA06AD3F8943005F1010A0022BC
:1053B00051469847E36AA06ADB6A29469847E36A40
:1053C000A06AD3F8D0309847D4F8108008F10103D0
:1053D00023610027019B9F421BDB2046FEF74BFA0F
:1053E000E36AA06AD3F8D4309847E36AA06ADB6A1C
:1053F0005146984718EE101A2046FEF70BFFE36A55
:10540000A06ADB6A414603B0BDEC028BBDE8F04FF9
:1054100018473346D4F810901A68009209F1010237
:105420002261009AD2F808B004360137BBF1000FB0
:1054300047D1019ABA4237D1E36AA06A1B6E9847F6
:105440000025AB46009B2046D968FEF7E3FECDB1B0
:10545000E26AA06A526B0E219047E26AA06AD26AA1
:1054600059469047E36AA06A5B6B0E21984729462C
:105470002046FEF7EAFD20462946FEF7B7FE204605
:10548000FEF7F9F9E36AA06AD3F8943001224146A5
:105490009847E36AA06ADB6A49469847E36AA06ACC
:1054A000DB680121984795E720461F4A1968FEF7F7
:1054B000BFFB204603B0BDEC028BBDE8F04FFEF70A
:1054C000DAB91BF003052DD19BF80420762A5B4640
:1054D00003D1DD68DBF808B02D09E36AA06A9B6D93
:1054E000984759462046FEF795FEE36AA06AD3F82E
:1054F0009C3008219847E36AA06A1B6F4A46002146
:105500009847002D98D029462046FEF79EFDD4F8F6
:1055100010B00BF101022261594602222046FEF72B
:105520009AF98FE70025D8E7E4D605082DE9F0437E
:10553000076985B016467A1C02610D46022239467B
:105540000393DDE90C980446FEF785F9039B16BB2F
:10555000E36AA06ADB680321984729462046FEF7E4
:1055600059FEE36AA06ADB686FF002019847E36ABC
:10557000A06A5B6B0E219847E36AA06ADB6A394632
:10558000984720464146FEF745FE204605B0BDE857
:10559000F043FEF770B9CDF8009032462946204618
:1055A000FFF7E8FEE3E77FB5CD682B79782B064659
:1055B0000C4609D1AB6801930023009389681A4611
:1055C000FFF7B4FF04B070BD742B03AA4FF077014E
:1055D00016D105F10800FDF7ABFE2B6902463BB979
:1055E000EB680093A168039B3046FFF7C3FEE9E731
:1055F0009B680193EB680093A168039B3046DFE74B
:1056000004F10C00FDF794FE00230246E9E72DE9C2
:10561000F04F8B682DED028B03F00F03022B87B048
:1056200004460E4640F00381CB68002B00F0FF805B
:10563000980740F0FC801A792C2A40F0F8809A688C
:1056400002F00F01022940F0F28012097C2A40F09A
:10565000EE80DB681A79302A40F0E9809B68049379
:1056600005AAA42104A8FDF763FE431E022B00F245
:10567000DE80059901280A6800F0CB800228D1F865
:1056800004A000F021818D68E90740F1D0806B080B
:1056900000F0CD8032B1930704D11179A6390229E7
:1056A00040F2C580BAF1000F08D01AF0030F05D1FF
:1056B0009AF80410A639022940F2B980B3687769D4
:1056C000A18B08EE103A3369266908EE903AA36977
:1056D0000293E38B0193E183731C311D1AF0010BDC
:1056E000039306F102082683638306F1030921610F
:1056F00005D1514620460392FEF78CFD039A1146D0
:105700002046FEF787FDE26AA06AD26E49469047BE
:10571000E26AA06AD26A41469047E26AA06A926D44
:105720009047002218EE101A2046FEF7C1FD18EE31
:10573000901A2046FEF76EFDE26AA06AD26A711CDA
:10574000904729462046FEF765FDE26AA06AD2F836
:105750009C200E219047E26AA06AD26A494690478F
:10576000E26ABBF1000F58D1D36DA06A9847E36A93
:10577000A06A5B6E9847E36AA06AD3F89C30002D5C
:10578000ACBF002101219847E36AA06A1B6F424623
:1057900001219847029BA361019BE383002F44D022
:1057A000E36AA06A1B6E9847BBF1000F03D1E36A5E
:1057B000A06A1B6E984739462046FEF72BFD2569E7
:1057C000A06A6B1C2361E36A2946DB6E9847E36A93
:1057D000A06ADB688BF0010101319847E36AA06A97
:1057E000DB6A31469847E36AA06A1B6E9847BBF1B3
:1057F000000F03D1E36AA06A1B6E984727B1E36AE2
:10580000A06ADB6A2946984707B0BDEC028BBDE869
:10581000F08F92460325024644E7A06A926D9047B6
:1058200051462046FEF7F6FCA5E73D46D6E725693A
:10583000A38BB4F81E90E3836FEA45436FEA5343AA
:10584000D4F818A02383EB1C23616F1CF1686783D5
:105850002046FEF7DFFCE36AA06AD3F88830012116
:105860009847E36AA06ADB6A39469847E36AA06A08
:10587000D3F88C3005F1020841469847B168002200
:105880002046FEF715FD20463169FEF7C3FCE36AAA
:10589000A06A9B68984720B9E36AA06ADB6E394624
:1058A0009847E36AA06ADB6A41469847E36AA06AC0
:1058B000D3F8903098477169C4F818A0A4F81E90E6
:1058C0002046FEF7A7FC9AE70325E3E62DE9F0471B
:1058D0000669D0F818A0B0F81E900683B31C0361C7
:1058E00006F10108838BA0F81A800446C3838868F8
:1058F0000D46FDF7F9FAF8B927697B1C2361A86802
:10590000FDF700FB20B9E36AA06ADB6E41469847C9
:10591000E36AA06ADB6A39469847E9682046FEF7E1
:1059200079FCE36AA06ADB6A41469847A9683B466E
:1059300001222046FEF7F2FD2969C4F818A020468E
:10594000A4F81E90FEF766FCE36AA06ADB6A3146A3
:10595000BDE8F04718472DE9F3470669731C03615A
:10596000044688680D46FDF7BFFA024610BB27695A
:105970007B1C2361A9683B462046FEF7CFFD2046ED
:10598000E968FEF747FCA868FDF7BCFA00BB2B6985
:105990000BB96B694BB1E36AA06A9B68984720B961
:1059A000E36AA06ADB6E31469847E36AA06ADB6A65
:1059B0003946984701AA712105F11000FDF7B8FC9E
:1059C000002781464F450BD169692046FEF722FC2E
:1059D000E36AA06ADB6A3146984702B0BDE8F08707
:1059E000019B53F82780D8F80800FDF77DFA02469E
:1059F00020BBD4F810A00AF101032361D8F80810E5
:105A000053462046FEF78AFD2046D8F80C10FEF7D4
:105A100001FCD8F80800FDF775FA0028D8D1E36A30
:105A2000A06A9B68984720B9E36AA06ADB6E31469A
:105A30009847E36AA06ADB6A514698470137C1E795
:105A40002DE9F74F044690460F4629B9194603B091
:105A5000BDE8F04FFEF7DEBB0669321D0261D8F8E3
:105A6000005006F1010A06F1020B06F10309002DB0
:105A700000F0F28015F0030240F0EE8029797B29D6
:105A800040F0EA80A968CDE90032FEF7C3FBE16A85
:105A9000A06A896D8847A8212046FDF7D6FF019AA4
:105AA000E9682046FEF704FC009B0093314620463F
:105AB0000222FDF7D0FEE26AA06AD2680321904775
:105AC00008F10402009B791E2046FFF7B9FFE36A44
:105AD000A06ADB686FF002019847E36AA06A5B6B1B
:105AE0000E219847E36AA06A5B6E9847E36AA06A52
:105AF000DB6E51469847E36AA06ADB6A31469847F5
:105B0000E36AA06A9B6D9847E36AA06A9B690122D9
:105B100021219847E36AA06AD3F89C30082198476E
:105B2000E36AA06A1B6F5A4600219847E36AA06A9D
:105B30009B6D9847E36AA06A9B6E9847E36AA06AE8
:105B40005B6E9847E36AA06A9B6C0022A921984784
:105B5000E36AA06A9B6E9847E36AA06A9B6E9847C7
:105B6000E36AA06A9B6D9847E36AA06A5B6D0022B6
:105B70000A219847E36AA06A5B6E9847E36AA06AC5
:105B80005B6B0E219847E36AA06AD3F8C0500023EC
:105B90001A460321A8472046FDF73EFFE36AA06AA4
:105BA0001B6F4A4600219847E36AA06A1B6E98471C
:105BB000E36AA06A5B6B0E219847E36AA06ADB6E1A
:105BC00049469847E36AA06ADB6802219847E36A7E
:105BD000A06ADB6A59469847E36AA06A9B6E9847B9
:105BE000E36AA06A9B6E9847E36AA06ADB6A514643
:105BF0009847E36AA06A9B6C0022A9219847E36A50
:105C0000A06A5B6B0E219847E36AA06A9B6D984778
:105C1000E36AA06A9B6D9847E36AA06AD3F8C05014
:105C200000231A460321A8472046FDF7F5FEE36A44
:105C3000A06A1B6E9847E36AA06ADB684FF0FF31E9
:105C40009847E36AA06ADB6A49469847204603B052
:105C5000BDE8F04FFDF70FBE294620460093FEF742
:105C6000D9FAE26AA06A926D90472046A821FDF712
:105C7000ECFEE26AA06A126E904715E72DE9F04F3C
:105C80008D682B79032B87B004460AD12946FEF78D
:105C9000EFF9AA69138B43F00103138307B0BDE842
:105CA000F08F162B40F0AE800669EB684FEA1318B0
:105CB000331D0361E968FEF7ADFAE36AA06A9B6CE5
:105CC0000022AA219847E36AA06AD3F8C070002393
:105CD0001A461946B84741462046FEF7B6F92769E5
:105CE000A3690293BA1C2261A28BE38BE283E26A6E
:105CF00001937B1C63831946A06AD26A278306F14D
:105D0000010B03939047012259462046FDF7A3FD5E
:105D100041462046FEF786F92046AC21FDF795FE68
:105D2000A96820460022FEF7C3FAE26AA06AD2F808
:105D3000948006F1020949460022C047E26AA06A3F
:105D4000D26A59469047E26AA06AD2F8D0209047BA
:105D5000E26AA06A926D9047E26AA06AD2F818805F
:105D600040F2BF210122C047E26AA06AD2F89C201B
:105D700008219047E26AA06AD2F8708006F1030A0F
:105D800052460021C047E26AA06A126E9047E26A5A
:105D9000A06AD2F8948031460122C047E26AA06A24
:105DA000D26A51469047E26AA06AD26801219047C0
:105DB0002046FDF760FDE26AA06AD2F8D420904741
:105DC000E26AA06AD26A4946904729692046FEF7EE
:105DD00021FA039BE26AA06AD26E19469047029BA1
:105DE000A361019BE383E36AA06ADB6A31469847BB
:105DF00069692046FEF70EFAE36AA06ADB6A394653
:105E000098474BE705AA7A2105F10800FDF790FABB
:105E1000EB68059A01462046FFF712FE3EE770B593
:105E20008D6804463DB9C36AD3F8C8302946A06AD4
:105E3000BDE870401847AB070ED12B795E2B0BD114
:105E4000A968FEF7E7F9E9682046FEF7E3F9E36A97
:105E50000221D3F8C830EAE729462046FEF7DAF9EE
:105E6000E36A0121D3F8C830E1E710B50446896838
:105E7000FEF7D0F9E36AA06A1B6EBDE81040184730
:105E80002DE9F7430C4604F00F03022B05D121093D
:105E900003B0BDE8F043FEF7A9B9002C6FD0A2070C
:105EA0006DD123792C2B3DD1A1680190FEF7B2F979
:105EB000E5680198002D62D015F003075FD16E6888
:105EC000F2B28E2A2B4609D1360A05F1080806F1EE
:105ED000FF39B94512DC013655F826301A79312AD6
:105EE00014D199680190FEF795F90198C36A806A08
:105EF0001B6D022103B0BDE8F043184758F8041B9E
:105F000001900137FEF786F90198E2E7322A36D18F
:105F10009968C36A806A5B6D0222090903B0BDE813
:105F2000F04318472D2B2AD1A46844B3E568FDB18E
:105F3000AB071DD16E68F2B2952A01D1A468A2E721
:105F4000962A13D1A1680190FFF79AFF360A083507
:105F50000024B442019802DB03B0BDE8F08355F899
:105F6000041B01900134FFF78BFFF2E7AC2A06D047
:105F7000A1680190FFF784FFE468019883E7034A72
:105F8000214603B0BDE8F043FDF752BEFCD605083C
:105F90002DE9F041CD6804460E4635BB0379BBB10F
:105FA000436A1D78A5B9CF21FEF73CF8B1682046B9
:105FB000FEF730F9E36AA06AD3F8BC602A462B46A4
:105FC0000121B047E36AA06A1B6EBDE8F0411847A3
:105FD000B168880700F0BC8001F00F03022B40F08D
:105FE000BE802046FEF716F9ECE7A90740F0BB801B
:105FF0006B68DAB25B2A14D1ED68002D40F0B180F5
:10600000406A0378072B40F0AA80B16801F00F03C3
:10601000022B40F0A480BDE8F04103220909FDF7FE
:10602000C3BB562A13D10122B168FEF741F9E968D2
:106030002046FEF7EFF8A968E36AA06AD3F89C301F
:1060400009093D39C9B298470222B1687BE0572A55
:1060500040F087801B0A5F1E013355F82310FEF7BE
:10606000D9F8002F03DDE36AA06A9B6D9847B168F9
:1060700000222046FEF71CF908350026BE426EDAE3
:106080000136BE4203DAE36AA06A9B6D984755F871
:10609000041B00222046FEF70BF9EFE76B68DAB22B
:1060A000062A60D1B768002F5DD0BA075BD17A6845
:1060B000D1B2062957D11B0AB3EB122F4FEA12288F
:1060C00051D1A8F10203012B4DD8BB6823B1980729
:1060D00002D11B79222B46D0FB6823B1990702D14C
:1060E0001B79222B3FD0B8F1020F06D03B6923B1B8
:1060F0009A0702D11B79222B35D0A9682046FEF7DA
:1061000089F8E9682046FEF785F8B8F1030F07D152
:1061100020462969FEF77EF8E36AA06A9B6E9847DD
:10612000E36AA06A5B6E9847B96800222046FEF7D2
:10613000BFF8F96800222046FEF7BAF8B8F1030F5D
:106140000DD1396900222046BDE8F041FEF7B0B814
:1061500000293FF446AF0B793A2B7FF442AFBDE8FC
:10616000F081AB079AD029462046FEF753F800226B
:106170006BE700002DE9F04F85B004460191019BCB
:10618000DFF81CA103F1080002AA4221FDF7D0F8B4
:10619000636A00265D8B8346B1465E450AD1019B4A
:1061A000D9680B79032B51D12A462046FDF797FC7D
:1061B000054659E0029B53F82630009303AA6C2150
:1061C00003F10800FDF7B4F8039B19680A09732A64
:1061D00007460DD02046FEF71DF84FF00108B845E0
:1061E00028D3009BD96859B12046FEF713F807E081
:1061F000022807D052462046FDF71AFD09F1010991
:106200000136CAE759680B09412B0DD040F2F13233
:1062100093420BD040F2C542934209D040F2F9229A
:106220009342E7D10425E9E70125E7E70546E5E7DD
:106230000325E3E7039BA06A53F82810E36A0022D2
:106240005B6D0909984708F10108C8E7442B17D18D
:106250008E682A4631462046FDF741FCB269138B11
:1062600043F00103054613830026ABEB0909B14552
:106270000BD829462046FDF7E8FE05B0BDE8F08FB3
:106280002A462046FEF758FC92E7E36AA06AD3F854
:10629000BC7000231A460121B8470136E7E700BF6A
:1062A00006D705084B682DE9F04105460E461F0A42
:1062B00001F108080024BC4201DBBDE8F08158F878
:1062C000041B2846FDF7A6FFAB6843B1023405F175
:1062D0000C0056F82410BDE8F041FDF79FBC0134D6
:1062E000E9E710B50446FFF7DDFFE36AA06AD3F8DB
:1062F0009C30BDE810402221184770B58D680446D7
:1063000045B9C36AD3F8A03001222946A06ABDE886
:1063100070401847AA0739D12B79922B36D1EE68F5
:1063200036B3B30724D13379952B08D1A968FDF78B
:1063300071FFE36A0122D3F8A0301146E6E7962BFD
:106340000ED1A968FDF766FF31462046FFF7AAFF88
:106350007168E36A090A0122D3F8A0301144D5E735
:10636000AC2B05D129460322BDE87040FEF710BBD7
:10637000A9682046FDF74EFFE9682046FDF74AFF71
:10638000E36A0122D3F8A0300221BFE72946204664
:10639000CDE7896830B4044619B90A4630BCFEF727
:1063A0000CBDCB688BB113F003020ED11D79952D76
:1063B00001D18968F2E7962D01D11A46F9E7AC2D93
:1063C00003D130BC0622FEF7E3BA0A46204600217C
:1063D000E4E70000184B2DE9F041D3F8E0710446E2
:1063E0000D463FBB0669731C036189683346012271
:1063F000FEF794F8E36AA06A9B691F21012298477F
:10640000E96851B12046FDF705FFE36AA06AD3F8B9
:10641000BC503A463B460121A847E36AA06AD3F83C
:10642000C83001219847E36AA06ADB6A3146BDE8BB
:10643000F0411847BDE8F081705B00202DE9F04184
:10644000426A1278072A044604D0BDE8F0411A4A8D
:10645000FDF7EEBB8D685DB9C36A806A5B6B0E2188
:106460009847E36AA06AD3F8C430BDE8F041184702
:1064700015F003021DD12B791B2B1AD10669EF6889
:10648000731C0361B9683346FEF748F8A9682046D3
:10649000FDF7C0FEE36AA06AD3F8C4309847E36A08
:1064A000A06ADB6A31469847F9682046FDF7B2FEDC
:1064B000D7E72946F9E700BF1ED705082DE9F04FB9
:1064C0004379012B85B004460D460AD191F804802A
:1064D000B8F1100F08D0436A1B782BB9234AFDF797
:1064E000A7FB05B0BDE8F08F03AA6D2105F10800F8
:1064F000FCF71EFFDFF87890DFF878A0DFF878B0BF
:1065000007460026B742ECD0039B606A53F826107A
:1065100000220909FDF748F9B8F1100F0378014688
:1065200013D113F0FD0F05D05A4629462046FDF73A
:106530007FFB08E0022303704168606AFDF755F9AC
:1065400008B1022303700136DCE75BB90123037055
:106550000190606AFDF750F901990B78012BF2D197
:106560005246E2E7052BEED04A46DEE72AD7050879
:106570005AD705084DD7050840D705082DE9F04F33
:1065800091B00D46144680463422002103A819F02C
:106590007DFE4FF0FF330893A04BD8F8002093F80E
:1065A000E4310295002102A88DF80C40FDF76DFA48
:1065B000054600F04AFE9A4B0A9C0C9006460D9345
:1065C000002724B1DDF81090B9F1000F24D00A9C07
:1065D00014B1049B002B40D03946304600F038FE01
:1065E000DFF840A2DDF82890DFF83CB20024049ADE
:1065F000B9F1000F00F04081002A00F0F2800B9BFF
:1066000005A8D968FDF70AFB0B9B059ADB8A02995E
:10661000049808F0DFFE32E1638B042B4FF0010297
:10662000214602A807D1FDF717FB069BA4689F42ED
:1066300038BF1F46C5E7FEF753F8638D9945F4D27E
:10664000E36A03EBC90113F83930012B02D120466C
:10665000FDF7D2F809F10109EFE7228B520712D5B5
:10666000618D01390FD3E26A02EBC102507810F05C
:10667000020F26D03BB1D3E900EC92E8030083E897
:106680000300C2E900EC4FF0000363844FF00009FF
:10669000B4F82AE0F1451ADB00239E4553D1D4F823
:1066A0000490B9F1000F0AD0B9F82A300193002004
:1066B0000346019A904256DB002B40F09080A4687C
:1066C00086E7002BCDD1012808BF1346C9E7227801
:1066D000D4F82CA0012A4FEAC9030AEBC90B06D152
:1066E000DBF804200A2A13D109F10109D0E71AF8CE
:1066F00039200DD9012A0BD14FF002020AF80320EC
:10670000628B032A16D0228B42F01002228303E010
:106710001AF80320022AF3D01AF80330032B03D00F
:106720009BF80130D907DFD5638C5A1C6284ABF823
:106730000230D9E7DBF80400019306F0C3F9012821
:10674000019BE9DCDFE7E26A02EBC30112F83320C8
:10675000042A06D14A78D2075FBF628C4A80013290
:106760006284013399E7D9F82C2002EBC00B12F8B0
:106770003020043A012A17D84FF0000C12E0E26AE8
:1067800002EBCC0A12F83C20052A09D1DAF80420E1
:106790001146DBF804208A4204BFAAF80230013314
:1067A0000CF1010CE645EAD1013082E7E06A00EB2A
:1067B000C20110F83200052802D14878C00702D57E
:1067C00048881844488001329645EFD1A28B12FACE
:1067D00083F2A283628C12FA83F363846FE7002250
:1067E000F2E7B9F81A20042A20D10E9A1AB93846CD
:1067F00004F0B2FA0E9000220C924946032202A83D
:10680000CDF83CB0FDF728FA049A22B90422494693
:1068100002A8FDF721FAD9F80890E8E6705B00209D
:1068200050D8050834DA050834DC0508023A012A94
:106830001ED82CB93A4606A904A803F0DDFB04468D
:10684000CDE90C4A0222494602A8FDF749FF049A05
:10685000002AE0D10322494602A8FDF741FF049A2D
:10686000002AD8D10422494602A8FDF739FFD2E711
:10687000134B0C960D93E5E7002A7FF4C0AE30462B
:1068800000F0EEFC14B1204603F0D5FB0E9808B1E1
:1068900004F077FA4046FCF73BFF2C692846AD68C8
:1068A000FCF768FF002DF9D1049808B1F9F7D4FB83
:1068B0002A462946204604F0E1FA11B0BDE8F08FDF
:1068C00050D8050810B504460122FCF76DFF237867
:1068D000012B04D90378012B04BF0323037010BDDF
:1068E00037B504460D46104619460193FCF74CFF98
:1068F00003780199012B06D16B680022204603B072
:10690000BDE830401847022B02D16B680122F5E741
:106910002D684288032B0CBF002301232046AC4680
:1069200003B0BDE8304060478079003818BF0120CF
:1069300070474379012B09D083681944C36881608B
:106940009A8C9142C8BF99840023837170476FF07D
:106950000301FFF7EEBF0421FFF7EBBF6FF0020169
:10696000FFF7E7BF4379026A032B88BF036B11442B
:1069700094BF03469B1801621846704710B50C4639
:106980000121FFF7EFFF047010BD4279836A032AEB
:1069900088BF426A194484BFD218036B816294BFD6
:1069A00003469B181846704710B50C460121FFF7A7
:1069B000ECFF047010BD38B51446FFF7BAFF012193
:1069C000FFF7E3FF047038BD53220121FFF7F3BF47
:1069D00054220121FFF7EFBF57220121FFF7EBBF40
:1069E00058220221FFF7E7BF59224FF0FF31FFF78E
:1069F000E2BF5A220021FFF7DEBF5B220021FFF732
:106A0000DABF5D224FF0FF31FFF7D5BF002915BF78
:106A10005F225E2203210021FFF7CDBF3039CAB2C9
:106A20000021FFF7C8BF62226FF00101FFF7C3BF6B
:106A300010B5632204464FF0FF31FFF7BCFF01237E
:106A4000A37110BD01F16402D2B24942FFF7B3BF96
:106A500010B501F167020446D2B24942FFF7ABFF1D
:106A6000E268138B43F00103138310BD70B51C461D
:106A70001546FFF75EFF0321FFF787FF4470240AE6
:106A80000570847070BD012A10B40B46044608D00E
:106A9000022A0ED15DF8044B69224FF0FF31FFF757
:106AA0008ABF11461B322046D2B25DF8044BFFF775
:106AB000DDBF4FF0FF31F5E70B4610220121FFF754
:106AC000D5BF11320B46D2B20121FFF7CFBF002A4A
:106AD0000B464FEA4201C1F1010114BF15221422F5
:106AE000FFF7C4BF16320B46D2B24FF0FF31FFF7AB
:106AF000BDBF19320B46D2B20021FFF7B7BFF8B5C0
:106B000016461F46FFF715FF4379032B81BF846AA2
:106B1000C369C4F5FF4453F8273088BF7D344FF074
:106B200003018CBFE4180024FFF72FFF44702412E8
:106B300006708470F8BD0B4642220021FFF7DFBFCC
:106B4000F8B516461F46FFF7F4FE4379032B81BFC5
:106B5000846AC369C4F1FF2404F57F0484BF53F839
:106B60002730FD344FF003018CBFE4180024FFF7F9
:106B70000CFF4470240A06708470F8BD002A02F1EC
:106B800047020B46D2B20CBF02210021FFF7D8BF4B
:106B90000B464B220121FFF7D3BF0B464A220021AF
:106BA000FFF7CEBF264BD3F8E031022B2DE9F0479B
:106BB000044689460ED84669B1420BD9856A0369F5
:106BC0008E1BED1A40F2FF7756EA050304D1A36A43
:106BD000C4E90439BDE8F087062E01D90F2D1AD972
:106BE0001F2DAA4628BF4FF01F0A554510D8032E67
:106BF000B04628BF4FF0030801212046FFF7B2FE40
:106C00004AEA48130370A5EB0A05A6EB0806DBE782
:106C10004FF00008F0E7BE42B0464FF0020128BF37
:106C2000B8462046FFF79EFE4FEA181303F07003A4
:106C30002B4363F07F03037080F80180AA46E2E7EC
:106C4000705B002038B50D460021FFF772FE4379D6
:106C5000012B05D0032B9EBFC369826A43F8252010
:106C600038BD23B50B46054611462AB9132202B09A
:106C7000BDE82040FFF7FABE022A06D10193FFF7D4
:106C8000A3FE2846FFF7B5FE019B18226FF0010115
:106C90002846ECE710B5044631B955224FF0FF31D4
:106CA000BDE81040FFF787BE022904D1FFF78CFE34
:106CB0002046FFF7A2FE56226FF002012046EFE7C2
:106CC000134621B143224FF0FF31FFF718BF442292
:106CD000F9E7134621B145224FF0FF31FFF70FBF0F
:106CE0004622F9E773B521F4004305460C461646E3
:106CF000D2B90A0410D559210193FFF755FE592145
:106D00002846FFF751FE59212846FFF74DFE59212D
:106D10002846FFF749FE019B42220021284602B087
:106D2000BDE87040FFF7EBBE40220021FFF7E7FE11
:106D3000210A21F07F013143C9B2284602B0BDE8E3
:106D40007040FFF731BE322913B513D0332914D167
:106D5000012407212939CAB24FF0FF310190FFF712
:106D60002AFE01985CB1D322002102B0BDE8104098
:106D7000FFF721BE01240621ECE70024EAE702B078
:106D800010BD4379012B70B5044626D00021FFF7D2
:106D9000F5FD626B236A00259B1A6363A563E068B7
:106DA000438D9D421AD3A38FE3876379032B25D1AB
:106DB000A36A206A6062E3621844F9F78CF9E36819
:106DC0002063988BDB8B1844A38F1844B4F84030B1
:106DD00018448000F9F77FF9606470BDC36A03EB63
:106DE000C50213F83530042B06D191782046FFF701
:106DF000C5FDA36B0133A3630135D0E7042BECD1B0
:106E0000038B626C216B0069BDE8704004F00CB824
:106E100001F110033F2B73B506460C4607D8A1F1CC
:106E20008002D2B20121FFF7C6FD02B070BD012180
:106E300022220DF10505FFF7BEFD294604F07F0073
:106E4000E3B2E4112A4605F8010D601C0128F5D8CB
:106E5000013403F0400312D11BB97F2305F8013C34
:106E6000951E491B3046FFF790FD01AC01462B46AD
:106E7000A34208D15D1B9DF804204255D5E7002BA5
:106E8000EFD00023EAE713F8012B62F07F0201F84C
:106E9000012BEDE773B50DF1050406461D46FFF71E
:106EA0008AFD214605F07F03ED0904F8013DF9D183
:106EB000091B3046FFF769FD01AD01462346AB4291
:106EC00005D19DF804201B1BC25402B070BD13F8FD
:106ED000012B62F07F0201F8012BF0E770B41E462F
:106EE000C368B0F840409D8BDB8B1D44C38F1D44AD
:106EF000631CA0F8403063194479042C04BF446C2F
:106F000044F8236070BCFFF7C5BF10B41C46224391
:106F10000B695DF8044B07BF3222012133224FF089
:106F2000FF31FFF7DBBFF8B51446D6B2069A1F460D
:106F30003A430B6905460BBFC4F10101E14320222E
:106F40002122FFF7CBFF31462846BDE8F840FFF786
:106F50002BBD10B4044643B90F2A06D8503A5DF849
:106F6000044BD2B20121FFF726BD03F124012046D4
:106F700013465DF8044BCAB20121FFF78BBF10B472
:106F800004464BB90F2A07D8403A5DF8044BD2B2F9
:106F90004FF0FF31FFF70FBD03F1260120461346E6
:106FA0005DF8044BCAB24FF0FF31FFF773BF03F136
:106FB00028011346CAB20021FFF76CBF022A02F172
:106FC0002A020B46D2B214BFC1F101010121FFF721
:106FD00061BF03290AD004290BD0002102230A44EF
:106FE00043EA8203C9432F22FFF754BF00210B4617
:106FF000F5E70121FBE70B4630220139FFF74ABFD5
:1070000010B4144641EA0223214431225DF8044BB6
:10701000FFF740BF70B4DDE90365D2B203EB46046D
:1070200043EA062315B101320234D2B2091B70BC07
:10703000FFF730BF07B5CDE900230B46342200210E
:10704000FFF7E8FF03B05DF804FB07B5CDE90023C7
:107050000B4636224FF0FF31FFF7DCFF03B05DF83F
:1070600004FBC268938BD28B1A44838F10B45C1CD0
:10707000134442798487042A08BF426C5DF8044BAC
:1070800008BF42F8231023220121FFF703BFFFF7B7
:10709000E8BF00000C2902D10349FFF7E2BF4331EA
:1070A000CAB20121FFF787BC00FC050838B50446C9
:1070B0000D460E21FFF7EEFF20462946FFF7C2FDE1
:1070C00002215C22FFF777FC20466FF00301BDE848
:1070D0003840FFF72EBC2DE9F74F15460023C0E9D5
:1070E00003236E8C8360837183620362AB8CB5F87B
:1070F0002680AF8B417101221E44964238BF16464E
:107100008A464FEA8801013E426101F0040107F01E
:1071100003021143B5F81890EB8BB5F820B0F200DC
:1071200002F07802044609F00F09114336094FEACC
:107130005808BF0846EA080242EA09023A431A43DD
:1071400052EA0B023ED12046FFF718FCBAF1020FBB
:1071500016D9D4E90D32590002F001009B095208FA
:1071600001F07E01014363631343A26318BF41F042
:1071700080012046FFF702FCD4E90D321343E8D129
:10718000236A636302212046EE8AFFF7EBFB067059
:10719000360A467002212046AE8AFFF7E3FB002341
:1071A0000670BAF1040F4FEA16264670A387A4F8BA
:1071B000403047D1A88BEA8B1044984242D06E8D64
:1071C00000213BE041F0800120460193FFF7D6FB10
:1071D0004FEA89113201019B02F0300201F04001B7
:1071E00011430BF001021143DA0002F008021143CF
:1071F000BA0002F0040211434FEA480202F0020210
:107200001143B6084FEA58084FEA59097F085B084E
:107210004FEA5B0B8EE7EA6A02EBC1025778FF0781
:107220000BD557889F4208D15268616CD20042F05A
:10723000020241F823200133BFE701318E42EADC2C
:107240000522F2E703B0BDE8F08F4820F8F743BF0E
:1072500010B5044681618800F8F724FFE06110BD95
:1072600010B50446C069F8F745FF2046BDE8104058
:10727000F8F740BF10B5044601618800F8F712FF27
:10728000606110BD10B5044611B1C068F8F732FF57
:107290006069BDE81040F8F72DBF012938B50446F4
:1072A0000D460ADC0269406992004FF0FF3118F088
:1072B000EDFF00232560636038BD4068F8F7F2FEFB
:1072C0006368E060A360F4E7D0E90032022B0ABFF4
:1072D000C36800239B181144416018467047036837
:1072E000012BDEBF4369426843F8212070474268A2
:1072F0004B1E1344494219404160704738B50C4653
:107300001546FFF7E1FF10B10444A04200D138BD9B
:1073100000F8015B2D0AF8E7704710B50C46022112
:10732000FFF7D2FF10B10470240A447010BD38B5C5
:107330000D4604211446FFF7C7FF28B1057084707D
:107340002D0A240A4570C47038BD0000032998BF77
:10735000144B70B591BF5E5C0239FE2621F001042A
:1073600098BF002446F435410546FFF7D6FF44B1E7
:107370007F2C09D844F4304141F080012846FFF7C2
:10738000CCFFC5E9066470BDA300A201DBB202F424
:10739000E0421A4342F450624FF2AD212846FFF713
:1073A000C6FFEEE744D90508C16910B5044629B106
:1073B0007F290BD841F43041FFF7AFFFA169204688
:1073C00041F43D41BDE81040FFF7A7BF8B008A01A3
:1073D000DBB202F4E0421A4342F450624FF20D2154
:1073E000FFF7A5FFEAE7114341EAC301FFF795BFA5
:1073F000072A85BF083AD200D20042F0400207298E
:1074000085BF08391143114341F0800141F48C419B
:10741000FFF783BF70B5DCB244EA02225C101D01A5
:1074200004F48064C3F303334668234305F4E04562
:107430002A431943FFF77BFF304670BD38B54369D7
:1074400053F821404368E41A043C0546C4F34A015A
:1074500041F46041FFF761FF2B68022B0AD124F44D
:10746000FF6020F0070028B110F5006F14BF002066
:10747000012038BD0120FCE7F8B5446954F822200A
:107480004468121B141F064665101F46B3B9EDB2BF
:1074900045EA012141F45041FFF73FFF3368022BD9
:1074A0000AD134F0FF0407D014F5807F14BF002305
:1074B00001231F463846F8BD0123FAE7A61204F45B
:1074C000005206F48066C4F38534C5F30B053443DB
:1074D0002A4344EA811142F4004241F47041FFF72B
:1074E00026FFE7E738B5436953F821404368E41ABB
:1074F000043C0546C4F34F02C4F30A3142F4784217
:1075000041F47041FFF713FF2B68022B08D1A00D47
:10751000800528B110F5800F14BF0020012038BD70
:107520000120FCE7F8B5476804460D4616461346A9
:107530000A464FF24021FFF76DFF330C2A464FF207
:10754000C0212046FFF766FF3846F8BD072910B472
:1075500004460AD832F0FF0307D142EA01215DF860
:10756000044B41F40051FFF7D8BE130C1B0443B980
:10757000134620460A465DF8044B4FF24021FFF7C0
:1075800049BF20465DF8044BFFF7CCBF08B5036840
:10759000012B05DD31F0FF0302D0064805F0F0F8BD
:1075A000C9B241EA0221BDE8084041F41041FFF7A9
:1075B000B4BE00BF28D9050808B50368012B05DD56
:1075C00032F0FF0302D0064805F0DAF8D2B242EA00
:1075D0000121BDE8084041F41841FFF79EBE00BFFD
:1075E00028D90508D2B242EA012141F42841FFF727
:1075F00094BE38B5436953F8223042689B1A43F071
:1076000001030C46083B0A464FF240210546FFF7AE
:1076100001FF210101F0800104F00704214341F43E
:107620008841284641F07801BDE83840FFF775BE33
:10763000072930B4054614460CD8072A0AD81F2B50
:1076400008D841EAC20242EA831130BC41F4D04179
:10765000FFF763BE9B0043EA013244F478412846B9
:1076600041F0D00130BCFFF762BE436953F82110EE
:107670004368CB1A043B013130B4C3F34A020446D9
:107680000DD0D91C0BDA23F4FF6525F0070515F59D
:10769000006F04D130BC42F46041FFF73EBEC3F33B
:1076A0000A33204642F4384230BC43F47041FFF7BD
:1076B0003EBE436953F822204368D31A043B01328B
:1076C00070B406464FEA63040ED0DA1C0CDA23F0DD
:1076D000FF0212F5807F07D1E4B244EA012141F4B0
:1076E000504170BCFFF719BE9D1203F4005205F41F
:1076F0008065C3F38533C4F30B042B43224343EA71
:107700008111304642F4004270BC41F47041FFF7F1
:107710000EBE38B514460B46072221460546FFF734
:1077200087FFE100284641F48F41BDE83840FFF76C
:10773000F4BD90F854007047436C1944C368416429
:10774000012B04DD836D9A8C9142C8BF99847047E8
:107750007047002280F854204FF0FF31FFF7ECBF54
:10776000FFF7F7BF002280F854206FF00301FFF706
:10777000E3BF4FF0FF31FFF7DFBF38B5446CC3699B
:1077800021449942054608D9083121F00304006AD2
:10779000E100F8F7A2FCC5E9074038BD70B5044622
:1077A0000E4601211546FFF7E8FF616C226A02EBE5
:1077B000C10302F83160012159705D602046BDE8C7
:1077C0007040FFF7B9BF70B504460E46012115465B
:1077D000FFF7D3FF616C226A02EBC10302F831604C
:1077E00002225A705D6020460121BDE87040FFF71B
:1077F000A3BF002280F854201146FFF7E4BF0A46D9
:10780000002180F854100221FFF7DDBF38B50D1EAE
:10781000044613DDFFF7B1FF226A616C02EBC1037E
:10782000294402EBC1020020012D58700CBF94F8CE
:107830002410002103F8081B9A42F5D1294620465E
:10784000BDE83840FFF778BFF8B5D0E90A530133F7
:10785000AB4204460E46174606D90435006BA90014
:10786000F8F73BFCA5622063D4E90B30C6F30E01A8
:107870005A1CE26200EB830541EAC73220F823205C
:107880004FF6FF73E06D6B8032460021FFF7B1FECB
:10789000E06D0022BDE8F8400321FFF777BE10B489
:1078A000019C41EAC303A40104F4F86443EA020121
:1078B00021435DF8044BFFF730BD41EAC20242EAC2
:1078C000831141F4C051FFF728BDD0E90B2302F129
:1078D0008042013A03EB820210B50446D0786FF380
:1078E000C710D070043A93420BD892F903000028D5
:1078F000F8DA1288E06DC2F30E020021FFF779FE7C
:1079000007E069B90B460A46E06D44F24001FFF713
:107910006AFDE06D0022BDE810400321FFF736BE8E
:1079200010BD10B504460121FFF7CFFFE06D012225
:107930000021FFF741FE002220461146BDE810401D
:10794000FFF72CBF0C2903D1084A0021FFF73BBFEA
:1079500000220E2980F8542001D15421F6E7B1F11C
:107960000D0218BF01220121F0E700BF00FC05084D
:1079700010B4D0E91640248BE407134604D55DF813
:10798000044B0622FFF754BE5DF8044BFFF714BE0C
:1079900070B50446D0E91660368BF6070D460AD559
:1079A0009200FFF7D3FDE06D2A4629460623BDE885
:1079B0007040FFF782BFBDE87040FFF713BE037C45
:1079C00070B50446154623B9826D938BD28B134450
:1079D0001D44E368B4F84020042B08BF236D204603
:1079E00008BF43F825100021FFF7C2FF0022E06D19
:1079F00011460323FFF71CFE0022E06D2B461146C3
:107A0000BDE87040FFF714BEF8B5476C046A07F193
:107A10000053023B04EBC3040546D4E9020184E8A9
:107A20000300667856B9B5F842203A44013A314627
:107A30002846FFF79DFF01236370666028464FF0DC
:107A4000FF31BDE8F840FFF777BE13B5D0E9163037
:107A50001B8BDB0707D5009106234FF4C041FFF7CE
:107A60001EFF02B010BD02B0BDE81040FFF78EBD92
:107A70002DE9F041476C002405460E46BF1AA0468A
:107A80006B6CA34201DCBDE8F081BC4211D02B6AD3
:107A900003EBC4035A78012A0BD15A68B24208D1C9
:107AA00083F80180B5F84210324621442846FFF79A
:107AB000CCFF0134E4E7826D138B70B543F02003F3
:107AC0000446002513830E4680F854502A46294662
:107AD000FFF7CEFFB4F84A200132A4F84A2031461D
:107AE0002046FFF76CFF2A4629462046BDE8704035
:107AF000FFF754BE70B5002504460E4680F854507A
:107B00002A462946FFF7B4FFF200E06D294642F00D
:107B10000202FFF71BFD2A4629462046BDE87040B9
:107B2000FFF73CBEF8B583699E5C602E044615469F
:107B300006D1076814480A46144907F00FFC38605C
:107B40000023022D84F854300DD8A36DDA8C52B97D
:107B50001B8BDB0707D40E4B5A5D31462046BDE830
:107B6000F840FFF71BBE002211462046FFF780FFBA
:107B7000B4F84220E36BED431A442A440021204626
:107B8000FFF7F6FE0022E8E7A4EE050848D905084D
:107B900024DB050870B50024054626466B6CA3421D
:107BA00000DC70BD2B6A03EBC4035A78012A07D1AD
:107BB0005E70B5F842105A6821442846FFF745FF29
:107BC0000134EBE737B504460D4601920093FFF709
:107BD000E1FFDDE90012E06DFFF7B8FCE06D032284
:107BE000294603B0BDE83040FFF793BD13B5044606
:107BF0000191FFF7CFFF0199E06D032202B0BDE8CC
:107C00001040FFF786BD38B50025044680F8545073
:107C10000821FFF7EBFF2A4629462046BDE83840F9
:107C2000FFF7BCBD37B504460D4601920093FFF740
:107C3000B1FFDDE90012E06DFFF788FCE06D032283
:107C4000294603B0BDE83040FFF763BD10B4002300
:107C500002F1290480F854300A46E1B25DF8044B81
:107C6000FFF7E0BF002370B504460E4680F854309D
:107C7000154662B1037C53B1084604F023FF021E8F
:107C800005DD20467021BDE87040FFF79CBD06353C
:107C90003246E9B220460023FFF7C4FF0022204607
:107CA0001146BDE87040FFF779BDF8B516460446A9
:107CB0000F46FFF76FFF31462046FFF75EFD0025B8
:107CC000636C2A46B5420CD1B4F8422039462046AE
:107CD0001A44FFF75DFE29462046BDE8F840FFF74D
:107CE0002BBD5819216A013521F83020EAE773B518
:107CF00004461E460D460192FFF74CFF019AE06DC7
:107D00000021FFF723FCE06D32460121FFF71EFC46
:107D1000E06D0322294602B0BDE87040FFF7F9BCD0
:107D2000037C33B1436CC9431944036A13F831002F
:107D3000704718467047000070B50E46154643B9A7
:107D4000037C33B15268C06DFFF700FC2C782046ED
:107D500070BD2C782CB96A68C06D3146FFF7F6FB10
:107D6000F5E7012C07D16B680133C06D072231465E
:107D7000FFF75EFC0AE0A31E012B09D86A68C06DFC
:107D8000520042F001023146FFF7E0FB0024DEE73B
:107D9000542C01D10023E8E7014804F0F1FC00BFB6
:107DA0005DD90508F8B5002504462E46636CAB4244
:107DB00005DC00252F46636CAB4210DCF8BD236A5E
:107DC00003EBC5035A78012A07D15E70B4F842105C
:107DD0005A6829442046FFF738FE0135E6E7266A4F
:107DE00006EBC5025378022B0ED1002357701946BB
:107DF0002046FFF7A1FF06F83500B4F84210002234
:107E000029442046FFF721FE0135D4E713B50023AE
:107E1000044680F854300191FFF7C4FF0199E06DEA
:107E200002B0BDE81040FFF720BC38B50D4604464F
:107E300011467AB100221146C06DFFF787FBE06D55
:107E400000220121FFF7A2FB29462046BDE8384069
:107E5000FFF7DCBFFFF739FDF6E72DE9F0410446F7
:107E60000E46A2B3D0E90B5C05F18045013D0CEB59
:107E70008505002328461746984690F901100029E9
:107E80000FDA90F9031000290BDAB8F1000F08BFE0
:107E900080462BB1B0F800E059886EF30E0159808E
:107EA0000346013FA0F10400E7D16FF003014A430C
:107EB000E06DA918CBB98C4510D91A4644F240019F
:107EC000FFF791FAE06D00220321FFF75FFB26F434
:107ED00000412046BDE8F041FFF798BFAA5A194675
:107EE000C2F30E02FFF785FBECE75A8847F6FE71F6
:107EF00061F30E025A80394626F40042FFF779FBFF
:107F0000E06D3A460421FFF741FBE06D3A46394601
:107F1000FFF71CFBE06D3A460121FFF737FBB8F88D
:107F20000060C6F30E06D2E773B504460D4616464A
:107F300019462A460193FFF79BFD636C206A01995D
:107F40005B1B00EBC30210F8333033705378012B06
:107F50000DD0022B14D0C3B9B4F84220636C1A447C
:107F6000521B204602B0BDE87040FFF701BD5268C9
:107F70008A420AD0E06D02B0BDE87040FFF738BA1F
:107F800000232046FFF7D8FE307002B070BD10B558
:107F900013460022044680F854200A460121FFF7C8
:107FA000C3FF20464FF0FF31BDE81040FFF7C4BBD0
:107FB00070B5049E04461D46FFF7E9FF3246294688
:107FC0002046BDE87040FFF7E2BF7FB501250DF107
:107FD0000F030DF10E01009500220446FFF7E8FFA4
:107FE0009DF80F609DF80E1020460022FFF7D6FB8B
:107FF0002A4631462046FFF7D1FB04B070BDF0B5EC
:1080000085B001250DF10F030DF10E010095002241
:108010000446FFF7CDFF9DF80F709DF80E602A46CD
:1080200039462046FFF7BAFB314620460022FFF7CB
:10803000B5FB2A4639462046FFF7B0FB0022314601
:108040002046FFF7ABFB05B0F0BD30B587B00D465D
:108050001A434FF00001044680F85410039224D1D3
:10806000FFF798FD039AE06D0121FFF76FFA039A7D
:10807000E06D0221FFF76AFAB4F84E20B4F84C30F4
:1080800029690133501CA4F84E001A442046FFF71A
:1080900096FCE06D03221A21FFF73BFB00221146FC
:1080A0002046FFF77BFB07B030BD0123009302227F
:1080B0000DF116030DF11701FFF77AFF2046FFF7C8
:1080C00069FDD9E72DE9F041DDE9068604461D4644
:1080D000089FFFF75CFF424629462046FFF757FFFF
:1080E0003A4631462046BDE8F041FFF750BF2DE942
:1080F000F04186B002260DF11703012501930DF121
:1081000015010DF116030296009500220446FFF7B3
:10811000D9FF9DF817809DF816709DF81510204620
:108120000022FFF73BFB324641462046FFF736FB75
:108130002A4639462046FFF731FB06B0BDE8F081FC
:1081400030B587B00DF117030025019302230446D3
:10815000009301220DF116030DF115010295FFF7B1
:10816000B1FF20461921FFF741FD2A462946204646
:10817000FFF714FB07B030BDF7B5C46A05460E46DD
:10818000D4B1036B04F18044013C03EB840292F907
:108190000120002A21DA33F82430C3F30E038B4286
:1081A0001BD100220DF10701FFF7F1FEE86D00225F
:1081B0000121FFF7EBF901240027284685F85470C8
:1081C000FFF7F0FDE86D3146FFF789F81CB139463D
:1081D0002846FFF77AFB03B0F0BD0024ECE770B54A
:1081E00000260446012280F854603146C06DFFF736
:1081F000E3F922212046FFF7F9FCD4E90B35013BD6
:1082000005EB8305E3626B8847F6FF72C3F30E0349
:10821000934228D00422E06D3146FFF7CDF9E06D9E
:108220004FF42051FFF779F86368E06D1A68314622
:10823000FFF73FFA698847F6FE73C1F30E029A42D0
:108240000BD1E06D4FF48E41FFF767F8636820466D
:108250001968BDE87040FFF78FBFC1F30E012046DB
:10826000FFF7D4FDF2E770BD2DE9F04304468168C5
:1082700085B0FFF781FFA36DDA8C198B12B901F07D
:10828000110373B311F0010117D1B4F84020204657
:108290000132FFF76DFBA36DDD8C55B9E06D4FF436
:1082A0002051FFF73AF8A268E06D01322946FFF746
:1082B00000FA05212046FFF799FC21212046FFF70F
:1082C00095FCA36D1A8BD20706D4DB8C23B9A16869
:1082D00020460131FFF750FFE06D05220021FFF736
:1082E0006BF9E06DFFF760F8237C002B5BD1E36D49
:1082F000E56B5B686363A36D013D9E8B1F8BB3F8D9
:108300001E90B3F82080EA0006F0030302F0780222
:1083100007F00F071A432D09B60845EA0703334350
:1083200043EA090353EA0803E06D74D10121FEF723
:10833000E5FF0421B4F8483003F001025B0842EA8B
:108340004102A4F848300BB142F08002E06D0121F7
:10835000FEF7D4FFB4F84850002D7CD1A36DE06D3A
:10836000DA8A0121FEF7CAFFA36DE06DDA8A0121E6
:10837000120AFEF7C3FFA36DE06D9A8A0121FEF792
:10838000BDFFA36DE06D9A8A0121120AFEF7B6FFC8
:10839000E36D5E68D4E91620538DAB425DDC436823
:1083A0009B1BA4F84830E06DFEF7B6FFE368B4F815
:1083B0004A00A4F84C00032B12D1B4F84E3001301F
:1083C0001844237C002B55D1A36D9D8BDB8B1D4462
:1083D00028448000F7F766FE274B206540F82530DB
:1083E000E368042B14D1257CA16DE36D0869002D91
:1083F0004FF00005D3E9023203950D8B0295898B6E
:108400000191216D009114BF0421032102F01CFD94
:1084100005B0BDE8F08342F080020121FEF76EFF57
:10842000BA012B0103F0300302F040021A4308F0B6
:1084300001031A434FEAC90303F008031A43B300C8
:1084400003F004031A43AD087F0876084FEA590980
:108450004FEA580861E700216CE7D26A02EBC503D6
:1084600012F83520042A03D15A880121FEF746FF6D
:1084700001358FE70025ACE7FCDE0508F8B5436859
:108480001E68836D86601D8BDB8C05F01102134323
:10849000044600F0E88015F0010506F1020715D149
:1084A000B0F840202946FFF763FA2A46E06D012321
:1084B0002946FFF7BDF805212046FFF797FBB4F8E2
:1084C00040102A4601312046FFF7BFFAD4E91630A2
:1084D000DA8C002A59D1198B11F0010508D14FF41B
:1084E0002051FEF71AFFE06D3A462946FFF7E1F802
:1084F00000221146E06DFFF775F820212046FFF7B6
:1085000075FB4FF42051E06DFEF707FF3A4600215E
:10851000E06DFFF7CEF8A36D198B11F0010100F0AB
:1085200089800122E06D0021FFF746F8E06D46F2F8
:108530007011FEF7F2FEE06D02220021FFF706F84F
:10854000E06DFEF731FF39462046FFF715FEA36DBB
:108550001B8BDB0740F18780B4F8402020460132B6
:108560000021FFF705FAE06D4FF48E41FEF7D5FECE
:10857000E06D4368A36300210122FFF71DF8204648
:108580002221BDE8F840FFF731BB00231A4644F230
:108590004001FEF728FFE06D00220421FEF7F6FF00
:1085A000751C3A46E06D0421FFF723F82946204662
:1085B000FFF7E2FDE06D04220521FEF7FDFF00223A
:1085C0001146E06DFFF70EF820212046FFF70EFB65
:1085D0000522E06D0421FEF7D9FF0336E06D4FF46C
:1085E0002051FEF79AFEE06D32460121FFF761F857
:1085F00000231A46E06D44F24001FEF7F4FE00222B
:10860000E06D0321FEF7C2FFE06D44F22071FEF73A
:1086100084FE31462046FFF7AFFD0322E06D0421C2
:10862000FEF7CAFF4FF43051E06DFEF776FE2A46A2
:1086300001216DE7B4F8402020460132FFF798F998
:1086400005212046FFF7D2FAA36D198B11F0010125
:108650007FF467AFE06D0122FEF7AEFF22212046D6
:10866000FFF7C4FA6FE7F8BD538B2DE9F3410446D9
:10867000C160D81E43424341237400230F46636404
:10868000518CA4F84A30A4F84E3084F85430636911
:10869000A2658B42154605D2A069F7F71EFD6B8CCB
:1086A000A0616361A26D918BD38B2A8B0B44510720
:1086B00048BF013392074FF0000248BF0133114613
:1086C000934241D1227C002A52D1602162699A42B0
:1086D00050D8E269002360219A424FD1042FE06D07
:1086E0000CBF02210121FEF7D8FDA26D0023A4F8E2
:1086F0004030D38C1BB9118B01F0110111B1122143
:10870000A4F840106E8CA98C94F81080E06D314470
:10871000E163B8F1000F00F0EB80002B33D1128B36
:10872000D70707D4032E3346AE8BA8BF0323032EEF
:1087300000D9013B12F0110F26D12E8BB4F8402046
:10874000B60648BF013222E0A06981540132B7E782
:10875000C86A00EBC20001324178CE0741BF4688AB
:10876000A06909098155A16D488D9042F0DCACE704
:108770000022F8E7A269D1540133A7E7206A20F864
:1087800033100133A8E70023B4F840200232A4F8E4
:108790004220B4F842201144C91AFEF7D7FDE06D1B
:1087A000032300220621FEF743FF00230622E06D8B
:1087B0000721FEF73DFFA36DDA8C1AB91B8B03F07E
:1087C00030032BB1B4F84010E06D0022FEF7DEFE5E
:1087D000E06DB94E01220021FEF70AFEE06D022293
:1087E0000121FEF705FE0322E06D0621FEF700FEE3
:1087F000E06D4FF42451FEF790FD6368E06D1A6858
:1088000001210432FEF755FFAA8BE06D0221FEF72D
:108810009DFEE06D022300224FF48541FEF7E3FD4B
:108820006368E06D1A6800210532FEF742FF636855
:10883000E06D19680431FEF752FDAB8BE06D5A0014
:1088400042EA43420221FEF781FEE06D03222C2121
:10885000FEF75FFF6368E06D19680531FEF73FFDC5
:108860000025A36D9A8BAA4215DC032A0DD9DA8C58
:108870005AB91B8BDB0708D4B4F84220E36BE06DD8
:108880001A44033A0621FEF797FE204602B0BDE8DF
:10889000F041FFF7F3BD2B460622E06D0021FEF705
:1088A000C7FEA3695A5D22B1012303212046FFF7C9
:1088B00089F9022D11DCA36DDA8C72B91A8BD207FB
:1088C0000BD4022D02D19B8B032B06D1715DE06D81
:1088D0000022FEF78DFD0135C3E7B4F84210E36BCB
:1088E000194401390022491B2046FFF7AEF8F2E790
:1088F000168B16F0010647D04FF4A0232364626B59
:108900000421FEF7FBFCA26BE06D0421FEF7F6FCF0
:10891000E06D1221FEF71AFDE06D42460621FEF7DA
:1089200067FD01221146E06DFEF730FEB4F84030DD
:10893000E06D06224146FEF77BFEE06D03234246D2
:108940004146FEF775FEA26DE06D918BD38B4246DA
:108950000B440721FEF76CFE2046FFF78FFDA36D49
:10896000DA8C002A68D0002319466E8D9E427BD88F
:10897000042F06D1A88BEB8B00221844904240F0C4
:10898000988002B0BDE8F081B4F8403005339BB266
:108990001944A4F84230FEF7D9FC3246E06D0323B7
:1089A0000621FEF745FEA26DE06D918BD38B06226A
:1089B0000B440721FEF73CFE3246B4F84010E06D50
:1089C000FEF7E4FDE368B4F84060032B06F101060E
:1089D000636B05D1B3F5004FACBF00220122627476
:1089E000617CE06D09B300224FF24021FEF712FDD9
:1089F000002231462046FFF728F8E26BE06D0021A7
:108A0000FEF7A4FDB4F84010204600220331FFF722
:108A10001CF8B4F84020E06D0021FEF7E3FDE06DA6
:108A200004222D21FEF775FE96E71A460191FEF706
:108A300079FD01990A46DCE71E8B16F0010692D1FA
:108A4000DFF874806B8CB3428DDDB4F84220E36BA9
:108A500018F8011BE06D1A44013A921B0136FEF72B
:108A6000ABFD032EEED17EE7EA6A02EBC30012F8FB
:108A70003320042A04BF4288A06903F1010308BF20
:108A8000815472E7EB6A03EBC1035F78FF070BD5F4
:108A90005F88974208D15B68216DDB0043F00203D9
:108AA00041F82230013269E701318E42EADC0523C8
:108AB000F2E70021F9E700BF24DB05087FB5044693
:108AC0000E46154682B90DF10F01FFF760FA3246E6
:108AD000092120460123FFF7A5F82A46294620460A
:108AE000FEF75CFE04B070BD012A0FD10223009393
:108AF00000220DF10F030DF10E01FFF759FA0123CA
:108B000032460E212046FFF78DF8EBE70DF10F01FD
:108B10000022FFF73CFA0223E06D1A4644F24001BE
:108B2000FEF761FCEBE773B504460E4615466AB9DD
:108B300001220DF10701FFF72AFA0C350023324616
:108B4000E9B22046FFF76EF802B070BD0021FFF7D2
:108B5000E7F88DF8070020B901220DF10701204642
:108B6000E9E70DF1070120460022FFF710FA9DF812
:108B70000720204601230421FFF724F8E06D00229E
:108B80000121FEF735FCD8E773B50D4616460DF109
:108B9000070100220446FFF7FAF9721C2A44204616
:108BA0000221FFF782F8012345EA06222821204608
:108BB000FFF708F802B070BD37B504460D46002235
:108BC0000DF10701FFF7E3F92A4620460221FFF7DE
:108BD0006CF801232A4627212046FEF7F3FF03B055
:108BE00030BD37B50D4600220DF107010446FFF7F1
:108BF000CEF955B1012120460422FFF756F81E2177
:108C00002046FEF7F3FF03B030BD2A46E06D012198
:108C1000FEF79CFC20461E21FEF7E8FF2A46294667
:108C20002046FEF7BBFDEEE737B500220DF1070148
:108C30000446FFF7ACF99DF807302BB1054906480B
:108C4000256806F08BFB286022212046FEF7CEFF28
:108C500003B030BD62D90508A4EE050873B5012242
:108C60000D460DF107010446FFF791F99DF80760E5
:108C700066B92A46112120463346FEF7A3FF324645
:108C800031462046FEF78AFD02B070BD2046012124
:108C9000FEF752FD044B05495A5D0548246806F06D
:108CA0005DFB2060F0E700BF280606086CD90508C8
:108CB000A4EE05082DE9F3410E46002117460446AF
:108CC0001D46FFF72DF802468DF8070048BB0DF151
:108CD00007012046FFF75BF91DB901212046FEF789
:108CE0002BFD10212046FEF781FF1DB99DF80730AE
:108CF00084F824302046FFF755F8E06D4FF42051FA
:108D00008EB3FEF70AFB3A460121E06DFEF7D1FC77
:108D100025B94FF0FF312046FEF70EFD02B0BDE849
:108D2000F08100220DF107012046FFF730F91DB94F
:108D300001212046FEF700FD9DF807305A1E022A49
:108D4000D3D9072B98BF0A4A0A4998BF32F8132093
:108D50000948D4F8008088BF4FF4257206F0FEFA67
:108D6000C8F80000C1E7FEF7D8FA3A463146CCE72A
:108D700024DA050879D90508A4EE05080023FFF7D1
:108D800099BF0123FFF796BF022A7FB504460E461E
:108D9000154614D8836DDA8C8AB91B8BDB070ED489
:108DA0001D4B0DF10F015A5DFFF7F1F8A1699DF818
:108DB0000F204B5D602B13D14A5504B070BD0DF1EF
:108DC0000F0120460022FFF7E2F8E16BB4F84230D1
:108DD0000B44E943002219442046FEF736FEE5E73E
:108DE0009342EAD0072B98BF0C49246898BF31F80A
:108DF00013300B4888BF4FF42573072A96BF0749E5
:108E00004FF4257231F8122000920649324606F0DE
:108E1000A5FA2060D1E700BF24DB050824DA0508A5
:108E2000A4EE050886D9050837B504460D465BB99A
:108E30000E210192FEF786FD019A2946204603B0D5
:108E4000BDE83040FFF7A0BF03B030BD2DE9F041D1
:108E5000002580F85450456CD0F820C0DDF818800B
:108E6000013D0CEBC50604467778012F14D1D6F8E6
:108E700004E09E4510D0C6450ED01CF835300B706E
:108E8000716811603A46FEF7F3FD20464FF0FF315E
:108E9000BDE8F041FEF750BC136820460A460121A8
:108EA000FFF742F8F1E710B586B0002305934FF0C5
:108EB000FF33009305AA0DF113010446FFF7C6FF27
:108EC0009DF81310059A2046CDE90212FEF766FCC4
:108ED000DDE902122046FEF761FC06B010BD00007D
:108EE000F0B50D4685B001210446FEF719FF0021BB
:108EF00006468DF80A002046FEF712FFB31E012B2E
:108F00008DF80B0000F2D180861E012E00F2F78052
:108F1000A5F109030C2B9CBF0D35EDB21F2D01D01F
:108F2000212D23D10023009301220DF10A030DF11D
:108F30000B012046FFF73CF89DF80A30022B07D0C2
:108F40007E4B7F495A5D7F48266806F007FA3060FD
:108F50001F2D0CBF2E212F212046FEF747FE002299
:108F600002212046FEF71AFC05B0F0BD01260223BF
:108F7000039303AA00230DF10B0120460096FFF78F
:108F800065FF32460DF10A012046FFF700F8A5F112
:108F90001903B34217D8192DE06D039B08D132464F
:108FA0004FF48141FEF71FFA9DF80A100122D8E71D
:108FB0009DF80A20032A08BF44F2C001324618BFB8
:108FC0004FF48241EEE7162D05D1039B32464FF454
:108FD0008641E06DE6E7172D04D1039B324644F24B
:108FE0004001F6E7182D04D1039B32464FF480412F
:108FF000EFE71B2D06D1039BE06D32463146FEF7AD
:109000005CFCD1E71C2D08D10399E06D41F60923E2
:1090100043EA8111FEF781F9C6E71D2D04D1039BB8
:10902000324644F24031D4E7052D31D89DF80A206C
:109030009DF80B309A4205D043494248266806F015
:109040008DF930609DF80A300022032B114620462E
:109050000CBF00260626FEF70BFD0122039BE06DE8
:109060004FF48541FEF7BFF93544384BE06D33F8D6
:109070001510FEF752F9E06D42F20101FEF74DF9CD
:109080004FF40051E06DFEF748F90022012168E736
:1090900020460121FEF750FB284B2D495A5D2948F7
:1090A000246806F05BF920605EE7064327D10127BC
:1090B00000970DF10A0302220DF10B012046FEF785
:1090C00077FF322D17D0332D17D1072500232A46DD
:1090D00012212046FEF776FD57B1E06D00220121F6
:1090E000FEF786F90023032211212046FEF76AFDD0
:1090F0000022114635E70625E8E73746E6E74FF058
:10910000FF312046FEF718FB9DF80A300D48246811
:10911000072B9CBF0F4A32F813209DF80B3088BFF5
:109120004FF42572072B96BF0A494FF4257331F887
:109130001330094906F012F9B5E700BFF604060836
:1091400096D90508A4EE0508A6D905080CDB050884
:10915000B9D9050824DA0508C7D9050870B5044649
:1091600086B00D4616461BB9FFF70EFE06B070BD61
:1091700000221146FEF77CFC204600220121FEF76A
:1091800077FC324629462046FEF7CCFC00230493A8
:109190004FF0FF33009304AA0DF10F012046FFF7B3
:1091A00055FE01230593049B00930DF10F0120460A
:1091B00005AAFFF74BFEDDE9043141EAC30141F4A2
:1091C000C041E06D41F04001FEF7A7F8CEE77FB562
:1091D00004460D4616461BB9FEF7A4FC04B070BD4C
:1091E00000221146FEF744FC324629462046FEF78F
:1091F00099FC4FF0FF330025009303AA0DF10B01FA
:1092000020460395FFF722FE039AE06D29460123CD
:10921000FEF70EFA2A4629462046FEF7BFFADDE79A
:1092200003297FB50446164612D101220DF10F0124
:10923000FEF7ADFE182500230DF10F023146204642
:10924000FEF772FE29462046FEF7D0FC04B070BD42
:10925000052906D101220DF10F01FEF798FE172511
:10926000E9E70223009301220DF10F030DF10E0136
:10927000FEF79EFE1925DEE7F0B5044685B00E46E2
:109280001546C2B90223077C02740DF10E0100934A
:1092900001220DF10F03FEF78BFE324627742B4699
:1092A00023212046FEF7BEFC2A4611462046FEF743
:1092B00075FA05B0F0BD012A10D1002780F854706E
:1092C0003B460DF10F022946FEF72EFE32462B4695
:1092D00024212046FEF7A6FC3A46E6E70DF10F01F1
:1092E0000022FEF754FE25212046FEF77FFCE0E732
:1092F0002DE9F84F04460F469146FEF74BFC00253A
:10930000A8464D4510D10026B3464E452BD171429B
:109310002046FEF711FAB4F84220636C39461A442D
:10932000BDE8F84FFEF734BB666CD4F820A0013ED0
:10933000761B0AEBC6025378022B12D182F8018009
:10934000012339462046FEF7F7FC0AF83600B4F848
:109350004210636C194401393A46491B2046FEF716
:1093600074FB0135CDE7636CD4F820A003F1FF381E
:10937000A8EB06081AF83820BAB1B4F842501D44D8
:10938000013DAD1B2A4600212046FEF7F1FA1AF8EE
:109390003820012304212046FEF714FC0022294630
:1093A0002046FEF752FB0AF838B00136ADE7000060
:1093B000037C37B504460D4613B1544803F0E0F979
:1093C000826D138B43F001031383FEF7EBFC012D39
:1093D0000BD16368196820460231FEF717FD6368F8
:1093E000196820460131FEF7C7FE01220021204600
:1093F000FFF77EFF002202212046FEF726FBE06DEC
:1094000001220021FEF7A2F8E06D00220521FEF7FF
:10941000BDF86368E06D1A680021FEF7EAF8B4F859
:109420004010002201312046FEF70FFBA168E06DDD
:10943000FEF71BF96368E06D1968FDF750FFE36AFA
:10944000BBB1226B03F18043013B02EB83039A42E1
:109450000FD893F9031000291BDA1A88E06DC2F3C4
:109460000E020021FEF7C5F8E06D00220321FEF791
:109470008DF801212046FEF7C9F965B9E06D29464E
:109480000122FEF799F822212046FEF7AFFB03B038
:1094900030BD043BDBE76368196820460231FEF704
:1094A0006BFE0DF1070120460122FEF770FD00233F
:1094B0000DF1070220460121FEF736FDE06D012285
:1094C0000221FEF779F8204602220021FEF766F914
:1094D000012220460221FFF70BFF20463021FEF734
:1094E00085FBE06D4FF42051FDF717FF6368E06DD9
:1094F0001A6801210132FEF7DCF820460121FEF74F
:1095000085F92046FEF780FAC1E700BFE1D90508DA
:10951000F8B5174604460D46520093B10B1D1A4488
:109520000221FFF7E5FE45EA072301221D2120461F
:10953000FEF7DDFB002220461146BDE8F840FEF7AD
:109540002DB980F854308B1C1A440221FFF7D0FE4D
:109550003B462A461C21EAE72DE9F7431646002739
:1095600001EB42020D4680F85470114604469846BD
:10957000FEF7D6FB70288DF8060033D1626C236AA3
:1095800003EBC2033946204613F80C6CFEF7C8FB08
:10959000072805460DD888B12046FEF735FA636CDA
:1095A000226A03F10053013B02F8336003B0BDE8C7
:1095B000F0835428F0D01F4803F0E2F802460DF182
:1095C00007012046FEF7E3FC2046FEF7C2F83246CC
:1095D00003210123FEF7F6FA2A4631462046FEF71C
:1095E000DDF8E3E745EA0629B8F1000F0DD00332B4
:1095F00002212046FFF77CFE4B463A461D212046BD
:10960000FEF775FB00221146E8E756EA050303D092
:1096100002212046FFF76CFE0DF1060120460022D4
:10962000FEF7B5FC01234A461B212046FEF7CAFA85
:10963000E8E700BFEED9050870B50E46002180F8B6
:10964000541004990B430446154620D10221FFF71C
:109650004FFE2A46E06D0121FDF778FFB4F84E2059
:10966000B4F84C3031690133501CA4F84E001A4450
:109670002046FEF7A4F9E06D03222B21FEF749F8FE
:10968000002220461146BDE87040FEF787B802323E
:109690000221FFF72DFE45F48072DBE770B5042A46
:1096A00086B004460E4615462AD102294FF0000521
:1096B00018D10DF1160301220DF117010095FEF7E7
:1096C00077FCE06D2B4607223146FDF7B1FF2621DE
:1096D0002046FEF78BFA002211462046FEF75EF880
:1096E00006B070BD0DF1150301930123009302959F
:1096F0000DF1160302220DF11701FEF7E3FCE6E778
:109700000023012A80F8543001D9032A04D13246BB
:1097100001212046FFF7ECFD133500233246E9B264
:109720002046FEF74FFAD6E770B50025044604221E
:109730000E4680F854502946FFF7DAFD20460421F2
:10974000FDF7FAFF1F21FEF751FAE06D4FF42051AB
:10975000FDF7E3FDE06D32462946FDF7AAFF2A46F4
:1097600029462046BDE87040FEF718B870B50025C0
:1097700004460E4680F854502946FEF7A6F82046C7
:109780004FF0FF31FDF7D8FF636819680231FEF72B
:10979000F3FC2A4620465421FEF715F82A462046B7
:1097A0005421FEF710F82A4620465421FEF70BF804
:1097B000204605220221FFF79BFD03222B4620466F
:1097C0001C21FEF794FA636820461968FEF71EFB19
:1097D000E06D3146FDF783FD20460121FEF775F867
:1097E00020460221FEF712F8E06D01222946FDF71E
:1097F000E3FEE06D4FF42051FDF78FFD6368E06DEF
:109800001A6829460232FDF754FF2B46E06D2A46BE
:109810000121FDF70DFF294620460122FDF7BEFF7D
:109820002A4629462046FDF7B9FF2A4620465421FC
:10983000FDF7C9FF204605220221FFF759FD2B46FF
:10984000032220461C21FEF752FA20461021FEF783
:10985000CDF9E06D4FF42051FDF75FFD6368E06DD9
:109860001A6829460132FDF724FF6368204619680B
:10987000FEF782FCE06D2A462946FDF767FEE06DA3
:109880002A460121FDF782FE6368196820460131EE
:10989000BDE87040FEF770BC73B504460E46154631
:1098A000002A56D1134601210DF10702FEF73CFBB9
:1098B000022211462046FEF7F8F901230D220A2163
:1098C0002046FEF7AFF902220DF107012046FEF710
:1098D0005EFB01220DF107012046FEF758FB2A46E8
:1098E0000DF107012046FEF752FB9DF807100122FB
:1098F0002046FDF753FF9DF8071002222046FDF792
:109900004DFF022211462046FEF7CFF901230C221B
:109910000A212046FEF786F9022211462046FFF76B
:10992000E7FC2B462A461C212046FEF7E0F92A4692
:1099300029462046FDF732FF2046FEF733FA20463F
:1099400001223146FDF780FF2046FFF7ACFA02B056
:1099500070BD002380F85430FEF724FAAB1E5A4243
:109960005A4131462046FDF76FFFF0E737B5044610
:109970000D4682B103220121FFF7BAFC0222012128
:109980002046FEF792F900232A460B212046FEF7D7
:1099900049F903B030BD0DF10701FEF7F8FA0222D4
:1099A00011462046FEF781F901232A460A21EDE7F8
:1099B0007FB5836D1D8B15F00102044613D0012283
:1099C0000021FFF795FC002202212046FEF73DF81A
:1099D0000022E06D1146FDF7B9FDE06D0022052182
:1099E000FDF7D4FD1FE0037C002B53D011460192FC
:1099F000FEF796F95428019AC5F3871528D1204619
:109A0000FDF7A7FE019AC5B9E06D2B46072229464E
:109A1000FDF70EFEA36DDA8C002ADED11B8B03F05E
:109A20001103002BD9D1E26AA1682046FEF715FA8E
:109A3000012384F8543004B070BDE06D1146FDF789
:109A400085FD01232A4604212046FEF7BBF8E1E705
:109A50000DF10F012046FEF79AFA9DF80F30AB4248
:109A600015D0072D98BF0E4A0E4898BF32F8152022
:109A7000266888BF4FF42572072B96BF08494FF41C
:109A8000257331F81330084905F068FC3060002D6B
:109A9000C0D0D6E71A460DF10F01FEF778FAB9E704
:109AA00024DA0508A4EE0508F6D905082DE9F041E9
:109AB00088B004460D460DF11C08002940F02081B5
:109AC0000121FEF72DF906468DF8170088BB0146E7
:109AD0002046FEF725F98DF81C00C0B90122414649
:109AE0002046FEF754FA00220DF117012046FEF73A
:109AF0004EFA04220F2102232046FEF763F80022CB
:109B000011462046FDF74AFE08B0BDE8F081324616
:109B100041462046FEF73BFA9DF81C2020460123D3
:109B20000421FEF74FF8E06D32460121FDF760FC9D
:109B3000D9E7636C226A013B02EBC30132F83320A0
:109B400040F202239A426DD1204601264F68FDF76C
:109B500000FE3346009642460DF117010795FFF7C8
:109B600075F99DF81730062B26D0072B3FD0052B13
:109B700040F0B680C7B17B1E1E2BE06D09D8079B55
:109B800000972A464FF4F041FDF789FE002202219A
:109B9000B7E73A463146FDF7D9FC079BE06D324600
:109BA0003146FDF78AFE07960799C90041F4F04156
:109BB000E06DFDF7B2FBE9E7A7B17B1E1E2BE06D60
:109BC00005D8079B00972A464FF40841DCE77A0046
:109BD0003146FDF7BBFC079BE06D32463146FDF791
:109BE0006CFE07960799C90041F40841E0E7A7B168
:109BF0007B1E1E2BE06D05D8079B00972A464FF46D
:109C0000D041C1E7BA003146FDF7A0FC079BE06DEB
:109C100032463146FDF751FE07960799C90041F4D7
:109C2000D041C5E70123079342462B4606A92046AB
:109C30000095FFF70BF92A460DF117012046FEF7B4
:109C4000A6F99DF818309A1E012A0ED9072B98BF45
:109C5000BD4ABE4998BF32F81320BD48256888BF69
:109C60004FF4257205F07AFB28609DF81730062B1B
:109C70000CD0072B19D0052B32D100221146079B9F
:109C8000E06DFDF71AFE4FF4F04191E70022114616
:109C9000079BE06DFDF711FE00221146079BE06D6A
:109CA000FDF70BFE4FF4084182E700221146079BA7
:109CB000E06DFDF702FE00221146079BE06DFDF707
:109CC000FCFD00221146079BE06DFDF7F6FD00222A
:109CD0001146079BE06DFDF7F0FD4FF4D04167E7BB
:109CE000072B98BF984A9B4998BF32F81320984891
:109CF000256888BF4FF4257205F030FB286045E7E2
:109D0000012940F06581FEF70BF806468DF8150035
:109D100048BB01462046FEF703F8022102468DF8B3
:109D200018002046FDF7FCFF52EA00038DF81C00E6
:109D300008D0314620460322FFF7DAFA03212046F5
:109D4000FDF7FAFC0223CDE901830023009306A965
:109D500020460DF115030122FEF7B4F90F2120462C
:109D6000FDF744FFD0E6636C226A013B02EBC301BE
:109D700032F8332040F202239A4240F0938020468A
:109D80004E68FDF7E6FC02230022CDE9062300938E
:109D900006AA2B460DF11501FFF758F8069B009512
:109DA00042460DF117012046FFF750F89DF8173095
:109DB0005A1E022A0ED9072B98BF634A664998BFDC
:109DC00032F813206248256888BF4FF4257205F0E9
:109DD000C5FA28609DF81530062B27D0072B43D0F5
:109DE000052B40F0E580BEB1731E1E2BE06D07D839
:109DF000DDE9063200964FF4E041FDF750FD83E6C1
:109E000032460121FDF7A2FB0122069BE06D1146BF
:109E1000FDF753FD01230693DDE9063141EAC30155
:109E200041F4E041E06DFDF778FA6DE6AEB1731EE6
:109E30001E2BE06D05D8DDE9063200964FF4004197
:109E4000DBE772000121FDF781FB0122069BE06D3B
:109E50001146FDF732FD01230693DDE9063141EAA3
:109E6000C30141F40041DDE7AEB1731E1E2BE06D6E
:109E700005D8DDE9063200964FF4C041BDE7B200D7
:109E80000121FDF763FB0122069BE06D1146FDF702
:109E900014FD01230693DDE9063141EAC30141F4D3
:109EA000C041BFE702230793009306AA00230DF1E8
:109EB000160120460695FEF7C9FF00220DF1150197
:109EC0002046FEF764F89DF816309A1E012A0ED936
:109ED000072B98BF1C4A214998BF32F813201C4811
:109EE000256888BF4FF4257205F038FA2860069B74
:109EF0000093424600230DF117012046FEF7A6FF0E
:109F00009DF817305A1E022A0ED9072B98BF0E4A09
:109F1000114998BF32F813200D48256888BF4FF4C7
:109F2000257205F01BFA28609DF81530062B17D016
:109F3000072B23D0052B3BD100221146069BE06D59
:109F4000FDF7BBFC07996BE724DA050807DA05087B
:109F5000A4EE0508FED9050811DA05081CDA050883
:109F600000221146069BE06DFDF7A7FC002211467A
:109F7000069BE06DFDF7A1FC079972E700221146F0
:109F8000069BE06DFDF799FC00221146069BE06DF3
:109F9000FDF793FC00221146069BE06DFDF78DFC5A
:109FA00000221146069BE06DFDF787FC079976E7D6
:109FB000072B98BF0D4A0E4998BF32F813200D4861
:109FC000246888BF4FF4257205F0C8F920609BE52E
:109FD0000025434606A900950122FDF7E9FF02236B
:109FE0002A460F212046FDF7EDFD8DE524DA050810
:109FF00016DA0508A4EE050873B5064660200D467E
:10A000000192F6F768F8C0E9006508250446C561C5
:10A010004020F6F747F8A56220622020F6F742F8C4
:10A0200020632020F6F757F80199E065FDF722F943
:10A03000204602B070BD10B504460021C06DFDF78A
:10A0400021F9E06DF6F756F8206BF6F753F8A069A2
:10A05000F6F750F8206AF6F74DF82046BDE81040B4
:10A06000F6F748B838B50546B2B1940714D110795F
:10A070002E2811D192687AB190070DD15468E0B2C0
:10A08000922809D1240A022C06D191681960049BF8
:10A09000D2681A60012038BD0A460448044905F018
:10A0A0005DF96B6A18600020F5E700BF78ED0508E0
:10A0B00027DB0508038C032B70B5C46A03D1856ABE
:10A0C00000239D4205D144F82120FDF708F9012025
:10A0D00070BD54F82360964201D00133F1E70020AF
:10A0E000F6E710B50446FDF75FF92046BDE81040DD
:10A0F000FDF712B938B58BB2032B04460D46038425
:10A10000426205D1826AC06A9200002116F0BEF850
:10A11000042D20460CBF02210121FDF7BEF8204688
:10A120000021BDE83840FDF711B9000002F00F032F
:10A13000022B10B5044608D00A460D490D4805F01B
:10A140000DF9636A186000200FE0816A120900238C
:10A15000994204D1238C042BF5D10749EEE7E06A3C
:10A1600050F82300904201D1184610BD0133EFE7AB
:10A1700043DB050878ED050849DB050800F00F030F
:10A18000022B02D10009F6F7FBBD0148704700BF62
:10A19000338E060870B5054610460E46FFF7EEFFF3
:10A1A0000378732B19D14378BBB103460A220020F0
:10A1B00013F8014F5CB91F2808D90B490B481F231E
:10A1C000324605F0CBF86B6A1860002070BD303C59
:10A1D000092C02D802FB0040EAE705490348324651
:10A1E00005F0BCF8EFE700BF55DB050878ED050882
:10A1F00062DB0508F8B5044610460D461E46FFF71B
:10A20000BDFF174A0778002194465378BB421BD103
:10A2100090F801E093789E4516D190F802E0D3784B
:10A22000734511D16BB91CF82100B04208D90D4912
:10A230000D4833462A4605F091F8636A18600020FD
:10A24000F8BDC378002BEED00131152902F10402CC
:10A25000DBD1064904482A4605F080F8EDE700BF47
:10A26000ACDC050855DB050878ED05086BDB050857
:10A270002DE9F34706460F46002A3CD093073AD112
:10A2800013792F2B37D1926802F00F03022B08D1DC
:10A290000F23FFF7AFFF01248440204602B0BDE842
:10A2A000F08742B312F0030A25D113799F2B22D1F4
:10A2B000D5682B79A12B1ED192680F23FFF79AFF47
:10A2C0004FF0010808FA00F401AAA22105F10800E4
:10A2D000F9F72EF88146CA45DFDA019A0F2352F8C2
:10A2E0002A2039463046FFF785FF08FA00F31C4361
:10A2F0000AF1010AEFE7044904483A4605F02EF84E
:10A30000736A00241860C8E771DB050878ED05085A
:10A31000F0B585B005460E46104603A91F46F8F76E
:10A32000FFFD48B90B490C48324605F017F86B6A37
:10A330001860002005B0F0BD039803F04DF830EA36
:10A340000703F7D00346054900973246024805F057
:10A3500005F8ECE782DB050878ED050888DB0508E1
:10A360002DE9F0470F4688B0044605A938461E4639
:10A370009146F6F70AFD0378762B054640F02A81D0
:10A38000B9F1020F40F0D58040F2BF439F4232D175
:10A390004EF6B4684FF42C6906E04EF6B168F9E762
:10A3A0004EF6B1684FF42469326829462046FFF71B
:10A3B000F1FE7268074629462046FFF7EBFEFB02D6
:10A3C000420102F0200203F470431343B90143EA4F
:10A3D0000903C0F3430001F0400143EA000241EAEF
:10A3E00008012046FCF7A3FF26E24EF6B868D1E745
:10A3F0004EF6BD68CEE740F2CB439F42CDD040F24F
:10A40000CA439F42CCD0B7F5986FEED040F2C1431B
:10A410009F42EDD040F2C9439F421ED13068FFF702
:10A42000ADFEAE4915F078FFA8B132680F2329467A
:10A430002046FFF7DFFE07467068FFF79FFEA8493A
:10A4400015F06AFF002840F0BC803A0342F4216214
:10A450004EF6F161C5E70F27EEE7B7F5996F2ED1FC
:10A460003068FFF78BFE0378722B18D132680F2308
:10A4700029462046FFF7BEFE2946726880462046E0
:10A48000FFF788FE4EF610610746FA01D2B242EAA3
:10A490000832C7F3430742F421623943A1E7326827
:10A4A00029462046FFF776FE2946726807460F23A5
:10A4B0002046FFF79FFE4FF46E418046E5E740F2ED
:10A4C000C6439F422ED14EF6905832682946204608
:10A4D000FFF760FE07AB00930746726806AB29469C
:10A4E0002046FFF7BFFD002800F0A681069A07234B
:10A4F00029462046FFF77EFE079A06464FF47F73F3
:10A5000029462046FFF704FFFB02B90103F470431C
:10A5100001F0400143EA900041EA080140F4206262
:10A5200031435EE740F2CC439F424AD14EF6805819
:10A53000CBE7B9F1030F44D1DFF8BC81002700F16C
:10A54000010A03224146504615F0FEFEA0BB2B79BE
:10A5500093BB644B326813F8278029462046FFF7E7
:10A5600019FE7268074629462046FFF713FEB268B7
:10A57000814629462046FFF70DFEFB02420103F407
:10A58000704302F020021A4342EA50034FEAC91214
:10A59000D2B21343BF014FEA0812D2B207F040070C
:10A5A00008F0F00142F4206247EA590941F46E4193
:10A5B0001A4349EA010114E70137042F08F104089E
:10A5C000BFD14B46484949482A4604F0C7FE636A52
:10A5D000186031E1B9F1000F0FD1B7F57D7F05D1DA
:10A5E0004FF43F412046FCF798FE25E140F2CF436F
:10A5F0009F42E6D14BF63071F4E7B9F1010F40F01C
:10A60000FB8040F2FE22974212D10146326820467A
:10A61000FFF78CFD01462046FCF710FF002840F0B4
:10A620000B8133493148646A04F00EFE206003E177
:10A63000B7F5417F09D1014632682046FFF776FD24
:10A6400001462046FCF74EFFE8E7B7F5437F09D106
:10A65000014632680F232046FFF7CCFDC00040F4CE
:10A660008E41BFE7622B49D1059B032B0CD0052BF4
:10A6700040F09080C3785F2B40F08C8003796E2B84
:10A6800002D0772B40F0868069781A4B00224FF079
:10A69000FF375878884205D195F802C098788445EC
:10A6A00008BF1F7801320E2A03F10303F1D1781C91
:10A6B00087D0326829462046FFF738FD059B052BD9
:10A6C000024609D12B79A3F177014B424B41394620
:10A6D0002046FCF7D1FEA1E70023F8E79EDB050842
:10A6E000A8DB05089CDC0508BBDB050878ED050840
:10A6F000C8DB050807DC05089DDC0508692B49D186
:10A700004378742B46D13068FFF738FDC44B01788D
:10A7100000221F465E788E4228D190F801C09E78B4
:10A72000B44523D186780EBBAE1C31460B460131B1
:10A7300018780028FAD1691D8B423FF642AF02EB30
:10A740004202013BBA5C12F0010F4FEAC2000CBF9B
:10A750004FF0080C4FF0000C00F008000821B34245
:10A760000AD241EA021141F43F413BE701320E2A8D
:10A7700003F10303CED124E713F80179742F4FEAD4
:10A78000510101D10143EAE7652F7FF41AAF4CEA8A
:10A790000101E4E740F22B339F4202D14BF2726198
:10A7A00020E7B7F54B7F02D14BF262611AE740F226
:10A7B0001D439F420ED1326829462046FFF758FDBF
:10A7C00010F47F4F024602D140F434410AE74EF6BE
:10A7D0002D1106E6782F7FF4F4AE32682946204624
:10A7E000FFF746FD10F47F4F024602D140F43C4192
:10A7F000F8E64EF6BD01F4E5B9F1020F40F0AC8188
:10A80000736803F00F03022B40F2E63340F09D80A3
:10A810009F4214D1014632680F232046FFF7EAFC1D
:10A820007268074629460F232046FFF7E3FC3946A6
:10A8300002462046FCF7DCFD08B0BDE8F087B7F51E
:10A84000477F1CD14FF6B0294FF2800732680F23A3
:10A8500029462046FFF7CEFC7268804629460F2322
:10A860002046FFF7C7FC47EA000242EA082249EA0D
:10A870000001B6E54FF690294FF2A007E6E740F257
:10A8800029439F42F6D040F2EB339F422BD1014641
:10A8900032680C232046FFF7ADFC07467068FFF7CF
:10A8A0006DFC014603905F4815F036FD98B10399A1
:10A8B0005D4815F031FDA0B12A465C495C4804F0C2
:10A8C0004DFD636A0022186042EA072242F400420A
:10A8D0004FF2EF3185E50023564A02EBC302D25C0A
:10A8E000F2E70123F8E740F2F2239F4215D14FF43B
:10A8F00080473268294607232046FFF77BFC7268B1
:10A900008046294607232046FFF774FC424603464B
:10A9100039462046FCF767FD8EE7DFF820810027E7
:10A9200003224146284615F00FFD40B9EB7833B9B4
:10A93000414B13F827703F0147F48047D9E70137AF
:10A940000F2F08F10408EBD13BE69F421CD14FF4D6
:10A9500000573268072329462046FFF74BFC29465B
:10A9600080467268FF232046FFF7D2FC47EA0001C9
:10A9700041EA082136E64FF42057EAE74FF4405702
:10A98000E7E74FF46057E4E740F21E339F42F2D00E
:10A9900040F2E7239F42F1D040F282439F42F0D041
:10A9A000B7F57A7F19D14FF2402832680F23294634
:10A9B0002046FFF71FFC726807464FF6FF732946D3
:10A9C0002046FFF7A5FC3A46034641462046FCF7E1
:10A9D00021FD31E74FF2C028E7E740F2E7339F421D
:10A9E000F8D040F2E9339F422AD1014632680F2362
:10A9F0002046FFF7FFFB2946074672684FF0FF33FA
:10AA00002046FFF785FC3A4683B205464FF24021C7
:10AA10002046FCF7FFFC2B0C3A464FF2C021D5E74D
:10AA200007DC050801DD05080ADD0508AEDB0508C1
:10AA300078ED050800DD050848DC050849DC050857
:10AA4000B7F56D7F28D1014632680F232046FFF706
:10AA5000D1FB07AB00930746726806AB2946204638
:10AA6000FFF700FB00283FF4E7AE069A0F232946C4
:10AA70002046FFF7BFFB079A0646FF2329462046DC
:10AA8000FFF746FC830843EA073246F4684142F484
:10AA9000706241F05001A4E440F2B2339F4240D0D2
:10AAA00040F2B3339F423ED040F2B5339F423CD098
:10AAB000972F3CD040F27E439F423AD0B7F5906F3B
:10AAC0007FF47FAD0523884A294632F82370326827
:10AAD00007232046FFF78EFB07AB00938046726882
:10AAE00006AB29462046FFF7BDFA00283FF469ADC2
:10AAF000069A072329462046FFF77CFBFA04064600
:10AB000019D51F23079A29462046FFF701FC034663
:10AB100047EA08079B0147EAC60103F4F8631943B3
:10AB200060E50023CFE70123CDE70223CBE7032332
:10AB3000C9E70423C7E73B04079A06D53E23294605
:10AB40002046FFF7E5FB4308E2E77C232946204641
:10AB5000FFF7DEFB8308DBE7B9F1030F7FF431ADCC
:10AB600040F2C5339F4221D100273268072329468E
:10AB70002046FFF73FFB726881460723294620469F
:10AB8000FFF738FB29468046B2681F232046FFF7AF
:10AB9000BFFB47EA090747EA801747EAC80121E5F2
:10ABA0004FF40067E1E74FF48057DEE740F2C63329
:10ABB0009F42F5D040F2FA239F42F4D040F2E723BF
:10ABC0009F422BD14FF4C0583268072329462046B4
:10ABD000FFF710FB72680723074629462046FFF758
:10ABE00009FBB26802F00F03022B81460ED1072346
:10ABF00029462046FFF7FEFA47EAC90747EA080157
:10AC000041EA8011EEE44FF4D058DDE707232946EE
:10AC1000204648F48068FFF77BFBEDE740F257439E
:10AC20009F4222D14FF6903832680F2329462046A2
:10AC3000FFF7E0FA726881460F2329462046FFF7A6
:10AC4000D9FAB268074629460F232046FFF7D2FA01
:10AC500040EA092040F4704242F0F00248EA07015D
:10AC6000FFF7BFBB4FF6B038DEE740F2A2439F428A
:10AC7000F8D040F282439F42C5D040F27F439F42CA
:10AC80007FF49FAC014632680F232046FFF7B2FAEB
:10AC900072680F23294607462046FFF7ABFA07AB39
:10ACA00000938046B26806AB29462046FFF7DAF9E2
:10ACB00000283FF4C1AD069A0F2329462046FFF72E
:10ACC00099FA079A0646FF2329462046FFF720FBFC
:10ACD0003B0243EA083346F4684143EA900241F0FC
:10ACE0004001FFF77EBB00BF84DC050804292DE985
:10ACF000F04106460C46904625D9446A134914484B
:10AD000004F0A2FA206000242046BDE8F08100098A
:10AD1000F6F736F8074615F0F1FA022810D13B781D
:10AD2000722B0DD17A7805F130039A4208D10135A2
:10AD3000A542E9D058F8250000F00F03022BE6D019
:10AD4000746A0449DBE70025F2E700BFD3DB05089E
:10AD500078ED0508F2DB050838B505463020F5F733
:10AD6000A1F920220446002115F090FA2946204638
:10AD7000FCF780FAA562A800F5F794F9E062204696
:10AD800038BD10B50446C06AF5F7B4F92046002175
:10AD9000FCF778FA2046BDE81040F5F7ABB9012979
:10ADA00010B5146828D934F01001037815D1302B70
:10ADB0001ED1417841F02001782900F1020303D12E
:10ADC00010211160181A10BDCCB96F2901D10821CA
:10ADD000F7E7622911D10221F3E7082C11D1302BBA
:10ADE0000DD1437843F020036F2B08D1831CE9E792
:10ADF000082C04D0022C02D00CB90A23136003469D
:10AE0000E0E7022CFBD1302BF9D1437843F020034B
:10AE1000622BEAE708B51020F5F75DF90278012109
:10AE200061F30202027008BD10B5048803F07F03CD
:10AE3000DB0024F47F7443F0020324F00304234373
:10AE4000C0E90112038010BD10B5049B039CDB0018
:10AE500001F0070103F47E730B43074901EA8421E3
:10AE60000B430168490D49050B43C0E90032029BC1
:10AE70008360059BC36010BD00FC1F0038B504460D
:10AE800008462378656803F00703042B11460BD8A6
:10AE9000022B0BD9A3682A4604F07CFF23881A07EB
:10AEA00001D50B4B036038BD052B08D0A3682A469B
:10AEB00004F040FF23881B07F5D5064BF2E7206816
:10AEC000E2682946C0F38A20BDE8384004F06ABF32
:10AED000DCF20508A0F2050838B5154611F48072B9
:10AEE0000C4614BFD5E900121146FFF7C7FF6209EF
:10AEF00002F008022A44E1B2BDE8384003F0DCB9B0
:10AF00002DE9F04303685A1C02601B780022C3F34A
:10AF1000C304C3F3800E03F0030715461646944698
:10AF2000D0F800801B0608F101091ED4C1E90465B0
:10AF300001340022C1E9004EC1E902C7134614469C
:10AF400006270568691C01602D7805F0010696400A
:10AF5000334307FB02FCC5F3450606FA0CF62D0643
:10AF600044EA06042DD50132EBE7C0F8009098F8CA
:10AF700000304FEA420903F0300808FA09F844EAC1
:10AF8000080403F0020808FA02F84EEA080EC3F3B8
:10AF9000801808FA02F84CEA080C03F0040808FAD2
:10AFA00002F847EA0807C3F3C00808FA02F846EABD
:10AFB000080603F0010808FA02F845EA080501321C
:10AFC000AEE723440B4403600846BDE8F0830288E3
:10AFD0004B0803F4806322F4816243EA113322F0C8
:10AFE00007021343038043880A0103F4706302F4E9
:10AFF000E0421343C9B2194341807047D0E90003CE
:10B00000184770B505460C468E18B44200D170BD85
:10B01000D5E90003984704F8010BF6E770B505463B
:10B020000C460026D5E90003984724B12368187020
:10B0300023680133236000F07F0343EAC61603064A
:10B04000F0D4304670BDF8B50C4600210746FFF736
:10B05000E5FF20B93846BDE8F840FFF7CFBFC3078A
:10B060004FEA500527D523885A1B02F01F0204EB34
:10B07000420193424E8835460DD2911C04EB4100AB
:10B08000C2F11F0252000146023815F0E7F863884A
:10B09000A4F8403000222388501C40009A1A811CDA
:10B0A00021442044520015F0D9F8218804EB4104D2
:10B0B00066802846F8BD2846F4F7F4FF2A4606467F
:10B0C00001463846FFF79DFF29463046F5F7B2FDA9
:10B0D00005463046F5F70EF82188013101F01F01D1
:10B0E000218004EB41046580E3E700002DE9F8438B
:10B0F000DFF8988005460E46174600242868FFF7BB
:10B100007DFF5FFA80F9B9F1FF0F01D1BDE8F88347
:10B11000C2070FD528680021FFF780FF10F0010F4C
:10B120001CBF6B685C684FEA50000CBF06EB8004E4
:10B1300004EB8004B9F10B0F4FEA590310D8DB0779
:10B140000CD528680021FFF769FF5FEA99091BD039
:10B150006B6853F829300246214610E00120F4E7DD
:10B16000062B1BBF03F18043073B434658F82330AF
:10B170000120F0E751F804CB9C4441F804CC013A9B
:10B18000F8D204EB8004B9E73B46E4E7FCDE0508AF
:10B190002DE9F04F894695B000210446FFF73EFFA8
:10B1A00000F003054FEA900805F1020A1C22002175
:10B1B0000DA815F06BF8BAF1020F404640F0AC80D4
:10B1C000F4F770FF09A9CDE9080006462046FFF70D
:10B1D00025FF09A92046FFF721FF0DA908A8FFF7C1
:10B1E0008FFE49462046099DFFF72DFF2870000A73
:10B1F000687049462046FFF726FFA870000AE870ED
:10B200000999089A0431521A20460991FFF7F9FE6C
:10B21000089D06EB0807AF424FD800212046FFF7F4
:10B22000FDFE002105902046FFF7F8FE0690DDE9BF
:10B2300010031844059B1844069BBAF1020F1844EA
:10B2400007D00F9B9D064CBF02300130590648BF06
:10B2500001308000F4F726FF4FF0000B074605464B
:10B26000DDE9103213445B4500F2D980BAF1020FD8
:10B2700011D0B14B2B600F9B9A0600F1DC80043596
:10B280000F9B5B0607D500212046FFF7C7FEF4F7AA
:10B2900022FF45F8040B00230493DDE904329342B6
:10B2A00040F0DA8005EB83054FF0000B069B9B45D1
:10B2B00040F010814FF00009A2E02046FFF79EFE0B
:10B2C0000022287009A928460EF0C0FA099B01281F
:10B2D00003F1FF3305F1010B099313D149462046D1
:10B2E000FFF7B1FE6870000AA870099B023B05F1E8
:10B2F000030B0993099A59462046FFF782FE099DE0
:10B300005D4488E70228F5D12046FFF777FE030663
:10B310000BF8010BF8D4EDE7F4F7C4FE4246014602
:10B3200006462046FFF76DFE032D1CD1BAF1030F30
:10B3300050D100212046FFF771FE304409900DA93D
:10B3400009A8FFF7DDFD494605462046FFF77BFECD
:10B350002870000A687049462046FFF774FEA870FE
:10B36000000AE87059E700212046FFF757FE002544
:10B370000746BD42DAD000212046FFF74FFE49467E
:10B3800083462046FFF75FFE4FEA9B03014606EB2C
:10B390009B001BF0030B04D1F154090A41700135E5
:10B3A000E7E7BBF1030F04D1C90041F002010160DE
:10B3B000F5E7BBF1020F40F0BC80C90041F0020B81
:10B3C0001FFA8BF1FFF703FE4FEA1B410430FFF732
:10B3D000FEFDE4E700212046FFF720FE0027BAF13A
:10B3E000050FCDE910770F907FF417AF394620464F
:10B3F000FFF714FE394610902046FFF70FFE8146F6
:10B40000FFF708FDBAF1020F05466CD10F9B3A46D3
:10B410003146FFF709FD284615B0BDE8F08F4946D3
:10B420002046FFF710FEC00040F0020045F8040B74
:10B430000BF1010B14E700212046FFF7EFFD04900C
:10B44000F4F730FE049A834601462046FFF7D9FD03
:10B45000083545F804BC13E72046FFF7CFFD5FFA37
:10B4600080FBBBF1650F33D000212046FFF7D6FDEE
:10B470000146079009A8F5F781FD079A0B99204628
:10B48000FFF7BFFDBBF1730F0BD0BBF1620F0AD109
:10B490002A4809A907F072F9049B45F823000133F3
:10B4A000FAE62748F5E7BBF1690FDDE90A104FF02E
:10B4B000000303D10A22D7F71BFDEDE7ABF1630CC4
:10B4C000DCF10002009342EB0C02D7F78FFDE3E7BB
:10B4D0001C48E1E749462046FFF75AFE45F82B0095
:10B4E0000BF1010BE2E60F9BDB06CDE9094712D514
:10B4F000154CD4F8C41021B9084605F037FDC4F83E
:10B50000C4003146D4F8C40005F0D9FA32463146B9
:10B5100009A8FFF7EBFD0F9B0293109BCDF80C9051
:10B52000CDE900733246434651462846FFF78CFC6E
:10B5300071E789B24BE700BFFCDE0508B4FE0508E1
:10B540001801060800FC0508705B002030B593B0B8
:10B55000042269460446FFF754FD9DF800304D2B48
:10B5600002D0174800F018FF9DF80130052BF8D1E4
:10B570009DF8023003F00303022BF2D19DF8033053
:10B580001F2BEED800212046FFF748FD2028E8D8E1
:10B590009DF802309B0804D0043B032B01D90948D5
:10B5A000E0E7002301A92046ADF80430FFF7F0FDE5
:10B5B000A368054620689847284613B030BD00BFF1
:10B5C0006BDD050877DD05081FB5014601A813F0FE
:10B5D00055FD01A8FFF7BAFF05B05DF804FB0000B8
:10B5E000F8B5204C00250127F5F7E8FAE564A4F842
:10B5F000EE51A4F8EC7103F0C3FD1B4B656304F13D
:10B600009006C4E90B3504F13C00184BA3630321F9
:10B61000C4F8E05184F8E45103F0CAFB39463046DF
:10B6200003F0C6FBBA21AA22304603F03FFC104BC0
:10B630001A681B6852685B68966004F5F870DE60F3
:10B64000C4E93055C4E97055C4E97255C4F8D05105
:10B6500021F02EFE394604F5F870BDE8F84021F0DF
:10B660002BBE00BF705B002020EB0508900306088E
:10B670003862002008B5084BD3F8C00008B9074865
:10B6800008BD002240F27A51043001F0D7FB0028B7
:10B69000F5D04068F4E700BF705B00209C08060806
:10B6A000044B1B685B68C0000A4640F002019868C2
:10B6B00003F0FCBB38620020044B1B685B68C000D1
:10B6C00040F00201986803F000BC00BF386200201F
:10B6D000044B1B685B68C0000A4640F00201D86852
:10B6E00003F0E4BB38620020044B1B685B68C000B9
:10B6F00040F00201D86803F0E8BB00BF38620020C8
:10B70000F8B51C46930707460D46164609D113683F
:10B710009A88910617D5530612D5EA68124B9A42B9
:10B7200001D12660F8BD58B9104B9D4208D00C20BD
:10B73000F4F7B8FC0E4B8660C0E900352060F1E7F5
:10B74000C4E90067EEE70B4A934202D173682360B5
:10B75000E8E7094A9342E4D110B101F087FD0546BC
:10B760007368C4E90035DDE79953030830F705082D
:10B77000C0DE0508740506083805060800232DE913
:10B78000F041C2E900330D460746144601F06EFD54
:10B790000A2D064602D12060BDE8F081192D05D1A1
:10B7A000836A1BB10F4BC4E90037F5E7F3692BB18E
:10B7B000224629463846BDE8F0411847B06B0028BC
:10B7C000EAD0E9001A4641F00201043001F036FBEC
:10B7D0000028E1D04268234631463846BDE8F041B2
:10B7E000FFF78EBF6C09060830B595B0054602A874
:10B7F000CDE900211C46F4F717FCDDE9002130B942
:10B800002846FFF7BBFFF4F705FC15B030BD002C50
:10B81000FBD1039B0449186809F070FF0028F4D19C
:10B820000398F4F719FC00BF04E9050870B54568F2
:10B830000024AB68A34200D870BDEB6853F8340015
:10B84000E60078B104280DD007F0D8FC03785F2B10
:10B8500008D0EB68985907F0B9FCEB683344596895
:10B86000FFF71EFF0134E4E708B519B903F0DCFC6B
:10B87000F4F7F2FB03F0E8FCFAE70EB403B503AA11
:10B8800052F8041B019203F007FDF4F7E5FB0000FA
:10B89000134B1B6813B55B68C1000446D86841F0C0
:10B8A000020100220430019101F0C8FA019948B95F
:10B8B0000C4BD3F8C03043B10246181D01F0BEFA5C
:10B8C000019910B1406802B010BD0748002201F094
:10B8D000B5FA0028F6D1054905482246FFF7CDFF05
:10B8E00038620020705B0020DC09060883DD050853
:10B8F000D4EB05080E4B1A681968526849689268BB
:10B90000C968914210B504460CD01B685B68C10041
:10B910009868002241F00201043001F08FFA08B16A
:10B92000406810BD2046BDE81040FFF7B1BF00BF22
:10B930003862002030B5032885B005460C4607D193
:10B94000084601F0ADFEF8B10E24204605B030BD2A
:10B95000CA072DD54910082828D801A353F820F08C
:10B960004BB9020891B90208ADB90208ADB9020895
:10B9700085B90208ADB902084BB902088DB90208B1
:10B980004BB902080029DFD01E24DEE70029DCDAEB
:10B99000B1F1404F05D14FF0804004F05BFE04460A
:10B9A000D3E74C42640044F00104CEE7CC43F9E70E
:10B9B000062821D101F00703022B0CD08B071BD1E5
:10B9C0000B689A691D4B9A4216D1486840B98B683A
:10B9D000C86803930CE0CC082046F5F7C7F918B106
:10B9E000400040F00104B0E703A92046F5F7CDF987
:10B9F0000399F5F7D3F8F3E7204601F037FC4369E4
:10BA00004BB9082D0DD1204601F03CFC0C490246F3
:10BA10000C48FFF732FF2146284698470028BED140
:10BA2000EFE7094B20465A5D019201F02BFC019A89
:10BA3000064903460348FFF720FF00BF6D320308A5
:10BA40008FDD0508F0ED05082806060896DD0508D7
:10BA500030B585B0CDE902210446019301F006FC22
:10BA6000056945B1DDE9013203992046AC4605B0D0
:10BA7000BDE830406047204601F004FC0249024620
:10BA80000248FFF7FAFE00BF9FDD0508F0ED05084C
:10BA900000231A461946FFF7DBBF00002DE9F041ED
:10BAA000224C15462268526896B0D26800922268ED
:10BAB00052689268019222685268D5602268526882
:10BAC0000746936004A80E46F4F7AEFAA04608BBFA
:10BAD0003C683246394602A8F7F73EFCB6FA86F2D1
:10BAE0002146520902A8FAF749FD044615B1FFF7AD
:10BAF000CFFF0446F4F78EFA009AD8F800305B685E
:10BB0000DA60019AD8F800305B6820469A6016B077
:10BB1000BDE8F081009A236805985B68DA60019AB5
:10BB200023685B689A60F4F797FA00BF38620020D8
:10BB300007B50022019101AB0121FFF789FF03B096
:10BB40005DF804FB30B45568003D144618BF01256C
:10BB5000C5F1020302EB83030A462918206830BCB2
:10BB6000FFF776BF10B5044603F006FC38B100239A
:10BB700020461A46BDE810401946FFF769BF204627
:10BB800003F010FC28B9BDE810400349034803F056
:10BB90005BBB204610BD00BFA5DD0508F0ED050824
:10BBA0007FB50623CDE90233C0000F4B40F0020001
:10BBB0000190D3F8C000CDE9041278B1002240F220
:10BBC000F251043001F03AF940B1406801AB002273
:10BBD0000521FFF73DFF07B05DF804FB01A9052033
:10BBE0000AF0D8FDF7E700BF705B002037B51546B7
:10BBF00004460191FFF7C2FD2A68019B92B9A20792
:10BC000008D12168084A914204D1E28807490848CE
:10BC1000FFF733FE2046019301F034FB019B0549F9
:10BC20000246F4E703B030BDEC050608C6DD0508A2
:10BC300004E90508CFDD050807B56A46FFF7D6FF1A
:10BC4000DDE9000111B903B05DF804FB02F0CEFAA2
:10BC5000F9E700002DE9FF411D4606460C46174650
:10BC600001F004FB324B984208D12B463A4621465C
:10BC7000304604F045F904B0BDE8F081D0F82880E2
:10BC8000B8F1000F08D0062C21D13046C0472860FB
:10BC9000003818BF0120EEE7062C18D101AA19219F
:10BCA0003046FFF76BFD019B6BB901AA8A21304634
:10BCB000FFF79CFF039401AA00210120FFF742FF38
:10BCC00028600120D7E701AA41464046F6E7002C4C
:10BCD000EBD1384601F0CAFA164909F00FFD01AA66
:10BCE00068B147213046FFF749FD019B7BB101AAAE
:10BCF00021462046FFF726FF28602046BBE79B2110
:10BD00003046FFF73BFD019B0BB10397D3E70A4990
:10BD1000384603F04EFB30B10849094803F094FA65
:10BD200028600220A7E73846FFF71CFFF8E700BFAE
:10BD300064F20508F4E905083CED0508D7DD0508BF
:10BD4000C4EC050873B505460C46164601F08EFA9C
:10BD5000C36943B10422CDE9002621466A4628463C
:10BD60009847009B43B1284601F08CFA03490246EC
:10BD700023460348FFF781FD02B070BDCFDD050803
:10BD800004E9050873B506460C4601F06FFA174A38
:10BD9000436A9342054627D063B134B9144A9342AB
:10BDA00003D01020F4F77EF904466B6A2146304632
:10BDB000984778B96A460F213046FFF7DFFC009BB1
:10BDC00053B11CB91020F4F76DF9044621466846BA
:10BDD00004F09EF902B070BD304601F053FA0549F7
:10BDE00002460548FFF749FD3046F3E761D80208EF
:10BDF00001510308EEDD0508F0ED050837B50446EE
:10BE000001F034FA856A1DB12046A84703B030BD61
:10BE10006A4619212046FFF7B1FC009B2BB16A4608
:10BE200029462846FFF78EFEF0E7204601F02AFA61
:10BE3000024902460248FFF720FD00BFFBDD05086E
:10BE4000F0ED050830B5054695B000F00DFF284629
:10BE500001F00CFA846A2CB12846A047044620461B
:10BE600015B030BD6A4619212846FFF787FC009BB4
:10BE7000ABB102A8F4F7D8F8014630B96A46FFF72B
:10BE800061FE0446F4F7C6F8E9E7039B0849186821
:10BE900009F034FC0028E2D10398F4F7DDF82846D5
:10BEA00001F0F0F9034902460348FFF7E6FC00BF42
:10BEB0003CED0508FBDD0508F0ED05082DE9F04F28
:10BEC0002DED028B13688BB008EE103A00284ED18E
:10BED00002F104090446C1F3072301935B005FFAF2
:10BEE00081F853FA81F1029359F821B009EB8101ED
:10BEF0004F68002F3FD017F003003CD13968824AC9
:10BF0000914202D1384602F0CEFF019B1E18760006
:10BF10004FEA880ABBF1000F2FD108F101031E443C
:10BF2000B000F4F7BFF805460CB10460012405EB3E
:10BF300084005246494614F063F94444019B09EBDE
:10BF40000A01DA0005EB840014F05AF9029B23443D
:10BF50009846002F00F0868017F0030340F095808C
:10BF60003968694A914240F090801E4677E05468F3
:10BF700002F10809AFE70020C7E71BF0030F2AD141
:10BF8000DBF8002061498A4202D061498A4222D10D
:10BF900006AA05A9584601F0DFFA059B0133434480
:10BFA0001E44B000F4F77EF805460CB1046001248D
:10BFB0005246494605EB840014F022F9059A069989
:10BFC00008EB0400920005EB800014F019F9059BC2
:10BFD00043441C44B2E708F104021644B000F4F7ED
:10BFE00061F805460CB1046001245246494605EB50
:10BFF000840014F005F906A95846FFF7C3FE44442F
:10C0000080464046FFF71EFF0246002896D0A64213
:10C0100007D8F10028460392F4F75FF8039A054623
:10C02000760045F824200134EBE7FB6853F836002E
:10C030004FEAC60990B1042810D000F00703022B84
:10C0400001D008F057F845F82800FA684FEA88034D
:10C050004A442B4452685A6008F102080136BB6812
:10C060009E42E2D3A8EB040221462B46520818EE6A
:10C07000100AFFF7EDFC04462846F4F73BF820468B
:10C080000BB0BDEC028BBDE8F08F06AA6A213846E2
:10C09000FFF7ACFD002106AA0846FFF753FD00217B
:10C0A000FFF770FE82465046FFF7CCFE814600281F
:10C0B000D8D008F101039E4208D87600042E38BF7C
:10C0C00004262846B100F4F708F8054609F00703EE
:10C0D000022B03D0484608F00DF8814606AA0F212E
:10C0E0003846FFF783FD06AA00210120CDF82090F5
:10C0F000FFF728FD4FEA88032B4445F8289008F104
:10C1000002085860CFE700BFB8E7050898030608A3
:10C1100028F5050870B5830786B00C4615461BD177
:10C1200003681D4A934202D01C4A934214D102AACA
:10C1300001A901F011FA019BA34228D31AD8029B4E
:10C14000043D03EB84049C4201D106B070BD54F859
:10C15000042D45F8042FF6E702A9FFF713FE00238C
:10C1600006460193019BA342304606D3FFF76AFEC1
:10C170000028EAD00A4922460BE0FFF763FE30B1FF
:10C18000019BDA432244013345F82200E9E7019A92
:10C1900004490548FFF771FB9803060828F50508D0
:10C1A0001EDE050809DE050868EE05082DE9FF41D9
:10C1B00083071546CFB2C1F3072437D103683A4A43
:10C1C000934202D0394A934230D10290029803AA96
:10C1D00001A901F0C1F901983B1983425ED8039986
:10C1E000002601EB8003A64216D1C01B01EB87019C
:10C1F000801B04F0BBFE039945F82600BC0005EB4C
:10C2000086080B194246994202F104020AD1002322
:10C21000029304B0BDE8F08153F8042D45F82620C0
:10C220000136E0E753F8040D1060ECE70021FFF75A
:10C23000A9FD002380460193019BBB4219D3002135
:10C24000084604F093FE06464046FFF7FBFD014614
:10C25000D0B9B168A14221D345F8246005EB810231
:10C2600005EB8403091BAB4212D1304604F099FE62
:10C27000CFE74046FFF7E6FD80B1019BFA1A224462
:10C28000013345F82200D6E7304604F018FCDBE71E
:10C29000F468D01A205843F8040DE4E7019A0449E1
:10C2A0000448FFF7EAFA00BF9803060828F50508D6
:10C2B00009DE050868EE05082DE9F04786B000AFF5
:10C2C00007F1100205460C46FFF758FA7B6923B1C7
:10C2D000254926482246FFF7D0FA386900283ED182
:10C2E00028460AF0F5FB0028F2D007F11002284694
:10C2F0001721FFF743FA07F10C01386906F098FFA0
:10C3000078602046F4F737FDD7F80C90796809F18A
:10C3100001068519EB1D23F00703ADEB030D6B46FA
:10C320004A464FEAD30A184613F06AFF2E2309F84B
:10C330003A302046F4F724FD78602046F4F71BFDE0
:10C34000E846464402467968304613F059FF2946CC
:10C350004046F4F76FFC01221E21FFF721FC18373D
:10C36000BD46BDE8F08700BF3BDE050830EA0508A2
:10C3700007B50190F3F794FF019A18B103490448F7
:10C38000FFF772FA03490248FFF777FA41DE050822
:10C3900098EB05085DDE0508014608B50148FFF782
:10C3A00063FA00BF68EE05082DE9F043072889B05D
:10C3B00081468846174603D191421BD00E2509E0DD
:10C3C000022801D0052809D13A464146484601F0E5
:10C3D0008DF90546284609B0BDE8F08308282AD122
:10C3E000104602F0C9FF38B13946404602F0E1FF7D
:10C3F0000028E3D01E25EDE717F0030440F03F814D
:10C400003A68BE4B9A4240F03A8107F108057B68D2
:10C41000A342D3D955F8041B0291084602F0ACFFA1
:10C420000299002800F06481404602F0C2FF002813
:10C43000E0D10134EBE711F0010F00F03F814E1025
:10C44000D10740F10B815410232800F21881DFE856
:10C4500010F0F500F9001601FD00010116011601AA
:10C460001601160124003000330036007A008200E5
:10C4700085008800160194009D00AD00B5002400E1
:10C480003000330036007A008200850088001601F3
:10C4900094009D00AD00B500DD0046EA040898EA6E
:10C4A00048034FEA480065D54046C11704F0C2F87A
:10C4B0008FE786EA0408F2E706EA0408EFE7002CB3
:10C4C00002DA8F48FFF768FF1F2C09DC6FF040434A
:10C4D0002341B34204DB4FF040432341B3422FDDFD
:10C4E0003046F11704F0A6F88046404600F0BEFE44
:10C4F0008369002B40F0EB80A9F116030C2B40F26E
:10C50000EF80B9F1240F06D94346A9F10F09B846C7
:10C510005FFA89F91F46B9F1240F40F0B08004A9F1
:10C520004046FFF72FFC04462046FFF78BFC00280F
:10C530003FF444AF394601F04FF90028F4D059E7F1
:10C5400006FA04F8ABE7002CBBDB1F2CA8BF1F24A6
:10C5500046FA04F8A3E706EB0408A0E7A6EB0408F4
:10C560009DE7214630460DF06FFB0028B8D104FB53
:10C5700006F0400040F001052CE7002C00F0BA80E6
:10C58000214630460DF091FB804688E7002C00F0F4
:10C59000B18007EE906AB8EEE70A07EE904AF8EE2F
:10C5A000E77A80EE270A03F033F812E7002C00F058
:10C5B000A180214630460DF06AFBE5E7002C21DA28
:10C5C00007EE906A1146B8EEE70A03F087F800E735
:10C5D000E20708D5294640460DF036FB00287FF4D7
:10C5E0007FAF05FB08F8012C3FF459AF29462846D8
:10C5F00064100DF029FB00287FF472AF6D43002C0E
:10C60000E6D14CE735464FF00108F8E7002C71D031
:10C610000021022008F0E8F82146054630460DF0DA
:10C6200044FB400040F00100A860214630460DF078
:10C630002EFB400040F00100E860CBE6A642FFF68A
:10C64000D9AEBBE6A6423FF7D5AEB7E6A6427FF726
:10C65000D1AEB3E6A642BFF6CDAEAFE693072DD17D
:10C660001368284A93421CD107EE906A3946B8EE07
:10C67000E70A03F033F8054600287FF4ABAE224BFF
:10C68000404613F80920039200F0FCFD0290384662
:10C6900000F0F8FDDDE9023200901C491C48FFF76C
:10C6A000ECF81C4A934209D107EE906ADFED1A0AB2
:10C6B000B8EEE70A394601F049FFDCE7B9F1060FA9
:10C6C00001BF43464FF02409B8461F460DE73A46DE
:10C6D000414648469847054600283FF40DAF79E6A5
:10C6E000434609F10F09B8465FFA89F91F46FCE68F
:10C6F0000F46C4E709490A48FFF7B6F89803060849
:10C700007CDE050868EF0508F604060891DE0508DA
:10C71000F0ED050830E5050800000000A4DE05087E
:10C72000E0EE0508014608B50148FFF79DF800BF97
:10C73000F0ED050873B504461E460D4651B1186864
:10C74000019200F093FD6368019A834202D005488C
:10C75000FFF7E8FFA0683346294602B0BDE8704005
:10C76000FFF776B9B0DE0508400040F0010108B5DA
:10C77000024802F05EFDF3F76FFC00BF4CEC0508C9
:10C78000014608B50148FFF76FF800BF10EC050837
:10C7900008B540F23271024802F04BFDF3F75CFC41
:10C7A000C4EC050810B594B0044602A80191F3F753
:10C7B0003BFC48B920460199FFF7BAF90446F3F764
:10C7C00029FC204614B010BD0399024800F086FDF4
:10C7D0000024F6E7D8CD0508064B03F12C02DA64F5
:10C7E000B3F8EC2112B20021012A596308BFA3F863
:10C7F000EC117047705B0020EFF3108172B6084AAD
:10C80000B2F8EC311B0443BFB2F8EC3103F1FF3353
:10C810001BB24FF6FF73A2F8EC3181F3108870471A
:10C82000705B0020EFF3108172B60C4BB3F8EC2173
:10C83000013212B2A3F8EC2118463AB9DA6C12B9F7
:10C8400093F8EE212AB10023A0F8EC3181F310888F
:10C8500070470122A3F8EC21F8E700BF705B0020CD
:10C8600070B5124B93F8EE514FF6FF720446A3F8E1
:10C87000EC21C5B193F8EF2102F10A0103EBC106E7
:10C88000013202F00702013D53F83100716883F86C
:10C89000EF2183F8EE5184F31088FFF783FFBDE8A2
:10C8A0007040FFF7BFBF80F31088F8E7705B00208F
:10C8B000114BB3F8EC2112B210B5E2B9EFF31081CD
:10C8C00072B6B3F8EC2112B29AB9DC6C64B1DA64D6
:10C8D00093F8EE2112B90122A3F8EC2120B181F3E3
:10C8E00010882046F3F7B8FBBDE810400846FFF774
:10C8F000B7BF81F3108810BD705B002070B5EFF3F7
:10C90000108572B60F4B93F8EE21082A18D0B3F8B1
:10C91000EC4124B2012C04BF0024A3F8EC4193F8AD
:10C92000EF41561C224402F00702093283F8EE61FF
:10C9300003EBC203C3E90201012085F3108870BD37
:10C940000020FAE7705B002058B1064A13685B6864
:10C95000DB68984204D012685268D060184670476D
:10C96000002070473862002001F00F01012903D038
:10C97000022906D039B97047002814BF1E200E20A6
:10C98000704703F067BE03F0EBBE08B500F080FD12
:10C9900010EE100A2BF0A8F941EC100B08BD00F0C6
:10C9A00077BD08B551EC100B2BF0F6F9BDE8084047
:10C9B00000EE100A02F02CBE02F02ABEF0B593B0D1
:10C9C0000546684616680F461446F3F72DFB78B9FE
:10C9D000002E0CBF39460021234632462846FFF779
:10C9E00039F90546F3F716FB012D0BD1284611E066
:10C9F000019B23601049206802F0DBFC60B92068CD
:10CA0000F3F72AFB2368002DF4D10BB9062323602A
:10CA10003EB9002013B0F0BD206802F0D5FB2060C5
:10CA2000F6E70649304602F0C4FC0028F1D0304653
:10CA3000FFF798F8E4E700BF3CED0508F4E90508C6
:10CA4000036803B94068FFF7FDB91346C1F3072235
:10CA5000C9B2FEF7FDBF1FB501F00F03012B04465D
:10CA600011D011F00E0F08D17BB1012201A920468F
:10CA700000F0F7FE58B1019807E0023B012BF4D813
:10CA800000F0AAFC01E000F00BFE04B010BD20464F
:10CA9000F6E708B528B1062803D0FFF763F8F3F7E7
:10CAA000DBFA08BD10B50C4619B9BDE81040FFF718
:10CAB00069B9FFF767F984421CBF0023C4E900305D
:10CAC000002010BD40F21943984217D840F2154398
:10CAD000984209D85E281DD075281DD03E2814BF65
:10CAE0004FF0FF3001207047A0F21740022803D812
:10CAF000DFE800F00C0E14000420704740F2A6435B
:10CB0000984214BF4FF0FF30032070470620704753
:10CB100007207047022070470020704705207047AB
:10CB200038B5034615460C4609B92C460BE052B100
:10CB300011462046984758B1636833B9656044F0A0
:10CB40000103A560EB60204638BDA368DD60F6E711
:10CB50006B68E3606C60002BE7D145F00103AC60CB
:10CB6000E360E2E7F8B5064631B1002511F00103B4
:10CB700004D00023EB6029460846F8BDCC68CB60A2
:10CB800014F0010307D1E768E36022463046FFF75F
:10CB9000C7FF3C4601460A4630462946FFF7C0FF1C
:10CBA00021460546E2E78A422DE9F04184460E46D9
:10CBB00006D1002351685360BDE8F041FFF7D2BFB2
:10CBC000D2F80C80B8F1000F12D01446E468E307E5
:10CBD000FCD524F0010451686368934208F0010712
:10CBE00016D1002339B99F4208BF41466160D36026
:10CBF0003046BDE8F0815360D3606046FFF7B2FF76
:10CC000005466060C5F80C80002FF1D0A560EFE705
:10CC10001D46DB689342FBD100225A60DA60604611
:10CC2000FFF7A0FF0028EDD0E8600546EAE7000026
:10CC3000024B1B685B681860704700BF38620020B9
:10CC4000044B1B685B6882B0186801ABC01A02B065
:10CC5000704700BF38620020024B1B685B68586059
:10CC6000704700BF3862002008B5FFF7E9FF044BAA
:10CC70001B685B685B68984201D3FFF789FD08BDBC
:10CC80003862002010B50346C2F34F04500C21B1A6
:10CC9000D20702D40C48FFF745FDA04206D19842C6
:10CCA00010D00A4902460A48FEF7E7FD984204D927
:10CCB000C21A08490648FEF7E0FD9C4202D2064926
:10CCC0002246F0E710BD00BF3CE0050846E005083D
:10CCD000F0ED050858E0050860E005082DE9F74F7C
:10CCE000DDE90CA7002406468B4615460193A046B5
:10CCF000A146019B9C4204D1B1453CD22248FFF79A
:10CD000011FDB44210D2BAF802209205F6D45BF8B5
:10CD1000240009F101099AF80220012A24D100F027
:10CD2000BFFC07F8240017E0BAF80010C900002281
:10CD300041F00201284600F081F888B9BAF80220D3
:10CD4000D30505D5BAF8002010491148FEF795FD26
:10CD5000DAF8042047F8242001340AF1080AC8E769
:10CD6000406808F10108D6E7022A01D100F016FB5D
:10CD700047F82400F0E72B68B8EBD30F01D2054841
:10CD8000BDE703B0BDE8F08F72E005086DE005086F
:10CD9000F0ED05087CE0050830B589B0044615467D
:10CDA00002EB800205A8039300F01FF80D9A019290
:10CDB0000C9A0092039B05AA29462046FFF78EFF96
:10CDC00009B030BD08B50148FFF7DAFC86E0050878
:10CDD00010B50446416019B981600123236010BD7C
:10CDE000C800F3F778F9A060F7E74160C90041F0A7
:10CDF000070101608260704703789B0710B5044605
:10CE000002D48068F3F776F92368002262F3DF0327
:10CE10006260236010BD03789B0710B5044602D4FE
:10CE20008068F3F767F9236803F0040343F0010314
:10CE300023600023C4E9013310BD00002DE9F74F42
:10CE40000378914613F0010204460E46009210D07A
:10CE500001F00702022A0CD011F0030203D1086886
:10CE60007A49884204D0B9F1010F02D0002556E07A
:10CE700000925B0760D52768A56827F007072F4455
:10CE8000BD4230D3B9F1010FF0D1D4E90032B2EB99
:10CE9000D30FC3F3DC0111D104316160A068C90074
:10CEA000F3F71BF9D4E90032A2EBD30223F0070316
:10CEB000A060D2000021184413F0E8F92368A168AB
:10CEC000C3F3DC02501C60F3DF03236041F83260DF
:10CED00006F00706022E01EBC20520D023786FF37F
:10CEE000000323701BE02868B0421CD1B9F1020F87
:10CEF00015D123686E68083B7A1B05F10801236091
:10CF0000083A284613F0AAF92568A368C5F3DC029D
:10CF100025F007051D44002143F832106E602846B5
:10CF200003B0BDE8F08F009B23B9314600F054FCFC
:10CF30000028DBD10835A3E763682BB9B9F1010FED
:10CF400094D1204600F084F806F0070BBBF1020FE5
:10CF500029D1F008F3F70AFF82466268BAFBF2F1C2
:10CF600002FB11A217464FF00008A16851F83700E4
:10CF700001EBC705F0B9B9F1010F7FF477AF236872
:10CF8000C3F3DC020132B8F1000F18BF454662F36B
:10CF9000DF03BBF1020F2360C5E90060BFD0237837
:10CFA00060F300039DE731460620FEF7C3FC4FEA1D
:10CFB000600AD2E7042823D1B8F1000F08BFA846C1
:10CFC00061680137B7FBF1F001FB1077BA42CCD1B1
:10CFD000B9F1010F7FF44AAFB8F1000F31D02368E7
:10CFE00000220833BBF1020F2360C8F80060C8F8C4
:10CFF000042003D0237862F30003237045468EE7B4
:10D00000B04211D1B9F1020F89D123686268083B9F
:10D0100001372360B7FBF2F302FB1377A36853F8E1
:10D02000373063B92B607AE7009B002BC8D13146BB
:10D03000019200F0D1FB019A0028C1D0E2E704235D
:10D04000F0E7204600F004F887E700BF1801060863
:10D050002DE9F04146681A490446731C002231F854
:10D06000025BAB4206D90132222AF8D103EB53030B
:10D0700043F00105E800A768F3F72DF82368656021
:10D0800003F0060343F001032360A0603D1D4FF051
:10D090000008B04504D13846BDE8F041F3F72AB89E
:10D0A00055F8041C39B1042905D001222046FFF7A8
:10D0B000C5FE2B68436008F101080835E9E700BFA9
:10D0C000AEE0050810B50023044601604360880007
:10D0D000F3F701F8A06010BD03682DE9F74F04468F
:10D0E0000F46924623B912F0010F60D000F062F8AB
:10D0F00039460620FEF71EFC22684FEA600B0AF054
:10D100000103BBFBF2F9009302FB19B94D4600265F
:10D11000A06850F82580AA0000EB8501B8F1000F47
:10D120000BD11AF0010F42D0002E08BF0E466368E3
:10D1300001336360B846376033E0B8F1040F17D1AC
:10D14000002E08BF0E4622680135B5FBF2F102FB46
:10D150001155A945DCD1009B4BB3002EE7D12046E9
:10D1600000F028F82268BBFBF2F902FB19B9CDE701
:10D1700039464046019200F02FFB019A0028E2D088
:10D180001AF0020F0DD063682068013B013563601F
:10D19000B5FBF0F1A36800FB115553F8251021B938
:10D1A0009950404603B0BDE8F08F0421F8E74FF0F6
:10D1B0000008F6E7F8B505688668154904466B1C53
:10D1C000002231F8020B834206D90132222AF8D11B
:10D1D00003EB530343F001000023206063608000F1
:10D1E000F2F779FF3746A06006EB8505AF4204D120
:10D1F0003046BDE8F840F2F77DBF57F8041B002920
:10D20000F4D00429F2D001222046FFF765FFEDE7B4
:10D21000AEE0050870B501680023994201D10022F3
:10D2200014E0846854F8232004EB83060133002AB9
:10D23000F3D0042AF1D04568013D4560B3FBF1F01D
:10D2400001FB103354F8233013B93360104670BD1E
:10D250000423FAE710B504468068F2F74BFF002379
:10D26000C4E90033A36010BD7047000083070FBFFF
:10D270000068034B00F00F0053F82000704700BF18
:10D28000E0E1050808B5FFF7F1FFBDE80840C088F8
:10D29000F3F776BD37B50D4604460192FFF7E4FC7F
:10D2A0002846FFF7E3FF836833B1019A29462046F9
:10D2B00003B0BDE830401847C2880349204603B098
:10D2C000BDE83040D6F776BBF2E005080A460146D5
:10D2D0000148FFF7DFBF00BFD01406082DE9F34770
:10D2E000044608460E4602F05DF898B101AA694668
:10D2F000304602F0B5F8009B63B11A491A4FDFF8C7
:10D300007080DFF868902046D5F7CAFF009D033D86
:10D31000002D0BDA022231462046FFF7BBFF1349EE
:10D320002046D5F7BDFF02B0BDE8F087019A02EBB9
:10D33000850339465B6852F825202046D6F73AFB2C
:10D34000019B4FEA850A53449A682AB94946204608
:10D35000D5F7A6FF033DDBE741462046D6F72AFB7B
:10D36000F8E700BFF7E005081BE105083E85050862
:10D3700030E1050808B50246FFF778FF0649006965
:10D38000884203D0003818BF012008BDBDE808401E
:10D39000104608F0A1B800BF015303080E2808B5D5
:10D3A000014613D01E2813D0C20701D5401008BD76
:10D3B000830707D10268074B9A4203D1BDE80840B2
:10D3C00003F0F8B90820FEF7B5FAF7E70020EEE71A
:10D3D0000120ECE7B8F30508C20705D4830705D19F
:10D3E0000268034B9A4201D103F0DCB9FFF7D6BFC4
:10D3F000B8F305080E2810B50C4603D100230B60C6
:10D40000012203E01E2803D101220A60104610BD4C
:10D4100010F0010202D043100B60F7E78107F5D14D
:10D420000168034B9942F1D103F0C4F92060E7E7AA
:10D43000B8F305080E2810B50C461DD01E281ED0C6
:10D4400010F0010209D0431000EE103AB8EEC00A05
:10D4500084ED000A0122104610BD8107FBD103684C
:10D4600008498B4202D103F0E3FAF1E706498B4207
:10D47000F1D102F030F9EBE79FED040AE8E7B7EEEF
:10D48000000AE5E7B8F3050868EF050800000000AA
:10D4900013B501A90446FFF7CDFF38B92046FFF7C1
:10D4A000F1FE044902460448FEF7E7F99DED010A42
:10D4B00002B010BD39E10508F0ED05080E28F8B5F9
:10D4C0000D46144604D100230B602360012612E0B0
:10D4D0001E2804D14FF07E530B600023F5E710F0B7
:10D4E00001060AD0431007EE903AF8EEE77A0023DF
:10D4F000C1ED007A13603046F8BD8707FBD10368A1
:10D50000094FBB4204D103F093FA85ED000AE4E72A
:10D51000064FBB4202D102F0DEF8F6E7044CA3420C
:10D52000E9D101F00DF8D1E7B8F3050868EF050877
:10D5300030E5050810B50446FFF7C0FF38B92046AE
:10D54000FFF7A0FE024902460248FEF796F910BD19
:10D5500044E10508F0ED050838B5840703460ED10F
:10D5600004680B4DAC4203D1BDE8384007F046BA21
:10D57000084DAC4203D1BDE8384003F00DBD18465C
:10D58000FFF780FE044902460448FEF776F900BF23
:10D590009803060828F505084BE10508F0ED050895
:10D5A00013B50C4601A9FFF7D7FF019BA34204D096
:10D5B000034904482246FEF760F902B010BD00BFDF
:10D5C00054E1050868EE0508F0B51F46D30785B09D
:10D5D00006460D4614460FD554100394039A002AAC
:10D5E000BCBF52190392039ADFB1002A15DA002357
:10D5F0000393039805B0F0BD03A91046FFF7FAFEA8
:10D600000028EBD1F28801922046FFF73BFE019AF9
:10D61000084903460848FEF730F9AA42E9D90395BC
:10D62000E7E7002A01DBAA42E3D3F2880349044872
:10D63000FEF723F966E10508F0ED050877E1050836
:10D64000A8EA0508820701D003F004B8002803DB2C
:10D65000400040F00100704703F082B8830710B526
:10D66000014610D102680D4B9A420CD100F007031D
:10D67000022B06D1C008F3F77EFB400040F001000A
:10D6800010BD8068F9E70846FFF7F0FD43691BB15C
:10D69000BDE81040052018471846F1E7B4FE05081C
:10D6A0000E2810B504461FD01E2801D1012010BD40
:10D6B000062819D0C20703D5013818BF0120F6E7A4
:10D6C000FFF7D4FD436943B121460420984720B1B8
:10D6D000A0F11E0358425841E9E72046FFF7BEFF7C
:10D6E0000028E3D00138E8E70020E0E705282DE92D
:10D6F000F84F15BF1E260E264FF00E094FF01E09DB
:10D70000914207460C46154607D1C80720D4084663
:10D71000FFF7ACFD838859071AD504F00703022BE5
:10D7200005D0A20717D122682A4B9A4213D105F0DF
:10D730000703022B05D0AB0712D12A68254B9A426A
:10D740000ED12946204605F0F9FC002808BF4E46B8
:10D750003046BDE8F88F14F0010A06D0E80734D44B
:10D7600023464FF0010A2C461D462046FFF77EFD5A
:10D77000D0F818B08046BBF1000F10D08288110796
:10D7800004D42846FFF772FD804508D1052F0DD03F
:10D79000D8F818302A4621460220984780B9BAF1B5
:10D7A000000FDDD0AC4218BF4E46D1E7D306EFD50F
:10D7B0002A4621463846D8470028E9D00646C7E71A
:10D7C000022F04D0FFF76CFFBFE74E46C0E70646C6
:10D7D000BEE700BF1801060808B50A460146022048
:10D7E000FFF784FFBDE80840FFF75ABF10B50446B5
:10D7F000FFF734FF38B92046FFF744FD02490246DF
:10D800000248FEF73AF810BD7EE10508F0ED050884
:10D8100038B504461546FFF729FD036A13B12046C3
:10D820009847A0B9204635B9FFF72CFD08490246B4
:10D830000848FEF722F8042D04D1FFF723FD06491E
:10D840000246F5E7FFF71EFD04490246F0E738BD42
:10D850008BE10508F0ED0508A5E10508B7E105082D
:10D86000704710B50446FFF701FDC36A2BB120468F
:10D870009847B0FA80F0400910BD1846FCE7000058
:10D8800008B5FFF7EEFF10B90148FEF74BFF08BDE2
:10D89000C9E10508062806BF480040F00100002045
:10D8A0007047042803D0052807D0002070478B68F4
:10D8B000002B14BF1E200E2070478868400040F0E7
:10D8C00001007047074B0268C1E900300023C1E93D
:10D8D0000233054B9A4202BF4368C3F317238B60A0
:10D8E00008467047A8E2050884E30508F8B50D4628
:10D8F0000179044601F07F0116464020002208F01D
:10D900007FFBA368E26827682A6043436B60237942
:10D9100003F07F01A96008498F4209D1190601D49B
:10D92000B30707D46368C3F3172300FB0320286001
:10D930000020F8BD0120FCE784E30508F8B50022CB
:10D9400005460E460146402008F05AFB07461020C7
:10D95000F2F7A8FB094A0A4B0571012D18BF1346BF
:10D96000036043686FF31F230446C0E9013606FBDA
:10D9700007F0F2F797FBE0602046F8BD0CE30508DE
:10D9800048E305087FB504460122084601A9FFF7D0
:10D9900077FF00222179402008F032FB6368029D66
:10D9A000B5FBF0F5B5EB132F0646C3F3172219D9D3
:10D9B000A16829444143E068F2F78FFB6368E060A7
:10D9C0006FF31F236360D4E9020305FB06F200FB3B
:10D9D0000630019912F014FCA36806201D44A560CE
:10D9E00004B070BD521B62F31F23EBE7F7B5466826
:10D9F00036F0FF0604460B461FD1019132460179ED
:10DA0000402008F0FDFA6268082161F31F22A16836
:10DA10006260083105464143E068F2F75EFB6268E8
:10DA2000A168E060C2F3172201FB0557013A6A437F
:10DA30003146384412F02AFC019B2079D4E90221B6
:10DA400008F0AAFDA3680133A36063680620A3F56C
:10DA50008073636003B0F0BD4268C36891688B4215
:10DA600030B40AD21479D16882685D1CC5601A444A
:10DA700004F07F0030BC08F063BB002030BC70476E
:10DA80002DE9F04F044687B00D4616460AB9002529
:10DA9000C6E011F003078068DFF8149240F0D680EA
:10DAA0000B687D4A934240F0D1806A4607F04CFFF4
:10DAB00010B97A48FEF764FE2179042E01F07F0147
:10DAC0003A464FF0400000F0948008F099FA16F0C2
:10DAD0000302054659D133687149186A884247D113
:10DAE0003179402001F07F0108F08AFAA84202D083
:10DAF0006C48FEF751FC33684B45D6E9028B04D1E4
:10DB00007368C3F3172305FB03BBDDE90002236839
:10DB1000E668A2EB000A4B45A8EB0A0737D194F957
:10DB20000430002BB3DA002FE2D16368C3F317236C
:10DB300005FB036605FB08F2594605FB006012F081
:10DB40008DFB0199A2680098521A40446A4305FB74
:10DB5000016105FB006012F081FBA068AAEB0802DE
:10DB600038446A43002105FB006012F08FFB35E06A
:10DB70004D4A934209D1012DBAD12A4603A9304614
:10DB8000FFF77EFEDDE903B8BFE7484892E7002FC4
:10DB9000D0DD6368B7EB132F0BD9A1683944304649
:10DBA0006943F2F79AFA6368E06067F31F23064659
:10DBB00063600098A268019940443A44121A6A438B
:10DBC00001FB056105FB006012F048FB009805FBB6
:10DBD00008F2594600FB056012F040FB6368C7EB92
:10DBE000132262F31F236360A3681F44A760062506
:10DBF00016E008F005FA23684B45064614D11020BC
:10DC0000F2F750FA054694E80F0085E80F00009AF5
:10DC100002EB112363F31F216960019B9B1AAB6028
:10DC2000284607B0BDE8F08FDDE900312079C91A38
:10DC3000FFF784FEDDE90032E168D21A054672433F
:10DC400006FB0311C06812F0DBFAE9E700232A465D
:10DC500001462068FFF7B8FC23684B45024611D106
:10DC60006368042E00EB13220ED094F90430002BCD
:10DC7000BFF60DAF2079E168334600F07F0008F071
:10DC80008BFCB4E7042EF5D12079E16800F07F0029
:10DC900008F056FA0546C3E764FC050820E20508CB
:10DCA00081DA020844E20508B4FE05085FE20508CF
:10DCB00084E3050870B51B2888B006460C46154657
:10DCC00026D005D8022865D00E284CD0002447E085
:10DCD0002428FBD1012205A92846FFF7C2FD002810
:10DCE0004AD0A10712D12268364B9A420ED10122A6
:10DCF00002A92046FFF7FAFD01230093DDE90201A6
:10DD0000DDE9052304F068FC002858D10E2427E043
:10DD1000012202A92046FFF7E9FD2846012205A9B4
:10DD2000FFF7AEFD00229DF81010402008F068F9C2
:10DD3000A168069EB6FBF0F6054631449DF810003A
:10DD4000FFF7FCFD0446DDE90212C06812F058FA44
:10DD5000E068039B059906FB05F2184412F050FA9F
:10DD6000204608B070BD0A68174B9A42AED02946CB
:10DD70002046FFF707FEF3E7EA0708D4AB07C5D153
:10DD80002B68124A934202D0114A9342BED100201E
:10DD9000FEF7F6FC012202A92046FFF7A7FD0122AB
:10DDA00005A92846FFF75DFD0028AFD0069B00932C
:10DDB000DDE90212059B304607F005FEA4E71E24AC
:10DDC000CEE700BF48E3050884E30508B8F305087B
:10DDD00068EF05082DE9F043012885B007460E4697
:10DDE00008D08B0724D10B68254A934202D0254ADC
:10DDF00093421DD1012201A93046FFF732FDB8B18F
:10DE000000223946402008F0FBF8029EB6FBF0F6EF
:10DE1000054631463846FFF791FD0199044606FB59
:10DE200005F2C06812F0ECF9204605B0BDE8F083B9
:10DE30003046FFF713FC054600B145102946384629
:10DE4000FFF77CFD002104463046FDF79BFF4FF0B5
:10DE5000000806463046FDF7F5FF03460028E3D0EC
:10DE600025B919462046FFF7C1FDF3E74246E168B0
:10DE700008F10109384608F08FFBC846EAE700BF01
:10DE8000B4FE050848E3050838B50D461C461146A2
:10DE90002846094AFEF7F6FE206805F0AFF9012D85
:10DEA000007804D1BDE838400021FFF747BD616824
:10DEB000BDE83840FFF78EBF040002000B79012B4C
:10DEC000F7B505460C4610D11B490193D5F7E8F983
:10DED000D4E90221019B284604F0A8FA17492846F4
:10DEE00003B0BDE8F040D5F7DBB91A461449D5F7C1
:10DEF00061FDA368002BF1D01249134F2846D5F7D6
:10DF0000CFF90026A368B34204D810492846D5F7B4
:10DF1000C7F9E3E71EB139462846D5F7C1F93246BD
:10DF2000E168207908F00CF9012201462846FFF744
:10DF3000B1F90136E6E700BF7AE20508D4DF06084A
:10DF400086E2050891E2050895E205082AE606083A
:10DF500037B50C462046114606221D46FEF792FEB6
:10DF600034B92146012003B0BDE83040FFF7E6BCDC
:10DF70002968CA070BD48B0703D10A680C4B9A4255
:10DF800005D0012003B0BDE83040FFF723BF0846AD
:10DF9000FFF704FA014601900120FFF7CFFC019A38
:10DFA00004460021C06812F071F9204603B030BD6C
:10DFB000B8F3050870B50646102014460D46F2F772
:10DFC00071F8054A067102604268C4606FF31F224F
:10DFD000C0E9012570BD00BF84E305087FB51D467B
:10DFE000084611464FF00212FEF74CFE2868012247
:10DFF00001A9FFF745FC9DF80C40029E2146002236
:10E00000402007F0FDFF019AB6FBF0F12046FFF734
:10E01000D1FF0322044601A92868FFF722FC18B1AA
:10E02000237963F07F032371204604B070BD0000A4
:10E0300038B5054610200C46F2F734F8034A026062
:10E040000122C0E90125C46038BD00BF48E30508CE
:10E05000136870B56BB94468A51C50F825509C42F4
:10E0600007D055F82360B14204D1023350F8233071
:10E07000136070BD0133F2E72DE9F0470F461449F4
:10E08000DFF85490DFF854A016460446D5F708F997
:10E0900006F1080800257368AB4205D820460D49F3
:10E0A000BDE8F047D5F7FCB81DB149462046D5F785
:10E0B000F7F857F8252051462046D5F77BFC58F84D
:10E0C000041B01222046FFF7E5F80135E3E700BF16
:10E0D00051FC0508D4DF060895E20508C0E30508F1
:10E0E0004B6802330A4651F82310FFF7C5BF0E29CB
:10E0F00014BF03210121FEF757B9052805D00E29C9
:10E1000014BF03210121FDF715BC0020704738B56D
:10E110000C462046114602221D46FEF7B3FD1CB1F7
:10E120002868FFF7BDFA08B90E2038BD1E20FCE7AD
:10E13000032A05D10E2914BF04490549D5F7B0B803
:10E140000E2914BF03490449F8E700BFCCCD0508E8
:10E15000D1CD0508DECE0508D8CE0508136813B961
:10E160004068FDF70BBB70472DE9F84F984602EB6E
:10E1700043035D1C042B00AF82468B4616464FEAD4
:10E1800085051FD8EB1D23F00703ADEB030D6C468F
:10E190004FF000092046B96A40F804BB2A1F12F06C
:10E1A0002FF823464246711C5046FDF751FC0446A9
:10E1B000B9F1000F02D04846F1F79CFF2046BD465A
:10E1C000BDE8F88F2846F1F778FF04460028D9D03B
:10E1D0008146DFE707B5009313460A46D0E90101FF
:10E1E000FFF7C2FF03B05DF804FB000038B5054639
:10E1F0000C200C46F1F756FF024A8460C0E9002566
:10E2000038BD00BF3CE40508406870474160704776
:10E2100010B504460820F1F745FF024AC0E9002482
:10E2200010BD00BF78E405082DE9F047866806EBCD
