:020000040800F2
:1000000010040020A9010008A30B0008E50A00085D
:10001000A10B0008B50200084D0C0008000000000C
:10002000000000000000000000000000A70B000816
:10003000B702000800000000A50B0008A90B00088B
:10004000C3010008C3010008C3010008C301000880
:10005000C3010008C3010008C3010008C301000870
:10006000C3010008C3010008C3010008C301000860
:10007000C3010008C3010008C3010008C301000850
:10008000C3010008C3010008C3010008000000000C
:10009000000000000000000000000000C301000894
:1000A000C3010008C3010008C3010008C301000820
:1000B000C3010008C3010008C3010008C301000810
:1000C000C3010008C3010008C3010008C301000800
:1000D000C3010008C3010008C301000800000000BC
:1000E000C3010008C3010008C301000800000000AC
:1000F000000000000000000000000000C301000834
:1001000000000000C3010008C3010008C30100088B
:1001100000000000000000000000000000000000DF
:10012000C3010008C3010008C3010008C30100089F
:10013000C3010008000000000000000000000000F3
:10014000000000000000000000000000C3010008E3
:10015000C3010008C3010008C3010008C30100086F
:10016000C3010008C30100080000000000000000F7
:10017000000000000000000000000000000000007F
:1001800000000000C30100080000000000000000A3
:10019000C3010008DFF80CD000F07AF800480047EF
:1001A0008D0C0008100400200648804706480047D0
:1001B000FEE7FEE7FEE7FEE7FEE7FEE7FEE7FEE717
:1001C000FEE7FEE7310C0008950100082DE9F05F1D
:1001D0000546002092469B468846064681464024B6
:1001E0001BE0284641464746224600F041F8534668
:1001F0005A46C01A914110D311461846224600F0C3
:1002000028F82D1A67EB01084F46224601200021ED
:1002100000F01FF817EB00094E41201EA4F1010465
:10022000DFDC484631462A464346BDE8F09FD2B25D
:1002300001E000F8012B491EFBD270470022F6E7CF
:1002400010B513460A4604461946FFF7F0FF20464C
:1002500010BD202A04DB203A00FA02F1002070478A
:100260009140C2F1200320FA03F3194390407047F4
:10027000202A04DB203A21FA02F00021704721FAFB
:1002800002F3D040C2F12002914008431946704762
:10029000064C074D06E0E06840F0010394E80700D3
:1002A00098471034AC42F6D3FFF778FFD80C00081B
:1002B000F80C0008FEE7704770B5044600F0E2F85D
:1002C0000546601C02D004480078044400F0DAF8C7
:1002D000401BA042FAD370BD000000202DE9F84F6A
:1002E00000224FF0010803254FF00F0E0B6808FAAB
:1002F00002F42340A34271D14E68012E05D0022E94
:1003000003D0112E01D0122E15D18668570005FAA0
:1003100007FC26EA0C06D1F80CC00CFA07FC4CEAE4
:10032000060CC0F808C04668A6430C79C4F3001454
:10033000944034434460C668570005FA07FC8C6853
:1003400026EA0C06BC403443C4604C68022C01D041
:10035000122C13D1D40800EB8404A346D4F82090C7
:1003600054074FEAD46A0EFA0AF629EA06090E691A
:1003700006FA0AF646EA0906CBF8206004680E7908
:1003800024EA0C0406F00306BE40264306604C68CF
:10039000E40056D52E4C266846F480462660246834
:1003A00022F0030604F4804400942A4C3444A4460A
:1003B000D4F808489607370F0EFA07F6B443264ECE
:1003C000B04201D1002615E0244EB04201D10126F1
:1003D00010E0234EB04202D102260BE031E0214E64
:1003E000B04201D1032605E01F4EB04201D10426E0
:1003F00000E00726BE402643CCF808681B4E346850
:100400004F689C43FF0300D51C433460174E361DD4
:1004100034684F689C43BF0300D51C433460134EBF
:10042000083634684F689C43FF0200D51C43346093
:100430000E4E0C3634684F689C43BF0200D51C43F7
:100440003460521C102AFFF451AFBDE8F88F000051
:1004500044380240003001400000024000040240E5
:1004600000080240000C024000100240003C014025
:100470000069084000D0012070470AB181617047CF
:100480000904FBE701488068704700000000002075
:1004900002488168027811448160704700000020A2
:1004A0000B4810B5016841F400710160016841F426
:1004B00080610160016841F480710160032000F0F7
:1004C00061F8002000F006F800F024F8002010BDCC
:1004D000003C024070B50D4D04464FF47A71287807
:1004E000B1FBF0F00A490968B1FBF0F000F0E6FA60
:1004F00048B9102C07D200222146501E00F022F8E5
:1005000000206C6070BD012070BD00000000002064
:100510000C0000200A4808B5016841F480410160E0
:10052000006800F4804000900548001F016841F019
:1005300080510160006800F08050009008BD00000C
:1005400044380240F0B40E4B1B680C46C3F3022340
:10055000C3F10705042D00D90425191D072901D26F
:10056000002300E0DB1E012606FA05F1491E2140AA
:1005700099409E40761E16403143F0BC00F067BBA8
:100580000CED00E0064900F0070208684FF6FF0393
:10059000184040EA0220034A1043086070470000F8
:1005A0000CED00E00000FA050648026822F00402A3
:1005B0000260012903D040BF20BF20BF704730BF79
:1005C0007047000010ED00E02DE9F0470E460500F1
:1005D00065D0DFF81481D8F80000F7B200F00F0002
:1005E000B04207D288F80070D8F8000000F00F0081
:1005F000B04254D128683D4C810712D5400703D53D
:10060000206840F4E05020602878000703D5206877
:1006100040F4604020602068A96820F0F0000843A2
:1006200020602878C0072DD0304968680839012833
:1006300012D0022813D0032811D009688907002995
:100640002DDA216821F0030101432160FFF71AFF31
:10065000814641F2883A0EE009688903EFE70968AC
:100660008901ECE7FFF70EFFA0EB0901514502D924
:100670000320BDE8F0872068696800F00C00B0EB4B
:10068000810FEFD1D8F80010404601F00F01B142C0
:1006900007D90770006800F00F00B04201D00120B8
:1006A000E7E72878400705D52068E96820F4E0509E
:1006B000084320602878000706D52068296920F4BF
:1006C000604040EAC100206000F018F82168084A44
:1006D000C1F30311515CC840064908600648006830
:1006E000FFF7F8FE0020C4E7003C02400838024053
:1006F000C80C00080C00002004000020154810B5AC
:10070000006810F00C02144813D01449042A0FD0CA
:10071000082A0ED10F4C241F2268236802F03F02E2
:100720005B0207D52068C0F38810A0FB010106E03A
:10073000084610BD2168C1F38811A1FB0001002308
:10074000FFF744FD2168C1F30141491C4900B0FB9A
:10075000F1F010BD083802400024F40040787D011B
:100760002DE9F84F04006ED02078DFF83C93C007E5
:10077000A9F104054AD009F104000168C1F381011F
:10078000012908D00068C0F3810002280AD1D9F8F5
:100790000000400206D52868800337D5606800282D
:1007A000E1D033E06068B0F5803F10D0B0F5A02F05
:1007B000286810D020F480302860286820F4802039
:1007C00028606068A8B1FFF75DFE06460DE0286866
:1007D00040F48030F4E740F480202860F7E700BF61
:1007E000FFF750FE801B642873D828688003F7D574
:1007F0000CE0FFF747FE064605E000BFFFF742FEAC
:10080000801B6428F0D828688003F7D42078DFF8AC
:100810009C8280074FF0000A3ED5A348001D016866
:1008200011F00C0F08D00068C0F3810002280BD132
:10083000D9F80000400207D42868800716D5E06880
:10084000012800D112E02BE1E068B8B10120C8F81E
:100850000000FFF717FE064605E000BFFFF712FE97
:10086000801B0228C0D828688007F7D5286821692E
:1008700020F0F80040EAC10028600DE0C8F800A0B0
:10088000FFF700FE064604E0FFF7FCFD801B022890
:100890001FD828688007F7D42078000722D5824E19
:1008A00083486169703671B101210160FFF7EAFD8B
:1008B000074604E0FFF7E6FDC01B022809D83068B0
:1008C0008007F7D50EE0C0F800A0FFF7DBFD074674
:1008D00005E082E0FFF7D6FDC01B02287DD8306816
:1008E0008007F7D42078400768D5DFF8BCB100272F
:1008F0000BF13C0BDBF80000C0000BD4DBF8001060
:1009000041F08051CBF80010DBF80000012700F027
:1009100080500090674E3068C00510D4306840F4B5
:1009200080703060FFF7AEFD009005E0FFF7AAFD94
:100930000099401A022850D83068C005F6D55A4EA2
:10094000A0686C3601280FD00528306810D020F040
:1009500001003060306820F004003060A068B8B159
:10096000FFF790FD00900FE0306840F00100F4E7E1
:1009700040F004003060F7E7FFF784FD0099411A6A
:1009800041F28830814266D830688007F4D50EE0A5
:10099000FFF778FD009007E0FFF774FD0099411A1A
:1009A00041F28830814256D830688007F4D42FB1A4
:1009B000DBF8001021F08051CBF80010A069C8B31B
:1009C0003949091D0968C1F3810102294AD0022869
:1009D000504607D0C8F8600000E03CE0FFF752FD49
:1009E00004463BE04746C8F86000FFF74BFD06466B
:1009F00005E000BFFFF746FD801B02282BD82868C2
:100A00008001F7D4D4E907010843A16A2A4A4908BA
:100A100002EB0141626A41EA8211084394F82C100A
:100A200040EA0161C9F8001001203866FFF72AFD8D
:100A3000044606E036E000BFFFF724FD001B022855
:100A400009D828688001F7D52CE000BFFFF71AFD10
:100A5000001B022802D90320BDE8F88F2868800116
:100A6000F4D41FE00128F7D0D9F80000E26900F4BF
:100A70008001914214D1226A00F03F0191420FD1CE
:100A800047F6C071626A0140914209D1A26A00F43E
:100A90004031914204D1E16A00F07060884201D097
:100AA0000120D9E70020D7E7043802400000474280
:100AB000800E4742007000400000FFFF10B5401E4E
:100AC000B0F1807F01D3012010BD4FF0E0246061C0
:100AD0000F21601700F0BBF80020A0610720206103
:100AE000002010BDFEE700002DE9F0410B4F0C4641
:100AF00005464FF40056002231463846FFF7BDFC4C
:100B0000681EFFF7D9FB012231463846FFF7B5FCD6
:100B1000601EBDE8F041FFF7CFBB000000080240B7
:100B200070B586B014216846FFF788FB1948002489
:100B3000016841F004010160016801F004010591C0
:100B4000016841F080010160016801F080010591B8
:100B5000016841F0010101600068012200F001001C
:100B60000D4E5503059029463046FFF786FC00954B
:100B70000125CDE90154694630460394FFF7AEFBE9
:100B8000CDE90054694605480295FFF7A7FB06B07A
:100B900070BD0000303802400008024000000240F2
:100BA000FEE7704770477047FFF772BC30B593B0EF
:100BB00030216846FFF742FB14210CA8FFF73EFBEB
:100BC00019480025016841F080510160006800F07B
:100BD000805011901548016821F4404141F40041D2
:100BE00001600068022400F4404011900120009050
:100BF000000401908001CDE9064019200890A8204A
:100C0000CDE9090404200B906846FFF7A9FD0CA963
:100C10000F2081E83100E002CDE90F0502210CA888
:100C2000FFF7D2FC13B030BD4038024000700040E6
:100C30000548016841F47001016003494FF000600C
:100C4000803908607047000088ED00E0FEE7090782
:100C5000090E002804DB00F1E02080F80014704742
:100C600000F00F0000F1E02080F8141D704702E052
:100C700008C8121F08C1002AFAD170477047002027
:100C800001E001C1121F002AFBD17047FFF708FCE9
:100C9000FFF78CFFFFF744FF0A4C4FF4FA75012170
:100CA0002046FFF7E5FB012809D032214FEA010079
:100CB000FFF71AFF01210020FFF776FCEFE7294636
:100CC0000520F5E7000002400000000000000000E1
:100CD0000102030406070809F80C000800000020C0
:100CE000100000006E0C0008080D00081000002025
:100CF000000400007E0C000801000000100000004D
:080D0000000000000024F400D3
:040000050800019559
:00000001FF
