:020000040800F2
:1000000088040020A90100086B1100085B1000089B
:1000100069110008B902000861130008000000001F
:10002000000000000000000000000000B9120008FD
:10003000BB020008000000006D110008BB120008A0
:10004000C3010008C3010008C3010008C301000880
:10005000C3010008C3010008C3010008C301000870
:10006000C3010008C3010008C3010008C301000860
:10007000C3010008C3010008C3010008C301000850
:10008000C3010008C3010008C3010008000000000C
:10009000000000000000000000000000C301000894
:1000A000C3010008C3010008C3010008C301000820
:1000B000C3010008C3010008C3010008C301000810
:1000C000C3010008C3010008C3010008C301000800
:1000D000C3010008C3010008C301000800000000BC
:1000E000C3010008C3010008C301000800000000AC
:1000F000000000000000000000000000C301000834
:1001000000000000C3010008C3010008C30100088B
:1001100000000000000000000000000000000000DF
:10012000C3010008C3010008C3010008C30100089F
:10013000C3010008000000000000000000000000F3
:10014000000000000000000000000000C3010008E3
:10015000C3010008C3010008C3010008C30100086F
:10016000C3010008C30100080000000000000000F7
:10017000000000000000000000000000000000007F
:1001800000000000C30100080000000000000000A3
:10019000C3010008DFF80CD000F07CF800480047ED
:1001A000A51C000888040020064880470648004730
:1001B000FEE7FEE7FEE7FEE7FEE7FEE7FEE7FEE717
:1001C000FEE7FEE745130008950100082DE9F05F02
:1001D0000546002092469B468846064681464024B6
:1001E0001BE0284641464746224600F041F8534668
:1001F0005A46C01A914110D311461846224600F0C3
:1002000028F82D1A67EB01084F46224601200021ED
:1002100000F01FF817EB00094E41201EA4F1010465
:10022000DFDC484631462A464346BDE8F09FD2B25D
:1002300001E000F8012B491EFBD270470022F6E7CF
:1002400010B513460A4604461946FFF7F0FF20464C
:1002500010BD202A04DB203A00FA02F1002070478A
:100260009140C2F1200320FA03F3194390407047F4
:10027000202A04DB203A21FA02F00021704721FAFB
:1002800002F3D040C2F12002914008431946704762
:1002900000207047064C074D06E0E06840F001037F
:1002A00094E8070098471034AC42F6D3FFF776FF86
:1002B000741E0008941E0008FEE770477047000097
:1002C00070B5044600F0DEF80546601C02D0044814
:1002D0000078044400F0D6F8401BA042FAD370BD69
:1002E000000000202DE9F84F00224FF001080325FF
:1002F0004FF00F0E0B6808FA02F42340A34271D1AD
:100300004E68012E05D0022E03D0112E01D0122EE0
:1003100015D18668570005FA07FC26EA0C06D1F8C5
:100320000CC00CFA07FC4CEA060CC0F808C0466882
:10033000A6430C79C4F30014944034434460C66867
:10034000570005FA07FC8C6826EA0C06BC403443CB
:10035000C4604C68022C01D0122C13D1D40800EBDD
:100360008404A346D4F8209054074FEAD46A0EFAC6
:100370000AF629EA06090E6906FA0AF646EA0906A5
:10038000CBF8206004680E7924EA0C0406F003061A
:10039000BE40264306604C68E40056D52E4C2668C5
:1003A00046F480462660246822F0030604F4804464
:1003B00000942A4C3444A446D4F808489607370FD2
:1003C0000EFA07F6B443264EB04201D1002615E0DE
:1003D000244EB04201D1012610E0234EB04202D19A
:1003E00002260BE031E0214EB04201D1032605E0A8
:1003F0001F4EB04201D1042600E00726BE4026432E
:10040000CCF808681B4E34684F689C43FF0300D546
:100410001C433460174E361D34684F689C43BF033D
:1004200000D51C433460134E083634684F689C4333
:10043000FF0200D51C4334600E4E0C3634684F6802
:100440009C43BF0200D51C433460521C102AFFF4A9
:1004500051AFBDE8F88F0000443802400030014041
:10046000000002400004024000080240000C02406C
:1004700000100240003C01400AB18161704709044C
:10048000FBE7000001488068704700000000002082
:1004900002488168027811448160704700000020A2
:1004A0000B4810B5016841F400710160016841F426
:1004B00080610160016841F480710160032000F0F7
:1004C00061F8002000F006F800F024F8002010BDCC
:1004D000003C024070B50D4D04464FF47A71287807
:1004E000B1FBF0F00A490968B1FBF0F000F0A1FDA2
:1004F00048B9102C07D200222146501E00F022F8E5
:1005000000206C6070BD012070BD00000000002064
:100510000C0000200A4808B5016841F480410160E0
:10052000006800F4804000900548001F016841F019
:1005300080510160006800F08050009008BD00000C
:1005400044380240F0B40E4B1B680C46C3F3022340
:10055000C3F10705042D00D90425191D072901D26F
:10056000002300E0DB1E012606FA05F1491E2140AA
:1005700099409E40761E16403143F0BC01F013B8FE
:100580000CED00E0064900F0070208684FF6FF0393
:10059000184040EA0220034A1043086070470000F8
:1005A0000CED00E00000FA050648026822F00402A3
:1005B0000260012903D040BF20BF20BF704730BF79
:1005C0007047000010ED00E02DE9F0470E460500F1
:1005D00065D0DFF81481D8F80000F7B200F00F0002
:1005E000B04207D288F80070D8F8000000F00F0081
:1005F000B04254D128683D4C810712D5400703D53D
:10060000206840F4E05020602878000703D5206877
:1006100040F4604020602068A96820F0F0000843A2
:1006200020602878C0072DD0304968680839012833
:1006300012D0022813D0032811D009688907002995
:100640002DDA216821F0030101432160FFF71AFF31
:10065000814641F2883A0EE009688903EFE70968AC
:100660008901ECE7FFF70EFFA0EB0901514502D924
:100670000320BDE8F0872068696800F00C00B0EB4B
:10068000810FEFD1D8F80010404601F00F01B142C0
:1006900007D90770006800F00F00B04201D00120B8
:1006A000E7E72878400705D52068E96820F4E0509E
:1006B000084320602878000706D52068296920F4BF
:1006C000604040EAC100206000F018F82168084A44
:1006D000C1F30311515CC840064908600648006830
:1006E000FFF7F8FE0020C4E7003C02400838024053
:1006F000241D00080C00002004000020154810B53F
:10070000006810F00C02144813D01449042A0FD0CA
:10071000082A0ED10F4C241F2268236802F03F02E2
:100720005B0207D52068C0F38810A0FB010106E03A
:10073000084610BD2168C1F38811A1FB0001002308
:10074000FFF744FD2168C1F30141491C4900B0FB9A
:10075000F1F010BD083802400024F40040787D011B
:100760002DE9F84F04006ED02078DFF83C93C007E5
:10077000A9F104054AD009F104000168C1F381011F
:10078000012908D00068C0F3810002280AD1D9F8F5
:100790000000400206D52868800337D5606800282D
:1007A000E1D033E06068B0F5803F10D0B0F5A02F05
:1007B000286810D020F480302860286820F4802039
:1007C00028606068A8B1FFF75DFE06460DE0286866
:1007D00040F48030F4E740F480202860F7E700BF61
:1007E000FFF750FE801B642873D828688003F7D574
:1007F0000CE0FFF747FE064605E000BFFFF742FEAC
:10080000801B6428F0D828688003F7D42078DFF8AC
:100810009C8280074FF0000A3ED5A348001D016866
:1008200011F00C0F08D00068C0F3810002280BD132
:10083000D9F80000400207D42868800716D5E06880
:10084000012800D112E02BE1E068B8B10120C8F81E
:100850000000FFF717FE064605E000BFFFF712FE97
:10086000801B0228C0D828688007F7D5286821692E
:1008700020F0F80040EAC10028600DE0C8F800A0B0
:10088000FFF700FE064604E0FFF7FCFD801B022890
:100890001FD828688007F7D42078000722D5824E19
:1008A00083486169703671B101210160FFF7EAFD8B
:1008B000074604E0FFF7E6FDC01B022809D83068B0
:1008C0008007F7D50EE0C0F800A0FFF7DBFD074674
:1008D00005E082E0FFF7D6FDC01B02287DD8306816
:1008E0008007F7D42078400768D5DFF8BCB100272F
:1008F0000BF13C0BDBF80000C0000BD4DBF8001060
:1009000041F08051CBF80010DBF80000012700F027
:1009100080500090674E3068C00510D4306840F4B5
:1009200080703060FFF7AEFD009005E0FFF7AAFD94
:100930000099401A022850D83068C005F6D55A4EA2
:10094000A0686C3601280FD00528306810D020F040
:1009500001003060306820F004003060A068B8B159
:10096000FFF790FD00900FE0306840F00100F4E7E1
:1009700040F004003060F7E7FFF784FD0099411A6A
:1009800041F28830814266D830688007F4D50EE0A5
:10099000FFF778FD009007E0FFF774FD0099411A1A
:1009A00041F28830814256D830688007F4D42FB1A4
:1009B000DBF8001021F08051CBF80010A069C8B31B
:1009C0003949091D0968C1F3810102294AD0022869
:1009D000504607D0C8F8600000E03CE0FFF752FD49
:1009E00004463BE04746C8F86000FFF74BFD06466B
:1009F00005E000BFFFF746FD801B02282BD82868C2
:100A00008001F7D4D4E907010843A16A2A4A4908BA
:100A100002EB0141626A41EA8211084394F82C100A
:100A200040EA0161C9F8001001203866FFF72AFD8D
:100A3000044606E036E000BFFFF724FD001B022855
:100A400009D828688001F7D52CE000BFFFF71AFD10
:100A5000001B022802D90320BDE8F88F2868800116
:100A6000F4D41FE00128F7D0D9F80000E26900F4BF
:100A70008001914214D1226A00F03F0191420FD1CE
:100A800047F6C071626A0140914209D1A26A00F43E
:100A90004031914204D1E16A00F07060884201D097
:100AA0000120D9E70020D7E7043802400000474280
:100AB000800E4742007000400000FFFF70B5040048
:100AC00005D00025A56294F8510010B106E0012080
:100AD00070BD84F85050204600F030F8022084F8B1
:100AE00051002068016821F040010160D4E9010152
:100AF0000843D4E903121143084361690843218B79
:100B000001F400710843E1690843216A0843A16ABE
:100B1000084321680860A069042101EA1040616A65
:100B20000843216848602068C16921F40061C161FF
:100B30006565012084F85100002070BD10B586B0B5
:100B4000044614216846FFF779FB13492068884260
:100B500020D112480021026842F4805202600068ED
:100B600000F4805005900D481438026842F00102EC
:100B70000260006800F001000590E0200090022073
:100B8000CDE9010103200390052004906946044843
:100B9000FFF7A8FB06B010BD00300140443802400A
:100BA000000002402DE9F84F0446406800259846B1
:100BB00016460F464FF0040BB0F5827F01D1A068B6
:100BC00088B194F85000012818D0012084F8500012
:100BD000FFF758FC814694F851004FF0000A0128B5
:100BE0000ED002257DE084F851B013460A46204617
:100BF000CDF8008000F02CF9BDE8F88F0220FBE76B
:100C0000002F6DD0002E6BD084F851B0C4F854A0E2
:100C1000A763A687E687C4F830A0A4F834A0A4F898
:100C200036A0C4F840A0C4F844A0A068B0F5004FB6
:100C300004D12068016821F48041016020680168C6
:100C4000490603D4016841F040010160E068D8B171
:100C500039E020688168C90709D0007BA16B087062
:100C6000A06B401CA063E08F401EE0870CE0FFF704
:100C700009FCA0EB0901414503D3B8F1FF3F03D0C4
:100C800036E0B8F1000F33D0E08F0028E1D11DE04D
:100C900020688168C90709D0C068A16B0880A06B73
:100CA000801CA063E08F401EE0870CE0FFF7EAFBAA
:100CB000A0EB0901414503D3B8F1FF3F03D017E092
:100CC000B8F1000F14D0E08F0028E1D14A46414628
:100CD000204600F04CFA08B120206065606D00B13C
:100CE0000125012084F8510084F850A0284683E7AC
:100CF0000325F6E72DE9F84F044690F85000002749
:100D00001D461646894601280DD04FF0010B84F888
:100D100050B0FFF7B7FB804694F85100BA4601285F
:100D200004D002278EE00220BDE8F88FB9F1000F51
:100D30007DD0002E7BD0032084F85100C4F854A04D
:100D4000C4F83090A686E686C4F838A0A4F83CA083
:100D5000A4F83EA0C4F844A0C4F840A0A068B0F530
:100D6000004F04D12068016841F48041016020688F
:100D70000168490603D4016841F040010160E06860
:100D8000B0F5006F606803D030B3012E24D040E08E
:100D900008B1012E1CD1206B21680088C86006E0D4
:100DA00020688168890709D5216B0988C160206B9B
:100DB000801C2063E08E401EE08609E0FFF762FBA6
:100DC000A0EB0800A84202D3681C01D031E07DB33B
:100DD000E08E0028E4D11FE0206B216800780873C2
:100DE00006E020688168890709D5216B09780173BD
:100DF000206B401C2063E08E401EE08609E0FFF778
:100E000041FBA0EB0800A84202D3681C01D010E00F
:100E100075B1E08E0028E4D142462946204600F014
:100E2000D5F908B120206065A06820B107E008E08E
:100E3000FFE7032706E02068C16880680090606DC6
:100E400000B1012784F851B084F850A038466BE710
:100E50002DE9F84F044690F8500000270A9E1D46E1
:100E600092468B464FF0010901280ED0012084F8EC
:100E70005000FFF707FB804694F851006168012895
:100E80000CD0B1F5827F07D102E00220BDE8F88FD7
:100E9000A16809B9042801D00227C2E0BBF1000F04
:100EA00027D0BAF1000F24D01DB394F851000428C4
:100EB00002D0052084F8510000206065C4F838A0F5
:100EC000E587A587C4F830B0E586A5862064606410
:100ED00020680168490603D4016841F040010160BF
:100EE000E068B0F5006F606805D0E8B3012D46D02A
:100EF0007FE0012795E008B1012D39D1206B2168F1
:100F00000088C860206B801C2063E08E401EE08655
:100F10002EE02068816889070FD5E18E69B1B9F1AB
:100F2000010F0AD1216B0988C160206B801C2063EE
:100F3000E08E401EE0864FF0000920688168C907F6
:100F40000CD0E18F51B1C068A16B0880A06B801CF0
:100F5000A063E08F401EE0874FF00109FFF792FA8F
:100F6000A0EB0800B04200E009E001D3701C50D1B2
:100F7000E08E0028CDD1E08F0028CAD13FE0206B61
:100F8000216800780873206B401C2063E08E401EAF
:100F9000E0862EE02068816889070FD5E18E69B16F
:100FA000B9F1010F0AD1216B09780173206B401C44
:100FB0002063E08E401EE0864FF0000920688168C3
:100FC000C9070CD0E18F51B1C068A16B0870A06B4C
:100FD000401CA063E08F401EE0874FF00109FFF73F
:100FE00051FAA0EB0800B04202D3701C01D010E00F
:100FF0007EB1E08E0028CDD1E08F0028CAD14246D4
:101000003146204600F0E2F828B101272020606533
:1010100007E0032705E0A06818B92068C168806868
:101020000090012084F85100002084F850003846D8
:101030002CE710B5401EB0F1807F01D3012010BD18
:101040004FF0E02460610F21601700F0ACFA00203F
:10105000A06107202061002010BDFEE72DE9F041CE
:101060000B4F0C4605464FF40056002231463846D9
:10107000FFF702FA681EFFF723F9012231463846CE
:10108000FFF7FAF9601EBDE8F041FFF719B900005B
:1010900000080240F0B587B014216846FFF7CEF88B
:1010A0001D480024016841F004010160016801F05D
:1010B00004010591016841F080010160016801F0BF
:1010C00080010591016841F0010101600068012281
:1010D00000F00100114E5503059029463046FFF7F8
:1010E000CBF90F4F002210213846FFF7C5F90095C4
:1010F0000125CDE90154694630460394FFF7F2F823
:1011000010200090CDE90154694638460394FFF75A
:10111000E9F807B0F0BD0000303802400008024096
:10112000000002400F4810B50D4901604FF4827174
:10113000416000218160C1604FF400720161C0E92B
:101140000512C1610162416281620A21C162FFF739
:10115000B5FC002803D0BDE81040FFF7AFB810BDC4
:101160000030014014000020FEE770477047F8B5DA
:10117000044640684FF48273984221D1A0684FF42E
:101180008065B0F5004F01D0A8420AD120680668FA
:1011900026F0400606606068984211D1A068A84217
:1011A0000ED000920B4600228021204600F03AF833
:1011B000002804D0606D40F0200060650320F8BD79
:1011C00000920B4600220121EFE7000038B50446EB
:1011D0001248134B0068B0FBF3F04FF47A73584396
:1011E00000906068B0F5827F0DD10B46009200221E
:1011F0008021204600F016F870B1606D40F02000AC
:101200006065032038BD009830B1401E0090206812
:101210008068C0430006F6D5002038BD0C000020D1
:1012200000366E012DE9F0411D4617460E46044674
:10123000DDF8188008E0681C06D0FFF723F9A0EB62
:101240000800A8420BD255B12068806836EA000039
:1012500030D00020B842EED10020BDE8F0812068F7
:10126000416821F0E00141606068B0F5827F0BD1F8
:10127000A068B0F5004F02D0B0F5806F04D12068AF
:10128000016821F040010160A06AB0F5005F09D15A
:101290002068016821F4005101602068016841F470
:1012A00000510160012084F85100002084F85000B2
:1012B0000320D2E70120CDE77047FFF7E9B800002F
:1012C00030B593B030216846FEF7B8FF14210CA862
:1012D000FEF7B4FF19480025016841F08051016014
:1012E000006800F0805011901548016821F44041D9
:1012F00041F4004101600068022400F44040119074
:1013000001200090000401908001CDE906401920E1
:101310000890A820CDE9090404200B906846FFF747
:101320001FFA0CA90F2081E83100E002CDE90F057A
:1013300002210CA8FFF748F913B030BD4038024035
:10134000007000400548016841F4700101600349E4
:101350004FF00060803908607047000088ED00E0C1
:10136000FEE7000038B5FFF78DF80446C7208DF87A
:10137000000000F0D3F8114D002210212846FFF79D
:101380007BF84FF47A73012269460D48FFF7B2FCEF
:10139000012210212846FFF76FF80A4D07E000BF31
:1013A000FFF770F8001BA84201D9032038BD00F0F8
:1013B0000BF80228F4D0002038BD000000000240E5
:1013C0001400002090D003007CB511A0114C0068DF
:1013D0000090002210212046FFF74EF84FF47A7556
:1013E0002B46012269460C48FFF784FC2B4601225C
:1013F00001A90948FFF7D6FB012210212046FFF77B
:101400003BF89DF80400C00700D002207CBD00001E
:1014100005000000000002401400002038B504461A
:101420004FF48070A061000160610001E0606846D7
:1014300000F048F8BDF80000A0F56F40133805280B
:1014400001D3012038BD00EE100AF8EEC00AB0EE5C
:10145000000A00F0B9F8BCEEC00ABDF8001010EEAA
:10146000100A0005C4E900106169B0FBF1F12161C7
:10147000E168B0FBF1F0A060002038BD38B50DA0E8
:101480000D4C00680090002210212046FEF7F4FF6A
:101490004FF47A73022269460848FFF72BFC0122B9
:1014A00010212046FEF7E8FFBDE838400448FFF76A
:1014B000B5BF000066990000000002401400002043
:1014C0006C0000207CB5044611A0124D006801900C
:1014D000002210212846FEF7CFFF4FF47A763346DC
:1014E000042201A90C48FFF705FC33460222694695
:1014F0000948FFF757FB9DF801009DF800100122F5
:1015000000EB0120208010212846FEF7B5FF7CBDAE
:10151000900000000000024014000020F8B515A063
:1015200000680090FEF7AEFF134E05460022102122
:101530003046FEF7A1FF4FF47A7423460122694634
:101540000E48FFF7D7FB012210213046FEF794FF2B
:101550000AE000BFFEF796FF401BA04201D903201E
:10156000F8BD0120FEF7ACFEFFF72EFF0228F1D0F8
:101570000020F8BD0600000000000240140000201A
:101580004100080218BF04200A0E18BF40F00100F5
:101590004FF07F4232EA010108BF40F0020001280B
:1015A00008BF052070470907090E002804DB00F179
:1015B000E02080F80014704700F00F0000F1E020F8
:1015C00080F8141D7047000010B510EE100A2DEDC4
:1015D000068BB7EE001A10EE901AB0EE418A002288
:1015E000A0F5000CDFEDFE9A4FF00073BCF1FE4F4A
:1015F0004FF07F4403EB410C80F0B481BCF1804F8D
:10160000C0F02082F74901449FEDF73AB1F5005F41
:1016100040F2D48200F58021CB0C03F00F0101EEE3
:10162000901AC3F307137F3BA0EBC350B8EEE12A37
:1016300000EE100A1A44DFEDED2AF0EE411A42EEF8
:10164000221AF0EE613A70EE232A30EE632A12EE8F
:10165000900A00F500606FF30B0001EE900A73EE44
:10166000E13A33EE804AC1EE223A22EE230A10EE2E
:10167000100A00F500606FF30B0000EE100A00EE98
:10168000612A00EE442A62EE232A70EE221A21EE2D
:10169000A12ADFEDD73A02EE233A23EE023A20EEFA
:1016A000012A22EE811A03EE211A32EE010A10EE0F
:1016B000100A00F500606FF30B0000EE100A72EEE6
:1016C000401A31EE812A9FEDCB1A60EE011A9FED90
:1016D000CA1A20EE011A9FEDC90A02EE001A31EE75
:1016E000810A10EE100A00F500606FF30B0000EEA7
:1016F000100AC34871EEC01A31EE812A784400EB1B
:10170000C10090ED003AD0ED011A100101EE100A6F
:10171000F8EEC12A32EE211A31EE001A31EE031A28
:1017200031EE221A11EE100A00F500606FF30B0083
:1017300009EE100A39EE621A31EE431A31EE400A10
:1017400030EE610A32EE40AA10EE900A002100F558
:1017500000606FF30B0008EE900A084670EEE8AAEE
:10176000FEF796FD29EE280A00F00C01F0EEC00A03
:1017700010EE900AB0F18B4F0DDD10EE900AB4EB35
:10178000400F08D310EE100A4FF08B4262F31E0098
:1017900008EE900A13E069EE2A0A38EEAA1A4AEE19
:1017A000010A30EE201A11EE100A00F500606FF306
:1017B0000B0008EE900A30EE680A70EE209A0C20BA
:1017C000FEF766FD38EEA90AB5EEC00AF1EE10FA92
:1017D00034BFFEEE000AF6EE000A30EE800ABDEEDF
:1017E000C00A10EE100A011100EE101AF8EEC00A3D
:1017F00000EE100AB8EEC00A38EEC00A30EE290A30
:10180000DFED801A9FED801A00EE211ADFED7F1ABE
:101810007F4900F00F0040EE011A21EE800A794462
:1018200001EB800191ED001A7A49794401EB8001C6
:10183000D1ED001A784901EE801A794401EB80005D
:10184000764990ED000A31EE001AB0EEE00A10EE93
:10185000100A884215DA10EE100AB4EB400F10D3CC
:101860009FED6F0A30EE800ADFED6E0A20EE200A4F
:1018700068EE010ABDEC068BBCEEC00A20EE200A21
:1018800010BD10EE100A6849884243DA10EE100AC3
:10189000B4EB400F3ED3BDEEE00A68EE010A10EE55
:1018A000100A00EBD0725110C90501F17E5100EE13
:1018B000101AA0EB6200C00560EE200A00F17E5015
:1018C00000EE100A60EE808A18EE900AB4EB400F2A
:1018D0000FD1022000F0E0F900F0BEF910EE101A6E
:1018E00018EE100ABDEC068B61F31E0000EE100A24
:1018F00010BD18EE900A400011D018EE900AFFF7C4
:101900003FFE042808BF00F0AFF9B0EE680ABDEC56
:10191000068B10BDF5EEC00AF1EE10FA0FD20220D0
:1019200000F0BAF900F0A0F910EE101A18EE100A43
:10193000BDEC068B61F31E0000EE100A10BD022004
:1019400000F0AAF900F088F910EE101AB0EE480A7B
:1019500010EE100ABDEC068B61F31E0000EE100ABB
:1019600010BD00BFBCF1804F6CD300BF00F1FF433E
:10197000B3F1FE4F24D200BFB0EEC00A10EE100A41
:10198000C1F3C7537F2B0DDB972BBFF63BAEC3F1E3
:1019900096034FF0010C0CFA03F3A3F1010C1CEABF
:1019A000010F08D0012000F077F9BDEC068BBDE8EF
:1019B000104000F049B90B4218BFBFEE008A21E683
:1019C00043001CBF4FF08073B3EB400F34D96FF06E
:1019D0001A02DFED161A20EE210A10EE100A27E097
:1019E00000000000001080C0ABAAAA3E0000803DAD
:1019F0007EE24C3E00B03842D49AB8BB3BAA384293
:101A000034060000FC596337C9FF753A1872313D3E
:101A1000D205000006060000760500000000FC422A
:101A20000000FE420000004B000040430000004D5B
:101A300010F0004FA0D1E5E5A0F50003B3F1FE4F93
:101A400021D2DFE503EB4103B3F1007F11D3F5EEC3
:101A5000C00AF1EE10FA05D1430018BFB4EB400FF5
:101A600076D883E701F0004141F0FC5100EE901A76
:101A70007CE7B3F1807F06D210EE903AA3F5000325
:101A800000EE903A72E720F000426FF0FF4C604C9D
:101A900002EB0C03A34210D321F000439C44A44565
:101AA0000BD3B0F17E5F18BF5FEA410C50D0B2F1AA
:101AB000FF4F98BFB3F1FF4F05D9BDEC068BBDE8D2
:101AC000104000F0BDB8B0F1FF4F0FD0C1F3C752C6
:101AD0007F2A09DB972A11DAC2F19602012303FA61
:101AE00002F2531E0B4205D0002208E011F0004F15
:101AF00055D128E00A4218BF012200D1022210F578
:101B0000000F13D028B3B0F1004F26D010F1814F51
:101B10004FD04FF0FE42B2EB400F94BF01200020A7
:101B2000012202EBE171884239D10CE011F0004F43
:101B300002D0012A38D032E0012A02BF9FED350AD7
:101B4000BDEC068B10BD9FED340ABDEC068B10BDBD
:101B50002FE011F0004F0CD121E0B1F1FF4F1ED06A
:101B600011F5000F05D011F0004F15D00AB1012A70
:101B700008D0022000F090F8BDEC068BBDE81040C4
:101B800000F054B8022000F087F800F04FF8BDECE8
:101B9000068BB1EE400A10BD0AB1012A04D0B0EEA6
:101BA000690ABDEC068B10BDBDEC068B9FED1B0AD0
:101BB00010BDBDEC068BB7EE000A10BD30EE410A39
:101BC000B5EE001A9FED172A00EE413AB6EE001A64
:101BD00060EE001A00EE431A61EEC11A9FED101A72
:101BE00020EE011A20EE020A9FED0F2A01EE820A72
:101BF00071EE001A11EE900A00F500606FF30B0011
:101C000009EE100A31EE491A31EE00AA9CE50000F7
:101C1000FFFF3F00000080FF0000807F0000008089
:101C200000B0B841D49A38BB3BAAB841DFED030AF3
:101C3000B7EE001A81EE200A704700000000000095
:101C400030EE200A70470000DFED020A80EEA00AA5
:101C500070470000000000009FED020A20EE000A1D
:101C600070470000000000709FED020A20EE000A9D
:101C7000704700000000001002E008C8121F08C1F1
:101C8000002AFAD170477047002001E001C1121FFD
:101C9000002AFBD17047000001490860704700002E
:101CA00010000020FEF7FCFBFFF70AFBFFF7F2F93C
:101CB000FFF738FAFFF7E2FB18480068A0F56F401D
:101CC0001338052808D332210846FFF7C7F9012148
:101CD0000846FEF769FCF6E74FF49674502120465B
:101CE000FFF7BCF950212046FFF7B8F900224FF466
:101CF00000510B48FEF7C0FBFFF734FB04464FF4DE
:101D0000FA7544B128462946FFF7A8F9012108468B
:101D1000FEF74AFCF5E729463220F5E76C00002083
:101D2000000802400000000000000000010203045F
:101D30000607080900000000000000000000B33F93
:101D4000B2BE7D3A00002E40DFCF513800007E4009
:101D5000BF51FABA00E0A44019DAC3BA00E0C840A3
:101D6000C2ED8AB90040EB40CD1F2CBA00100641ED
:101D70002AFFFABA00C01541DFCFD13700D0244185
:101D80009A97703A0050334189478E36004041415E
:101D9000E75B9D3800B04E41C00A98B900A05B4196
:101DA000558F943A00306841DA92C0BA00407441CD
:101DB00062B3C63A0000803F00A0853F00908B3F91
:101DC00000C0913F0030983F00F09E3F00F0A53FDB
:101DD0000050AD3F0000B53F0000BD3F0060C53F73
:101DE0000020CE3F0040D73F00C0E03F00C0EA3FA8
:101DF0000020F53F000000007D36AC397D3C3839CD
:101E0000EBDCF438320A7E39124C26399B6AED3904
:101E1000A4EE83397F661E39F6398A392B4265393B
:101E2000A48211395B991F39C3EECD39DDE7C6377E
:101E3000A5A22F390000803FC3AA853FC2958B3FE2
:101E4000D3C3913FF037983F32F59E3FD7FEA53F71
:101E50003F58AD3FF304B53FA408BD3F2A67C53FD7
:101E60008C24CE3FFD44D73FDFCCE03FC7C0EA3FE4
:101E70007D25F53F941E000800000020140000009E
:101E8000781C0008A81E000814000020740400003C
:101E9000881C000801000000100000000000000085
:081EA0000024F4000000000022
:040000050800019559
:00000001FF
