:020000040800F2
:1000000010040020AD0100086F0B0008F90A000879
:100010006D0B0008B90200081D0C0008000000006C
:10002000000000000000000000000000750B000848
:10003000BB02000800000000730B0008770B0008EB
:10004000C7010008C7010008C7010008C701000870
:10005000C7010008C7010008C7010008C701000860
:10006000C7010008C7010008C7010008C701000850
:10007000C7010008C7010008C7010008C701000840
:10008000C7010008C7010008C70100080000000000
:10009000000000000000000000000000C701000890
:1000A000C7010008C7010008C7010008C701000810
:1000B000C7010008C7010008C7010008C701000800
:1000C000C7010008C7010008C7010008C7010008F0
:1000D000C7010008C7010008C701000800000000B0
:1000E000C7010008C7010008C701000800000000A0
:1000F000000000000000000000000000C701000830
:1001000000000000C7010008C7010008C70100087F
:1001100000000000000000000000000000000000DF
:10012000C7010008C7010008C7010008C70100088F
:10013000C7010008000000000000000000000000EF
:10014000000000000000000000000000C7010008DF
:10015000C7010008C7010008C7010008C70100085F
:10016000C7010008C70100080000000000000000EF
:10017000000000000000000000000000000000007F
:1001800000000000C701000800000000000000009F
:10019000C7010008C7010008DFF80CD000F07AF8AA
:1001A000004800475D0C0008100400200648804706
:1001B00006480047FEE7FEE7FEE7FEE7FEE7FEE74C
:1001C000FEE7FEE7FEE7FEE7010C000899010008E4
:1001D0002DE9F05F0546002092469B46884606467C
:1001E000814640241BE0284641464746224600F00F
:1001F00041F853465A46C01A914110D31146184649
:10020000224600F028F82D1A67EB01084F462246D7
:100210000120002100F01FF817EB00094E41201EBD
:10022000A4F10104DFDC484631462A464346BDE8D6
:10023000F09FD2B201E000F8012B491EFBD27047BB
:100240000022F6E710B513460A4604461946FFF7A2
:10025000F0FF204610BD202A04DB203A00FA02F10C
:10026000002070479140C2F1200320FA03F31943A4
:1002700090407047202A04DB203A21FA02F0002146
:10028000704721FA02F3D040C2F1200291400843A6
:1002900019467047064C074D06E0E06840F0010340
:1002A00094E8070098471034AC42F6D3FFF778FF84
:1002B000980C0008B80C0008FEE7704770B50446BB
:1002C00000F0E4F80546601C02D0044800780444BD
:1002D00000F0DCF8401BA042FAD370BD0000002003
:1002E0002DE9F84F00224FF0010803254FF00F0EC3
:1002F0000B6808FA02F42340A34271D14E68012E24
:1003000005D0022E03D0112E01D0122E15D18668F1
:10031000570005FA07FC26EA0C06D1F80CC00CFAC7
:1003200007FC4CEA060CC0F808C04668A6430C79E6
:10033000C4F30014944034434460C668570005FA7F
:1003400007FC8C6826EA0C06BC403443C4604C6849
:10035000022C01D0122C13D1D40800EB8404A34644
:10036000D4F8209054074FEAD46A0EFA0AF629EA24
:1003700006090E6906FA0AF646EA0906CBF8206075
:1003800004680E7924EA0C0406F00306BE402643F6
:1003900006604C68E40056D52E4C266846F480462C
:1003A0002660246822F0030604F4804400942A4C5A
:1003B0003444A446D4F808489607370F0EFA07F6D7
:1003C000B443264EB04201D1002615E0244EB0427F
:1003D00001D1012610E0234EB04202D102260BE0EB
:1003E00031E0214EB04201D1032605E01F4EB0425C
:1003F00001D1042600E00726BE402643CCF8086859
:100400001B4E34684F689C43FF0300D51C43346087
:10041000174E361D34684F689C43BF0300D51C43FC
:100420003460134E083634684F689C43FF0200D591
:100430001C4334600E4E0C3634684F689C43BF0238
:1004400000D51C433460521C102AFFF451AFBDE8A4
:10045000F88F0000443802400030014000000240A4
:100460000004024000080240000C0240001002405C
:10047000003C0140426931EA020200D10904816175
:1004800070470AB1816170470904FBE70148806841
:100490007047000000000020024881680278114483
:1004A00081607047000000200B4810B5016841F4DE
:1004B00000710160016841F480610160016841F4EC
:1004C00080710160032000F061F8002000F006F860
:1004D00000F024F8002010BD003C024070B50D4D26
:1004E00004464FF47A712878B1FBF0F00A490968A4
:1004F000B1FBF0F000F0ECFA48B9102C07D2002262
:100500002146501E00F022F800206C6070BD0120D2
:1005100070BD0000000000200C0000200A4808B553
:10052000016841F480410160006800F4804000905F
:100530000548001F016841F080510160006800F02B
:100540008050009008BD000044380240F0B40E4BCB
:100550001B680C46C3F30223C3F10705042D00D921
:100560000425191D072901D2002300E0DB1E012606
:1005700006FA05F1491E214099409E40761E16401C
:100580003143F0BC00F04BBB0CED00E0064900F03D
:10059000070208684FF6FF03184040EA0220034AAA
:1005A00010430860704700000CED00E00000FA0501
:1005B000704700002DE9F0470E46050065D0DFF8D2
:1005C0001481D8F80000F7B200F00F00B04207D253
:1005D00088F80070D8F8000000F00F00B04254D145
:1005E00028683D4C810712D5400703D5206840F4A8
:1005F000E05020602878000703D5206840F4604070
:1006000020602068A96820F0F00008432060287866
:10061000C0072DD0304968680839012812D0022857
:1006200013D0032811D00968890700292DDA216821
:1006300021F0030101432160FFF728FF814641F2C9
:10064000883A0EE009688903EFE709688901ECE759
:10065000FFF71CFFA0EB0901514502D90320BDE8BB
:10066000F0872068696800F00C00B0EB810FEFD1D3
:10067000D8F80010404601F00F01B14207D90770C9
:10068000006800F00F00B04201D00120E7E72878B1
:10069000400705D52068E96820F4E0500843206051
:1006A0002878000706D52068296920F4604040EAD0
:1006B000C100206000F01EF82168084AC1F3031150
:1006C000515CC8400649086006480068FFF706FF0D
:1006D0000020C4E7003C024008380240880C0008B3
:1006E0000C0000200400002001490120C86470476C
:1006F00000004742154810B5006810F00C0214487D
:1007000013D01449042A0FD0082A0ED10F4C241FED
:100710002268236802F03F025B0207D52068C0F31D
:100720008810A0FB010106E0084610BD2168C1F356
:100730008811A1FB00010023FFF74AFD2168C1F3E6
:100740000141491C4900B0FBF1F010BD08380240DE
:100750000024F40040787D01054810B500680006CB
:1007600005D5FFF725FF02498020891C087010BDC0
:100770000C3802402DE9F84F04006ED02078DFF8E5
:100780003C93C007A9F104054AD009F104000168AF
:10079000C1F38101012908D00068C0F3810002285B
:1007A0000AD1D9F80000400206D52868800337D561
:1007B00060680028E1D033E06068B0F5803F10D079
:1007C000B0F5A02F286810D020F480302860286869
:1007D00020F4802028606068A8B1FFF757FE064625
:1007E0000DE0286840F48030F4E740F48020286071
:1007F000F7E700BFFFF74AFE801B642873D828681C
:100800008003F7D50CE0FFF741FE064605E000BF88
:10081000FFF73CFE801B6428F0D828688003F7D4DB
:100820002078DFF89C8280074FF0000A3ED5A3486D
:10083000001D016811F00C0F08D00068C0F38100A2
:1008400002280BD1D9F80000400207D4286880079D
:1008500016D5E068012800D112E02BE1E068B8B1BC
:100860000120C8F80000FFF711FE064605E000BFB2
:10087000FFF70CFE801B0228C0D828688007F7D538
:100880002868216920F0F80040EAC10028600DE0E6
:10089000C8F800A0FFF7FAFD064604E0FFF7F6FDF2
:1008A000801B02281FD828688007F7D4207800070B
:1008B00022D5824E83486169703671B10121016091
:1008C000FFF7E4FD074604E0FFF7E0FDC01B022848
:1008D00009D830688007F7D50EE0C0F800A0FFF710
:1008E000D5FD074605E082E0FFF7D0FDC01B0228DA
:1008F0007DD830688007F7D42078400768D5DFF8C6
:10090000BCB100270BF13C0BDBF80000C0000BD49E
:10091000DBF8001041F08051CBF80010DBF800004C
:10092000012700F080500090674E3068C00510D459
:10093000306840F480703060FFF7A8FD009005E05B
:10094000FFF7A4FD0099401A022850D83068C0056E
:10095000F6D55A4EA0686C3601280FD005283068AD
:1009600010D020F001003060306820F004003060CA
:10097000A068B8B1FFF78AFD00900FE0306840F042
:100980000100F4E740F004003060F7E7FFF77EFD78
:100990000099411A41F28830814266D83068800758
:1009A000F4D50EE0FFF772FD009007E0FFF76EFD53
:1009B0000099411A41F28830814256D83068800748
:1009C000F4D42FB1DBF8001021F08051CBF80010E7
:1009D000A069C8B33949091D0968C1F38101022919
:1009E0004AD00228504607D0C8F8600000E03CE03A
:1009F000FFF74CFD04463BE04746C8F86000FFF7B0
:100A000045FD064605E000BFFFF740FD801B0228BC
:100A10002BD828688001F7D4D4E907010843A16ADC
:100A20002A4A490802EB0141626A41EA82110843FD
:100A300094F82C1040EA0161C9F8001001203866D2
:100A4000FFF724FD044606E036E000BFFFF71EFD79
:100A5000001B022809D828688001F7D52CE000BFC8
:100A6000FFF714FD001B022802D90320BDE8F88F10
:100A700028688001F4D41FE00128F7D0D9F80000DD
:100A8000E26900F48001914214D1226A00F03F0132
:100A900091420FD147F6C071626A0140914209D17B
:100AA000A26A00F44031914204D1E16A00F0706022
:100AB000884201D00120D9E70020D7E7043802405E
:100AC00000004742800E4742007000400000FFFFD8
:100AD00010B5401EB0F1807F01D3012010BD4FF052
:100AE000E02460610F21601700F099F80020A061F8
:100AF00007202061002010BDFEE7000070B586B021
:100B000014216846FFF79CFB16480025016841F058
:100B100004010160016801F004010591016841F0E0
:100B200080010160016801F080010591016841F0D8
:100B30000101016000680C4E00F001004FF4005408
:100B40000590002221463046FFF79BFC0121CDE9AC
:100B50000041CDE9021569463046FFF7C1FB06B0FA
:100B600070BD00003038024000080240FEE7FFF789
:100B7000F3BD70477047FFF78FBC000030B593B0EE
:100B800030216846FFF75CFB14210CA8FFF758FBE7
:100B900019480025016841F080510160006800F0AB
:100BA000805011901548016841F44041016000688F
:100BB000022400F4404011900120009000040190B4
:100BC0008001CDE906400C2008906020CDE90904A1
:100BD00004200B906846FFF7CDFD0CA90F2081E89B
:100BE0003100E002CDE90F0503210CA8FFF7E2FC7C
:100BF000FFF77AFD13B030BD40380240007000406E
:100C00000548016841F47001016003494FF000603C
:100C1000803908607047000088ED00E0FEE70907B2
:100C2000090E002804DB00F1E02080F80014704772
:100C300000F00F0000F1E02080F8141D704702E082
:100C400008C8121F08C1002AFAD170477047002057
:100C500001E001C1121F002AFBD17047FFF724FCFD
:100C6000FFF78CFFFFF74AFF064D4FF400544FF497
:100C7000FA7621462846FFF7FDFB3046FFF71EFBBC
:100C8000F7E700000008024000000000000000003C
:100C90000102030406070809B80C00080000002040
:100CA000100000003E0C0008C80C000810000020D6
:100CB000000400004E0C00080100000010000000BD
:080CC000000000000024F40014
:040000050800019955
:00000001FF
