:020000040800F2
:10000000284700201D0200082502000827020008DA
:10001000290200082B0200082D0200080000000041
:100020000000000000000000000000004102000885
:100030003102000800000000D9020008E9020008AF
:1000400037020008370200083702000837020008AC
:10005000370200083702000837020008370200089C
:10006000370200083702000837020008370200088C
:10007000370200083702000837020008370200087C
:1000800037020008370200083702000800000000AD
:10009000000000000000000000000000370200081F
:1000A000370200083702000837020008370200084C
:1000B000370200083702000837020008370200083C
:1000C000370200083702000837020008F53A000836
:1000D00037020008F147000837020008000000005E
:1000E000370200083702000837020008000000004D
:1000F00000000000000000000000000037020008BF
:10010000000000003702000837020008370200082C
:1001100000000000000000000000000000000000DF
:10012000112B0008370200083702000837020008C8
:10013000370200080000000000000000000000007E
:100140000000000000000000000000002D3A000840
:10015000292B000837020008370200083702000880
:10016000370200083702000800000000000000000D
:10017000000000000000000000000000000000007F
:10018000000000003702000800000000000000002E
:1001900037020008DFF80CD000F028F900480047CB
:1001A000C5820008284700200246D2E84F0F411CB4
:1001B000C2E8431F03B1F8E77047024652E8000F58
:1001C000411C42E8001303B1F8E77047024652E8C9
:1001D000000F42E8001303B1F9E77047024652E806
:1001E000000F830103D3BFF32F8F0020704700F06F
:1001F0000040084342E8000303B1F0E770470246BD
:1002000052E8000F800103D2BFF32F8F0020704708
:1002100042E8001303B1F3E7012070470648804726
:1002200006480047FEE7FEE7FEE7FEE7FEE7FEE7DB
:10023000FEE7FEE7FEE7FEE79D47000895010008A0
:100240001EF0040F0CBFEFF30880EFF30980816903
:1002500011F8021C91BB01B590E80F10E047BDE812
:1002600000508CE80300244B93E80600914208BF3D
:10027000704741B91EF0100F10D12049086820F0D6
:10028000010008600AE02CE9F00F1EF0100F08BF13
:100290002CED108AC1F838C081F822E01A6092F87B
:1002A0002210906B61F0FF0E1EF0100F08BFB0EC33
:1002B000108AB0E8F00F80F309887047104A13687D
:1002C0009942FAD801B552F821C00FC8E047BDE8FD
:1002D0000050CCF80000704701B500F05BFCBDE8B1
:1002E0000140EFF3098CBEE701B500F0A9FEBDE8BF
:1002F0000140EFF3098CB6E78C19002034EF00E0E1
:10030000C48300082DE9F05F0546002092469B4615
:1003100088460646814640241BE02846414647461B
:10032000224600F053F853465A46C01A914110D362
:1003300011461846224600F03AF82D1A67EB0108DC
:100340004F4622460120002100F031F817EB00094A
:100350004E41201EA4F10104DFDC484631462A4606
:100360004346BDE8F09F40EA01039B0703D009E044
:1003700008C9121F08C0042AFAD203E011F8013B91
:1003800000F8013B521EF9D27047D2B201E000F8EA
:10039000012B491EFBD270470022F6E710B5134629
:1003A0000A4604461946FFF7F0FF204610BD202AF2
:1003B00004DB203A00FA02F1002070479140C2F1BC
:1003C000200320FA03F3194390407047202A04DBEE
:1003D000203A21FA02F00021704721FA02F3D040BE
:1003E000C2F120029140084319467047064C074D60
:1003F00006E0E06840F0010394E8070098471034F5
:10040000AC42F6D3FFF7CAFEF48700081488000850
:1004100070B58C1810F8015B15F0070301D110F8C6
:10042000013B2A1106D110F8012B03E010F8016BF3
:1004300001F8016B5B1EF9D12B0705D40023521E76
:100440000DD401F8013BFAE710F8013BCB1A921CDE
:1004500003E013F8015B01F8015B521EF9D5A142DC
:10046000D8D3002070BD10B500F1280151E8002F4D
:1004700012B9BFF32F8F04E0531E41E8003404B1DA
:10048000F4E772B12C300121006850B1821CD2E82F
:100490004F3FC2E8441F04B1F9E71A0602D0083002
:1004A000F2E7002010BD70B5024652F8305F4DB142
:1004B000CC7800235DB12E46ED78A5420DD275684B
:1004C0003346F7E70023C1E90133C1620DE00024A0
:1004D000C1E9014300F12C0403E0C1E9016306F125
:1004E00008042160002B18BF1A1D1160283050E845
:1004F000001F4A1C40E8002303B1F8E770BDD1E9B2
:100500000123002A0EBFC36293608B68191D002B64
:1005100008BF00F130010A60704700000148006820
:10052000704700BF10E000E007480178012905D1BD
:1005300006494FF080620A6000210170044801689A
:1005400041F0010101607047423E002004ED00E0EF
:1005500010E000E04FF0FF307047000040B10B4961
:100560000968B1FBF0F0411E0020B0EB116F02D022
:100570004FF0FF307047064AFF231370054A0623E9
:10058000136051600449087090607047DC180020C7
:1005900023ED00E010E000E0423E0020B0B500F1A5
:1005A0000C01C289D1E85F3F9A4202D8BFF32F8F76
:1005B00004E05C1CC1E8554F05B1F3E7C28999B26C
:1005C0000020914238BF0120B0BD10B5930712D46E
:1005D00000F12803D0071ED153E8000F084203D1D1
:1005E000BFF32F8F002005E020EA010243E800243A
:1005F00004B1F1E710BD806A00EA01038B420146B5
:1006000018BF002112F0010208BF014653EA0200A0
:1006100018BF084610BD53E8000F00EA01028A42E5
:1006200003D0BFF32F8F002005E020EA010243E84A
:10063000002404B1EFE710BDB0B5104A00234432E6
:1006400015462C683CB12569A94209D3491B04F120
:100650000C052346F5E70024C0E90234016106E0F9
:10066000C0E902340161A0602569691A2161002B8B
:1006700018BF03F10C021060B0BD00BF7819002054
:10068000C16829B1826803698A600A691A440A61EB
:100690008068044A00F10C03002808BF02F14403FB
:1006A0001960704778190020EFF3058129B9EFF33D
:1006B000108111B9EFF3118111B16FF0050070478E
:1006C000DFF804C000DF7047D1130008EFF30580A6
:1006D00048B9EFF3108030B9EFF3118018B9EFF398
:1006E0001480C00702D10448007A7047DFF804C0C4
:1006F00000DF7047E513000878190020EFF305804C
:1007000028B9EFF3108010B9EFF3118010B103484E
:10071000C0687047DFF808C000DF70477819002014
:10072000F1130008EFF3058028B9EFF3108010B93A
:10073000EFF3118010B1034840687047DFF808C03C
:1007400000DF704748870008FD13000880B507F0F8
:10075000E3FDEFF3058028B9EFF3108010B9EFF354
:10076000118010B16FF0050080BDDFF808C000DF18
:1007700080BD00BF09140008EFF3058028B9EFF32E
:10078000108010B9EFF3118010B16FF005007047C1
:10079000DFF804C000DF704759150008F8B51446AB
:1007A0000E460546EFF3058028B9EFF3108010B927
:1007B000EFF31180F0B16FF003000DB303BBFEB196
:1007C0002978FA291CD12846FFF74DFE78B16A6ACC
:1007D000074600F10C013046FFF7C5FD0CB1F87873
:1007E00020703846FD6000F01BFA0020F8BD6FF065
:1007F0000200F8BD2846DFF80CC03146224600DF73
:10080000F8BD00BFE1150008EFF305832BB9EFF346
:10081000108313B9EFF311830BB100207047DFF899
:1008200008C000DF704700BFC11600082DE9F04185
:1008300090460D460646EFF3058028B9EFF3108089
:1008400010B9EFF3118018B36FF00307EEB1E3B9FD
:10085000DDB13078FA2818D106F10C0000F09BF8D1
:1008600088B1726A04460C302946FFF77CFD0027E8
:10087000F920C4E9015684F80380A770207020464F
:1008800000F0CEF901E06FF002073846BDE8F081D4
:100890003046DFF80CC02946424600DFBDE8F08153
:1008A000F1170008F0B5002390B389B3032A2FD8BD
:1008B000034653F8084F0F3121F007012546E61A89
:1008C0005C6824F00307F61B8E4205D22C682B4689
:1008D000002CF3D100231BE0D0E900650D444560F6
:1008E000304450F8046CAE4202D2083845605C686F
:1008F00054B1186824F00304E05041EA0200E11802
:10090000486019600B4602E041EA02005860083373
:100910001846F0BDB0B50022E8B1E1B100F108041D
:10092000A1F108020023944206D0254624682B46F4
:10093000002CF8D100220EE051F8045C446825F048
:100940000305641B446013B11068186002E00020C6
:1009500041F8040C01221046B0BD08B1420702D094
:1009600000221046704700221829FAD311F007031D
:10097000F7D110B50A18A2F108038360002342F8EA
:10098000083C8268102454600122C0E90014C3604E
:10099000BDE81040E5E710B5002817D0014600F18A
:1009A000140252E8000F10B9BFF32F8F04E0036860
:1009B00042E8003404B1F4E740B1043151E8002FBB
:1009C000531C41E8003404B1F8E710BD002010BD0D
:1009D000B0B500281ED0C2688A421BD802698A427C
:1009E00018D900F1140213680B60BFF35F8F52E84F
:1009F000003F0C689C42F6D142E8001505B1F2E7D1
:100A0000043050E8001F4A1E40E8002303B1F8E715
:100A10000020B0BD6FF00300B0BDB0B504460020AB
:100A2000ACB1A1B19AB193B10020C4E9001004F1B6
:100A3000080002FB01352CC0481E636120B19918E3
:100A4000196001380B46F9E7002018600120B0BD9D
:100A5000F8B50446807868B3E56821462846FFF774
:100A60004EFD002005F10C06207030462146FFF7B0
:100A7000AFFFA868E8B13046FFF78DFFC8B1044664
:100A8000284600F015FA002100220646002700F053
:100A9000BDFA304600F06CFA81686A6A064604F1D5
:100AA0000C00FFF760FCF920A7702070F068E07080
:100AB00025E0F8BDA568A86808B3407883281ED152
:100AC000284600F0F5F9002100220646002700F034
:100AD0009DFA304600F04CFA064680686A6A04F1D6
:100AE0000C01FFF740FCF06808B1E1780170277055
:100AF00005F10C002146BDE8F840FFF769BF284624
:100B00002146BDE8F840FFF7CEBC2DE9F041044690
:100B100000274FF00108D4B12546E8786469000742
:100B2000F9D52F76A8680028F5D0284600F0C0F93E
:100B300000210022064600F069FAC5E90367F06A61
:100B4000686100B1056185F81880F562E3E7BDE8EA
:100B5000F081B0B5C278920715D5C068C36A90F825
:100B600021209C688C4208BF8C682CB194F92040ED
:100B700055B2AC42C8BFE2B25B69002BF1D190F82C
:100B80002010914200D1B0BD80F82020BDE8B040D7
:100B900000F0BDB970B5214C04F1560504F15A06B8
:100BA000B4F85400D5E85F1F11B9BFF32F8F04E0EC
:100BB0004A1EC5E8532F03B1F4E7090429D0D6E84B
:100BC0005F1F4A1C904200D80022C6E8532F03B191
:100BD000F5E788B2E16D51F82000D0B10178F13924
:100BE0000829DDD8DFE801F006050905050C0F0529
:100BF0001200D5E7216E8847D2E7616E8847CFE7BC
:100C0000A16E8847CCE7E16E8847C9E7216F884726
:100C1000C6E70020BDE8704000F0F2B87819002067
:100C200070B50146194800F15603B0F85420D3E8D6
:100C30005F4FA24202D8BFF32F8F04E0651CC3E8C8
:100C4000565F06B1F3E7A3B2934214D200F1580302
:100C5000D3E85F4F651CAA4200D80025C3E8565F61
:100C600006B1F5E7C36DA2B243F82210417A39B15B
:100C70000121817270BD0220BDE8704007F04ABBBF
:100C800003484FF08051016070BD00BF781900200B
:100C900004ED00E010B58168B1B100F10C01D1E8BC
:100CA0005F2F12B9BFF32F8F04E0531EC1E8543FEA
:100CB00004B1F4E7110407D000F0FAF80021002293
:100CC000BDE8104000F0A2B910BD000010B5012130
:100CD00041700B4990F920301C310A46896841B1B6
:100CE00091F920409C42F8DCC0E9021290600C317E
:100CF00004E00021C0E9021202F10801086010BD01
:100D000078190020B0B54A1C0DD01A4A00242C32A4
:100D100015462B68DBB1DD69A9421AD3491B03F1E3
:100D200010051C46F5E71349002330310C461A46DE
:100D3000236803F11004002BF9D14FF0FF33C36196
:100D40000023C0E904329AB102F1100110E000253D
:100D500000E00125002CC0E90434C16118BF04F192
:100D6000100210602DB1DA69511AD96103F1140132
:100D70000860B0BD78190020C2690169531C0AD00F
:100D800021B143694B61CB691A44CA6142693AB9DE
:100D90000748C162704709B142694A6142691AB1A4
:100DA000002343611161704701480163704700BF30
:100DB0007819002070B5114DEC6A1CB1E06901385A
:100DC000E06100D070BD042660781338B6EB301FA8
:100DD00005D1204600F095F82146FFF7BAFE2046DF
:100DE00000F085F8204600F0B9F8246924B1E069E4
:100DF0000028E9D000206061EC6270BD7819002005
:100E0000B0B5054613484469017A65B1022905D198
:100E100094F9200095F92010814211DC2846BDE8A4
:100E2000B04000F09BB8022912D1456A85B194F90F
:100E3000200095F9201081420ADD284600F057F87D
:100E40002046FFF743FF2846BDE8B04000F0BAB89F
:100E5000B0BD00BF7819002010B5044600202080E6
:100E6000A07881070DD5C00605D41048216B406FCE
:100E7000FFF750FD05E00D48216BD0F88400FFF727
:100E8000A7FDA078C00708BF10BD0849D1F88800A9
:100E900020B12146BDE81040FFF79ABDD1F880008F
:100EA0002146BDE81040FFF735BD00BF781900208E
:100EB0000146806882688A6002B1D1600021C16009
:100EC000704710B591F920300246806840B190F922
:100ED00020409C42F8DAC1E9020291600C3004E043
:100EE0000020C1E9020202F10800016010BDC168E2
:100EF00031B182688A60826802B1D1600021C1602C
:100F000070470178F12918BF7047C068F9E7B0B59C
:100F10000446054625B12878F12802D1ED68F9E7A5
:100F2000B0BD2046FFF7E3FF28462146BDE8B040AC
:100F3000FFF7C7BF10B50446407833280DD194F8A9
:100F40002320616A2046FFF740FB30B1014620466E
:100F50000022BDE8104000F059B810BD0146012044
:100F6000487002481C30FFF7ACBF00BF7819002062
:100F700090F82210C9064FF0200158BF6021806B05
:100F80000844704770B50B4C0B48A26D666E00218B
:100F900000F0D4FD094DA8624EB1E26D0848002171
:100FA00000F0CCFDA864002818BF012070BD01200E
:100FB00070BD00BF4887000817830008781900201B
:100FC000B1100008024988610221417007F0AEB9F2
:100FD0007819002010B50C4C0246237A0020022B11
:100FE00011D1636A7BB160694270FFF78BFE606A62
:100FF0008168616211B104F11C02CA600021C16004
:10100000FFF7E0FF012010BD78190020B0B50446BD
:1010100090F822001546C0064FF0200058BF60200F
:10102000A26B81502046FFF7A7FE20461DB1BDE808
:10103000B040FFF7E5BEBDE8B040FFF78FBF00004E
:10104000B0B5FFF76BFA194DE968286D0131E96019
:1010500000B18047FFF7AEFE0020FFF7D1FE296CFC
:1010600011B3AA69A86B90421CBFC5E90E21B0BD9F
:10107000E96B11B10139E96316D1297A022913D13B
:101080006C6A8CB190F8200094F8201081420BD14A
:101090002046FFF72CFFA86BFFF760FF2046FFF705
:1010A00091FF286CC5E90E40B0BD00BF7819002043
:1010B00082B00B480821D0E91820FFF7A5FB094DA5
:1010C00009496C46C5E91301214600224FF0FF3360
:1010D000FFF764FB10B9DDE900108847E86CF3E71F
:1010E0004887000878190020ED10000870B5134DEE
:1010F0006C6C14B32069012601382061ECB12069C1
:10110000D8B9E06808B1A16881606864E86C04F14E
:10111000180100220023FFF789FB18B103202146A4
:1011200007F0F8F8E078012804D161692046FFF75C
:1011300083FA00E066706C6CE0E770BD78190020FF
:10114000EFF305822AB9EFF3108212B9EFF311829F
:10115000CAB16FF00302A0B199B90178F62910D194
:101160000C30D0E85F1F11B9BFF32F8F04E04A1E87
:10117000C0E8532F03B1F4E70022080408BF6FF062
:10118000020210467047DFF808C000DF704700BF5A
:10119000B1180008EFF3058129B9EFF3108111B9F7
:1011A000EFF3118111B16FF005007047DFF804C053
:1011B00000DF704709190008EFF305832BB9EFF33F
:1011C000108313B9EFF311830BB100207047DFF8E0
:1011D00008C000DF704700BF6919000810B5044659
:1011E000EFF3058028B9EFF3108010B9EFF3118009
:1011F00090B15CB12078F62808D12046FFF7CEF9EF
:1012000038B12046FFF70CFD002010BD6FF0030041
:1012100010BD6FF0020010BD2046DFF808C000DFEF
:1012200010BD00BFE9190008DFF804C000DFFEE7C9
:10123000211A0008B0B5EFF305822AB9EFF3108246
:1012400012B9EFF31182DAB16FF00304B0B10029E3
:1012500014D40278F12A11D14278042A02D16FF015
:1012600002040BE000F1280252E8003F43EA0104C7
:1012700042E8004505B1F7E7FFF7D2FC2046B0BDD4
:10128000DFF804C000DFB0BD891A0008EFF3058362
:101290002BB9EFF3108313B9EFF3118313B16FF090
:1012A00005007047DFF804C000DF7047F11A00083E
:1012B000EFF305832BB9EFF3108313B9EFF3118329
:1012C0000BB100207047DFF808C000DF704700BF97
:1012D0003D1B0008EFF3058129B9EFF3108111B927
:1012E000EFF3118111B16FF005007047DFF804C012
:1012F00000DF70470D1D0008EFF3058129B9EFF3FA
:10130000108111B9EFF3118111B16FF00500704731
:10131000DFF804C000DF7047451D0008EFF30581CA
:1013200029B9EFF3108111B9EFF3118111B16FF009
:1013300005007047DFF804C000DF7047CD1D0008CE
:10134000EFF3058129B9EFF3108111B9EFF31181A2
:1013500009B100207047DFF808C000DF704700BF08
:10136000891E000810B5EFF305842CB9EFF3108443
:1013700014B9EFF311840CB1002010BDDFF804C0E4
:1013800000DF10BDA11E0008EFF305822AB9EFF3BC
:10139000108212B9EFF3118212B16FF0050070479D
:1013A000DFF804C000DF7047191F0008EFF3058164
:1013B00029B9EFF3108111B9EFF3118111B16FF079
:1013C00005007047DFF804C000DF7047651F0008A4
:1013D00030B180B501461320FFF7FCFDBDE8804029
:1013E000002070470148007A704700BF781900203C
:1013F0000148C068704700BF781900200148406864
:10140000704700BF488700082DE9F8434F4F387AEE
:1014100030B1012800F096804FF0FF30BDE8F8832E
:1014200007F108009C21FEF7B7FFDFF82481B8F828
:101430001000D8E90B41A7F85400D8E90202FA6578
:1014400038642046FFF789FA08B1C7F88040D8E928
:101450000541DFF80091D8E907562046C847D7F87C
:101460008010002818BF2146796728463146C847B2
:10147000D7F88010002818BF2946B967D8E9094174
:101480002046C847D7F88010002818BF2146D8F852
:101490003440F9673CB12168D4E902232046FFF7C4
:1014A000BCFAC7F88440D8F838403CB12168D4E988
:1014B00002232046FFF7B1FAC7F88840D8F83C402D
:1014C0003CB12168D4E902232046FFF7A6FAC7F809
:1014D0008C40D8F840403CB12168D4E90223204632
:1014E000FFF79BFAC7F89040D8F844403CB1216818
:1014F000D4E902232046FFF790FAC7F89440D8F8C1
:1015000048403CB12168D4E902232046FFF785FA20
:10151000C7F89840D8F84C403CB12168D4E9022380
:101520002046FFF77AFAC7F89C40D8F850403CB103
:101530002168D4E902232046FFF76FFAC7F8A040DC
:10154000012038720020BDE8F88300BF7819002020
:10155000488700085B090008B0B51D4C207A0128B7
:101560001CD1FFF70FFDC8B11A48FF218175817D9D
:10157000026881F0FF01B1FA81F1C1F12001C2F3EB
:1015800002228A4228BF511CFE2202FA01F1124DAA
:10159000C17468681149FEF7E1FF10B14FF0FF30E8
:1015A000B0BDFEF7D7FF2061FEF7BEFF04F11C00BF
:1015B000FFF77EFCFFF706FD2878C0070CBF03206D
:1015C000022080F31488022020720020B0BD00BFEA
:1015D000781900200CED00E048870008E9020008B7
:1015E0002DE9F84300284CD00F466FF00305002981
:1015F00049D004460078FA2845D1204699469046BD
:10160000FEF731FF002841D0064620463146FEF75E
:1016100076FF626A06F10C013846FEF7A4FEB8F1C7
:10162000000F1CBFF07888F8000004F10C070025BB
:10163000384631463570FFF7CBF9A06818B3384605
:10164000FFF7A9F90025F0B106462046FFF730FC68
:10165000002101220746FFF7D9FC3846FFF788FC36
:101660008168626A074606F10C00FEF77CFEF920ED
:10167000B5703070F8683146F0702046FEF713FF01
:1016800001E06FF003052846BDE8F883B9F1000FCB
:1016900010D083204946FFF79DFC40B107484169BF
:1016A0002046FFF70EFCEFF30980C0E902786FF0E7
:1016B0000105E8E76FF00205E5E700BF78190020B3
:1016C0002DE9F84F002770B10D4661B105F10F010A
:1016D00021F003060446B0FA80F0B6FA86F1084419
:1016E000202803D200273846BDE8F88F06FB04F80F
:1016F00072B1D2F808A01368D2E90490BAF1000FD1
:1017000011D05FEA8A71EDD1D1683429EAD30DE0B6
:1017100000234FF0000934490093D1F8A00078B1BC
:10172000FFF739F912E0D1680029DBD1B9F1000FD8
:101730002FD000274045D6D319F003002BD0D2E795
:10174000D1F8800034210122FFF7ACF882464FF037
:10175000010BB9F1000F10D1BAF1000F0DD0224FDB
:101760004146F86F0022FFF79DF8814638B14846A0
:101770004146FEF711FE57461AE057461AE0BBF104
:10178000000F14D0D7F8A00060B15146FFF720F940
:101790000DE00028A6D1BAF1000FBCD000934FF0A5
:1017A000000BD6E7D7F880005146FFF7B3F80027C3
:1017B0000BF1020B002F3FF496AF0020C7E9095050
:1017C000C7E90B0000993246C7E90110FA2087F8F3
:1017D00002B0387007F10C0021464B46FFF71DF9A7
:1017E0000148024901677EE778190020510A000884
:1017F0002DE9F84338B30E466FF00307002951D0A6
:1018000005460078FA284DD1A86899469046E8B177
:10181000407883281AD12846FFF74AFB002101228D
:1018200004460027FFF7F2FB2046FFF7A1FB044622
:1018300080686A6A3146FEF796FDE06890B380F8EA
:10184000008000272EE06FF003072BE005F10C006D
:10185000FFF7A1F880B16A6A04460C303146FEF702
:1018600082FD0027F92084F80380A77020702846A5
:101870002146FEF718FE15E0B9F1000F10D09320B5
:101880004946FFF7A7FB40B1084841692846FFF7E2
:1018900018FBEFF30980C0E902686FF0010701E06F
:1018A0006FF002073846BDE8F88300BF78190020C2
:1018B000B0B508B304460078F6281DD104F10C0039
:1018C000D0E85F2F12B9BFF32F8F04E0531EC0E89A
:1018D000553F05B1F4E710041CBF0020B0BD71B145
:1018E0006320FFF777FB20B1064841692046FFF7E8
:1018F000E8FA6FF00100B0BD6FF00300B0BD6FF00B
:101900000200B0BD7819002010B500B3044600787D
:10191000F6281CD1A06868B12046FFF7C9FA6FF01D
:1019200002010022FFF772FBA0680028F4D100201A
:10193000FFF766FA00202070A178C90710D0094986
:10194000D1F8980030B12146FFF742F807E06FF078
:10195000030010BDD1F880002146FEF7DBFF002018
:1019600010BD00BF7819002070B5054601384FF64C
:10197000FE730C460021984298BFAC4201D908463C
:1019800070BD4AB19068166870B181070FD1D268F6
:101990000021102AF3D314E000261149D1F8980051
:1019A00038B1FEF7F8FF0AE0D0680028F5D0002132
:1019B000E5E7D1F8800010210122FEF773FF60B146
:1019C00001210022C5818481C0E901628170F62174
:1019D00001700349034A8A6600E000200146CEE711
:1019E00078190020950C000810B560B10178F6292F
:1019F00009D1816859B1FFF75BFA00210122002467
:101A0000FFF704FB01E06FF00304204610BDFEF772
:101A1000C5FD0024002808BF6FF00204F5E70000B0
:101A200070B5184D287A02282AD1686A40B36C69CB
:101A3000E06AFFF76AF8A06918B100210022FFF7F9
:101A4000E5FAEFF30980A063686A8168696211B101
:101A500005F11C02CA600026C660FFF7B3FA6E618A
:101A6000E078C00704D12046BDE87040FFF7F4B924
:101A70000420E6606070686BA06000B1C4606C63B5
:101A800070BD00BF78190020B0B56FF0030460B3DB
:101A900000292AD405460078F12826D16878042840
:101AA00002D16FF0020420E005F1280050E8002F79
:101AB00042EA010440E8004303B1F7E768783328BD
:101AC00013D195F82320696A2846FEF77EFD60B1A0
:101AD000014695F823000C4680075CBF686A21EA3E
:101AE000000428460122FFF791FA2046B0BD00000D
:101AF000F8B505461048476957B1002D0BD40E467E
:101B00001446384629463246FEF75FFD30B1F8BD2F
:101B10004FF0FF30F8BD6FF00300F8BD4CB133203B
:101B2000214687F823607D62FFF754FA6FF00100C9
:101B3000F8BD6FF00200F8BD781900202DE9FE4FC6
:101B400018B380466AB102F1100A96689AE88006D6
:101B5000D2E90053BEB1B00717D1D068442814D3DE
:101B600017E001244FF0180A002300274FF0000966
:101B70000025614A0293D2F88800CDE90015C0B172
:101B8000FEF709FF1BE0D06818B100242046BDE82D
:101B9000FE8F37B10024B9F1000FF7D017F007001E
:101BA000F4D1BAF1000F24D0AAF101003728ECD803
:101BB00021E0D2F8800044210122FEF773FE0646A0
:101BC0004FF0010B87B97EB184B14B494B4AD1F834
:101BD0008400D2F85490C8B1FEF7DDFE0746002815
:101BE00018BF0BF1100B17E0344635E04248406F48
:101BF0000DE04FF0180AB9F1000F1BD00024B9F125
:101C0000480FC3D319F0070015D0BFE7486F494606
:101C10000022FEF747FE07460FB134461AE05FEA9E
:101C2000CB7016D03449D1F8880068B13146FEF740
:101C3000CFFE0EE00124002E3FF49BAFCDE900154E
:101C400002934FF0000BBDE7D1F880003146FEF75C
:101C500061FE00244BF0020B002C3FF497AF01987B
:101C6000182160600298E07040F2F11084F802B030
:101C7000208004F10800FEF78FFB07EB090100202C
:101C80004039FD22C4F82300C4F82700C4F82B0013
:101C900084F82F0084F8222084F821A084F820A062
:101CA000C4E90C79C4E90E181549009D396013493F
:101CB000097849070AD56FF0100101EB99013A1D27
:101CC0004FF0CC3311B108C20139FBE7A16B002200
:101CD0000D2A03D041F822000132F9E7094A4FF0FA
:101CE0008070C1E90D28C8630D620348064901668A
:101CF0002046FFF785F849E7781900204887000853
:101D0000A52E5AE229120008350F000810B5B0B10F
:101D100004460078F12812D1607800F00F00032803
:101D20001CBF6FF0020010BD2046FFF7E0F8204610
:101D3000FFF722F82046FFF763F8002010BD6FF090
:101D4000030010BDB0B5A8B104460078F12811D148
:101D5000607800F00F0001280FD0032811D002286E
:101D60002ED119486FF00205017A02292AD1406A62
:101D700068B927E06FF0030524E02046FFF7B7F8C5
:101D800005E02046FFF7B3F82046FEF7F5FF607840
:101D900002280AD10C49486A82684A620AB11C3199
:101DA000D1600021C160FFF70DF9032000256070AC
:101DB00020464FF0FF31C4E90255FEF7A3FF01E0D2
:101DC0006FF002052846B0BD7819002070B5C0B18B
:101DD00004460078F12814D1607800F00F00012843
:101DE00012D0032814D002281CBF6FF0020070BD6F
:101DF00024496FF002000A7A022A01D1496A69B9BE
:101E000070BD6FF0030070BD2046FFF770F805E06D
:101E10002046FFF76CF82046FEF7AEFFE06AFEF7BB
:101E200074FEA06918B100210022FFF7EFF8607876
:101E3000022810D1134DEFF30980A063686A81680E
:101E4000696211B105F11C02CA600026C660FFF785
:101E5000B9F86E6102E00020FEF7D2FFE078C0071B
:101E600003D12046FEF7F8FF09E00020E0600420DF
:101E700060700448416BA16001B1CC6044630020F4
:101E800070BD00BF7819002040B10178F22905D15A
:101E900040780238B0FA80F040097047002070475F
:101EA000F8B50E46002198B3012E31D814460546E8
:101EB0004BB198681F6870B181070FD1DA680021B3
:101EC000202A15D224E000271249D1F88C0038B11D
:101ED000FEF761FD0AE0D8680028F5D0002117E080
:101EE000D1F8800020210122FEF7DCFC70B1012135
:101EF0000022C67081704FF4F9710180C0E901724F
:101F0000C0E90322C0E90525C46100E000200146C4
:101F10000846F8BD78190020B0B570B10C460546EA
:101F20006FF00300B9B12978F22914D1687802283A
:101F300006D12846FEF7A4FB08E06FF00300B0BD11
:101F40000748006D40B102206C6168702846214648
:101F5000FEF772FB0020B0BD6FF00200B0BD00BF05
:101F60007819002080B570B10178F2290BD1417841
:101F700002291CBF6FF0020080BD01214170FEF7F5
:101F80007FFB002080BD6FF0030080BD2DE9F04194
:101F9000047886B0884654B1012C09D05FF0000463
:101FA00088F8004006B04FF00110BDE8F081012430
:101FB00010480125142105706846FEF7EDF9680305
:101FC000CDE9000503260C4FCDE902566946384697
:101FD00001F0CCF8A803CDE90005CDE90256694629
:101FE000384601F0C3F80548C0F8B852C0F8B452FA
:101FF000D6E700001C3A00200000024000004042EA
:102000002DE9F04102787F2A03D0BDE8F04100F0CD
:1020100077B801F8012B457801F8015B861C0C4666
:102020004FF0021708E02146304600F069F80744F7
:1020300006EB104614FA80F46D1EF4D23846BDE863
:10204000F08100002DE9F0410E460F49027801278A
:102050000E4C0968DFF83880002522B1012A02D031
:10206000FF2030700DE04078C007084604D0FFF72D
:1020700031F9C4F8B47203E0FFF73EF9C4F8B45282
:1020800035704046BDE8F0816018002000004142F4
:102090000100020010B500240B462246062828D075
:1020A00006DC052825D2DFE800F0242424240F00D4
:1020B000FD281ED002DCF0281BD10CE04021FE28B8
:1020C00015D0FF2815D10EE0062422460A491846ED
:1020D000FEF749F90DE00948006800B1202040F002
:1020E0005100087004E019705A70022401E0197060
:1020F0000124204610BD00005C830008DC1800208D
:102100002DE9F043027885B0A2F180031F2B04D89B
:1021100000F010F905B0BDE8F08301F8012B0C4682
:1021200010F801CB00267D4A03270125FF21DFF8A7
:10213000F0914FF00113BCF11E0F75D2DFE80CF0E7
:102140000F171B1F969FBAEAD63D4CEAEAEAEAEA65
:1021500052565A6A799093EAEAEAEAEAEA7500780E
:10216000611CFFF797FF207000F10210D2E72146B3
:10217000FFF768FFBFE02146FFF708FFBBE01670DE
:1021800014216846FEF708F94FF40050CDE9000627
:10219000DFF8908169464046CDE9026700F0E6FF2E
:1021A0004FF48040CDE9000669464046CDE902671C
:1021B00000F0DCFF267028469DE001885A485B4A03
:1021C0000068B0FBF2F0801CB0FBF7F04843401E03
:1021D000FDD1267056488EE006F08CF865702670AA
:1021E000022088E0214600F0ABFB84E0214600F0AD
:1021F0007DFB80E010F8015B01460DB94FF480755E
:10220000284602F017FAED1D2670E808000400F1D8
:10221000011070E0007800F00301491C1176C0F352
:102220008000507626701FE074E0214600F088F8A8
:1022300061E0217001210C4610F8013B0BE000BF6A
:1022400010F8012B12F03F0200D14022D21DD2081B
:1022500011441044491C5B1EF2D244EA01404AE09A
:1022600000782170D2E72170184644E0017811739C
:10227000B0F801101182B0F80300508248E01278E3
:102280002146012A13D0421C12F8013B4BB100BF7A
:1022900012F8014BA50701D5E40600D5121D5B1EFF
:1022A000F6D1101A0E7000044E70801C23E000F06E
:1022B000FBF820E0054610782146012809D00E7071
:1022C0004E70A6700321E878800707D541F480207E
:1022D00011E0284600F078FA0146F4E7B5F801006D
:1022E0004FF4802202EB8040084304E01278012A78
:1022F00004D02170484600F101100BE70179D0F8B5
:10230000010061F31F6000906946002001F01EFD8E
:102310002670EFE704F8011C1846FBE61C3A002083
:102320000100050000000240DC18002040420F00C0
:102330000100020000784FF001120870104670474B
:102340002DE9F05F002201F8012B012510F8016B47
:102350008A46A9460446DFF848B19AE014F8017BA2
:1023600017F03F0000D14020C01D4FEAD0083806CA
:1023700025D5DBF80010584621F04061CBF800105D
:10238000DBF80010CBF80010DBF8081021F04061FA
:10239000CBF80810DBF80810CBF80810DBF80410B5
:1023A00021F40051CBF80410DBF80410CBF8041032
:1023B000DBF80C1021F04061C160C1682CE03949A4
:1023C0000120C1F8B402DBF80010584621F040614A
:1023D000CBF80010DBF8001041F08061CBF8001062
:1023E000DBF8081021F04061CBF80810DBF808108A
:1023F00041F04061CBF80810DBF8041021F40051E3
:10240000CBF80410DBF804104160C16821F0406192
:10241000C160C16841F08061C160524621463846C2
:1024200001F042FC6EBB1F490120C1F8B402DBF889
:102430000010584621F04061CBF80010DBF8001086
:1024400041F08061CBF80010DBF8081021F040610A
:10245000CBF80810DBF8081041F04061CBF8081009
:10246000DBF8041021F40051CBF80410DBF8041061
:102470004160C16821F04061C160C16841F0806184
:10248000C160380602D5C244C14401E04444454419
:102490006D1C761EBFF462AF49EA0540BDE8F09FAF
:1024A00000000240000040422DE9F04F87B08B460B
:1024B00001F1020904460590C1490020029008700C
:1024C00001906578A41C8046002D6FD0DFF8F4A23F
:1024D00014F8016BB1076AD5B8F1000F3BD0BAF818
:1024E000107006F0110001280AD0DFF8D482694686
:1024F0000E2001F02BFC022812D04FF0000805E05E
:102500006946304601F022FC022802D0012806D19B
:102510000FE07F1E03D3AA4909780029F0D0FCE020
:102520007F1E03D398F800100029E0D04FF0000878
:10253000F3E0009989F80010009A09F10101120AEC
:1025400001F8012B009A120C01F8012B009A120ECF
:1025500001F8012B8946F1064DD5E17854F8040BBA
:1025600061F31F600490BAF812000390F00712D0D4
:10257000BAF810700021304601F0E8FB022802D0C2
:10258000012807D107E07F1E791C03D08C49097808
:102590000029EFD0C1E0BAF810706946304601F06A
:1025A000D5FB022804D0012819D108E0D5E060E06D
:1025B0007F1E14D3824909780029EED00FE0DAF8A3
:1025C000142000990A4004998A4208D00399491EB0
:1025D0000391491C03D07A4909780029DBD0DAF845
:1025E000142000990A4004998A4201D040F010005A
:1025F000012816D13BE0BAF81070F10715D0B8F1F8
:10260000000F34D10021304601F0A0FB022802D097
:10261000012806D106E07F1E7FD369490978002989
:10262000F0D07AE04FF0010821E06946304601F031
:102630008DFB022802D001286FD106E07F1E6CD3EB
:102640005F4909780029F0D067E0009989F8001007
:10265000009A09F10101120A01F8012B009A120CEB
:1026600001F8012B009A120E01F8012B8946002176
:1026700048E0B8F1000F25D0BAF8107069460E2076
:1026800001F064FB022802D0012846D106E07F1E3B
:1026900043D34B4909780029F0D03EE0009889F8EF
:1026A0000000009909F10100090A00F8011B0099D6
:1026B0004FF00008090C00F8011B0099090E00F802
:1026C000011B8146E17854F8040B61F31F60009010
:1026D000B10603D5CAF81400012014E0BAF810704E
:1026E0006946304601F032FB022802D0012814D19D
:1026F00007E07F1E791C10D0314909780029EFD0FE
:102700000BE0012101910299491C02912C490978A1
:1027100019B96D1E7FF4DCAE09E045B114F8011B58
:102720008A0701D5C90600D5241D6D1EF5E70128CD
:1027300037D1B8F1000F24D0BAF81050204E6946B6
:102740000E2001F003FB022802D0012829D105E068
:102750006D1E26D331780029F1D022E0009989F846
:102760000010009A09F10101120A01F8012B009AE8
:10277000120C01F8012B009A120E01F8012B894668
:102780000FE0019969B1BAF810500D4E00210E20EA
:1027900001F0DCFA022804D16D1E02D33178002941
:1027A000F4D002998BF800108BF801000598A9EB82
:1027B0000B01201A07B041EA0040BDE8F08F00008D
:1027C000801800201C3A00202DE9F84FDFF8148112
:1027D0000027044638460D4601F1030A88F80070C8
:1027E000B4F80160E41C002E73D014F8019BDFF8EC
:1027F000F8B05FEA89715CD55FEAC9713CD0BBF87B
:1028000010400021484601F0A1FA022802D0012818
:102810005FD131E0641E5CD398F800100029F0D03D
:1028200057E026B95FEAC97001D04FF00E09BBF836
:1028300010406946484601F089FA022802D0012872
:1028400047D106E0641E44D398F800100029F0D068
:102850003FE000998AF80010009A0AF10101120A7B
:1028600001F8012B009A120C01F8012B009A120EAC
:1028700001F8012B8A467F1C761ED2D229E0E1782E
:1028800054F8040B61F31F600090BBF81080694698
:10289000484601F05BFA022802D0012819D107E06E
:1028A000B8F1010815D30F4909780029EFD010E0DD
:1028B0007F1C761EE3D2BBF810400A4E00210E208A
:1028C00001F044FA022804D1641E02D331780029B1
:1028D000F4D02F70390A6970A870AAEB0500BDE822
:1028E000F88F0000801800201C3A002030B5C27814
:1028F0000368104862F31F634BB10F4A0024156848
:102900000E4AB3EB950F05D3012353700FE0FF225E
:102910000A7030BD03EB55056D1EB5FBF3F3547023
:10292000022B03D90325B3FBF5F300E00123536029
:102930000C7030BD01000400DC1800201C3A00209F
:102940002DE9F0478946067844784179D0F80200AD
:10295000284D61F31F608046E1074FF000004FF003
:10296000010706D0F10702D0C5F8B87201E0C5F83A
:10297000B802A10706D5B10702D5C5F8B47201E0C7
:10298000C5F8B402200603D5F00901D105F0B2FC68
:10299000B8F1000F20D0184A01215068E30703D096
:1029A000D5F83832B34213D1A30704D5D5F8343261
:1029B000B3EB560F0CD1630701D5B30808D1A306BA
:1029C00001D5730904D1230606D5B7EBD61F03D072
:1029D00053681B1A8B42E1D3D5F83802D5F834126C
:1029E00040EA410040F0800089F800000348BDE85B
:1029F000F087000000004042001000E001000600E7
:102A00000C4800210C4A0170417012680B4BB2FB5C
:102A1000F3F2921E4260017364220282418201221B
:102A20004161027641760648C0F8B822C0F8B42267
:102A3000704700001C3A0020DC180020002D3101F6
:102A400000004042304E314C4FF0FF39002706F570
:102A5000805A4A4600218120FEF718FC4FE0A588E5
:102A60004FF07F0810E000BF6D1C80F80080402D03
:102A700000D100256088854206D14A460021812088
:102A8000FEF704FC000604D406EB851001787E29CD
:102A9000EAD0207838B16189A0880AEB811106EB71
:102AA0008010FFF7ADFAA088401CA080A0884028C5
:102AB00000D1A7802089401C20816089401C608152
:102AC0006089402800D16781E089401CE0816078FE
:102AD000A8B1E089218A884211D0A089411CA18136
:102AE000A189402900D1A781218A491C21826770D0
:102AF0000AEB801200214023084604F0E1F8E08848
:102B000021898842A5D0AAE71C1A00206E1800204F
:102B100010B5382000F05BFCBDE81040014800F023
:102B2000B9B90000643A002010B5442000F04FFC11
:102B3000BDE81040014800F0ADB90000C43A0020E3
:102B4000224A08B52249904207D1086840F00100A6
:102B50000860086800F0010009E01E4A904208D1B0
:102B6000086840F002000860086800F00200009069
:102B700008BD194A904207D1086840F00400086077
:102B8000086800F00400F2E7144A904207D1086890
:102B900040F008000860086800F00800E7E7104A05
:102BA000904207D1086840F010000860086800F003
:102BB0001000DCE70B4A9042DAD1086840F0800050
:102BC0000860086800F08000D1E7000000000240C3
:102BD000303802400004024000080240000C02406D
:102BE00000100240001C02402DE9F0410A4D05F1A1
:102BF0001806AF6900F032F9044601463046FDF789
:102C0000E5FAB842F5D1844203D203481030FDF70B
:102C1000D4FA2046BDE8F081004300202DE9FF5F93
:102C20008B464FF0805000EADB08400007259A46AB
:102C30009146410000EA990701EA5A062048FDF74B
:102C4000BCFA014600F03F021E48890900EB02145D
:102C50004FF4700000EA01510098084340EA080070
:102C60003843304340F0406104F10C00FDF7B6FA00
:102C700041011CD580F0044101F000402BF00042DE
:102C80000243226029F00042024362602AF00042BF
:102C9000024304F10C00A260FDF7B1FA48B1084804
:102CA000001DFDF78AFA012004B0BDE8F09F6D1EFB
:102CB000C4D103480830FDF780FA0020F4E7000093
:102CC00004430020803E00202DE9F0478146FF2983
:102CD00001D2FF2A02D30020BDE8F0870024104D66
:102CE00020464FF0010A0AFA00F3564613EA090F8C
:102CF0000FD00B46B2460AE004EBD30603F00708F8
:102D0000AF5D0AFA08FC47EA0C07AF555B1C93421B
:102D1000F2D9401C20340428E5D30120DCE7000070
:102D2000804200202DE9F0473C4C88468146002532
:102D300025708021A4F18000FDF72EFB384B4FF663
:102D4000FF761822304641F2210700BF13F8011B1D
:102D500080EA01205FF008015FEA004C06EA4000CB
:102D600000D57840491EF7D1521EEFD12D4A236A73
:102D70000121934201D0226202E06288824202D0A5
:102D80006080E16137E0E069401CE061012832D0F9
:102D9000254B002003EB0011CA68560102D522F032
:102DA0004062CA60401C4028F4D3E06901282BD05F
:102DB00000F060F80646DEB1FE2200214846FFF72B
:102DC00083FFEF2211460F20FFF77EFFFE22114600
:102DD0000420FFF779FFFFF707FF014600231348A0
:102DE000E269FFF71BFFB8F1000F01D000F020F8F7
:102DF0003046BDE8F08765706560A5604FF480617E
:102E00000948E560FDF7C8FA00F034F8061E01D065
:102E100000F02AF8C4E905052561CCE7004300204D
:102E2000D88400086B27A5E1803E002000FF000346
:102E3000084810B5017809B1012010BD01210170C9
:102E4000FFF7D2FE014600231A460348FFF7E6FECD
:102E5000F2E700000043002001FF00030148406842
:102E600070470000001000E0014800687047000053
:102E7000DC1800200548016841F0807101600448B9
:102E8000016841F00101016001207047FCED00E0A4
:102E9000001000E02DE9F84304464FF00009CDF89A
:102EA000009063484FF41651A56D0068B0FBF1F730
:102EB0002E6894F85C10082000FA01F131420FD01E
:102EC00021680A6852070BD50A6822F004020A60DA
:102ED00094F85C108840A860606D40F00100606567
:102EE00094F85C104FF0010808FA01F0304208D065
:102EF00021684969090604D5A860606D40F00200A8
:102F0000606594F85C1004208840304208D0216845
:102F10000968890704D5A860606D40F00400606509
:102F200094F85C1010208840304218D0216809685D
:102F3000090714D5A86020680168490304D5006812
:102F4000000308D5A16C07E00168C90503D4016836
:102F500021F008010160216C09B12046884794F8EE
:102F60005C1020208840304231D021680968C906B1
:102F70002DD5A86094F8350005282068016806D092
:102F8000490347D5006800031DD4616C1CE021F0A3
:102F9000160101602068416921F080014161206CC7
:102FA00008B9A06C20B12068016821F00801016017
:102FB00094F85C103F208840A86084F8349084F82E
:102FC0003580216D1FE0E16B09B120468847606DB7
:102FD00000282BD0606DC00714D0052084F8350080
:102FE0002068016821F0010101600098401C0090F8
:102FF000B84203D820680068C007F6D184F834903E
:1030000084F83580E16C002910D001B02046BDE87D
:10301000F04308470168C905D5D4016821F01001C3
:10302000016084F8349084F83580CCE7BDE8F883FB
:10303000DC18002070B5044600F06EF90546601CEF
:1030400002D004480078044400F066F9401BA04216
:10305000FAD370BDD01800202DE9F04F0022DFF820
:10306000F0B001264FF00F0906FA02F401EA04035A
:10307000A34267D122F003075F44D7F80888950779
:103080004FEA157C09FA0CFA0AEA0805DFF8C48051
:10309000404502D14FF000081DE0DFF8BC804045FC
:1030A00002D14FF0010816E0DFF8B080404502D1B0
:1030B0004FF002080FE0DFF8A880404502D14FF042
:1030C000030808E0DFF89C80404502D14FF0040877
:1030D00001E04FF0070808FA0CF8A84515D1D7F819
:1030E00008C82CEA0A0CC7F808C81F4D2F689F4370
:1030F0002F602D1D2F689F432F602D1D2F689F432C
:103100002F602D1D2F689F432F60056857000323F4
:10311000BB409D430560D50800EB8505D5F820C070
:1031200057074FEAD76809FA08F72CEA070CC5F8E1
:1031300020C085689D4385604568A5434560C46897
:103140009C43C460521C102A8ED3BDE8F08F00004F
:10315000003001400000024000040240000802402C
:10316000000C024000100240003C01402DE9F84FE5
:10317000DFF860B100224FF001084FF0030A4FF072
:103180000F090BF1040E00BF0B6808FA02F423408C
:10319000A3426ED14D68022D01D0122D0ED1D5085B
:1031A00000EB850CDCF820505607F70E09FA07F6FD
:1031B000B5430E69BE402E43CCF82060066855002A
:1031C0000F790AFA05FC07F0030726EA0C06AF4060
:1031D000374307604E68012E05D0022E03D0112E12
:1031E00001D0122E0ED18668CF6826EA0C06AF40B9
:1031F000374387604668A6430C79C4F300149440B3
:1032000034434460C6688C6826EA0C06AC403443FC
:10321000C4604C68E40056D52F4C256845F48045C1
:103220002560246822F0030504F4804400942B4CAC
:103230002E19D6F8084895072F0F09FA07F5AC4361
:10324000274DA84201D1002515E0264DA84201D105
:10325000012510E0244DA84201D102250BE0234DA9
:10326000A84201D1032506E0214DA84202D1042540
:1032700001E028E00725BD402543C6F80858DBF8E3
:1032800000405D464E689C43F60300D51C432C600D
:10329000DEF8004075464E689C43B60300D51C43DB
:1032A0002C600C4D08352C684E689C43F60200D506
:1032B0001C432C60074D0C352C684E689C43B602AD
:1032C00000D51C432C60521C102AFFF45DAFBDE8F2
:1032D000F88F0000003C01404438024000300140BB
:1032E000000002400004024000080240000C0240BE
:1032F00000100240426931EA020200D109048161F2
:1033000070470AB1816170470904FBE70148006812
:10331000000C7047002004E010B5FDF7D7F9022833
:1033200016D00D480068800B0DD000BF00BF00BF55
:1033300000BF00BF00BF00BF00BF00BF00BF00BF95
:1033400000BF401EF1D105490868401C086010BD4F
:10335000BDE81040FDF7D2B9DC1800205818002055
:10336000094810B5016841F400710160016841F439
:1033700080610160032000F057F80F2000F006F88C
:1033800000F024F8002010BD003C024070B50D4D47
:1033900004464FF47A712878B1FBF0F00A490968C5
:1033A000B1FBF0F000F0BAFA48B9102C07D20022B5
:1033B0002146501E00F018F800206C6070BD0120FE
:1033C00070BD0000D0180020DC18002070470028D5
:1033D00009DB00F01F02012191404009800000F14B
:1033E000E020C0F880127047F0B40E4B1B680C460A
:1033F000C3F30223C3F10705042D00D90425191DC9
:10340000072901D2002300E0DB1E012606FA05F1A0
:10341000491E214099409E40761E16403143F0BC23
:1034200004F0BABE0CED00E0064900F0070208689F
:103430004FF6FF03184040EA0220034A1043086099
:10344000704700000CED00E00000FA052DE9F047A0
:103450000E46050065D0DFF81481D8F80000F7B2F9
:1034600000F00F00B04207D288F80070D8F80000D2
:1034700000F00F00B04254D128683D4C810712D5AE
:10348000400703D5206840F4E0502060287800070A
:1034900003D5206840F4604020602068A96820F0CF
:1034A000F000084320602878C0072DD030496868B4
:1034B0000839012812D0022813D0032811D0096836
:1034C000890700292DDA216821F0030101432160D9
:1034D000FFF722FF814641F2883A0EE0096889032E
:1034E000EFE709688901ECE7FFF716FFA0EB090198
:1034F000514502D90320BDE8F0872068696800F0D3
:103500000C00B0EB810FEFD1D8F80010404601F06D
:103510000F01B14207D90770006800F00F00B042F8
:1035200001D00120E7E72878400705D52068E96841
:1035300020F4E050084320602878000706D5206872
:10354000296920F4604040EAC100206000F026F8BC
:103550002168084AC1F30311515CC840064908605C
:103560000F20FFF713FF0020C5E70000003C0240DA
:1035700008380240F0840008DC180020044805499F
:1035800000680968044AC1F34231515CC840704781
:10359000DC1800200838024000850008154810B5E6
:1035A000006810F00C02144813D01449042A0FD0FC
:1035B000082A0ED10F4C241F2268236802F03F0214
:1035C0005B0207D52068C0F38810A0FB010106E06C
:1035D000084610BD2168C1F38811A1FB000100233A
:1035E000FCF790FE2168C1F30141491C4900B0FB82
:1035F000F1F010BD083802400024F40040787D014D
:103600002DE9F84F050076D02878DFF8F8B2BE4CE7
:10361000C00749D0DBF800105846C1F381010129E9
:1036200008D00068C0F3810002280AD1201D00687C
:10363000400206D52068800336D568680028E2D0AD
:1036400032E06868B0F5803F10D0B0F5A02F206858
:1036500010D020F480302060206820F4802020608A
:103660006868A0B1FFF758FE06460CE0206840F4F9
:103670008030F4E740F480202060F7E7FFF74CFE4D
:10368000801B642873D820688003F7D50CE0FFF70F
:1036900043FE064605E000BFFFF73EFE801B6428A0
:1036A000F0D820688003F7D42878DFF8608280079C
:1036B0004FF000093ED5DBF80010584611F00C0F12
:1036C00009D00068C0F3810002280BD18D48001F8B
:1036D0000068400206D42068800715D5E8680128F4
:1036E00009D111E0E868B8B10120C8F80000FFF77F
:1036F00013FE064605E002E1FFF70EFE801B0228DE
:10370000C0D820688007F7D52068296920F0F80024
:1037100040EAC10020600DE0C8F80090FFF7FCFD12
:10372000064604E0FFF7F8FD801B02281FD820683A
:103730008007F7D42878000722D5724E744869694B
:103740006C3671B101210160FFF7E6FD074604E028
:10375000FFF7E2FDC01B022809D830688007F7D5C3
:103760000EE0C0F80090FFF7D7FD074605E083E0C4
:10377000FFF7D2FDC01B02287ED830688007F7D43F
:103780002878400768D5DFF87CA100270AF1380ABD
:10379000DAF80000C0000BD4DAF8001041F08051D4
:1037A000CAF80010DAF80000012700F080500090FD
:1037B000584E3068C00510D4306840F480703060D6
:1037C000FFF7AAFD009005E0FFF7A6FD0099401A5B
:1037D000022851D83068C005F6D54A4EA868683628
:1037E00001280FD00528306810D020F0010030608B
:1037F000306820F004003060A868B8B1FFF78CFD95
:1038000000900FE0306840F00100F4E740F0040061
:103810003060F7E7FFF780FD0099411A41F28830E8
:10382000814264D830688007F4D50EE0FFF774FD5C
:10383000009007E0FFF770FD0099411A41F28830CF
:10384000814254D830688007F4D42FB1DAF80010E0
:1038500021F08051CAF80010A869C0B3DBF800104D
:10386000C1F3810102294AD00228484607D0C8F88E
:103870006000FFF751FD00E039E005463AE04746B9
:10388000C8F86000FFF748FD064604E0FFF744FD76
:10389000801B02282BD820688001F7D4D5E90701C6
:1038A0000843A96A1C4A490802EB01416A6A41EAD5
:1038B0008211084395F82C1040EA01611148001F5D
:1038C000016001203866FFF727FD054605E014E09A
:1038D000FFF722FD401B022809D820688001F7D598
:1038E0000BE000BFFFF718FD401B022802D90320A0
:1038F000BDE8F88F20688001F4D40020F8E70120AB
:10390000F6E7000008380240003802400000474255
:10391000800E4742007000400000FFFF10B5401EBF
:10392000B0F1807F01D3012010BD4FF0E024606131
:103930000F21601704F030FC0020A06107202061F7
:10394000002010BD2DE9F04387B014216846FCF734
:1039500023FD31480024016841F0800101600168C5
:1039600001F080010591016841F0010101600168E9
:1039700001F001010591016841F002010160016857
:1039800001F002010591016841F004010160006845
:10399000224F00F004000590012272213846FFF703
:1039A000B0FC0122DFF87890560331464846FFF715
:1039B000A8FC722000900125CDE9015469463846E3
:1039C0000394FFF7D3FB042000901648CDE90104CF
:1039D00069463846FFF7CAFB032703970096DFF8CE
:1039E0004880CDE9015469464046FFF7BFFBA80374
:1039F000CDE90005CDE9024769464046FFF7B6FB31
:103A00000096CDE90154694648460394FFF7AEFBA2
:103A100007B0BDE8F08300003038024000040240E7
:103A20000008024000001110000002404FF0A041C9
:103A300048698969084002F007BC00002DE9F0419F
:103A400005461D4E86B0C0074FF000044FF0020738
:103A50004FF00A080CD03046FFF772F8B01400900F
:103A6000CDE90174CDE9034869463046FFF77EFB96
:103A7000A8070DD53046FFF763F84FF400600090BB
:103A8000CDE90174CDE9034869463046FFF76EFB86
:103A9000E8060DD53046FFF753F84FF480600090EC
:103AA000CDE90174CDE9034869463046FFF75EFB76
:103AB00006B0BDE8F08100000000024070B5044689
:103AC0000B4DC00703D0A9142846FFF7C5FAA0077D
:103AD00004D54FF400612846FFF7BEFAE00606D58C
:103AE0002846BDE870404FF48061FFF7B5BA70BD5D
:103AF00000000240014800F02DB80000D08300080B
:103B00000B48C169096809684A680146896A0968F9
:103B10000AB100290AD1826AD160426A002111717A
:103B2000406A0168002901D0012008477047000061
:103B3000D08300080649086A0068006842680846A1
:103B4000806A00680AB1002801D1896A086170475B
:103B5000D083000870B5044600202268916811F0F7
:103B6000680F3BD04D064FF0010327D510680005C4
:103B70000BD4127BA06A0568C168A94215D24168BE
:103B800099B14D1C45600A700FE09289A16A0D68D9
:103B9000C868A84209D24D683DB1681C48602A70C7
:103BA000A16A150A421C4A600570A06AC168491CD6
:103BB000C16020688168606A437102200A0703D5EA
:103BC000626A40F002005371890618D5616A8B71F0
:103BD00021680A680A6040F0040010E0C8071BD0A2
:103BE0005068400618D51046A16A00F016F810B1CA
:103BF00001280DD005E0A16A206800F030F8002807
:103C00000AD0616A0968002906D0BDE870400847FB
:103C1000626A00211171F4E770BD30B50D68CA68A1
:103C2000AA421AD203681B0506D4037B486860B118
:103C3000441C4C60037008E083894C682CB120461A
:103C400023701C0A831C4B604470521CCA60AA4239
:103C500001D1012030BD002030BD022030BD10B5A3
:103C60000B680A699A421CD20268120508D48A6855
:103C70001AB1531C8B60127800E00A7E02730BE0CD
:103C80008B683BB11A461B78941C8C60527843EACF
:103C9000022200E00A8B82810869401C0861002032
:103CA00010BD022010BD00002DE9F04310F03F03CD
:103CB00000D14023DFF8909005062248D9F804404F
:103CC0004FF000074FF0010C1DD438E00024082508
:103CD000D9F8041012E000BFC0F8B8720E46761E84
:103CE000FDD1D0F83482C0F8B8C20E46761EFDD1A0
:103CF00064085B1E44EAC8146D1E01D0002BEBD192
:103D0000EC4002F8014B002BE0D1BDE8F08300BF8E
:103D100011F8012B08250FE0C0F8B422C0F8B872E2
:103D20002646761EFDD1C0F8B8C22646761EFDD1C5
:103D300052085B1E6D1E02D0002BEDD1E5E7002B73
:103D4000E6D1E2E7000040421C3A0020034A5278E4
:103D50000AB100F005B800F0E5B900001C3A0020F7
:103D60002DE9F0478A46EB490122C1F8B42200232D
:103D7000C1F8B832C1F8B822C1F8B402C1F8B832FB
:103D8000C1F8B8224408C1F8B442C1F8B832C1F849
:103D9000B82205198408C1F8B442C1F8B832C1F894
:103DA000B8222544C408C1F8B442C1F8B832C1F8F9
:103DB000B8222C44C1F8B442C1F8B832C1F8B822D4
:103DC000C1F8B432C1F8B832C1F8B822C1F8B4228F
:103DD000C1F8B832C1F8B822DFF83C83D8F8004007
:103DE00024F04064C8F80040D8F80040C8F800400B
:103DF000D8F8084024F04064C8F80840D8F80840D3
:103E0000C8F80840D8F8044024F40054C8F8044026
:103E1000D8F80440C8F80440D8F80C4024F04064B6
:103E2000C8F80C40D8F80C40C8F80C40DFF8EC9209
:103E300099F81840251E05D0C1F8B832C1F8B8224B
:103E4000641EF9D1C1F8B832D1F83442C1F8B822B1
:103E5000C1F8B832D1F83462C1F8B82244EA460455
:103E6000C1F8B832D1F83462C1F8B82244EA860405
:103E7000012C3CD0022C7CD0042C7AD0213505D0EA
:103E8000C1F8B832C1F8B8226D1EF9D1C1F8B42218
:103E9000D8F8000020F04060C8F80000D8F8000012
:103EA00040F08060C8F80000D8F8080020F04060BA
:103EB000C8F80800D8F8080040F04060C8F80800CA
:103EC000D8F8040020F40050C8F80400D8F8040022
:103ED000C8F80400D8F80C0020F04060C8F80C00C6
:103EE000D8F80C0040F08060C8F80C000CE18607A0
:103EF00059D500273D462026C1F8B832D1F834C242
:103F0000C1F8B8227F08654447EACC77761EF3D122
:103F1000C1F8B832D1F83462C1F8B8227540ED0763
:103F200000D00824BAF1000F01D0CAF8007099F847
:103F300018502DB1C1F8B832C1F8B8226D1EF9D1B0
:103F4000C1F8B422D8F8005025F04065C8F80050F8
:103F5000D8F8005045F08065C8F80050D8F80850EF
:103F600025F04065C8F80850D8F8085045F040657D
:103F700000E076E0C8F80850D8F8045025F4005561
:103F8000C8F80450D8F80450C8F80450D8F80C50B9
:103F900025F04065C8F80C50D8F80C5045F0806505
:103FA000C8F80C504AE02DB1C1F8B832C1F8B822B7
:103FB0006D1EF8E7C1F8B422D8F8005025F040652E
:103FC000C8F80050D8F8005045F08065C8F8005097
:103FD000D8F8085025F04065C8F80850D8F80850BF
:103FE00045F04065C8F80850D8F8045025F400554D
:103FF000C8F80450D8F80450C8F80450D8F80C5049
:1040000025F04065C8F80C50D8F80C5045F0806594
:10401000C8F80C500027DAF800502026C1F8B45236
:10402000C1F8B832C1F8B8222F446D08761EF5D118
:10403000C1F8B472C1F8B832C1F8B822000603D58D
:1040400037484068C9F8080099F80C00F0B3C1F887
:10405000B43200BFC1F8B832C1F8B822401EF9D15D
:1040600052E099F819704FB1860707D55FF0210625
:10407000C1F8B832C1F8B822761EF9D12DB1C1F815
:10408000B832C1F8B8226D1EF8E7C1F8B422D8F8EA
:10409000005025F04065C8F80050D8F8005045F0B1
:1040A0008065C8F80050D8F8085025F04065C8F879
:1040B0000850D8F8085045F04065C8F80850D8F8BE
:1040C000045025F40055C8F8045000E01CE0D8F86E
:1040D0000450C8F80450D8F80C5025F04065C8F8D2
:1040E0000C50D8F80C5045F08065C8F80C505FB102
:1040F000800709D4C1F8B4325FF02100C1F8B832AA
:10410000C1F8B822401EF9D1C1F8B422E0B2BDE82E
:10411000F087000000004042000002401C3A0020EE
:10412000001000E02DE9F04FFF4A002601238E46E3
:10413000C2F8B4323446C2F8B862FC4F79680D4612
:104140006D1EFDD1C2F8B8320D466D1EFDD1C2F80C
:10415000B402C2F8B8420D466D1EFDD1C2F8B832A5
:104160000D466D1EFDD145080644C2F8B452C2F892
:10417000B8428C46BCF1010CFCD1C2F8B8328C4676
:10418000BCF1010CFCD12E448508C2F8B452C2F82F
:10419000B8428C46BCF1010CFCD1C2F8B8328C4656
:1041A000BCF1010CFCD12E44C508C2F8B452C2F8CF
:1041B000B8428C46BCF1010CFCD1C2F8B8328C4636
:1041C000BCF1010CFCD13544C2F8B452C2F8B8427B
:1041D0000D466D1EFDD1C2F8B8320D466D1EFDD1E3
:1041E000C2F8B442C2F8B8420D466D1EFDD1C2F805
:1041F000B8320D466D1EFDD1C2F8B432C2F8B842D5
:104200000D466D1EFDD1C2F8B8320D466D1EFDD1B2
:10421000DFF81CB35D46DBF8006026F04066CBF8A3
:104220000060DBF80060CBF80060DBF8086026F087
:104230004066CBF80860DBF80860CBF80860DBF874
:10424000046026F40056CBF80460DBF80460CBF879
:104250000460DBF80C6026F04066EE60EE68EE600D
:104260003E7E351E0FD000BFC2F8B8424FEA010CA7
:10427000BCF1010CFCD1C2F8B8328C46BCF1010C87
:10428000FCD1761EF0D1C2F8B8420E46761EFDD1A2
:10429000D2F83462C2F8B8324FEA010CBCF1010C1A
:1042A000FCD1C2F8B8428C46BCF1010CFCD1D2F86A
:1042B00034C2C2F8B8328846B8F10108FCD146EAE7
:1042C0004C06A246C2F8B8420C46641EFDD1D2F894
:1042D00034C2C2F8B8320C46641EFDD146EA8C04E2
:1042E000012C40D0022C7DD0042CFCD021350DD0E7
:1042F0004FEA0A06C2F8B8620846401EFDD1C2F86D
:10430000B8320846401EFDD16D1EF3D1C2F8B4325A
:10431000DBF80010584621F04061CBF80010DBF8C4
:10432000001041F08061CBF80010DBF8081021F09C
:104330004061CBF80810DBF8081041F04061CBF881
:104340000810DBF8041021F40051CBF80410DBF85E
:1043500004104160C16821F04061C160C16841F052
:104360008061C1605EE1860774D50027DFF8BC91EB
:104370003D462026C2F8B8A24FEA010CBCF1010C60
:10438000FCD1D2F834C2C2F8B8328846B8F101087C
:10439000FCD17F08654447EACC77761EEAD1D04647
:1043A000C2F8B8A24FEA010CBCF1010CFCD1D2F862
:1043B00034C21646C2F8B832491EFDD185EA0C0552
:1043C000E90700D00824BEF1000F01D0CEF800703C
:1043D00099F8185085B1D9F8041000BFC6F8B88212
:1043E0000F4600E0B5E07F1EFBD1C6F8B8320F469D
:1043F0007F1EFDD16D1EF1D1C6F8B432DBF800503E
:10440000594625F04065CBF80050DBF8005045F0E8
:104410008065CBF80050DBF8085025F04065CBF8FC
:104420000850DBF8085045F04065CBF80850DBF841
:10443000045025F40055CBF80450DBF804504D60CF
:10444000CD6825F04065CD60CD6845F08065CD60D4
:104450005CE0FFE765B15746C2F8B8720E46761EBB
:10446000FDD1C2F8B8320E46761EFDD16D1EF3D1D5
:10447000C2F8B432DBF800605D4626F04066CBF847
:104480000060DBF8006046F08066CBF80060DBF887
:10449000086026F04066CBF80860DBF8086046F05C
:1044A0004066CBF80860DBF8046026F40056CBF8D1
:1044B0000460DBF804606E60EE6826F04066EE6033
:1044C000EE6846F08066EE60DEF800504FF0000CBB
:1044D000202700BFC2F8B452C2F8B8A20E46761E1A
:1044E000FDD1C2F8B8320E46761EFDD1AC446D083F
:1044F0007F1EEFD11546C2F8B4C2C2F8B8A20E466C
:10450000761EFDD1C5F8B832491EFDD1000603D58F
:1045100008484068054988600448017BF1B3564665
:10452000C2F8B4A2406807E0000040421C3A0020F4
:1045300000000240001000E0C2F8B86205466D1E9F
:10454000FDD1C2F8B83205466D1EFDD1491EEAD133
:1045500068E0374E96F819C0BCF1000F10D08607FE
:104560000ED521274FEA0A08C2F8B8820E46761EF9
:10457000FDD1C2F8B8320E46761EFDD17F1EF3D1B2
:1045800075B15746C2F8B8720E46761EFDD1C2F814
:10459000B8320E46761EFDD16D1E00E042E0F1D12C
:1045A000C2F8B432DBF800605D4626F04066CBF816
:1045B0000060DBF8006046F08066CBF80060DBF856
:1045C000086026F04066CBF80860DBF8086046F02B
:1045D0004066CBF80860DBF8046026F40056CBF8A0
:1045E0000460DBF804606E60EE6826F04066EE6002
:1045F000EE6846F08066EE60BCF1000F12D08007D6
:1046000010D45646C2F8B4A25FF02105C2F8B862D1
:104610000846401EFDD1C2F8B8320846401EFDD102
:104620006D1EF3D1C2F8B432E0B2BDE8F08F0000E5
:104630001C3A0020F0B5124A0024234627464FF0CA
:10464000010C0E4D526816E013B911F8014B082306
:10465000E60702D0C5F8B4C201E0C5F8B472C5F8E7
:10466000B8721646761EFDD1C5F8B8C21646761E3B
:10467000FDD164085B1E401EE6D2F0BD0000404242
:104680001C3A002030B5234893B00024016841F063
:1046900080510160006800F0805011901E48016850
:1046A00021F4404141F4004101600068022500F41A
:1046B0004040119001200090000401908001CDE95C
:1046C0000650192008904FF4A870099004200A9011
:1046D00007200B906846FEF793FF00B1FEE70F201E
:1046E000CDE90C054FF48050CDE90E4002210CA815
:1046F0001094FEF7ABFE00B1FEE7FEF707FE41F2B5
:104700000101884204D10548016841F480710160CB
:1047100013B030BD4038024000700040003C024001
:1047200070B5194C2068194A10F00C01184804D0D3
:10473000184D042903D0082903D002601BE005604E
:1047400019E01149091F0B68C3F380560B6803F089
:104750003F0316B1B5FBF3F201E0B2FBF3F20B68D5
:104760000968C3F388135A43C1F30141491C490046
:10477000B2FBF1F101602168074AC1F30311515CFA
:104780000268CA40026070BD083802400024F4008C
:10479000DC18002040787D01F08400081048016892
:1047A00041F4700101600F48016841F001010160AE
:1047B0000C4A00210832116002680B4B1A4002605B
:1047C000031D0A4A1A60026822F48022026005482A
:1047D0000C300160024958068039086070470000BB
:1047E00088ED00E000380240FFFFF6FE10300024A4
:1047F000014800F003B80000408400082DE9F041B2
:10480000446822680021E5680B461540AD060F4656
:104810004FF001064FD5C56A95F805C0BCF1000FF1
:1048200003D0ED68022D04D007E06168EE7120210D
:1048300041E0056BED69012D2CD063689BB2056BDF
:10484000AC6804F1010CC5F808C023704468E46842
:1048500065050BD4E40409D5056B4FEA132CAC684D
:1048600004F1010EC5F808E084F800C0056B2C695E
:10487000641C2C61056B2D68AC421CD14468E56852
:1048800025F01005E560C46A6771C46AE468022C0B
:1048900002D00FE06468D2E7046BE569E761012D9F
:1048A00004D0022D06D0032D05D101E0012102E044
:1048B000042100E002214568EC681440E40602D5BA
:1048C0006C6841F04001EC681440240651D5046B3B
:1048D00094F820C0BCF1000F04D0EB6843F0010352
:1048E000EB6046E0D4F814C06568654519D0C36A2A
:1048F000DB68022B02D1E369022B2FD0E3685D1C39
:10490000E56044681B78E4685FEA445C09D4E40429
:1049100007D5046B05F1010CC4F80CC02C7843EAF0
:104920000423046B65696D1C656144686360036BF7
:104930005C685B699C421CD14368DC6824F080049D
:10494000DC604368DC6844F04004DC60036B83F89F
:104950002170C36ADC68022C02D008E0638BE0E7B8
:10496000046BE469012C04D1DB7ADB0601D441F04D
:1049700001014368DC681440640605D5DC6824F056
:104980004004DC6041F00801130705D543685B680B
:10499000C36A41F02001DE71930705D543685B6867
:1049A000C36A41F480715E72D30705D043685B68C7
:1049B000C36A41F400719E72D30508D543681C6830
:1049C00024F480741C60C36A41F080011E72920559
:1049D00006D54268136823F40073136041F48061C4
:1049E000002907D0C06A0268002A03D0BDE8F04160
:1049F00008461047BDE8F0810146002003F062BA86
:104A00000A460146002003F065BA0000074909780C
:104A1000884209D2064951F8200028B1C16819B16D
:104A2000006808B1002070472120704748850008C1
:104A30004C8500082DE9F04100250B4E07462C4619
:104A400056F82400816939B1007FB84204D120466C
:104A500002F084F900B10546641C14F0FF04EFD0A5
:104A60002846BDE8F0810000E01800202DE9F04163
:104A700000250B4E07462C4656F82400816939B1B3
:104A8000007FB84204D1204602F0B2FA00B10546D8
:104A9000641C14F0FF04EFD02846BDE8F08100004C
:104AA000E018002000207047002070477047002069
:104AB0007047000070B505460024FFF7A7FF30B926
:104AC000044850F82500C068007900B10124204650
:104AD00070BD00004C85000810B50446FFF796FF36
:104AE000002804D12046BDE8104000F019BA10BDDE
:104AF00070B504462D4E0D46C80704D056F8241054
:104B000009B101208847A80707D556F8241009B134
:104B100000208847204603F055F9680721D5204634
:104B200003F050F9224850F824000668F078B38862
:104B300000F00302B178204600F05CFA48B9F07842
:104B4000B38800F00302B07840F08001204600F006
:104B500051FA204603F020F9164850F8240000B11D
:104B6000804728070BD51449012051F82410C96843
:104B700081F89500114850F8240000B18047E806FC
:104B800004D50F4850F8240000B18047A80604D58A
:104B90000C4850F8240000B18047290A480704D087
:104BA0002046BDE8704000F0FDBC70BDC485000823
:104BB00038190020C88500084C850008CC850008FD
:104BC000D0850008D485000810B504460C4800784C
:104BD000844201D3002010BD0A4850F82400C06868
:104BE0000028F8D00849D0F8AC0051F824108847C4
:104BF0000028F0D12046BDE81040FFF753BF000069
:104C0000488500084C850008F085000810B504466A
:104C10000C480078844201D3002010BD0A4850F8A7
:104C20002400C0680028F8D00849D0F8AC0051F83A
:104C3000241088470028F0D12046BDE81040FFF737
:104C400033BF0000488500084C850008EC8500084B
:104C500010B504460A48007884420FD2094850F83B
:104C60002400C068002809D00749A03051F824105A
:104C700088472046BDE81040FFF718BF10BD000070
:104C8000488500084C850008E885000810B50446F2
:104C90000F480078844201D3002010BD0D4850F821
:104CA0002400C0680028F8D00021C0F8A810C0F87F
:104CB000AC10094900F1AC0251F82430111FA030AA
:104CC00098470028E9D12046BDE81040FFF7EFBE25
:104CD000488500084C850008E48500082DE9F04768
:104CE000C6B220480078864239D21F4800244FF0CF
:104CF000FF3750F82600D0F800901C4850F82600E6
:104D0000C10708D0810701D401246427400702D4D9
:104D100044F0020464274FF00008E00701D00121AD
:104D200019E0384603F064F90146000113D5D9F8BB
:104D30001C00804700F001054545F2D0A846E00779
:104D400004D01DB101213046FFF7D2FEA007E8D5FF
:104D5000002DE6D102213046FFF7CAFEE1E7BDE8AB
:104D6000F0870000488500084C8500086419002081
:104D700070B5174951F82010C9B1CC68BCB1D4F84E
:104D80009C200025AAB1497D491E0A4202D1012179
:104D900084F89610D4E92623802100F0EDF900284C
:104DA00004D1F4E926121144C4E9001570BD212094
:104DB00070BD94F8961049B100231A46802100F086
:104DC000DBF90028F4D184F8965070BD222070BD24
:104DD0004C850008094910B551F82010CC68002115
:104DE000D4E9262300F0C8F9002805D1F4E926010A
:104DF000084420600020606010BD00004C85000861
:104E000070B50A4C0546A06810B9FBF78BFCA06092
:104E10004FF47A71884201D1284603E0A5FB0002D5
:104E2000B0FBF1F0BDE87040FBF73EBCE01800209D
:104E300070477047704700207047002070477047E8
:104E40000020704770477047704710B5FFF7FAFFB2
:104E500010BD7047704770477047000009480078E0
:104E600060B10948016821F0020101604FF0A040E3
:104E7000816B41F480318163002070474FF0FF3037
:104E800070470000B418002004080050094800785A
:104E900060B10948016841F0020101604FF0A04093
:104EA000816B21F480318163002070474FF0FF3027
:104EB00070470000B4180020040800500148006941
:104EC00070470000B41800200A4810B5007868B197
:104ED000094C206840F0010020600520FEF7AAF888
:104EE000206820F001002060002010BD4FF0FF304E
:104EF00010BD0000B41800200408005006490978CD
:104F000031B106490A6860F30A120A60002070474E
:104F10004FF0FF3070470000B41800200008005028
:104F20002DE9F04105460324154E08E056F825000A
:104F3000642102F05BFF28B10A20FFF761FF641EC5
:104F4000E4B2F3D2BCB1DFF83C80022758F8250068
:104F5000006840698047040005D00A20FFF750FF31
:104F60007F1EFFB2F2D256F8250002F08DFF24B169
:104F70002220BDE8F0812320FBE70020F9E70000B4
:104F8000441900204C8500082DE9F0478946054664
:104F90000324164E09E000BF56F82500642102F0F4
:104FA00025FF28B10A20FFF72BFF641EE4B2F3D2DD
:104FB000C4B1DFF83C80022758F825000068416A38
:104FC00048468847040005D00A20FFF719FF7F1ED6
:104FD000FFB2F1D256F8250002F056FF24B122208C
:104FE000BDE8F0872320FBE70020F9E74419002003
:104FF0004C8500082DE9FF5F894601F00F02054648
:10500000102101EAD9002C499B4610440B786B43D0
:1050100002EB4302D4B2102802D309782144CCB267
:10502000264F142202EB800057F82510C968085853
:1050300020B14946284600F011F9A0BBDFF8808076
:10504000022600BF58F82400642102F0CFFE28B1E8
:105050000A20FFF7D5FE761EF6B2F3D24EB3032632
:105060004FEA070A5A465AF8250002990068C36AAF
:10507000484698470746801D06280CD2DFE800F016
:105080000B0B0B030303761E16F0FF0603D00A205A
:10509000FFF7B6FEE6E758F8240002F0F5FE17F138
:1050A000020F06D01FB1222004B0BDE8F09F0020FF
:1050B000FAE72320F8E70000988500084C850008EF
:1050C000303D00202DE9F05F9346894601F00F0244
:1050D0000546102101EAD900244910440B786B439E
:1050E00002EB4302D4B2102802D309782144CCB297
:1050F000DFF87CA0142202EB80005AF82510C96862
:10510000085820B14946284600F0A8F838BBDFF817
:1051100064800226642158F8240002F067FE28B15A
:105120000A20FFF76DFE761EF6B2F3D2E6B1022733
:105130005AF8250059460068426B484690470600D9
:1051400005D00A20FFF75CFE7F1EFFB2F0D258F8B0
:10515000240002F099FE16F1020F05D016B12220AC
:10516000BDE8F09F0020FBE72320F9E798850008C1
:105170004C850008303D00202DE9FF5F884601F096
:105180000F03334A0446102101EAD80018440127CE
:10519000157807FA00F1654303EB4503DDB21028EB
:1051A00002D312782A44D5B22A4B53F82420D2686D
:1051B000D6680E424AD1142101EB80099A4652F872
:1051C000090038B15FEA087040D14146204600F03E
:1051D00045F8A8BBDFF880B0022600BF5BF82500C9
:1051E000642102F003FE28B10A20FFF709FE761EB3
:1051F000F6B2F3D256B35AF82410CA6842F80970CE
:105200005FF002075AF82400DDE902120068836BA0
:105210004046984706000BD00A20FFF7F1FD7F1E9D
:10522000FFB2EFD25AF824000021C26842F80910F8
:105230005BF8250002F028FE16F1020F06D01EB121
:10524000222004B0BDE8F09F0020FAE72320F8E711
:10525000988500084C850008303D00202DE9F05F5E
:105260008A4601F00F020446102101EADA002549BE
:1052700010440B78634302EB4302D5B2102802D3EB
:1052800009782944CDB2DFF8808058F82410CA6824
:10529000142101EB800B52F80B00002820D0DFF81E
:1052A0006C900226642159F8250002F09FFD28B178
:1052B0000A20FFF7A5FD761EF6B2F3D27EB10227D3
:1052C00058F824000068016C50468847060009D051
:1052D0000A20FFF795FD7F1EFFB2F1D208E02320E0
:1052E000BDE8F09F58F824000021C26842F80B1076
:1052F00059F8250002F0C8FD0EB12220F0E7002089
:10530000EEE70000988500084C850008303D00203D
:105310002DE9F04180460E46102001F00F0200EA10
:10532000D600111815481029047808FB04F302EB85
:105330004302D4B202D300782044C4B2104F0225F5
:10534000642157F8240002F051FD28B10A20FFF72C
:1053500057FD6D1EEDB2F3D275B10A4951F8280020
:105360000068C16B30468847054657F8240002F0B4
:105370008BFD2846BDE8F0810020FBE798850008FA
:10538000303D00204C8500082DE9F047894601F0AA
:105390000F020546102101EAD900254910440B7877
:1053A0006B4302EB4302D4B2102802D309782144A4
:1053B000CCB2DFF880A0142202EB80005AF825104E
:1053C000C968085820B149462846FFF747FF38BB4F
:1053D000DFF86480022600BF58F82400642102F040
:1053E00005FD28B10A20FFF70BFD761EF6B2F3D2B9
:1053F000DEB102275AF825000068016B484688474D
:10540000060005D00A20FFF7FBFC7F1EFFB2F1D299
:1054100058F8240002F038FD16F1020F05D016B13D
:105420002220BDE8F0870020FBE72320F9E70000F9
:10543000988500084C850008303D0020024951F84D
:1054400020000068406800474C850008024951F878
:1054500020000068006800474C8500082DE9F047EF
:1054600091468A4605460324164E08E056F8250064
:10547000642102F0BBFC28B10A20FFF7C1FC641EC6
:10548000E4B2F3D2CCB1DFF840800227494658F8A5
:1054900025000068826850469047040005D00A2025
:1054A000FFF7AEFC7F1EFFB2F0D256F8250002F0E7
:1054B000EBFC24B12220BDE8F0872320FBE700208D
:1054C000F9E70000441900204C8500082DE9F04759
:1054D000894605460324164E09E000BF56F825000C
:1054E000642102F083FC28B10A20FFF789FC641EC6
:1054F000E4B2F3D2C4B1DFF83C80022758F82500AB
:105500000068016948468847040005D00A20FFF773
:1055100077FC7F1EFFB2F1D256F8250002F0B4FCF2
:1055200024B12220BDE8F0872320FBE70020F9E723
:10553000441900204C8500082DE9F04789460546AE
:105540000324164E09E000BF56F82500642102F03E
:105550004DFC28B10A20FFF753FC641EE4B2F3D2DD
:10556000C4B1DFF83C80022758F825000068816A42
:1055700048468847040005D00A20FFF741FC7F1EFB
:10558000FFB2F1D256F8250002F07EFC24B12220B1
:10559000BDE8F0872320FBE70020F9E7441900204D
:1055A0004C8500082DE9F0470546DC488846007820
:1055B000854278D2DFF8689359F82570002F72D0B1
:1055C000FC68002C6FD05FEA48704FF0000632D5BF
:1055D00094F8A000000621D5D4F89C0010B994F8E6
:1055E000960020B12846FFF7C3FB20B30AE094F8E9
:1055F000970000B384F897602846FFF7E5FA48B1B2
:10560000012807D0012200212846FFF75BFDC4F8DE
:105610009C6010E0284602F08EFC0CE0284602F068
:1056200082FC40B96078010605D500F07F01617009
:105630002846FFF7A9FC5FEA887045D594F8A000DA
:1056400001063ED4D4F89C1021B12846FFF7C2FBD6
:1056500050B32EE094F8971059B184F8976028461B
:10566000FFF7D4FA08B1012823D1284602F056FCEE
:105670002AE0C0F34111E1B101291AD110F01F0055
:1056800017D0012802D0022813D10EE0284600F0DE
:1056900051F948B9284600F048F928B9284600F0E1
:1056A00046F908B905E04AE00EE0284600F03BF96B
:1056B000F7E7012280212846FFF704FDC4F89C602B
:1056C00002E0284602F03CFC5FEAC87037D028466A
:1056D000C84659F82010C968A031FFF72DFF0028EF
:1056E0002DD12846FFF7D2FA0121B8B3012863D1A2
:1056F000D4F8A80018B9D4F8AC20002A5CD1B4F8CA
:10570000A620F2B1C4F89800D4F8AC00C4F89C000C
:1057100084F8971094F8A0301B0603D42846FFF7AE
:1057200059FB0AE0904205D27A7D521E104201D107
:1057300084F896102846FFF71BFB00283CD1BDE8F3
:10574000F08794F8A0000006284603D4BDE8F0478F
:1057500002F0E4BBBDE8F04702F0EDBBB868C4F866
:105760009800B4F8A6007A8B904202D9C4F89C2025
:1057700001E0C4F89C0094F8A000C0F3411222B1EB
:10578000012A7DD0022A17D19BE094F8A1000C28B1
:1057900012D2DFE800F00612AF14AF1A34AF3A505D
:1057A0005471284601F0B4FF2CE02846FFF750FA68
:1057B0002846FFF7DDFAE0B39CE0002100E001217C
:1057C000284601F0FFFF98B994E058F82500C0681A
:1057D00080B3B0F8A41069BBB0F8A61051BB90F824
:1057E000A010C90626D190F8A21041F080014170A6
:1057F0002846FFF72DFA284602F090FB68E028467D
:1058000001F062FE0028D0D174E058F82500C0688D
:1058100080B1B0F8A2206AB9B0F8A42052B9B0F8AB
:10582000A620012A66D190F8A020D20662D1021DDE
:105830001EE04AE040E0284602F04CF8C3E758F882
:105840002520CAB3D068B8B3B0F8A230A3BBB0F873
:10585000A630012B4ED190F8A03003F01F03012B8E
:1058600048D1B0F8A430578ABB4243D252681A4498
:10587000C0E9262199E703E0284602F05FF9A2E794
:1058800010F01F0036D0012802D0022832D114E0D7
:10589000284600F019F958B9284600F0C1F938B97E
:1058A000284600F00DF918B9284600F00BF918B198
:1058B0002846FFF7CDF90BE01CE0284600F0FEF883
:1058C000F5E7284601F0CAFE9CE7284602F033FBC4
:1058D00094F8A00000063FF532AFB4F8A600002807
:1058E0003FF42DAF2846FFF775FA0028F8D00122C3
:1058F000802109E094F8A0000006B4F8A60009D4BD
:105900000028F4D0012200212846FFF7DBFBC4F871
:105910009C6014E70028EAD1F4E7000048850008FD
:105920004C85000870470020704700207047002019
:10593000704700002DE9F04105461848007885427F
:1059400026D2174850F82500C6680EB30024DFF8A9
:105950005480154F19E000BF58F8240098B1017F1A
:10596000A94210D1B6F8A410407F81420BD196F81D
:10597000A100092807D1204601F048F818B12846AF
:1059800002F0CCFA38B1641CE4B238788442E3D334
:105990000020BDE8F0810120FBE7000048850008F9
:1059A0004C850008E0180020508500082DE9F047DC
:1059B0003B4B1B78984271D23A4B53F820C0BCF154
:1059C000000F6BD0DCF80C40002C67D0B4F8A2308C
:1059D000DFF8D4901B0A354F354D212B02D0222BF6
:1059E0005CD131E000263346BA460FE05AF8237006
:1059F00057B197F81C80804506D1B4F8A4807F7F0A
:105A0000B84506D0761CF6B25B1CDBB22F78BB42E1
:105A1000ECD32D78AE4241D09CF81160254D94F81E
:105A2000954066B164B155F82000406908600446AD
:105A300059F82300C08820440860092029E064BB8D
:105A400055F820000069F1E70026334613E000BF57
:105A500057F823C0BCF1000F0BD09CF81C80804588
:105A600007D1B4F8A4809CF81DC0E04507D0761C8F
:105A7000F6B25B1CDBB295F800C06345E8D328782A
:105A800086420BD059F8234024680C6059F8230053
:105A9000808810600120BDE8F087FFE70020FAE76A
:105AA000488500084C85000818860008E01800208A
:105AB00050850008381900200020704700207047EA
:105AC00000207047002070472DE9F05F5049804664
:105AD0000978884270D24F4951F82870002F6BD056
:105AE000FC68002C68D000264FF0030A4FF0010B31
:105AF000DFF8249185E0494850F82650002D7ED0EB
:105B0000297F41457BD1B4F8A410687F814276D1CA
:105B100094F8A1000C2872D2DFE800F071063E5123
:105B20007171717171234763304600F0DBFE90B3F1
:105B3000B4F8A200BBEB102F06D1698ED4F89C00FC
:105B4000884263D8E86808E0BAEB102F28D1E98EC4
:105B5000D4F89C00884259D86869401CC4F8980061
:105B60001EE0B4F8A2000221B1EB102F06D1A98EDD
:105B7000D4F89C00884249D8286908E0BAEB102F75
:105B80003AD1E98ED4F89C0088423FD86869401C1D
:105B9000C4F8980030E032E0304600F067FE11E0D3
:105BA0004046FFF7E5F8C0B129E0B4F8A60018B9FF
:105BB000304600F0CBFE1AE028E0E8B11FE03046A6
:105BC00000F070FED8B1B868C4F89800D4F89C0012
:105BD0000128E5D9C4F89CB0E2E7404602F0ABF9F1
:105BE000EBE7B4F8A60088B9304600F0EFFE30B11C
:105BF000404602F093F9E0E70120BDE8F09F761CF3
:105C0000F6B299F800008642FFF475AF0020F4E781
:105C1000488500084C85000850850008E0180020E1
:105C2000002070472DE9F04700F00F0480466FEA2E
:105C3000080040F3C01000F101090D46C2F30A0646
:105C40006FF00400032C1CD8B9F1000F05D03B4ABB
:105C500032F81410B14214D304E006F15401B1F546
:105C6000207F0ED83648007868B1610001EBD8106B
:105C7000344900EB800001EB8007387C30B16FF0D5
:105C80000100BDE8F0874FF0FF30FAE714213846F5
:105C9000FAF782FBFE814FEA0870C00D2A4A012103
:105CA00000F1A040B9F1000F23D000237B74A305BD
:105CB00043EA85433343C0F80039022D01D0032D58
:105CC00005D1D0F8003943F08053C0F80039D0F83E
:105CD000003943F40043C0F80039D0F80039002BF4
:105CE00005DAD0F8003943F08043C0F80039106875
:105CF00017E046EA854343F00063C0F8003B022DFD
:105D000001D0032D05D1D0F8003B43F08053C0F8FB
:105D1000003BD0F8003B43F40043C0F8003B106860
:105D20001034A14008431060012D05D14FF0A04070
:105D3000816941F4004181610020A2E78884000864
:105D4000B41800205C3B00201C08005000F00F023B
:105D5000510001EBD0111B4B01EB810110B503EB9E
:105D600081014B68CC89A34201D9C98901E0496806
:105D700089B20007C40D04F1A04422B141F400200F
:105D8000C4F8100B03E01048014310480160D4F838
:105D9000000BC0F3814001280CD100F0B5FCC00716
:105DA000D4F8000B02D040F0805001E040F00050E9
:105DB000C4F8000BD4F8000B40F00440C4F8000B0A
:105DC00010BD00005C3B002000000860100B00507C
:105DD00070B5024600F00F00032802D96FF00400EE
:105DE00070BD464B4FF0FF351B78A3B3430003EB68
:105DF000D213434C03EB830304EB83031C7C0CB1F1
:105E0000680070BDD4431207D20D44F3C01402F1F0
:105E1000A042641C91B33B4E94B1D2F80019002902
:105E200005DA0120D874D2F8000930434EE0D2F8E8
:105E3000001941F40011C2F8001900F041FC5AE0C9
:105E400031490A6842F400720A60304A4FF0A043B8
:105E50001268920904E001E0521E01D2284670BD8A
:105E60005C692406F8D5400100F1A040D0F8002B71
:105E7000002AD0F8002B02DA324302E008E042F4B4
:105E80000012C0F8002B086840F48060086032E01F
:105E9000002058749874E4B1D2F80009002805DA9B
:105EA000D2F8000940F08040C2F80009D2F8000999
:105EB000C0F38140012805D9D2F8000940F0805094
:105EC000C2F80009D2F8000920F40010C2F8000955
:105ED00011E0D2F8000BC0F38140012805D9D2F8B7
:105EE000000B40F08050C2F8000BD2F8000B20F4F9
:105EF0000010C2F8000B002070BD0000B418002094
:105F00005C3B00200000204004080050DC1800200A
:105F10002DE9F0410E4E0D460746002456F82400A8
:105F2000816971B1017FB9420BD1817F41F080015C
:105F3000A94202D0C07FA84203D12946204600F0E2
:105F40009DFD641C14F0FF04E8D0BDE8F081000062
:105F5000E01800207047000070B500F00F03032B1D
:105F600002D96FF0040070BD234C247864B15B004B
:105F700003EBD013214C03EB830304EB83031C7C62
:105F80002CB16FF0010070BD4FF0FF3070BDC44305
:105F900044F3C01501241C7419605A6000219960F3
:105FA00099810107C90D01F1A0416D1C1AD0D1F8EA
:105FB0000009C0F3814001281CD002B99C745C74B4
:105FC000D1F8000940F08060C1F80009D1F800095B
:105FD00040F00060C1F800090948016841F0400143
:105FE000016007E0D1F8001BC1F38141012901D014
:105FF000FFF7ACFE002070BDB41800205C3B002011
:106000001008005070B5014600F00F00032802D9B7
:106010006FF0040070BD204A127802B3420002EB18
:10602000D1121E4B02EB820203EB82040025656055
:106030006574A5740A064FEA01714FEAD15101F166
:10604000A04118D5D1F80029002A0BDA0120E0740C
:10605000D1F8000940F09040C1F8000918E04FF075
:10606000FF3070BDD1F8002942F00062C1F800296C
:1060700000F026FB0CE0D1F8000B0028D1F8000B53
:1060800002DA40F0904001E040F00060C1F8000BFF
:106090002574002070BD0000B41800205C3B002077
:1060A00000F00F01032901D900207047490001EBDE
:1060B000D010034900EB800001EB8000806870473E
:1060C0005C3B00202DE9F04100F00F040146032C59
:1060D00003D96FF00400BDE8F08157484FF0FF3559
:1060E0000078002870D0600000EBD110534A00EB1C
:1060F000800002EB8000027C0AB16800EBE7C94334
:1061000041F3C0164E490A68761C86F0010304EB81
:1061100003170123BB409A430A601421FAF73CF9A4
:106120000020610101F1A041D1F8002B4FF0A04700
:10613000C2F38142012A05D0D1F80029C2F381427D
:10614000012A28D10122530103F1A043D3F800CB47
:106150005FEA0C4C08D5D3F800CBCCF3814CBCF1F2
:10616000010F01D1401CC0B2D3F800C95FEA0C4C4A
:1061700007D5D3F80039C3F38143012B01D1401C6B
:10618000C0B2521CD2B2032ADDD9012803D1B869AA
:1061900020F40040B861C6B1D1F80009002805DA42
:1061A000D1F8000940F08040C1F80009D1F8000999
:1061B00040F00060C1F80009DCB3D1F8000920F418
:1061C0000040C1F8000934E023E01D481838026897
:1061D00042F4007202601B4A12689209134601E001
:1061E0005B1E16D37E693606FAD5D1F8003B43F024
:1061F0000063C1F8003BC4B1D1F8003B002B0EDABC
:10620000D1F8003B43F08043C1F8003B03E0521E4D
:1062100001D228465FE7D1F8083B9B07F7D5D1F8B4
:10622000002B22F40042C1F8002B016841F4806188
:10623000016000204FE70000B41800205C3B002004
:106240001C080050DC1800202DE9F84FFF4C0646D2
:10625000C0044FF0A049A4F1100813D54FF48051A9
:10626000C9F81410D9F8181041F00801C9F818102D
:1062700001F030FD206820F008002060D8F80810F8
:1062800004208847F24D30050FD54FF40061C9F85E
:106290001410286840F001002860206820F00800F1
:1062A0002060D8F8081010208847002E0FDA4FF031
:1062B0000041C9F81410286820F001002860206807
:1062C00040F008002060D8F8081020208847B0046B
:1062D00011D54FF40051C9F81410206820F00600C1
:1062E000801C2060DB48016841F480710160016816
:1062F00041F4806101602168080711D430070FD58F
:10630000D9F8182022F00802C9F818200822C9F884
:10631000142041F008002060D8F808102020884799
:10632000F00625D5D9F8200000F00F02C0F30A11BD
:10633000C0F34340022818D0032819D0042817D0EE
:10634000062815D1C44A1068C049091D08601268A2
:106350004A6081B2B1F5A06F03D1C0F30740FEF7E8
:10636000CDFD012088F8020002E0104601F042F85D
:10637000300373D5B74814300068B649183109683E
:106380000840070C5FF0000527FA05F0C00760D051
:106390006C0104F1A044D4F8080BAE49103109682F
:1063A00000EA010A2807C00E00EBD51000EB8001BF
:1063B000AA4800EB810B5FEA8A7021D5D4F8000B64
:1063C000C0F38140012818D1DBF8040040F400201C
:1063D000C4F8100B00F098F9C007D4F8000B02D0F5
:1063E00040F0805001E040F00050C4F8000BD4F8B9
:1063F000000B40F00440C4F8000B0220C4F8080B66
:106400005FEA0A700AD50020CBF804000820C4F81F
:10641000080BD8F80C200121284690475FEACA7083
:1064200017D00120C4F8080BDBF8040048B1D4F8F9
:10643000000BC0F3814001280BD02846FFF786FCF3
:1064400007E000208BF81000D8F80C200221284625
:1064500090476D1CEDB237FA05F095D170037DD5EC
:106460007C4814300168001D006801408FB200258F
:1064700027FA05F0C00772D0680100F1A0408346FA
:10648000D0F8080973490C31096800EA010A0120B3
:1064900040EAD51105F00F0001EB400000EB800150
:1064A0006E4800EB81045FEA8A702DD502205946C0
:1064B000CBF80809E07C012806D0D1F80009C0F328
:1064C0008140012806D01FE00020E074284600F03B
:1064D000F7F819E00120A8400090D8F8041008420D
:1064E00012D0284600F0ECF8206838B16168A08925
:1064F0000844606045F0800001F0F6FD0099D8F88E
:1065000004208A43C8F804205FEA4A601ED5607CF4
:10651000C8B100206074514A0146537C401C1943A5
:10652000C0B228320328F8D329B94A480C30016890
:1065300021F040010160606808B9A07C18B145F005
:10654000800001F0D1FD4021CBF808195FEACA7044
:1065500015D00120CBF80809A06801E015E00EE095
:10656000A1890844A060606800B3DBF80009C0F3AB
:106570008140012803D045F0800001F0B5FD6D1C7D
:10658000EDB237FA05F07FF473AF300468D54FF4FD
:106590004211C9F814100124650105F1A045D5F890
:1065A000000BC0F38140012833D109E000202060B6
:1065B0002074D8F80C2045F0800004219047DEE7D5
:1065C000D5F8000B000424D5B00214D500F09CF8D7
:1065D000D5F8001B00F00100C1F30041884218D13A
:1065E000D5F8000B002814DAD5F8000B40F08040F5
:1065F000C5F8000B0DE02007C00E00EBD41000EB37
:106600008001164800EB8100406810B12046FFF77A
:106610009DFB641CE4B2032CBED9D8F8047001249D
:10662000650105F1A045D5F80009C0F381400128B6
:106630003BD1D5F80009000437D5F00223D5D5F8B1
:106640000009002831DA00F05FF80AE0C4180020E1
:10665000000E005004080050001000505C3B002069
:1066600029E0D5F8001900F00100C1F3004188428B
:106670001BD10120A0400743D5F8000940F090400D
:10668000C5F8000911E0012040EAD41004F00F0120
:1066900000EB410000EB8001084800EB81004068FE
:1066A00018B144F0800001F01FFD641CE4B2032C1B
:1066B000B6D9C8F80470BDE8F88F00005C3B002034
:1066C0000D4910B509684FF0A04289090B4601E059
:1066D000491E10D31469A406FAD4116960F38A1113
:1066E0001161106940F02000106101E05B1E02D3CF
:1066F00010698006FAD410BDDC18002001484068FB
:10670000704700008084000804480078002803D007
:1067100003480068C0F30D2070470000B418002043
:106720000808005001480068704700008084000895
:106730004FF0FF307047000010B501281ED1E9B1BD
:1067400001291BD10E4CE089218A884214D00D48C2
:10675000A189402200EB81111846F9F704FEA089B7
:10676000401CA081A089402801D10020A081208A5E
:10677000401C2082402010BD01206070002010BD10
:106780006E1800201C2A00200648002141808180CC
:10679000C180018141818181C181018201214170DA
:1067A000704700006E1800200020704770B5194631
:1067B000049A022829D142B30878154C072813D02F
:1067C000E0882389134DC01A80B2402812D01248A5
:1067D000638800EB8310F9F7C6FD6088401C608079
:1067E0006088402808D009E0207870B10B4901206A
:1067F00008700AE0802105E000206080E088401CED
:10680000E08001212868FAF715FD012070BD000025
:106810006E1800205C1800201C1A00208018002030
:10682000704700000D490978884212D20C4951F88E
:10683000200070B1816961B10A49007F09788842FE
:1068400009D2094951F8200028B1C06818B10020C8
:1068500070472820704721207047000050850008AD
:10686000E0180020488500084C85000810B5044653
:10687000FFF7D8FF08B1002010BD0848084A50F8BB
:106880002400017F806852F82110CA68896892F854
:10689000A220805C0870012010BD0000E0180020DC
:1068A0004C85000810B50446FFF7BCFF88B90A48BC
:1068B00050F8240068B1804700280ADB0749084ADD
:1068C00051F82410097F52F82110896808700120BE
:1068D00010BD002010BD0000B4850008E0180020A5
:1068E0004C85000870B5164D0446164955F824002D
:1068F000007F51F82000C6682046FFF793FFE0B9FB
:10690000B6F8A210080A012804D0022815D00328DE
:1069100013D103E055F82420D36802E055F8242071
:106920005369094A5B1C52F8244034B1CAB20021B1
:10693000A047002801DB012070BD002070BD0000D1
:10694000E01800204C850008AC85000870B50446AE
:10695000FFF768FF08B1002070BD194A194952F8C5
:106960002430187F51F82000C068B0F8A21011F050
:10697000FF0F05D00A0A9B68C9B2491E5A540EE09F
:10698000002106E0B0F8A2509B682D0A5D54491C16
:10699000C9B252F8243093F830508D42F2D890F8B2
:1069A000A20010F0FF0F084850F8240004D0042182
:1069B00001F05EFB012070BD01F078FBFAE70000FA
:1069C000E01800204C8500084C19002010B5044642
:1069D000FFF728FF88B90A4850F8241069B1094820
:1069E000094A50F82400007F52F82000C06890F84F
:1069F000A200884708B1012010BD002010BD000092
:106A0000B8850008E01800204C850008F8B5184F3C
:106A10000446184957F824000025007F51F820004B
:106A2000C6682046FFF7FEFEF8B9B6F8A210080ABD
:106A300001281AD0022802D0032816D103E057F803
:106A40002420136902E057F8242053690A4A5B1C8A
:106A500052F824404CB1B6F8A6200092CAB20021E8
:106A6000A047050001D00120F8BD2846F8BD000070
:106A7000E01800204C850008B085000870B50C4671
:106A80000546FFF7CFFE00280DD1074850F8250036
:106A9000C17FA14207D18269838E007FD268BDE8A1
:106AA0007040FEF769BB70BDE01800202DE9F0478B
:106AB0000746FFF7B7FE002879D1594850F827500C
:106AC000AC69E08AA18ADFF85C914FF00008884247
:106AD0001DD3207FD8B9C4F80880A4F8168059F8CF
:106AE000276036B1E868431C027801210846B047A8
:106AF000A082A08A58B1E868A06095F830100129FA
:106B000002D8401CA06002E0A08A401CA082A08A9B
:106B10004FF0010A10BB207F00BB607810B184F8F1
:106B2000018047E06368CBB195F83020012A16D880
:106B3000E96881F80080A4F8168059F8276036B11A
:106B4000EB680022022101205B1CB047A082A08AD2
:106B500010B1E868401CA060C4F804802AE0607F9F
:106B6000411CCEB2B24200D200260AFA06F10B4214
:106B70001ED0E968701C0870A4F8168059F827C068
:106B8000BCF1000F06D0C2B2EB68022101205B1CF1
:106B9000E047A082A08A20B1E868A060A08A401CDB
:106BA000A08261680AFA06F08143616002E02BE08E
:106BB000B042D7D1A08A08B9207F50B3287F1A49A4
:106BC00051F82010CF68A18AE28A891A8EB2A97F73
:106BD000334641F08001A268FEF7CEFAA068304447
:106BE000A060E08A304480B2E082698E884209D297
:106BF00097F8950005EB4000808CB6FBF0F100FBA8
:106C0000116018B184F81C80BDE8F08784F81CA0DE
:106C1000FAE7064850F82700BDE8F04701F034B91C
:106C2000E0180020AC8500084C85000850190020B1
:106C30002DE9F8430646FFF7F5FD002839D11E4837
:106C4000002750F82640A56994F81C80288B10B9BD
:106C50002069E8602F83E17F4046FEF759FBE96831
:106C600082B21144E960298B084480B21349288319
:106C700094F8312051F82660012A04D876B10090AA
:106C80000022236905E04EB1401E00902069431C9C
:106C9000027801210220B04700280AD02269EA6068
:106CA0002F83A38EE17F01B04046BDE8F043FEF79D
:106CB00063BABDE8F8830000E0180020B085000842
:106CC0002DE9F0471F46924688468146FFF7AAFD08
:106CD00006003AD11E4951F829401E49207FA56976
:106CE00051F82000618EC068B94201D202262CE022
:106CF000007940B1184951F82900002101F076F8D7
:106D000018B1232621E025261FE001206870E168E4
:106D10003A4681F80080E0685146401CF9F723FBB1
:106D2000E0680021A860E982AF8294F83020012A4F
:106D300002D8401CA86002E0A88A401CA8822268F1
:106D4000484622F81810FFF7B1FE3046BDE8F0873C
:106D5000E01800204C8500085019002070B504464A
:106D6000FFF760FD05002CD1174850F8240000B152
:106D70008047164E56F8240030B92146052001F010
:106D8000F7F846F8240020B1114E56F8240010B14F
:106D900007E0102515E0204601F054F946F82400DC
:106DA00020B10C4E56F8240010B10AE0112508E07D
:106DB00000222146022001F039F846F8240000B9EB
:106DC0001225284670BD0000A4850008481900203F
:106DD0004C190020501900202DE9F0410546FFF71D
:106DE00021FD002826D1144850F825401348A669F3
:106DF00050F8250008B101F059F9A07F20B140F00A
:106E00008001207FFEF72AFAE17F11B1207FFEF793
:106E100025FA0B4F57F8250030B1002100F0E6FFAE
:106E200057F8250001F030F820213046F9F7B4FA80
:106E30002069F060BDE8F081E01800204C190020C6
:106E40005019002070B50446FFF7ECFC002815D15E
:106E500000210B4A7D2303E080684354491CC9B2DA
:106E600052F8240090F830508D42F5D8054804219E
:106E700050F82400BDE8704001F0FAB870BD000081
:106E8000E01800204C19002070B5C4B22046FFF76E
:106E9000C9FC002811D1451E284601F0A9F80101BE
:106EA000FAD4060AB00702D52046FFF7C1FE7007E4
:106EB000F2D52046FFF7FAFDEEE770BD2DE9F04769
:106EC000C4B22046FFF7AEFC00287AD144484549B9
:106ED00050F82420107F936951F82000C068017990
:106EE00000296ED05988091D89B2598090F8950003
:106EF00038B1508C38B13C4D05EB400030F8020CF5
:106F000002E0108C00B901204FF0000CE2468142F3
:106F100003D1A3F802A04FF0010C0021012545E0A8
:106F200017680026B94637F811704FF6FC784745C8
:106F300002D23F1D29F81170576837F811704FB110
:106F4000D2F80080C14638F81180B84502D329F83C
:106F500011A0012697687F5CB0EB870F02D90FB1B3
:106F6000012700E0002717EA0C0F01D1BE4304D02F
:106F70005E6805FA01F73E435E6096685768765C86
:106F800037F81170B600B7420ED056B1176837F80F
:106F90001170B74205D35F6805FA01F847EA0807A0
:106FA0005F60576827F81160491CC9B292F83060D9
:106FB0008E42B5D8586808B15A7822B18D40A8439E
:106FC0005860BDE8F0870948002150F8240000F01F
:106FD0000DFF0028F5D12046BDE8F047FFF766BD5C
:106FE000E01800204C850008FE860008501900209B
:106FF0002DE9F0410446FFF715FC05001BD10F4EAB
:10700000002756F8240030B100F038FF08B11225EF
:1070100011E046F824700A4E56F8240030B101F011
:107020000BF808B1102506E046F82470054850F822
:10703000240000B180472846BDE8F08150190020A7
:1070400048190020A885000810B5084C62780AB1DC
:10705000002010BDC4E90201054902200870032088
:10706000FCF7ECFC01206070F2E70000B41800208F
:10707000811800202DE9F05F0446FDF7C7FC0500EC
:1070800078D15C4850F82400C768387810B10020E7
:10709000BDE8F09F2046FEF7D9F9574901EB84017E
:1070A00008602046FEF7CAF9544941F82400B0218F
:1070B0003846F9F771F9DFF84CA1DFF84491DFF8B1
:1070C00048B19AF8000059F8241004FB00F639B9C9
:1070D00000222146104600F0A9FE49F8240078B3AA
:1070E000002510E005EB460000F0FF085BF82800E3
:1070F00038B92A462146012000F098FE4BF82800B6
:10710000F0B16D1CEDB29AF80000B5EB400FE9D379
:107110003E4850F82400426A3AB1364850F82400FC
:10712000C18A11B11046F9F737F9394850F82400EF
:1071300000B180472046FDF77DFC050023D102E029
:10714000FFE712251FE0334D55F8240030B92146E2
:10715000002000F00DFF45F8240060B12E4850F8E3
:1071600024202E4850F824102046FEF777F9050019
:1071700009D102E03BE010250EE002212046FEF797
:10718000A5F9050012D0234F57F8240020B100F0D4
:1071900053FF002047F824002046FDF767FC2048F5
:1071A00050F8240000B18047002712E00120387019
:1071B0001DE000BF07EB460000F0FF085BF8281059
:1071C00029B1084600F05AFE00204BF828007F1C29
:1071D000FFB29AF80000B7EB400FEBD359F8240048
:1071E0004E4620B100F04AFE002046F82400284612
:1071F0004EE700004C8500085E190020641900204D
:107200004419002098850008303D002038190020DE
:10721000BC85000840190020A08500089C85000856
:10722000C08500082DE9F05FDFF8AC816A4EDFF819
:10723000ACA16B4F6B4D4FF0010B4FF00809A8F15B
:1072400020084FF0A04480B1022808D0012803D0C4
:107250006FF00400BDE8F09F6FF00300FAE7687874
:10726000D8B32878002837D13BE0306840F0800060
:10727000306048465146CAF88091BFF34F8FBFF344
:107280006F8FC1F880024FF0000985F800903868D0
:1072900040F002003860A06820F00100A060D8F83B
:1072A000000040F08000C8F8000085F80290A0219E
:1072B0004D48C5F81090F9F76FF8A06B20F48030B6
:1072C000A0634A48016841F001010160C4F83890A8
:1072D000306820F08000306079E0FFE74FF0FF3049
:1072E000B8E7306840F080003060D8F8000040F027
:1072F0008000C8F800000120FBF79CFED8F80000D1
:1073000020F08000C8F800000120FBF793FEA06B7E
:1073100040F48030A063E06840F04000E060642604
:107320006FF0020804E0EEB30120761EFBF782FE48
:1073300020690028F7DA206940F001002061642606
:1073400004E07EB30120761EFBF774FE2069C007BF
:10735000F7D10120FBF76EFE642604E016B301208E
:10736000761EFBF767FE20690028F7DA386840F0E0
:1073700002003860E06840F47050E060E06840006F
:1073800002D5E06880000AD5E06820F00050E06097
:10739000E06840F08040E0603220FBF74BFE00F0F8
:1073A00099FC00E015E0A06B40F40010A0630C48CD
:1073B000001F016841F0030101600D48A061A06851
:1073C00040F08100A06085F800B0CAF8009100206C
:1073D00040E740463EE700003438024008E000E065
:1073E00004080050B41800205C3B0020000E005040
:1073F00010380C8078B5024600F00F00430003EB14
:10740000D212244B400102EB820200F1A04003EBB8
:107410008202D0F8003B1B040DD513685BB15368A2
:107420008B4201D2516889B2D0F8003BC3F381434B
:10743000012B02D007E0002078BDD0F8100B164BCE
:10744000184200D00021154D106893680344880845
:1074500003E02C6843F8044B401E0028F9D19468DF
:107460000C44946011F0030409D02D6800956D461A
:1074700003E02E5C03F8016B401CA042F9D3D089D5
:10748000884201D0002001E05068401A5060084650
:1074900078BD00005C3B00200000F87F0010005029
:1074A00008494FF0FF320B7853B18B7843B100237A
:1074B0008B704B6903608B6943608878002800D02B
:1074C00010467047B41800202DE9F0415F49097853
:1074D000884273D25E4951F82060002E6ED0F56864
:1074E000002D6BD0B5F8A610002967D095F8A01034
:1074F000584C11F01F0102D001295FD186E0B5F888
:10750000A2205549130A082B58D2DFE803F0900453
:107510001D5890900E3F12F0FF0F4FD151F82000F0
:107520004068C5F8980012206EE0727C002A7ED078
:1075300095F8952051F8200022B1C068C5F8980050
:107540000A2061E08068F9E7737C002B95F895309C
:1075500007D03BB151F82000406920600020D2B232
:107560000BE05BBB51F820000069F6E721680B785F
:1075700013B14B8819442160401C8242F6D1206827
:107580000178D9B1C5F8980040883DE0737CABB173
:1075900095F8953051F8200023B1C0692060002093
:1075A000D2B208E08069F9E721680B7813B14B8803
:1075B00019442160401C8242F6D1E0E737E0D2B2A4
:1075C000032A05D151F820305B6A0BB11F782FB91F
:1075D000EE2A05D151F820309B6A0BB123600DE0F3
:1075E00051F82000006A2060002005E02368197827
:1075F00009B119442160401C8242F7D1206801780A
:10760000A9B1C5F898000078606009E0114A121D20
:10761000111FFEF7CBF900280AD02068C5F89800A2
:10762000B5F8A6006168884204D3084603E000204C
:10763000BDE8F0816060C5F89C00717D491E014283
:1076400002D1012085F896000120F1E74885000865
:107650004C850008681900203819002070B52849A9
:107660000978884220D2274951F82060E6B1F468B1
:10767000D4B194F8A110327E914215D1B4F8A21081
:10768000090A11D1B4F8A61071B194F8A0101E4DDA
:1076900011F01F0102D0012906D10EE0B4F8A410A8
:1076A000042903D005290CD0002070BD174951F8DA
:1076B0002000C06A80B1A8600AE0B4F8A4100529CF
:1076C0000AD111490831FEF7F7F90028EDD0A86872
:1076D000C4F898000068E860B4F8A600E968884239
:1076E00001D3084600E0E860C4F89C00717D491EA3
:1076F000014202D1012084F89600012070BD0000F3
:10770000488500084C8500086819002038190020B9
:10771000F0B52A49097888424ED2294951F82020EB
:10772000F2B3D068002846D0926800F19801BAB34D
:10773000B0F8A230A3BBB0F8A630022B3CD190F831
:10774000A0304FF0020613F01F0305D00024012BD8
:1077500009D0022B30D110E0B0F8A42002BB801C6D
:10776000C1E9000626E00379D3B190F8A43090F87F
:107770009400834220D2147019E090F8A4301027AE
:1077800003F08F0505F00F0307EAD5071F44012317
:10779000BB4007790FB92D070ED185681D4200E067
:1077A0000AE009D0C068184000D001201070547061
:1077B000C1E900260120F0BD0020F0BD4885000889
:1077C0004C8500082DE9F04107463E480078874285
:1077D00068D23D4850F82700C468002C62D0B4F845
:1077E000A60000285ED194F8A00010F01F0004D07D
:1077F000012857D0022855D117E0B4F8A20001287B
:1078000050D141B1314850F8270000B1804760881D
:1078100040F0020007E02E4850F8270000B18047F2
:10782000608820F0020060804AE094F8A4001022F2
:1078300000F08F0606F00F0002EAD6021044012580
:107840002279854072B3A2682A422BD0B4F8A220D4
:10785000B2BB320726D0C9B1E168294230D104EB6E
:107860008000406920B131463846FDF7F7FCC8B9C1
:10787000012231463846FDF725FC98B9E0683146CB
:107880002843E0603846FEF765FB19E0E0682842CF
:1078900016D02069284213D1002231463846FDF720
:1078A00011FC10B10020BDE8F081E0683146A8432A
:1078B000E0603846FEF736F831463846FEF728FBDA
:1078C0000120F0E7488500084C850008DC850008A9
:1078D000E08500082DE9FC5F9449804609788842DC
:1078E0007ED2934951F82870002F79D0FC68002C83
:1078F000FBD0B4F8A400002872D1B4F8A600002888
:10790000FAD1009094F8A00010F01F0FF4D194F871
:10791000A2004FF0000A10F0FF0F4FF0010B4FF4E0
:10792000803977D0797C8348002994F8951004D069
:1079300029B150F8280045699DE00029DCD150F8B4
:107940002800056997E06878022804D0042868D0E8
:10795000052863D168E0697994F8A20081425ED17C
:1079600029797A8A91423BD82071287984F8940049
:10797000002003E07A6802F800A0401C798A814266
:10798000F8D80126A1680BFA06F0014213D004EBE7
:107990008600406928B131464046FDF75FFC00286B
:1079A0001ED131464046FDF7EFFC002818D1314684
:1079B0004046FEF7CFFAA16809FA06F0014218D056
:1079C00004EB8600406D30B146F080014046FDF783
:1079D00045FC002804D146F080014046019100E0BA
:1079E00075E0FDF7D1FC002871D140460199FEF702
:1079F000B1FA761CF6B2102EC4D34FF00110C4E9D0
:107A0000020AC4F810A0E8794006608803D540F067
:107A1000010002E034E020F00100608029E0688885
:107A200028E0E878009024E0009810BBA8781022A5
:107A300000F08F0101F00F0002EAD10210440BFAAE
:107A400000F604EB8000406918B14046FDF706FCE3
:107A5000E8BBA0683043A060E878AB8800F0030280
:107A6000A9784046FDF7C6FA88BBA9784046FEF7DC
:107A70004FFA28780544287800287FF464AF41E065
:107A8000564684F804A001254FEA0B07A16807FABF
:107A900005F0014211D004EB8500406920B1294670
:107AA0004046FDF7DBFB90B929464046FDF76CFCEC
:107AB00068B929464046FEF74DFAA16809FA05F073
:107AC000014216D004EB8500406D38B100E02BE098
:107AD00045F080014046FDF7C1FB28BB45F0800121
:107AE0008A464046FDF750FCF0B951464046FEF745
:107AF00031FA6D1CEDB2102DC8D34FF00110C4E95E
:107B000002062661207994F8A21088420CD12179CE
:107B1000404600F0BFF9084850F8281009B1207914
:107B200088470120BDE8FC9F0020FBE7488500084E
:107B30004C85000838190020D88500082DE9FE4F33
:107B400007466148007887427ED2604850F8276037
:107B5000002E79D0F468002C76D0B4F8A600002866
:107B600072D18346CDF808B094F8A000D84600F052
:107B70001F00DA46D946012866D12079002871D045
:107B8000717C5348002994F8951004D029B150F81D
:107B9000270045698CE0002956D150F82700056977
:107BA00086E06878022804D0042808D005287DD112
:107BB0001FE068792179884278D0688877E0B4F846
:107BC000A400718A88426AD295F8028095F803A0D1
:107BD0004FF0000B404569D1B4F8A210514565D172
:107BE00070684FF0010910F80810029100F808A021
:107BF0005CE0B4F8A410414558D1A878102200F0F8
:107C00008F0000F00F01009002EAD000084401212B
:107C100081400191B4F8A220524524D1A168019A73
:107C200004EB80001143A160E168019A9143E16097
:107C3000406920B138460099FDF710FB20B9E8787B
:107C4000AB8800F0030200E029E0A9783846FDF790
:107C5000D1F920BB38460099FEF75AF901994BEA51
:107C6000010B23E01CE0029A92451FD1019A1BEA06
:107C7000020F1BD1A16804EB80009143A160E16871
:107C8000019A9143E160406920B138460099FDF7BF
:107C9000E5FA20B938460099FDF776FB10B10020CF
:107CA000BDE8FE8F38460099FEF754F92878054460
:107CB000287800287FF475AFB9F1000F01D084F85F
:107CC00005804846ECE70000488500084C85000820
:107CD000381900202DE9F0412B4800260660466047
:107CE00014388670A0212948F8F756FB284C2660E6
:107CF000251F2E600122D0064FF09043DB274FF066
:107D00005B0C510101F1A0410646D1F800EBBEF138
:107D1000000F00DA1E46C1F8006BD1F800E90646F4
:107D2000BEF1000F00DA1E46C1F80069C1F80879FB
:107D3000C1F808CB521CD2B2032AE2D91020FEF7B8
:107D4000BFFC13481438016821F4FE61016010493A
:107D50004FF00110083108600B20206003202860DC
:107D6000A021C80541620B4981620A492831C0F847
:107D7000041108495031C0F8081106497831C0F89B
:107D80000C11BDE8F0810000C81800205C3B002009
:107D900014080050A000280070B5094D06460024C4
:107DA00055F82400816929B1007FB04202D12046F4
:107DB000FFF712F8641C14F0FF04F1D070BD00004E
:107DC000E018002070B5084D0446AF2155F8240096
:107DD000C068401CF8F7E0FA55F82400017CC06840
:107DE000C1F38011418070BD4C85000870B50E4C08
:107DF00006460D46606910B9F8F794FC60616EB1F3
:107E00004FF47A7188420CD05DB1A5FB0002B0FB43
:107E1000F1F13046BDE87040F9F792B94FF0FF300C
:107E200070BD2946F5E70000E01800201FB50023CB
:107E30000093019302930393102320B1012805D0EE
:107E400002280CD10AE051B90B480DE039B9042AD7
:107E500005D20948103000EB021005E011B10020F6
:107E600004B010BD04485030CDE9020301216A4638
:107E70000846F9F7A1F9F3E7C410002008B1F9F7B3
:107E800089B94FF0FF30704708B1F9F7A7B94FF043
:107E9000FF30704770B5064600290FD0084D00240A
:107EA00055F82400816929B1007FB04202D12046F3
:107EB000FEF7C8FF641C14F0FF04F1D070BD000091
:107EC000E0180020024A52F8200000F08BB80000B1
:107ED00040190020F0B40E4D01F00F03102455F8A6
:107EE000205004EAD1011944ED68142606EB810103
:107EF00000246C50190341EA0221064A127800FB63
:107F00000230054A52F820000068F0BC00F06AB860
:107F10004C85000898850008F818002000231A46B0
:107F20008021FDF729B910B58021FDF7F1F900286E
:107F300000D0222010BD00231A461946FDF71CB9B7
:107F400010B504460021FDF7E3F908B1222010BD69
:107F5000064850F82400C068406D0028F7D020463D
:107F6000BDE810408021FDF779B900004C8500087C
:107F700030B589B00C46054624216846F8F70CFA5E
:107F8000062D0BD2DFE805F0030A0A0A0A092CB90C
:107F90000E48214602680E4815E014B1002009B0D1
:107FA00030BD0C480021006800900B48029044202E
:107FB00003900A4804900548001D02680592406835
:107FC00006906A460648F9F773F9E8E78C850008D9
:107FD000DD4C0008E4180020F011002038160020C5
:107FE000896E0008002801D0F9F724B97047000015
:107FF00070B5104C0546206910B9F8F793FB206165
:108000004FF47A724FF6FF74904211D085B1A5FB00
:1080100000010023F8F776F9024600212046F9F71F
:1080200035F9002803DA801C01D04FF0004070BD04
:108030002A46F2E7E018002008B1F9F76FB94FF0CF
:10804000FF3070471FB510B1002004B010BD0022F2
:1080500005480092CDE90120202003906B460121C4
:108060000248F9F77FF9F0E738180020BD6E0008E4
:1080700070B50D4C06460D46E06810B9F8F752FB96
:10808000E0602EB14FF47A71884204D1294606E0AF
:108090004FF0FF3070BDA5FB0002B0FBF1F13046A0
:1080A000BDE87040F9F770B9E018002010B5040081
:1080B00008D0F9F745F9002806D02046BDE8104061
:1080C000F9F774B94FF0FF3010BD000010B5032070
:1080D000FBF7F4FC0249002008700249487010BD0B
:1080E00081180020B41800202DE9F04100F00F079E
:1080F000790001EBD010254900EB800001EB8004F2
:108100006068E189884201D9E68901E0606886B249
:108110007D0105F1A045D5F81809B6EB800F32D8DE
:108120001B483043C5F81009D5F80009C0F3814059
:1081300001280CD1FEF7E8FAC007D5F8000902D0F3
:1081400040F0805001E040F00050C5F80009D5F83B
:10815000000940F00440C5F800092068A168A68124
:1081600001440C4800EB07326068801B606000200F
:10817000A074F61CB00804E051F8043B1360401EE4
:1081800080B20028F8D1BDE8F08100005C3B0020FF
:1081900000000820001000500907090E002804DB29
:1081A00000F1E02080F80014704700F00F0000F1AB
:1081B000E02080F8141D704702E008C8121F08C1B3
:1081C000002AFAD170477047002001E001C1121F58
:1081D000002AFBD170470000FAF712FC0020FEF7DE
:1081E00049FF0020FCF778FC4FF40054124D06E0E4
:1081F00021462846FBF77EF8C820F8F755FA0020FC
:10820000FCF758FC0028F3D00C4A00210C48F9F781
:108210004FF80C4E0022214670602846FBF771F89B
:10822000B068F9F769F821462846FBF763F8502053
:10823000F8F73AFAF7E70000000802403883000830
:10824000452A00085818002010B501210020FAF72F
:1082500069FDF02211460120FAF736FDF1221146A0
:108260000120FAF731FDF22211460520FAF72CFD24
:10827000F32211460120FAF727FDF42211460120CE
:10828000FAF722FDF52211460120FAF71DFDF6222C
:1082900011460120FAF718FDF72211460120FAF7DE
:1082A00013FDF82211460120FAF70EFDF9221146BE
:1082B0000120FAF709FDFA22BDE81040114601201D
:1082C000FAF702BDFBF74CF8FCF7DCF9FCF728FAEB
:1082D000FBF738FBF8F73AFA002211460348F8F7A3
:1082E000E7FF03498860F8F747FAFEE7D9810008FD
:1082F0005818002000B591B069460448F9F700FF0E
:1083000069460348F9F7FCFE11B000BD3083000850
:1083100064180020FEE7FEE710B5F8F7D7F900284B
:1083200003D1BDE81040FFF78FBF10BD70470000BC
:10833000050001050CED00E0000000000000000059
:10834000000000000000000000000000000000002D
:10835000180000000000000000000000322E302E47
:108360003000000000000000000000002411002088
:10837000440000003812002000010000010000004D
:1083800000000000000000000000000000000000ED
:108390006811002044000000381300200001000094
:1083A00028000000000000000000000000000000A5
:1083B0000000000040100020340000007410002075
:1083C000500000000000000003020C020A00000040
:1083D000003001407D350008FC8300080C84000853
:1083E0001C8400082C84000823000000841800204E
:1083F0009C180020383A0020483A00200000024033
:1084000080000000050000000002000000000240A3
:1084100040000000050000000002000000000240D3
:1084200020000000050000000002000000000240E3
:1084300010000000050000000002000004020C0211
:1084400039060000001001407D35000874840008E2
:10845000000000000000000000000000000000001C
:10846000250000000000000000000000243B002068
:10847000383B00200000024000020700000000001E
:108480000302150200000000A000A000A000A00050
:1084900025670008FD66000849700008CD800008C7
:1084A000257200085D4E00088D4E0008BD4E000884
:1084B000C94E0008FD4E0008A1740008255C0008A4
:1084C000C5600008D15D0008595F0008A160000880
:1084D0000560000809670008010001014000000074
:1084E000803E002080420020004300200000000069
:1084F0000000000000000000010203040607080954
:108500000000000001020304908400083C190020D0
:10851000003C0020803C0020800001000208100088
:10852000010080002087000800000000AC1100203E
:108530004400000038140020000200002000000069
:108540000000000000000000010000000885000895
:10855000010000005419002056190020581900206D
:10856000403D0020A03D00205C190020003E00207E
:108570000000010101002000400004000100200073
:108580004000040001014000400001002485000873
:10859000000200002000000002000000F94900086D
:1085A000014A000889670008216800083967000847
:1085B000AD67000831670008A9670008494E000848
:1085C000574E0008594E00084B4E0008474E000811
:1085D000554E0008534E0008314E0008354E000835
:1085E000334E0008414E00083F4E00083B4E000845
:1085F000374E00080600FF0901A101150026FF0003
:108600007508954009018102954009019102950183
:108610000901B102C0000000001900200705000098
:1086200008000000120110010000000851C201F012
:10863000000101020301000009022900010100807C
:10864000FA090400000203000004092111010001DD
:1086500022210007058103400001070501034000B6
:10866000010000000000000004030904220343008D
:108670004D005300490053002D00440041005000BC
:108680002000620079002000410052004D002003CC
:1086900057006500410063007400200043004D0056
:1086A0005300490053002D004400410050001A03BC
:1086B0003000300030003100410030003000300028
:1086C00030003000300030002003570065004100CA
:1086D00063007400200043004D0053004900530024
:1086E0002D004400410050000000000012034D0026
:1086F00053004600540031003000300001000100FA
:108700000100010001000200040008001000200028
:10871000400080000001000200040008001000007A
:1087200055534244305F436F72655F5468726561B0
:1087300064000000555342445F484944305F546828
:10874000726561640000000001000000E8030000A1
:1087500005000000001000201000000000000000D4
:108760000000000000000000000000000000000009
:1087700000000000000000200010000000000000C9
:1087800000000000000000000000000000000000E9
:108790000000000000000000000000008001000058
:1087A0006483000888830008AC830008040000008C
:1087B00024110020341200203818002058180020FE
:1087C00000000000000000000000000000000000A9
:1087D000C410002024110020000000000000000050
:1087E00040100020741000205254582056352E3569
:1087F0002E32000018880008000000201C1A00001B
:1088000010040008C88800081C1A00200C2D000065
:10881000C8810008E0A9950301FF01FF01FF01FFE6
:1088200001FF01FF01FF01FF01FF01FF01FF01FF48
:1088300001FF01FF01FF01FF01FF01FF01FF01FF38
:1088400001FF01FF01FF01FF017C12061201130D60
:10885000071BFA0508011413643A1420013B3E0873
:10886000106402402F11120332381AC4181A351836
:108870009A8818021F44296282101324F413548525
:10888000140834870210081340191B2048041AF4F6
:108890002012211212131C861B0824041A62041AC7
:1088A00063041A38041A64041A65041A66041A6800
:1088B0000413203E1B20EC08411A083C013C1AE836
:0888C00094059CD2B3FB0200F9
:040000050800019559
:00000001FF
