:020000040800F2
:10400000A8270020AD41000895740008D37000086F
:1040100091740008DD490008D59A000800000000EE
:1040200000000000000000000000000053780008BD
:10403000C74B0008000000006B77000855780008A7
:10404000C7410008C7410008C7410008C741000830
:10405000C7410008C7410008C7410008C741000820
:10406000C7410008C7410008C7410008C741000810
:10407000C7410008C7410008C7410008C741000800
:10408000C7410008C7410008C74100080000000000
:10409000000000000000000000000000C741000810
:1040A000C7410008C7410008C7410008C7410008D0
:1040B000C7410008C7410008C7410008C7410008C0
:1040C000C7410008C7410008C7410008C7410008B0
:1040D000C7410008C7410008C741000800000000B0
:1040E000C7410008C7410008C741000800000000A0
:1040F000000000000000000000000000C7410008B0
:1041000000000000C7410008C7410008C74100087F
:10411000000000000000000000000000000000009F
:10412000AD4A0008C7410008C7410008C741000860
:10413000C74100080000000000000000000000006F
:10414000000000000000000000000000997400085A
:10415000C7410008C7410008C7410008C74100081F
:10416000C7410008C741000800000000000000002F
:10417000000000000000000000000000000000003F
:1041800000000000C741000800000000000000001F
:10419000C7410008C7410008DFF80CD000F06EFAF4
:1041A00000480047ADA80008A8270020064880471F
:1041B00006480047FEE7FEE7FEE7FEE7FEE7FEE70C
:1041C000FEE7FEE7FEE7FEE73D79000899410008BB
:1041D0002DE9F05F0546002092469B46884606463C
:1041E000814640241BE0284641464746224600F0CF
:1041F0007CF853465A46C01A914110D311461846CE
:10420000224600F063F82D1A67EB01084F4622465C
:104210000120002100F05AF817EB00094E41201E42
:10422000A4F10104DFDC484631462A464346BDE896
:10423000F09F40EA01039B0703D009E008C9121F61
:1042400008C0042AFAD203E011F8013B00F8013B50
:10425000521EF9D27047D2B201E000F8012B491E7C
:10426000FBD270470022F6E710B513460A46044613
:104270001946FFF7F0FF204610BD00F0004230F075
:1042800000400AD0C10D01F56071C0F3160042EA8A
:104290000151C20840071143704700200146704792
:1042A00030B50B46014600202022012409E021FA06
:1042B00002F59D4205D303FA02F5491B04FA02F503
:1042C0002844151EA2F10102F1DC30BD202A04DBD6
:1042D000203A00FA02F1002070479140C2F1200319
:1042E00020FA03F3194390407047202A04DB203A58
:1042F00021FA02F00021704721FA02F3D040C2F106
:10430000200291400843194670472DE9FE4F804630
:1043100081EA0300C00F0C46009021F0004123F019
:104320000045B8EB0200A94105D24046214690461F
:104330001C460B46024623F00040104347D0270D91
:10434000C7F30A00C3F30A510290401A01904028B3
:104350006BDAC3F3130040F4801B0098924620B13F
:104360000023D2EB030A63EB0B0B01985946C0F113
:1043700040025046FFF7AAFF06460D4650465946F2
:10438000019A00F08DF910EB08006141002487EAE2
:10439000115284EAE7731A4340D0009A62B3019A3B
:1043A000012A4FEA075215DC001B61EB02014FF0B6
:1043B000004202EA0752CDE90042001C41F580119B
:1043C00032462B4600F08DF903B0BDE8F08F404631
:1043D0002146F9E7001B61EB0201001C41F5801347
:1043E00000185B412018A2F5001747EB030140EAD3
:1043F000D570B6196D4111E06D084FEA360645EAF1
:10440000C0754FEA0752001B61EB0201001C41F529
:10441000801149084FEA30000019514132462B46BD
:1044200003B0BDE8F04F00F04DB900980122400004
:104430000023D0EB020263EBE073009821464FEAC1
:10444000E074B8EB000061EB0401E9E783F000439E
:104450005BE781F0004158E72DE9FE4F81EA030454
:1044600004F0004421F0004100944FF0000B23F0D1
:10447000004350EA01045ED052EA03045BD0C3F368
:104480000A54C1F30A552C44A4F2F3340194A0FB5E
:104490000254C1F3130141F48011C3F3130343F435
:1044A000801301FB024400FB034E840A970A44EA8E
:1044B000815447EA8357A4FB076802958D0A05FBE0
:1044C00007854FEA932C04FB0C542705029D4FEA05
:1044D000065847EA1637B5EB08056EEB070C870E52
:1044E000920E47EA811742EA8312A7FB0201B6EB5C
:1044F0000B0164EB00042B0D43EA0C335E1844EB14
:104500001C50DA465146E7FB0201C5F313044FEA9B
:104510000B3343EA14534FEA0432019C43EA060387
:10452000A4F10C040294009CCDE900B400F0D9F889
:1045300003B0BDE8F08F00200146F9E72DE9F04D0A
:1045400081EA030404F0004B21F0004514464FF0CB
:10455000000A23F0004150EA050220D054EA01028B
:104560001DD0C5F30A570246C5F31303C1F3130068
:10457000C1F30A5640F4801543F48013A7EB0608F4
:10458000101BD64608F2FD3873EB050002D308F184
:10459000010801E092185B41B8F1000F03DA002036
:1045A0000146BDE8F08D00204FF480110646844698
:1045B0000EE0171B73EB050705D3121B63EB050316
:1045C00006434CEA010C49084FEA300092185B415F
:1045D00050EA0107EDD152EA030012D082EA04004A
:1045E00083EA0501084305D0101BAB4106D2012226
:1045F000002306E000224FF0004302E06FF00102CA
:1046000053101AEB06004CEB085110EB0A0041EB7B
:104610000B01BDE8F04D00F055B8C1F30A52C1F3EB
:10462000130140F2FF3341F480119A4202DA002074
:104630000146704740F233439A42A2F2334202DC11
:104640005242FFF752BEFFF741BE000030B5041ED4
:1046500071F1000404DB4FF00044404264EB0101BF
:10466000141E73F1000405DB1C464FF00043524258
:1046700063EB0403994208BF904230BD064C074DDE
:1046800006E0E06840F0010394E807009847103422
:10469000AC42F6D3FFF784FDD4AC0008F4AC0008BC
:1046A000202A06DBCB17203A41FA02F043EAE073F6
:1046B00006E041FA02F3D040C2F1200291400843E3
:1046C0001946704710B5141E73F1000408DA401C37
:1046D00041F1000192185B411A4301D120F0010021
:1046E00010BD2DE9F04D92469B4611B1B1FA81F211
:1046F00002E0B0FA80F220329046FFF7E7FD044670
:104700000F4640EA0A0041EA0B0153465A46084365
:1047100013D0114653EA010019D0C8F140025046A7
:10472000FFF7E3FD05460E46504659464246FFF761
:10473000CDFD084305D0012004E020463946BDE800
:10474000F08D0020054346EAE0762C4337430A9873
:104750006305E40AA0EB08000022FD0A44EA47547E
:104760000A3002D500200146E9E701051019694128
:10477000DDE9084500196941BDE8F04DA2E770B5D3
:104780008C1810F8015B15F0070301D110F8013BFC
:104790002A1106D110F8012B03E010F8016B01F883
:1047A000016B5B1EF9D12B0705D40023521E0DD4DB
:1047B00001F8013BFAE710F8013BCB1A921C03E029
:1047C00013F8015B01F8015B521EF9D5A142D8D361
:1047D000002070BD70B50546AC6B206C00F0500039
:1047E00050BB206C40F4007020642068806800F0AA
:1047F0004050E8B9207ED8B92068C06A00F4700043
:1048000020B12068806800F4806088B92068406822
:1048100020F0200021684860206C20F48070206423
:10482000206C00F4805018B9206C40F00100206426
:10483000204600F0B7FA0BE0206C00F0100018B131
:10484000204600F0B1FA03E0A06BC16C284688470F
:1048500070BD70B50546AC6B40202064606C40F0C4
:1048600004006064204600F09FFA70BD70B50446F5
:10487000A56B284600F097FA70BD000055494A68BC
:1048800022F440324A604A6843681A434A60026828
:10489000526822F4807203685A60026853680269A1
:1048A00043EA022203685A600268526822F04072AA
:1048B00003685A600268526883681A4303685A6042
:1048C0000268926822F4006203689A600268926843
:1048D000C3681A4303689A603F4B826A9A4218D0B1
:1048E0000268926822F0706203689A6002689268B7
:1048F000836A1A4303689A600268926822F0405201
:1049000003689A6002689268C36A1A4303689A60EF
:104910000BE00268926822F0706203689A60026895
:10492000926822F0405203689A600268926822F00E
:10493000020203689A6002689368027E43EA4202B8
:1049400003689A602022125CA2B10268526842F4A5
:10495000006203685A600268526822F46042036889
:104960005A6002685368426A521E43EA4232036840
:104970005A6005E00268526822F4006203685A60D7
:104980000268D26A22F470020368DA620268D36AAB
:10499000828B521E43EA02520368DA62026892680E
:1049A00022F4007203689A600268936890F83020DD
:1049B00043EA422203689A600268926822F48062A5
:1049C00003689A6002689368426943EA8222036836
:1049D0009A607047002301400100000F00BFFEE70E
:1049E00010B50346042B15D007DC7BB1012B0ED08C
:1049F000022B0DD0032B15D10BE0202B0BD0212B3C
:104A00000DD0222B0CD0232B0CD10AE00BE00AE0B6
:104A100009E008E007E00120044C207003E002E018
:104A200001E000E000BF00BF002010BD1A00002020
:104A30000020704710B500220449054803F0EFF844
:104A40000449034803F0E4F8002010BDA00F002043
:104A500004030020A007002070B504460D4621463F
:104A6000034803F0D5F8024803F0AEF8002070BD0B
:104A7000040300202DE9F04104460D4600260A48B3
:104A8000D0F89072D7F8140210B10120BDE8F0817F
:104A90002A462146044803F0C2F8034803F043F9CC
:104AA00006463046F2E700000403002010B5024835
:104AB00000F09AFA10BD0000840200200146087838
:104AC00010381823B0FBF3F20848805CC865032A4D
:104AD00005D908686FF30900001D886503E00868C0
:104AE0006FF309008865886D704700002CAC0008E2
:104AF000014600208A6A8B69CBB932B1012A0DD0F8
:104B0000022A03D0032A10D10EE000BFCB6A03F0C3
:104B10008073B3F1807F00D1012007E0CB6AB3F14D
:104B2000C07F00D1012001E000E000BF34E08B69CC
:104B3000B3F5005F1AD132B1012A07D0022A03D09F
:104B4000032A11D10AE000BF01200EE0CB6A03F076
:104B50008073B3F1807F00D1012006E0CB6AB3F10E
:104B6000C07F00D1012000E000BF15E032B1012A72
:104B700005D0022A04D0032A0CD103E000BF00BFF5
:104B8000012008E0CB6A03F08073B3F1807F00D18D
:104B9000012000E000BF00BF704730B50468246802
:104BA00024F4802405682C60046863608468402CC9
:104BB00004D10468A2600468E16003E00468A160B5
:104BC0000468E26030BD70477047000070B50A4865
:104BD0000468001D0568001D0668344454B10822AD
:104BE0000649204602F077FA04220449103128468B
:104BF00002F071FA70BD0000107AFF1F5E00002005
:104C000038B502460020009000BF92F83C00012811
:104C100001D1022038BD012082F83C0000BF0868A5
:104C2000092816D91068C0680C780A3C04EB4405C2
:104C30000724AC40A0431468E0600C780A3C04EB05
:104C400044048868A0401468E46820431468E06065
:104C500013E0106800690C7804EB44050724AC40AD
:104C6000A043146820610C7804EB44048868A040D9
:104C7000146824692043146820614868072817D203
:104C80001068406B0C79641E04EB84051F24AC4053
:104C9000A04314686063088880B20C79641E04EB3A
:104CA0008404A0401468646B20431468606331E09E
:104CB00048680D2817D21068006B0C79E41F04EBCC
:104CC00084051F24AC40A04314682063088880B288
:104CD0000C79E41F04EB8404A0401468246B204387
:104CE0001468206316E01068C06A0C790D3C04EB70
:104CF00084051F24AC40A0431468E062088880B299
:104D00000C790D3C04EB8404A0401468E46A204351
:104D10001468E0621E4B1F4C1068A0420AD108685C
:104D2000122807D1586820F400005860586840F4F1
:104D300080005860174C1068A04222D1164C0868B9
:104D4000A04202D0086811281BD1586820F48000C6
:104D50005860586840F4000058600F4C0868A04242
:104D60000FD10E4800680E4CB0FBF4F000EB800051
:104D70004000009002E00098401E0090009800283B
:104D8000F9D100BF002082F83C0000BF00BF41E71E
:104D90000023014000200140120000109400002078
:104DA00040420F00704770477047000070B50446DE
:104DB00000250CB9012070BD1549A06A884200D0B9
:104DC00000BF206C30B9204600F024F80020606459
:104DD00084F83C00206C00F0100088B9206C20F4AE
:104DE000885040F0020020642046FFF747FD002075
:104DF0006064206C20F0020040F00100206400E0BC
:104E0000012500BF002084F83C0000BF2846D2E7FF
:104E10000100000F38B504461C492068884234D18F
:104E200000BF002000901A48006840F480701849C4
:104E300008600846006800F48070009000BF00BF62
:104E4000144815490860002048600021124881601C
:104E5000C1604FF480610161490041618900816155
:104E60004911C16109020162042141620321816289
:104E70000021C162016300F0D7F908B1FFF7A4FE79
:104E800000BF0548A063846300BF38BD0020014017
:104E9000443802401064024084020020F8B5044601
:104EA0000D4616460020009000BF94F83C000128F3
:104EB00001D10220F8BD012084F83C0000BF206829
:104EC000806800F00100A0B92068806840F001000F
:104ED000216888603D4800683D49B0FBF1F000EB77
:104EE0004000009002E00098401E009000980028CA
:104EF000F9D12068806800F00100002864D0206C9F
:104F000040F20161884340F480702064206840686A
:104F100000F4806028B1206C20F4005040F48050F0
:104F20002064206C00F48050B0F5805F04D1606C88
:104F300020F00600606401E00020606400BF0020F3
:104F400084F83C0000BF234F2348A16BC86323486B
:104F5000A16B08642248A16BC8646FF0220021682D
:104F600008602068406840F08060216848602068E0
:104F7000806840F4807021688860226802F14C01EA
:104F800033462A46A06B00F0C5F9786800F01F0090
:104F900058B92068806800F0405028B920688068BF
:104FA00040F08040216888600EE00E492068884209
:104FB0000AD12068806800F0405028B920688068D5
:104FC00040F0804021688860002073E79400002052
:104FD00040420F0000230140D54700086D480008FB
:104FE0005348000800200140F8B504460020009016
:104FF0008C4800684FF41651B0FBF1F7A56D2E6890
:1050000094F85C1008208840304098B1206800680F
:1050100000F0040070B12068006820F004002168EE
:10502000086094F85C1008208840A860606D40F02B
:105030000100606594F85C1001208840304068B140
:105040002068406900F0800040B194F85C100120B5
:105050008840A860606D40F00200606594F85C10C4
:1050600004208840304068B12068006800F00200E9
:1050700040B194F85C1004208840A860606D40F056
:105080000400606594F85C1010208840304078B3CC
:105090002068006800F0080050B394F85C101020FD
:1050A0008840A8602068006800F4802080B12068F3
:1050B000006800F4002028B9206CC8B12046216C9B
:1050C000884715E0A06C98B12046A16C88470FE096
:1050D0002068006800F4807028B92068006820F01B
:1050E000080021680860206C10B12046216C8847B8
:1050F00094F85C10202088403040002865D020685B
:10510000006800F0100000285FD094F85C102020A8
:105110008840A86094F83500052828D120680068E8
:1051200020F01600216808602068406920F08000A7
:1051300021684861206C08B9A06C28B1206800681B
:1051400020F008002168086094F85C103F20884037
:10515000A86000BF002084F8340000BF012084F85C
:105160003500206D10B12046216D8847F8BD2068BC
:10517000006800F4802080B12068006800F40020FE
:1051800028B9606C10B12046616C88471DE0E06B67
:10519000D8B12046E16B884717E02068006800F42A
:1051A000807068B92068006820F0100021680860ED
:1051B00000BF002084F8340000BF012084F83500CF
:1051C000E06B10B12046E16B8847606D38B3606DCD
:1051D00000F00100F0B1052084F835002068006877
:1051E00020F001002168086000BF0098401C00907A
:1051F000B84200D905E02068006800F001000028EE
:10520000F3D100BF00BF002084F8340000BF0120AC
:1052100084F83500E06C10B12046E16C884700BF8F
:10522000A4E70000940000202DE9F0410446002589
:1052300000F0CCF9074614B90120BDE8F081606A9E
:1052400000B100BF00BF002084F8340000BF02207E
:1052500084F835002068006820F0010021680860AB
:105260000AE000F0B3F9C01B052805D920206065CD
:10527000032084F83500E0E72068006800F00100B2
:105280000028EED12068056821480540D4E90101D5
:105290000843E16808432169084361690843A1693B
:1052A0000843E1690843216A08430543606A04280A
:1052B00003D1D4E90B010843054320680560206849
:1052C000456925F00705606A0543606A04280DD129
:1052D000A06A0543E06A48B12046FFF709FC28B1FF
:1052E00040206065012084F83500A6E7206845610C
:1052F0002046FFF7E3FB064694F85C103F20884009
:10530000B06000206065012084F83500002094E73B
:105310003F8010F02DE9F04704460D4616461F4623
:105320004FF00008D4F8589000BF94F834000128DA
:1053300002D10220BDE8F087012084F8340000BFCC
:1053400094F8350001282BD1022084F83500002084
:1053500060653B46324629462046FFF71EFC94F81E
:105360005C103F208840C9F808002068006840F0C1
:105370001600216808602068406940F080002168BC
:105380004861206C28B12068006840F0080021685E
:1053900008602068006840F001002168086006E0AD
:1053A00000BF002084F8340000BF4FF002084046E0
:1053B000C0E7000070B5044600F008F9064625462F
:1053C000681C10B104480078054400BF00F0FEF8E6
:1053D000801BA842FAD370BD90000020F8B50346A8
:1053E0000A460025002400200021CDE0012606FA0F
:1053F00001F5166806EA0504AC4273D15668022E20
:1054000002D05668122E13D1CF0803F1200656F8A9
:1054100027004E07F70E0F26BE40B0434F07FF0E82
:105420001669BE403043CF0803F1200646F8270036
:1054300018684F000326BE40B043167906F00306F5
:105440004F00BE40304318605668012E08D05668A1
:10545000022E05D05668112E02D05668122E13D196
:1054600098684F000326BE40B0434F00D668BE4048
:1054700030439860586801268E40B0431679C6F3D1
:1054800000168E4030435860D8684F000326BE4057
:10549000B0434F009668BE403043D860566806F06F
:1054A0008056B6F1805F6ED100BF00260096384E60
:1054B000366846F48046364F3E603E46366806F40F
:1054C0008046009600BF00BF324E8F0856F8270076
:1054D0008E07370F0F26BE40B0432F4EB34202D186
:1054E000002615E04FE02D4EB34201D101260FE01A
:1054F0002B4EB34201D102260AE02A4EB34201D11B
:10550000032605E0284EB34201D1042600E0072619
:105510008F073F0FBE4030431E4E8F0846F82700CE
:10552000224E3068A043566806F48036B6F5803FB8
:1055300000D120431D4E3060361D3068A0435668B0
:1055400006F40036B6F5003F00D12043174E361D55
:105550003060361D3068A043566806F48016B6F5F4
:10556000801F00D12043114E08363060361D306850
:10557000A043566806F40016B6F5001F00D120437C
:105580000A4E0C363060491C1029FFF42FAFF8BDCD
:105590004438024008380140000002400004024044
:1055A00000080240000C024000100240003C014094
:1055B000024613690B400BB1012000E00020704748
:1055C0000AB1816101E00B04836170470148006802
:1055D00070470000880000200348006803490978EC
:1055E00008440149086070478800002090000020AE
:1055F00010B50D48006840F400700B49086008467B
:10560000006840F4806008600846006840F48070DC
:105610000860032000F0A2F8002000F007F800F076
:105620002BF8002010BD0000003C024070B504467D
:105630000E4800784FF47A71B1FBF0F00C4909681C
:10564000B1FBF0F5284601F02AFD08B1012070BD3C
:10565000102C07D200222146501E00F041F80548C8
:10566000046001E00120F2E70020F0E79000002054
:10567000940000208C00002008B500BF002000909E
:105680000E48006840F480400C49086008460068F5
:1056900000F48040009000BF00BF00BF00200090D9
:1056A000081F006840F08050091F08600846006825
:1056B00000F08050009000BF00BF08BD4438024099
:1056C00001460846002809DB00F01F0301229A402A
:1056D00043099B0003F1E023C3F8002100BF70479A
:1056E0002DE9F05F80460D461646002704F008FAC3
:1056F000074639462A46334601F00700C0F1070A3B
:10570000BAF1040F02D94FF0040A01E0C0F1070A10
:10571000D14600F1040ABAF1070F02D24FF0000A95
:1057200001E0A0F1030AD4464FF0010A0AFA09FA8F
:10573000AAF1010A0AEA020A0AFA0CFA4FF0010B6E
:105740000BFA0CFBABF1010B0BEA030B4AEA0B045F
:105750002146404604F0DCF9BDE8F09F00BF00F0B0
:105760000702064B19684FF6FF031940044B0B4321
:1057700043EA0221014B196000BF70470CED00E0C5
:105780000000FA0570470246106841620020704729
:10579000F0B5034615461868446A21B944EA054045
:1057A0001E68B06219E01868806A04EB1044002299
:1057B00008E0186800F5827050F8220004EB1044ED
:1057C000501CC2B2481E9042F3D844EA05471868FC
:1057D00000F582704E1E40F826700020F0BD10B516
:1057E0000446D4F8040402F02FFE10BD70B5044640
:1057F0000D46C5EBC50304F13C0101EB8301CA680A
:105800002946D4F8040402F04CFD70BD70B504467E
:105810000D46C5EBC50304F5FE7101EB8301CA68B3
:105820002946D4F8040402F0BCFD70BD10B504464E
:10583000D4F8040402F00BFE10BD70B504460E4609
:1058400006F0800080280AD106F00F00C0EBC001EE
:1058500004F13C0000EB81050120687009E006F0CE
:105860000F00C0EBC00104F5FE7000EB81050020C5
:10587000687006F00F00287000BF94F8BC03012880
:1058800001D1022070BD012084F8BC0300BF29466D
:10589000206803F0D7FA00BF002084F8BC0300BFE3
:1058A00000BFEFE770B504460E4606F00F006168D2
:1058B000884201D9012070BD06F0800080280AD1FD
:1058C00006F00F00C0EBC00104F13C0000EB8105C5
:1058D0000120687009E006F00F00C0EBC00104F57C
:1058E000FE7000EB8105002068700020A87006F0B3
:1058F0000F00287000BF94F8BC03012801D10220DA
:10590000D9E7012084F8BC0300BF2946206803F0D2
:1059100041FD00BF002084F8BC0300BF00BFCAE700
:10592000024601F00F00C0EBC00302F5FE7000EB71
:105930008300806970472DE9F04705460E46904682
:105940001F464FF0000906F0800080280AD106F0BB
:105950000F00C0EBC00105F13C0000EB8104012009
:10596000607009E006F00F00C0EBC00105F5FE70A5
:1059700000EB81040020607006F00F002070C4F876
:105980000880E770607808B12078E080022F01D1AC
:105990000020207100BF95F8BC03012802D102202D
:1059A000BDE8F087012085F8BC0300BF21462868C8
:1059B00003F054F900BF002085F8BC0300BF48463F
:1059C000EEE72DE9F04104460E461746984606F0EC
:1059D0000F00C0EBC00104F5FE7000EB8105EF6025
:1059E000C5F814800020A861687006F00F002870C8
:1059F0002069012800D12F6106F00F0028B9227C10
:105A00002946206803F0A2FB04E0227C2946206896
:105A100003F054FD0020BDE8F08170B504460D464A
:105A200005F00F006168884201D9012070BD05F0C2
:105A3000800080280AD105F00F00C0EBC00104F1FE
:105A40003C0000EB81060120707007E0C5EBC5014A
:105A500004F5FE7000EB8106002070700120B0702C
:105A600005F00F00307000BF94F8BC03012801D18D
:105A70000220DBE7012084F8BC0300BF3146206828
:105A800003F0CFFC05F00F0028B9217C04F57172FA
:105A9000206803F047FC00BF002084F8BC0300BF6F
:105AA00000BFC3E72DE9F04104460E46174698466D
:105AB00006F00F00C0EBC00104F13C0000EB8105D3
:105AC000EF60C5F814800020A8610120687006F01E
:105AD0000F0028702069012800D12F6106F00F0007
:105AE00028B9227C2946206803F030FB04E0227CA0
:105AF0002946206803F0E2FC0020BDE8F0812DE992
:105B0000FE4F044620680290029E206803F0C1FE0A
:105B100000287DD1206803F0FBFE08B9BDE8FE8FA8
:105B2000206803F0F5FE00F00200022805D120688D
:105B3000406900F0020021684861206803F0E8FE37
:105B400000F40020B0F5002F58D10025206803F0A4
:105B5000AFFE82464FE00AF00100002848D0E9B2CB
:105B6000206803F0C8FE804608F0010048B101211A
:105B700006F5306000EB451081602946204601F0B3
:105B8000D9FC08F00800082809D12946204601F070
:105B90008BFC082106F5306000EB4510816008F0B1
:105BA0001000102805D1102106F5306000EB4510DB
:105BB000816008F0200020280ED12069012805D13D
:105BC00004F571720121206803F0ACFB202106F579
:105BD000306000EB4510816008F40050B0F5005FC4
:105BE00006D14FF4005106F5306000EB451081609E
:105BF0006D1C4FEA5A0ABAF1000FACD1206803F0CD
:105C000087FE00F48020B0F5802F7ED1206800E070
:105C100012E203F043FE8246002586E00AF001000E
:105C200000287FD0E9B2206803F04CFE804608F0DF
:105C30000100E8B305F00F0101208840019040F613
:105C400034008159019821EA000040F6340188515E
:105C5000012106F5106000EB4510816020690128E4
:105C600015D1C5EBC50104F13C0000EB8100C5EB8B
:105C7000C502C16804F13C0000EB82008068014469
:105C8000C5EBC50204F13C0000EB8200C160E9B243
:105C90002046FFF7ABFD2069012810D145B9C5EBBF
:105CA000C50104F13C0000EB8100406900B900E04F
:105CB00005E004F571720121206803F033FB08F060
:105CC0000800082805D1082106F5106000EB4510F2
:105CD000816008F01000102805D1102106F5106031
:105CE00000EB4510816008F04000402805D14021BC
:105CF00006F5106000EB4510816008F002000228F4
:105D000008D1022106F5106001E012E00AE000EB84
:105D10004510816008F08000802803D12946204684
:105D200001F0C8FC6D1C4FEA5A0ABAF1000F7FF46B
:105D300075AF206803F0ECFD00F00040B0F1004FBB
:105D40001CD140F60400805920F0010140F6040007
:105D5000815194F8F403012807D1002084F8F4035A
:105D600000212046FFF70EFD02E0204600F092FAE7
:105D70002068406900F0004021684861206803F015
:105D8000C7FD00F40060B0F5006F0ED140F60800CA
:105D9000805900F0010010B1204600F0D3FA2068CD
:105DA000406900F4006021684861206803F0B0FD9C
:105DB00000F48050B0F5805F72D140F60400805945
:105DC00020F0010140F6040081511021206803F009
:105DD00035FD002726E04FF67F3106F5106000EB19
:105DE0004710816006F5106000EB4710006820F452
:105DF000001106F5106000EB471001604FF67F318F
:105E000006F5306000EB4710816006F5306000EB6E
:105E10004710006820F4001106F5306000EB4710D1
:105E200001607F1C6068B842D5D840F61C008059DC
:105E300040F0011140F61C008151206B70B1D6F882
:105E4000840840F00B01C6F8841840F644008059DD
:105E500040F00B0140F6440081510FE040F6140081
:105E6000805942F22B01084340F614018851081F63
:105E7000805940F00B014FF401608151D6F80008C1
:105E800020F4FE60C6F80008217C04F571722068D9
:105E900003F048FA2068406900F4805021684861A6
:105EA000206803F035FD00F40050B0F5005F17D115
:105EB000206802F03BFF206803F0D8FCE06000F0AF
:105EC000F7FB0090227B2068009903F071FD2046CB
:105ED00000F0CEF92068406900F400502168486164
:105EE000206803F015FD00F01000102846D120684E
:105EF000806920F01000216888610298D0F8209015
:105F000009F00F00C0EBC00104F5FE7000EB810B3F
:105F1000C9F3434002281AD147F6F07009EA00009D
:105F200030B3C9F30A12DBF80C10029803F0F5FC49
:105F3000C9F30A11DBF80C000844CBF80C00C9F3D4
:105F40000A11DBF818000844CBF8180010E0C9F378
:105F5000434006280CD1082204F57171029803F021
:105F6000DCFCC9F30A11DBF818000844CBF8180070
:105F70002068806940F0100021688861206803F083
:105F8000C7FC00F00800082808D1204600F089F975
:105F90002068406900F0080021684861206803F02B
:105FA000B7FC00F48010B0F5801F0AD10025294607
:105FB000204600F043F82068406900F48010216812
:105FC0004861206803F0A4FC00F40010B0F5001F45
:105FD0000AD100252946204600F039F8206840699A
:105FE00000F4001021684861206803F091FC00F083
:105FF0008040B0F1804F08D12046FFF7F0FB2068C9
:10600000406900F0804021684861206803F080FC0E
:1060100000F0040004280FD12068D0F8049009F0A3
:106020000400042802D12046FFF700FC20684068E5
:1060300040EA09002168486000BF6FE570B504467A
:106040000D462946D4F8040402F068FA70BD70B514
:1060500004460D462946D4F8040402F062FA70BDE5
:1060600070B58AB0044614B901200AB070BD266824
:1060700094F8BD0328B9002084F8BC03204600F042
:10608000A3F8032084F8BD03F06B00F4807008B916
:1060900000212161206803F051F8282204F1100149
:1060A0006846FEF7C6F894E80F0002F063FE20B1E0
:1060B000022084F8BD030120D7E70021206803F007
:1060C0003DFC002531E00121C5EBC50204F13C0097
:1060D00000EB82004170C5EBC50104F13C0000F803
:1060E0002150C5EBC50100EB8100C5800021C5EB47
:1060F000C50204F13C0000EB8200C170C5EBC50293
:1061000004F13C0000EB82008160C5EBC50204F1A4
:106110003C0000EB8200C160C5EBC50204F13C000D
:1061200000EB82004161681CC5B26068A842CAD811
:1061300000252AE00021C5EBC50204F5FE7000EB46
:1061400082004170C5EBC50104F5FE7000F82150D6
:106150000021C5EBC50200EB8200C170C5EBC50292
:1061600004F5FE7000EB82008160C5EBC50204F50A
:10617000FE7000EB8200C160C5EBC50204F5FE7045
:1061800000EB82004161681CC5B26068A842D1D8AA
:10619000282204F110016846FEF74BF894E80F003E
:1061A00002F0D2FE20B1022084F8BD0301205CE79A
:1061B000002084F83800012084F8BD03206802F034
:1061C000B3FE002051E7000010B586B0044614214C
:1061D00001A8FEF747F82068B0F1A04F42D100BFF8
:1061E000002000902048006840F001001E4908602F
:1061F0000846006800F00100009000BF00BF4FF4A7
:10620000C0500190022002900020039003200490CF
:106210000A20059001A91548FFF7E0F800BF1248D1
:10622000001D006840F080000F49091D086000BF94
:10623000002000900C481430006840F480400A4967
:10624000143108600846006800F48040009000BFE8
:1062500000BF00BF002211464320FFF741FA432050
:10626000FFF72EFA06B010BD3038024000000240A1
:1062700070B504460125E068022801D0FEF7A4FCB1
:106280002946D4F8040402F0C5F9D4F8040402F055
:106290007BF970BD10B50446D4F8040402F0A2F9ED
:1062A00010BD10B50446D4F8040402F0A2F910BDE4
:1062B00070B504460D4600BF94F8BC03012801D117
:1062C000022070BD012084F8BC0300BF84F8385060
:1062D0002946206803F04DFB00BF002084F8BC0372
:1062E00000BF00BFEDE710B5044604F57171D4F8A6
:1062F000040402F0A6F910BD70B50446256800BF7D
:1063000094F8BC03012801D1022070BD012084F85B
:10631000BC0300BFA06A012806D1A069012803D0F0
:10632000A86B40F48030A863206802F0EDFD20687F
:1063300003F066FA00BF002084F8BC0300BF00BF72
:10634000E3E7000010B50446D4F8040402F0D2F9E3
:106350002068D0F8000E40F001002168C1F8000E5E
:10636000206A28B10348006840F00600014908602F
:1063700010BD000010ED00E0F8B504460025002631
:10638000207800F0010020B9207800F004000428F3
:1063900031D1002060498866FFF718F9054606E00C
:1063A000FFF714F9401B022801D90320F8BD5B4810
:1063B0000068C0F3C0600028F2D1D4E9011041EABE
:1063C0008011207B41EA007054498431086001202B
:1063D00051498866FFF7FAF8054606E0FFF7F6F838
:1063E000401B022801D90320E0E74C480068C0F3B5
:1063F000C0600028F2D0207800F0020002287DD191
:1064000000BF0020009045484030006840F08050B8
:106410004249403108600846006800F08050009012
:1064200000BF00BF3E48006840F480703C490860EF
:10643000FFF7CCF8054606E0FFF7C8F8401B022836
:1064400001D90320B2E73648006800F480700028C4
:10645000F2D032487030006800F440764EB3208AA3
:1064600000F44070B04224D02C487030006820F412
:10647000407601202B4908600020086027487030D2
:106480000660006800F0010098B1FFF79FF805462C
:1064900008E0FFF79BF8401B41F28831884201D9A0
:1064A000032083E71D4870300068C0F340000028D7
:1064B000EFD000BF208A00F44070B0F5407F0CD1CF
:1064C00016480830006820F4F810174A2169114076
:1064D000084312490831086007E010480830006896
:1064E00020F4F8100D49083108600C48703000683D
:1064F000218AC1F30B010843084900E002E0703132
:10650000086000BF207800F00800082802D1207D34
:1065100006490860002049E7000047420038024071
:1065200000700040400E4742FFFCFF0FE011474261
:1065300070B504460D460CB9012070BD584800687E
:1065400000F00F00A84209D255490D7008460068B6
:1065500000F00F00A84201D00120EEE7207800F003
:10656000020002281DD1207800F00400042805D183
:106570004C48006840F4E0504A490860207800F038
:106580000800082805D14748006840F460404549A4
:1065900008604448006820F0F000A16808434149C1
:1065A0000860207800F00100A8B36068012807D1D6
:1065B0003C4808380068C0F34040B8B90120BCE747
:1065C0006068022802D06068032807D1354808387F
:1065D0000068C0F3406048B90120AEE73148083890
:1065E0000068C0F3400008B90120A6E72D48006804
:1065F00020F00300616808432A490860FEF7E6FFBF
:10660000064609E0FEF7E2FF801B41F2883188422E
:1066100002D9032091E707E02248006800F00C004F
:106620006168B0EB810FEDD11D48006800F00F00EC
:10663000A84209D91A490D700846006800F00F00F9
:10664000A84201D0012078E7207800F00400042857
:1066500007D11448006820F4E050E168084311496C
:106660000860207800F00800082808D10D4800686C
:1066700020F46040216940EAC1000A49086000F046
:106680001DF808490968C1F30311074A515CC84065
:10669000064908600020FEF7C9FF00204DE7000012
:1066A000003C02400838024034AC0008940000204E
:1066B0000148006870470000940000202DE9F04771
:1066C000002400250026A1462548006800F00C00A3
:1066D00020B1042805D008283AD105E0DFF88490DD
:1066E00039E0DFF8849036E01D48001F006800F0B4
:1066F0003F041B48001F006800F4800078B11A486E
:106700001749091F0968C1F38811A0FB01700146F0
:10671000224600233846FDF75BFD05460EE0114892
:106720000F49091F0968C1F38811A0FB01700146D8
:10673000224600233846FDF74BFD05460848001F5A
:106740000068C0F30140401C4600B5FBF6F902E0CA
:10675000DFF8109000BF00BF4846BDE8F08700009A
:10676000083802400024F40040787D0170B586B0FE
:1067700006460C46154646BB00BF00200090284840
:10678000006840F00100264908600846006800F0F3
:106790000100009000BF00BF881501900220029008
:1067A0000320049000200390059001A91D48FEF7E6
:1067B00015FE1B482838006820F0EC6044EA05010B
:1067C000084317492839086027E000BF00200090DF
:1067D0001348006840F0040011490860084600684A
:1067E00000F00400009000BF00BF48150190022097
:1067F00002900320049000200390059001A90A480C
:10680000FEF7ECFD06482838006820F0784044EA9E
:10681000C501084302492839086006B070BD000070
:10682000303802400000024000080240F8B504463B
:106830000CB90120F8BD207800F00100002874D0C8
:10684000F948006800F00C0004280DD0F6480068F4
:1068500000F00C00082813D1F348001F006800F472
:106860008000B0F5800F0BD1EF4808380068C0F306
:106870004040002859D06068002856D10120D9E74F
:1068800000BF6068B0F5803F08D1E748083800686D
:1068900040F48030E449083908601EE06068B0F5D3
:1068A000A02F0DD1E0480838006840F48020DE4970
:1068B000083908600846006840F4803008600CE041
:1068C000D9480838006820F48030D7490839086072
:1068D0000846006820F48020086000BF606890B11E
:1068E000FEF774FE054606E0FEF770FE401B6428C6
:1068F00001D903209EE7CC4808380068C0F3404027
:106900000028F1D011E0FEF761FE054606E0FEF733
:106910005DFE401B642801D903208BE7C24808387C
:106920000068C0F340400028F1D1207800F0020058
:1069300002285FD1BC48006800F00C0058B1BA488A
:10694000006800F00C0008281CD1B748001F006840
:1069500000F48000B0B9B44808380068C0F34000C3
:1069600020B1E068012801D0012063E7AE48083873
:10697000006820F0F800216940EAC100AA490839FE
:10698000086037E0E06800B30120A8490860FEF71E
:106990001DFE054606E0FEF719FE401B022801D940
:1069A000032047E7A04808380068C0F340000028EB
:1069B000F1D09D480838006820F0F800216940EACD
:1069C000C10099490839086014E00020974908601F
:1069D000FEF7FCFD054606E0FEF7F8FD401B022829
:1069E00001D9032026E7904808380068C0F340002A
:1069F0000028F1D1207800F0080008282CD1606927
:106A0000A8B101208A490860FEF7E0FD054606E0CE
:106A1000FEF7DCFD401B022801D903200AE782486B
:106A20006C300068C0F340000028F1D014E0002072
:106A30007F490860FEF7CAFD054606E0FEF7C6FD81
:106A4000401B022801D90320F4E677486C30006827
:106A5000C0F340000028F1D1207800F004000428A1
:106A600070D1002670483830006800F0805090B92E
:106A700000BF002000906C483830006840F0805023
:106A80006949383108600846006800F0805000907D
:106A900000BF00BF01266748006800F48070B0B9ED
:106AA0006448006840F4807062490860FEF78EFD1B
:106AB000054606E0FEF78AFD401B022801D90320A7
:106AC000B8E65C48006800F480700028F2D000BF8F
:106AD000A068012808D154486830006840F00100DF
:106AE0005149683108601DE0A06805280DD14E4865
:106AF0006830006840F004004B496831086008467F
:106B0000006840F0010008600CE047486830006809
:106B100020F001004449683108600846006820F010
:106B20000400086000BFA068A8B1FEF74FFD05464D
:106B300009E0FEF74BFD401B41F28831884202D943
:106B4000032077E626E0384868300068C0F340004C
:106B50000028EED013E0FEF739FD054608E0FEF709
:106B600035FD401B41F28831884201D9032061E69E
:106B70002D4868300068C0F340000028EFD1012E96
:106B800007D129483830006820F080502649383134
:106B9000086000BFA069B8B32348006800F00C008B
:106BA00008285ED0A069022846D100201F49086647
:106BB000FEF70CFD054606E0FEF708FD401B022827
:106BC00001D9032036E6184808380068C0F3406051
:106BD0000028F1D1D4E907010843616A40EA811134
:106BE0000122A06AC2EB500041EA00412C20005D66
:106BF00041EA00600C49091F086001200B49086642
:106C0000FEF7E4FC054607E02DE0FEF7DFFC401B45
:106C1000022801D903200DE6034808380068C0F3B4
:106C200040600028F1D01EE00838024000004742D2
:106C3000800E47420070004000200C490866FEF7B5
:106C4000C5FC054606E0FEF7C1FC401B022801D941
:106C50000320EFE506480068C0F340600028F2D149
:106C600001E00120E6E50020E4E5000000004742E5
:106C70000038024002460023106800F1500303EB85
:106C800081031868704710B50023046804F15003AD
:106C900003EB81031A6010BD70B505460B4616461E
:106CA0000024286840680E4900EA0104200CD870CE
:106CB000C4F30420587004F03F009870C4F34230CD
:106CC00018705EB9D87800F051FDD870587800F08F
:106CD0004DFD5870987800F049FD9870002070BD07
:106CE0003FFFFF0070B504460B461646002520689E
:106CF000806A586020680069C0F30E0098602068C0
:106D000000680F4900EA0105C5F305401870C5F396
:106D10000620587005F07F00987005F48000000C84
:106D2000D8705EB9187800F021FD1870587800F01E
:106D30001DFD5870987800F019FD9870002070BD06
:106D40007F7F7F0010B504460CB9012010BD607F25
:106D500020B900202077204600F060F802206077FC
:106D600000BFCA202168486253202168486200BFE2
:106D7000204600F04FFD40B100BFFF20216848626F
:106D800000BF042060770120E0E720688068224986
:106D90000840216888602169606808436169084388
:106DA000216889680843216888602168E068086173
:106DB00020680169208941EA004021680861206853
:106DC000C06820F080002168C8602068806800F0FA
:106DD000200060B9204600F045F940B100BFFF2017
:106DE0002168486200BF042060770120AEE7206878
:106DF000006C20F48020216808642068006CA16980
:106E000008432168086400BFFF202168486200BF72
:106E100001206077002099E7BFFF8FFF034A0168D8
:106E2000914202D10121024A1160704700280040BE
:106E30003C0E47422DE9F04104460D461646002718
:106E400000BF207F012802D10220BDE8F08101208F
:106E5000207700BF022060774EB9687800F01000FC
:106E6000102804D1687800F0EF000A30687086B905
:106E7000E87800F086FC0304687800F082FC43EABE
:106E80000023A87800F07DFC0343287843EA4037CC
:106E900009E0E8780004697840EA0120A97808430D
:106EA000297840EA413700BFCA2021684862532050
:106EB0002168486200BF204600F0ACFC60B100BF12
:106EC000FF202168486200BF0420607700BF0020D7
:106ED000207700BF0120B8E7164838402168486095
:106EE0002068C06820F080002168C8602068806841
:106EF00000F0200080B9204600F0B4F860B100BF77
:106F0000FF202168486200BF0420607700BF002096
:106F1000207700BF012098E700BFFF20216848626A
:106F200000BF0120607700BF0020207700BF00BFB6
:106F30008BE700003FFFFF002DE9F04104460D46BE
:106F40001646002700BF207F012802D10220BDE89D
:106F5000F0810120207700BF02206077CEB9206841
:106F6000806800F0400000B102E00020E87000BF3F
:106F7000287800F006FC0304687800F002FC43EA7D
:106F80000023A87800F0FDFB0343E87843EA0047BC
:106F900012E02068806800F0400000B102E00020AC
:106FA000E87000BF28780004697840EA0120A978D9
:106FB0000843E97840EA014700BFCA2021684862D7
:106FC00053202168486200BF204600F023FC60B1D6
:106FD00000BFFF202168486200BF0420607700BF27
:106FE0000020207700BF0120B1E71D48384021680C
:106FF00008602068806820F4802021688860D5E9D6
:107000000301084321688968084321688860206873
:10701000C06820F080002168C8602068806800F0A7
:10702000200080B9204600F01DF860B100BFFF20AD
:107030002168486200BF0420607700BF00202077ED
:1070400000BF012083E700BFFF202168486200BF26
:107050000120607700BF0020207700BF00BF76E7E7
:107060007F7F7F0070B5044600252068C06820F04F
:10707000A0002168C860FEF7A9FA054607E0FEF700
:10708000A5FA401BB0F57A7F01D9032070BD2068B6
:10709000C06800F020000028F1D00020F6E770B5AD
:1070A00004462546681EB0F1807F01D301200FE021
:1070B000681E4FF0E02148610F214FF0FF3002F0D1
:1070C00027FD00204FF0E0218861072008610020A3
:1070D00070BD00BFFEE730B50B46002100BF16E0D3
:1070E0000A24B4EB107F05D9302404EB107403F8A4
:1070F000114005E0412404EB10740A3C03F81140F0
:10710000000100254C00641C1D554C1CE1B291424D
:10711000E6DB30BD1FB50020009001900290039087
:107120001B481C4908604FF4803048600021194812
:107130008160012101610176002180F82010C16287
:10714000154981620021C1600221C161012180F8DD
:1071500030104161FDF72AFE08B1FDF735FD112021
:107160000090012001900520029069460948FDF732
:1071700047FD08B1FDF728FD084800900220019066
:1071800069460448FDF73CFD08B1FDF71DFD1FBD34
:10719000002001403C0200200100000F12000010FE
:1071A00008B500BF002000900A48006840F4800045
:1071B000084908600846006800F48000009000BF9D
:1071C00000BF002211463820FEF78AFA3820FEF769
:1071D00077FA08BD3038024000B587B0142102A804
:1071E000FDF740F800BF002001902A48006840F0F9
:1071F0000400284908600846006800F00400019077
:1072000000BF00BF00BF002001900846006840F0AA
:10721000800008600846006800F08000019000BF10
:1072200000BF00BF002001900846006840F0010048
:1072300008600846006800F00100019000BF00BF30
:10724000012251031448FEF7BBF94FF4005002909D
:107250000120039000200490059002A90E48FEF73B
:10726000BDF801200290002003900120049002A9A3
:107270000A48FEF7B3F84FF48070029002200390A2
:10728000002004900590069002A90448FEF7A6F895
:1072900007B000BD30380240000802400000024044
:1072A00000B587B0142102A8FCF7DCFF0020019094
:1072B0004A484B490860002048607F214848816067
:1072C000FF21C1600021016141618161FFF73AFD49
:1072D00008B1FDF779FC00204249086001214048CF
:1072E000FFF7C8FC43F2F221884205D00A4601218B
:1072F0003B48FFF7C8FC48E03B480068C0F3C0606B
:1073000088B100224FF400513848FEF759F909209E
:10731000FEF750F8012251033448FEF751F940F2CC
:10732000F310FEF747F830480068C0F3806020B3E0
:1073300000224FF400512D48FEF742F90920FEF7D4
:1073400039F8012251032948FEF73AF96320FEF784
:1073500031F800224FF400512448FEF731F909209A
:10736000FEF728F8012251032048FEF729F963208F
:10737000FEF720F801201B4908601B48006840F018
:1073800080701949086007B000BD12208DF8080010
:1073900000208DF809008DF80A0005900690012262
:1073A00002A90F48FFF7C8FD08B1FDF70DFC052045
:1073B0008DF8040011208DF8050022208DF80600BC
:1073C00019208DF80700012201A90548FFF732FDB9
:1073D00008B1FDF7F9FB00BFD5E700000028004029
:1073E000E40200202400002074380240000802401B
:1073F00010B51F4800681F49884201D000BFFEE752
:107400001D480068012816D0002412E000224FF425
:1074100000511A48FEF7D4F86320FDF7CBFF012294
:1074200051031648FEF7CCF86320FDF7C3FF601C3C
:10743000C4B20A2CEADB00221149124800F0F2FE25
:1074400008B1FDF7C1FB10490E4801F089F908B1F8
:10745000FDF7BAFB0D490B4800F0D3FB08B1FDF76F
:10746000B3FB084801F046FA08B1FDF7ADFB10BDCB
:107470009400002000D8B805240000200008024035
:107480002800002004030020A8000020780000202D
:1074900000BFFEE77047000010B50248FEF72FFB63
:1074A00010BD0000A01700202DE9F04705460C464E
:1074B0002F683E46D7F8408006F5306000EB441058
:1074C000D0F80890286901280FD1184880451BD9A9
:1074D00009F40040B0F5004F16D14FF4004106F515
:1074E000306000EB441081600EE0114880450BD104
:1074F00009F40040B0F5004F06D14FF4004106F505
:10750000306000EB441081602846FEF7ECFE07482F
:10751000804508D92869012805D105F57172012136
:10752000286801F0FFFE0020BDE8F0870A30544FC4
:107530000A31544F2DE9F04705460C46D5F8008036
:107540004646D8F8409006F5306000EB4410876856
:10755000286901287ED107F0080008281ED1534869
:1075600081450BD907F40040B0F5004F06D14FF428
:10757000004106F5306000EB441081602846FEF7BC
:10758000B2FE05F571720121286801F0CBFE0821D9
:1075900006F5306000EB4410816083E007F02000C6
:1075A000202806D1202106F5306000EB44108160D0
:1075B00078E007F02800002874D13C4881450CD9B8
:1075C00007F40040B0F5004F07D14FF4004106F535
:1075D000306000EB4410816064E0C4EBC40105F549
:1075E000FE7000EB8100816806F5306000EB44100E
:1075F0000069C0F31200091AC4EBC40205F5FE705D
:1076000000EB82008161C4EBC40105F5FE7000EB64
:107610008100C4EBC402C16805F5FE7000EB820076
:1076200080680144C4EBC40205F5FE7000EB8200E3
:10763000C160E1B22846FEF7E9F8FCB9C4EBC40129
:1076400005F5FE7000EB81004069B8B905F571726F
:10765000012100E003E0286801F064FE22E0144804
:1076600081451BD107F40040B0F5004F07D14FF41E
:10767000004106F5306000EB4410816012E007F035
:107680002000202805D1202106F5306000EB4410B1
:107690008160E1B22846FEF7B9F803E0E1B228467E
:1076A000FEF7B4F80020BDE8F08700000A30544F20
:1076B0000A31544F2DE9F84F07460E46D7F800908F
:1076C000C846C6EBC60107F13C0000EB8104D4E9D3
:1076D0000510884202D90120BDE8F88FD4E90501E0
:1076E000451AA068A84200D2A568E81C4FEA900A93
:1076F00017E0D4E90501451AA068A84200D2A568A0
:10770000E81C4FEA900A387CABB2F2B200904846CF
:10771000E16802F0C1F9E0682844E060A06928440B
:10772000A06108F5106000EB4610806980B25045FA
:1077300006D3D4E90510884202D260690028D8D166
:10774000D4E9050188420ED806F00F01012000FAA5
:1077500001FB40F6340050F8080020EA0B0040F628
:10776000340141F808000020B6E77047014600BF29
:10777000080900EB8000420001F00F001044C0B285
:1077800070470146002203E0521CA1F10A00C1B279
:107790000A29F9D2100741EA1060704730B58BB062
:1077A0000446002205A91248FFF79CFA00220AA904
:1077B0000F48FFF771FA9DF82B0000F5FA609DF86D
:1077C0002A109DF829209DF81630CDE90032CDE928
:1077D00002109DF815309DF8142006A1204602F0F5
:1077E0007BF90546A9B22046FDF744F90BB030BD40
:1077F000E4020020253032643A253032643A2530E4
:1078000032642C253032642E253032642E253264C9
:107810000D0A000070B5044600252068C06800F01D
:107820004000A0B9681E2168C860FDF7CFFE05467C
:1078300007E0FDF7CBFE401BB0F57A7F01D90320AE
:1078400070BD2068C06800F040000028F1D0002022
:10785000F6E7704710B5FDF7BFFE10BD00B599B053
:1078600030210DA8FCF7FEFC142108A8FCF7FAFC57
:10787000182102A8FCF7F6FC00BF002001902D485B
:10788000006840F080502B4908600846006800F00E
:107890008050019000BF00BF00BF0020019026482B
:1078A000006840F44040244908600846006800F43D
:1078B0004040019000BF00BF05200D904FF4803084
:1078C0000E9001200F900220139041051491192170
:1078D0001591C021169102211791042118910DA82C
:1078E000FEF7A4FF08B1FDF76FF90F200890022002
:1078F000099000200A904FF480500B9000200C90CB
:10790000032108A8FEF714FE08B1FDF75DF9022077
:107910000290C001069002A8FEF72EFD08B1FDF707
:1079200053F94FF0E0624FF480010020FEF71EFF94
:1079300019B000BD40380240007000401448006893
:1079400040F47000124908601248006840F00100DD
:107950001049086000200F49083108600D48006890
:107960000D4908400B4908600C48091D0860081FB4
:10797000006820F48020091F0860002005490C31B0
:1079800008604FF0006002498039086070470000CD
:1079900088ED00E000380240FFFFF6FE10300024C2
:1079A0002DE9F04104460D46D4F89062D4F898725F
:1079B000D4F8900278B305EB850104F1140000EBD4
:1079C0008100806808B305EB850104F1140000EB29
:1079D0008100C5EBC502816807F13C0000EB820025
:1079E0008068B1FBF0F200FB121070B9002105EBCA
:1079F000850204F1140000EB8200816000231A4626
:107A00002946204600F080FE02E00020C6F814025D
:107A10000020BDE8F081FFE70220FAE770B50446D8
:107A20000E46D4F890523146204600F01DFDC5F8B0
:107A30000C02D4F8900248B1D5F80402D4F894129C
:107A4000CA6805F503719047002070BD0220FCE76D
:107A500070B504460E4600258121204600F00EFC3C
:107A60000021E1620121204600F008FC0021C4F859
:107A700058118221204600F001FC00212164D4F835
:107A8000900250B1D4F8941248688047D4F890021C
:107A900002F0C0FC0020C4F89002284670BD70B50A
:107AA0000546D5F89042D5F8940278B194F80002D2
:107AB000FF280BD094F8012294F80002D5F8941214
:107AC0008B6821469847FF2084F80002002070BD93
:107AD00001460A2008800148704700009C000020F1
:107AE000014643200880014870470000240100201F
:107AF000014643200880014870470000E000002054
:107B000001464320088001487047000068010020BA
:107B10002DE9F04104460F460026207C88B94FF439
:107B2000007302228121204600F0FEFC0121E16267
:107B30004B020222204600F0F7FC0121C4F8581144
:107B40000FE0402302228121204600F0EDFC0121BC
:107B5000E16240230222204600F0E6FC0121C4F845
:107B60005811082303228221204600F0DDFC012168
:107B700021644FF4077003F023F8C4F89002D4F89E
:107B8000900208B901261CE0D4F89052D4F894125F
:107B9000086880470020C5F81402C5F81802207C48
:107BA00040B94FF4007301212046D5F8042200F0BB
:107BB000D3FC06E0402301212046D5F8042200F042
:107BC000CBFC3046BDE8F08170B50446D4F8905245
:107BD000D4F8900298B1207C40B94FF40073012191
:107BE0002046D5F8042200F0B7FC06E0402301212E
:107BF0002046D5F8042200F0AFFC002070BD022022
:107C0000FCE70246022011B1C2F89412002070472E
:107C10000246D2F89032C3F804120020704710B523
:107C20000346D3F89042C4F80812C4F8102200208A
:107C300010BD2DE9FC4105460C46D5F890620020A8
:107C4000019000900027207800F0600040B32028C9
:107C50005FD1E088E0B1207800F0800060B1E28878
:107C60006078D5F894128B6831469847E28831469F
:107C7000284600F0E6F812E0607886F80002A07965
:107C800086F80102E2883146284600F0B9F806E09D
:107C90006078D5F8941200228B68214698473EE020
:107CA000607820B10A2812D00B282AD11FE095F85D
:107CB0007402032805D102226946284600F0C1F863
:107CC00004E02146284600F08FF802271FE095F8CF
:107CD0007402032805D1012201A9284600F0B1F859
:107CE00004E02146284600F07FF802270FE095F8CF
:107CF0007402032804D02146284600F075F80227B4
:107D000005E02146284600F06FF8022700BF00BFBB
:107D100005E02146284600F067F8022700BF00BFB3
:107D20003846BDE8FC8170B50546D5F89042D5F8D7
:107D30009002A8B1D4F8140280B90120C4F814024A
:107D4000D4F810122963B4F8100283B281212846B6
:107D5000D4F8082200F0D8FC002070BD0120FCE718
:107D60000220FAE770B504460D46D4F88C02294685
:107D7000426820469047002070BD70B504460D460D
:107D800094F87402012804D0022803D003280CD1EF
:107D900001E000BF00BF6888012805D10020C4F8B9
:107DA0007C02204600F05EF804E02946204600F000
:107DB0001BF800BF00BF70BD70B506460C461546E7
:107DC0002B4622460021304600F0C6FB002070BD45
:107DD00070B506460C4615462B4622460021304615
:107DE00000F092FC002070BD70B504460D46802165
:107DF000204600F05DFC0021204600F059FC70BDDB
:107E000070B504460E4615460320C4F86C024FF4C4
:107E1000A4700551001D05512B4632460021204615
:107E200000F09AFB002070BD10B504460520C4F890
:107E30006C0200231A461946204600F08DFB0020F4
:107E400010BD70B504460E4615460220C4F86C02FB
:107E5000E56125622B4632460021204600F054FCA5
:107E6000002070BD10B504460420C4F86C02002345
:107E70001A461946204600F047FC002010BD0000BD
:107E800070B505460C462DB92246064906A000F0FD
:107E90008AF904E02246034903A000F084F901486E
:107EA00070BD0000A005002043444320436F6E6670
:107EB00069670000024612200880014870470000F0
:107EC0004400002070B505460C462DB922460649EF
:107ED00006A000F068F904E02246034903A000F080
:107EE00062F9014870BD0000A00500204344432012
:107EF000496E746572666163650000000246042085
:107F000008800148704700005800002070B5054601
:107F10000C462246024903A000F045F9004870BD16
:107F2000A005002053544D6963726F656C656374DE
:107F3000726F6E696373000070B505460C462DB90B
:107F40002246064906A000F02EF904E02246034925
:107F500003A000F028F9014870BD0000A005002032
:107F600053544D3332205669727475616C20436FDF
:107F70006D506F727400000070B505460C461A20F3
:107F80002080FCF723FE014870BD00005C0000204B
:107F900070B504460D46E888012804D029462046DD
:107FA000FFF722FF1EE094F87402012804D0022893
:107FB00003D0032810D109E000BF0020A0600122F7
:107FC00004F108012046FFF73CFF0AE00122211DD1
:107FD0002046FFF736FF04E029462046FFF704FF5E
:107FE00000BF00BF70BDF8B504460E467088001291
:107FF00008287FD2DFE800F07E040C207E7E5F6DD3
:10800000207CD4F888120A6869469047054676E0D5
:10801000207C40B9D4F88C02816A684688470546BE
:108020000221697007E0D4F88C02C16A684688476B
:1080300005460221697062E0B078062834D2DFE894
:1080400000F0030B131B232B207CD4F888124A6802
:108050006946904705462CE0207CD4F888128A684F
:1080600069469047054624E0207CD4F88812CA6807
:108070006946904705461CE0207CD4F888120A69BE
:1080800069469047054614E0207CD4F888124A6976
:108090006946904705460CE0207CD4F888128A692E
:1080A00069469047054604E031462046FFF79CFEAE
:1080B000F8BD00BF23E0207C30B9D4F88C02416BBE
:1080C0006846884705461AE031462046FFF78CFE91
:1080D000EEE7207C48B9D4F88C02016B68468847EB
:1080E0000546072169700AE004E031462046FFF7A3
:1080F0007BFEDDE731462046FFF776FED8E700BF7E
:10810000BDF8000088B1F08878B1F088BDF80010A3
:10811000884202DDBDF8000000E0F0880090BDF864
:10812000002029462046FFF78CFEF08810B9204633
:10813000FFF798FE00BFBBE70146002002E0421CAB
:10814000D0B2491C0A78002AF9D1704770B50446AC
:108150000D4694F87402012804D0022803D00328A5
:108160001AD101E000BF00BFE888022804D02946E8
:108170002046FFF739FE14E00120E060D4F87C02CD
:1081800018B1E06840F00200E060022204F10C0146
:108190002046FFF756FE04E029462046FFF724FE5E
:1081A00000BF00BF70BD2DE9F04104460D461746E3
:1081B0000026FCB12046FFF7BFFF022101EB400083
:1081C00038803A783046711CCEB22A5403223046A9
:1081D000711CCEB22A540AE014F8012B3046711CEF
:1081E000CEB22A5400223046711CCEB22A542078D6
:1081F0000028F1D1BDE8F0810146002031B101290C
:1082000006D0022906D0032908D105E0002007E0A6
:10821000022005E0012003E0022001E0022000BF6F
:1082200000BF704770B504460D4616460CB90220D3
:1082300070BDD4F88C0210B10020C4F88C020DB1CE
:10824000C4F88852012084F874022670204600F099
:1082500015F90020ECE72DE9F04104460D46002613
:1082600000272946D4F89802FDF71CFB0646304645
:10827000FFF7C2FF07463846BDE8F0812DE9F0411F
:1082800004460D46002600272946D4F89802FDF73B
:10829000D4FA06463046FFF7AFFF07463846BDE83A
:1082A000F0812DE9F04104460E461746002E64D1B8
:1082B00004F11405D4F86C02022848D1D5E9030171
:1082C000884210D9D5E90301401AE860A88982B232
:1082D00039462046FFF77CFD00231A461946204602
:1082E00000F03AF93EE02969A868B0FBF1F201FB21
:1082F0001200B8B92969A868884213D3A868D4F8CD
:10830000701288420ED2002211462046FFF760FD0F
:108310000020C4F8700200231A461946204600F0D7
:108320001BF91FE0D4F88C02C06840B194F87402C5
:10833000032804D1D4F88C02C168204688478021E4
:10834000204600F0B5F92046FFF76EFD0AE0D4F8AC
:108350006C02042802D0D4F86C0218B9802120469F
:1083600000F0A6F994F87802012818D1204600F010
:10837000FFF9002084F8780211E0D4F88C024069FB
:1083800050B194F87402032806D1D4F88C02314617
:1083900042692046904702E00220BDE8F0810020BB
:1083A000FBE72DE9F04104460E461746BEBB04F537
:1083B000A075D4F86C02032825D1D5E903018842C1
:1083C00010D9D5E90301401AE860D5E903018842D4
:1083D00001D2E86800E0286982B239462046FFF7FA
:1083E000EBFC2FE0D4F88C02006940B194F87402E1
:1083F000032804D1D4F88C0201692046884720461E
:10840000FFF730FD1EE0D4F86C0205281AD10020D9
:10841000C4F86C020021204600F04AF912E0FFE7A0
:10842000D4F88C02806950B194F87402032806D104
:10843000D4F88C02314682692046904702E002203F
:10844000BDE8F0810020FBE701460020704710B531
:108450000446012084F874022179D4F88C02426821
:1084600020469047002010BD70B504460D462946B1
:10847000D4F89802FDF754FA70BD000010B5044618
:10848000207800282AD11648C0F80444C4F898027D
:108490004FF0A040124908600420486002211048B3
:1084A000C16000210161022181610021C16101627D
:1084B0004162C1620163FDF7D3FD08B1FCF784FBA3
:1084C00080210748FDF75FF9402200210448FDF7AD
:1084D0005FF9802201210248FDF75AF9002010BD02
:1084E000A017002010B50246D2F8983201F08000A3
:1084F000802809D101F07F00C0EBC00403F13C00EB
:1085000000EB8400807810BD01F07F00C0EBC00458
:1085100003F5FE7000EB84008078F4E7024600204B
:1085200070470246002070472DE9F04704460F4689
:1085300015461E464FF00008C1462B4632463946C6
:10854000D4F89802FDF7F7F980464046FFF754FE4D
:1085500081464846BDE8F0872DE9F04704460D46C0
:1085600016461F464FF00008C1463B463246294694
:10857000D4F89802FDF725FA80464046FFF73CFE06
:1085800081464846BDE8F08710B5044640230022E6
:1085900011462046FFF7C8FF01214FF4A270015198
:1085A00040214FF4A8700151402300228021204631
:1085B000FFF7BAFF0121A16140216162012084F827
:1085C00074020020C4F86C026060C4F87C02D4F825
:1085D000900228B12179D4F88C0242682046904755
:1085E000002010BD014691F8750281F87402002048
:1085F000704710B5044694F87402032808D1D4F8E3
:108600008C02C06920B1D4F88C02C1692046884729
:10861000002010BD02461174002070472DE9F04182
:1086200004460D46002600272946D4F89802FDF797
:108630003FFE06463046FFF7DFFD07463846BDE8F9
:10864000F08170B504460D46294604F5207000F00F
:1086500073F80120C4F86C0240F28620005BC4F875
:10866000700294F8800200F01F0020B1012808D0A9
:10867000022812D10BE004F52071204600F041F9E8
:1086800013E004F52071204600F0A8FA0DE004F58F
:108690002071204600F086F907E094F8800200F08F
:1086A0008001204600F004F800BF00BF002070BD2C
:1086B0002DE9F04104460D46002600272946D4F84E
:1086C0009802FDF7AAF906463046FFF795FD0746E2
:1086D0003846BDE8F08170B5044600250026D4F880
:1086E0009802FDF709FE05462846FFF785FD064678
:1086F000304670BD014691F8740281F8750204207D
:1087000081F87402002070472DE9F04704460D46B9
:1087100016461F464FF00008C1463B4632462946E2
:10872000D4F89802FDF7BEF980464046FFF764FD95
:1087300081464846BDE8F0870A7802704A78427060
:108740008B78CA7803EB022242800B794A7903EBDB
:10875000022282808B79CA7903EB0222C2807047A1
:108760000246002011B1C2F88C1200E002207047CE
:1087700001460020704770B504460D46A88810BB1E
:10878000E88800BB688880281DD2A87800F07F06A2
:1087900094F87402032804D129462046FFF724FBED
:1087A00015E084F8766231462046FFF737FF204611
:1087B000FFF758FB1EB1022084F8740207E0012085
:1087C00084F8740203E029462046FFF70DFB70BDD4
:1087D00070B504460D460226D4F88C0238B1D4F8A0
:1087E0008C02294602682046904700B90026304690
:1087F00070BD000070B504460D46A8783649087073
:1088000008460078012804D929462046FFF7ECFAEB
:1088100060E094F87402022802D003284FD11CE0D3
:108820002D480078A8B12C4800786060032084F8B7
:108830007402294801782046FFF7CAFF022804D1B4
:1088400029462046FFF7D0FA70BD2046FFF70AFB05
:1088500002E02046FFF706FB3BE01F48007870B9B6
:10886000022084F874021C48007860601A4801787D
:108870002046FFF777FA2046FFF7F4FA1EE0164984
:1088800009786068884216D021792046FFF76AFA95
:10889000114800786060104801782046FFF798FF83
:1088A000022804D129462046FFF79EFACCE720464D
:1088B000FFF7D8FA02E02046FFF7D4FA09E029468C
:1088C0002046FFF791FA044801782046FFF74AFA5C
:1088D00000BF00BF00BFB7E79800002070B5054695
:1088E0000C466088012804D1C5F87C022846FFF7B1
:1088F000B9FA70BD10B504462046FFF7ECFE002023
:1089000010BD70B505460C460026207800F06000CA
:1089100060B1202802D040283CD100E000BFD5F84B
:108920008C02214682682846904738E060780A2801
:1089300029D2DFE800F01923281E280A0528140F81
:1089400021462846FFF74FFB22E021462846FFF745
:1089500012FF1DE021462846FFF74CFF18E0214694
:108960002846FFF715FB13E021462846FFF7EEFBEC
:108970000EE021462846FFF7B1FF09E021462846D0
:10898000FFF7FBF904E021462846FFF72DFA00BF68
:1089900000BF04E021462846FFF726FA00BF00BFCB
:1089A000304670BD2DE9F04105460E464FF00008F7
:1089B0003479307800F0600060B1202802D040287F
:1089C00071D100E000BFD5F88C023146826828469C
:1089D000904700E1307800F06000202809D1D5F8F8
:1089E0008C02314682682846904780464046BDE862
:1089F000F081707800285ED001282FD0032876D12E
:108A000095F87402022802D0032820D110E054B156
:108A1000802C08D021462846FFF74AFE80212846B0
:108A2000FFF746FE03E031462846FFF7DDF913E085
:108A3000708840B93CB1802C05D0F08818B9214627
:108A40002846FFF735FE2846FFF70CFA04E03146CA
:108A50002846FFF7C9F900BF00BFB5E095F87402DA
:108A6000022802D003281FD110E054B1802C08D076
:108A700021462846FFF71CFE80212846FFF718FEF6
:108A800003E031462846FFF7AFF912E0708848B995
:108A900004F07F0018B121462846FFF7DCFB28468A
:108AA000FFF7E0F905E091E031462846FFF79CF931
:108AB00000BF00BF88E095F87402022802D00328A6
:108AC00076D126E034B1802C04D031462846FFF719
:108AD0008BF972E004F08000802809D104F07F0057
:108AE00000EB800105F1140000EB810008E066E076
:108AF00004F07F0000EB800105F5A07000EB810021
:108B0000074600203860022239462846FFF799F9C7
:108B100053E004F0800080280ED104F00F0000EB39
:108B2000800105F1140000EB8100406898B93146DE
:108B30002846FFF759F940E004F00F0000EB8001F0
:108B400005F5A07000EB8100406820B93146284649
:108B5000FFF74AF931E004F08000802808D104F0E2
:108B60007F0000EB800105F1140000EB810007E0BD
:108B700004F07F0000EB800105F5A07000EB8100A0
:108B800007460CB1802C02D10020386009E0214654
:108B90002846FFF7A7FC10B10120386001E0002053
:108BA0003860022239462846FFF74BF905E0FFE717
:108BB00031462846FFF718F900BF00BF04E03146F0
:108BC0002846FFF711F900BF00BF04E031462846F0
:108BD000FFF70AF900BF00BF404608E770B5054639
:108BE0000C460026207800F0600030B1202802D02A
:108BF00040282AD100E000BF00BF95F87402012888
:108C000004D0022803D0032818D101E000BF00BF20
:108C1000207901280DD8D5F88C0221468268284693
:108C200090470646E08840B93EB92846FFF71AF952
:108C300003E021462846FFF7D7F804E021462846FE
:108C4000FFF7D2F800BF00BF04E021462846FFF737
:108C5000CBF800BF00BF002070BD000070B5044617
:108C60000B4622461978587801282CD140F61C0072
:108C700080581D7805F00F060125B540ADB2284398
:108C800040F61C05A85002F5106000EB411000688A
:108C900000F40040F0BB1889C0F30A00DD7840EA18
:108CA000854040EA815040F0805040F4004002F599
:108CB000106505EB41152D68284302F5106505EB9D
:108CC000411528602DE040F61C0080581D7805F005
:108CD0000F060125B540144E06EA0545284340F627
:108CE0001C05A85002F5306000EB4110006800F44C
:108CF000004078B91889C0F30A00DD7840EA854061
:108D000040F0805040F4004002F5306505EB41151D
:108D10002D6800E005E0284302F5306505EB4115BC
:108D20002860002070BD00000000FFFF02461146D1
:108D30004FF410604058C30ADB024FF410604350F8
:108D400040F60800405800F00600042807D14FF410
:108D50001060405840F003034FF41060435040F659
:108D60000400405840F4807340F604004350002053
:108D7000704700000FB470B504460A98012817D157
:108D8000A06B20F48030A063E0681A490840E060DE
:108D9000E06820F44010E0601198012803D1E068F9
:108DA00040F48010E060204600F026F8054612E00E
:108DB000E06840F04000E060204600F01DF8054605
:108DC0000E9820B9A06B40F48030A06303E0A06B44
:108DD00020F48030A0630898012807D1A06840F0F3
:108DE0000600A060A06840F02000A060284670BC8B
:108DF0005DF814FBBFFFBDFF0146002200BF501C01
:108E000002460F4B984201D903207047086900F0D1
:108E100000400028F3D00022086940F001000861FA
:108E200000BF501C0246064B984201D90320ECE7D4
:108E3000086900F001000028F3D100BFE5E7000059
:108E4000400D030070B504460B4621461A78587849
:108E5000012826D140F63C0040581D7805F00F0649
:108E60000125B540ADB2A84340F63C05685040F638
:108E70001C0040581D7805F00F060125B540ADB225
:108E8000A84340F61C05685001F5106000EB421045
:108E900000681A4D284001F5106505EB4215286061
:108EA00029E040F63C0040581D7805F00F060125EA
:108EB000B540134E06EA0545A84340F63C05685008
:108EC00040F61C0040581D7805F00F060125B540FE
:108ED0000B4E06EA0545A84340F61C05685001F50F
:108EE000306000EB42100068064D284001F5306507
:108EF00005EB42152860002070BD0000007833ECBF
:108F00000000FFFF0078F3EF70B50446254640F6F9
:108F10000400405920F0020140F6040041510320B2
:108F2000FCF748FA002070BD70B50446254640F6AF
:108F30000400405940F0020140F604004151032072
:108F4000FCF738FA002070BD0FB4F0B505460027D5
:108F50002E46002405E0002105F5827040F824101B
:108F6000641C0F2CF7D3109860B9A86B40F4001064
:108F7000A863A86B20F40020A863A86B20F48020CD
:108F8000A86307E0286820F400102860A86B40F46C
:108F90000020A8630020C6F8000ED6F80008C6F826
:108FA00000080B9801280BD1089820B90021284609
:108FB00000F0F4FC08E00121284600F0EFFC03E09B
:108FC0000321284600F0EAFC1021284600F036FC78
:108FD00000B10127284600F01BFC00B10127002149
:108FE0004FF401608151001D815140F61C008151F8
:108FF00000242EE006F5106000EB4410006800F03D
:109000000040B0F1004F10D13CB94FF0006106F5BF
:10901000106000EB441001600DE04FF0904106F548
:10902000106000EB4410016005E0002106F51060BF
:1090300000EB44100160002106F5106000EB4410C5
:1090400001614FF67F3106F5106000EB441081603E
:10905000641C0698A042CDD800242EE006F53060AE
:1090600000EB4410006800F00040B0F1004F10D158
:109070003CB94FF0006106F5306000EB4410016030
:109080000DE04FF0904106F5306000EB44100160B8
:1090900005E0002106F5306000EB4410016000217E
:1090A00006F5306000EB441001614FF67F3106F5A4
:1090B000306000EB44108160641C0698A042CDD85B
:1090C0004FF40160805920F480714FF401608151A8
:1090D0000998012809D115494FF40360815180593D
:1090E000134908434FF4036188510020A8616FF0D1
:1090F00080406861099818B9A86940F01000A8611B
:10910000A8690C490843A8610C9818B1A86940F0F7
:109110000800A8611098012803D1A86906490843EE
:10912000A8613846F0BC5DF814FB00000001800027
:109130000300010000383C800400004001468868BC
:1091400020F001008860002070470000F0B505465F
:109150000B4614462A4619785878012875D1586963
:1091600020BB02F5106000EB411000696C4E3040EE
:1091700002F5106606EB4116306102F5106000EB57
:109180004110006940F4002602F5106000EB411028
:10919000066102F5106000EB41100069C60CF60490
:1091A00002F5106000EB4110066137E002F5106037
:1091B00000EB41100069C60CF60402F5106000EBEC
:1091C0004110066102F5106000EB41100069544E39
:1091D000304002F5106606EB411630619E68586912
:1091E000B04201D99868586102F5106000EB411057
:1091F000006940F4002602F5106000EB41100661A2
:1092000002F5106000EB411000695E69C6F31206BA
:10921000304302F5106606EB41163061012C15D182
:10922000186928B102F5106000EB41101E69466113
:1092300002F5106000EB4110006840F0044602F5B2
:10924000106000EB4110066068E01BE002F5106062
:1092500000EB4110006840F0044602F5106000EB9E
:10926000411006605869002858D040F634008058F4
:109270001E7806F00F070126BE40304340F6340644
:10928000B0504BE002F5306000EB41100069C60CB5
:10929000F60402F5306000EB4110066102F5306023
:1092A00000EB411000691E4E304002F5306606EBBF
:1092B00041163061586908B19868586102F530600C
:1092C00000EB4110006940F4002602F5306000EB2D
:1092D0004110066102F5306000EB411000699E68A4
:1092E000C6F31206304302F5306606EB41163061D4
:1092F000012C07D1D86828B102F5306000EB41108D
:10930000DE68466102F5306000EB4110006840F015
:10931000044602F5306000EB411006600020F0BD0D
:10932000FFFF07E070B503460C4619461D6C184850
:10933000854209D94FF43060405800F00040B0F148
:10934000004F01D1002070BD0026C1F8106BD1F88C
:10935000100B40F40026C1F8106BD1F8100B40F050
:109360001806C1F8106BD1F8100B40F0C046C1F8D8
:10937000106B012C09D1C1F8142B4FF43060405808
:1093800040F080264FF4306046500020DBE70000BC
:109390000A30544F30B504460B46224619785878A7
:1093A00001281ED102F5106000EB4110006820F486
:1093B000001502F5106000EB41100560D878032815
:1093C00002D0D87802282AD102F5106000EB4110B3
:1093D000006840F0805502F5106000EB4110056018
:1093E0001DE002F5306000EB4110006820F400152C
:1093F00002F5306000EB41100560D878032802D0F8
:10940000D87802280BD102F5306000EB41100068DB
:1094100040F0805502F5306000EB411005600020FF
:1094200030BD30B504460B462246197858780128DD
:1094300021D102F5106000EB4110006800F00040FF
:1094400060B959B102F5106000EB4110006820F0DE
:10945000804502F5106000EB4110056002F51060D8
:1094600000EB4110006840F4001502F5106000EBBD
:109470004110056020E002F5306000EB411000680B
:1094800000F0004060B959B102F5306000EB4110C6
:10949000006820F0804502F5306000EB4110056067
:1094A00002F5306000EB4110006840F4001502F551
:1094B000306000EB41100560002030BD2DE9F8431D
:1094C00081460E4617464D463478707801287DD186
:1094D000706920BB05F5106000EB44100069C749B6
:1094E000084005F5106101EB4411086105F51060B5
:1094F00000EB4410006940F4002105F5106000EB1A
:109500004410016105F5106000EB44100069C10CC6
:10951000C90405F5106000EB4410016155E005F544
:10952000106000EB44100069C10CC90405F510601F
:1095300000EB4410016105F5106000EB4410006978
:10954000AE49084005F5106101EB44110861B168AE
:1095500070690844401EB0FBF1F0A849C94301EA14
:10956000C04005F5106101EB44110969084305F598
:10957000106101EB4411086105F5106000EB441027
:1095800000697169C1F31201084305F5106101EB2F
:1095900044110861F078012817D105F5106000EB3F
:1095A0004410006920F0C04105F5106000EB441044
:1095B000016105F5106000EB4410006940F00051B6
:1095C00005F5106000EB4410016100E07FE0012F21
:1095D00036D1306928B105F5106000EB44103169CF
:1095E0004161F07801281ED140F60800405900F48E
:1095F000807060B905F5106000EB4410006840F021
:10960000005105F5106000EB441001600BE005F51A
:10961000106000EB4410006840F0805105F51060C8
:1096200000EB4410016005F5106000EB4410006889
:1096300040F0044105F5106000EB44100160DAE0F1
:1096400005F5106000EB4410006840F0044105F59A
:10965000106000EB44100160F07801280FD07069B1
:109660000028ECD040F634004059317801F00F0268
:1096700001219140084340F634014851BBE040F6D7
:109680000800405900F4807060B905F5106000EBE7
:109690004410006840F0005105F5106000EB4410E4
:1096A00001600BE005F5106000EB4410006840F02D
:1096B000805105F5106000EB441001600097B08AFE
:1096C00083B232784846F16800F0E6F993E005F598
:1096D000306000EB44100069C10CC90405F530602E
:1096E00000EB4410016105F5306000EB44100069A7
:1096F0004249084005F5306101EB44110861706989
:10970000D0B905F5306000EB44100069B168C1F3D1
:109710001201084305F5306101EB4411086105F5BC
:10972000306000EB4410006940F4002105F5306022
:1097300000EB4410016126E0B16870690844401EE6
:10974000B0FBF1F01FFA80F805F5306000EB441033
:1097500000692A49C94301EAC841084305F5306157
:1097600001EB4411086105F5306000EB441000691D
:10977000B16801FB08F1C1F31201084305F530613E
:1097800001EB44110861012F07D1F06828B105F5FC
:10979000306000EB4410F1684161F07801281ED17F
:1097A00040F60800405900F4807060B905F530605B
:1097B00000EB4410006840F0005105F5306000EB0C
:1097C000441001600BE005F5306000EB44100068C8
:1097D00040F0805105F5306000EB4410016005F564
:1097E000306000EB4410006840F0044105F5306043
:1097F00000EB441001600020BDE8F883FFFF07E0A4
:109800000146886840F00100886000207047000031
:10981000014600221020086100BF501C0246064B82
:10982000984201D903207047086900F01000102801
:10983000F3D00020F7E70000400D030010B502460A
:109840000023202040EA8110106100BF581C03460D
:10985000054CA04201D9032010BD106900F0200082
:109860002028F3D00020F7E7400D030010B5014693
:109870000B4640F60804E45804F006020AB900203A
:1098800006E0022A01D0062A01D1022000E00F20C2
:1098900010BD0146486900F00100704701460B46C3
:1098A00040F61800C258001DC058024090B27047E0
:1098B00001460B4640F61800C258001DC058024031
:1098C000100C704770B5024613464FF40166F45809
:1098D00040F63406F55801F00F0625FA06F606F0B4
:1098E000010644EAC61403F5106606EB4116B66895
:1098F00006EA040070BD10B50246134603F5306455
:1099000004EB4114A06840F61404E458204010BD54
:10991000014648698A6910407047F0B503461E4603
:109920000846D71CBD08002405E04FF48057BF59F6
:109930000760001D641CAC42F7D3F0BD70B504464F
:109940000D46E06820F0C040E060012D04D1E068E1
:1099500040F00050E06007E025B9E06840F080404A
:10996000E06001E0012070BD3220FBF723FD002004
:10997000F9E710B502460B461146D1F8000820F46D
:10998000FE60C1F80008D1F800084FF4FE6404EA54
:1099900003142043C1F80008002010BD02461346FE
:1099A000D3F800080843C3F80008002070470000FF
:1099B00030B503461446022C49D12D48814204D3C8
:1099C0002C48814201D20F2245E02A48814204D32B
:1099D0002948814201D20E223DE02748814204D32A
:1099E0002648814201D20D2235E02448814204D329
:1099F0002348814201D20C222DE02148814204D328
:109A00002048814201D20B2225E01E48814204D326
:109A10001D48814201D20A221DE01B48814204D325
:109A20001A48814201D2092215E01848814204D324
:109A30001748814201D208220DE01548814204D323
:109A40001448814201D2072205E0062203E00CB946
:109A5000092200E00922D86820F47050D860D86844
:109A60004FF4705505EA82252843D860002030BDA8
:109A7000C0ACD800C0E1E4000024F400807306010B
:109A8000A0491A01002D310140A44C0100366E019D
:109A900020ABA6010048E8012DE9F04304460D463D
:109AA000DDF81CC0A0462E46BCF1000F0FD1D81C1B
:109AB0008708002109E008F5805000EB0230D6F855
:109AC0000090C0F80090361D491CB942F3D3002025
:109AD000BDE8F08300BFFEE70FB4084B10B504A942
:109AE00002AA039800F0FAF8044602A9002000F048
:109AF0008CFC204610BC5DF814FB00000BA4000891
:109B000002480068C0F30220704700000CED00E03E
:109B100010B5002804DB0A07130E054A135406E0AB
:109B20000A07140E034A00F00F031B1FD45410BD84
:109B300000E400E018ED00E002E008C8121F08C1D0
:109B4000002AFAD170477047002001E001C1121FBE
:109B5000002AFBD1704700002DE9FF5F82B0002191
:109B6000DDE90430020DDDF840B0034318D044F6BF
:109B70001050A2F2FF3242431514119801281FD051
:109B8000A5EB0B00401C5FEA000A4FF000064E4FA9
:109B9000DFF83891B046504615D5CAF1000413E0FD
:109BA000119801244AA3012801D16FEA0B01029800
:109BB000119AC0E90031C0E9024206B0BDE8F09F49
:109BC000CBF10000DFE704460021404A491842EB90
:109BD0000450CDE9001012E0E00707D032463B46C2
:109BE00040464946FAF738FC8046894632463B46AD
:109BF00010461946FAF730FC06460F466410002C52
:109C0000EAD1DDE90401DDE90023BAF1000F06DA4B
:109C1000FAF722FC42464B46FAF71EFC05E0FAF73B
:109C20008DFC42464B46FAF789FC04460E4600225C
:109C3000284BFAF70BFD03D84FF0FF30014607E041
:109C40000022254B20463146FAF75FFBFAF7E5FC88
:109C5000102409E0002C0ADB0A220023FAF7B8FAE4
:109C6000039B30321A55641E50EA0102F2D1641C83
:109C7000039AC4F111031444119A012A03D001225A
:109C800008430DD10AE0084304D000204FF0110B27
:109C9000119072E7A3EB0B056D1E0DE05B4504DD33
:109CA0004FF0000205F1010504E003DA4FF0000275
:109CB000A5F10105002AECD002981199C0E9023102
:109CC000C0E9004579E70000000014400000F03FC3
:109CD000300000000000F0430000E03F2DE9FF4F9E
:109CE00095B09B468946064600250FE2252877D188
:109CF00000242746F84A0121059400E0044316F8A1
:109D0000013F203B01FA03F01042F7D130782A28B6
:109D100011D06FF02F033078A0F13002092A16D845
:109D2000059A44F0020402EB820203EB4202104463
:109D3000761C0590EFE759F8042B0592002A03DA08
:109D4000504244F40054059044F00204761C3078EC
:109D50002E2816D116F8010F44F004042A280DD03D
:109D60006FF02F023078A0F13003092B09D807EBF0
:109D7000870302EB4303C718761CF3E759F8047B0B
:109D8000761C30786C280FD006DC4C2817D0682859
:109D90000DD06A2814D104E0742810D07A280FD18D
:109DA0000DE044F400140AE044F4801401E044F4AB
:109DB00040147278824202D104F58014761C761C1D
:109DC000307866280BD013DC582877D009DC0028BF
:109DD00075D04528F6D04628F4D047281AD19DE101
:109DE00018E0632835D0642879D0652812D195E130
:109DF000702873D008DC6728F1D069286FD06E28EE
:109E00000DD06F2806D1B5E073282CD0752875D0F9
:109E1000782874D05A46179990476D1C75E1C4F3A1
:109E20000250022809D003280DD0D9F800100428C8
:109E30000DD00D6009F1040967E1D9F80010EA17A7
:109E4000C1E90052F6E7D9F800100D80F2E70D7075
:109E5000F0E719F8041B8DF8001000208DF80100C0
:109E6000EA46012003E059F804AB4FF0FF306107E8
:109E70004FF0000102D40DE008F101018846B9421B
:109E80000FDA8045F8DB1AF808100029F4D108E051
:109E900008F1010188468142FADB1AF8081000290E
:109EA000F6D105985B46A0EB080721463846179A7D
:109EB00000F094FA284400EB080507E04DE029E1A2
:109EC0000DE01AF8010B5A4617999047B8F10108AE
:109ED000F7D25B4621463846179A13E142E00A2240
:109EE0000092C4F302524FF0000A022A08D059F837
:109EF00004CB032A4FEAEC710AD00DE029E02AE0F6
:109F000009F1070121F00702F2E802C1914609E0D8
:109F10000FFA8CFC4FEAEC71042A03D14FFA8CFC47
:109F20004FEAEC71002907DA0A460021DCF1000C47
:109F300061EB02012D2202E0220504D52B228DF8CF
:109F40000420012203E0E20701D02022F7E7904637
:109F500059E00A2102E010220DE010214FF0000A22
:109F600000910BE010224FF0000A44F0040408278F
:109F7000009203E008224FF0000A0092C4F302525C
:109F8000022A05D059F804CB0021032A08D009E0A1
:109F900009F1070121F00702F2E802C1914605E04C
:109FA0001FFA8CFC042A01D10CF0FF0C4FF00008C2
:109FB000220728D5702806D0009B83F0100353EAAF
:109FC0000A0305D00EE040228DF80420012208E0AB
:109FD0005CEA010206D030228DF804208DF80500DD
:109FE00002229046009B83F0080353EA0A030AD139
:109FF0005CEA010201D1620705D530228DF8042008
:10A000004FF001087F1E582804D034A003900EA8FA
:10A0100002900DE036A0F9E753466046009AFAF741
:10A02000D7F884460398825C0298401E0290027022
:10A030005CEA0100F0D1029806A9081A00F1200A92
:10A04000600702D524F4803400E00127574502DD83
:10A05000A7EB0A0000E0002000EB0A010090059841
:10A060004144401A0590E00306D45B462146179A06
:10A07000059800F0B3F90544002706E001A85A4608
:10A08000C05D179990476D1C7F1C4745F6DBE003C8
:10A090000CD55B462146179A059800F09FF90544B8
:10A0A00004E030205A46179990476D1C0099481ECD
:10A0B00000900029F5DC08E0029802995A460078E1
:10A0C000491C0291179990476D1CBAF10001AAF141
:10A0D000010AF1DC65E1000009280100303132336A
:10A0E00034353637383961626364656600000000D4
:10A0F00030313233343536373839414243444546BE
:10A100000000000000F058F90544761C3078002863
:10A110007FF4ECAD19B02846BDE8F08F620700D49B
:10A12000062709F1070222F0070CFCE80223E146AA
:10A1300003F000485FEA080C02D00FF2702C0DE02B
:10A140005FEA045C02D50FF2682C07E05FEAC47C8A
:10A1500002D00FF2602C01E0AFF2700C4FF0FF382C
:10A1600023F00043CDF850C065280CD006DC45280C
:10A1700009D046281DD047283DD13DE0662818D09B
:10A1800067287ED138E00021112F01DB112000E08B
:10A19000781CCDE9000106A90EA8FFF7DDFCDDE97A
:10A1A0000F010E9A03910021009207F1010A049118
:10A1B0004DE04FF000400097CDE9011006A90EA830
:10A1C000FFF7CAFCDDE90F0203920E9B11990022F2
:10A1D000DDF80CA00093049211B9791C00EB010A80
:10A1E000B7EB0A0004D4C0F1FF3007F1010A049074
:10A1F000AAEB0700019044E0012F00DA01270021BB
:10A20000112F01DD112000E03846CDE9000106A93B
:10A210000EA8FFF7A1FCDDE90F010E9A03910021C2
:10A2200004910092BA4621070CD40399514500DAF3
:10A230008A46BAF1010F05DD009AAAF10101515CCD
:10A24000302908D0B84202DA10F1040F06DA0121F1
:10A25000CDE9011015E0AAF10101E9E7002805DCCC
:10A26000049901440491AAEB000102E0411C51450C
:10A2700000DD8A460499401A401C01904FF00040CE
:10A280000290200704D40198504501DBCDF80480EA
:10A2900000208DF84F0002980DF14F07B0F1004FEC
:10A2A00025D02B200E9002984FF0020800280CDADF
:10A2B000404202902D200E9007E00A210298F9F703
:10A2C000EFFF3031029007F8011DB8F10001A8F14D
:10A2D0000108F2DC02980028EFD1791E0E98087070
:10A2E000307800F0200040F0450007F8020D12A879
:10A2F000C01B00F107081498007800B1012000EBA2
:10A300000A01019801EBE07105984144401A401E92
:10A310000590E00306D45B462146179A059800F0A5
:10A320005DF805441498007818B15A46179990477B
:10A330006D1CE00324D55B462146179A059800F072
:10A340004DF805441CE00498002807DBDDE9030113
:10A35000884203DD0098405C179901E0179930208E
:10A360005A469047049805F10105401C0490019855
:10A37000401E019004D12E205A46179990476D1C1B
:10A38000BAF10001AAF1010ADDDC05E017F8010BC2
:10A390005A46179990476D1CB8F10001A8F10108C1
:10A3A000F4DC5B462146179A0598ABE62D000000C9
:10A3B0002B000000200000002DE9F041044600259C
:10A3C0001E461746880404D405E039462020B047CD
:10A3D0006D1C641EF9D52846BDE8F0812DE9F041D9
:10A3E000044600251E469046C80301D5302700E0EC
:10A3F0002027880404D505E041463846B0476D1C47
:10A40000641EF9D52846BDE8F0810A68531C0B602C
:10A410001070704710B5002821D0114B0022001F8A
:10A42000196803E0814203D80A4649680029F9D136
:10A4300052B11368841A9C4204D100681844106019
:10A44000104602E0506000E0186039B102680B1A53
:10A45000934203D10B681A4402604968416010BD01
:10A46000AC01002010B501210348FBF7A1F808B9A1
:10A47000002010BD0120FCE70000024010B504469A
:10A4800020780F2845D2DFE800F0080C1014181CC3
:10A490002024282C3034383C4000204600F007F9B6
:10A4A0003AE0204600F01CF936E0204600F00AF9B8
:10A4B00032E0204600F028F92EE0204600F094F922
:10A4C0002AE0204600F07DF826E0204600F078F9EA
:10A4D00022E0204600F08AF81EE0204600F0BAF89C
:10A4E0001AE0204600F0CEF816E0204600F0BEF854
:10A4F00012E0204600F01DF90EE0204600F042F880
:10A500000AE0204600F030F906E0204600F01FF98E
:10A5100002E02078207000BF00BF10BD70B501259B
:10A52000002406E0044901EB0410FFF7A7FF601CBC
:10A53000C4B2AC42F6DB70BD00000020104991F8B7
:10A5400021100F4A92F82020914201D1002016E0FC
:10A550000B4991F8202091F82010491C084B83F8F2
:10A560002010194631F812000A4692F82010CA1736
:10A5700001EB12721211A1EB021283F82020704736
:10A58000B401002070B504466088401C6080E0681B
:10A5900080470646012E01D10D2020706088618918
:10A5A000884200DA70BD608900B9FBE76078052158
:10A5B00001EB0025284600F045F90020608000BF2F
:10A5C000F0E770B504466088401C6080E068804712
:10A5D000054660882189884205DA35B90720207050
:10A5E0000020608001E00620207070BD70B5044638
:10A5F000174800884FF6FF71884204D160881449DB
:10A600000880002060806088401C60806088E1884D
:10A61000884200DA70BDE068804705465DB9607821
:10A62000072101EB0026304600F00CF908202070CD
:10A630000020608006E005202070608804490988B9
:10A64000084460804FF6FF700149088000BFE1E7D1
:10A650001200002070B50446E06880470546012DD1
:10A6600003D1092020700020608070BD70B50446C1
:10A670006078042101EB0025284600F0E3F8002073
:10A68000207070BD10B504466188491C61806188E6
:10A69000E288914200DA10BDE1688847012802D1C2
:10A6A0000A21217001E00821217000BFF3E770B595
:10A6B0000446E068804705461DB90120207000204F
:10A6C000608070BD70B504466078012101EB002503
:10A6D000284600F0B7F8032020700020608070BD8D
:10A6E00010B504466188491C61806188E288914206
:10A6F00000DA10BDE168884710B90221217001E03D
:10A700000021217000BFF4E770B504466088401C4A
:10A710006080E068804705466088A188884204DA46
:10A72000012D01D10420207070BD0B20207000BFCE
:10A73000FAE770B504466078062101EB002528464B
:10A7400000F080F80C2020700020608070BD70B593
:10A7500004466078032101EB0025284600F072F8DA
:10A760000020207070BD000010B504461349098810
:10A770004FF6FF72914204D16188104A1180002186
:10A7800061806188491C61806188E288914200DAB9
:10A7900010BDE1688847012802D10E21217006E032
:10A7A0000C2121706188054A1288114461804FF69E
:10A7B000FF71024A118000BFEAE700001400002088
:10A7C00070B504466078052101EB0025284600F0AD
:10A7D00039F86078022101EB0025284600F032F8B4
:10A7E0000020207070BD000010B50446144909888F
:10A7F0004FF6FF72914204D16188114A1180002105
:10A8000061806188491C61806188E288914200DA38
:10A8100010BDE1688847012804D10521217000217D
:10A82000618006E0032121706188054A1288114485
:10A8300061804FF6FF71024A118000BFE8E7000017
:10A84000100000200146184890F8212090F82100BF
:10A85000401C154B83F82100184620F812100246C0
:10A8600092F82100C21700EB12721211A0EB021233
:10A8700083F82120184690F821001A4692F82020EB
:10A88000904210D1184690F82000401C1A4682F8D9
:10A89000200092F82000C21700EB12721211A0EBF8
:10A8A000021283F820207047B40100202DED048BA4
:10A8B00082B04FF0010AFAF79BFEFCF7CFFF9A48EF
:10A8C0009A490860FCF788FCFCF7EAFCFCF790FD6D
:10A8D000FCF766FCFCF71EFC022295499548FAF746
:10A8E000DDFA1FE1FAF772FE001B47D0FAF76EFEA1
:10A8F0000446BAF1010F41D18F48007868B98F48FA
:10A900000088401C8D49088008460088B0F5C86F53
:10A910000EDB0120884908700AE088480088401E44
:10A92000864908800846008810B9002082490870CE
:10A9300082480088502190FBF1F0814908708148DD
:10A940000078142803DD00207E49087004E07D486B
:10A950000078401C7B4908707A480078784909786B
:10A96000884205DB012251037748FAF729FE05E00A
:10A9700000224FF400517448FAF722FEFAF726FE3F
:10A98000401BB0F57A7F61D3FAF720FE05466F4889
:10A99000007801281AD100206C4908706C496D4874
:10A9A000FFF79AF81FFA80F841466A48FAF762F80A
:10A9B0000020FAF7FFFC68496648FFF78DF81FFA98
:10A9C00080F841466348FAF755F802E06148FCF721
:10A9D000E5FE0020FAF7EEFC5549498840F6E442CE
:10A9E00001FB02F0C11700EB11510913A1F53E71F3
:10A9F00000EE101AB8EEC00AB0EE408AF0EE040A7B
:10AA000088EE200AF3EE090A30EE200AB0EE408A02
:10AA100018EE100AF9F731FC41EC190B4448008894
:10AA200040F6E44100FB01F88DED009B4FEAE87031
:10AA300008EB1050021349A14648FFF74DF81FFAE2
:10AA400080F949464348FAF715F800BFFAF7BEFD0A
:10AA5000801B04D0FAF7BAFD0646FFF75FFDFAF750
:10AA6000B5FDC01B0A285DD3FAF7B0FD0746FFF716
:10AA700065FD4149088008460088B0F5817F1DD1F9
:10AA80004FF0000A4FF400512F48FAF791FD0128CA
:10AA900001D0012000E00020804642464FF40051E2
:10AAA0002948FAF78DFD35A12A48FFF715F81FFA56
:10AAB00080F841462748F9F7DDFF33E02E4800884B
:10AAC000B0F5827F1DD14FF0000A4FF400511E48AF
:10AAD000FAF76EFD012801D0012000E00020804639
:10AAE00042464FF400511848FAF76AFD29A1194867
:10AAF000FEF7F2FF1FFA80F841461648F9F7BAFF51
:10AB000010E01D480088B0F5837F0BD14FF0010A9B
:10AB100026A11048FEF7E0FF1FFA80F841460D48D5
:10AB2000F9F7A8FFDEE600000040000808ED00E0AD
:10AB3000160000203C0200202200002020000020FF
:10AB40001E00002023000020000802401A00002000
:10AB50004CAC0008D601002090AC00085672656627
:10AB60003A25646D562C54656D703A252E3266A1D7
:10AB7000E3430D0A000000001C0000200D0A53688A
:10AB80006F727420507265737320B6CCB0B40D0A26
:10AB9000000000000D0A446F75626C6520507265FC
:10ABA000737320CBABBBF70D0A0000000D0A4C6F8E
:10ABB0006E6720507265737320B3A4B0B40D0A00A1
:10ABC000F0B50B30154D20F007010024144A0FE0BA
:10ABD00003688B420BD38B4205D95E1A4318476832
:10ABE000C3E9006700E04368136002C004E0021D8F
:10ABF00010680028ECD12046002802D1286808B14E
:10AC00000020F0BD064A07481060074A121A22F0D9
:10AC10000702C0E9002401202860D7E7B001002026
:10AC2000AC010020AC1B0020A82300200006101659
:10AC300000061016000000000000000001020304DE
:10AC40000607080900000000010203040D0A53541E
:10AC50004D333246343131434520576541637420CA
:10AC6000436F7265426F6172642056322E300D0A56
:10AC700020203556202D3E20332E3356204C444F75
:10AC80003A2041503733343344200D0A000000008D
:10AC90004B45593A0D0A202053686F727420507248
:10ACA00065737320B6CCB0B40D0A2020446F756272
:10ACB0006C6520507265737320CBABBBF70D0A2017
:10ACC000204C6F6E6720507265737320B3A4B0B4CC
:10ACD0000D0A0000F4AC000800000020B4010000E0
:10ACE0007E470008CCAD0008B4010020F425000028
:10ACF000489B000811220114DC051412C815E80352
:10AD000065A43B08FF01011213B57E1B08FD041367
:10AD10000D7F1B0839041A79041A81101AC504130F
:10AD20001201140202021640830440571D02010260
:10AD30000354071A040309041A0313354A1B083184
:10AD40000413E1491B085908413210193B215324CF
:10AD5000F4130A0632022A401413117B1408517AA4
:10AD60004C08337C2C1A9F0C13A1791B081D08C1B9
:10AD70001AF1101AE1041A01301AD1081C09024311
:10AD800093111DC03209045D1A020B13052416101D
:10AD900001052401100901042402020524061701FB
:10ADA00007058203081C100904C9320A1D070501A2
:10ADB000027B2C07058107110937442A40072A81A5
:0CADC00007112B0907440A3B04448100E2
:040000050800419915
:00000001FF
