:020000040800F2
:10400000D01E0020A94100089B5C0008035A00084C
:10401000995C00085B430008597600080000000026
:104020000000000000000000000000008B5E00089F
:10403000E143000800000000275E00088D5E0008D4
:10404000C3410008C3410008C3410008C341000840
:10405000C3410008C3410008E3430008C34100080E
:10406000C3410008C3410008C3410008C341000820
:10407000C3410008C3410008C3410008C341000810
:10408000C3410008C3410008C3410008000000000C
:10409000000000000000000000000000C341000814
:1040A000C3410008C3410008C3410008C3410008E0
:1040B000C3410008C3410008C3410008C3410008D0
:1040C000C3410008C3410008C3410008C3410008C0
:1040D000C3410008C3410008C341000800000000BC
:1040E000C3410008C3410008C341000800000000AC
:1040F000000000000000000000000000C3410008B4
:1041000000000000C3410008C3410008C34100088B
:10411000000000000000000000000000000000009F
:10412000C3410008C3410008C3410008C34100085F
:10413000C341000800000000000000000000000073
:104140000000000000000000000000009D5C00086E
:10415000C3410008C3410008C3410008C34100082F
:10416000C3410008C3410008000000000000000037
:10417000000000000000000000000000000000003F
:1041800000000000C3410008000000000000000023
:10419000C3410008DFF80CD000F0A2F80048004747
:1041A000117D0008D01E00200648804706480047C1
:1041B000FEE7FEE7FEE7FEE7FEE7FEE7FEE7FEE7D7
:1041C000FEE7FEE7355F0008954100082DE9F05F46
:1041D0000546002092469B46884606468146402476
:1041E0001BE0284641464746224600F069F8534600
:1041F0005A46C01A914110D311461846224600F083
:1042000050F82D1A67EB01084F4622460120002185
:1042100000F047F817EB00094E41201EA4F10104FD
:10422000DFDC484631462A464346BDE8F09F40EA77
:1042300001039B0703D009E008C9121F08C0042A24
:10424000FAD203E011F8013B00F8013B521EF9D20B
:104250007047D2B201E000F8012B491EFBD2704733
:104260000022F6E710B513460A4604461946FFF742
:10427000F0FF204610BD30B50B460146002020223D
:10428000012409E021FA02F59D4205D303FA02F563
:10429000491B04FA02F52844151EA2F10102F1DCC3
:1042A00030BD202A04DB203A00FA02F100207047DA
:1042B0009140C2F1200320FA03F319439040704764
:1042C000202A04DB203A21FA02F00021704721FA6B
:1042D00002F3D040C2F120029140084319467047D2
:1042E000064C074D06E0E06840F0010394E8070043
:1042F00098471034AC42F6D3FFF750FF20800008F7
:104300004080000870B58C1810F8015B15F00703A9
:1043100001D110F8013B2A1106D110F8012B03E05E
:1043200010F8016B01F8016B5B1EF9D12B0705D466
:104330000023521E0DD401F8013BFAE710F8013BAF
:10434000CB1A921C03E013F8015B01F8015B521ECB
:10435000F9D5A142D8D3002070BDFEE7042804DDC2
:10436000202802D102490120087000207047000077
:10437000000000200020704710B5002204490548C5
:1043800001F0F6FE0449034801F0ECFE002010BDE8
:10439000DC0A002058020020F406002010B5014677
:1043A000034801F0DFFE024801F0C0FE002010BD0E
:1043B00058020020094A10B5D2F89022D2F81422EF
:1043C0000AB1012010BD0A460146044801F0D0FEA2
:1043D000BDE81040014801F029BF0000580200204C
:1043E0007047012000F01EB87047000070B5044609
:1043F00000F0F2F80546601C02D00448007804443E
:1044000000F0EAF8401BA042FAD370BD84000020FF
:10441000012804D10248016841F00401016070479D
:1044200000700040044910B50A68024202D00860DA
:10443000FFF7EEFF10BD0000143C01402DE9F84FDE
:10444000DFF860B100224FF001084FF0030A4FF08F
:104450000F090BF1040E00BF0B6808FA02F42340A9
:10446000A3426ED14D68022D01D0122D0ED1D50878
:1044700000EB850CDCF820505607F70E09FA07F61A
:10448000B5430E69BE402E43CCF820600668550047
:104490000F790AFA05FC07F0030726EA0C06AF407D
:1044A000374307604E68012E05D0022E03D0112E2F
:1044B00001D0122E0ED18668CF6826EA0C06AF40D6
:1044C000374387604668A6430C79C4F300149440D0
:1044D00034434460C6688C6826EA0C06AC4034431A
:1044E000C4604C68E40056D52F4C256845F48045DF
:1044F0002560246822F0030504F4804400942B4CCA
:104500002E19D6F8084895072F0F09FA07F5AC437E
:10451000274DA84201D1002515E0264DA84201D122
:10452000012510E0244DA84201D102250BE0234DC6
:10453000A84201D1032506E0214DA84202D104255D
:1045400001E028E00725BD402543C6F80858DBF800
:1045500000405D464E689C43F60300D51C432C602A
:10456000DEF8004075464E689C43B60300D51C43F8
:104570002C600C4D08352C684E689C43F60200D523
:104580001C432C60074D0C352C684E689C43B602CA
:1045900000D51C432C60521C102AFFF45DAFBDE80F
:1045A000F88F0000003C01404438024000300140D8
:1045B000000002400004024000080240000C0240DB
:1045C000001002400069084000D0012070470AB185
:1045D000816170470904FBE701488068704700006B
:1045E000840000200248816802781144816070478D
:1045F000840000200B4810B5016841F4007101608F
:10460000016841F480610160016841F480710160DA
:10461000032000F06FF8002000F006F800F024F806
:10462000002010BD003C024070B50D4D04464FF413
:104630007A712878B1FBF0F00A490968B1FBF0F013
:1046400001F0CBF948B9102C07D200222146501EA8
:1046500000F030F800206C6070BD012070BD0000DB
:1046600084000020900000200A4808B5016841F449
:1046700080410160006800F4804000900548001F00
:10468000016841F080510160006800F080500090A6
:1046900008BD000044380240002809DB00F01F027A
:1046A000012191404009800000F1E020C0F8001194
:1046B00070470000F0B40E4B1B680C46C3F3022396
:1046C000C3F10705042D00D90425191D072901D2BE
:1046D000002300E0DB1E012606FA05F1491E2140F9
:1046E00099409E40761E16403143F0BC02F0CABF8E
:1046F0000CED00E0064900F0070208684FF6FF03E2
:10470000184040EA0220034A104308607047000046
:104710000CED00E00000FA057047006841620020DF
:104720007047F0B50368586A39B19C6A4FF48276D5
:1047300000EB144400204D1E0AE040EA024098625B
:104740000FE006EB8007DF59401C04EB1744C0B2B2
:10475000A842F6D344EA02404FF4807202EB810192
:1047600058500020F0BDD0F8040401F0B2BFC1EBF6
:10477000C10200EB8202D0F80404926C01F005BF84
:10478000C1EBC10200EB8202D0F80404D2F8082287
:1047900001F05EBFD0F8040401F09DBF70B504467F
:1047A0000B0601F00F00C0EBC00104EB81014FF0DC
:1047B00001024FF0000503D581F83D203C3103E0B4
:1047C00081F8FD5101F5FE71087094F8BC030128D1
:1047D00008D084F8BC23206802F0F4FA84F8BC53B3
:1047E000002070BD022070BD70B5044601F00F00BE
:1047F0006268904201D9012070BD0B0601F00F01E3
:10480000C1EBC10104EB81014FF001024FF0000543
:1048100003D581F83D203C3103E081F8FD5101F5DD
:10482000FE718D70087094F8BC03012808D084F8DC
:10483000BC23206802F0A2FC84F8BC53002070BDA9
:10484000022070BD01F00F01C1EBC10100EB81003E
:10485000D0F8140270472DE9F04104460F0601F02C
:104860000F00C0EBC00104EB81014FF001064FF0D7
:10487000000503D581F83D603C3103E081F8FD512E
:1048800001F5FE7108708A60CB704A7802B1C88069
:10489000022B00D10D7194F8BC03012809D084F8D3
:1048A000BC63206802F0DEF9284684F8BC53BDE8FA
:1048B000F0810220FBE770B50C4601F00F05C5EB57
:1048C000C50100EB8101C1F81032C1F808220023B4
:1048D000C1F8143281F8FD3181F8FC51036901F50A
:1048E000FE71012B00D10A612207027C006803D00F
:1048F00002F09CFC002070BD02F088FBFAE770B566
:1049000004460D4601F00F006168884201D901207C
:1049100070BD29064FF000064FF0010207D5C0EB2D
:10492000C00104EB810181F83D203C3107E0C5EB7B
:10493000C50104EB810181F8FD6101F5FE718A700A
:10494000087094F8BC03012807D084F8BC232068C1
:1049500002F040FC280702D007E0022070BD217C55
:1049600004F57172206802F0DDFB84F8BC6300205E
:1049700070BD70B50C4601F00F05C5EBC50100EB2D
:1049800081010B658A6400234B65012381F83D306A
:1049900001F83C5F0369012B00D10A612207027C08
:1049A000006803D002F042FC002070BD02F02EFB34
:1049B000FAE700002DE9FC5F05680446284602F08E
:1049C0005EFD00287ED1206802F085FD002879D0A8
:1049D000206802F080FD800704D52068416901F05D
:1049E00002014161206802F076FD010304F5717057
:1049F0004FF0010A4FF0080B009075D50026206893
:104A000002F048FD0746DFF808946BE0F80767D02E
:104A1000F1B2206802F057FD8046C00707D005EBD1
:104A20004611C1F808AB3146204601F03DF95FEA76
:104A3000087032D52068016C00EB46100191D0F867
:104A4000081B2269012A019A0FD0F24B9A4214D115
:104A5000090403D54FF40041C0F8081B204600F0BC
:104A6000C6FA206901280FD013E04A4505D9090488
:104A700003D54FF40041C0F8081B204600F0B7FAF8
:104A800001984845EDD804E020680121009A02F021
:104A900049FB05EB4611C1F808BB5FEAC86004D5C5
:104AA00005EB46111020C1F8080B5FEA88600ED5AF
:104AB0002069012804D120680121009A02F032FB0C
:104AC000202100E0A1E105EB4610C0F8081B5FEAD9
:104AD000884005D505EB46104FF40051C0F8081B7F
:104AE0007F08761C002F91D1206802F0F4FC40036F
:104AF0004FF000095FD5206802F0C5FC074600268C
:104B000057E0F80753D0F1B2206802F0CAFC8046A3
:104B1000C00726D006F00F020AFA02F0D5F83428B2
:104B20008243C5F8342805EB4610C0F808A920696F
:104B3000012807D1C6EBC60004EB8000D0E91121A3
:104B400011448164F1B22046FFF711FE206901286B
:104B500007D136B9206D20B920680121009A02F0F2
:104B6000E1FA5FEA087003D505EB4611C1F808B910
:104B70005FEAC86004D505EB46111020C1F80809AA
:104B80005FEA486004D505EB46104021C0F80819DB
:104B90005FEA887004D505EB46100221C0F80819B9
:104BA0005FEA086003D53146204601F0EBF87F0844
:104BB000761C002FA5D1206802F08DFC002811DAA8
:104BC000D5F8040820F00100C5F8040894F8F403AF
:104BD00001282BD0204600F0EEF92068416901F051
:104BE00000414161206802F076FC00050BD5D5F844
:104BF0000808C00702D0204600F022FA2068416968
:104C000001F400614161206802F065FCC00461D5D7
:104C1000D5F8040820F00101C5F804181021206817
:104C200002F00EFC00214FF67F321AE084F8F49374
:104C300000212046FFF770FDCFE700BF05EB4110D4
:104C4000C0F80829D0F8003923F40013C0F800395F
:104C5000C0F8082BD0F8003B23F40013C0F8003B49
:104C6000491C60688842E9D8D5F81C0840F0011159
:104C7000C5F81C18206B002828460DD0D0F88408F1
:104C800040F00B00C5F88408D5F8440840F00B014B
:104C90002846C5F844180DE0D0F8140842F22B015C
:104CA0000843C5F81408D5F8100840F00B01284651
:104CB000C5F81018D0F8000820F4FE61C5F80018F7
:104CC000217C2068009A02F02DFA2068416901F4E5
:104CD00080514161206802F0FEFB800415D52068F8
:104CE00002F000F8206802F0BDFBE06000F000FB7D
:104CF0000146227B206802F029FC204600F048F99A
:104D00002068416901F400514161206802F0E3FB31
:104D1000C00634D52068816921F0100181612F6AB5
:104D200007F00F00C0EBC00004EB8006C7F3434060
:104D300006F5FE76022802D0062811D01AE047F6C2
:104D4000F070074216D0C7F30A1217462846F168DA
:104D500002F0C5FBF0683844F060B069384408E000
:104D600008222846009902F0BAFBB069C7F30A117D
:104D70000844B0612168886940F0100088612068AB
:104D800002F0A9FB000707D5204600F018F92168BA
:104D9000486900F008004861206802F09CFBC002EE
:104DA00008D50021204600F037F82168486900F452
:104DB00080104861206802F08EFB800208D5002137
:104DC000204600F02DF82168486900F40010486181
:104DD000206802F080FB400007D52046FFF7C3FCA7
:104DE0002068416901F080414161206802F073FB55
:104DF00040070AD520684568680702D52046FFF7B6
:104E0000C9FC2068416829434160BDE8FC9F00005F
:104E10000A30544F0A31544FD0F8040401F0AABCB0
:104E2000D0F8040401F0A8BC2DE9F0418AB00400D8
:104E300005D094F8BD032668002520B108E00120C4
:104E40000AB0BDE8F08184F8BC53204600F05EF85B
:104E5000032084F8BD03F06BC00500D425612068F1
:104E600002F0CEF804F11001282288466846FFF7C8
:104E7000DEF994E80F0001F04FFF0226C8BB0021C5
:104E8000206802F03AFB002001270EE0C0EBC001D1
:104E900004EB810181F83D7001F83C0FC880CD70B2
:104EA0008D60CD60401CC0B24D6161688142EDD81B
:104EB000002011E0C0EBC00104EB810181F8FD513D
:104EC00081F8FC0181F8FF51C1F80452C1F8085281
:104ED000401CC0B2C1F8105261688142EAD8282251
:104EE00041466846FFF7A3F994E80F0001F0C2FFBE
:104EF00010B184F8BD63A2E784F8385084F8BD731C
:104F0000206801F0ABFF00209AE7000010B586B0E2
:104F1000044614216846FFF7A3F92068B0F1A04FBA
:104F20002FD119480021026842F001020260006896
:104F300000F0010005904FF4C05000900220CDE930
:104F40000101032003900A20049069460F48FFF7EF
:104F500075FA0D48001D016841F0800101600A48A2
:104F60001430016841F4804101600068002200F4BF
:104F70008040059011464320FFF79CFB4320FFF73C
:104F80008BFB06B010BD000030380240000002402C
:104F900070B50446C0680125022801D0FFF724FA45
:104FA0002946D4F8040401F038FCD4F80404BDE820
:104FB000704001F0F8BBD0F8040401F01CBCD0F83C
:104FC000040401F01EBC10B5044690F8BC0301288F
:104FD0000BD0012084F8BC0384F83810206802F05C
:104FE000A3FA002084F8BC0310BD022010BDD0F845
:104FF000042400F57171104601F01BBC10B5044685
:10500000006894F8BC13012906D0012184F8BC1370
:10501000A16A012902D008E0022010BDA16901297E
:1050200003D0816B41F480318163206801F00AFF75
:10503000206802F0EFF9002084F8BC0310BD0000E6
:1050400010B50446D0F8040401F032FC2068D0F812
:10505000001E41F00101C0F8001E206A002804D0A3
:105060000248016841F00601016010BD10ED00E04A
:105070002DE9F843044600684FF00109C1074FF0DD
:10508000000601D1400727D5DFF81C81C8F8686009
:10509000FFF7A2FA0746454D05E000BFFFF79CFA6F
:1050A000C01B022857D828680001F7D46068810126
:1050B000207A41EA00703D4984310860C8F8689060
:1050C000FFF78AFA074604E0FFF786FAC01B0228BA
:1050D00041D828680001F7D52078800752D5334899
:1050E0004030016841F0805101600068304D00F0AF
:1050F00080500090286840F480702860FFF76CFAB8
:10510000074604E0FFF768FAC01B022823D8286886
:10511000C005F7D5254D7035286810F4407020D0B3
:10512000A18901F4407181421BD0286820F44071AC
:105130002048C0F80090066029602868C00710D099
:10514000FFF74AFA064641F2883707E0FFF744FACC
:10515000801BB84202D90320BDE8F8832868800785
:10516000F4D5E1681148C1F301220830032A12D0B6
:10517000016821F4F81101602868A189C1F30B01CD
:10518000084328602078000703D50B49207CC1F82C
:10519000E0010020E0E70268084B22F4F812194011
:1051A0000A430260E8E7000000004742003802407E
:1051B00000700040400E474200104742FFFCFF0FC6
:1051C0002DE9F0470E46050065D0DFF81481D8F8C8
:1051D0000000F7B200F00F00B04207D288F800706C
:1051E000D8F8000000F00F00B04254D128683D4CC0
:1051F000810712D5400703D5206840F4E0502060B5
:105200002878000703D5206840F4604020602068BB
:10521000A96820F0F000084320602878C0072DD04E
:10522000304968680839012812D0022813D00328B1
:1052300011D00968890700292DDA216821F00301BE
:1052400001432160FFF7C8F9814641F2883A0EE038
:1052500009688903EFE709688901ECE7FFF7BCF902
:10526000A0EB0901514502D90320BDE8F087206871
:10527000696800F00C00B0EB810FEFD1D8F8001096
:10528000404601F00F01B14207D90770006800F0F5
:105290000F00B04201D00120E7E72878400705D58C
:1052A0002068E96820F4E05008432060287800076F
:1052B00006D52068296920F4604040EAC1002060DA
:1052C00000F01CF82168084AC1F30311515CC84082
:1052D000064908600020FFF7A7F90020C5E7000095
:1052E000003C024008380240108000089000002076
:1052F000014800687047000090000020154810B574
:10530000006810F00C02144813D01449042A0FD07E
:10531000082A0ED10F4C241F2268236802F03F0296
:105320005B0207D52068C0F38810A0FB010106E0EE
:10533000084610BD2168C1F38811A1FB00010023BC
:10534000FEF744FF2168C1F30141491C4900B0FB4D
:10535000F1F010BD083802400024F40040787D01CF
:105360002DE9F84F050076D02878DFF8F8B2BE4C6A
:10537000C00749D0DBF800105846C1F3810101296C
:1053800008D00068C0F3810002280AD1201D0068FF
:10539000400206D52068800336D568680028E2D030
:1053A00032E06868B0F5803F10D0B0F5A02F2068DB
:1053B00010D020F480302060206820F4802020600D
:1053C0006868A0B1FFF708F906460CE0206840F4D1
:1053D0008030F4E740F480202060F7E7FFF7FCF826
:1053E000801B642873D820688003F7D50CE0FFF792
:1053F000F3F8064605E000BFFFF7EEF8801B6428CF
:10540000F0D820688003F7D42878DFF8608280071E
:105410004FF000093ED5DBF80010584611F00C0F94
:1054200009D00068C0F3810002280BD18D48001F0D
:105430000068400206D42068800715D5E868012876
:1054400009D111E0E868B8B10120C8F80000FFF701
:10545000C3F8064605E002E1FFF7BEF8801B02280C
:10546000C0D820688007F7D52068296920F0F800A7
:1054700040EAC10020600DE0C8F80090FFF7ACF8EA
:10548000064604E0FFF7A8F8801B02281FD8206812
:105490008007F7D42878000722D5724E74486969CE
:1054A0006C3671B101210160FFF796F8074604E000
:1054B000FFF792F8C01B022809D830688007F7D59B
:1054C0000EE0C0F80090FFF787F8074605E083E09C
:1054D000FFF782F8C01B02287ED830688007F7D417
:1054E0002878400768D5DFF87CA100270AF1380A40
:1054F000DAF80000C0000BD4DAF8001041F0805157
:10550000CAF80010DAF80000012700F0805000907F
:10551000584E3068C00510D4306840F48070306058
:10552000FFF75AF8009005E0FFF756F80099401A87
:10553000022851D83068C005F6D54A4EA8686836AA
:1055400001280FD00528306810D020F0010030600D
:10555000306820F004003060A868B8B1FFF73CF86C
:1055600000900FE0306840F00100F4E740F00400E4
:105570003060F7E7FFF730F80099411A41F28830C0
:10558000814264D830688007F4D50EE0FFF724F834
:10559000009007E0FFF720F80099411A41F28830A7
:1055A000814254D830688007F4D42FB1DAF8001063
:1055B00021F08051CAF80010A869C0B3DBF80010D0
:1055C000C1F3810102294AD00228484607D0C8F811
:1055D0006000FFF701F800E039E005463AE0474691
:1055E000C8F86000FEF7F8FF064604E0FEF7F4FF97
:1055F000801B02282BD820688001F7D4D5E9070149
:105600000843A96A1C4A490802EB01416A6A41EA57
:105610008211084395F82C1040EA01611148001FDF
:10562000016001203866FEF7D7FF054605E014E06B
:10563000FEF7D2FF401B022809D820688001F7D569
:105640000BE000BFFEF7C8FF401B022802D9032071
:10565000BDE8F88F20688001F4D40020F8E701202D
:10566000F6E70000083802400038024000004742D8
:10567000800E4742007000400000FFFF006850307D
:1056800050F8210070470068503040F821207047E2
:1056900010B500680B4641680D480140080CD870F1
:1056A000C1F304245C7001F03F049C70C1F34231EB
:1056B000197052B900F0B8FBD870587800F0B4FBFC
:1056C0005870987800F0B0FB9870002010BD000072
:1056D0003FFFFF0010B50B460168896A59600168F9
:1056E0000969C1F30E019960006801680E48014024
:1056F000C1F305401870C1F306245C7001F07F040B
:105700009C70402404EA1141D97052B900F08CFB1E
:105710001870587800F088FB5870987800F084FB77
:105720009870002010BD00007F7F7F0070B50400DE
:1057300002D0607F10B106E0012070BD002020770C
:10574000204600F049F8022060772168CA204862AC
:10575000216853204862204600F07AFBFF2504268A
:1057600018BB206881681B4A1140816021688868E5
:1057700062681043D4E904231A4310438860216807
:10578000E068086120680169228941EA02410161FB
:105790002068C16821F08001C160206880688006AF
:1057A00007D4204600F0FEF818B1206845626677FD
:1057B000C2E72068016C21F4802101642068016C3B
:1057C000A2691143016420684562012060770020CE
:1057D00070BD0000BFFF8FFF00680349884202D1FF
:1057E0000249012008607047002800403C0E4742F3
:1057F0002DE9F0470446007F0B4601281FD04FF0EB
:10580000010984F81C9002206077DAB19878D97881
:1058100040EA014558781978000240EA41300543D2
:105820002168CA204862216853204862204600F05F
:105830000FFB0026FF274FF0040860BB1AE0022090
:10584000BDE8F0875878C10603D500F0EF000A30B4
:105850005870D87800F0F1FA0204587800F0EDFAA8
:1058600042EA0022987800F0E8FA0243187842EA07
:105870004035D5E70F480540206845602068C1687D
:1058800021F08001C1602068806880060AD420462B
:1058900000F088F830B12068476284F81D802677D0
:1058A0000120CDE72068476284F81D90267700200C
:1058B000C6E700003FFFFF002DE9F0470446007FE8
:1058C0000D46012827D04FF0010A84F81CA00220C1
:1058D00060772068002680684FEA4060F2B10028B7
:1058E00000DBEE70A878297840EA01476878E9780B
:1058F000000240EA014007432168CA20486221684B
:1059000053204862204600F0A3FA4FF0FF084FF002
:105910000409A0BB16E00220BDE8F087002800DBE8
:10592000EE70287800F089FA0204687800F085FAB1
:1059300042EA0022A87800F080FA0243E87842EABE
:105940000047D9E71648074020680760206881684B
:1059500021F480218160D5E90301084321688A6828
:10596000104388602068C16821F08001C160206810
:10597000806880060BD4204600F014F838B1216806
:10598000C1F8248084F81D9026770120C4E721689F
:10599000C1F8248084F81DA026770020BCE7000011
:1059A0007F7F7F0070B504460068C16821F0A001C8
:1059B000C160FEF711FE05464FF47A7607E000BF9E
:1059C000FEF70AFE401BB04201D9032070BD2068DB
:1059D000C0688006F4D5002070BD10B5401EB0F13F
:1059E000807F01D3012010BD4FF0E02460610F21C2
:1059F000601701F047FE0020A06107202061002011
:105A000010BDFEE7F0B500230A24302537261F46D7
:105A100011E000BFB4EB107F02D905EB107C01E070
:105A200006EB107C01F813C001EB430C00015B1C7A
:105A30008CF80170DBB29342ECD3F0BD70B586B048
:105A400014216846FEF70CFC2B480024016841F045
:105A500004010160016801F004010591016841F051
:105A600080010160016801F080010591016841F049
:105A700001010160016801F001010591016841F037
:105A8000020101600068012200F002001B4E550374
:105A9000059029463046FEF79AFD00950125CDE98F
:105AA0000154694630460394FEF7C8FC1448154E6D
:105AB000CDE90050694630460295FEF7BFFC48F23A
:105AC000FE700325CDE90005694602943046FEF7D5
:105AD000B5FC4FF2FF70CDE90005694602940A4813
:105AE000FEF7ACFC002211460620FEF7E3FD06207F
:105AF000FEF7D2FD06B070BD30380240000802400B
:105B00000000211000000240000402402DE9F04195
:105B100086B014216846FEF7A3FB4648002444499A
:105B20000594C0E900147F218160FF21C0E90314BE
:105B300044618461FFF7FAFD08B1FEF755FCDFF818
:105B4000F88001213B48C8F80040FFF797FD43F279
:105B5000F2220125904228D001213648FFF793FD1B
:105B60008DF800408DF801408DF802400394012229
:105B7000694630480494FFF79FFE08B1FEF734FCF5
:105B80008DF814508DF815508DF8165019208DF899
:105B90001700012205A92748FFF72AFE002801D097
:105BA000FEF722FC06B0BDE8F081244C2068244FAB
:105BB00000014FF4005610D5002231463846FEF75A
:105BC00006FD0920FEF712FC012231463846FEF799
:105BD000FEFC40F2F310FEF709FC2068400121D5DD
:105BE000002231463846FEF7F2FC0920FEF7FEFBA4
:105BF000012231463846FEF7EAFC6320FEF7F6FB49
:105C0000002231463846FEF7E2FC0920FEF7EEFBA3
:105C1000012231463846FEF7DAFC6320FEF7E6FB48
:105C2000C8F80050206840F080702060BAE700009B
:105C300000280040140200200800002074380240B0
:105C40000008024010B500220F49104800F076FC11
:105C500008B1FEF7C9FB0E490C4800F04FFE08B131
:105C6000FEF7C2FB0B49094800F074FA08B1FEF7D1
:105C7000BBFB064800F098FE002803D0BDE81040AA
:105C8000FEF7B2BB10BD0000240000205802002027
:105C90007001002074000020FEE770470148FEF705
:105CA00089BE0000C40E00202DE9F04104460068C2
:105CB0000E46016C00EB4615D5F8080B276920232A
:105CC0004FF40042012F08D02C4FB9424FD10104AC
:105CD00049D500BFC5F8082B4DE0DFF8A4C05FEA46
:105CE000007E04F5717711D5614503D9000401D513
:105CF000C5F8082B2046FFF77AF93A4601212068BB
:105D000001F010FA0820C5F8080B34E05FEA806E55
:105D100002D5C5F8083B2EE010F0280F2BD16145C5
:105D200001D90004D6D4C6EBC60004EB8000D5F838
:105D3000102BD0F80412C2F312028A1AC0F81422EF
:105D4000D0F808221144C0F80812F1B22046FEF73C
:105D500017FD86B9D4F8100268B93A4601212068C7
:105D600001F0E0F907E0800601D5C5F8083BF1B283
:105D70002046FEF705FD0020BDE8F0810A31544FB2
:105D80000A30544F2DE9F84F0E46C1EBC60100EB27
:105D9000810481460568D4E914103C34884202D954
:105DA0000120BDE8F88F081AA168814200D2084698
:105DB000C01C870805EB46181BE000BFA0EB010ADA
:105DC000A068504500D282460AF10300870899F87E
:105DD000100000901FFA8AF3F2B22846E16801F041
:105DE00029FCE16801EB0A00E060A16901EB0A000F
:105DF000A061D8F8180980B2B84205D3D4E90501EA
:105E0000814201D20028D9D1D4E90501884208D8BD
:105E100006F00F0101208840D5F834188143C5F8F9
:105E200034180020BDE77047010901EB810100F043
:105E30000F0000EB4100C0B27047002102E00A38B9
:105E4000C0B2491C0A28FAD2090740EA116070471B
:105E500070B504460068C168490614D44FF0FF319C
:105E6000C160FEF7B9FB05464FF47A7607E000BF44
:105E7000FEF7B2FB401BB04201D9032070BD206881
:105E8000C0684006F4D5002070BD7047FEF7AABB7D
:105E900030B597B030216846FEF7E2F914210CA81E
:105EA000FEF7DEF9142111A8FEF7DAF91F480025E4
:105EB000016841F080510160006800F08050169048
:105EC0001B48016821F4404141F400410160006831
:105ED000022400F440401690052000904FF48030DA
:105EE0000190012002908005CDE90640192008901C
:105EF0004FF4A870099004200A9007200B90684680
:105F0000FFF72EFA0CA90F2081E83100E002CDE95D
:105F10000F0502210CA8FFF753F9E001149011942A
:105F200011A8FFF7A5F817B030BD000040380240B7
:105F3000007000401048016841F4700101600F4892
:105F4000016841F0010101600C4A00210832116032
:105F500002680B4B1A400260031D0A4A1A6002686D
:105F600022F48022026005480C3001600249580684
:105F7000803908607047000088ED00E0003802407A
:105F8000FFFFF6FE103000242DE9F041D0F89832E2
:105F9000D0F89022DAB101EB810400EB84040025F3
:105FA000E6694EB1C1EBC10703EB87035B6CB6FB3F
:105FB000F3F703FB176323B1C2F814520020BDE8C6
:105FC000F08100231A46E56100F07BFCF6E7022031
:105FD000F5E770B50546D0F8904200F087FBC4F8AD
:105FE0000C02D5F8900248B1D5F89412D4F8040206
:105FF000CA6804F503719047002070BD022070BD8F
:1060000070B504460026812100F0B6FA0025012172
:106010002046E56200F0B0FA82212046C4F85851CB
:1060200000F0AAFA2564D4F8900248B1D4F894029A
:1060300004F5247440688047206801F0E9FC25607D
:10604000304670BD10B5D0E9A44159B194F80002B2
:10605000FF2807D08B6894F8012221469847FF203B
:1060600084F80002002010BD0A210180004870471A
:10607000980000204321018000487047E80000207C
:106080004321018000487047A40000204321018083
:10609000004870472C0100202DE9F04104460026FD
:1060A000007C4FF40077012590B340230222812128
:1060B000204600F063FB4023E562022201212046D6
:1060C00000F05CFB0823032282212046C4F85851CB
:1060D00000F054FB4FF40770256401F063FFC4F82F
:1060E0009002F8B10546D4F8940200688047002079
:1060F000C5F81402C5F81802207CD5F8042298B11E
:1061000040230121204600F045FB3046BDE8F081E8
:10611000FFE73B4602228121204600F02FFB3B4651
:10612000E562CAE70126F0E73B46EAE710B5D0F89A
:10613000901269B1027C002AD1F8042205D04023D4
:10614000012100F027FB002010BD4FF40073F7E79A
:10615000022010BD02460220002902D00020C2F811
:1061600094127047D0F89002C0F8041200207047D3
:10617000D0F89002C0F81022C0F808120020704732
:106180002DE9FC410546D0F8907200208DF8000002
:10619000ADF80400064608780C4610F0600121D0E6
:1061A00020293BD1E288AAB10006607807D5D5F84E
:1061B00094128B6839469847E288394626E087F87A
:1061C0000002A07987F80102E2883946284600F0EB
:1061D0006AF828E0D5F89412607800228B6821468E
:1061E000984720E0607820B10A2809D00B2815D103
:1061F00010E095F87402032810D1022201A905E0ED
:1062000095F87402032809D101226946284600F056
:1062100064F808E095F87402032804D02146284663
:1062200000F036F802263046BDE8FC8110B5D0F803
:106230009012A1B1D1F814220AB1012010BD01229F
:10624000C1F81422D1F810220263B1F8102293B2DF
:10625000D1F80822812100F034FB002010BD02207B
:1062600010BD10B5D0F88C2252689047002010BDA8
:10627000134610B50A46002100F08CFA002010BD2C
:10628000134610B50A46002100F01BFB002010BD8C
:1062900010B50446802100F0F9FA2046BDE8104010
:1062A000002100F0F3BA10B50323C0F84821C0F86C
:1062B0006C32C0F84C2113460A46002100F06AFAFD
:1062C000002010BD10B505210023C0F86C121A463D
:1062D000194600F05FFA002010BD10B50223C2611C
:1062E000C0F86C32026213460A46002100F0E9FA57
:1062F000002010BD10B504210023C0F86C121A460E
:10630000194600F0DEFA002010BD000010B50A4664
:10631000024903A000F0E2F8004810BDF404002098
:1063200043444320436F6E66696700001220088073
:10633000004870474400002010B50A46024903A0F7
:1063400000F0CCF8004810BDF40400204344432082
:10635000496E746572666163650000000420088000
:10636000004870474000002010B50A46024903A0CB
:1063700000F0B4F8004810BDF404002053544D69F7
:1063800063726F656C656374726F6E69637300002E
:1063900010B50A46024903A000F0A0F8004810BD5D
:1063A000F404002053544D333220566972747561E1
:1063B0006C20436F6D506F727400000010B51A208E
:1063C00008800A480168001D0468001D006808185C
:1063D00009D008220649FFF715FB054904221031B0
:1063E0002046FFF70FFB0248801E10BD107AFF1FEA
:1063F0005A000020F8B5044648880D46010A0829CD
:106400004BD2DFE801F04A0409174A4A4048D4F861
:106410008812207C0A6832E0207C02260028D4F80A
:106420008C0205D0C16A684688470146467041E043
:10643000816AF8E7C0B206282FD2DFE800F003082F
:106440000D12171CD4F88812207C4A6817E0D4F883
:106450008812207C8A6812E0D4F88812207CCA68EE
:106460000DE0D4F88812207C0A6908E0D4F888127C
:10647000207C4A6903E0D4F88812207C8A69694646
:106480009047014616E0207C38B9D4F88C02416B65
:1064900068468847F5E7207C20B129462046FFF76B
:1064A000F7FEF8BDD4F88C02016B684688470146B8
:1064B00007204870BDF8000048B1EA8852B1824216
:1064C00000D90246ADF800202046FFF706FFE88815
:1064D0000028E6D12046FFF70DFFF8BD70B5002378
:1064E00000281ED00446002502E06D1CEDB2641C9D
:1064F0002678002EF9D1022404EB4504148012788A
:10650000CA545B1C0322CA5400245B1C06E0CA5414
:106510005B1CDAB28C54521CD3B2401C0278002AA5
:10652000F5D170BD01004FF0000004D0012901D069
:10653000022901D0022070470120704710B580B1B8
:10654000D0F88C3213B10023C0F88C3209B1C0F8F6
:106550008812012180F87412027000F0CBF800203C
:1065600010BD022010BD10B5D0F89802FEF73CF91E
:10657000BDE81040FFF7D6BF10B5D0F89802FEF77F
:106580000DF9BDE81040FFF7CDBF2DE9F0411746EA
:10659000044651B1D4F88C0242691AB194F87402DD
:1065A000032851D00220BDE8F081D4F86C320025D8
:1065B00004F11400022B03D0042B3AD0C3B33CE007
:1065C000D0E903639E4207D9F11AC1608AB2394605
:1065D0002046FFF755FE12E08068B0FBF3F103FBA5
:1065E000110199B9984211D3D4F8701288420DD292
:1065F000002211462046FFF743FEC4F870520023E4
:106600001A461946204600F0C5F816E0D4F88C0268
:10661000C16829B194F87402032801D12046884743
:106620008021204600F032F92046FFF74BFE04E0BF
:10663000FFE78021204600F029F994F8780201282C
:1066400004D184F8785201E0204690470020AAE760
:1066500070B51546044649B1D4F88C0282691AB166
:1066600094F87402032830D0022070BDD4F86C1264
:1066700004F5A070032902D005291ED027E0D0E937
:1066800003218A420BD9531AC3600846834200D3C0
:1066900003469AB229462046FFF7EAFD17E0D4F8F0
:1066A0008C02016929B194F87402032801D12046B3
:1066B00088472046FFF71EFE09E000200146C4F887
:1066C0006C02204600F0E2F801E0204690470020EE
:1066D00070BD0020704710B5012180F87412D0F809
:1066E0008C22017952689047002010BDD0F89802A2
:1066F000FEF7A8B810B5017839BB15490222C1F8D8
:106700000404C0F898124FF0A040086004204860CC
:106710000020C1E90320C1E9062008624862C8627E
:1067200008630846FEF780FB08B1FDF75DFE802197
:106730000748FDF7F2FF402200210548FDF7F1FF71
:10674000802201210248FDF7ECFF002010BD00006F
:10675000C40E00200A0601F07F01D0F89802C1EBB8
:10676000C10100EB810002D590F83E00704790F81F
:10677000FE017047002070470020704710B51C468E
:106780001346D0F898022246FEF765F8BDE810409F
:10679000FFF7C8BE10B5D0F89802FEF78CF8BDE838
:1067A0001040FFF7BFBE70B50022044640231146DB
:1067B000FFF7E4FF40260125C4F85061334600226C
:1067C00080212046C4F84451FFF7D8FF6662A561D6
:1067D00084F874520020C4F86C026060C4F87C0233
:1067E000D4F8900228B1D4F88C02002142682046E7
:1067F0009047002070BD90F8751280F87412002048
:10680000704710B590F87412032904D1D0F88C1297
:10681000C96901B18847002010BD0174002070478C
:1068200010B5D0F89802FEF7CEFBBDE81040FFF798
:1068300079BE70B5044600F52070054600F04AF8B0
:106840000120C4F86C02B4F88602C4F8700294F80F
:10685000800210F01F010AD001290DD0022910D0AA
:1068600000F08001204600F011F8002070BD29469C
:10687000204600F09EF8F8E72946204600F0CAF9C5
:10688000F3E72946204600F01DF9EEE710B5D0F8F1
:106890009802FEF734F8BDE81040FFF743BE10B58C
:1068A000D0F89802FEF7AAFBBDE81040FFF73ABE09
:1068B00090F8741280F87512042180F87412002088
:1068C000704710B5D0F89802FEF753F8BDE81040B5
:1068D000FFF728BE0A7802704A7842708A78CB782F
:1068E00002EB032242800A794B7902EB0322828079
:1068F0008A79C97902EB0121C180704702460020E4
:1069000011B1C2F88C1270470220704710B5D0F850
:106910008C2202241AB11268904700B90024204644
:1069200010BD000070B50E461E4D897804462970D2
:10693000012931D894F8740202280BD003280FD013
:1069400031462046FFF7A4FC29782046BDE8704078
:10695000FFF787BCD9B10320616084F8740209E0B5
:1069600071B16068884212D0C1B22046FFF779FC4D
:10697000297861602046FFF7C9FF02280CD006E0A5
:10698000022084F8740220466160FFF76AFC20460A
:10699000BDE87040FFF7AEBC31462046BDE8704010
:1069A000FFF776BC9400002010B5FFF778FF0020B9
:1069B00010BD2DE9F0410A78002612F0600208D0DF
:1069C000202A01D0402A70D1D0F88C2292689047BA
:1069D0006DE04B78002201250A2B66D2DFE803F038
:1069E000405D6557650805652C29FFF703FD5EE0EE
:1069F00004468888D8B9C888C8B94888802816D27B
:106A000000F07F0794F87402032810D084F876729F
:106A100039462046FFF704FF2046FFF76BFC1FB105
:106A2000022084F8740242E084F874523FE0204669
:106A30003BE0FFF777FF3AE0CB88012B35D190F8A8
:106A40007432012B04D0022B02D0032B2DD104E091
:106A50008260012200F1080116E00122011D13E00D
:106A600090F87422012A03D0022A01D0032A1CD1F3
:106A7000CA88022A19D1C560D0F87C1209B1032155
:106A8000C160022200F10C01FFF727FC0FE04988EA
:106A900001290CD1C0F87C5211E090F87432012B1E
:106AA00008D0022B06D0032B04D0FFF7F1FB3046B1
:106AB000BDE8F08149880129F9D1C0F87C22FFF7AF
:106AC00019FCF4E72DE9F0410A4604461078002746
:106AD000097910F060030AD0202B01D0402B50D14F
:106AE000D4F88C0211468368204698478FE0C0F3A3
:106AF0004110012806D05078D0B301282AD00328AD
:106B00003FD107E0D4F88C02114683682046BDE8E7
:106B1000F041184794F87402022802D0032872D179
:106B20000AE071B380296ED02046FFF7AFFE8021C6
:106B30002046FFF7ABFE6AE0508838B931B18029B2
:106B400004D0D08810B92046FFF7A0FE2046FFF7FA
:106B5000D1FB5CE094F874020228E2D0032852D101
:106B6000508898BB4806F1D02046FFF7FCFCEDE7C3
:106B7000FFE794F874020026022803D0032842D1CC
:106B800012E040E009B180293DD1080601F07F0004
:106B900000EB800004EB800101D5143101E001F528
:106BA000A07102220E602AE0080601F00F0000EB3F
:106BB000800004EB80000AD5806920B301F07F00DB
:106BC00000EB800004EB800514350BE01FE0D0F8EB
:106BD0004401C0B101F07F0000EB800004EB8005B0
:106BE00005F5A07541B1802906D02046FFF7B2FD1A
:106BF00010B10120286000E02E60022229462046C4
:106C0000FFF76BFB03E011462046FFF741FB3846D8
:106C1000BDE8F08170B5054608780C4610F06000BC
:106C200003D0202801D0402816D195F874020128FD
:106C300003D0022801D003280ED1207901280BD8D7
:106C4000D5F88C02826828469047E188014306D136
:106C50002846FFF74FFB02E02846FFF719FB00200C
:106C600070BD000070B50A78012302F00F054E7860
:106C7000AB401B4CD0F81C58012E17D045EA0343FB
:106C8000C0F81C3800EB4210D0F8002B12040BD4D3
:106C9000D0F8002B0B89C978C3F30A031A4344EADE
:106CA00081410A43C0F8002B002070BD9BB21D43F8
:106CB000C0F81C5800EB4210D0F800391B04F3D484
:106CC000D0F800390D89C978C5F30A0589042B432A
:106CD00041EA82510B432343C0F80039E4E7000046
:106CE00000800010D0F800196FF30A01C0F80019F5
:106CF000D0F80818C1F34101022905D1D0F80019D4
:106D000041F00301C0F80019D0F8041841F4807173
:106D1000C0F804180020704770B5044606990A9E12
:106D2000049D0D98012916D0E06840F04000E06015
:106D3000204600F02BF8A16B1EB321F48031A16333
:106D4000012D07D1A16841F00601A160A16841F0C1
:106D50002001A16070BDA16B21F48031A163E168C5
:106D6000094A1140E160E16821F44011E160012825
:106D700003D1E06840F48010E060204600F006F89F
:106D8000DEE741F48031DAE7BFFFBDFF01220C49A5
:106D900002E0521C8A420BD80369002BF9DA02691F
:106DA00042F001020261012204E0521C8A4201D930
:106DB000032070470369DB07F7D10020704700000C
:106DC000400D030030B50B784D78012203F00F041D
:106DD00002FA04F4012DD0F83C5817D025EA0444F7
:106DE000C0F83C48D0F81C48097801F00F018A40EF
:106DF00024EA0241C0F81C1800EB4310D0F8001B35
:106E00000E4A1140C0F8001B002030BDA4B2A543BB
:106E1000C0F83C58D0F81C48097801F00F018A40AE
:106E200091B28C43C0F81C4800EB4310D0F8001915
:106E3000034A1140C0F80019E6E700000078F3EFBC
:106E4000007833EC10B5D0F8041821F00201C0F836
:106E500004180320FDF7CAFA002010BD10B5D0F8C1
:106E6000041841F00201C0F804180320FDF7BEFA2F
:106E7000002010BD2DE9F04F0025DDE90BCB0E46BB
:106E80000446DDF84090099F2846294604EB80021D
:106E9000C2F80411401C0F28F8D3B9F1000F2046A6
:106EA00018D0006820F400122260A06B40F4002289
:106EB000A26308468846C4F8000ED4F8001820469D
:106EC000C4F80018BCF1010F10D0D0F8001841F040
:106ED000030110E0806B40F40012A263A06B20F469
:106EE0000022A263A06B20F48022E1E7D0F8001812
:106EF0000BB141F00101C0F80018102100F0A0FA18
:106F000000B10125204600F08BFA00B10125404672
:106F1000C4F81088C4F81488C4F81C8800214FF005
:106F200000634FF090484FF67F3A14E004EB4112B3
:106F3000D2F800C9BCF1000F06DA11B1C2F800891D
:106F400004E0C4F8003901E0C2F80009C2F81009F1
:106F5000C2F808A9491C8E42E8D8002115E000BFFC
:106F600004EB4112D2F800CBBCF1000F06DA11B1EC
:106F7000C2F8008B04E0C4F8003B01E0C2F8000B4B
:106F8000C2F8100BC2F808AB491C8E42E8D8D4F8FE
:106F9000101821F480722146C4F81028012F08D15E
:106FA000134AC1F83028D1F83018124A1143C4F8F6
:106FB0003018A0616FF0804060611FB9A06940F097
:106FC0001000A061A0690C490843A061BBF1000F4B
:106FD00003D0A06940F00800A061B9F1010F03D10E
:106FE000A06906490843A0612846BDE8F08F00006B
:106FF000000180000300010000383C8004000040D4
:10700000816821F0010181600020704770B50D7822
:107010004E78434CEBB200EB4313012E1FD0D3F854
:10702000100B6FF31200C3F8100BD3F8100B2040B5
:10703000C3F8100B486908B188684861D3F8100B91
:1070400040F40020C3F8100BD3F8100B8C68C4F385
:1070500012042043C3F8100B012A55D058E04E69A2
:10706000002ED3F8106932D06FF31206C3F81069FE
:10707000D3F810692640C3F810694E698C68A6429F
:1070800000D94C61D3F8104944F40024C3F81049E6
:10709000D3F810494E69C6F312063443C3F81049B9
:1070A000012A22D000EB4512D2F8003943F0044304
:1070B000C2F800394A6932B3D0F83428097801F0AF
:1070C0000F03012199400A43C0F8342826E02640E6
:1070D000C3F81069D3F8104944F40024C3F81049E8
:1070E000D3F810496FF31204D8E7096919B100EB1E
:1070F0004512C2F8141900EB4510D0F8001941F000
:107100000441C0F8001909E0C86808B1C3F8140BBD
:10711000D3F8000B40F00440C3F8000B002070BD12
:10712000FFFF07E010B5036C134CA34203D9D0F85E
:10713000003B002B1EDB0023C0F8103BD0F8103BB7
:1071400043F40023C0F8103BD0F8103B43F0180381
:10715000C0F8103BD0F8103B43F0C043C0F8103BE0
:10716000012907D1C0F8142BD0F8001B41F0802171
:10717000C0F8001B002010BD0A30544F4A780B782D
:10718000012A00EB43100BD0D0F8002B22F40012A0
:10719000C0F8002BC978032914D0022912D017E0B7
:1071A000D0F8002922F40012C0F80029C978032978
:1071B00001D002290CD1D0F8001941F08051C0F85B
:1071C000001905E0D0F8001B41F08051C0F8001B09
:1071D000002070470A784B78D1B200EB4110012BA8
:1071E00012D0D0F8001B002906DB2AB1D0F8001B12
:1071F00021F08041C0F8001BD0F8001B41F40011C1
:10720000C0F8001B00207047D0F80019002906DBE9
:107210002AB1D0F8001921F08041C0F80019D0F847
:10722000001941F40011C0F80019EBE7F8B50C782B
:107230004F78774DE3B26FF0604600EB4313012FB8
:1072400026D0D3F8104B6FF31204C3F8104BD3F8C9
:10725000104B2C40C3F8104B4C69002C74D08D6837
:107260002C44641EB4FBF5F4D3F8105BA4B206EA18
:10727000C4463543C3F8105BD3F8105B8E68664391
:10728000C6F312042543C3F8105B012A71D0A6E0AF
:107290004F691FB3D3F810796FF31207C3F8107951
:1072A000D3F810792F40C3F810794F698D682F44B7
:1072B0007F1EB7FBF5F506EAC545D3F810693543DF
:1072C000C3F81059D3F810594E69C6F31206354366
:1072D000C3F81059CD78012D10D01BE0D3F81069F8
:1072E0002E40C3F81069D3F8105945F40025C3F8AF
:1072F0001059D3F810596FF3120509E0D3F810595B
:1073000025F0C045C3F81059D3F8105945F0005581
:10731000C3F81059012A18D000EB4413D3F80049E0
:1073200044F00444C3F80049CC78012C2FD04A69BA
:1073300062B3D0F83428097801F00F030121994095
:107340000A43C0F8342860E036E00A691AB100EB5D
:107350004413C3F81429C97801290FD1D0F80818AB
:10736000C90500EB4411D1F8002903D442F00052C2
:1073700002E030E042F08052C1F8002900EB4410F6
:10738000D0F8001941F00441C0F800193DE0D0F8F0
:107390000848E405D3F8004902D444F0005401E061
:1073A00044F08054C3F8004900928A8A93B20A7864
:1073B000C96800F03FF928E0D3F8104B8D68C5F399
:1073C00012052C43C3F8104BD3F8104B44F400249F
:1073D000C3F8104B59E7CA680AB1C3F8142BC9782F
:1073E00001290CD1D0F80808C005D3F8000B02D44D
:1073F00040F0005001E040F08050C3F8000BD3F89B
:10740000000B40F00440C3F8000B0020F8BD000062
:10741000FFFF07E0816841F00101816000207047B3
:10742000002110220261054A491C914201D9032022
:1074300070470369DB06F7D400207047400D030056
:107440000022202343EA811101610549521C8A422E
:1074500001D90320704703699B06F7D400207047C9
:10746000400D0300D0F8080810F0060004D00228F0
:1074700003D0062801D00F207047022070474069D2
:1074800000F001007047D0F81818D0F81C08084028
:1074900080B27047D0F81818D0F81C080840000CCB
:1074A000704710B5D0F81038D0F8342801F00F0428
:1074B00000EB4110E24002F00102D0F8080943EA73
:1074C000C212104010BD00EB4111D1F8081BD0F8DA
:1074D0001408084070474169806908407047D21C11
:1074E00010B59308002200F5805002E00468521C99
:1074F00010C19A42FAD3084610BD10B5C26822F0F6
:10750000C042C260012902D029B1012010BDC1686A
:1075100041F0005102E0C16841F08041C160322079
:10752000FCF764FF002010BDD0F8002822F4FE62B2
:10753000C0F80028D0F800284FF4FE6303EA0111D8
:107540000A43C0F80028002070470000022A3ED1FC
:10755000264A274B0A449A4201D20F2138E0254A95
:10756000254B0A449A4201D20E2131E0234A244B92
:107570000A449A4201D20D212AE0224A224B0A44AF
:107580009A4201D20C2123E0204A214B0A449A421C
:1075900001D20B211CE01F4A1F4B0A449A4201D220
:1075A0000A2115E01D4A1E4B0A449A420FD31D4A78
:1075B0001D4B0A449A4201D2082109E01B4A11449A
:1075C0001B4A914201D2072102E0062100E0092175
:1075D000C26822F47052C260C2684FF4705303EA6A
:1075E00081210A43C260002070470000405327FFFA
:1075F00000350C00401E1BFF40420F0000DC0BFF5B
:10760000804F1200808CF9FE20D6130060B6E5FE94
:1076100060E3160000D3CEFE40771B00C05BB3FED4
:10762000C091210000CA91FE20753800E05459FE37
:10763000E09C410010B5029C64B9DB1C9C0800EB87
:107640000230002300F5805002E004C902605B1C98
:10765000A342FAD3002010BDFEE700000FB4084B90
:1076600010B504A902AA039800F02CF8044602A958
:10767000002000F0C8F9204610BC5DF814FB0000A3
:10768000077A00080907090E002804DB00F1E02052
:1076900080F80014704700F00F0000F1E02080F83F
:1076A000141D704702E008C8121F08C1002AFAD151
:1076B00070477047002001E001C1121F002AFBD172
:1076C000704700002DE9FF4F8BB088460546002625
:1076D00006E025280BD0DDE90D1290476D1C761CC5
:1076E00028780028F5D10FB03046BDE8F08F00248F
:1076F000A146A2460122AE4900E0044315F8013F2D
:10770000203B02FA03F00842F7D128782A2810D04B
:107710006FF02F022878A0F13001092915D809EB64
:10772000890102EB410144F0020400EB01096D1CE8
:10773000F0E758F8041B5FEA010903D544F400544C
:10774000C9F1000944F002046D1C28782E2817D1D5
:1077500015F8010F44F004042A280ED06FF02F0210
:107760002878A0F1300109290AD80AEB8A0102EB36
:10777000410100EB010A6D1CF2E758F804AB6D1CE7
:1077800028786C280FD006DC4C2817D068280DD03C
:107790006A2814D104E0742810D07A280FD10DE0A3
:1077A00044F400140AE044F4801401E044F440146A
:1077B0006978814202D104F580146D1C6D1C287813
:1077C000692865D006DC00288DD0632827D064287E
:1077D00006D15DE06E2808D073282AD0752877D0AE
:1077E000DDE90D129047761CE0E0C4F30250022858
:1077F00009D003280DD0D8F8001004280DD00E6051
:1078000008F10408D2E0D8F80010F217C1E90062CC
:10781000F6E7D8F800100E80F2E70E70F0E718F8DF
:10782000041B8DF8001000208DF80100EB460120AC
:1078300003E058F804BB4FF0FF3061074FF000073A
:1078400001D40AE07F1C57450DDA8742FADB1BF8AA
:1078500007100029F6D106E07F1C8742FCDB1BF8ED
:1078600007100029F8D1DDE90D23A9EB07008146B7
:10787000214600F0B1F83044C61904E0DDE90D12EC
:107880001BF8010B90477F1EF8D22146484688E03E
:1078900058F8040BC4F302514FF00A0B032900D12E
:1078A00000B2042900D140B2002802DA40422D2162
:1078B00002E0210505D52B218DF82410012104E0DB
:1078C00006E0E10710D02021F6E708AF089113E0A9
:1078D00058F8040BC4F302514FF00A0B032900D1EE
:1078E00080B2042900D1C0B20021EEE75946FCF76E
:1078F000C2FC303107F8011D0028F7D1ADEB0700BD
:1079000000F1200B600702D524F4803401E04FF031
:10791000010ADA4502DDAAEB0B0000E000208246F6
:1079200000EB0B0108980144A9EB01000A90E00369
:1079300006D4DDE90D2321460A9800F04DF80644EF
:107940004FF0000908E009A911F80900DDE90D125E
:10795000904709F10109761C08998945F3DBE0039A
:107960000CD5DDE90D2321460A9800F035F80644D0
:1079700004E0DDE90D1230209047761CBAF10001D9
:10798000AAF1010AF5DC05E0DDE90D1217F8010B9B
:107990009047761CBBF10001ABF1010BF4DC0A98B7
:1079A0002146DDE90D2300F005F806446D1C97E63D
:1079B000092801002DE9F041044600251E4617461E
:1079C000880404D405E039462020B0476D1C641EAD
:1079D000F9D52846BDE8F0812DE9F041044600259F
:1079E0001E469046C80301D5302700E020278804B2
:1079F00004D505E041463846B0476D1C641EF9D5F4
:107A00002846BDE8F0810A68531C0B60107070476F
:107A100010B5002821D0114B0022001F196803E087
:107A2000814203D80A4649680029F9D152B1136846
:107A3000841A9C4204D1006818441060104602E089
:107A4000506000E0186039B102680B1A934203D10C
:107A50000B681A4402604968416010BDA80100200B
:107A600010B501210348FCF7ADFD002800D001202E
:107A700010BD0000000002402DE9F05F04460078D0
:107A8000052700256D4E4FF006094FF0040B4FF00F
:107A9000030A4FF6FF780F281AD2DFE800F0080E2D
:107AA0001D263653636D7279898D96ABC900E068E7
:107AB000804700280ED1012068E06088401C80B219
:107AC0006080E188884205D3E068804708B90220D9
:107AD0006CE02570BDE8F09F6178012000EB01208B
:107AE00000F0FEF884F800A06DE06088401C608023
:107AF000E06880476188A288914204D20128E9D1D8
:107B000084F800B0E6E70B2050E03188414502D10F
:107B10006088308065806088401C80B26080E18829
:107B20008842D7D3E0688047012808D084F800A0B5
:107B30006088318808446080A6F80080CAE7277012
:107B40006580F9E76088401C6080E0688047618854
:107B50002289914203D20028BCD1072016E084F884
:107B60000090B7E7607807EB002000F0B9F8617883
:107B7000022000EB01205EE02046BDE8F05F00F04F
:107B800083B8E06880470128A4D1092020701AE05A
:107B90006088401C80B26080E18888429AD3E068A7
:107BA0008047012801D0082000E00A20207091E7DA
:107BB00061780BEB01203EE0607809EB002000F0DB
:107BC0008FF80C20E2E7658084E76088401C6080C5
:107BD000E0688047012801D10D202070618860890C
:107BE00081428FD300288DD0607807EB002000F011
:107BF00077F8E8E7B088404502D16088B0806580BA
:107C00006088401C80B26080E188884296D3E0683A
:107C10008047012809D00C2020706088B188084472
:107C2000A4F80200A6F8048054E70E202070F9E7BB
:107C300061780AEB012000F053F84AE70C000020BD
:107C400070B50125054E002406EB0410FFF714FF64
:107C5000641CE4B2AC42F7D370BD000014000020F5
:107C6000084991F8210091F82020904201D100208C
:107C7000704731F81200521C02F00F0281F82020E8
:107C800070470000340200202DE9F041134D0446F6
:107C90004FF6FF7668880027B04202D1608868807E
:107CA00067806088401C80B26080E188884209D388
:107CB000E068804740B105202070608869880844EA
:107CC00060806E80BDE8F0816078072101EB0020C4
:107CD00000F006F8082020706780F2E70C00002012
:107CE0000A4991F8212021F8120091F82100401C46
:107CF00000F00F0281F8212091F82000824204D187
:107D0000401C00F00F0081F8200070473402002072
:107D100092B001250027FCF76DFCFEF7B9F8724917
:107D200070480860FDF78AFEFDF7F0FE6F48704E60
:107D30004FF400580068012814D000240022414666
:107D40003046FCF744FC6320FCF750FB012241461F
:107D50003046FCF73CFC6320FCF748FB641CE4B2B3
:107D60000A2CEBD3FDF76EFF624C00BFFCF734FC2E
:107D7000B8422DD0FCF730FC0746012D28D1A07861
:107D80000028A08805D0401E0004000CA08007D069
:107D900007E0401C80B2A080B0F5C86F01D301207D
:107DA000A070A0885021B0FBF1F0C1B26170E07802
:107DB000142801D9002000E0401CE070C0B28842C5
:107DC00001D3012200E0002241463046FCF7FFFBD0
:107DD000FCF702FCA0EB0B00B0F57A7F2CD3FCF78C
:107DE000FBFB83462078012852D0434804900022B0
:107DF00007A94248FDF76EFC002211A93F48FDF794
:107E000047FC9DF847009DF846109DF81E2000F5A0
:107E1000FA609DF8453000920390CDE901319DF85C
:107E20001D309DF81C2036A10498FFF717FC81B285
:107E3000DDF81000FCF7BEFAFCF7CEFB504504D08D
:107E4000FCF7CAFB8246FFF7FBFEFCF7C5FBA0EB85
:107E500009000A288AD3FCF7BFFB8146FFF700FF21
:107E6000E080B0F5817F1CD0B0F5827F29D0B0F5DD
:107E7000837F7FF47BAF012500206070E07029A133
:107E80001D48FFF7EBFB81B21B48FCF793FA6DE747
:107E90000020207028A11848FFF7E0FB81B21648A7
:107EA000C8E7002541463046FCF78CFB012801D08D
:107EB000012200E0002241463046FCF788FB2DA15C
:107EC000DEE7002541463046FCF77CFB012801D067
:107ED000012200E0002241463046FCF778FB2BA14E
:107EE000CEE700000040000808ED00E00800002098
:107EF0000008024000000020B00100201402002011
:107F0000253032643A253032643A253032642C25EB
:107F1000303264D4C225303264C8D5253264C4EA14
:107F20000D0A00000D0A4C6F6E6720507265737366
:107F300020B3A4B0B40D0A000D0A53544D33324699
:107F4000343031434320576541637420436F726579
:107F5000426F6172640D0A20203556202D3E203379
:107F60002E3356204C444F3A20415037333433445B
:107F7000200D0A000D0A53686F72742050726573E9
:107F80007320B6CCB0B40D0A000000000D0A446F97
:107F900075626C6520507265737320CBABBBF70DB7
:107FA0000A000000F0B50B30154D20F00701002449
:107FB000144A0FE003688B420BD38B4205D95E1A3B
:107FC00043184768C3E9006700E04368136002C0D4
:107FD00004E0021D10680028ECD12046002802D1E0
:107FE000286808B10020F0BD064A07481060074A1B
:107FF000121A22F00702C0E9002401202860D7E706
:10800000AC010020A8010020D4120020D01A0020CA
:108010000000000000000000010203040607080938
:108020004080000800000020B00100000443000868
:1080300014810008B0010020201D0000B476000863
:10804000C13AFF0131220114DC0514172C01E803A9
:10805000617A14082D631B085D041A69041A9104DF
:108060001ABD041A0D041A39041704030904120175
:10807000140202021640830440571D02010203400D
:10808000031A1A031379431B0875041A5D041A9D19
:1080900004192F1182105324F4130A0632022A40C5
:1080A0001C1C09024357111DC03209049C1A020B03
:1080B00013052416100105240110090104240202ED
:1080C000052406170107058203081C1009048D32D8
:1080D0000A1D07050102432C070581070938442AB8
:1080E00040072A8107112B0907440A3B04441B99C6
:1080F00060F0190413816142081A450C13895F1B53
:1081000008D304C11A81181A75041A8D041A690457
:0481100081000000EA
:040000050800419519
:00000001FF
