:020000040800F2
:10000000F8070020AD010008A71B00089919000897
:10001000A51B0008B9020008B11F0008000000007D
:10002000000000000000000000000000FB1B0008B2
:100030006D03000800000000A91B0008FD1B00085C
:10004000C7010008C7010008C7010008C701000870
:10005000C7010008C7010008C7010008C701000860
:10006000C7010008C7010008C7010008C701000850
:10007000C7010008C7010008C7010008C701000840
:10008000C7010008C7010008C70100080000000000
:10009000000000000000000000000000C701000890
:1000A000C7010008C7010008C7010008C51C0008F7
:1000B000C7010008C7010008C7010008C701000800
:1000C000C7010008C7010008C7010008C7010008F0
:1000D000C7010008C7010008C701000800000000B0
:1000E000C7010008C7010008C701000800000000A0
:1000F000000000000000000000000000C701000830
:1001000000000000C7010008C7010008C70100087F
:1001100000000000000000000000000000000000DF
:10012000C7010008BD020008C7010008C701000898
:10013000C7010008000000000000000000000000EF
:10014000000000000000000000000000C7010008DF
:10015000C7010008C7010008C7010008C70100085F
:10016000C7010008C70100080000000000000000EF
:10017000000000000000000000000000000000007F
:1001800000000000C701000800000000000000009F
:10019000C7010008C7010008DFF80CD000F07AF8AA
:1001A00000480047F5200008F8070020064880476F
:1001B00006480047FEE7FEE7FEE7FEE7FEE7FEE74C
:1001C000FEE7FEE7FEE7FEE7B51C00089901000820
:1001D0002DE9F05F0546002092469B46884606467C
:1001E000814640241BE0284641464746224600F00F
:1001F00041F853465A46C01A914110D31146184649
:10020000224600F028F82D1A67EB01084F462246D7
:100210000120002100F01FF817EB00094E41201EBD
:10022000A4F10104DFDC484631462A464346BDE8D6
:10023000F09FD2B201E000F8012B491EFBD27047BB
:100240000022F6E710B513460A4604461946FFF7A2
:10025000F0FF204610BD202A04DB203A00FA02F10C
:10026000002070479140C2F1200320FA03F31943A4
:1002700090407047202A04DB203A21FA02F0002146
:10028000704721FA02F3D040C2F1200291400843A6
:1002900019467047064C074D06E0E06840F0010340
:1002A00094E8070098471034AC42F6D3FFF778FF84
:1002B000E421000804220008FEE70000014800F0E5
:1002C0006BB800009403002001681823CAB2103AEA
:1002D000B2FBF3F2054B6FF30901032A9B5CC36584
:1002E00000D9091D8165084670470000CC2100082F
:1002F00010B5014600208B698A6A4FF0C07453B173
:10030000B3F5005F15D072B1012A0CD0022A0AD0D1
:10031000032A09D104E01AB1012A06D0022A03D126
:10032000C96AC90100D5012010BDC96AA142FAD02D
:1003300010BD002AF7D0012AF2D0022AF3D0032AF6
:10034000F3D010BD30B50468256825F480252560FC
:10035000046863608368402B036803D09960006879
:10036000C26030BD9A600068C16030BD704772B62F
:10037000FEE790F83510022903D080214165012065
:100380007047052180F835100068016821F00101EF
:1003900001600020704700002DE9F84304464FF04B
:1003A0000009CDF8009063484FF41651A56D006820
:1003B000B0FBF1F72E6894F85C10082000FA01F108
:1003C00031420FD021680A6852070BD50A6822F023
:1003D00004020A6094F85C108840A860606D40F0E8
:1003E0000100606594F85C104FF0010808FA01F014
:1003F000304208D021684969090604D5A860606DBB
:1004000040F00200606594F85C100420884030429F
:1004100008D021680968890704D5A860606D40F09C
:100420000400606594F85C1010208840304218D0B9
:1004300021680968090714D5A86020680168490384
:1004400004D50068000308D5A16C07E00168C90560
:1004500003D4016821F008010160216C09B1204634
:10046000884794F85C1020208840304231D02168C1
:100470000968C9062DD5A86094F8350005282068BC
:10048000016806D0490347D5006800031DD4616C9C
:100490001CE021F0160101602068416921F0800113
:1004A0004161206C08B9A06C20B12068016821F07E
:1004B0000801016094F85C103F208840A86084F82F
:1004C000349084F83580216D1FE0E16B09B120463E
:1004D0008847606D00282BD0606DC00714D00520C0
:1004E00084F835002068016821F00101016000985E
:1004F000401C0090B84203D820680068C007F6D1BD
:1005000084F8349084F83580E16C002910D001B073
:100510002046BDE8F04308470168C905D5D4016805
:1005200021F01001016084F8349084F83580CCE724
:10053000BDE8F883180000202DE9F041044600F0E2
:10054000A7F906465CB1002584F83450022084F8EF
:1005500035002068016821F0010101600DE00120F3
:10056000BDE8F08100F094F9801B052805D9202012
:100570006065032084F83500F2E720680068C00752
:10058000F0D12268116820480140D4E901031843E2
:10059000D4E903363343184363691843A369184306
:1005A000E3691843236A18430843616A042903D1A5
:1005B000D4E90B1319430843106020684069666A48
:1005C00020F0070130460E43012704280CD1A06A11
:1005D0000643E06A40B12046FFF78AFE20B1402082
:1005E000606584F83570BAE7206846612046FFF7F9
:1005F0006BFE94F85C203F2191408160656584F832
:1006000035700020ACE700003F8010F02DE9F0418C
:100610000446866D90F83400002501280DD0012095
:1006200084F8340094F835700020012F07D084F846
:10063000340002252846BDE8F0810220FBE70227AE
:1006400084F8357060652046FFF77CFE94F85C10F6
:100650003F208840B0602068016841F016010160C9
:10066000206C20B12068016841F008010160206819
:10067000016841F001010160DCE7000070B504464B
:1006800000F006F90546601C02D0044800780444D6
:1006900000F0FEF8401BA042FAD370BD0C00002011
:1006A0002DE9F84FDFF8B4A1002201240AF1040B70
:1006B00003254FF00F090BF1040E00BF0B6804FA7D
:1006C00002F63340B34272D10F7907F00307012FCE
:1006D00001D0022F16D187684FEA420805FA08FCBC
:1006E00027EA0C07D1F80CC00CFA08FC4CEA070CFE
:1006F000C0F808C04768B7430E79C6F300169640A5
:100700003E4346600E79F643B6070DD0C7685600E3
:1007100005FA06FC27EA0C07D1F808C00CFA06FC1B
:100720004CEA070CC0F80CC00E7906F00306022E46
:1007300010D1D60800EB8608D8F8206057074FEA9A
:10074000D76C09FA0CF7BE430F6907FA0CF7374369
:10075000C8F8207006684FEA420C05FA0CF7BE4351
:100760000F7907F0030707FA0CF7374307604E6865
:10077000F6006DD53A4E376847F4804737603668E3
:1007800022F0030706F480460096364E07EB060C6F
:10079000DCF8086897073F0F09FA07F826EA080609
:1007A000DFF8C480404503D14FF000081EE04FE061
:1007B000DFF8B880404502D14FF0010816E0DFF8BD
:1007C000B080404502D14FF002080FE0DFF8A4806E
:1007D000404502D14FF0030808E0DFF89C80404517
:1007E00002D14FF0040801E04FF0070808FA07F8BB
:1007F00048EA0608CCF80888DAF800605746D1F8CD
:1008000004C09E435FEACC3C00D51E433E60DBF84B
:1008100000605F46D1F804C09E435FEA8C3C00D57F
:100820001E433E60DEF800607746D1F804C09E4368
:100830005FEACC2C00D51E433E60084F0C373E6863
:10084000D1F804C09E435FEA8C2C00D51E433E6065
:10085000521C102AFFF432AFBDE8F88F003C014073
:1008600044380240003001400000024000040240D1
:1008700000080240000C02400010024000690840DD
:1008800000D0012070470AB1816170470904FBE77D
:1008900001488068704700000C0000200248816811
:1008A00002781144816070470C0000200B4810B59D
:1008B000016841F400710160016841F480610160E8
:1008C000016841F480710160032000F06FF800209E
:1008D00000F006F800F024F8002010BD003C0240B3
:1008E00070B50D4D04464FF47A712878B1FBF0F0E5
:1008F0000A490968B1FBF0F000F0EDFC48B9102C92
:1009000007D200222146501E00F030F800206C6013
:1009100070BD012070BD00000C00002018000020F8
:100920000A4808B5016841F480410160006800F49C
:10093000804000900548001F016841F0805101602F
:10094000006800F08050009008BD0000443802406C
:10095000002809DB00F01F020121914040098000BE
:1009600000F1E020C0F8001170470000F0B40E4B19
:100970001B680C46C3F30223C3F10705042D00D9FD
:100980000425191D072901D2002300E0DB1E0126E2
:1009900006FA05F1491E214099409E40761E1640F8
:1009A0003143F0BC01F086BB0CED00E0064900F0DD
:1009B000070208684FF6FF03184040EA0220034A86
:1009C00010430860704700000CED00E00000FA05DD
:1009D0002DE9F843044600684FF00109C1074FF0C4
:1009E000000601D1400729D5DFF82081C8F86860EA
:1009F000FFF74EFF0746464D05E000BFFFF748FFF3
:100A0000C01B022859D828680001F7D4A068217BB0
:100A1000800140EA0170616808433D498431086003
:100A2000C8F86890FFF734FF074604E0FFF730FF8F
:100A3000C01B022841D828680001F7D5207880071C
:100A400052D533484030016841F080510160006860
:100A5000304D00F080500090286840F4807028608D
:100A6000FFF716FF074604E0FFF712FFC01B02283E
:100A700023D82868C005F7D5254D7035286810F4AF
:100A8000407020D0218A01F4407181421BD0286837
:100A9000214920F44070C1F800900E602860286859
:100AA000C00710D0FFF7F4FE064641F2883707E092
:100AB000FFF7EEFE801BB84202D90320BDE8F883A1
:100AC00028688007F4D521691148C1F30122083054
:100AD000032A12D0016821F4F81101602868218AE4
:100AE000C1F30B01084328602078000703D50B49A8
:100AF000207DC1F8E0010020E0E70268084B22F405
:100B0000F81219400A430260E8E70000000047427B
:100B10000038024000700040400E4742001047423B
:100B2000FFFCFF0F2DE9F0470E46050065D0DFF80A
:100B30001481D8F80000F7B200F00700B04207D2E5
:100B400088F80070D8F8000000F00700B04254D1D7
:100B500028683D4C810712D5400703D5206840F432
:100B6000E05020602878000703D5206840F46040FA
:100B700020602068A96820F0F000084320602878F1
:100B8000C0072DD0304968680839012812D00228E2
:100B900013D0032811D00968890700292DDA2168AC
:100BA00021F0030101432160FFF772FE814641F20B
:100BB000883A0EE009688903EFE709688901ECE7E4
:100BC000FFF766FEA0EB0901514502D90320BDE8FD
:100BD000F0872068696800F00C00B0EB810FEFD15E
:100BE000D8F80010404601F00701B14207D907705C
:100BF000006800F00700B04201D00120E7E7287844
:100C0000400705D52068E96820F4E05008432060DB
:100C10002878000706D52068296920F4604040EA5A
:100C2000C100206000F018F82168084AC1F30311E0
:100C3000515CC8400649086006480068FFF750FE4E
:100C40000020C4E7003C024008380240D4210008DC
:100C50001800002010000020154810B5006810F0A2
:100C60000C02144813D01449042A0FD0082A0ED1BC
:100C70000F4C241F2268236802F03F025B0207D555
:100C80002068C0F38810A0FB010106E0084610BDF3
:100C90002168C1F38811A1FB00010023FFF798FA36
:100CA0002168C1F30141491C4900B0FBF1F010BDBE
:100CB000083802400024F40040787D012DE9F84F07
:100CC00004006ED02078DFF84C93C007A9F104052A
:100CD0004AD009F104000168C1F38101012908D05B
:100CE0000068C0F3810002280AD1D9F80000400250
:100CF00006D52868800337D560680028E1D033E046
:100D00006068B0F5803F10D0B0F5A02F286810D0F3
:100D100020F480302860286820F4802028606068F3
:100D2000A8B1FFF7B5FD06460DE0286840F4803015
:100D3000F4E740F480202860F7E700BFFFF7A8FD44
:100D4000801B642873D828688003F7D50CE0FFF770
:100D50009FFD064605E000BFFFF79AFD801B642853
:100D6000F0D828688003F7D42078DFF8AC828007B9
:100D70004FF0000A3ED5A748001D016811F00C0F86
:100D800008D00068C0F3810002280BD1D9F8000018
:100D9000400207D42868800716D5E068012800D1F2
:100DA00012E033E1E068B8B10120C8F80000FFF7B5
:100DB0006FFD064605E000BFFFF76AFD801B0228B5
:100DC000C0D828688007F7D52868216920F0F80086
:100DD00040EAC10028600DE0C8F800A0FFF758FD08
:100DE000064604E0FFF754FD801B02281FD8286840
:100DF0008007F7D42078000722D5864F874861699D
:100E0000703771B101210160FFF742FD064604E031
:100E1000FFF73EFD801B022809D838688007F7D508
:100E20000EE0C0F800A0FFF733FD064605E082E0C3
:100E3000FFF72EFD801B02287DD838688007F7D485
:100E40002078400768D5DFF8CCB100270BF13C0BC8
:100E5000DBF80000C0000BD4DBF8001041F080513B
:100E6000CBF80010DBF80000012700F08050009064
:100E70006B4E3068C00510D4306840F4807030602C
:100E8000FFF706FD009005E0FFF702FD0099401A0C
:100E9000022850D83068C005F6D55E4EA0686C3682
:100EA00001280FD00528306810D020F001003060F4
:100EB000306820F004003060A068B8B1FFF7E8FCAB
:100EC00000900FE0306840F00100F4E740F00400CB
:100ED0003060F7E7FFF7DCFC0099411A41F28830F7
:100EE000814266D830688007F4D50EE0FFF7D0FC69
:100EF000009007E0FFF7CCFC0099411A41F28830DE
:100F0000814256D830688007F4D42FB1DBF8001046
:100F100021F08051CBF80010A069C8B33D49091DEC
:100F20000968C1F3810102294AD00228504607D03E
:100F3000C8F8600000E03CE0FFF7AAFC04463BE094
:100F40004746C8F86000FFF7A3FC064605E000BF6F
:100F5000FFF79EFC801B02282BD828688001F7D45D
:100F6000D4E907010843A16A2E4A490802EB01416E
:100F7000626A41EA8211084394F82C1040EA016148
:100F8000C9F8001001203866FFF782FC044606E02D
:100F90003EE000BFFFF77CFC001B022809D8286850
:100FA0008001F7D534E000BFFFF772FC001B022878
:100FB00002D90320BDE8F88F28688001F4D427E027
:100FC0000128F7D0D9F80000E26900F480019142CD
:100FD0001CD1226A00F03F01914217D147F6C0713F
:100FE000626A0140B1EB821F10D1A26A4FF0FF3359
:100FF00000F4403103EB5202B1EB024F06D194F8FA
:101000002C1000F07060B0EB016F01D00120D1E72F
:101010000020CFE70438024000004742800E4742DC
:10102000007000400000FFFF70B5040002D0607F38
:1010300010B106E0012070BD00202077204600F0AE
:1010400049F8022060772168CA204862216853204D
:101050004862204600F0B4FDFF25042618BB206836
:1010600081681B4A1140816021688868626810436A
:10107000D4E904231A43104388602168E0680861BA
:1010800020680169228941EA024101612068C16842
:1010900021F08001C16020688068800607D4204666
:1010A00000F0FEF818B1206845626677C2E7206854
:1010B000016C21F4802101642068016CA269114354
:1010C00001642068456201206077002070BD000047
:1010D000BFFF8FFF00680349884202D10249012007
:1010E00008607047002800403C0E47422DE9F04759
:1010F0000446007F0B4601281FD04FF0010984F8F9
:101100001C9002206077DAB19878D97840EA0145DE
:1011100058781978000240EA413005432168CA2016
:101120004862216853204862204600F049FD0026AD
:10113000FF274FF0040860BB1AE00220BDE8F087EB
:101140005878C10603D500F0EF000A305870D878FF
:1011500000F02BFD0204587800F027FD42EA00223F
:10116000987800F022FD0243187842EA4035D5E72E
:101170000F480540206845602068C16821F0800163
:10118000C1602068806880060AD4204600F088F894
:1011900030B12068476284F81D8026770120CDE7B2
:1011A0002068476284F81D9026770020C6E700007B
:1011B0003FFFFF002DE9F0470446007F0D46012860
:1011C00027D04FF0010A84F81CA002206077206825
:1011D000002680684FEA4060F2B1002800DBEE7024
:1011E000A878297840EA01476878E978000240EA5F
:1011F000014007432168CA204862216853204862A1
:10120000204600F0DDFC4FF0FF084FF00409A0BBC2
:1012100016E00220BDE8F087002800DBEE70287899
:1012200000F0C3FC0204687800F0BFFC42EA002230
:10123000A87800F0BAFC0243E87842EA0047D9E710
:1012400016480740206807602068816821F48021E3
:101250008160D5E90301084321688A6810438860EA
:101260002068C16821F08001C16020688068800624
:101270000BD4204600F014F838B12168C1F824805E
:1012800084F81D9026770120C4E72168C1F82480E6
:1012900084F81DA026770020BCE700007F7F7F0038
:1012A00070B504460068C16821F0A001C160FFF775
:1012B000EFFA05464FF47A7607E000BFFFF7E8FA49
:1012C000401BB04201D9032070BD2068C068800671
:1012D000F4D5002070BD10B5401EB0F1807F01D361
:1012E000012010BD4FF0E02460610F21601700F075
:1012F000E1FE0020A06107202061002010BD7047A2
:10130000704710B590F83C20012A22D0012280F8C5
:101310003C20CA688C6822F4407222434C6822F454
:10132000806222430C6822F4006222430C6922F49A
:10133000805222434C6922F400522243C96900239F
:1013400022F480420A4301684A6480F83C3000205D
:1013500010BD022010BD000070B590F83C20012A9D
:101360002CD0012480F83C40022280F83D20036804
:101370005A689D6822F070060A6832435A60104B22
:1013800002689A420ED0B2F1804F0BD00D4B9A42B8
:1013900008D00D4B9A4205D00C4B9A4202D00C4B10
:1013A0009A4204D1496825F080031943916080F87E
:1013B0003D40002180F83C10084670BD022070BD01
:1013C000000001400004004000080040000C004004
:1013D000004001407047704770B5044600680169DD
:1013E0004FF00005C943890715D4C168C94389076F
:1013F00011D4E91E016101202077206880698007EF
:10140000204602D0FFF7E7FF04E000F0C3F82046D3
:1014100000F090F9257720680169C943490717D47E
:10142000C168C943490713D46FF004010161022068
:1014300020772068806910F4407F204602D0FFF7B3
:10144000CAFF04E000F0A6F8204600F073F9257703
:1014500020680169C943090716D4C168C94309074F
:1014600012D46FF008010161042020772068C06960
:101470008007204602D0FFF7AEFF04E000F08AF8B4
:10148000204600F057F9257720680169C943C9064D
:1014900017D4C168C943C90613D46FF010010161A4
:1014A000082020772068C06910F4407F204602D0D1
:1014B000FFF791FF04E000F06DF8204600F03AF9E4
:1014C000257720680169C943C90708D1C168C943A4
:1014D000C90704D1891E0161204600F05BFA20682B
:1014E0000169C943090609D4C168C943090605D47D
:1014F0006FF0800101612046FFF701FF206801695C
:10150000C943490609D4C168C943490605D46FF0E7
:1015100040010161204600F03EFA20680169C9439C
:1015200089060BD4C168C943890607D46FF020012E
:1015300001612046BDE87040FFF7E2BE70BD0000CB
:1015400010B586B0044614216846FEF779FE0E49B0
:101550002068884216D10D480021026842F001023D
:101560000260006800F0010005904FF48070009068
:101570000220CDE90201019001200490694604484F
:10158000FFF78EF806B010BD000001403038024071
:1015900000000240704770B5044690F83C000D46CC
:1015A00001280AD0012084F83C0042B1042A18D056
:1015B000082A2AD00C2A4DD139E0022070BD2068BB
:1015C00000F054FC2068816941F0080181612068C5
:1015D000816921F004018161206881692A691143D0
:1015E00011E0206800F06AFC2068816941F4006124
:1015F00081612068816921F480618161206881694D
:101600002A6941EA0221816124E0206800F082FC1D
:101610002068C16941F00801C1612068C16921F0F9
:101620000401C1612068C1692A69114311E0206881
:1016300000F09CFC2068C16941F40061C161206830
:10164000C16921F48061C1612068C1692A6941EAE8
:101650000221C161002084F83C0070BD10B5040077
:1016600003D094F83D0010B107E0012010BD002028
:1016700084F83C00204600F01FF8022084F83D006A
:10168000211D206800F024FB012084F8460084F826
:101690003E0084F83F0084F8400084F8410084F85C
:1016A000420084F8430084F8440084F8450084F83C
:1016B0003D00002010BD000038B5054600681949FE
:1016C00088422DD1184900200A6842F001020A60C0
:1016D0000968174C01F001010091144921604FF095
:1016E000406161604021C4E90210090121614900A3
:1016F00061618900C4E90610206260622046FEF73D
:101700001BFF08B1FEF733FE6C62002211461B205E
:10171000A563FFF72BF9BDE838401B20FFF718B988
:1017200038BD0000000001404438024028640240F7
:10173000940300200021014800F0D0B84C030020A1
:10174000704700002DE9F04117460D0004460CD00B
:10175000042D11D0082D16D094F84100022819D07C
:1017600094F84100012818D0A0E094F83E00022827
:1017700010D094F83E00F5E794F83F00022809D015
:1017800094F83F00EEE794F84000022802D094F865
:101790004000E7E70220BDE8F0810FB9002B5BD1E4
:1017A0004649474E474A022045B1042D16D0082D20
:1017B00024D084F841000C2D3AD16AE084F83E0030
:1017C000606AC163606A39460664606AC2642268FE
:1017D000606A3432FEF71AFFF0BB1FE084F83F0066
:1017E000A06AC163A06A39460664A06AC26422681E
:1017F000A06A3832FEF70AFF70BB14E084F840009C
:10180000E06AC163E06A39460664E06AC26422683D
:10181000E06A3C32FEF7FAFEF0B935E02068C168B4
:1018200041F4007103E02068C16841F48061C16047
:1018300001222946206800F097FA2349206888424F
:1018400003D1426C42F4004242642068884210D0C6
:10185000B0F1804F0DD000E028E01C49884208D04C
:101860001B49884205D01B49884202D01A49884248
:1018700004D1816801F00701062903D0016841F015
:1018800001010160002086E72068C16841F4006121
:10189000CDE7206BC163206B39460664206BC264C0
:1018A0002268206B4032FEF7B1FE08B1012072E7DA
:1018B0002068C16841F48051B9E70000831D000829
:1018C000E11D0008191E000800000140000400404E
:1018D00000080040000C00400040014070B5044684
:1018E00000680D0006D0042D0AD0082D3AD00C2D2A
:1018F0000DD13DE0C16821F40071C160606A04E06F
:10190000C16821F48061C160A06AFEF732FD002247
:101910002946206800F028FA1D4B41F21111206879
:101920008A10984209D1036A0B4206D1036A134216
:1019300003D1436C23F4004343642068036A0B42E1
:1019400006D1016A114203D1016821F00101016051
:1019500001209DB1042D14D0082D15D084F841002C
:10196000002070BDC16821F40061C160E06ACCE76D
:10197000C16821F48051C160206BC6E784F83E0045
:10198000EEE784F83F00EBE784F84000E8E700006A
:101990000000014070477047FEE70000174808B597
:1019A0000268002142F4800202600068144A00F4D8
:1019B000800000901348C0E90021802282609200DC
:1019C000C2605200C0E9042192018161C0E907129E
:1019D000042242620322C0E90A210163FEF7ACFD42
:1019E00008B1FEF7C4FC002211463920FEF7BEFF05
:1019F000BDE808403920FEF7ABBF00003038024098
:101A000010640240CC02002070B586B014216846F4
:101A1000FEF716FC19480024016841F0040101603A
:101A2000016801F004010591016841F08001016045
:101A3000016801F080010591016841F00101016038
:101A40000068012200F001000D4E55030590294663
:101A50003046FEF718FF00950125CDE9015469468F
:101A600030460394FEF71CFECDE900546946054854
:101A70000295FEF715FE06B070BD0000303802403A
:101A8000000802400000024010B586B014216846EC
:101A9000FEF7D6FB1B48002419490594C0E9001441
:101AA0007F218160FF21C0E9031444618461FFF755
:101AB000BBFA08B1FEF75BFC8DF800408DF80140E1
:101AC0008DF802400394012269460E480494FFF702
:101AD00071FB08B1FEF74BFC01208DF814008DF866
:101AE00015008DF8160002468DF8174005A9054827
:101AF000FFF7FCFA002801D0FEF739FC06B010BD54
:101B0000002800402C03002010B592B000240F9450
:101B10001C2108A81094FEF793FB20216846FEF7CD
:101B20008FFB1F481D49C0E900146821C0E902412C
:101B3000046144618461FFF791FD08B1FEF717FC71
:101B40000F940FA916481094FFF706FC08B1FEF792
:101B50000EFC6020CDE908040A940B940C940D94BB
:101B6000002208A90E480E94FFF715FD08B1FEF7F4
:101B7000FEFB00944FF40050CDE904400294019420
:101B80000394694606480794FFF7BBFB08B1FEF7CC
:101B9000EEFB0348FFF7D4FC12B010BD000001407B
:101BA0004C030020FEE7FEE77047002102E00A3800
:101BB000C0B2491C0A28FAD2090740EA11607047EE
:101BC00070B504460068C168490614D44FF0FF316F
:101BD000C160FEF75DFE05464FF47A7607E000BF70
:101BE000FEF756FE401BB04201D9032070BD2068AD
:101BF000C0684006F4D5002070BD7047FEF74EBEA9
:101C000030B599B030216846FEF71AFB14210CA8B4
:101C1000FEF716FB182111A8FEF712FB234800253A
:101C2000016841F080510160006800F08050179019
:101C30001F48016841F4404101600068022400F43B
:101C400040401790052000904FF480300190012013
:101C500002908005CDE9064019200890A820CDE922
:101C6000090404200B906846FFF728F808B172B603
:101C7000FEE70CA90F2081E831004FF48050CDE938
:101C80000F0502210CA8FEF74DFF08B172B6FEE762
:101C90004FF480701590119411A8FEF799FE00285A
:101CA00001D072B6FEE719B030BD000040380240E6
:101CB000007000400248016841F470010160704703
:101CC00088ED00E00148FFF787BB00004C030020CF
:101CD000F0B502681D4B1E4C9F031E4D1E4E9842D0
:101CE00007D0B84205D0A04203D0A84201D0B042EC
:101CF00004D122F0700C4A6842EA0C02984210D0DB
:101D0000B8420ED0A0420CD0A8420AD0B04208D0AF
:101D1000124CA04205D0124CA04202D0114CA0425D
:101D200003D122F44074CA6822434C6922F0800235
:101D3000224302608A68C2620A688262984201D1C4
:101D40000969016301214161F0BD0000000001400B
:101D50000004004000080040000C0040004001402A
:101D6000004401400048014010B501F01F0301216B
:101D7000046A99408C430462016A9A4011430162EB
:101D800010BD10B5846B0121626A824205D12177B2
:101D9000C069F8B984F83E101CE0A26A824206D1FC
:101DA00002222277C069A8B984F83F1012E0E26AE3
:101DB000824206D104222277C06958B984F84010C3
:101DC00008E0226B824205D108222277C06908B957
:101DD00084F841102046FFF7ADFC0020207710BDAD
:101DE00010B5846B616A814201D101200DE0A16AC6
:101DF000814201D1022008E0E16A814201D1042040
:101E000003E0216B814201D1082020772046FFF7B3
:101E100097FC0020207710BD10B5846B0121626A09
:101E2000824203D1217784F83E1019E0A26A8242EF
:101E300004D10220207784F83F1011E0E26A824248
:101E400004D10420207784F8401009E0226B8242FC
:101E500004D10820207784F8411001E084F83D1077
:101E60002046FFF7B7FA0020207710BD30B5026A90
:101E700022F001020262026A4368846924F0730559
:101E80000C682C4322F002058A682A430A4DA842B6
:101E90000BD122F00805CA6823F440732A434D6928
:101EA00022F004021D438B692B434360846149681F
:101EB0004163026230BD00000000014030B5026A9B
:101EC00022F010020262026A436884690D6824F4F9
:101ED000E64444EA05248D6822F0200242EA051215
:101EE0000B4DA8420ED1CD6822F0800242EA0512C5
:101EF0004D6923F4406343EA85038D6922F0400273
:101F000043EA85034360846149688163026230BDAE
:101F10000000014030B5026A22F480720262036A56
:101F20004268C46923F4007324F073050C682C43E1
:101F30008D6843EA05230C4DA8420ED1CD6823F4E9
:101F4000006343EA05234D6922F4405242EA051238
:101F50008D6923F4806342EA05124260C4614968D6
:101F6000C163036230BD00000000014030B5026A69
:101F700022F480520262046A4268C3690D6823F445
:101F8000E64343EA05238D6824F4005444EA05340B
:101F9000064DA84204D14D6922F4804242EA8512DE
:101FA0004260C36149680164046230BD00000140C1
:101FB000FEE700000A4BDB784BB110FB03F0000A90
:101FC00011FB03F1090A12FB03F2120A02E00020DE
:101FD00001460246090441EA002010437047000010
:101FE0000000002030B5002813D10A4B002200EB7E
:101FF000400000BF01FA02F4240201D5412400E0B0
:10200000192402EBC005521CD2B223F81540182A3D
:10201000F0D330BD1C00002000200C49192200BF65
:1020200021F81020401C80B21828F9D31820002273
:102030004FF4AC7321F81020401C80B29842F9D3C1
:10204000024A00210248FFF77DBB00001C0000206F
:102050004C0300204FF4AC73024A00210248FFF702
:1020600071BB00001C0000204C030020C0F1FF00E9
:10207000552808D200EB4001A0EB8000401ECAB2F8
:10208000C0B2002114E0AA2809D25538A0EB800183
:10209000491ECAB200EB4000C1B2002008E0AA38D5
:1020A000A0EB8001491E00EB4000C9B2C0B2002283
:1020B000FFF780BF0907090E002804DB00F1E020CC
:1020C00080F80014704700F00F0000F1E02080F865
:1020D000141D704702E008C8121F08C1002AFAD177
:1020E00070477047002001E001C1121F002AFBD198
:1020F00070470000FEF7DAFBFFF782FDFFF784FC74
:10210000FFF74CFCFFF7C0FCFFF7FEFCFFF784FF76
:1021100017491920174E184FC8700A244FF400555C
:1021200040F22B1801213846FEF7A8FB012810D1F8
:102130001AE0002229463046FEF7A5FB0420FEF7F0
:102140009DFA012229463046FEF79DFB4046FEF7E8
:1021500095FA01213846FEF791FB0128E9D1641D6B
:10216000E4B2322C00D90024204600F007F8D9E769
:1021700000000020000802400000024070B5044644
:10218000FEF786FB10498A7802B9886001228A70BE
:102190008A68904213D94A782044521CD5B24D70B7
:1021A0000024886005EB0420C0B2FFF75FFF014602
:1021B0002046FFF717FF641C2404240CF2D0BDE86E
:1021C0007040FFF747BF0000000000200006101617
:1021D00000061016000000000000000001020304C9
:1021E0000607080904220008000000201C00000067
:1021F000D4200008202200081C000020DC0700007A
:10220000E4200008000000000000000000000000C2
:102210000100000010000000000000000024F40095
:040000050800019955
:00000001FF
