:020000040800F2
:10400000A806002039420008314400082D44000869
:104010002F440008F3420008154900080000000082
:10402000000000000000000000000000B94500088A
:10403000F542000800000000994400086D460008A1
:1040400053420008534200085342000853420008FC
:1040500053420008534200085342000853420008EC
:1040600053420008534200085342000853420008DC
:1040700053420008534200085342000853420008CC
:104080005342000853420008534200080000000059
:104090000000000000000000000000005342000883
:1040A000534200085342000853420008534200089C
:1040B000534200084D47000853420008534200088D
:1040C000534200085342000853420008534200087C
:1040D0005342000853420008534200080000000009
:1040E00053420008534200085342000800000000F9
:1040F0000000000000000000000000005342000823
:1041000000000000534200085342000853420008D8
:10411000000000000000000000000000000000009F
:10412000534200085342000853420008534200081B
:1041300053420008000000000000000000000000E2
:1041400000000000000000000000000053420008D2
:1041500053420008534200085342000853420008EB
:104160005342000853420008000000000000000015
:10417000000000000000000000000000000000003F
:104180000000000053420008000000000000000092
:10419000534200085342000800F002F800F03CF8D7
:1041A0000AA090E8000C82448344AAF10107DA4592
:1041B00001D100F031F8AFF2090EBAE80F0013F0A8
:1041C000010F18BFFB1A43F0010318471008000045
:1041D00030080000103A24BF78C878C1FAD85207D6
:1041E00024BF30C830C144BF04680C607047000071
:1041F0000023002400250026103A28BF78C1FBD8F0
:10420000520728BF30C148BF0B6070471FB500F090
:10421000DFFB1FBD10B510BD00F031F81146FFF7F0
:10422000F5FF00F079FB00F04FF803B4FFF7F2FF61
:1042300003BC00F057F800000948804709480047D0
:10424000FEE7FEE7FEE7FEE7FEE7FEE7FEE7FEE746
:10425000FEE7FEE704480549054A064B70470000A3
:10426000F146000899410008A8000020A806002097
:10427000A8020020A80200207047704770477546CA
:1042800000F02CF8AE4605006946534620F00700C2
:10429000854618B020B5FFF7DDFFBDE820404FF0A0
:1042A00000064FF000074FF000084FF0000B21F020
:1042B0000701AC46ACE8C009ACE8C009ACE8C009ED
:1042C000ACE8C0098D46704710B50446AFF30080D6
:1042D0002046BDE81040FFF7A8BF00000048704727
:1042E0004800002001491820ABBEFEE7260002006E
:1042F0007047FEE7704700007CB50121084600F0DA
:10430000CDF84FF48070009003208DF80500022056
:104310008DF804000024154E8DF8064001258DF817
:1043200007506946304600F025F80021A80500F046
:104330001DF90121042000F0B1F88DF80540680353
:104340008DF8045000908DF806408DF807406946BE
:10435000074800F00FF88DF8044000958DF80750DD
:104360006946304600F006F87CBD000000000240BF
:1043700000080240F0B50023012403270D6804FA69
:1043800003F21540954242D1D0F800C05E0007FA12
:1043900006F52CEA050CC0F800C091F804C0D0F86E
:1043A00000E00CFA06FC4CEA0E0CC0F800C091F8D4
:1043B00004C0BCF1010F02D0BCF1020F1FD1D0F834
:1043C00008C02CEA050CC0F808C091F805C0D0F868
:1043D00008E00CFA06FC4CEA0E0CC0F808C0D0F855
:1043E00004C02CEA020CC0F804C0426891F806C070
:1043F0000CFA03FC1FFA8CFC42EA0C024260C26811
:10440000AA43C260CA79C568B2402A43C2605B1C35
:10441000102BB3D3F0BD0246002012690A4200D02F
:10442000012070474183704701837047FEE7FEE734
:104430007047000030B50F22C47801780123FCB129
:10444000144C246801F1E02104F4E064C4F5E06454
:10445000C4F30724C4F10405E2404478AC408578F5
:10446000154025432A0181F80024007800F01F013F
:104470008B404009800000F1E020C0F8003130BDE1
:1044800001F01F0083404809800000F1E020C0F8DF
:10449000803130BD0CED00E070470000044A002977
:1044A000116801D0014300E08143116070470000B2
:1044B00030380240044A0029116801D0014300E06D
:1044C0008143116070470000403802400149C864D0
:1044D000704700000000474270B5204A1168204C28
:1044E00011F00C0104D01F4E042903D0082903D079
:1044F00004601BE0066019E01849091F0B68C3F34C
:1045000080550B6803F03F0315B1B6FBF3F301E0F0
:10451000B4FBF3F30C680968C4F388146343C1F374
:104520000141491C4900B3FBF1F1016011680F23FF
:1045300003EA11110C4B5C5C0168E14041601468B6
:10454000072505EA94241C5D21FA04F484601268AE
:1045500005EA52329A5CD140C16070BD0838024011
:104560000024F40040787D0128000020034A1368ED
:10457000084323F0EC63184310607047083802408A
:1045800031B500F00BF8009C0546601C00D0641C9F
:1045900000F004F8401BA042FAD338BD014800687F
:1045A000704700000000002002480168491C0160BB
:1045B0007047000000000020704700000CB500208C
:1045C0002649019000900A6842F480320A604FF454
:1045D000A0430A6802F400320092019A521C019230
:1045E000009A12B9019A9A42F3D10A68920332D51D
:1045F0000120009019484030026842F08052026069
:104600001748026842F440420260144808300268C9
:10461000026002680260026842F480520260031F76
:10462000104A1A600A6842F080720A600A689201B1
:10463000FCD50D4A40F202711160016821F00301BE
:104640000160016841F0020101600168C1F381016C
:104650000229FAD10CBD00900CBD000000380240C8
:104660000070004019544107003C024010B5FFF7AC
:104670009BFF10BD70B51A4C20681A4A10F00C014F
:10468000194804D0194D042903D0082903D0026029
:104690001BE0056019E01249091F0B68C3F380563F
:1046A0000B6803F03F0316B1B5FBF3F201E0B2FB78
:1046B000F3F20B680968C3F388135A43C1F301414D
:1046C000491C4900B2FBF1F101602168064AC1F3BF
:1046D0000311121D515C0268CA40026070BD0000E7
:1046E000083802400024F4001400002040787D01C6
:1046F000124810B5016841F470010160104801686A
:1047000041F0010101600E4A002108321160026887
:104710000C4B1A400260031D0B4A1A60026822F417
:104720008022026006480C300160FFF747FF034912
:104730004FF000608039086010BD000088ED00E097
:1047400000380240FFFFF6FE1030002410B5074C81
:104750000121204600F088F8002805D001212046DC
:1047600000F038F800F004F810BD0000000400402C
:10477000164800220146437889882BB1491E090456
:10478000090C818009D009E0491C89B28180B1F50A
:104790007A5F03D30121417000E0427081884FF4B9
:1047A000A073B1FBF3F1CBB203708178322901D948
:1047B000827001E0491C8170827805484FF40051F5
:1047C0009A4201D3FFF730BEFFF72CBE0C00002049
:1047D00000080240C943018270470029018802D0C5
:1047E00041F0010101E021F001010180704700006A
:1047F0007FB501210220FFF75DFE1D208DF80C0022
:1048000000248DF80D4001208DF80E008DF80F006A
:1048100003A8FFF70FFE114811490068ADF80040EA
:10482000B0FBF1F0401E85B2ADF80840ADF8024093
:1048300064200C4C01906946204600F02DF80122BE
:104840002946204600F024F801221146204600F0B7
:1048500017F801212046FFF7C0FF7FBD140000209C
:1048600080841E000004004002460020138A9289C2
:104870000B4202EA010202D0002A00D00120704758
:10488000002A828901D00A4300E08A43828170476E
:10489000018582827047000030B50288164B174CA4
:1048A00098420DD0A0420BD0B0F1804F08D0144DEB
:1048B000A84205D0134DA84202D0134DA84203D1FF
:1048C00022F070054A882A43104DA84206D0104DA8
:1048D000A84203D022F440750A892A4302804A681C
:1048E000C2620A880285984201D0A04201D1897A29
:1048F00001860121818230BD000001400004014099
:104900000004004000080040000C0040001000407F
:1049100000140040FEE700002749264808600120F7
:10492000FFF7D4FDFFF7A6FE2448FFF7D5FD234887
:104930004FF47A7100254068B0FBF1F0401EB0F1F1
:10494000807F09D24FF0E02148611D4AF02082F8B3
:10495000140D8D61072008613220FFF711FEFFF76B
:10496000CBFCFFF745FF174E174C4FF4FA7700BF0B
:10497000FFF714FE61688842FAD0FFF70FFE60600F
:1049800001213046FFF747FD08B1A560F0E7A068B8
:10499000401CA060B842EBD3BFF34F8F0648001D08
:1049A00001680A4A01F4E06111430160BFF34F8FCF
:1049B000FEE700000040000808ED00E0380000209D
:1049C0000FE000E000000240000000200400FA05B3
:1049D0004FF04070E1EE100A70470000FC490008FB
:1049E0000000002038000000D4410008344A0008CC
:1049F0003800002070060000F041000800000000B0
:104A000000000000000000000000000000000000A6
:104A100000BD0105000000000000000001020304C9
:104A20000607080900000000010203040102030454
:044A30000607080964
:040000050800419915
:00000001FF
