:020000040800F2
:10000000F87F012089CC0408C3400408B1400408EB
:10001000C5400408D5400408E5400408000000007D
:10002000000000000000000000000000F54004088F
:10003000F7400408000000003D51040899510408ED
:1000400075CB0408E5410408F1410408F9410408AE
:100050002DBD040875CB0408794104087F410408CC
:10006000854104088B410408914104086D7304081C
:100070007D7304088D7304089D730408AD73040830
:10008000BD730408CD73040875CB0408000000009C
:10009000000000000000000000000000974104087C
:1000A0000D42040813420408254204082B420408A8
:1000B00031420408374204083D4204086F420408F4
:1000C000754204087B4204088142040875CB040889
:1000D00075CB04085D420408634204080000000078
:1000E000BB410408EB41040805410408000000007E
:1000F000000000000000000000000000DD730408A4
:100100000000000075CB04084542040875CB0408C4
:1001100000000000000000000000000000000000DF
:10012000ED730408FD7304080D7404081D740408BD
:100130002D74040800000000000000000000000012
:10014000000000000000000000000000F94004086A
:100150003D7404084D7404085D7404086942040881
:10016000874204088D4204080000000000000000DF
:10017000000000000000000000000000000000007F
:100180000000000075CB0408000000000000000023
:1001900075CB040842884378007843EA022340EA9A
:1001A000032070470B0A017043700B0C090E83701B
:1001B000C1707047036A0239023B8B4283BFC38917
:1001C000406B01FB03000020704700F10B0100228F
:1001D000D30143EA520310F8012B52FA83F3884209
:1001E000DAB2F5D11046704737B50D46044620B94E
:1001F000092000232B6003B030BD0368002BF7D02B
:100200005A79002AF4D081885A899142F0D118682D
:100210000DF10702062102F0F3FA9DF8073003F012
:100220000103034313F0FF00E2D12368E2E738B58E
:100230000568044615F8010B20B140F2B51153F0E2
:1002400039FB08B1256038BD4FF0FF30FBE7CA7EAF
:100250008B7E032843EA022301BF487D0A7D42EAE0
:10026000002243EA024318467047C2F307238A7606
:10027000CB760378032B01BF120C0A75120A4A755C
:10028000704737B5C37904461BB90025284603B02B
:1002900030BD00F13C01826B00680191012302F046
:1002A0009AFA054680B9E36AE071A06B626AC31AE4
:1002B0009342EAD2A3790199022BE6D102440123A9
:1002C000206802F088FAE1E70125DFE738B5836BA3
:1002D0008B4205460C4610D0FFF7D3FF60B922468B
:1002E0002868012305F13C0102F066FA00281CBFD2
:1002F0004FF0FF340120AC6338BD0020FCE7000064
:1003000038B50023C3714FF0FF3383630546FFF711
:10031000DDFF044618BB95F83B2295F83A3243EAD4
:1003200002234AF6552293421BD195F83C30EB2B21
:1003300003D01833DBB2012B15D80C49032205F189
:1003400072003FF043FA40B10949052205F18E00E1
:100350003FF03CFA002818BF0224204638BD042490
:10036000FBE70324F9E70224F7E700BF80A10608B2
:1003700084A106082DE9F047437986B0044601F0D0
:10038000FE0593B10DF107020068062102F038FA6C
:100390009DF80730DA0708D41DB113F0040500D02A
:1003A0000A25284606B0BDE8F0870023637120685F
:1003B0000DF10702052102F023FA9DF8073013F032
:1003C000010840F014810DB15B07E9D400212046FB
:1003D000FFF796FF022803D0012823D8277987B397
:1003E00002AD04F2022104F242272E4611F8040C59
:1003F00010B10846FFF7CEFE10318F4245F8040BCE
:10040000F4D1257905B1013D56F825707FB1394603
:100410002046FFF775FF23795BB9012811D9013513
:10042000032DF1D9042808D14FF0010807E003207B
:10043000F1E70428F8D0012803D94FF00D0845460C
:10044000AFE794F8482094F8473043EA0223B3F525
:10045000007FF2D194F8530094F8526056EA0026D7
:1004600004D104F16000FFF795FE064694F84C5065
:1004700066626B1E012BA571DFD894F84990A4F831
:100480000E904B46002BD8D009F1FF3313EA090F29
:10049000D3D194F84E3094F84DA04AEA032A1AF0CA
:1004A0000F0F0FFA8AF1A4F80CA0C6D194F85030BF
:1004B00094F84F0050EA032003D104F15C00FFF7E9
:1004C00069FE94F84BE094F84A3053EA0E2EB4D00B
:1004D00006FB05FC0EEB1A1262448242ADD8801A6C
:1004E0004845B0FBF9F5A8D3464B9D42A5D84FF639
:1004F000F5739D427DD94FF0030902350EEB0703DA
:100500003A44B9F1030F2562A762E36262635CD1EA
:1005100094F8672094F8663043EA02230B431BB239
:10052000002B8AD104F16800FFF734FEAD00206390
:1005300005F2FF15B6EB552FFFF47FAF4FF0FF33F9
:10054000C4E90533B9F1030F4FF0800323722FD1B3
:1005500094F86D2094F86C3043EA0223012B27D1E4
:10056000791C2046FFF7B2FE10BB94F83B2294F8AA
:100570003A32207243EA02234AF65522934217D1B7
:1005800004F13C00FFF706FE1F4B984210D104F522
:100590000870FFF7FFFD1D4B984209D104F5097063
:1005A000FFF7F8FDA06104F50A70FFF7F3FD606145
:1005B000174A84F80590138801339BB21380638136
:1005C000144B23610023E36139E7BAF1000F3FF4D4
:1005D00034AF6344B9F1020F23634FEA45031BBFF5
:1005E0005B1905F001051D4605EB5305A0E7032542
:1005F000D7E640F6F5794D458CBF4FF002094FF034
:1006000001097AE7F5FFFF0F5252614172724161B1
:100610007C5A00207E5A002001292DE9F047064629
:100620000C46174673D9036A8B4270D94379022B63
:100630003FD0032B50D0012B69D101EB5108C16A87
:1006400001EB5821FFF742FE054638BB06F13C0995
:1006500008F1010AC8F3080814F001041FBF19F8D3
:10066000083003F00F023B0103F0F00314BF134303
:10067000FBB209F80830F16A0123F37101EB5A214A
:100680003046FFF723FE054640B9CAF3080A44B1D5
:10069000C7F3071709F80A700123F3712846BDE86C
:1006A000F08719F80A30C7F3032723F00F031F431D
:1006B000F0E7C16A01EB1421FFF708FE05460028A8
:1006C000ECD1640006F13C0304F4FF7418191F55C3
:1006D000C7F307274770DFE7C16A01EBD411FFF7C3
:1006E000F5FD05460028D9D1A40006F13C0304F429
:1006F000FE741C442046FFF74DFD27F0704700F0C4
:10070000704047EA00012046FFF74CFDC4E7022590
:10071000C4E70129F8B505460C4652D9036A994247
:100720004FD24379022B29D0032B38D0012B48D14B
:1007300001EB5106C16A01EB5621FFF7C7FD10B16D
:100740004FF0FF30F8BD771CE96AC6F308062E4467
:1007500001EB5721284696F83C60FFF7B7FD0028CB
:10076000EED1C7F308073D44E30795F83C0046EA9D
:1007700000204CBF0009C0F30B00E3E7C16A01EBA6
:100780001421FFF7A3FD0028DAD164003C3504F4FE
:10079000FF742B19285D5B7840EA0320D2E7C16A19
:1007A00001EBD411FFF792FD0028C9D1A40005F197
:1007B0003C0004F4FE742044FFF7ECFC20F0704091
:1007C000C0E70120BEE7B1F5001FF8B506460C46AC
:1007D00001D30220F8BDCA06FBD182680568016119
:1007E000CAB96B79022B01D92B6B9BB9AB89B3EBDF
:1007F000541FEED92B6BB361B3697261002BE8D043
:1008000003EB54233C35C4F308042C44B361F46176
:100810000020DFE71A46EF897F02BC42114604D26E
:100820002846FFF7C7FCB061E6E73068FFF771FFC5
:10083000431C024606D00128CBD92B6A8342C8D973
:10084000E41BEAE70120C5E72DE9F0410568804691
:100850000F4649B96E69C6B12B6AB34298BF0126EB
:10086000AB69A3B9002406E02846FFF752FF012830
:10087000044603D801242046BDE8F081421C51D033
:100880002B6A8342F7D83E46EAE70126E8E7BE42F4
:1008900015D12B6AD8F80000741CA34298BF02241B
:1008A0002146FFF736FF0128E4D0431C3AD0D8B1E7
:1008B0006B69012B03D92A6A934238BF1E4634461E
:1008C0002B6A0134A34202D8012ECBD90224D8F8D6
:1008D00000002146FFF71DFF40B10128CAD00130BA
:1008E00020D0B442ECD1BDE7002CE8D04FF0FF326D
:1008F00021462846FFF790FE90B957B92A6AAB699E
:100900006C61023A934210D92B7A43F001032B72A7
:10091000B1E7224639462846FFF77EFE0028EDD093
:100920000128A7D14FF0FF34A5E7013BAB61EBE70E
:1009300073B50C46012C0568064611462CD92B6A66
:10094000A34229D92AB14FF0FF322846FFF764FEAF
:1009500040B9214630680194FFF7DBFE0199044657
:1009600010B9002002B070BD012815D0431C15D06D
:1009700000222846FFF750FE0028F3D12A6AAB690F
:10098000911E8B4205D20133AB612B7A43F00103F8
:100990002B72A242DDD8E4E70220E3E70120E1E781
:1009A000F7B505460191FFF76CFC044600BB0199C1
:1009B0002846FFF7FFFB05F13C070646A8634FF406
:1009C0000072214638463EF0EBFEEB899C4205D38F
:1009D000E889001B18BF012003B0F0BD286801237F
:1009E0003219394601F0F7FE0028F1D10134ECE765
:1009F0000120F1E72DE9F843076906682037B7F5CC
:100A0000001F24BF0023836183690446894673B1B4
:100A1000C7F30808B8F1000F39D141690133836188
:100A200039B9B389B3EB571F31D80023A361042030
:100A30000BE0F389013B13EA572328D13046FFF737
:100A400068FE0128054602D80220BDE8F883421C52
:100A500001D10120F9E7336A834212D8B9F1000FBE
:100A6000E3D061692046FFF7EFFE0546A8B10128F3
:100A7000EAD0431CEDD001463046FFF791FF002835
:100A8000E7D1656129463046FFF794FBA0613C360B
:100A900046442761E6610020D7E70720D5E7F8B58F
:100AA0000E46002107680446FFF78DFEA8B90546EB
:100AB000A1693846FFF70AFC78B9E3691B78E52B92
:100AC00000D01BB90135B54201D1F8BD0546012161
:100AD0002046FFF78FFF0028EAD0042808BF072030
:100AE000F3E700002DE9F84FFF27D0F80090064605
:100AF00088463D4604244FF6FF7AB16911B9002CAF
:100B000073D063E04846FFF7E1FB044600285DD15F
:100B1000F0690378002B70D0C27AE52B02F03F0217
:100B2000B27158D02E2B56D022F02001A1F1080C22
:100B3000DCF1000141EB0C0141454CD10F2A4FD1B2
:100B40005C0646D53269477BF26203F0BF03427B05
:100B5000BA4240D1C17E827E42EA012211B2002A0D
:100B600039D10278D9F81050DFF894E022F0400231
:100B7000013A0D2462434FF0010C1EF8014B00EBCB
:100B8000040B045D9BF801B044EA0B24BCF1000F98
:100B900023D0FF2A1FD825F81240A4460132013184
:100BA0000D29EAD10178490607D5BCF1000F04D020
:100BB000FF2A10D8002125F812105D1EEDB2002189
:100BC0003046FFF717FF0446002896D00023B36194
:100BD0000CE09D42BBD0FF25F1E75445DFD0FAE79A
:100BE0003DB9FFF7F2FAB84203D100242046BDE830
:100BF000F88F4FF0FF33F362F8E70424E6E700BF15
:100C00004EA20608C16A4B1C2DE9F0410568066931
:100C1000044618D1E5274FF00108A1692846FFF7DF
:100C200055FB60B9E3691F7085F807802369B342FB
:100C30000DD201462046FFF7DDFE0028EDD0042846
:100C400008BF022003E0FFF7BEFD0028E2D0BDE8A8
:100C5000F08100002DE9F04F002185B0D0F800A010
:100C60000446FFF7B0FD0746002840F092804FF0A1
:100C7000FF334FF0FF09E362C8460093A169504675
:100C8000FFF724FB0746002840F08380E5692E78B3
:100C9000002E00F08280EA7AE52E02F03F03A37175
:100CA00003D0100704D50F2B04D0009BE36253E060
:100CB0000F2B59D194F82B30590643D4720649D5DD
:100CC000236995F80D90E36206F0BF066B7B4B45F8
:100CD00042D1EA7EAB7E53EA02233DD12F78DAF887
:100CE00010B007F03F077B1E0D275F432C4B0122FE
:100CF00013F8011B681815F80180407848EA0028AD
:100D00006AB3FF2F039327D8404652F0E7FD791CC2
:100D100002903BF81700019152F0E0FD029A8242E6
:100D20001AD10199039B42460F461E499942DFD1D1
:100D30002B785B0603D512B13BF8173063B9013E3F
:100D40005FFA86F800212046FFF754FE0746002888
:100D500094D01EE0B045B9D04FF0FF08F2E74FF64F
:100D6000FF718845E1D0F7E7B8F1000F04D12846BC
:100D7000FFF72BFA48450CD094F82B7017F00107B9
:100D800093D10B2204F1200128463EF01FFD0028DC
:100D90008BD1384605B0BDE8F08F0427F9E700BFD6
:100DA0004EA206085BA206082DE9F04F90F82BB082
:100DB0001BF0A00489B0054640F0E38007683A695B
:100DC00032F81430002B6CD105F1200696E80700AC
:100DD0000DF1140A1BF0010F8AE8070000F0D8801B
:100DE000402385F82B304FF001089AE80700B446FD
:100DF0003B69ACE803002CF8022BB8F1050F4FEA71
:100E000012428CF8002060D9981E424630F8021F2A
:100E1000002948D10DF1130C072102F00F0E0EF13D
:100E20003000392888BF0EF137000F2A0CF801096D
:100E300001F1FF314FEA121049D808AB5A187E2051
:100E400002F8140C05F11F0084460022914206D0DE
:100E50001CF801EFBEF1200F02F1010939D1072979
:100E60009CBF08AB03EB010C02F1010296BF1CF81A
:100E700014CC4FF0200C0131072A00F802C0EED943
:100E80002846FFF7E7FE814600287DD108F10108DA
:100E9000B8F1640FA9D14FF00709484609B0BDE881
:100EA000F08F01348CE74FF0100C01F0010E0EEBC7
:100EB0004202D30344BF82F4883282F02102BCF1A3
:100EC000010C4FEA5101F0D1A0E74246A2E70246E9
:100ED000A3E74A46BAE729692846A1EB4411FFF780
:100EE00072FC81460028D8D13046FFF76EF94FF6E4
:100EF000FF780190A9693846FFF7E8F98146002894
:100F0000CBD1EB69019AD7F810E05A73E1B24FF0F8
:100F10000F024FF00D0CDA72DFF8D8A018734A1EDA
:100F20000CFB02F29876D87684461AF8019B40456D
:100F300018BF3EF8120003F8090003EB090B0CF18F
:100F4000010C18BF01324FEA1029002808BF4046A3
:100F5000BCF10D0F8BF80190E7D1404502D03EF86F
:100F600012200AB941F0400119700123FB710021E0
:100F70002846FFF73FFD814600288ED1013CB9D1BC
:100F80001AE04FF0060988E7042886D185F82BB0CF
:100F90001BF0020F1BBF0C340D210124B4FBF1F434
:100FA00018BF013421462846FFF779FD8146002805
:100FB0007FF473AF013C8ED1A9693846FFF786F9FB
:100FC000814600287FF469AF01462022E8693EF09F
:100FD000E7FB03CEEB6918605960B278318819815C
:100FE0009A7295F82B30EA6903F018031373012302
:100FF000FB7152E74EA20608F8B50446FFF741F927
:101000000546002842D16379032B37D1277A012F77
:1010100034D104F13C0601464FF4007230463EF0F4
:10102000BFFB552384F83A32AA2384F83B3252237B
:101030004122722184F83C3084F83D30612384F8E9
:101040003E3084F83F2084F8222284F8233284F84A
:10105000201284F8211204F50970A169FFF7A2F8A3
:10106000616904F50A70FFF79DF8A26A20680132F1
:10107000A2633B46314601F0AEFB25720022206898
:10108000114601F0BDFB003818BF0120F8BD2DE965
:10109000F0470026D0F800A08E75836907460C46FD
:1010A000002B00F09380C36A01336ED1F9690023ED
:1010B0004D1E18462E2615F8012F202A00F101009A
:1010C0000CD0052A08BFE522092804D10B2B9EBFAE
:1010D000E71801337E72E71801337A720B28EAD1E0
:1010E000E21800205072A27D002A5ED1002B53D05E
:1010F0006FF0080604F109020825361BB31812F830
:10110000010B00284BD02E2883B261D0A3F14100FF
:10111000192803D8087B054200D020331373EDE76C
:10112000B9F1000F05D100F520539BB2B3F5006F64
:1011300013D340F2B51140EA094052F09BFBFF285F
:10114000C8F1FF0519D9012D22D904EB0803020AC1
:101150009A75D87502239844002002368146DAF841
:101160001030985B0028DBD14546B9F1000F18BF5D
:10117000002525440023AB7598E758B1002DF4D025
:1011800004EB080398750123E5E7B146B046E6E7AE
:101190000025EAE70546E8E73F23A375012323443A
:1011A00000229A750B7B03B96372CB7A237201F12B
:1011B0001C00FEF7EFFF2060CA7D8B7D43EA02230F
:1011C000E3804A7E0B7E43EA0223A380BDE8F087DA
:1011D0001025A3E72DE9F04F0B78D0F800B02F2BA6
:1011E00087B00646884601D05C2B0AD14246137868
:1011F0002F2B904602F10102F9D05C2BF7D000238F
:1012000001E0DBF81C30B36098F800301F2B00F2CF
:101210002A81802386F82B3000213046FFF7D3FA4D
:1012200007B0BDE8F08FFE2D00F246812AF8153098
:1012300001351EE108F101010591DDF8148098F8EF
:1012400000202F2AF6D05C2AF4D0202B34BF0424AF
:101250000024012D2CD1BAF800302E2B2ED10023E2
:101260002AF8153006F120029D428CBF2E21202144
:1012700001330B2B02F8011BF6D144F0200486F851
:101280002B403046FFF7E6FC96F82B30002800F0A4
:10129000D9800428C4D1990603F0040240F1CE801D
:1012A000002A00F0E080802386F82B300020B7E78A
:1012B000022D03D1BAF802302E2BCCD0AAF10202B3
:1012C0008DBB00232AF81530002D00F0F5803AF888
:1012D0001320202A194603F10103F8D009B92E2A58
:1012E00001D144F00304AAF1020232F815302E2B8A
:1012F00001D0013DF9D14FF020334FF00009736266
:101300003362C6F827304F4608233AF811004A1CCA
:10131000E8B1202803D02E280DD195420FD044F0FB
:1013200003041146F1E732F81530202B01D02E2BA3
:10133000C7D1013DC4E7994504D2954233D10B2B67
:101340002AD101E00B2B22D144F003040B2396F8A1
:101350002020E52A04BF052286F82020082B04BFA0
:10136000BF00FFB207F00C030C2B03D007F0030300
:10137000032B01D144F00204A30780D4FD0748BF2A
:1013800044F01004780748BF44F0080477E795421A
:1013900002D044F00304DAD3BF00FFB22A460B2385
:1013A0004FF00809BDE77F2813D9CDE9022340F2A9
:1013B000B51144F00203019352F05CFA10F0800F73
:1013C000DDE9022310D03E4900F07F00085C019C5B
:1013D00030B1DFF8F4C01CF8011BE9B18142FAD149
:1013E00044F003045F2010E0FF28F0D9591E89451E
:1013F00003D344F00304994693E706EB0901040A7A
:1014000081F82040019C09F1010906EB090109F16D
:10141000010981F8200084E7A0F1410189B219296E
:1014200002D847F00207F0E7A0F1610189B219295B
:101430009EBF203847F0010780B2E6E7002A08BFC8
:101440000520EDE65A073FF5EBAEB379DB0635D55F
:1014500033699BF80500C3F308030BF13C01194401
:10146000FEF7F5FEB0603368CDF81480D3F810A015
:10147000002505A8FEF7DBFE421C1DD0B0F5803F1D
:1014800024BF030C2AF8153083B228BF01351F2B67
:101490007FF6D3AE2F2B3FF4D0AE5C2B3FF4CDAE16
:1014A0007F2B3FF6C0AE0749184611F8012B002AE2
:1014B0003FF4B9AE8242F8D10620B1E60520AFE68E
:1014C000CEA106088AA1060893A106080021417151
:1014D000FEF750BF2DE9F04305468DB090461E46FD
:1014E0000C46002900F0BC8003F03F073946FEF7A8
:1014F00041FF002840F0AC80414668460095FFF768
:1015000069FE024620B99DF92B30002BB8BF062298
:1015100016F01C0F6BD0002A3CD0042A37D1684645
:10152000FFF742FC024690BB47F00807DDF81C902D
:10153000A846494618F8050FFEF789FE06464AF008
:10154000B3FD014609F10E00FEF72CFE079B202299
:10155000DA72079900224046FEF787FE079B0022B9
:101560001A775A779A77DA770123EB71DEB1314631
:101570006846D5F83880FFF7DBF9024638B94146AE
:101580002846FEF7A3FE013E6E61024658B10023D5
:10159000236028E09DF8063013F0110F31D1700759
:1015A00058D43107C2D4AB6B079E23626662687958
:1015B0003907314648BF47F04007FEF748FE01466D
:1015C000A06006F11C00FEF7E5FD6B89A380BA065A
:1015D0004FF000030646E060256027746374E36102
:1015E000636110D4002210460DB0BDE8F083002ADC
:1015F000CDD19DF80630DA062ED4B607D3D5D8075C
:10160000D1D50722C3E70028ECD0EF8960617F02C3
:10161000B7420FD30022A161002AB8D1C6F3080354
:10162000002BDFD02846FEF7C5FDB8B100EB5620F1
:10163000E061D8E72068FFF76CF801280146A6EBC7
:10164000070603D9431CE3D10122E4E70222E2E7C3
:1016500002469CE708229AE7042298E7022296E7CE
:101660000922C0E72DE9F04F994685B0002388464E
:10167000C9F8003003A904461746FEF7B5FD064633
:10168000F8B9667CEEB994F810A01AF00103009343
:101690007CD0E2686369D21A974228BF174687B1A7
:1016A0006269C2F30803002B57D1039BDB89013B1E
:1016B00013EA522A15D142B9A06801280AD8022695
:1016C0006674304605B0BDE8F08FA1692068FFF769
:1016D00020F8F2E7431C03D10123009E6374F0E776
:1016E000A061DDF80CB0A1695846FEF763FD002843
:1016F000E5D0B7F5007F0AEB00022DD3BBF80E1042
:1017000001920AEB572088424FEA572588BFA1EB88
:101710000A05DBF800002B46414601F04DF8002891
:10172000DAD10399CB795BB1886B019A801AA84210
:1017300006D24FF400723C3108EB40203DF0EAFF46
:101740006D02D9F800302B44C9F8003063692B448E
:101750007F1BA8446361A2E7E2616569E1690398C0
:10176000C5F30805C5F50075BD4228BF3D46FEF727
:10177000ADFD0028B0D1039963693C31C3F3080380
:101780002A46194440463DF0C5FFDAE7072698E7A8
:101790002DE9F04F9A4685B000238946CAF80030FB
:1017A00003A904461746FEF71FFD064620BB667CCC
:1017B00016BB237C9A0740F1A9806369FB4200D3E2
:1017C000DF43AFB16369C3F30802002A40F08180B0
:1017D000039AB2F80E8008F1FF3818EA53281ED198
:1017E00073B9A06870B901462046FFF72DF848B9D3
:1017F000237C43F040032374304605B0BDE8F08FEE
:10180000A169F1E7012802D102266674F4E7431CBE
:1018100001D10126F9E7A368A06103B9A06003988C
:10182000E369826B9A4203D1FEF72BFD0028F0D1C9
:10183000039DA1692846FEF7BDFC0028E4D0B7F55A
:10184000007F08EB000B36D3E98908EB572088426C
:101850004FEA5723286888BFA1EB08035A46494638
:10186000019300F0B8FF05460028D2D1DDF80C80C6
:10187000019BD8F83810A1EB0B0199420AD24FF422
:10188000007209EB412108F13C003DF043FF019B50
:1018900088F807505D02DAF8003062692B44CAF814
:1018A00000307F1BE368A94415446561AB422CBF3F
:1018B000E360E56085E76169E368994207D32846FC
:1018C000FEF7DFFC0028A4D1039BC3F838B0C4F8AE
:1018D0001CB06569E1690398C5F30805C5F5007595
:1018E000BD4228BF3D46FEF7F1FC002891D1039888
:1018F00063693C30C3F308032A46184449463DF067
:1019000009FF039B4FF00102DA71C4E7072673E772
:10191000F7B501A90546FEF767FC044668BB2C7CB9
:1019200014F0400429D04AF0BFFB296A0746019809
:10193000FEF7CCFC044600BB6E6AF37A43F020034A
:10194000F3722868AA6831460530FEF78EFCE96814
:1019500006F11C00FEF726FC394606F11600FEF7DC
:1019600021FC0198B4740123F474C371FFF744FBA4
:101970002B7C23F0400304462B74204603B0F0BDBB
:1019800013B50446FFF7C4FF28B901A92046FEF7A6
:101990002BFC00B9206002B010BD70B50E468CB0B3
:1019A00000210546FEF7E6FC044660B9314668466C
:1019B0000095FFF70FFC044690B99DF92B30002BE2
:1019C00004DA029BEB6120460CB070BD9DF8063036
:1019D000DB0609D507996879FEF739FCE861F2E77B
:1019E000042808BF0524EEE70524ECE72DE9F047BD
:1019F0000E460021D2B0317081469046FEF7BAFC07
:101A00000546F8B9D9F81C30CDF800900293444649
:101A1000DDF808A0BAF1000F1AD1444502BF04F165
:101A2000FF342F233355A11B33461A5D03F8012BD6
:101A30005A189045F9D8A8EB04030134A04538BFE3
:101A400001231E4400232846337052B0BDE8F087BE
:101A500020216846FEF7B7FE00284BD1069948467C
:101A6000FEF734FC0746002842D1079999F8050093
:101A7000FEF7EDFB394602906846FEF7A4FE00280B
:101A800038D100216846FFF72DF80746B0BB07990B
:101A900099F80500FEF7DBFB50450AD03946684649
:101AA000FEF7A8FF0028ECD00546042D08BF02254C
:101AB000C8E70CA96846FFF7EAFA0DF1460212F8EA
:101AC000011B3B4601370029F9D1BC4214D331191F
:101AD0001A4632B9621ED21ADB431C442F23B35478
:101AE00096E7013A0CA81044807D01F8010DF0E75B
:101AF0000546A7E70546A5E71125A3E70546D4E770
:101B00002DE9F3410D4601A90446FEF76DFB06469B
:101B1000002850D1667C002E4DD1E368AB4204D240
:101B2000227C12F0020F08BF1D4600226369626129
:101B30009DB90020E2686369934282BF227CE36022
:101B400042F04002C3F3080388BF2274002B32D056
:101B5000E369834218BFE0612DE0019AD7897F02D3
:101B6000FBB1013B6A1EB3FBF7F1B2FBF7F28A420D
:101B700017D37A421340A1696361ED1A0029D8D0C6
:101B8000BD42636922D863692B446361C5F30803CE
:101B9000002BCED00198FEF70DFB50B100EB552085
:101BA000C8E7A16881B92046FEF74EFE012801462C
:101BB00005D102266674304602B0BDE8F081481CAB
:101BC00001D10126F6E7A160A161D7E73B4463613B
:101BD000237C9A07A5EB070806D52046FEF734FEBE
:101BE000054628B90146CEE72068FEF792FD054676
:101BF0006B1CE6D0012DDCD9019B1B6AAB42D8D906
:101C0000A56129464546BBE770B5054616460C4614
:101C100021B30021FEF7AEFB68B9256031462046AE
:101C2000FFF7D8FAE0B994F92B30002B0BDBA3793E
:101C3000DB0603D40520002323600EE06879E16908
:101C4000FEF705FBA0606B89A38000212046FEF70C
:101C5000BAFD0428EED00028EDD170BD0920FCE7C4
:101C60000428E7D0E7E713B501A90446FEF7BCFA5C
:101C700000B9206002B010BD73B50D4601A904463D
:101C8000FEF7B2FA20B9014620461DB9FEF79BFDCA
:101C900002B070BDFEF726FF10F0FB06F8D1294612
:101CA0002046FFF7F4F931462046FEF7A3FE04284C
:101CB00008BF0020ECE770B50E468CB0002104464A
:101CC0001546FEF757FB0094044670B93146684646
:101CD000FFF780FA044640B99DF92B30002B07DB53
:101CE0001DB129466846FFF7D2F920460CB070BDF9
:101CF0000624FAE72DE9F84F884600210446FEF74E
:101D000039FB054640B9D4F820A0A369AAF1020224
:101D1000934204D8C8F800302846BDE8F88F6379AC
:101D2000012B17D10227064639462046FEF7F1FC63
:101D3000431C37D0012837D000B90136236A013758
:101D4000BB42F1D8C8F80060237AA66143F00103D2
:101D50002372E1E7E16A0746064604F13C0937B918
:101D6000204601F1010BFEF7B1FAF8B95946637943
:101D7000022B09EB07000DD119F80730427853EA1E
:101D8000022308BF01360237BAF1010AC7F3080778
:101D9000E5D1D7E7FEF7FEF930F0704308BF013612
:101DA0000437F1E70125CDE70225CBE70546C9E772
:101DB000F0B50E4699B002210546FEF7DBFA04465F
:101DC00088B9314668460095FFF704FA044650B9D1
:101DD0009DF82B3098063BD4190639D49DF806702F
:101DE000FA0703D50724204619B0F0BD0799687992
:101DF000FEF72DFAFB0606460BD46846FEF702FFF7
:101E000004460028EFD1D6B92846FFF7F5F8044676
:101E1000E9E7EB698342E5D00E9021460CA80C95CA
:101E2000FEF7D1FC04460028DDD101460CA8FEF7E0
:101E300059FE04460028D5D00428D4D1DDE7024657
:101E400031466846FEF774FD04460028CBD1DBE737
:101E50000624C8E72DE9F0430E4691B0022105465D
:101E6000FEF788FA044600286CD1314604A8049590
:101E7000FFF7B0F90446002872D0042862D19DF81B
:101E80003B1011F020016DD168460095FEF7DCFC97
:101E9000064600285AD001285AD0431C5C425C41B7
:101EA0004AF002F90746002C54D131462846FEF785
:101EB00077FD044600284DD14FF02033EB632B64AF
:101EC000C5F843302E2385F83C30102385F8473081
:101ED000394605F1520005F13C0405F10508FEF70D
:101EE00061F9324621464046FEF7BFF905F15C0331
:101EF0001A4651F8040B42F8040B9942F9D12E23EB
:101F0000069A85F85D3040464FF00109FEF7ADF9BD
:101F100085F8079004A8FEF747FF0446D0B90B9850
:101F200039461630FEF73EF90B9932464046FEF729
:101F30009CF90B9B1022DA72284685F80790FFF770
:101F40005BF80446204611B0BDE8F0830724A7E7FC
:101F50000224A5E7002231466846FEF7E9FCF1E7D6
:101F60000824EFE70624EDE7F0B50D46A1B0022105
:101F700004461746FEF7FEF9002877D1294608A83F
:101F80000894FFF727F9002870D19DF84B3013F023
:101F9000A00F6DD10F9B6D4603F12006186859689C
:101FA0002A4603C20833B3421546F7D108AE0FCE16
:101FB00014AD0FC50FCE0FC596E80F0085E80F00D2
:101FC000394614A8FFF706F948B9169A0A9B9A42AF
:101FD00003D1189A0C9B9A4203D0082046E00428AB
:101FE00044D114A8FEF7E0FE00283FD11B990DF163
:101FF0000D0301F10D020DF11D0053F8045B42F8D1
:10200000045B8342F9D1188810809B7893709DF807
:102010000B30DA0658BF43F020030125CB72E5717F
:10202000CB7ADB061BD50A9A169B9A4217D06079A9
:10203000FEF70DF901462046FEF7BCF80146C8B18F
:102040002046FEF743F988B994F85D302E2B06D16F
:10205000169A04F15C01601DFEF707F9E57108A806
:10206000FEF7D0FD10B92046FEF7C6FF21B0F0BD47
:102070000620FBE70220F9E7F0B595B0064601918E
:102080000221FEF777F90446002833D102AF4FF062
:102090002033029305467B60C7F80730019B1B780D
:1020A0001F2B20D89DF80830E52B22D01DB16B1EC8
:1020B000FA5C202A35D0002108A808960A91FEF77C
:1020C00082FB0446B0B9012108A8FEF70BFD98BBBE
:1020D0000F9A45B33B4603CB1060516019889B783B
:1020E0009372118121E001A8FEF7A1F8B0F5803FBD
:1020F00003D30624204615B0F0BD51F0EFFB40F2AB
:10210000B51151F0B7FB0028F3D01D4A12F8013B7E
:1021100013B19842FAD1ECE7FF2822D80A2D28D92A
:10212000E7E71D46C2E7E52313700123F37130464C
:10213000FEF762FF0446DDE70428FBD1002DD9D06D
:10214000012108A8FEF7ABFC04460028D2D12022CA
:1021500001460F983DF024FB0F9B0822DA720F9A7C
:10216000B8E7092DC5D814AB2B44020A03F8482C54
:10217000013514AB2B44013503F8480C8EE700BF42
:102180005BA206082DE9F04FD0F800808BB01C460A
:1021900000234371029103790193154605210DF146
:1021A0001F02404600F02CFB9DF81F30DA0700F1BB
:1021B00089825E0700F1888208AA0321404600F068
:1021C0001FFB30B9089A531EB3F5004F01D21A42D3
:1021D00001D0012308935DB15C4BA5F500729A42D2
:1021E00003D913200BB0BDE8F08F6B1E2B42F8D142
:1021F000002C00F06B82149BB3F5007FC0F0668268
:10220000019B002B66D0012300222146404600F0AE
:10221000D3FA08B10120E5E794F8FF2194F8FE31E4
:1022200043EA02234AF65522934201D00E20D9E711
:10223000019B04EB031303F5D77193F8B231002B24
:10224000F4D001F10800FDF7A5FF074601F10C00ED
:10225000FDF7A0FF0990DDF824A0BAF1150FE5D92C
:10226000B5F5813FBDD2029B13F0020305934FEAFF
:102270005522029B41D003F00703022B00F0348269
:10228000029BD80740F13082002A3FD130484FEA04
:102290001A35012630F8023B0BB1AB4234D940F677
:1022A000F573BAFBF6F59D429BBF05EB450501357D
:1022B00002356D088CBF6D0003354FF0200305F229
:1022C000FF1504938CBF4FF002094FF001096D0A0E
:1022D00001232CE209AA0121404600F091FA0028CE
:1022E00098D1029B13F0080F099B14BF00273F27CA
:1022F000BB429BD3DB1B0993ADE7D907C4D470E77E
:102300005200F8E11346FDE17600C3E71646C6E742
:10231000B9F1020F1ED103994FF6F570814208D929
:10232000002A40F0DD817600402E00F238823246ED
:10233000AAE7039940F6F570814213D8002A7FF48A
:1023400075AF7200802A9FD970E700BF00FEFF00C2
:102350006EA20608039940F6F57291423FF666AF09
:102360004FF001094FF400720021204605933DF023
:1023700017FAD74A059B1168216051686160A37301
:102380001189927A2181C3F30723B9F1030F4FF02A
:102390000201A272E3734FF000024FF001032374B5
:1023A00014BF0B461346BAF5803FE2722173667381
:1023B0006274A37480F01D8184F813A0CAF3072A05
:1023C00084F814A0F82363753F2323764FF0000AA6
:1023D000FF2384F819A0A37684F81BA0394604F1E2
:1023E0001C00FDF7DFFEB9F1030F40F0088149F052
:1023F0005BFE014604F14300FDF7D4FE294604F1DB
:102400002400FDF7CFFE022384F82C30012384F84A
:102410003030062384F83230802384F8403029237A
:1024200084F84230AB4B84F82DA084F82EA084F8B9
:102430002FA084F831A084F833A004F1470203F1FF
:10244000100153F8040B42F8040B8B42F9D11988A0
:102450009B7893704FF05503118084F8FE316FF034
:10246000550384F8FF313A4601232146404600F0E7
:10247000B2F9824600287FF4CDAEB9F1030F3ED108
:102480000123BA1D2146404600F0A5F94FF4007221
:10249000514620463DF084F9522323706370612336
:1024A000A37084F8E731039B41227221E27084F823
:1024B000E41184F8E51184F8E621591E04F5F4705E
:1024C000FDF770FE022384F8EC314FF0550384F8D9
:1024D000FE316FF0550384F8FF31FA1D01232146C8
:1024E00084F8EDA184F8EEA184F8EFA1404600F055
:1024F00072F90123FA182146404600F06CF9149B4A
:1025000023F4FF7222F00102002120463DF048F939
:10251000B9F1030F40F09080F8232370FF2363701C
:10252000A370E37023716371A371E371237263720B
:10253000A3720F23E372149B5B0A0393039BAB42CA
:1025400028BF2B4621465A4640469A4600F043F99A
:10255000014600287FF45EAE4FF4007220463DF045
:102560001FF9B5EB0A05D344E8D1049BB9F1030F79
:1025700018BF1E46039BB34228BF33465A46214626
:1025800040461D4600F027F900287FF443AE761B35
:10259000AB44EFD1B9F1030F58D0099BB3F5803F9D
:1025A00056D2B9F1020F0CBF04250125019B002B67
:1025B00050D0002201232146404600F0FDF802469B
:1025C00000287FF427AE019B04EB031383F8B2517C
:1025D00001232146404600F0FEF800287FF41AAEA1
:1025E00000221146404600F00BF9003818BF0120C8
:1025F000F8E5514604F12000FDF7D4FDE2E649F08C
:1026000053FD014604F12700FDF7CCFDC5F3072378
:10261000E375802384F82430292384F826302E4B58
:10262000A57504F12B0203F1100153F8040B42F8D5
:10263000040B8B42F9D10AE7B9F1010F2749204673
:1026400018BF6FF00701FDF7ADFD74E70C25ADE78E
:102650000625ABE7029B1B07C2D401994FF4007219
:1026600020463DF09DF85523099A84F8FE31AA23AF
:1026700084F8FF31019B84F8BE3184F8C1313A44BB
:1026800043F6C163B2FBF3F2FE2384F8C33193082F
:1026900043F03F03012684F8C43184F8C52139464C
:1026A00004F5E37084F8BF6184F8C06184F8C25116
:1026B000FDF778FD099904F5E570FDF773FD019AC2
:1026C000334686E703208DE50A208BE5112089E556
:1026D0009AA10608A6A10608BAA10608F8FFFF00FD
:1026E000059B002B3FF4A2AD002A7FF40BAE3048CF
:1026F0004FEA5A45012230F8023B1BB1AB427FF64C
:10270000FFAD0023BAFBF2F02A4E8500A0F57F4012
:10271000F63805F20725B0424FEA55253FF686AD5B
:1027200016461A46002304934FF003092023049809
:10273000DDF820E007EB030B05EB000CDC440EF1A9
:10274000FF306044CEF1000E00EA0E00A0EB0C005A
:10275000B9F1030F06BF1B1883442D18C7EB0610F1
:102760008444E245FFF462AD0498AAEB0000C01A6D
:10277000B9F1030FA0EB0500B0FBF6F003907FF476
:10278000C7AD03994FF6F57081423FF6EBAD002AD5
:102790007FF44CAD012E7FF649AD7208A4E7059B8E
:1027A000002BA4D1802E3FF641AD324677E500BF25
:1027B0007CA20608FFFFFE0F10B50C4611461A4614
:1027C00038B1234604303CF07BFA003818BF0120B2
:1027D00010BD0420FCE710B50C4611461A4650B156
:1027E000234604303CF090FA10F11E0F05D000385B
:1027F00018BF012010BD0420FCE70220FAE700000A
:1028000070B50D4614460646002833D0244A01F020
:102810000703D15C00292FD0002204303CF09CFA41
:10282000062D27D8DFE805F008050A162619190035
:1028300006202AF06BFD2060002070BD062805D11F
:102840004FF4007323802388B360F5E72AF05EFD20
:102850002080F8E701232360EEE7062801D0430833
:1028600006D1336A002B0CBF042300232370E3E757
:102870000123FBE70420E0E7062DFBD801A353F872
:1028800025F000BF39280008312800084128000839
:1028900055280008752800086328000863280008E8
:1028A000C4F10508086833F0EEB8000037B51D46DE
:1028B000043001AB1446FEF76BFF38B1064B1B5CCE
:1028C0002B604FF0FF34204603B030BD019BA34284
:1028D000F9D01C23F4E700BF04F2050813B51C4629
:1028E000043001ABFEF7BEFE30B1044B1B5C23602D
:1028F0004FF0FF3002B010BD0198FBE704F205086D
:102900002DE9F843814650680E46904630F00CFCA5
:102910002E4A2F490138002410F8013FD3B92C204A
:102920001DF0CEFB0746054647F8046BD8F80000BB
:1029300030F0FAFBE3B20246394609F14400FEF7F3
:10294000C9FD0646C0B328461DF0D4FB214B985D57
:1029500029F0C2FE782BDFD8712B08D8612B24D048
:10296000622B25D02B2BD7D144F00304D4E7723B44
:10297000062BD1D801A555F823F000BF99290008EE
:1029800019290008B5290008192900081929000883
:102990009F290008A529000844F00104BCE744F081
:1029A0000A04B9E744F00604B6E744F01204B3E7BA
:1029B0000E46B1E71646AFE7E30603D52969384668
:1029C000FFF79EF82846BDE8F88300BF54F20508DB
:1029D00018F2050804F2050830B587B0044603ADC7
:1029E000084611461A46064B0093019503232AF028
:1029F0008BF92A4621460020FFF782FF07B030BD41
:102A0000ECF105081FB50623CDE901120349039334
:102A100001AAFFF775FF05B05DF804FB54F2050845
:102A200013B50446084601912AF0E4FB019B0449D2
:102A30000246204602B0BDE8104000F0AFBF00BF24
:102A4000CCF10508022970B5044615461E4613D17F
:102A50005368012B0AD0022B0CD01BB91168201D22
:102A6000FFF74EF8A3692B60002070BD81692B68C9
:102A70001944F4E70169FAE701290AD10430FEF7A5
:102A800047FF0028F0D0084B1B5C33604FF0FF304D
:102A9000EBE7042906D14368002BE5D00430FEF7AC
:102AA0006FFFEEE71623F0E704F205082DE9F74F74
:102AB00006299DF8305010D8012905D93F2300F888
:102AC000013B0023037001E00029FAD1012994BFE2
:102AD0000020012003B0BDE8F08F10EE104A002C5A
:102AE000044622DAB4EE400AF1EE10FA1DD62D2586
:102AF00004F8015BB1EE400A9FEDC27AF0EEC07AB5
:102B0000F4EE477AF1EE10FA02F0200E12DD8EF0AC
:102B1000490323708EF046058EF04E036370E11C6E
:102B2000A57000230B70081AD4E7002DE4D004F838
:102B3000015BE1E7B4EE400AF1EE10FA08D74EF07F
:102B40004E038EF0410523706570E11CA370E8E729
:102B5000002B42F02002B8BF0623672A02D1002BC7
:102B600008BF012310EE106A251A491B002E01F13F
:102B7000FF3547D1662A37D15E1CAE42A8BFCB1EB7
:102B800000275D1C6621BC463E46652923EAE378A2
:102B900040F0098108F10105002301934FF02E0B4D
:102BA000B2EE047A019B9D4200F30681662A40F052
:102BB0003381AE4240F3848197B10A2196FBF1F351
:102BC00001FB136693FBF1F201FB12324EF0450E4E
:102BD0003032303684F800E06770A270E67004345A
:102BE00000232370201A75E75E1DAE42A8BFCB1FDD
:102BF000652A11464FF0000540F0CF802B27AC46E8
:102C00002E46C2E7B6F17E5F6FD2DFED7F7ADFF846
:102C10000082DFF800A2B4EEE70AF1EE10FA4FF0FE
:102C20000007ACBF4FF031094FF030094FF0200CD6
:102C30003E46B8EC017AB4EEC07AF1EE10FAC4BFA9
:102C40000AEB070B9BED007A07F10407C4BF66444B
:102C500020EE070A182F4FEA6C0CEAD110EE107A1A
:102C6000B7F17E5F27D2B4EEE70AF1EE10FA1DDB72
:102C7000002E14BF2D272B27B7EE000A662A03D09B
:102C8000672A28D1042E26DC672A04BF06F1FF3705
:102C9000DB195F1CAF42A8BFCB1E84F8009063B95C
:102CA00001341D461F464FF0FF3C58E0F2EE047A17
:102CB00020EE270A01362D27E0E72E2161701D4600
:102CC00002343021013E6AD00DB92F46EBE704F8FB
:102CD000011B013DF6E78D1F9D4202DC672A60D093
:102CE000CB1F11460025AC464FE70027DFF82481B3
:102CF000DFF81C914FF0200C3E46F8EC017AF4EE20
:102D0000C07AF1EE10FA9CBF09EB070ADAED007AFF
:102D100007F104079CBF664420EE270A182F4FEAEC
:102D20006C0CEAD1FDEEC07A17EE907A092FC2BF83
:102D3000DFED367A013620EE270A662A11D1AE423F
:102D400017DA99190131A94205DBAD1B012DA5F157
:102D5000020308BF0023F5180135B4460027662199
:102D600013E7652A05D0672A0CD0114600252B27CA
:102D7000B9E78D1F9D4200DCCB1F00252B27AC46F9
:102D8000652102E71F1DAF4200DB8B1F9E4201DB66
:102D90006721EBE7711C5B1ADDE72F462FE737460B
:102DA00081E72B469DE767297FF4F6AE002BDABF5B
:102DB0000125A8464546EFE6FDEEC07A04F1010A7A
:102DC00017EE903A002BA8BF03F13009019BACBF6E
:102DD0005FFA89F94FF030099C4584F8009006D1DC
:102DE000B8F1000F03D004F1020A84F801B0F8EE44
:102DF000E77A019B30EE670A013320EE070A019360
:102E00005446CFE6FFFF7F7FF8FF7F3FCDCCCC3D20
:102E1000489B0508609B0508F1EE047AB4EEE70ACA
:102E2000F1EE10FA24DB631E4FF030091D782E2DD1
:102E300003F1FF3C2ED0A5F1300ABAF1090F2BD9CE
:102E400001331D78302D13D193F801C0BCF12E0F42
:102E50002FD166292DD02D2F83F800C05D7026D18B
:102E6000013E08BF2B2721468B4224D33121197004
:102E7000672A7FF4A1AEB8F1000F3FF49DAE234660
:102E80001C46013B14F8012C302AF9D02E2A08BF29
:102E90001C4691E66346C9E7392D02D001351D7005
:102EA000CFE798428CF80190F4D10346C9E7013688
:102EB000D9E70134D7E711F8015C01F80159D3E7EC
:102EC000F1EE047AB4EEE70AF1EE10FAABDA73E64B
:102ED00008B5044631B1054B8A6B036009680023CD
:102EE0002CF030FA20461DF0B7F800BFACAB050857
:102EF0002DE9FF471E460192451812B1023A222AD7
:102F000034D80446AC42274639D214F8010B1EF0DF
:102F100069F980460028F5D13B782B2B29D127462B
:102F2000E91B384601AA27F0F2FE0744B9460024FF
:102F3000A9454B4626D3B8F1000F00D06442640087
:102F400044F00104BB4209D01F46AF423B4641D288
:102F5000187801371EF046F90028F6D12049019A69
:102F600020482CF0B3F93146FFF7B2FF1E4829F094
:102F7000CBF92D2B04BF27464FF00108D0E74FF0C7
:102F80000008CDE719F8012BA2F1300ABAF1090FB8
:102F900009D95F2ACCD042F02002A2F1610119299F
:102FA000C9D8A2F1570A01995145C4D9204636F033
:102FB000E1FD28B9019B03FB04A494EA4403B7D5BF
:102FC000019B03974246E91B03A82DF091FB039B4D
:102FD0000446B7E7C2D1204604B0BDE8F08700BF81
:102FE0008D9B05089CAC0508789B05082DE9F04FE2
:102FF0002DED028B83B00446DDF8388001939146B5
:103000004618B442254680F0318128781EF0EAF84F
:10301000013407460028F4D12B782B2B09D1254603
:103020008246B4420CD30023DFED938A1F46184634
:103030008BE02D2B03D125464FF0010AF1E78246A4
:103040002B7843F02003692B32D1AB1C9E4240F217
:1030500005816B7843F020036E2B40F0FF80AB7846
:1030600043F02003662B40F0F980EB1D9E4205F1F2
:1030700003041AD9EB7843F02003692B15D12B797F
:1030800043F020036E2B10D16B7943F02003692BA2
:103090000BD1AB7943F02003742B06D1EB7943F0CD
:1030A0002003792B01D105F108049FED748A14E007
:1030B0006E2B2AD1AB1C9E4240F2D0806B7843F03D
:1030C0002003612B40F0CA80AB7843F020036E2BC5
:1030D00040F0C4809FED6A8AEC1CBAF1000F01D069
:1030E000B1EE488AA54209D0B442234680F09880C8
:1030F000187801341EF076F80028F5D1614962484D
:103100002CF05AF84146FFF7E3FE0023DFED5A8A20
:103110009FED5E7A0093AC4618461946F2EE046ABB
:10312000644614F801EBAEF1300BBBF1090F38D84F
:10313000022922D1564A904202DC0A2202FB00B048
:10314000A6425ED8009A02B14042034413F1250F13
:10315000BEBFDFED507A253368EEA78A13F1090F61
:1031600053D35B4200EE903AB2EE040AF8EEE00A66
:103170003DF0AAFA88EE808AAFE7F4EEC78AF1EE56
:1031800010FA0BD507EE90BAF8EEE77A0129E8EECF
:10319000A67AF0EE678A31D1013BD1E729B9013334
:1031A000CEE721B9BEF12E0F03D10121C8E70229D4
:1031B00017D04EF0200BBBF1650F12D1A64258D9A3
:1031C0009CF801102B2905D10CF10204B44295D0D2
:1031D0000221B5E72D2913D101220CF1020400923E
:1031E000F4E7B9F1000F04D04EF0200BBBF16A0FE9
:1031F00009D0BEF15F0FA3D06446A3E700219FE78B
:103200000221A4468CE74F469CE707EE903AB2EEC7
:10321000040AF8EEE70A3DF057FA28EE808A5CE7E8
:103220007FF46CAF57B19FED140AF0EE480A03B07B
:10323000BDEC028BBDE8F04F2BF072B8019B23B1BF
:10324000DFED0D0AB0EE480AF1E7B0EE480A03B030
:10325000BDEC028BBDE8F04F2CF092B9BAF1000F33
:103260003FF44CAF9FED048A2C4639E74FF0000A3B
:10327000D9E63FF443AF65E7000000000000807F1F
:103280000000C07F999B05089CAC0508EC78AD60F8
:1032900064666606EA1C08020846114641F0D0BD85
:1032A00037B50546084601913CF0B2FA044620B114
:1032B00002466B68019928689847204603B030BDE4
:1032C0002DE9F74F89469DF8301017460D9A11F0F9
:1032D000DF0F0646A2EB07023DD0302925490CA896
:1032E00013BF804688464FF0100A4FF0010A13F0D2
:1032F000800535D002EBD2746510A2EB6404002D7A
:1033000035DDAB46DA45524673683068A8BF5A4689
:10331000414601929847019AABEB020BBBF1000FBB
:10332000F0DC2FB1736830683A46494698473D440F
:10333000002C0CDD2544A2455746A8BF27467368DC
:1033400030683A464146E41B9847002CF3DC284697
:1033500003B0BDE8F08FDFF820804FF0100AC6E719
:1033600013F0010401D11546C9E71446D9E7002539
:10337000D7E700BF498C0508388C05082DE9F043D4
:1033800089B006460020119D9DF84880139F8DF856
:103390000F000AB381421ADA2D228DF80F2049421C
:1033A000109A08ACA2F10A000DF11009B1FBF3FC70
:1033B00003FB1C12092A8CBF1218303204F8012DAD
:1033C0004C458E4661460ED07345EFD90BE0A807F9
:1033D00027D52B228DF80F200029E1D130238DF83D
:1033E0001F300DF11F0415F040099DF80F301CD05F
:1033F00023B30122CDE900822B460DF10F013046A7
:10340000FFF75EFF013F814608AACDE900872B4602
:10341000121B21463046FFF753FF484409B0BDE870
:10342000F0836A07D8D52022D4E7002BECD004AA79
:103430009442E9D904F8013C013CE5E79946E3E709
:103440002DE9F04F93B081461D46C8079DF87430B2
:103450001C9E0693DDE91E7A0C4690460BD4A1070C
:1034600003D12268794B9A4205D0204629F04EFFBD
:10347000400040F0010416F0810306D1069A302A7C
:1034800003D15745B8BF57469A4620462DF043F81A
:1034900000280DF1280B18DBB20712D52B238DF86D
:1034A00028300DF12902F006EDB21DD5B8F1020F5A
:1034B0000DD11346302103F8021B691C51701A46C6
:1034C00012E0730701D52023E9E75A46EBE7B8F18C
:1034D000080F60D1B1054FF03003137045BF05F1FF
:1034E0000E03537001320232A2EB0B03002116F0DF
:1034F000200F117005930EAA0CBF0B462C23BAF1B6
:10350000010F0B92C8BF46F040061022CDE90C21F6
:1035100016F04002CDE902538DF82710079244D0EF
:10352000CDE9008123460DAA0CA90BA82CF0C6FEFC
:1035300003782D2B804606D18DF827300D9B013B5B
:1035400000F101080D93BAF1010F3CDD0D9D079BC1
:103550005545B8BF55462BB19DF8273003B101350D
:10356000059B1D44AF422BDD16F00103A7EB0505BB
:1035700027D12C461D4626F001064CB1202300938E
:103580000023019432491A464846FFF799FE044643
:103590003023069319E0B8F1100FA5D1134630215E
:1035A00003F8021B05F1170188E70AABCDE9008398
:1035B0000DAA23460CA90BA82CF080FE8046C2E77A
:1035C00000250024D7E700252C46079BDBB19DF89A
:1035D000273053B100230122CDE900320DF127013C
:1035E0004846FFF76DFE013F0444059B5BB1002395
:1035F0000122CDE900325946059A4846FFF760FEA0
:10360000059B0444FF1A069B0093BAF1010FC8BF43
:1036100057460D9A0197334641464846FFF750FEFC
:1036200004444DB1202300930023094901951A4613
:103630004846FFF745FE04440B980EAB984201D074
:103640001CF058FD204613B0BDE8F08FECB1050822
:10365000594906082DE9F04316468BB0B207DDF84C
:103660004890074698463DD416F0040F0CBF00233F
:10367000202300930A46139B202102A8FFF716FA85
:10368000F30504460DD5431C1F2B0AD80AAA14447F
:10369000252204F8202C0AAA1A44002102F8201C32
:1036A0001C4616F040051FD09DF808302F2B4FF018
:1036B00000031BD8012202A9CDE900323846FFF7EA
:1036C000FFFD09F1FF390546013C0DF10901CDE986
:1036D0000089334622463846FFF7F2FD28440BB0F6
:1036E000BDE8F0832B23C4E702A9F0E702A91D4639
:1036F000EDE700002DE9F04F824689B01446002620
:103700000B461D4613F8012B82B9A94211D30B7841
:10371000002B00F03B81013120234FF000080A46C6
:1037200012F8015B7DB94FF00A0C2AE0252AE8D196
:10373000EBE76F1ADAF80430DAF800003A469847F7
:103740003E442946E3E72D2D03D148F001081146F8
:10375000E5E72B2D02D148F00208F8E7202D02D131
:1037600048F00408F3E7212D02D148F00808EEE7FD
:10377000302D21D148F040082B46E8E70CFB052509
:10378000303D0F4611F8012BA2F130000928F5D980
:103790002E2A41D17A782A2A10D000204FF00A0C24
:1037A0000F4611F801BBABF13002092A09D80CFB16
:1037B00000BBABF13000F3E70025B4E754F8040B8D
:1037C000023720EAE07B3A786C2A08BF013797F885
:1037D0000090B9F1000F00F0D980B9F1780F6AD8E4
:1037E000B9F1570F1BD8B9F1470F61D8B9F1440FA0
:1037F00061D9073424F00704F4E80201049350F07F
:1038000071FACDE9005B00EE100A049B424649467E
:103810005046FFF71FFF62E04FF0FF3BD3E7A9F1EF
:103820005802202A47D801A151F822F05B3900083C
:10383000B7380008B7380008B7380008B7380008AC
:10384000B7380008B7380008B7380008B73800089C
:10385000B7380008C9380008EB3800083F390008BD
:10386000F3370008F3370008F3370008B7380008CB
:10387000B7380008B7380008B7380008B73800086C
:10388000B7380008B7380008B73800087D39000895
:10389000FF380008B738000823390008B738000897
:1038A0005B390008B7380008B73800085B390008F2
:1038B000B9F1500F62D0DAF80430DAF800000122D2
:1038C0003946984701360BE054F8042BCDE9003512
:1038D00043463AB12F4904225046FFF7F1FC064413
:1038E000791C0DE72C490522F6E754F8042B8DF8D6
:1038F0001C20CDE900350122434607A9ECE707A9C2
:1039000054F8040B04931DF040FABBF1FF3F049BF5
:10391000014601D1DDF81CB0CDE900355A464346D9
:10392000DAE7BBF1FF3F54F8041BF5D108460593D5
:1039300004913BF06DFFDDE904138346ECE7CDE92C
:10394000023561230093CDF804800A23012254F844
:10395000041B5046FFF712FDC1E729F00F0209F1E1
:1039600001010F3A01F00601D2B2CDE90235CDF8DE
:1039700004800092C1F110030022E8E7CDE902358E
:1039800061230093CDF804801023F5E7304609B099
:10399000BDE8F08F248C0508298C05080EB403B50A
:1039A00003AA52F8041B0192FFF7A4FE02B05DF8CF
:0839B00004EB03B070470000B6
:020000040802F0
:10000000034B1B685B681A69026018610020704727
:1000100024630020034B1B685B681A6912681A612D
:10002000704700BF24630020C4600561466187619A
:10003000C0F81C80C0F82090C0F824A0C0F828B0F8
:10004000C0F82CD080ED0C8B80ED0E9B80ED10ABBA
:10005000C0F808E0FFF7D4BF08B5114B1B6859681A
:100060000B690BB923F068FD1A6858600A611846DD
:10007000C468056946698769D0F81C80D0F820906B
:10008000D0F824A0D0F828B0D0F82CD090ED0C8B6C
:1000900090ED0E9B90ED10ABD0F808E0012070477A
:1000A0002463002010B50021044600F0B9FA18B905
:1000B00014B120460CF014F910BD002100F0B0BAC4
:1000C00010B50121044600F0ABFA18B914B120466E
:1000D0000CF006F910BDFFF7E5BF10B501220C4684
:1000E00000F0B2FB18B914B120460CF0F9F810BDBD
:1000F00000F0AABB00F06ABB2DE9F0432A4C0025B2
:100100000326D4F8F4710021013143189A0803F052
:100110000303BA5C5B0042FA03F303F00303022B10
:10012000F2D0D4F8003209018A0803EB001089B339
:1001300000EB820103681A0729D1D4F800229A4201
:1001400025D89A1AC2F301174FEA470ED4F8047261
:100150009F424FEA921C4FEA121218D9D4F8F48148
:1001600018F80C9049FA0EF707F00307012F0ED18B
:1001700006FA0EF304EB450E3F2D43EA090308F897
:100180000C309ABF0135AEF80C22C4F80872043066
:100190008842CFD12DB1013D04EB4503B3F80C02E9
:1001A000AFE7BDE8F08300BF805C0020F0B4194EDB
:1001B000D6E97F43C01AC109C0F30215635C01226E
:1001C000AA4023EA02036354D6F89822830904095B
:1001D000B2EB901FD6F8F40188BFC6F89832C15C24
:1001E000A50804F0030303275B0007FA03F321EAE1
:1001F000030343550134D6F8F401A50804F00303C2
:10020000415D5A0041FA02F202F00302022AEBD0E9
:10021000F0BC7047805C002021F00F0370B5144AD9
:10022000144D1C1AE400A2FB0424640A0219A3EB77
:100230008416C5F8FC2100212246C5E98063C5E982
:100240007D041FF0ADFAA2000732D2080021D5F8D4
:10025000FC011FF0A5FA00234FF480314FF0FF326C
:10026000C5E9A432C5F88C12C5F8983270BD00BF3C
:10027000F32C23FA805C0020034AB2F88C3201335D
:10028000A2F88C32704700BF805C0020034AB2F8AD
:100290008C32013BA2F88C32704700BF805C00209A
:1002A000034BB3F88C02003818BF0120704700BF21
:1002B000805C0020F8B51D4CB4F88C32002201336C
:1002C000A4F88C32C4F89022C4F80822251D04F545
:1002D000E876032755F8042F13071AD1D4F8000243
:1002E000824216D3D4F80412101AC0F301138A42C2
:1002F0004FEA901C4FEA43034FEA101009D2D4F89A
:10030000F41111F80CE04EFA03F202F00302012A94
:1003100002D0AE42DED1F8BD07FA03F343EA0E0382
:1003200001F80C30FFF7E8FEF3E700BF805C002027
:1003300081B3F8B5041F184E04EB8105032754F868
:10034000043F1A071AD1D6F80002984216D8D6F8F8
:100350000412181AC0F3011299424FEA901C4FEA96
:1003600042024FEA101009D9D6F8F41111F80CE046
:100370004EFA02F303F00303012B02D0A542DED1B3
:10038000F8BD07FA02F242EA0E0201F80C20FFF76C
:10039000B3FEF3E7704700BF805C00202DE9F04F0B
:1003A0005A4CD4F8083285B0002B00F0AB80D4F85A
:1003B000F83100269A00C4F80862002A43D00025CC
:1003C000D4F8F411AB08CB5C05F0030149000B41F4
:1003D00003F00303032B41D001359542F0D3D4F849
:1003E0000832002BE7D172B34FF0000E76464FF083
:1003F000030A4FF001094FF0020804E0012B4BD033
:10040000013696421FD2D4F8F4C1B70806F00305AE
:100410001CF807106D0041FA05F303F00303022BEB
:100420000CEB96002AD0032BE8D108FA05F521EA57
:1004300005010CF80710D4F8F83101369A009642FD
:100440004FF0000EDFD3B4F88C320022013BA4F849
:100450008C32C4F8982205B0BDE8F08F2846FFF72B
:100460004BFED4F8F8310135B5EB830F4FEA830228
:10047000A6D3D4F80832002B9DD1B4E7BEF1000F0B
:10048000BED00AFA05F521EA05010170D4F8F83169
:100490004FF0010E9A00B3E7D4F8FC21F30806F000
:1004A000070B12F803C001934CFA0BFE1EF0010F6C
:1004B00002EBD602E5D0D4F800023101415800EB3E
:1004C0000610A1B102AAB1210BF010F9DDE9013249
:1004D00042B10CF049F9DDE902010CF01BF90CF016
:1004E00059F9019BD4F8FC2112F803C01A4409FA07
:1004F0000BFB2CEA0B0C82F800C0D4F8F431D95D68
:10050000D819BEE7D4F8F8319A006CE7805C002077
:10051000054BB3F88C2200210132A3F88C22C3F8DA
:100520000812FFF73BBF00BF805C00203B4BD3E9C4
:1005300080122DE9F047D3E97D760023C0E902332C
:10054000C0E90433521AC0E900231D4683619E4668
:100550009C461C461A46994619469846B60017F816
:10056000093049000B4103F00303012B49D0022B52
:1005700043D0002B39D0013296420ED04FEA920977
:1005800002F0030117F809304FEA410A43FA0AF36F
:1005900013F0030301D0012BE1D1012C11D0022C67
:1005A00002D14169013141618169A14238BF846151
:1005B00096420FD0012B28D04FEA920902F0030196
:1005C000CDE70169013101618169A14238BF8461D0
:1005D0009642EFD1C44501D9C0F80CC02D014FEAB5
:1005E0000E13C0E90153BDE8F0870EF1010EC0F80B
:1005F00008E00CF1010C1C46BDE7013545600134F3
:10060000B9E7013545601C46B5E7E04502D2C0F8C0
:100610000CC0E0464FF0000CCEE700BF805C00202D
:100620000F302DE9F843060951D0674CB4F88C32ED
:10063000002B4CD1B4F88E32002B0D460CBF4FF07E
:10064000010E4FF0000E47D1D4F89802D4F8F8719B
:10065000874239D9D4F8F4C1411E614400221AE01E
:100660000132964253D913F00C0F1ED1013296423B
:1006700040F2A08013F0300F1CD10132964240F2BC
:100680009C8013F0C00F1AD10132964240F298803C
:100690000130B84218D211F8013F13F0030FDFD038
:1006A00013F00C0F4FF00002E0D013F0300F4FF0BA
:1006B0000002E2D013F0C00F4FF00002E4D001308E
:1006C000B8424FF00002E6D3BEF1000F14D04FF055
:1006D00000084046BDE8F883D4E9A4239A42B3D386
:1006E00028F0B6FFD4F89802D4F8F871B84238BFB1
:1006F0004FF0010EAED3EAE728F0AAFFD4F8980233
:10070000D4F8F87187424FF0010EA3D8DFE78000DC
:10071000811A012A01F1010703D1431C9B08C4F887
:1007200098324FEA970E07F003031CF80E904FEA39
:100730004308012303FA08F3023143EA090388421C
:100740000CF80E3013D34FF002084FEA910CD4F896
:10075000F4E101F003031EF80C905B0008FA03F3C8
:10076000013143EA090388420EF80C30EDD2D4F887
:100770000092D4F8903209EB07181E44120140464B
:100780000021C4F890621FF00BF8EB074FEA071640
:100790009FD50023D4F8FC1149F80630FA0801234C
:1007A000885C07F0070703FA07F707438F544046B2
:1007B000BDE8F88380000130AAE780000230A7E797
:1007C00080000330A4E700BF805C0020034BB3F837
:1007D0008C2212B908B1FFF7E9BC7047805C002099
:1007E00010F00F021CD11749D1F80032834218D8FB
:1007F00010B4D1F8044284420ED9C31AD1F8F4419E
:100800009909C3F30110615C4000014101F003014B
:1008100001294FEA131306D010465DF8044B7047C8
:1008200000221046704701329918880801F0030130
:10083000205C490040FA01F101F003010229F2D0E5
:100840001201E9E7805C00202DE9F84F8E4607464B
:10085000002800F0AA80002974D0584EB6F88C42C7
:10086000002C74D1D6F80012D6F8F831411A0809D4
:1008700000F1010C0EF10F05BCEB830F4FEA830A68
:100880004FEA151580F09780D6F8F4914FF00108E3
:100890004FEA9C0B0CF0030319F80BB05B004BFA0A
:1008A00003F303F00303022B55D023B9013404EB07
:1008B0000803AB4251D3454540D020D34444AC4219
:1008C00050D2002A43D0D6F8FC31C90900F0070005
:1008D000595C014101F001017046FFF7A1FE044699
:1008E000A8B34FEA081239461EF014FFB6F88C324E
:1008F0002BBB3846FFF75AFC2046BDE8F88F05446D
:100900002C4640444FF003094FEA940ED6F8F411F8
:1009100004F0030311F80EC05B0009FA03F301347D
:100920002CEA0303844201F80E30EDD1D6F8983258
:10093000AA08B3EB950F88BFC6F898223C4620461C
:10094000BDE8F88F1D4BB3F88C42002CD2D00024A8
:100950002046BDE8F88F08F101080CF1010CE245D2
:1009600096D1A8E700EB08022844904211D94FF035
:10097000020E9408D6F8F41102F0030311F804C033
:100980005B000EFA03F3013243EA0C0390420B556D
:10099000EFD1A5EB0802120107EB081000213C463D
:1009A0001EF0FEFE2046BDE8F88F01467046BDE809
:1009B000F84FFFF735BE4FF001087CE7805C002060
:1009C00010B58AB00B4C03A8FFF7B0FD059B009350
:1009D0000949DDE903232046E2F7E0FF069A099B77
:1009E000019200930549DDE907232046E2F7D6FF8F
:1009F0000AB010BD308C05087C400508A0400508F1
:100A00002DE9F047DFF86CA14B49DAF800224B489A
:100A1000E2F7C4FFDAF8F811890078D0DFF85891CE
:100A2000DFF85881454F00250EE0012E3ED02E22E2
:100A300043493846E2F7B2FFDAF8F8310135B5EB51
:100A4000830F4FEA830162D215F03F0610D005F004
:100A500003067600DAF8F421AB08D35C43FA06F615
:100A600006F00306022E1FD0032EDED16D22DFE733
:100A7000DAF8F4012C46A20804F00303825C5B0060
:100A800042FA03F39B0702D101348C42F3D3621B79
:100A90007F2A30D805F00306760009EA05124146A0
:100AA0003846E2F77BFFD5E73D22C1E7DAF80012CE
:100AB000244B2A018A589A422FD0234B9A422ED097
:100AC000224B9A422FD0224B9A422AD0214B9A4253
:100AD00027D0214B9A4228D0204B9A4225D0204B38
:100AE0009A4226D01F4B9A4221D01F4B9A420CBFEC
:100AF0004D2268229CE71D4992093846E2F74EFFD5
:100B0000DAF8F83124F03F05B5EB830FC5D3BDE823
:100B1000F04717490948E2F7C3BB542288E74C2243
:100B200086E7532284E7442282E7412280E742227B
:100B30007EE746227CE700BFE8400508308C0508C8
:100B40002C410508C8C105085CB30508ECA50508DB
:100B500048BF0508E4BC05087CA1050840A10508BC
:100B60009CAD05082CAE050810B505080841050820
:100B700004410508805C0020F0FF0F0024410508B7
:100B8000054B5B695A68824204D8801A043053F8D6
:100B9000200070471B68F5E7805C0020014441F2AB
:100BA0000553884204D398B2012838BF012070470A
:100BB00010F8012B03EB43135340F2E7034B044AB5
:100BC0005A610022C3F8D421704700BF805C002026
:100BD000BC3A06082DE9F84F80460D46FFF7DEFFC8
:100BE000134B5C6907460CB920461EE0E36804F12C
:100BF000100B0BEB83095E464E45B24601D32468C9
:100C0000F1E756F8040B0388BB42F5D18378AB4279
:100C1000F2D12A46414603301EF0D8FD0028EBD120
:100C20006068AAEB0B0A00EBAA00BDE8F88F00BFD2
:100C3000805C00202DE9F04780460E46FFF7CAFF92
:100C40000246002877D1FF2E03D9404940480AF0D8
:100C5000C3FD404CD4F8D401351D90B1D4E97613CE
:100C60002B448B422BD92944FFF742FA0746E8B9B7
:100C70000246D4F8DC11D4F8D401FFF739FAC4F8ED
:100C8000D471802D2F4638BF80273846FFF715FADC
:100C9000C4F8D401002852D12846FFF70EFAC4F850
:100CA000D40100284AD128460BF01AFBD4F8D831D9
:100CB0002B44C4F8D831D4F8D431002BE1D0D4F887
:100CC000DC91D4F8D4A131464D444046C4F8DC51FF
:100CD000FFF764FF0AEB09070AF80900000A7870B9
:100CE000BE7032464146F81C1EF014FDB9190026AC
:100CF000CE706369D3E90253AB4212D36D000A2D63
:100D000038BF0A25281D8000FFF7D7F90028CAD070
:100D1000626902605368D268C6601344C0E9013555
:100D200060616369D9685A68481C0431D860013A27
:100D300043F8217002441046BDE8F0872F46002397
:100D4000C4F8D871C4F8DC31B9E700BF2F410508F9
:100D5000F8AA0508805C002010B504461EF058FD76
:100D600001462046BDE81040FFF764BF08B5FFF715
:100D700007FF008808BD08B5FFF702FF807808BDAF
:100D800008B5FFF7FDFE033008BD08B5FFF7F8FE14
:100D900083780B60033008BD2DE9F8431D4600231E
:100DA00003600B6013602B60174BDFF860905C6989
:100DB0000746884616460CB14C4505D12B6832686B
:100DC00013442B60BDE8F8833B6801333B60E26865
:100DD000D8F800301344C8F80030E26804F110037A
:100DE00003EB8202934207D32046FFF7F9FC2B68FE
:100DF000246818442860DEE753F8041B88783168BB
:100E0000043101443160EDE7805C0020BC3A060803
:100E10002DE9F8430E4B0F4F5C69DFF83C80DFF89B
:100E20003C900CB1BC4201D1BDE8F883E36804F109
:100E3000100505EB8306B54201D32468F1E755F8A8
:100E4000042B414603324846E2F7A8FDF3E700BF12
:100E5000805C0020BC3A060837410508308C050844
:100E600030B50023202411F8012F0AB9027030BDDB
:100E7000120600F101051FD50BB1047028460B784E
:100E8000124A03F07F036BB9013A12F8013F13F0E5
:100E9000800F054600F101000BD003F07F032B709B
:100EA0000123E0E712F9015B002DFBDA013BDBB225
:100EB000E9E700F8013CE8E7012B04BF047028468D
:100EC0000B7800F8013B0223CDE700BF3E41050847
:100ED00038B54468036821449942054611D9037B1B
:100EE000DB0703D5074800210AF076FC01F1100466
:100EF00024F00704083480682146FFF7EEF82C60E0
:100F0000A86038BDF8AA050870B504460E4611461B
:100F10001546FFF7DDFFD4E901302A463146184473
:100F20001EF026FC62682A44626070BD70B5466897
:100F3000B142044628BF31460D460121FFF7C8FFE4
:100F4000A368681C5919721B18441EF011FC6368D1
:100F5000A06801336360284470BD38B50129044698
:100F600038BF01210025084621606560FFF79AF827
:100F7000237BA06065F30003237338BD38B50546B5
:100F80000C460131FFF7E9FF6C6038BD0023C0E972
:100F90000132037B016043F00103037370470000DB
:100FA00038B514460546FFF7D8FF024B256063604D
:100FB00038BD00BF090F0208037BDB0710B50446EC
:100FC00002D48068FFF796F80023A36010BD13B524
:100FD00001901020FFF766F801990446FFF7BDFF66
:100FE000204602B010BD10B5044650B1037BDB07AC
:100FF00002D48068FFF77EF82046BDE81040FFF776
:1010000079B810BD38B5037BDB0704460D4603D520
:10101000074800210AF0E0FB016880682944FFF7D7
:101020005CF82368A0601D442560184438BD00BFEB
:10103000F8AA050838B504460D46FFF749FFD4E97C
:1010400001301D446560184438BDD0E900239A4240
:1010500010B5044602D10121FFF7D4FFD4E90132D3
:101060000021D154A06810BD10B50C460121FFF736
:10107000E1FF047010BD7F29F8B50C46CEB204D84C
:101080000121FFF7D7FF0670F8BD06F03F06B1F566
:10109000006FC1F3871546F0800607D20221FFF7E3
:1010A000C9FF65F03F0505704670EDE705F03F05A7
:1010B000B1F5803FC1F3073745F0800508D2032121
:1010C000FFF7B8FF67F01F07077045708670DBE712
:1010D0000421FFF7AFFFA40C07F03F0764F00F04F3
:1010E00067F07F07047047708570C670CCE713B552
:1010F0000446084601911EF08BFB019902462046EA
:1011000002B0BDE81040FFF7FFBE10B51446FFF770
:101110000DFF047010BD10B51446FFF707FF0470F3
:1011200010BD43688B422CBF591A002141607047A3
:1011300038B50446154662688A42084603D92944F0
:101140008A4201D8606038BDA368521A1844194415
:101150001EF00EFB6268521B6260F4E790F900100B
:1011600003780029024601DB1846704703F07F0030
:101170004023184206D112F8013F03F0C001802934
:1011800004D0704720EA03005B08F2E703F03F0356
:1011900043EA8010EFE7431C18460133027802F05F
:1011A000C002802AF8D0704703460020994200D838
:1011B000704711F8012D02F0C002802A18BF0130DB
:1011C000F4E701440346002099421A4600D87047CC
:1011D000127802F0C002802A03F1010318BF013027
:1011E000F2E700007F289DBF024B185CC0F340006F
:1011F000002070475A8C05087F289DBF024B185C61
:10120000C0F3C000002070475A8C05087F289DBF9E
:10121000024B185CC0F38000002070475A8C050810
:101220007F289DBF024B185CC0F3801000207047E0
:101230005A8C05087F2809D8064B1B5C13F00C0F4D
:1012400006D1A0F15F035842584170470020704713
:10125000012070475A8C05087F289DBF024B185CFF
:10126000C0F30010002070475A8C05087F289DBFEE
:10127000024B185CC0F34010002070475A8C0508E0
:1012800008B50246FFF7E8FF00B12032104608BD5E
:1012900008B50246FFF7EAFF00B1203A104608BD44
:1012A0003038092884BF20F020000738704710B577
:1012B00001440246E5240020914203D8B0FA80F0B0
:1012C000400917E012F8013B30B103F0C003802B56
:1012D00011D1431ED8B2EFE7BF2B09D9F72B09D89C
:1012E000DB0803F0060344FA03F303F00300E3E72B
:1012F0001B06E1D510BD0020FCE7023981420B46F8
:1013000003D20233181A401070471A880239002A93
:10131000F4D0F6E7B2EB131F70B54FEA131415D9EA
:10132000121B03F00F0301EB440115460E46012D7D
:1013300031F8024B18BF3468DC40A4B2013D20F8FC
:10134000024BF3D104B9013A104670BD0022FBE70D
:10135000F0B5059F0024D21B2646A74210D100EB12
:10136000470C01EB47010024A24214D10CEB4203CD
:101370001EB101212CF812100233181A4010F0BDD2
:1013800031F8145033F814C06544354420F8145033
:101390002E0C0134E1E731F8145035442CF8145088
:1013A0002E0C0134E0E7F0B4049F0025D21B2C463C
:1013B000AF420BD100EB470601EB470500239A42F1
:1013C0000FD106EB4201F0BCFFF797BF31F8156073
:1013D000344433F81560A41B20F81540241401355B
:1013E000E6E735F813100C4426F8134024140133B3
:1013F000E5E72DE9F043079CDDF828E0DDE9087614
:101400000239154684464FF6FF78A4EB020955B918
:1014100000EB42011FB1012320F812300231BDE878
:10142000F043FFF76ABF31F8024F013D44442644C0
:1014300005EB0904AC4296BF33F8024B4FF6FF743C
:101440004444744486EA040E17FA8EF72CF8027BA3
:101450004FEA144E360C3F0CD9E738B50229044642
:10146000806838BF02210D4618B12368B1EB930F95
:1014700007D96900FEF731FE2368A06065F39F037A
:10148000236038BD38B504460C20FEF70BFE2368F8
:101490002278054602F00102C3F39D0023F0030306
:1014A00013432B6063686B604000FEF7FBFDA86090
:1014B0002268A168C2F39D0252001EF02BF9284653
:1014C00038BD10B500EB410002EB410209B90846F6
:1014D00010BD30F8023D32F8024D1B1B002B02DB21
:1014E00004D10139F2E74FF0FF30F1E70120EFE7D7
:1014F00010B5044638B18068FEF7FCFD2046BDE813
:101500001040FEF7F7BD10BD38B505460C46022168
:10151000FFF7A3FF002C2B78B4BF0122002262F357
:1015200000032B70AB68B4BF61422146023B01222D
:1015300023F8021F090C104602F10102F8D168607D
:1015400038BD0023C0E900338360704728B10378B9
:101550009B0702D48068FEF7CDBD704738B50546BD
:101560000C464968FFF779FF22782B78A86862F368
:1015700000032B7063686B606268A1685200BDE86D
:1015800038401EF0C7B809B941607047FFF7BCBFCB
:1015900008B5FFF7D6FFBDE80840FFF7F4BF92009B
:1015A00042F0020210B402600022C0E901215DF89D
:1015B000044B1946FFF7E7BFF8B59DF818700421F2
:1015C000064614461D46FFF748FF87B1002C75F10B
:1015D00000030CDA624265EB4503317867F30001E2
:1015E00031700021716052EA030104D1F8BD224636
:1015F0002B460027F1E7D6E901104C1C746020F857
:101600001120110C41EA0341180C0A460346EAE78F
:101610002DE9F3418DED010A019C0378E20F62F39D
:1016200000030370C4F30F4313F4FF43074604D1D0
:1016300000237B6002B0BDE8F081B3F5FF4FF7D027
:10164000C4F3C753A3F17F05002DF1DB05D10121C0
:1016500002B0BDE8F041FFF757BFB3F16F0848BFD4
:10166000A3F16008C4F31604162D4FEA281844F4B9
:10167000000421DCC5F11705EC4000252E4641464B
:101680003846FFF7EAFEC7F8048026B1B868720052
:1016900000211EF085F845B1BB6804FA05F223F875
:1016A0001620C5F11005EC400136B045C2D0BB682C
:1016B00023F81640240CF7E7B3F1960605F1090567
:1016C00048BFA3F1870605F00F053611D7E72DE9CE
:1016D000F84304468F18C2F35B020D46511C98462E
:1016E000089EFFF7BAFE237868F3000323700023F7
:1016F000636029461FFA86FCB942084602D3401BA4
:10170000BDE8F8830278A2F13003092B01F1010151
:1017100005D9A2F14103192B14D8A2F13703B34222
:10172000EDD2D4E901E0F0468146B8F1000F10D1C6
:1017300000EB4E0213B120F81E300232121A521082
:101740006260D9E7A2F16103192BD8D8A2F157033F
:10175000E5E7B9F8002002FB0C3329F8023B08F159
:10176000FF381B0CE1E7F8B5044615461E46C1B12B
:10177000531E1E444FF0FF37E9000F310909204680
:10178000FFF76BFE237800216FF300032370616085
:101790004DB9D4E9011000EB4101FFF7AEFD6060E7
:1017A000F8BD0127E8E700230F2908DC32788A40DA
:1017B0001343013D9BB201F108013E44F4D162683C
:1017C000501C6060A068103920F81230E0E770B556
:1017D000456804460DB9486898B10B78267803F03F
:1017E000010306F00100181A0BD14B689D4209D382
:1017F0000BD88A68A0682946FFF763FEF30748BF45
:10180000404270BD4FF0FF30F8E70120F6E7884214
:1018100010B5044601D0FFF7A1FE23786FF3000353
:10182000237010BD884210B5044601D0FFF796FE24
:101830002378C3F30002C2F1010262F300032370B4
:1018400010BD88421FB5044601D0FFF787FE6268CD
:1018500062B901212046FFF700FEA2680123138030
:101860006360237843F00103237010E02378D907E5
:101870000FD5A1686FF3000323700123ADF80E307C
:10188000009308460DF10E03FFF78DFD606004B074
:1018900010BD511C2046FFF7E0FDD4E901210123D2
:1018A000ADF80E30009308460DF10E03FFF750FD22
:1018B0006060D6E72DE9F8434B6805460E461446AE
:1018C00003B12AB931462846BDE8F843FFF746BEC2
:1018D00002F10F014FEA111803EB1111FFF7BDFDE3
:1018E000D6E9010208EB0007AB6807F1004114F0EC
:1018F0000F0401F1FF3103EB410308BF102402EB99
:10190000400E014699460022C4F1100401BB6FF05D
:10191000010C0CFB00FC22FA04F403EB0C0023F88E
:101920000C40C8F1010300EB430308F1FF321846F5
:1019300052001DF035FF831E17B133F8172092B106
:101940006F6032782B7862F300032B70BDE8F88368
:101950003EF802CD4CEA020222FA04FC29F802C940
:1019600012040139D2E7013FE6E7F0B50E464968B7
:1019700085B00546144601B12AB931462846FFF71D
:10198000EDFD05B0F0BDFFF768FDD6E90121234666
:10199000A868FFF7BFFC686032782B7862F3000319
:1019A0002B70DB07EDD500237168ADF80E302209EE
:1019B000994201D093420FD19142E2D9B36804F029
:1019C0000F0433F81220012303FA04F4013C2242ED
:1019D00013D0ADF80E3008E0B76837F8137057B180
:1019E00001239142ADF80E30E8D8A968012348B927
:1019F0000B806B60C5E70133DAE7BDF80E30002BD2
:101A0000BFD0F2E7009302460DF10E030846FFF740
:101A10009FFC6860B5E773B553680C464968994206
:101A20000646154606D308D89268A068FFF749FD18
:101A3000002802DA23462C461D4623782A7861685E
:101A40005340DB0713D401313046FFF706FD6B68C6
:101A50000093D4E90121AB68B068FFF779FC7060AE
:101A60002278337862F30003337002B070BD3046E1
:101A7000FFF7F3FC6B680093D4E90121AB68B06811
:101A8000FFF791FCEBE7F7B553680C4649689942BC
:101A90000646154606D328D89268A068FFF711FDC0
:101AA000002822DA234601272C461D4623782A786F
:101AB00061685340DB071AD501313046FFF7CDFC92
:101AC0006B680093D4E90121AB68B068FFF740FC74
:101AD0007060237803F001030FB183F001033278C3
:101AE00063F30002327003B0F0BD0027DEE730463A
:101AF000FFF7B3FC6B680093D4E90121AB68B068D1
:101B0000FFF751FCE4E72DE9F04F15464A686B6892
:101B10009A420E463EBF2E460B461D4633787168EC
:101B2000DB0785B0044621D42B7813F001071DD1C3
:101B3000FFF793FCD5E9011CA068B6683B469942C3
:101B40000BD100EB4101FFF7D8FB237860606FF306
:101B50000003237005B0BDE8F08F36F813203CF881
:101B600013502A4020F813200133E8E701312046C2
:101B7000FFF773FC96F800A02B78D6F804C0A06895
:101B80008AEA0307FF4307F0010E47F30007BFB2DD
:101B9000D5E901120AF001084AF3000A02971FFA78
:101BA0008AF703F00109019743F30003B7689BB27A
:101BB000A1EB0C01A7F1020A00936746834603914B
:101BC000BFB900EB4C01BEF1000F03D0012320F898
:101BD0001C300231FFF791FB606033782A78C3F341
:101BE0000003C2F300021340227863F30002227064
:101BF000B0E73AF8021F019B5940039B013F88441C
:101C0000D919B9429BBF32F8021B009B0099594079
:101C10008944029B08EA090159401EFA81F12BF818
:101C2000021B4FEA19494FEA18484FEA114EC7E71D
:101C30002DE9F84F16464A6873689A420D463EBF32
:101C400035460B461E462B786968DB07044631D4BF
:101C5000327812F001072DD1FFF7FFFBD6E9013EE4
:101C6000A9686D68D4F808C0ED1A3A46934212D1BB
:101C700001EB430100220CEB4303954214D103EB2B
:101C80004503A3EB0C035B10636023786FF3000341
:101C90002370BDE8F88F31F812003EF8126030432F
:101CA0002CF812000132E1E731F8120023F812009B
:101CB0000132E2E701312046FFF7CFFB2F7833787E
:101CC0006968A068AD68D6E901E203F0010947F34D
:101CD000000643F3000307F00108A5F1020CB6B2B9
:101CE0009BB20F4682460125AEEB010E47B900EBD1
:101CF0004101FFF702FB2378606043F00103C7E76F
:101D00003CF802BF013F8BEA060BD8440EEB070BF1
:101D1000BB4596BF32F802BB9B468BEA030BD94406
:101D200048EA090B6FEA0B0B15FA8BF52AF8025BF0
:101D30004FEA19494FEA18482D0CD7E7F0B5164677
:101D40004A6873689A4238BF0B460C463CBF34461B
:101D50001E462778337861685F4017F0010785B029
:101D600005463AD1FFF779FB237813F0010328D118
:101D7000D6E9012C6168A868A768891A9A4211D12E
:101D800007EB4207002300EB4202994213D102EB1A
:101D90004101FFF7B2FA2B7868606FF300032B70F4
:101DA00005B0F0BD37F813403CF81360744020F8DC
:101DB00013400133E2E737F8134022F813400133B0
:101DC000E3E7CDE90277019773680093D4E9012135
:101DD000B368A868FFF70DFBDDE70131FFF73DFBB6
:101DE0003378A868DB4303F0010303932378DB43D4
:101DF00003F0010302930123019373680093B36816
:101E0000D4E90121FFF7F5FA2B78686043F001036C
:101E1000C5E72DE9F04F4B6885B006460D461446E0
:101E20000BB1536823B90023736005B0BDE8F08F90
:101E300081422ED1FFF726FBB4420546074600D16A
:101E400004466368696830461944FFF706FB326848
:101E5000B068C2F39D02520000211DF0A1FCAB68E6
:101E6000D6F808E0D5F804A00193A36802930022F5
:101E7000636803930EEB4A08F4461146039B9342B2
:101E800031D0DDF804B0CDF800A0ACF102000023A1
:101E900018E0824204D1FFF7F5FA04460746D0E77E
:101EA0000027CEE730F8029F99443BF8023B1946E1
:101EB000029B33F8123003FB019300990380013930
:101EC0001B0C009100990029ECD14146881C13B1EC
:101ED000A8F800300146A1EB0E0149100CF1020CEC
:101EE00001328046CAE7716022782B7853403278FD
:101EF000384663F30002327005B0BDE8F04FFFF7DB
:101F0000F7BA4B6870B50646144613B11378DA0772
:101F100002D50023736070BD636823B9BDE87040CB
:101F20000121FFF7F1BA0846FFF7ACFA0546204653
:101F3000FFF7A8FA012104463046FFF7E5FA636887
:101F400083B1A3681B88DB0704D52A463146304697
:101F5000FFF75FFFD4E9012101230846FFF7DAF913
:101F6000606038B92846FFF7C3FA2046BDE87040E4
:101F7000FFF7BEBA2A4629462846FFF74AFFDEE7A2
:101F80002DE9F04F0C4651688FB09146013105465E
:101F90000293FFF762FAD9F80420A86801325200D0
:101FA00000211DF0FDFB00236B60D9F804102046D2
:101FB0000131FFF752FA49462046FFF7CFFA029B5C
:101FC000D4F804805B680193434531D8029BA6682E
:101FD0009F68AB6803932DD33A4641463046FFF7DE
:101FE00070FA18BB039A6060012313806B60029A39
:101FF00099F8003012785340DB0714D52B7843F062
:1020000001032B70636873B14FF0FF310BA8FFF72A
:10201000BFFA0BAA29462846FFF7FDFC029A214683
:102020002046FFF7F8FC0FB0BDE8F08F013001D17A
:102030000023DBE7019B03F10042013A53000493C4
:1020400037F812304FF0000E18040EF1010151D58F
:102050004FEA4800002108F1010326F818101FFA82
:102060008EFA00F1020805936360B044B446CAF1E9
:10207000100BC44542D3019B37F81220012B02FA02
:102080000AFB08D9049BFA18CAF1100132F8022C95
:10209000CA404BEA020B059A019BD31A6B60039A64
:1020A00003F10043013B02EB43030593049B02331E
:1020B0000993BB1E3044089363680493049A019B00
:1020C000934226D302F1004B0BF1FF3B06EB4B0B87
:1020D0000021CAF110005E4579D96FF000416B68AC
:1020E0002BB103985A1830F81220002A79D06FF0DB
:1020F00000417BE05B009BB28E46A5E7BCF800E0A8
:102100000EFA0AF319432CF8021B2EFA0BF189B2CE
:10211000AFE7038830F8022C42EA0342099BB2FB86
:10212000FBF2C31A0693089B0793DDF818E000231F
:10213000984670450CD801885B1A002B41D1059B4D
:1021400023F802290593049B013B02386360B3E73F
:10215000079FBEF800C037F8021F079701FA0AF17F
:1021600041EA18481FFA88F15143614503D2ACEBAC
:1021700001079F420ED80B44A3EB0C01ACEB030309
:102180009FB28BB2003B18BF012303EB11432EF823
:10219000027BCEE7FF1ABFB20023F8E738F802CF80
:1021A0000CFA0AFC4CEA1E4EB7F800C011FA8EF188
:1021B000614427F8021B090CB842EFD85B1A013AB8
:1021C000BBE70021DDF82080069F8E46F4E7BBF8D0
:1021D000003043FA0AF20A4383402BF8022999B2ED
:1021E00079E7013B6B607AE7013B63606368002B32
:1021F0003FF4FDAE5A1836F81220002AF4D0F6E665
:10220000F0B51F464B6885B006460C4615464BB1E7
:102210001378DA0706D47B68012B07D1BB681B88CB
:10222000012B03D10023736005B0F0BD01213046BE
:10223000FFF76AF96B68002BF6D02046FFF722F90A
:1022400004462846FFF71EF9054601A8FFF779F96D
:102250006B68B3B1AB681B88DB070AD522463146F1
:102260003046FFF7D6FD3B463246314601A8FFF720
:1022700087FED5E9012101230846FFF74BF8686086
:1022800048B901A8FFF762F92046FFF731F928465F
:10229000FFF72EF9C8E7224621462046FFF7B9FD91
:1022A0003B462246214601A8FFF76AFED0E710B55B
:1022B000D0E90121034601EB42020020914204D300
:1022C0001B78DB0748BF404210BD32F8024D44EA9C
:1022D0000040F3E730B5D0E90124002304EB4202CB
:1022E000944206D30278D20748BF5B420B600120BC
:1022F00030BDB3F5004F04D232F8025D45EA034326
:10230000EEE70020F4E72DE9F04371B19F18D0E922
:1023100001940025A4F102084FF0010EAC461A44C6
:10232000B9F1000F03D1BDE8F0831F46EFE738F89D
:10233000024F0CF1100C44EA0545BCF1070F02DC1A
:1023400009F1FF39ECE70678ACB2F60742BFE44387
:102350005EFA84FE1FFA8EF4E4B248BFCEF3072E75
:1023600049B17E1E07F8014CB342DCD0ACF1080C39
:102370002D0A3746E1E73E4606F8014B9642F4E760
:10238000D0E901329FED0C0A9FED0C7A02EB43037A
:102390009A4205D30378DB0748BFB1EE400A704785
:1023A00033F8021D07EE901AF8EEE77AE0EE077AAE
:1023B000B0EE670AECE700BF0000000000008047B5
:1023C0002DE9F84F44689DF828B00B9F81468A4656
:1023D00015461E469CB982B1551E3B4615F8011F95
:1023E000184639B930230370002300F8013FC01BA1
:1023F000BDE8F88F03F8011BF0E73846F2E7640008
:102400002046FDF74FFED9F80810804622461DF001
:1024100081F93846394608EB0402A6F13A03A2F1E5
:10242000020C0026E045644639D93036392E0C4678
:1024300088BFF61804F8016B4646B242B44638D855
:10244000BBF1000F0AD00126A4EB000CBCF1030F76
:1024500002BF8C1C81F801B02046F6B14046FDF762
:1024600049FE5DB128461DF0D3F92A18611E1346B6
:10247000AB4229D8954288BF0020044499F8003027
:10248000DB0744BF2D2304F8013B3B46621E9A4202
:102490001FD800232370E01BAAE72146BFE724884A
:1024A00044EA0646B6FBFAF42CF802490AFB146625
:1024B000B8E7BCF800C00236BCF1000FBDD0BBF1DC
:1024C000000FEAD00026BFE713F8016D01F8016F95
:1024D000CEE71978107803F8010B02F80119D6E756
:1024E000D0E9023293423DBF5A1C826018784FF007
:1024F000FF307047036810B5044613B14068FDF71C
:10250000F9FD2046BDE81040FDF7F4BDF8B50546DD
:1025100010200C461F461646FDF7C4FD054B84608F
:10252000C0E900743444C4606B60034B2860AB6046
:10253000F8BD00BFE1240208F52402080369272B37
:102540001DD0222B1BD0752B03D023F01002622A42
:1025500010D14269272A12D0222A10D0722B09D119
:10256000622A0ED18069272809D0A0F1220358429F
:1025700058417047622B04D14369722BF1E7012067
:1025800070470020704702690A2A10B5044622D11C
:10259000C3690133C3610123236263692361A369B2
:1025A0006361D4E9010398476369A0610D2B07D1EA
:1025B0000A239842636103D1D4E901039847A061DB
:1025C000A369013306D163695A1C03D00A2B1CBFCF
:1025D0000A23A36110BD036A092A04BF073323F04D
:1025E00007030133D8E770B504460D46002620697D
:1025F000431C01D1304670BD0A2808D115B1A36A29
:10260000002BF7D02046FFF7BEFF0126EFE7FEF7CD
:10261000E9FD18B12046FFF7B6FFE8E72369232B51
:1026200008D12046FFF7AFFF23695A1CDFD00A2BE1
:10263000F7D1DCE75C2BDDD163690A2BDAD12046C8
:10264000FFF7A1FFE6E700002DE9F74F0446002160
:102650008164FFF7C8FF656AE369A363002D236AFD
:10266000E36307DA062384F840300135656203B07E
:10267000BDE8F08F04D0052384F84030013DF5E734
:10268000002834D0A26A92BB042284F84020D4E906
:102690000C205D1E6FF00043D11830F811108D42F0
:1026A000E5D019D9E16A8A4207D308314900FDF71C
:1026B00014FDE36A60630833E362D4E90C32591C09
:1026C000216322F81350636A01336362CFE7013A52
:1026D0002263626A013A6262226BD11830F81110EB
:1026E0008D42F4D3C3D0022384F84030BFE7216980
:1026F000481C01D10023F7E72046FFF71FFF009099
:10270000002800F05881002384F8403004F144068A
:102710002369752B5CD0622B4ED16369722B009BB1
:1027200015BF4FF000089846012702270B2394F8A5
:102730004020002A53D184F840303FB12046FFF7B3
:1027400022FF022F02D12046FFF71DFF23692046FA
:10275000222B14BF4FF0270A4FF0220AFFF713FF76
:10276000236953453ED163699A453BD12046FFF723
:102770000AFF2046FFF707FF4FF003090027D4F8B0
:1027800010B0BBF1FF3F00F01081B9F1010F03D190
:10279000BBF10A0F00F009814F4526D33946304678
:1027A000FEF7BFFC01212046FFF71DFF2046FFF783
:1027B000C5FE0028ACD15AE7722B0ED16369DDF853
:1027C0000080622B15BF012702270A230B23AEE7E7
:1027D00001270A234FF00008A9E72F46F9E79A429C
:1027E000ABD044E74FF00109C8E7DA4508D15146BC
:1027F00030460137FEF73FFC2046FFF7C4FEBEE738
:10280000BBF15C0F40F0CB802046FFF7BCFE276990
:10281000B8F1000F05D05C213046FEF72CFCBB461A
:102820009DE0782F06D85B2F0BD8222F7AD055D871
:102830000A2F51D0A7F1300BBBF1070FEBD80327BC
:10284000A1E0A7F15C021C2AF4D801A353F822F0FE
:1028500025290208352802083528020835280208EB
:1028600035280208C5280208F7280208352802087A
:1028700035280208352802080F29020835280208E1
:1028800035280208352802083528020835280208AC
:1028900035280208352802080329020835280208CD
:1028A0003528020835280208F128020835280208D0
:1028B000FD280208152902080929020835280208FE
:1028C000752902084FF0070B94F840300A2B61D1AC
:1028D00059463046FEF7CFFB00278DE7552F19D01C
:1028E000A8D8272F1ED04E2FA4D1B54809F000FF3D
:1028F0004FF00D0BE8E74FF0080BE5E74FF0090B41
:10290000E2E74FF00A0BDFE74FF00B0BDCE74FF08D
:102910000C0BD9E794F840200B2A05D15C213046F6
:10292000FEF7A9FBBB46CFE7752F0CBF042708278E
:102930004FF0000B11E02046FFF725FE22690192BF
:102940001046FEF76DFC002800F05081019A1046F9
:10295000FEF7A6FC4FEA0B1B8344013FEBD2BBF111
:10296000FF3FB9D0BBF5881FAED34FF0010384F809
:102970004030B1E70227DBE72046FFF704FE22697B
:10298000303A02EBCB0B6269303A072AE7D8013FB5
:10299000F2D1E4E7BBF1FF0FE7D80B2BE5D15FFAEB
:1029A0008BF13046FEF760FB96E74F453CBF0322B4
:1029B00084F84020F2E60846FEF71EFC0646206931
:1029C0001EB95F2801D07F283ED9072384F8403004
:1029D00004F14405C1B22846FEF746FB2046FFF746
:1029E000D2FD2069421C1BD12846FEF72EFB754FF5
:1029F0000646002557F8041B30461CF017FF002838
:102A00001CD10D35EDB2102D84F840507FF42FAE5F
:102A10006D4BD3F8E031002B0CBF0F230D2363E681
:102A2000FEF7EAFB40B920695F2805D07F2803D86C
:102A3000FEF7ECFB0028D7D0217CCCE7FFF617AEE1
:102A40000135242DD6D112E6FEF7E0FB68B32169EB
:102A50002E2935D1092384F8403004F14405284655
:102A6000FEF709FB2046FFF78EFD09272069431C6E
:102A70003FF4FDAD002E35D120F02003452B31D1A0
:102A80006521284684F84070FEF7F5FA2046FFF7E6
:102A90007AFD21692B2901D02D29E7D12846FEF79F
:102AA000EAFA2046FFF76FFDE0E723692E2B04D1F9
:102AB0006069FEF7ABFB0028C9D1444D002631E028
:102AC0000823302984F84030C7D1636943F02003DC
:102AD000623B162B9EBF3E4DDD4005F0010505F023
:102AE0000106BAE7FEF788FB28B121692E290DD12E
:102AF00084F84070D2E72069FEF788FB0028F4D103
:102B000023692E2BF1D05F2BCBD0B0E521F0200331
:102B10004A2BC3D1ECE7652F01D0632F00D10135DB
:102B2000013601352F7817B12369BB42F3D1204616
:102B3000FFF729FD0FB90123D6E5212F07D123691E
:102B40003D2BF8D12046FFF71EFD3823CCE52E2F74
:102B50000FD123692E2B02D163692E2B01D05B2369
:102B6000C2E52046FFF70FFD2046FFF70CFD0C23C2
:102B7000BAE50335334615F8027C632F0FD0652F75
:102B80000DD0144AD35C84F8403003F0FB02532A82
:102B900001D0552B20D1A36A0133A36267E515F854
:102BA000012C2169914206F1010607D12046FFF769
:102BB000EAFC3346652FE4D00235DCE7632FFAE701
:102BC0001F8D0508E08D0508805C0020DA8C050863
:102BD00001204000B48D050803F0FD02542A02D004
:102BE000582B7FF444ADA36A013BD6E74FF00103B5
:102BF00084F84030834667E67FB5064601AD542031
:102C000085E80E00FDF74EFA0446034695E80700F6
:102C100043F8046B83E8070001236FF00102C4E965
:102C2000073200250A22C4E90B23C4E90955142000
:102C3000FDF738FA2021606304F14400FEF78DF9B6
:102C4000636B20461D80C4E905552561FFF79BFC99
:102C50002046FFF798FC2046FFF795FC2046FFF73B
:102C6000F3FCE36B012B18BF0523204618BF84F843
:102C7000403004B070BD30B585B001AC054620468B
:102C8000FFF744FC94E80E002846FFF7B5FF05B0B7
:102C900030BD30B585B001AC0146054620461CF07C
:102CA000AFF82846FEF758F894E80E00FFF7A4FFA7
:102CB00005B030BD10B5044670B1C3684068984790
:102CC00004F14400FEF778F9606BFDF713FA204633
:102CD000BDE81040FDF70EBA10BDD0E90432013B4B
:102CE000036152F8230070470369C94319444369DB
:102CF00053F821007047F8B5446A06460D46B4B152
:102D0000D4E900030B44834222D908310022014454
:102D10002046FDF7EDF90246B8B961682046083152
:102D2000FDF7E6F963682360336A63603462802DDF
:102D30002F4638BF802707F10800FDF7B3F90023BD
:102D4000076043600446706202E023682B442360FE
:102D500060680544656008342044F8BD38B5D0E9A2
:102D600003329A4204460D4608D310339900406955
:102D7000FDF7B3F9E36860611033E360D4E904322E
:102D8000591C216142F8235038BDF8B504461D4650
:102D9000D0E9000383420F46164608D31030C10025
:102DA000A068FDF79AF92368A06010332360D4E986
:102DB0000103421C626053F8301067F3170143F8B7
:102DC000301003EBC002D6705560F8BD10B48469B2
:102DD000CAB20023A16B5DF8044BFFF7D6BF000019
:102DE000F7B5866996F84030072B05460F461ED189
:102DF000D6E91210FDF71EFF902F04460ED1C10038
:102E0000002241F0020105F1280009F0CFFF28B1AE
:102E10004468E3071FD544F0010102E0210141F0BD
:102E20000201284603B0BDE8F040FFF797BF082B2A
:102E300007D1D6E9121033460022E0F759F80446CC
:102E4000E7E7092B13D10096D6E9121000230122DF
:102E5000E0F7CCF804460C212846B66BFFF74BFF91
:102E60004FF49D73C0E9013401460660D9E7A3F130
:102E70000A02012A1CD8D6E912100A290BD8FDF73C
:102E8000D9FE96F8403048B10A2B0CBF06230A231E
:102E900043EA0011C5E7FDF79DFEF2E7064C07483F
:102EA000D6E912210A2B08BF20460FF0D9FBD1E743
:102EB000190141F00E01B4E748BF0508E4BC05085C
:102EC000DE2807D010F0010306D043080CBF012014
:102ED000002070470120704718467047FE2807D031
:102EE00010F0010306D0430814BF012000207047F2
:102EF000012070471846704710F0010204D040F0DE
:102F00000100086001207047A8B110F003030FD141
:102F100002793A2A0ED183680B6013F00100F1D1D7
:102F20009A0708D11868044BC31A58425841704791
:102F30001046704718467047ECB105082DE9F04F70
:102F40002D2A85B00446884616461D460BD1002121
:102F5000FFF7CAFE98B3810702D10379922B2ED0D6
:102F600005B0BDE8F08FA2F11E03012B5AD8A94687
:102F70002F460AE01E2E48D1FFF7B0FFC8B9104611
:102F8000FFF79EFF002808BF574607F1FF3AB9F147
:102F9000000F0ED009F1FF3949462046FFF7A4FE85
:102FA00023696169DB1B024641F82300B9F1000F78
:102FB000E0D10021514530D16D1A012DD0D0A6F1BC
:102FC0002303022B01D92A2E78D1691E2046FFF750
:102FD0008BFE01A9FFF790FF002859D0232E39D08E
:102FE000242E3AD0252E0CBF4FF018094FF022099D
:102FF000AF1E002F34DA002D40F06D81019EF307E3
:1030000040F16E8146F001011EE0FFF759FF0028F4
:10301000CFD11046FFF762FFB4E72046FFF75DFE11
:103020000131C7E7202ACAD10021FFF75DFE024621
:10303000FFF746FF60B91046FFF750FF0028BED0EB
:10304000DE212046FFF749FE2046FFF787FE87E78F
:10305000FE21F6E74FF01609CAE74FF01709C7E758
:1030600039462046FFF740FE02A9FFF745FF78B139
:10307000B9F1220F07D0DDE90112484609F04CF9F9
:10308000013F0190B5E702980DF045FA0028F2DA09
:10309000A91C89002046FFF72EFE46EA0526466059
:1030A0000146C0F8008000F10806002DCCD0204673
:1030B000FFF713FE013D46F82500F6E7A6F12603CB
:1030C000022B38D8691E2046FFF70EFE01A9FFF734
:1030D00013FF0028DCD0A5F10209B9F1000F8ADD49
:1030E00009F1FF312046FFF7FFFD02A9FFF704FFBA
:1030F0000028CDD049462046FFF7F6FDC0F3071063
:1031000000F0FD03412BC3D02338C7B202980DF065
:1031100002FA1A2F0AD80028BADBDDE90112384674
:1031200009F0FAF8A9F102090190D6E71E2FF4D9A7
:103130000028F2D1ACE7292E19D100212046FFF753
:10314000D3FD01A9FFF7D8FE0028A1D00121204618
:10315000FFF7CAFDC0F30710322818BF3E380199A7
:1031600014BFC0B2022008F09DFB019043E7052E7A
:1031700071D100212046FFF7B7FD0746002887D010
:1031800010F0030A05D1436803F0FE03562B3FF409
:103190007FAF01212046FFF7A7FD00F00F03022BB0
:1031A0007FF476AFBAF1000F7FF472AF3B792C2B2E
:1031B0007FF46EAFBB6803F00F02022A7FF468AFA2
:1031C0001B09482B7FF464AFFB68002B3FF460AF12
:1031D0009A077FF45DAF1A79302A7FF459AFD3F89C
:1031E00008B04FEA101902A95846FFF785FE68B9E2
:1031F000414942480BF0E0FFA1693A680968054679
:1032000053460CF09FF82846FCF726FF4FEAC90109
:10321000012241F0020104F1280009F0C7FD029BE0
:1032200043604846FDF7ACFD03785F2B20460BD189
:10323000FFF753FD2046FFF750FD002308221946F3
:103240002046FFF77BFE8BE6FFF747FD59462046F9
:10325000FFF784FD1CE72C2E7FF41AAF01212046D6
:10326000FFF742FD00F00F03022B02467FF410AF80
:1032700000212046FFF738FD00283FF409AF8707FB
:103280007FF406AF0379322B7FF402AF1109C90036
:1032900087681B48002241F0020109F087FD0028E1
:1032A0003FF4F6AE406802AA390908F01FFA029B03
:1032B000002B3FF4EDAED90707D49A077FF4E8AEB0
:1032C0001968104A91427FF4E3AE039A002A7FF412
:1032D000DFAE01938FE62046FFF7FFFC013D8AE653
:1032E0000C212046FFF707FD4FF49D73C0E901361E
:1032F00001460560A8E600BF708E0508ACAB050866
:10330000B48E0508ECB105080346006830B508B96D
:10331000106030BD840702D013600120F9E74468D3
:10332000E5B28D42F8D108301060200AF1E70000C4
:103330002DE9F04F93B00024402301904FF400702A
:103340000D460092CDE90534FCF7ACFE2023079032
:103350008020CDE90834FCF7A5FE2146CDE90A0519
:103360000FA8CDE90D4409F0EBFC009B002B49D0E0
:10337000022B0CBF3F222246A96BDFF8E0A20023FC
:1033800005A8FFF702FD0027069C002C00F06881CD
:10339000013C0799AC4E069401EBC40351F834107C
:1033A000DA785B68C1F31709A84911F802B0A84997
:1033B000895C632A88BF41F4807106EB41060BF0FB
:1033C000300110290BF00F081ED020294BD0002F00
:1033D00000F00D81B8F1020F40F0FC80012B18D0F5
:1033E00000211BF0010F03F1FF3006D074880AEAB8
:1033F0000404B4F5805F08BF5808012800D161B10A
:103400000346B3E03D22B7E72BB906EB43069845E8
:1034100005D80127B8E7002FF7D10027B4E73746D2
:1034200036F8021B01EA0A00B0F5805F0DD195F86D
:103430004000C1F30B01884213D105A81146FFF7E4
:10344000CFFC2846FFF700F9E7E70133434503D2F5
:10345000494605A8FFF799FC398805A8FFF7B6FC8F
:10346000DBE70133D3E78FB103F10041013936F8CF
:1034700011100AEA0101B1F5405F1ED1002105A833
:10348000CDE90232FFF76AFCDDE9023206EB4304C4
:10349000984526D8009B002B49D1002406EB48080C
:1034A0002746464567D1012F40F088801BF0400F2A
:1034B00000F08480002631467AE0012BA9D995F8E6
:1034C0004030052B40F0FA80624963480BF074FEEF
:1034D000AA6B2968044600230BF034FF2046FCF752
:1034E000BBFD274634F8021B01EA0A00B0F5805FF5
:1034F0001BD195F84000C9B2884212D1072807D1E4
:10350000114605A803930292FFF76AFCDDE9022346
:103510002846CDE90232FFF797F8029B039A013360
:10352000B6E7002B3FF475AFC9E7013390E7052AF2
:10353000B3D1002105A80292FFF7D6FB029A00281A
:10354000ABD1012105A8FFF7CFFB10F0030F029AC2
:1035500000F0BB8000F00F0002289ED005A8FFF706
:10356000BCFB05A8FFF7B9FB00230822494605A8C4
:10357000FFF7E4FC51E738F8023D03EA0A01B1F530
:10358000805F05D1DBB2072B8BD10134013788E78F
:10359000214605A80292FFF7A7FB029A00B1013766
:1035A00001347EE7FFF799FB0136002818BF01467A
:1035B000A64205A8F6D1FFF7D1FB2EE71BF0800F3E
:1035C00006D0002105A80292FFF7C8FB029A013439
:1035D0002346CBE7012B3FF41CAF13F001013FF46E
:1035E00000AFB8F1030F7FF46AAF0121F9E608EAF2
:1035F000030101F0010136F8114004EA0A00B0F5B8
:10360000805F17D195F84000C4F30B04A04203F18A
:1036100001040DD129B9114605A80292FFF7E0FB7C
:10362000029A02922846FFF70FF8029A2346DEE735
:103630002346CFE6494605A80133FFF7A6FB2146FE
:1036400005A8FFF7C3FB9FE6A08F0508F08E0508CD
:10365000289305087E8E0508A0A8050800F0FFFF46
:103660000FA809F081FB0E9850B14168224608313D
:10367000FCF73EFD0E9B5A681A600D9A5A600D9336
:1036800095F84030002B7FF41AAF099B002B3FF4D4
:1036900016AF0A9B07981B680C93FCF72BFD0A9842
:1036A000FCF728FD2846FFF705FBDDE90C01019B2F
:1036B00083E80300184613B0BDE8F08F022B01D158
:1036C000064902E70649074800E700283FF4E5AE4F
:1036D00003793A2B3FF442AFDFE600BF878E05083F
:1036E000AE8E0508ACAB050810B5406800B910BD3A
:1036F0004468FCF7FFFC2046F8E700002DE9F041A4
:10370000054630200E4690461F46FCF7E4FC072D88
:1037100004460570C660A0F8148001D0012D10D1B8
:10372000B268C2F30F12E28207F02CFB042320617F
:10373000678323852020FCF7B5FCE0622046BDE8C6
:10374000F081014B5A5DEEE7D893050810B50446A9
:10375000C06AFCF7CFFC2046BDE81040FCF7CABCAD
:1037600030B5458D04460022954201D8002030BD79
:10377000E36A03EBC20043688B42F8D00132F3E7FF
:1037800070B504460D461646FFF7EAFFC0B9238D13
:10379000628D9A4208D30633D900E06AFCF79DFC9B
:1037A000238DE06206332385638DE26A591C02EBA8
:1037B000C300618502F83360002343704380456095
:1037C00070BD034618465B68002BFBD1FFF7C8BFEE
:1037D000F8B544680E462CB9F8BD032BFCD1042380
:1037E0000370F9E7254628466D68002DF4D0776808
:1037F0003946FFF7B5FF0028F5D00378033B022BCD
:10380000EAD8052333701D46002239462046FFF7CB
:10381000B7FF0378002BE0D105706468F4E7436AD2
:103820005B8B012B1EBF0369C91801617047C36A16
:1038300010B50446DB6F806A9847A38B626A013338
:10384000D18C9BB29942A38338BFD38410BD838BA4
:1038500010B5013B8383C36A0446D3F88430806A81
:10386000984720460121BDE81040FFF7D8BFF7B5C3
:103870001E4659B111F0030511D14F68FCB29442B4
:103880000DD13F0A01F10804BD4201DB03B0F0BDD8
:1038900054F8041B01900135B0470198F4E7334612
:1038A00003B0BDE8F04018472DE9F04F2DED028B35
:1038B000044608EE102A83B00D4698461BB10B8BC8
:1038C00043F008030B8318EE103A2B84636A1A8BBB
:1038D00042F030021A831B78002B4CD1E36AA06AB5
:1038E000D3F8B46018EE102A43462946B44603B014
:1038F000BDEC028BBDE8F04F6047DB6A03EBC60B03
:1039000013F83630043B012B1DD84FF0000917E0A7
:10391000EB6A03EBC90213F83930052B0ED1DBF843
:1039200004105368994209D1E36ABBF802205B692D
:10393000A06A1F460023B8470AF1010A09F10109EC
:103940006B8D4B45E4DC0136636A5A8DB242D4DCA0
:10395000BAF1000FC2D0E36ACDF80080D3F8B860A6
:10396000A06A18EE103A52462946B04703B0BDECA3
:10397000028BBDE8F08F0026B246E5E7F8B50446B5
:103980000E4611461A4600238579476983714361C3
:103990000E4BFFF76CFFA368BBB9E18A51B1A28A55
:1039A00042B9E36AA06AD3F8A0309847E36AA06AF4
:1039B0005B6C9847A38AE28A31462046FFF774FF82
:1039C000003D18BF0125A5716761F8BD7D51020852
:1039D000024B89689D22FFF74ABF00BF555E02086F
:1039E000024B89686B22FFF742BF00BF914102087A
:1039F000C36A10B50446D3F88830806A002198471E
:103A0000E36AA06A5B6B0E219847E36AA06AD3F869
:103A1000CC300121984720460321BDE81040FFF734
:103A2000FEBE38B5C36A04469B6C806A0022984784
:103A3000E36AA06AD3F8C05000231A461946A84783
:103A40002046BDE83840FFF7D3BFC36A89685B6D85
:103A5000806A002209091847C36A89681B6C806A5A
:103A6000184710B50446084611462268FFF746FE7F
:103A7000636A436000238360236A0BB9206210BD30
:103A80001A469B68002BFBD19060F8E770B543792C
:103A9000012B05460C4606D1436A0A465B8B022180
:103AA000FFF7DFFF2061A268216928464C23BDE8AB
:103AB0007040FFF763BF70B513464279012A05468F
:103AC0000C4604D10A460721FFF7CBFFA061A66987
:103AD000E268284646233146FFF750FFF08A70BD62
:103AE0002DE9F04F87B0054600AF0C4611B9012112
:103AF000116015E011F003081BD10B79682B07D179
:103B0000CB681B0913608C68002CF0D04FF00108C3
:103B100004F00F03022B0FD12109B8F1000FE7D0F9
:103B2000EB6AA86A1B6B002298471C37BD46BDE8AC
:103B3000F08F4FF00008EBE7B8F1000F02D1A36857
:103B40001B09136063684FEA132904F1080309F1A4
:103B5000FF3AFB609B4600264E4526DB0AF1070331
:103B600023F00703ADEB030D6B461E464FF0000B31
:103B7000CB4522DB51461846FDF75CF8EB6A01465F
:103B80001B6BA86A00229847B8F1000FCDD00C3407
:103B900001264E45C9DA54F8041BEB6AA86A5B6D2E
:103BA0000022090998470136F3E75BF8040B000986
:103BB000FDF7E1F801368244CEE7BBF1000F03D0F8
:103BC0004FF02E0206F8012B7B60FB6853F8040BC4
:103BD000FB6007F114010009FDF7D7F87A69BA60B4
:103BE000014630461BF096FDBA687B6816440BF11F
:103BF000010BBDE731B1026801F00303134304BFB9
:103C00000B6803607047000038B583680D460446B2
:103C1000114653B905480BF0CFFA2946A06004F1CC
:103C20000C00BDE83840FFF7E5BF38BDACAB050878
:103C30002DE9F04F0E464162002142710161337857
:103C4000072B8DB00446154605D0814AFFF7DCFFEF
:103C50000DB0BDE8F08F012A06D0436B00F10802D9
:103C60001B68006B294698476379D6F80C90032BA4
:103C700010D10BAA462109F10C00FFF745FB636B3D
:103C80000B9A9B680146206B9847A368B083002B72
:103C900040F0AF80D9F81010C1B101F00F06022E2C
:103CA00010D10B09752B3DD006D83E2B3CD05E2B96
:103CB0000DD0684A2046C9E740F29A429342F8D1B3
:103CC000032604E0644A2046FFF79EFF0226D9F847
:103CD000143009930AAA192109A8FFF715FB4FF020
:103CE000000A0690069B9A4520D16379012B15D9CD
:103CF000636B206B5B68314698476379042B0DD169
:103D00000023606A03960293818B226BCDE9003118
:103D10000521D2E90232006907F04EF8A368002BB2
:103D200067D195E70026D2E70126D0E70A9B53F832
:103D30002A100B79082B4FEA8A0B02D10AF1010AEB
:103D4000D0E7052B01D0454AB4E7CB68002BFAD168
:103D50008B681A792C2AF6D19F6807F00F02022A85
:103D6000F1D1DB680593002BEDD09807EBD11B79DF
:103D7000302BE8D1059B0BAAA42103F10800FFF723
:103D8000C3FA3F09B7F56A7F80461BD1012805D1E8
:103D90000B9A136803F00F03022B04D0304A0A9BDE
:103DA00053F80B1086E72169012D01F1010323610E
:103DB0001AD01268636B206BDB681209984798B9B8
:103DC000284AECE740F2EA239F4216D1012803D1AA
:103DD0000B9B1968CA0701D4234AE0E7012D03D0E1
:103DE000206B491003F06DFAA368002BA6D0DDF814
:103DF0001490D9F80030E3602AE7B7F54B7F1CD167
:103E0000012804D90B9B196811F0010701D1174A49
:103E1000C5E7012DE8D049100B9B53F82720D307A5
:103E200001D4134ABBE7206B07915210013703F00E
:103E30004FFAB8450799EFD1D6E7012DD4D0636B7F
:103E40000246D3F810B0206B0B9B3946D847CBE71E
:103E5000DF930508F5930508F99305080194050813
:103E60000F9405081B9405081F9405082B9405085A
:103E70003D940508014AFFF7C7BE00BF48940508F6
:103E80000B79092B70B50CBF058B458B4FF6FF7373
:103E90009D42044602D1064AFFF7B6FEA18BE28B93
:103EA000E36AA06A9B6F8A1A2946BDE870401847EA
:103EB0005594050813B50446B9B101F00F03022B60
:103EC0000FD10A091046019208F0B4FD0028019AAA
:103ED00005DA074907480BF0F9F9A060002002B0A5
:103EE00010BD054AFFF790FEF8E70846F7E700BF68
:103EF0006E940508D8AC0508739405082DE9F843BD
:103F00000646406A048B14F002050F46904606D020
:103F1000334A39463046BDE8F843FFF775BE01F035
:103F20000F02022A17D1B37909097BB1C28B013282
:103F3000C2834FF00109002950D00022FFF720FC76
:103F400003780446002B35D0264AE2E7828B013203
:103F500082831D46EDE70A7942450D460BD18968FB
:103F6000B37909091BB1C38B0133C383E1E7838BA9
:103F700001338383DDE79A4214D1B579002DC7D18F
:103F80000123B371896849B301F00F02022A18BFF7
:103F90000D4644F0040418BFA968048309094FF0D2
:103FA0000309C8E7896844F00204090904834FF053
:103FB0000509C0E70323037080F80190736A5B8BE7
:103FC000032B0BD1B8F1480F08D13DB1E968304659
:103FD000FFF770FF637843EA00136370BDE8F8836E
:103FE000AE8E05087A9405084F234E22FFF786BF50
:103FF00049234822FFF782BF10B404460B4662797A
:10400000406A012A03D15DF8044BFFF7B9BBE16AAE
:1040100002461431A06A5DF8044B02F04BBC10B4A8
:10402000426A0446407901280B4604D15DF8044BEE
:10403000104602F031BCE16AA06A5DF8044B1C3105
:1040400002F038BC436A10B55A8B0446FFF733FDC3
:1040500001462046BDE81040FFF7E1BFF0B58D688E
:1040600005F00F030E2B85B004460E4606D0002D3A
:104070002FD0AB072DD12B79652B1DD102950025B3
:1040800003AA652102A8FFF73FF9039B002103EB78
:10409000800040F2BE52984214D1F26840F20E43C2
:1040A0009A4234D1636A1F78AFB1384A314620460C
:1040B000FFF7AAFD05B0F0BD622B0AD1AB680293F1
:1040C000ED68DDE753F8047B97420CBF0131033103
:1040D000E1E70021E1E7E36AA06A9B6B9847E36AA6
:1040E000A06ADB6B05219847E36AA06AD3F8A03089
:1040F0003A460121984703AA29462046FFF7F0FCDB
:10410000E36AA06A1B6B022239469847D2E7E36A4A
:10411000A06A9B6B984706F10C0002AA6A21FFF780
:10412000F3F800270646B742D4E90A0311D1D3F8C1
:10413000A030002231469847294603AA2046FFF7BF
:10414000CFFC0025B542D4E90A030BD11B6E98477A
:10415000B0E7029ADB6B52F827209168090998476B
:104160000137E0E7029A1B6B52F82570B96801220B
:10417000090901919847FB682BB901992046FFF77F
:104180004EFF0135DEE71909F8E700BF8494050802
:10419000C36A37B504460D469B6B806A0021984779
:1041A000E36AA06A5B6B0E21984701AA2946204664
:1041B000FFF796FC01992046FFF731FF03B030BDB1
:1041C00010B4426A0446407901280B4604D15DF8D8
:1041D000044B104602F060BBE16AA06A5DF8044B34
:1041E000243102F067BB000037B504460D46B1B17B
:1041F000CA0705D5C36A9B6B4910A06A98470EE0B1
:104200008B0731D001F00F05062D4FEA111308D0AE
:104210000A2D0CD0022D1FD11946FFF7EDFE03B079
:1042200030BDC26A806AD26B19469047F7E742797F
:10423000042A03D0C36A06211B6CDEE701A91846D5
:10424000FCF7A3FDE36A0199A46A1D6C0EF0AAFCB9
:1042500001462046A847E2E7042BE0D0C26A806A04
:10426000526BD9B29047DAE7C36A09681B69806A62
:1042700098472A79024B294653F822302046BDE759
:10428000B49505082DE9F14F0D46A90704461646D9
:1042900011D005F00F03022B16D1F2074FEA1511CA
:1042A00004D401B0BDE8F04FFFF7B9BE01B0BDE8DE
:1042B000F04FFFF7A1BE6968CBB22D2B7BD00BD896
:1042C000062B0DD02C2B12D0544A2946204601B083
:1042D000BDE8F04FFFF798BC2E2B7DD09D2BF3D17E
:1042E000002EF1D105F108030A0A002187E0022A15
:1042F00002D0A968FFF778FFEF68002FE4D017F02D
:104300000309E1D17B68DAB28E2AB8460DD1022EBC
:104310004FEA132805D007F1080A08F1FF3BD945F9
:1043200011DB08F1010857F8288098F80430312B88
:1043300024D1022E0FD1E36AA06A9B6E9847E36AEC
:104340001B6D012115E05AF8041B2046FFF74CFFB6
:1043500009F10109E3E7D8F808102046FFF744FF08
:10436000012EE36AECD1DB6DA06A9847E36A1B6D0E
:104370000021A06A01B0BDE8F04F1847322BA3D14D
:10438000012ED4E90A030CD19B6D9847E36AD8F853
:1043900008105B6D0022A06A090901B0BDE8F04F6A
:1043A0001847022E01D15B6E9847E36AD8F80810CF
:1043B0005B6D0122EFE7A868002885D0002A83D131
:1043C000C16839B311F0030324D14A68D6B2952EDF
:1043D00017D11A46816812E0002A7FF475AFA968E8
:1043E00029B90B4601B0BDE8F04F00F019B88B07B2
:1043F00003D10B79922B0846E2D000231A462046BF
:10440000F0E7962E03D101F10803120AE2E7AC2E81
:104410003FF45AAF00F10803022266E796940508BC
:104420002DE9F84F0E1E044690461F4614BF4FF06C
:1044300001094FF0000921D016F003051ED1337990
:10444000222B1BD1C36A806AD3F8B0302946984723
:104450004FF0000A08F1FF3BC24512D16B1C2DD171
:10446000E36AA06AD3F8AC3009EB0801984776BB41
:1044700007EB880847452DD1BDE8F88F4FF0FF3591
:10448000E6E757F82A1081B18A070ED10B79222B63
:104490000BD101350CD1E36AA06AD3F8B0300AEB36
:1044A0000905ABEB0A02294698470AF1010AD3E74E
:1044B00020460E4ABDE8F84FFFF7A6BB002ED7D026
:1044C0002DB9B1682A462046FFF7DCFED0E700226E
:1044D0003146F8E757F8041BA94508BF8968002250
:1044E0002046FFF7CFFE09F10109C3E7A1940508B3
:1044F0002DE9F74F04460D4616461F462846FEF79F
:10450000DFFC20B1CEB9E36A3946DB6E4CE02846C9
:10451000FEF7E4FC08B186B1F5E7002D55D0AB07F6
:1045200053D16B684FEA132BDBB21E2B1BD1F6B1B4
:10453000083505EB8B0B5D450DD103B0BDE8F08F61
:104540005AF8041B019243462046FFF7D1FF09F1B8
:104550000109019A19E055F8041B3B4632462046F2
:10456000FFF7C6FFE7E71F2B23D1002EE0D0D4F8DA
:10457000108008F1010323610BF1FF3305F1080AF4
:104580004FF00009009386F00102009B4B45D7DCF9
:104590000BF101013B4655F8211032462046FFF74A
:1045A000A7FFE36ADB6A4146A06A03B0BDE8F04FAB
:1045B0001847202B03D1AD6886F001069EE72D2B0E
:1045C00003D1AB68002BA6D19CE729462046FFF714
:1045D0000BFEE36AA06A1B6F3A46314603B0BDE8A2
:1045E000F04F18472DE9F04707691E46BB1C0361D1
:1045F000C36A04460D46DB6A806A3946904698478E
:10460000E36AA06AD3F88C3007F10109494698475C
:10461000A96800222046FFF735FE2D69002D2DD117
:1046200041462046FFF7E0FD636AE06A19780629F3
:104630001DD1D0F8CC30A06A2946984720460121E8
:10464000FFF7EDF8E36AA06A1B6E9847E36AA06A79
:10465000DB6E39469847E36AA06ADB6A49469847A9
:10466000E36AA06AD3F89030BDE8F0471847B2007B
:10467000D0F8A850A06A0532A847E7E72B79AD2B00
:1046800007D1A9683B4600222046FFF731FFED68BD
:10469000C4E7E9682046FFF7A7FDE36AA06AD3F8FC
:1046A000883001219847731C424629462046FFF76F
:1046B00099FFCBE7C36A2DE9F0410D464271002610
:1046C0000446114606611B6845622A46806A98477F
:1046D00006212046FFF7A3F86779012F08BF6E6215
:1046E000EE686EB1B2070BD133793F2B08D1B168B8
:1046F000FFF77AFDE36AA06AD3F8C43098472CE04C
:104700002B784BB931462046FFF76EFDE36A5B6BB1
:10471000A06A0E219847EDE7072B24D1012F12D173
:104720000023A371F1685F4B46222046FFF79FF8F4
:104730006B8B032B07D131692046FFF7BBFB2B8B1B
:1047400043EA8010288320467169FFF74DFDE36A34
:10475000A06A9B6898470028D8D0E36AA06A5B6883
:10476000BDE8F0411847022B1BD1E36A31681B6991
:10477000A06A98476379012B07D10023A371B16820
:10478000494B4C222046FFF772F8F1682046FFF7AC
:104790002BFD2B8BDB07ADD5E36AA06A1B6E984718
:1047A000B4E7033B032B4FD8012FD6F80C8005D17B
:1047B000606A03223946FEF7E3FFAF83E36A31689C
:1047C0001B69A06A98472B78032B24D1E36AD3F89E
:1047D000A0300122A06A002198472B78062B28D10F
:1047E000E36AA06A5B6C984701212046FFF704FC4E
:1047F000E36AA06A5B6C9847E36AA06A5B6C9847BF
:104800000023B26841462046FFF7ECFE2B78062BCA
:104810007FF470AF7AE7042B04D1E36A0222D3F865
:10482000A030D7E7052BD8D1E36A0322D3F8A03014
:10483000D0E720460121FFF7DFFBE36AA06AD3F847
:10484000883001219847DBE7012F04D103220A2198
:104850002846FEF795FF17212046FFF7CDFB1621CE
:104860002046FFF7DCFBB168E36AA06ADB6B09094D
:1048700098471A212046FFF7D2FB31692046FFF7FF
:10488000B3FC0A212846FEF76BFF0378032BE36A8B
:104890003FF43DAF5D694288A06A00230A21A84722
:1048A00028E700BFF13F0208E93F020838B5426A35
:1048B0001278072A04460B4606D0022A04D0BDE827
:1048C0003840144AFFF7A0B99D6885B9E36AA06A29
:1048D0005B6B0E219847E36AA06AD3F8CC300021C5
:1048E000984720460121BDE83840FEF798BFAB0746
:1048F0000BD12B79AF2B08D12046A968FFF774FCA8
:104900002046BDE83840FFF773B829462046FFF738
:104910006BFCE0E7A894050801F00F03022B70B5CB
:1049200004460D46164602D00B4AFFF76DF9314694
:104930002046FFF759FCE36AA06A9B6D9847666AB8
:104940003378033B032B9CBF7368636229092046BD
:10495000FFF765FB666270BD96940508D1E9021207
:10496000FFF7DABF70B54379CE68012B04461546D0
:1049700006D1436A0A465B8B2946FFF772F87061DD
:10498000002371691A462046FEF78EFFF168204623
:10499000FFF72AFC062D05D1E36AA06AD3F8883018
:1049A00000219847E36AA06AD3F8BC500023AC46C4
:1049B0001A46BDE870400121604700002DE9F04F24
:1049C00087B0CDE90221044605AAA42103A81F4609
:1049D000FEF79AFC4FF0000B0190D946DA465E468E
:1049E000D846019B9B451AD16EB1BAF1000F74D124
:1049F000E36AA06A5B6C9847B9F1000F73D1E36A70
:104A0000A06A5B6C9847029AD4E90A03002A70D026
:104A1000D3F8C040334642463946A04710E0059AD5
:104A200052F82B50002D49D0A80747D12A79A62A41
:104A30000FD1F10707D5304A29462046FFF7E4F8A1
:104A400007B0BDE8F08F46F00106AA460BF1010B56
:104A5000C7E7A72A07D1B20701D5284AECE746F0F5
:104A60000206A946F2E7A82A28D1EA686AB19307A4
:104A70000BD11179AA2906D19268A9682046FFF7BF
:104A80004BFF0137E2E7AC2912D0A96801F00F0211
:104A9000022A01D01A4ACFE7E26AA06AD26B09095A
:104AA0009047E9682046FFF79FFB08F10108CDE732
:104AB000062229462046FFF755FFE2E70EB1114ACC
:104AC000BAE7B8F1000F01D00F4AB5E729462046F2
:104AD000FFF78AFB01374646B8E7DAF808102046A8
:104AE000FFF782FB88E7D9F808102046FFF77CFB28
:104AF00089E7D3F8BC408DE7B3940508BA9405085C
:104B0000C2940508CF940508D894050870B50D46E1
:104B1000417901290446134603D12A46FEF7A1FF35
:104B20006861E36AA06ADB6C98476E6900231A46E5
:104B300031462046FEF7B8FEE36AF18ADB6BA06AD5
:104B40009847E96829B18B0703D10B79A32B08BFDC
:104B50000021204602230022FFF730FFF08A70BDBB
:104B6000436A10B55A8B0446FFF7D0FF0146204632
:104B7000BDE81040FFF753BA002389681A46FFF7D3
:104B80001DBF38B50C460546C968FFF72DFBA16867
:104B90002846BDE83840FFF727BB0B79342B70B5AA
:104BA00004460D4610D18968FFF71EFBED68AD681D
:104BB00085B9E36AA06A5B6B0E219847E36A042219
:104BC000D3F8A03002211AE0C36A806A5B6B0E2121
:104BD0009847ECE7AB071FD12B799A2B13D1E36AE7
:104BE000A06A5B6B0E219847A9680029E6D0204691
:104BF000FFF7FAFAE36AD3F8A03004220321A06A8F
:104C0000BDE8704018479B2B06D1A9682046FFF7E6
:104C1000EBFAEB689968E8E729462046FFF7E4FAE3
:104C2000CCE710B504468968FFF7DEFAE36AA06AAC
:104C30001B6DBDE810400021184700002DE9F74327
:104C40008D680446164645B9FAB1C36AD3F8A03058
:104C500002222946A06A984717E015F0030740F0A2
:104C600084802B79372B13D132B1C36A806AD3F891
:104C7000A03002220121984720462946FFF7B4FAC6
:104C8000E36AA06AD3F8A430984703B0BDE8F08384
:104C90009F2B6AD1EB681A79A12A56D1A22101AAC9
:104CA00003F10800FEF730FBA968804611B38B07BB
:104CB00020D10B79372B1DD136B1E36A411CD3F8D3
:104CC000A030A06A02229847A9682046FFF78CFA14
:104CD000E36AA06AD3F8A43098474FF0010947452A
:104CE0000ED1B9F1000FD0D1E36A0322D3F8A0307E
:104CF000791CAFE72046FFF777FA4FF00009EEE79F
:104D0000019B53F8271099B18E0711D10E79A6F1A6
:104D10003700464246412046FFF766FAB9F1000FD8
:104D20000FD03EB9164A29462046FEF76DFFACE784
:104D30000026F0E7E36AA06AD3F8A4309847013769
:104D4000CDE7002EFBD00F4AEDE7AB684BB19A07D9
:104D500007D11B79372B04D104222946FFF702FE25
:104D600093E7052229462046F8E729462046FFF723
:104D70003BFAE36A0322D3F8A03001216AE700BFBF
:104D8000DF940508ED9405080122FFF757BF2DE9D0
:104D9000F041064615460C4611B1FFF725FA0124ED
:104DA0003DB16F684FF000083F0A0835B84509DB90
:104DB0003C44F36AB06AD3F8A03021460022BDE833
:104DC000F041184755F8041B3046FFF70DFA08F17B
:104DD0000108EBE70A460021FFF7D9BF2DE9F743A9
:104DE0000C4689680546FFF7FFF9E668002E58D0A3
:104DF0007768696AFBB209788E2BA36819BF04F142
:104E00000C0601273F0A0836072903F00F024DD18F
:104E1000022A49D11A099A2A4AD1326811793029CD
:104E200046D19268002A43D10A212846FFF7E4F8C8
:104E30006A6AD36A528D3AB9424A3168284603B049
:104E4000BDE8F043FEF7E0BE5978C9070FD55968B1
:104E50002846FFF7D1F8022FEB6A0BD8D3F8BC40F5
:104E6000A86A00231A460221A047012417E0013A4C
:104E70000833E0E7726811793229EFD1B4682179FB
:104E80003029EBD191689B6CA86A012209099847E7
:104E9000A168002301222846FFF790FD0324A742C2
:104EA00027D803B0BDE8F0830024F8E7022AFBD13D
:104EB00040F29F22B2EB131FF6D133681A79302AE1
:104EC000F2D19C68002CEAD014F00302ECD12379D3
:104ED0002F2BE9D1EB6AA86AD3F8BC4001921346A4
:104EE0001146A0473368019A99682846FFF7A6FE45
:104EF000BBE704F10108B84556F824104FEA8403D3
:104F00001AD20A79322A17D13344D3F8049099F887
:104F10000430302B10D18968EB6AA86A9B6C0022A0
:104F200009099847D9F80810002301222846FFF7FD
:104F300045FD08F10104B2E72846FFF755F9A04600
:104F4000F7E700BFF894050810B5426A1278072AFF
:104F500004460B4606D0022A04D0BDE81040064A9B
:104F6000FEF752BE20461946FFF738FF2046BDE83F
:104F70001040FEF73DBD00BF0B95050870B50D460E
:104F8000C9680446FFF730F9A968E36AA06AD3F854
:104F90009830C1F30711322918BF3E39BDE870407F
:104FA00014BFC9B202211847F8B54F680C4689688A
:104FB0000546FFF719F93F0A0C3400260236B742BE
:104FC00004F1080400DCF8BD54F8041C2846FFF77F
:104FD0000BF954F8081CEB6AA86AD3F89C3009094D
:104FE0002339C9B29847E9E72DE9F0414E680C46EC
:104FF00089680546FFF7F8F8A6F10D085FFA88F80A
:10500000360A0C340127B74201DBBDE8F08154F8C1
:10501000041B2846FFF7E8F8EB6AA86AD3F89C302F
:10502000414698470137EEE72DE9F0414E680446C6
:105030000D46360A8968FFF7D7F8032E83BFD4F8E8
:10504000108008F1010323614FF0000801277B1C49
:105050009E4222DC032E55DD2569A06A6B1C23616C
:10506000E36A2946DB6E9847E36AA06ADB6A414639
:105070009847E36AA06ADB6801219847E36AA06A5F
:105080005B6E9847E36AA06A1B6E9847E36AA06A62
:10509000DB6A2946BDE8F0411847296920460237F6
:1050A000FFF7A2F8B74207DAE36AA06A9B6D984758
:1050B000E36AA06A9B6E9847EB68E26AA06AD2F83E
:1050C0009C2003F00F010E2911D1C3F30713242BE9
:1050D0001ABF333BD9B206219047B74205DAE36ADB
:1050E000A06A5B6F4246002198470835AFE71979FF
:1050F000852901D13221EFE79B680BB90721EBE746
:105100003321E9E7BDE8F08110B504468968FFF76F
:105110006BF8E36AA06AD3F89830BDE81040032129
:1051200018472DE9F0474E68D0F810805FFA86F9ED
:10513000A9F11E03D3F1000949EB030908F10103AA
:1051400004460361360A01F108050027B74206DB71
:10515000E36AA06ADB6A4146BDE8F047184755F8A4
:10516000041B20460137FFF73FF8B742F0DAE36A45
:10517000A06A5B6F424649469847E7E701F00F0394
:10518000022B70B504460FD00B79492B01D04F2B61
:1051900002D10123A37170BD4A2BFCD0502BFAD051
:1051A000482B0DD10D696DB9A379002BF3D1E38A9A
:1051B000002BF0D020461D4ABDE87040FEF724BD0C
:1051C000CD68F0E7A37943B3A38A8E6801339BB21D
:1051D000012BA3820ED1E18AD4E90A03D1B1D3F81D
:1051E000A03000229847E36AA06AD3F8A0300222D8
:1051F0000021984729462046FEF7F6FFE36AA06A99
:10520000DB6B31099847E36AA06AD3F8A430BDE8A4
:10521000704018475B6C9847E5E7E38A0133E38207
:1052200029462046BDE87040FEF7DEBF169505080A
:105230002DE9F0410569D1F80C80AB1C03610E46E5
:10524000044600222B46D8F80810FFF751F9B16840
:105250002046FEF7C9FFE36AA06ADB6E6F1C394681
:105260009847E36AA06ADB6A29469847E36AA06A1E
:10527000DB684FF0FF319847D8F80C102046FEF756
:10528000B3FFE36AA06ADB6A3946BDE8F04118471C
:105290002DE9F7430446904699460F4629B9194629
:1052A00003B0BDE8F043FEF79FBF0669731C0361BE
:1052B00015684DB315F0030226D12B797B2B23D132
:1052C000A9680192FEF790FF019A31462046FEF749
:1052D000AEFA019AE9682046FEF7D4FF08F104020D
:1052E0004B46791E2046FFF7D3FFE36AA06AD3F846
:1052F00080303146984703212046FEF790FA03B0EC
:10530000BDE8F043FEF7A3BA29462046FEF76CFF3E
:10531000204600223146FEF78AFAE36AA06A1B6E35
:105320009847DBE737B50C46054601AA7A2104F118
:105330000800FDF7E9FFE368019A01462846FFF7F8
:10534000A7FF03B030BD00002DE9F04F2DED028B1B
:1053500083B0056901921E460E9B08EE103AAB1C05
:10536000044603610F4601222946FEF760FA3946DA
:105370002046FEF739FFE36AA06AD3F8943005F1BE
:10538000010A002251469847E36AA06ADB6A29466F
:105390009847E36AA06AD3F8D0309847D4F81080D1
:1053A00008F1010323610027019B9F421BDB20467C
:1053B000FEF74DFAE36AA06AD3F8D4309847E36A5F
:1053C000A06ADB6A5146984718EE101A2046FEF78D
:1053D0000BFFE36AA06ADB6A414603B0BDEC028BB7
:1053E000BDE8F04F18473346D4F810901A68009281
:1053F00009F101022261009AD2F808B0043601379F
:10540000BBF1000F47D1019ABA4237D1E36AA06AD3
:105410001B6E98470025AB46009B2046D968FEF7D7
:10542000E3FECDB1E26AA06A526B0E219047E26AB8
:10543000A06AD26A59469047E36AA06A5B6B0E2164
:10544000984729462046FEF7EAFD20462946FEF702
:10545000B7FE2046FEF7FBF9E36AA06AD3F8943062
:10546000012241469847E36AA06ADB6A49469847A9
:10547000E36AA06ADB680121984795E720461F4A46
:105480001968FEF7C1FB204603B0BDEC028BBDE8F6
:10549000F04FFEF7DCB91BF003052DD19BF804207B
:1054A000762A5B4603D1DD68DBF808B02D09E36A94
:1054B000A06A9B6D984759462046FEF795FEE36A21
:1054C000A06AD3F89C3008219847E36AA06A1B6F52
:1054D0004A4600219847002D98D029462046FEF7DD
:1054E0009EFDD4F810B00BF1010222615946022250
:1054F0002046FEF79CF98FE70025D8E7349505088C
:105500002DE9F043076985B016467A1C02610D4605
:10551000022239460393DDE90C980446FEF787F929
:10552000039B16BBE36AA06ADB6803219847294600
:105530002046FEF759FEE36AA06ADB686FF00201BD
:105540009847E36AA06A5B6B0E219847E36AA06AFA
:10555000DB6A3946984720464146FEF745FE20461D
:1055600005B0BDE8F043FEF772B9CDF800903246C1
:1055700029462046FFF7E8FEE3E77FB5CD682B79A3
:10558000782B06460C4609D1AB68019300230093A3
:1055900089681A46FFF7B4FF04B070BD742B03AAE4
:1055A0004FF0770116D105F10800FDF7ADFE2B692C
:1055B00002463BB9EB680093A168039B3046FFF7B6
:1055C000C3FEE9E79B680193EB680093A168039B26
:1055D0003046DFE704F10C00FDF796FE002302469B
:1055E000E9E72DE9F04F8B682DED028B03F00F03F7
:1055F000022B87B004460E4640F00381CB68002B97
:1056000000F0FF80980740F0FC801A792C2A40F0C7
:10561000F8809A6802F00F01022940F0F280120926
:105620007C2A40F0EE80DB681A79302A40F0E9806D
:105630009B68049305AAA42104A8FDF765FE431EF8
:10564000022B00F2DE80059901280A6800F0CB8069
:105650000228D1F804A000F021818D68E90740F10B
:10566000D0806B0800F0CD8032B1930704D111795E
:10567000A639022940F2C580BAF1000F08D01AF00D
:10568000030F05D19AF80410A639022940F2B98017
:10569000B3687769A18B08EE103A3369266908EE82
:1056A000903AA3690293E38B0193E183731C311D4C
:1056B0001AF0010B039306F102082683638306F1B7
:1056C0000309216105D1514620460392FEF78CFD66
:1056D000039A11462046FEF787FDE26AA06AD26E61
:1056E00049469047E26AA06AD26A41469047E26A18
:1056F000A06A926D9047002218EE101A2046FEF71D
:10570000C1FD18EE901A2046FEF76EFDE26AA06A0F
:10571000D26A711C904729462046FEF765FDE26A71
:10572000A06AD2F89C200E219047E26AA06AD26A51
:1057300049469047E26ABBF1000F58D1D36DA06A89
:105740009847E36AA06A5B6E9847E36AA06AD3F859
:105750009C30002DACBF002101219847E36AA06A6C
:105760001B6F424601219847029BA361019BE38383
:10577000002F44D0E36AA06A1B6E9847BBF1000F6C
:1057800003D1E36AA06A1B6E984739462046FEF7AC
:105790002BFD2569A06A6B1C2361E36A2946DB6E39
:1057A0009847E36AA06ADB688BF0010101319847F2
:1057B000E36AA06ADB6A31469847E36AA06A1B6E17
:1057C0009847BBF1000F03D1E36AA06A1B6E9847AC
:1057D00027B1E36AA06ADB6A2946984707B0BDECA7
:1057E000028BBDE8F08F92460325024644E7A06A8B
:1057F000926D904751462046FEF7F6FCA5E73D46E0
:10580000D6E72569A38BB4F81E90E3836FEA45437E
:105810006FEA5343D4F818A02383EB1C23616F1C59
:10582000F16867832046FEF7DFFCE36AA06AD3F8DD
:10583000883001219847E36AA06ADB6A39469847B5
:10584000E36AA06AD3F88C3005F102084146984714
:10585000B16800222046FEF715FD20463169FEF7AB
:10586000C3FCE36AA06A9B68984720B9E36AA06A10
:10587000DB6E39469847E36AA06ADB6A414698477F
:10588000E36AA06AD3F8903098477169C4F818A009
:10589000A4F81E902046FEF7A7FC9AE70325E3E64E
:1058A0002DE9F0470669D0F818A0B0F81E900683DD
:1058B000B31C036106F10108838BA0F81A8004462B
:1058C000C38388680D46FDF7FBFAF8B927697B1C8E
:1058D0002361A868FDF702FB20B9E36AA06ADB6ECA
:1058E00041469847E36AA06ADB6A39469847E96807
:1058F0002046FEF779FCE36AA06ADB6A41469847D6
:10590000A9683B4601222046FEF7F2FD2969C4F84A
:1059100018A02046A4F81E90FEF766FCE36AA06A71
:10592000DB6A3146BDE8F04718472DE9F3470669C1
:10593000731C0361044688680D46FDF7C1FA0246F0
:1059400010BB27697B1C2361A9683B462046FEF7F4
:10595000CFFD2046E968FEF747FCA868FDF7BEFAD0
:1059600000BB2B690BB96B694BB1E36AA06A9B68FA
:10597000984720B9E36AA06ADB6E31469847E36A2C
:10598000A06ADB6A3946984701AA712105F1100027
:10599000FDF7BAFC002781464F450BD169692046C7
:1059A000FEF722FCE36AA06ADB6A3146984702B040
:1059B000BDE8F087019B53F82780D8F80800FDF771
:1059C0007FFA024620BBD4F810A00AF1010323613C
:1059D000D8F8081053462046FEF78AFD2046D8F82E
:1059E0000C10FEF701FCD8F80800FDF777FA002844
:1059F000D8D1E36AA06A9B68984720B9E36AA06A95
:105A0000DB6E31469847E36AA06ADB6A51469847E5
:105A10000137C1E72DE9F74F044690460F4629B9F3
:105A2000194603B0BDE8F04FFEF7DEBB0669321D34
:105A30000261D8F8005006F1010A06F1020B06F1E6
:105A40000309002D00F0F28015F0030240F0EE8013
:105A500029797B2940F0EA80A968CDE90032FEF778
:105A6000C3FBE16AA06A896D8847A8212046FDF73B
:105A7000D8FF019AE9682046FEF704FC009B0093DA
:105A8000314620460222FDF7D2FEE26AA06AD268C1
:105A90000321904708F10402009B791E2046FFF77E
:105AA000B9FFE36AA06ADB686FF002019847E36A16
:105AB000A06A5B6B0E219847E36AA06A5B6E984709
:105AC000E36AA06ADB6E51469847E36AA06ADB6A24
:105AD00031469847E36AA06A9B6D9847E36AA06ADB
:105AE0009B69012221219847E36AA06AD3F89C3080
:105AF00008219847E36AA06A1B6F5A46002198471D
:105B0000E36AA06A9B6D9847E36AA06A9B6E984718
:105B1000E36AA06A5B6E9847E36AA06A9B6C002206
:105B2000A9219847E36AA06A9B6E9847E36AA06A36
:105B30009B6E9847E36AA06A9B6D9847E36AA06AE8
:105B40005B6D00220A219847E36AA06A5B6E984762
:105B5000E36AA06A5B6B0E219847E36AA06AD3F8F8
:105B6000C05000231A460321A8472046FDF740FFF6
:105B7000E36AA06A1B6F4A4600219847E36AA06A5D
:105B80001B6E9847E36AA06A5B6B0E219847E36A35
:105B9000A06ADB6E49469847E36AA06ADB68022187
:105BA0009847E36AA06ADB6A59469847E36AA06AA5
:105BB0009B6E9847E36AA06A9B6E9847E36AA06A67
:105BC000DB6A51469847E36AA06A9B6C0022A921D0
:105BD0009847E36AA06A5B6B0E219847E36AA06A64
:105BE0009B6D9847E36AA06A9B6D9847E36AA06A39
:105BF000D3F8C05000231A460321A8472046FDF7DA
:105C0000F7FEE36AA06A1B6E9847E36AA06ADB6846
:105C10004FF0FF319847E36AA06ADB6A494698472C
:105C2000204603B0BDE8F04FFDF711BE29462046DF
:105C30000093FEF7D9FAE26AA06A926D9047204677
:105C4000A821FDF7EEFEE26AA06A126E904715E702
:105C50002DE9F04F8D682B79032B87B004460AD1CC
:105C60002946FEF7EFF9AA69138B43F0010313836A
:105C700007B0BDE8F08F162B40F0AE800669EB68E8
:105C80004FEA1318331D0361E968FEF7ADFAE36AC2
:105C9000A06A9B6C0022AA219847E36AA06AD3F805
:105CA000C07000231A461946B84741462046FEF701
:105CB000B6F92769A3690293BA1C2261A28BE38B10
:105CC000E283E26A01937B1C63831946A06AD26A6D
:105CD000278306F1010B0393904701225946204682
:105CE000FDF7A5FD41462046FEF786F92046AC218A
:105CF000FDF797FEA96820460022FEF7C3FAE26A84
:105D0000A06AD2F8948006F1020949460022C047F1
:105D1000E26AA06AD26A59469047E26AA06AD2F85B
:105D2000D0209047E26AA06A926D9047E26AA06A2A
:105D3000D2F8188040F2BD210122C047E26AA06A71
:105D4000D2F89C2008219047E26AA06AD2F87080BD
:105D500006F1030A52460021C047E26AA06A126EA9
:105D60009047E26AA06AD2F8948031460122C04787
:105D7000E26AA06AD26A51469047E26AA06AD26893
:105D8000012190472046FDF762FDE26AA06AD2F841
:105D9000D4209047E26AA06AD26A494690472969AE
:105DA0002046FEF721FA039BE26AA06AD26E1946EA
:105DB0009047029BA361019BE383E36AA06ADB6ACD
:105DC0003146984769692046FEF70EFAE36AA06AF1
:105DD000DB6A394698474BE705AA7A2105F10800A6
:105DE000FDF792FAEB68059A01462046FFF712FE8E
:105DF0003EE770B58D6804463DB9C36AD3F8C83034
:105E00002946A06ABDE870401847AB070ED12B7930
:105E10005E2B0BD1A968FEF7E7F9E9682046FEF78B
:105E2000E3F9E36A0221D3F8C830EAE729462046BD
:105E3000FEF7DAF9E36A0121D3F8C830E1E710B5DB
:105E400004468968FEF7D0F9E36AA06A1B6EBDE8D4
:105E5000104018472DE9F7430C4604F00F03022BBE
:105E600005D1210903B0BDE8F043FEF7A9B9002C24
:105E70006FD0A2076DD123792C2B3DD1A168019061
:105E8000FEF7B2F9E5680198002D62D015F003071E
:105E90005FD16E68F2B28E2A2B4609D1360A05F11F
:105EA000080806F1FF39B94512DC013655F82630ED
:105EB0001A79312A14D199680190FEF795F9019861
:105EC000C36A806A1B6D022103B0BDE8F043184726
:105ED00058F8041B01900137FEF786F90198E2E7B4
:105EE000322A36D19968C36A806A5B6D0222090939
:105EF00003B0BDE8F04318472D2B2AD1A46844B362
:105F0000E568FDB1AB071DD16E68F2B2952A01D1EB
:105F1000A468A2E7962A13D1A1680190FFF79AFF1F
:105F2000360A08350024B442019802DB03B0BDE80C
:105F3000F08355F8041B01900134FFF78BFFF2E763
:105F4000AC2A06D0A1680190FFF784FFE4680198AD
:105F500083E7034A214603B0BDE8F043FDF754BE92
:105F60004C9505082DE9F041CD6804460E4635BB39
:105F70000379BBB1436A1D78A5B9CE21FEF73CF881
:105F8000B1682046FEF730F9E36AA06AD3F8BC6036
:105F90002A462B460121B047E36AA06A1B6EBDE882
:105FA000F0411847B168880700F0BC8001F00F038A
:105FB000022B40F0BE802046FEF716F9ECE7A90759
:105FC00040F0BB806B68DAB25B2A14D1ED68002D1B
:105FD00040F0B180406A0378072B40F0AA80B16896
:105FE00001F00F03022B40F0A480BDE8F041032232
:105FF0000909FDF7C5BB562A13D10122B168FEF786
:1060000041F9E9682046FEF7EFF8A968E36AA06A5B
:10601000D3F89C3009093D39C9B298470222B168CA
:106020007BE0572A40F087801B0A5F1E013355F83A
:106030002310FEF7D9F8002F03DDE36AA06A9B6DF9
:106040009847B16800222046FEF71CF90835002663
:10605000BE426EDA0136BE4203DAE36AA06A9B6D85
:10606000984755F8041B00222046FEF70BF9EFE78E
:106070006B68DAB2062A60D1B768002F5DD0BA0724
:106080005BD17A68D1B2062957D11B0AB3EB122F24
:106090004FEA122851D1A8F10203012B4DD8BB6859
:1060A00023B1980702D11B79222B46D0FB6823B17C
:1060B000990702D11B79222B3FD0B8F1020F06D0ED
:1060C0003B6923B19A0702D11B79222B35D0A968ED
:1060D0002046FEF789F8E9682046FEF785F8B8F112
:1060E000030F07D120462969FEF77EF8E36AA06A0C
:1060F0009B6E9847E36AA06A5B6E9847B968002276
:106100002046FEF7BFF8F96800222046FEF7BAF8ED
:10611000B8F1030F0DD1396900222046BDE8F041E6
:10612000FEF7B0B800293FF446AF0B793A2B7FF465
:1061300042AFBDE8F081AB079AD029462046FEF772
:1061400053F800226BE700002DE9F04F85B00446BC
:106150000191019BDFF81CA103F1080002AA422172
:10616000FDF7D2F8636A00265D8B8346B1465E4533
:106170000AD1019BD9680B79032B51D12A462046BD
:10618000FDF799FC054659E0029B53F82630009331
:1061900003AA6C2103F10800FDF7B6F8039B196808
:1061A0000A09732A07460DD02046FEF71DF84FF066
:1061B0000108B84528D3009BD96859B12046FEF79D
:1061C00013F807E0022807D052462046FDF71CFDD1
:1061D00009F101090136CAE759680B09412B0DD0B5
:1061E00040F2E73293420BD040F2B942934209D0D9
:1061F00040F2F5229342E7D10425E9E70125E7E7DC
:106200000546E5E70325E3E7039BA06A53F828105A
:10621000E36A00225B6D0909984708F10108C8E7A5
:10622000442B17D18E682A4631462046FDF743FCA1
:10623000B269138B43F00103054613830026ABEBD1
:106240000909B1450BD829462046FDF7E8FE05B0FF
:10625000BDE8F08F2A462046FEF758FC92E7E36A35
:10626000A06AD3F8BC7000231A460121B847013652
:10627000E7E700BF569505084B682DE9F041054654
:106280000E461F0A01F108080024BC4201DBBDE8EC
:10629000F08158F8041B2846FDF7A6FFAB6843B110
:1062A000023405F10C0056F82410BDE8F041FDF76A
:1062B000A1BC0134E9E710B50446FFF7DDFFE36A4E
:1062C000A06AD3F89C30BDE810402221184770B571
:1062D0008D68044645B9C36AD3F8A0300122294627
:1062E000A06ABDE870401847AA0739D12B79922BD4
:1062F00036D1EE6836B3B30724D13379952B08D164
:10630000A968FDF771FFE36A0122D3F8A0301146B6
:10631000E6E7962B0ED1A968FDF766FF31462046C9
:10632000FFF7AAFF7168E36A090A0122D3F8A030D7
:106330001144D5E7AC2B05D129460322BDE87040B6
:10634000FEF710BBA9682046FDF74EFFE96820461E
:10635000FDF74AFFE36A0122D3F8A0300221BFE72C
:1063600029462046CDE7896830B4044619B90A4663
:1063700030BCFEF70CBDCB688BB113F003020ED11D
:106380001D79952D01D18968F2E7962D01D11A4624
:10639000F9E7AC2D03D130BC0622FEF7E3BA0A467A
:1063A00020460021E4E70000184B2DE9F041D3F826
:1063B000E07104460D463FBB0669731C03618968A2
:1063C00033460122FEF794F8E36AA06A9B691F2115
:1063D00001229847E96851B12046FDF705FFE36ABD
:1063E000A06AD3F8BC503A463B460121A847E36A6D
:1063F000A06AD3F8C83001219847E36AA06ADB6A33
:106400003146BDE8F0411847BDE8F081805C0020CE
:106410002DE9F041426A1278072A044604D0BDE80B
:10642000F0411A4AFDF7F0BB8D685DB9C36A806A16
:106430005B6B0E219847E36AA06AD3F8C430BDE8CD
:10644000F041184715F003021DD12B791B2B1AD1EF
:106450000669EF68731C0361B9683346FEF748F8B4
:10646000A9682046FDF7C0FEE36AA06AD3F8C430ED
:106470009847E36AA06ADB6A31469847F968204684
:10648000FDF7B2FED7E72946F9E700BF6E9505088C
:106490002DE9F04F4379012B85B004460D460AD112
:1064A00091F80480B8F1100F08D0436A1B782BB91B
:1064B000234AFDF7A9FB05B0BDE8F08F03AA6D21C3
:1064C00005F10800FCF720FFDFF87890DFF878A0EE
:1064D000DFF878B007460026B742ECD0039B606A2D
:1064E00053F8261000220909FDF74AF9B8F1100FF8
:1064F0000378014613D113F0FD0F05D05A46294603
:106500002046FDF781FB08E0022303704168606AC2
:10651000FDF757F908B1022303700136DCE75BB9D8
:10652000012303700190606AFDF752F901990B781D
:10653000012BF2D15246E2E7052BEED04A46DEE7C8
:106540007A950508AA9505089D9505089095050872
:106550002DE9F04F91B00D461446804634220021BB
:1065600003A819F01DF94FF0FF330893A04BD8F89A
:10657000002093F8E4310295002102A88DF80C4028
:10658000FDF76FFA054600F04AFE9A4B0A9C0C9004
:1065900006460D93002724B1DDF81090B9F1000FE5
:1065A00024D00A9C14B1049B002B40D039463046BD
:1065B00000F038FEDFF840A2DDF82890DFF83CB2AA
:1065C0000024049AB9F1000F00F04081002A00F085
:1065D000F2800B9B05A8D968FDF70CFB0B9B059A75
:1065E000DB8A0299049808F0ADFE32E1638B042B3C
:1065F0004FF00102214602A807D1FDF719FB069BC7
:10660000A4689F4238BF1F46C5E7FEF753F8638D65
:106610009945F4D2E36A03EBC90113F83930012B31
:1066200002D12046FDF7D4F809F10109EFE7228BEA
:10663000520712D5618D01390FD3E26A02EBC10214
:10664000507810F0020F26D03BB1D3E900EC92E86D
:10665000030083E80300C2E900EC4FF00003638409
:106660004FF00009B4F82AE0F1451ADB00239E45FB
:1066700053D1D4F80490B9F1000F0AD0B9F82A30F8
:10668000019300200346019A904256DB002B40F014
:106690009080A46886E7002BCDD1012808BF13465F
:1066A000C9E72278D4F82CA0012A4FEAC9030AEBE3
:1066B000C90B06D1DBF804200A2A13D109F101091C
:1066C000D0E71AF839200DD9012A0BD14FF0020278
:1066D0000AF80320628B032A16D0228B42F01002A4
:1066E000228303E01AF80320022AF3D01AF80330B9
:1066F000032B03D09BF80130D907DFD5638C5A1CDC
:106700006284ABF80230D9E7DBF80400019306F0AD
:1067100091F90128019BE9DCDFE7E26A02EBC301A2
:1067200012F83320042A06D14A78D2075FBF628C60
:106730004A8001326284013399E7D9F82C2002EBB8
:10674000C00B12F83020043A012A17D84FF0000C81
:1067500012E0E26A02EBCC0A12F83C20052A09D1C9
:10676000DAF804201146DBF804208A4204BFAAF8B4
:10677000023001330CF1010CE645EAD1013082E729
:10678000E06A00EBC20110F83200052802D1487817
:10679000C00702D548881844488001329645EFD199
:1067A000A28B12FA83F2A283628C12FA83F36384BF
:1067B0006FE70022F2E7B9F81A20042A20D10E9AD6
:1067C0001AB9384604F080FA0E9000220C9249461D
:1067D000032202A8CDF83CB0FDF72AFA049A22B9A8
:1067E0000422494602A8FDF723FAD9F80890E8E602
:1067F000805C0020A096050868980508689A05083E
:10680000023A012A1ED82CB93A4606A904A803F078
:10681000A7FB0446CDE90C4A0222494602A8FDF72F
:1068200049FF049A002AE0D10322494602A8FDF755
:1068300041FF049A002AD8D10422494602A8FDF754
:1068400039FFD2E7134B0C960D93E5E7002A7FF44E
:10685000C0AE304600F0EEFC14B1204603F09FFBC2
:106860000E9808B104F045FA4046FCF73DFF2C694C
:106870002846AD68FCF76AFF002DF9D1049808B1ED
:10688000F9F7EAFB2A462946204604F0AFFA11B090
:10689000BDE8F08FA096050810B504460122FCF76C
:1068A0006FFF2378012B04D90378012B04BF032346
:1068B000037010BD37B504460D46104619460193C6
:1068C000FCF74EFF03780199012B06D16B6800227B
:1068D000204603B0BDE830401847022B02D16B6858
:1068E0000122F5E72D684288032B0CBF002301230A
:1068F0002046AC4603B0BDE83040604780790038A0
:1069000018BF012070474379012B09D083681944CF
:10691000C36881609A8C9142C8BF998400238371B7
:1069200070476FF00301FFF7EEBF0421FFF7EBBFE5
:106930006FF00201FFF7E7BF4379026A032B88BFBC
:10694000036B114494BF03469B18016218467047BD
:1069500010B50C460121FFF7EFFF047010BD42791E
:10696000836A032A88BF426A194484BFD218036B22
:10697000816294BF03469B181846704710B50C46B9
:106980000121FFF7ECFF047010BD38B51446FFF786
:10699000BAFF0121FFF7E3FF047038BD5322012144
:1069A000FFF7F3BF54220121FFF7EFBF5722012168
:1069B000FFF7EBBF58220221FFF7E7BF59224FF044
:1069C000FF31FFF7E2BF5A220021FFF7DEBF5B2253
:1069D0000021FFF7DABF5D224FF0FF31FFF7D5BF8F
:1069E000002915BF5F225E2203210021FFF7CDBFE2
:1069F0003039CAB20021FFF7C8BF62226FF001012F
:106A0000FFF7C3BF10B5632204464FF0FF31FFF715
:106A1000BCFF0123A37110BD01F16402D2B249424F
:106A2000FFF7B3BF10B501F167020446D2B2494285
:106A3000FFF7ABFFE268138B43F00103138310BD34
:106A400070B51C461546FFF75EFF0321FFF787FF71
:106A50004470240A0570847070BD012A10B40B467E
:106A6000044608D0022A0ED15DF8044B69224FF08B
:106A7000FF31FFF78ABF11461B322046D2B25DF8C4
:106A8000044BFFF7DDBF4FF0FF31F5E70B46102257
:106A90000121FFF7D5BF11320B46D2B20121FFF71A
:106AA000CFBF002A0B464FEA4201C1F1010114BFDA
:106AB00015221422FFF7C4BF16320B46D2B24FF094
:106AC000FF31FFF7BDBF19320B46D2B20021FFF7ED
:106AD000B7BFF8B516461F46FFF715FF4379032BDE
:106AE00081BF846AC369C4F5FF4453F8273088BF67
:106AF0007D344FF003018CBFE4180024FFF72FFF13
:106B00004470241206708470F8BD0B4642220021A6
:106B1000FFF7DFBFF8B516461F46FFF7F4FE4379CF
:106B2000032B81BF846AC369C4F1FF2404F57F0489
:106B300084BF53F82730FD344FF003018CBFE418B5
:106B40000024FFF70CFF4470240A06708470F8BD1F
:106B5000002A02F147020B46D2B20CBF02210021EB
:106B6000FFF7D8BF0B464B220121FFF7D3BF0B46DF
:106B70004A220021FFF7CEBF264BD3F8E031022B8B
:106B80002DE9F047044689460ED84669B1420BD933
:106B9000856A03698E1BED1A40F2FF7756EA0503FA
:106BA00004D1A36AC4E90439BDE8F087062E01D9EF
:106BB0000F2D1AD91F2DAA4628BF4FF01F0A554581
:106BC00010D8032EB04628BF4FF0030801212046FD
:106BD000FFF7B2FE4AEA48130370A5EB0A05A6EBDD
:106BE0000806DBE74FF00008F0E7BE42B0464FF082
:106BF000020128BFB8462046FFF79EFE4FEA181351
:106C000003F070032B4363F07F03037080F801806F
:106C1000AA46E2E7805C002038B50D460021FFF768
:106C200072FE4379012B05D0032B9EBFC369826A94
:106C300043F8252038BD23B50B46054611462AB931
:106C4000132202B0BDE82040FFF7FABE022A06D1A7
:106C50000193FFF7A3FE2846FFF7B5FE019B18221C
:106C60006FF001012846ECE710B5044631B9552212
:106C70004FF0FF31BDE81040FFF787BE022904D175
:106C8000FFF78CFE2046FFF7A2FE56226FF00201AE
:106C90002046EFE7134621B143224FF0FF31FFF7C3
:106CA00018BF4422F9E7134621B145224FF0FF31C6
:106CB000FFF70FBF4622F9E773B521F400430546FD
:106CC0000C461646D2B90A0410D559210193FFF794
:106CD00055FE59212846FFF751FE59212846FFF756
:106CE0004DFE59212846FFF749FE019B4222002113
:106CF000284602B0BDE87040FFF7EBBE40220021FD
:106D0000FFF7E7FE210A21F07F013143C9B228468F
:106D100002B0BDE87040FFF731BE322913B513D081
:106D2000332914D1012407212939CAB24FF0FF3188
:106D30000190FFF72AFE01985CB1D322002102B036
:106D4000BDE81040FFF721BE01240621ECE7002436
:106D5000EAE702B010BD4379012B70B5044626D096
:106D60000021FFF7F5FD626B236A00259B1A636320
:106D7000A563E068438D9D421AD3A38FE3876379AF
:106D8000032B25D1A36A206A6062E3621844F9F7F5
:106D9000A2F9E3682063988BDB8B1844A38F184417
:106DA000B4F8403018448000F9F795F9606470BD7C
:106DB000C36A03EBC50213F83530042B06D1917872
:106DC0002046FFF7C5FDA36B0133A3630135D0E770
:106DD000042BECD1038B626C216B0069BDE8704021
:106DE00003F0DABF01F110033F2B73B506460C46E2
:106DF00007D8A1F18002D2B20121FFF7C6FD02B08F
:106E000070BD012122220DF10505FFF7BEFD2946C7
:106E100004F07F00E3B2E4112A4605F8010D601C7E
:106E20000128F5D8013403F0400312D11BB97F23A8
:106E300005F8013C951E491B3046FFF790FD01AC5B
:106E400001462B46A34208D15D1B9DF80420425504
:106E5000D5E7002BEFD00023EAE713F8012B62F00F
:106E60007F0201F8012BEDE773B50DF1050406462D
:106E70001D46FFF78AFD214605F07F03ED0904F862
:106E8000013DF9D1091B3046FFF769FD01AD01460F
:106E90002346AB4205D19DF804201B1BC25402B00F
:106EA00070BD13F8012B62F07F0201F8012BF0E7AF
:106EB00070B41E46C368B0F840409D8BDB8B1D4408
:106EC000C38F1D44631CA0F8403063194479042C1F
:106ED00004BF446C44F8236070BCFFF7C5BF10B416
:106EE0001C4622430B695DF8044B07BF3222012187
:106EF00033224FF0FF31FFF7DBBFF8B51446D6B2AF
:106F0000069A1F463A430B6905460BBFC4F10101BF
:106F1000E14320222122FFF7CBFF31462846BDE87E
:106F2000F840FFF72BBD10B4044643B90F2A06D82A
:106F3000503A5DF8044BD2B20121FFF726BD03F1B0
:106F40002401204613465DF8044BCAB20121FFF725
:106F50008BBF10B404464BB90F2A07D8403A5DF8EE
:106F6000044BD2B24FF0FF31FFF70FBD03F1260102
:106F7000204613465DF8044BCAB24FF0FF31FFF7CD
:106F800073BF03F128011346CAB20021FFF76CBF9B
:106F9000022A02F12A020B46D2B214BFC1F101014A
:106FA0000121FFF761BF03290AD004290BD000217A
:106FB00002230A4443EA8203C9432F22FFF754BF46
:106FC00000210B46F5E70121FBE70B463022013992
:106FD000FFF74ABF10B4144641EA0223214431228C
:106FE0005DF8044BFFF740BF70B4DDE90365D2B232
:106FF00003EB460443EA062315B101320234D2B250
:10700000091B70BCFFF730BF07B5CDE900230B4665
:1070100034220021FFF7E8FF03B05DF804FB07B559
:10702000CDE900230B4636224FF0FF31FFF7DCFF9E
:1070300003B05DF804FBC268938BD28B1A44838F34
:1070400010B45C1C134442798487042A08BF426C44
:107050005DF8044B08BF42F8231023220121FFF7FB
:1070600003BFFFF7E8BF00000C2902D10349FFF777
:10707000E2BF4331CAB20121FFF787BC28BA050835
:1070800038B504460D460E21FFF7EEFF204629468F
:10709000FFF7C2FD02215C22FFF777FC20466FF06C
:1070A0000301BDE83840FFF72EBC2DE9F74F154628
:1070B0000023C0E903236E8C8360837183620362C3
:1070C000AB8CB5F82680AF8B417101221E449642ED
:1070D00038BF16468A464FEA8801013E426101F0F8
:1070E000040107F003021143B5F81890EB8BB5F8D3
:1070F00020B0F20002F07802044609F00F091143B3
:1071000036094FEA5808BF0846EA080242EA09026F
:107110003A431A4352EA0B023ED12046FFF718FCCD
:10712000BAF1020F16D9D4E90D32590002F001006C
:107130009B09520801F07E01014363631343A2637C
:1071400018BF41F080012046FFF702FCD4E90D3260
:107150001343E8D1236A636302212046EE8AFFF7D6
:10716000EBFB0670360A467002212046AE8AFFF716
:10717000E3FB00230670BAF1040F4FEA16264670AF
:10718000A387A4F8403047D1A88BEA8B10449842DB
:1071900042D06E8D00213BE041F0800120460193FA
:1071A000FFF7D6FB4FEA89113201019B02F0300252
:1071B00001F0400111430BF001021143DA0002F02B
:1071C00008021143BA0002F0040211434FEA4802D8
:1071D00002F002021143B6084FEA58084FEA590973
:1071E0007F085B084FEA5B0B8EE7EA6A02EBC1029D
:1071F0005778FF070BD557889F4208D15268616CBA
:10720000D20042F0020241F823200133BFE70131EE
:107210008E42EADC0522F2E703B0BDE8F08F482099
:10722000F8F759BF10B5044681618800F8F73AFFB6
:10723000E06110BD10B50446C069F8F75BFF204659
:10724000BDE81040F8F756BF10B50446016188004C
:10725000F8F728FF606110BD10B5044611B1C06891
:10726000F8F748FF6069BDE81040F8F743BF01290F
:1072700038B504460D460ADC0269406992004FF0B9
:10728000FF3118F08DFA00232560636038BD406837
:10729000F8F708FF6368E060A360F4E7D0E9003224
:1072A000022B0ABFC36800239B1811444160184693
:1072B00070470368012BDEBF4369426843F8212011
:1072C000704742684B1E1344494219404160704761
:1072D00038B50C461546FFF7E1FF10B10444A04253
:1072E00000D138BD00F8015B2D0AF8E7704710B5F2
:1072F0000C460221FFF7D2FF10B10470240A44703B
:1073000010BD38B50D4604211446FFF7C7FF28B15C
:10731000057084702D0A240A4570C47038BD0000C1
:10732000032998BF144B70B591BF5E5C0239FE26ED
:1073300021F0010498BF002446F435410546FFF7CB
:10734000D6FF44B17F2C09D844F4304141F080018C
:107350002846FFF7CCFFC5E9066470BDA300A20173
:10736000DBB202F4E0421A4342F450624FF2AD2124
:107370002846FFF7C6FFEEE778970508C16910B504
:10738000044629B17F290BD841F43041FFF7AFFF04
:10739000A169204641F43D41BDE81040FFF7A7BF79
:1073A0008B008A01DBB202F4E0421A4342F45062DD
:1073B0004FF20D21FFF7A5FFEAE7114341EAC301B0
:1073C000FFF795BF072A85BF083AD200D20042F0E6
:1073D0004002072985BF08391143114341F080015C
:1073E00041F48C41FFF783BF70B5DCB244EA02225E
:1073F0005C101D0104F48064C3F303334668234327
:1074000005F4E0452A431943FFF77BFF304670BD82
:1074100038B5436953F821404368E41A043C0546F3
:10742000C4F34A0141F46041FFF761FF2B68022B6E
:107430000AD124F4FF6020F0070028B110F5006F96
:1074400014BF0020012038BD0120FCE7F8B54469D5
:1074500054F822204468121B141F064665101F466C
:10746000B3B9EDB245EA012141F45041FFF73FFFC6
:107470003368022B0AD134F0FF0407D014F5807F63
:1074800014BF002301231F463846F8BD0123FAE745
:10749000A61204F4005206F48066C4F38534C5F3E2
:1074A0000B0534432A4344EA811142F4004241F47B
:1074B0007041FFF726FFE7E738B5436953F82140ED
:1074C0004368E41A043C0546C4F34F02C4F30A318E
:1074D00042F4784241F47041FFF713FF2B68022B0E
:1074E00008D1A00D800528B110F5800F14BF002031
:1074F000012038BD0120FCE7F8B5476804460D4679
:10750000164613460A464FF24021FFF76DFF330C33
:107510002A464FF2C0212046FFF766FF3846F8BDE5
:10752000072910B404460AD832F0FF0307D142EA13
:1075300001215DF8044B41F40051FFF7D8BE130C54
:107540001B0443B9134620460A465DF8044B4FF22C
:107550004021FFF749BF20465DF8044BFFF7CCBF41
:10756000C9B241EA022141F41041FFF7C0BED2B2D4
:1075700042EA012141F41841FFF7B9BED2B242EA12
:10758000012141F42841FFF7B2BE38B5436953F8F1
:10759000223042689B1A083B0C4643F001030A461E
:1075A0004FF240210546FFF71FFF210101F0800146
:1075B00004F00704214341F48841284641F0780152
:1075C000BDE83840FFF793BE072930B4054614469E
:1075D0000CD8072A0AD81F2B08D841EAC20242EA6F
:1075E000831130BC41F4D041FFF781BE9B0043EAD8
:1075F000013244F47841284641F0D00130BCFFF715
:1076000080BE436953F821104368CB1A043B013113
:1076100030B4C3F34A0204460DD0D91C0BDA23F46C
:10762000FF6525F0070515F5006F04D130BC42F465
:107630006041FFF75CBEC3F30A33204642F4384290
:1076400030BC43F47041FFF75CBE436953F822201D
:107650004368D31A043B013270B406464FEA630410
:107660000ED0DA1C0CDA23F0FF0212F5807F07D16E
:10767000E4B244EA012141F4504170BCFFF737BE47
:107680009D1203F4005205F48065C3F38533C4F3FF
:107690000B042B43224343EA8111304642F400425B
:1076A00070BC41F47041FFF72CBE38B514460B4650
:1076B000072221460546FFF787FFE100284641F4EF
:1076C0008F41BDE83840FFF712BE90F85400704774
:1076D000436C1944C3684164012B04DD836D9A8CAB
:1076E0009142C8BF998470477047002280F85420A7
:1076F0004FF0FF31FFF7ECBFFFF7F7BF002280F834
:1077000054206FF00301FFF7E3BF4FF0FF31FFF7A5
:10771000DFBF38B5446CC36921449942054608D996
:10772000083121F00304006AE100F8F7D6FCC5E94E
:10773000074038BD70B504460E4601211546FFF7D7
:10774000E8FF616C226A02EBC10302F8316001219B
:1077500059705D602046BDE87040FFF7B9BF70B555
:1077600004460E4601211546FFF7D3FF616C226ADD
:1077700002EBC10302F8316002225A705D602046BC
:107780000121BDE87040FFF7A3BF002280F854201C
:107790001146FFF7E4BF0A46002180F85410022189
:1077A000FFF7DDBF38B50D1E044613DDFFF7B1FF4F
:1077B000226A616C02EBC103294402EBC102002082
:1077C000012D58700CBF94F82410002103F8081BF9
:1077D0009A42F5D129462046BDE83840FFF778BFE8
:1077E000F8B5D0E90A530133AB4204460E461746BA
:1077F00006D90435006BA900F8F76FFCA562206379
:10780000D4E90B30C6F30E015A1CE26200EB83058B
:1078100041EAC73220F823204FF6FF73E06D6B80FA
:1078200032460021FFF7B1FEE06D0022BDE8F840CE
:107830000321FFF795BE10B4019C41EAC303A401E4
:1078400004F4F86443EA020121435DF8044BFFF7B6
:107850004EBD41EAC20242EA831141F4C051FFF732
:1078600046BDD0E90B2302F18042013A03EB8202CC
:1078700010B50446D0786FF3C710D070043A934225
:107880000BD892F903000028F8DA1288E06DC2F3F1
:107890000E020021FFF779FE07E069B90B460A46A0
:1078A000E06D44F24001FFF788FDE06D0022BDE885
:1078B00010400321FFF754BE10BD10B5044601214E
:1078C000FFF7CFFFE06D01220021FFF750FE0022FD
:1078D00020461146BDE81040FFF72CBF0C2903D10C
:1078E000084A0021FFF73BBF00220E2980F85420F0
:1078F00001D15421F6E7B1F10D0218BF0122012197
:10790000F0E700BF28BA050810B4D0E91640248B70
:10791000E407134604D55DF8044B0622FFF754BE76
:107920005DF8044BFFF723BE70B50446D0E916603E
:10793000368BF6070D460AD59200FFF7F1FDE06D94
:107940002A4629460623BDE87040FFF782BFBDE8FE
:107950007040FFF713BE037C70B50446154623B98B
:10796000826D938BD28B13441D44E368B4F840209E
:10797000042B08BF236D204608BF43F825100021C3
:10798000FFF7C2FF0022E06D11460323FFF71CFE44
:107990000022E06D2B461146BDE87040FFF714BE93
:1079A000F8B5476C046A07F10053023B04EBC304CB
:1079B0000546D4E9020184E80300667856B9B5F8B3
:1079C00042203A44013A31462846FFF79DFF012301
:1079D0006370666028464FF0FF31BDE8F840FFF75E
:1079E00077BE13B5D0E916301B8BDB0707D50091A6
:1079F00006234FF4C041FFF71EFF02B010BD02B0D6
:107A0000BDE81040FFF7ACBD2DE9F041476C002404
:107A100005460E46BF1AA0466B6CA34201DCBDE8CA
:107A2000F081BC4211D02B6A03EBC4035A78012ABF
:107A30000BD15A68B24208D183F80180B5F84210E0
:107A4000324621442846FFF7CCFF0134E4E7826D3B
:107A5000138B70B543F020030446002513830E46B4
:107A600080F854502A462946FFF7CEFFB4F84A2042
:107A70000132A4F84A2031462046FFF76CFF2A461F
:107A800029462046BDE87040FFF754BE70B500257A
:107A900004460E4680F854502A462946FFF7B4FFA4
:107AA000F200E06D294642F00202FFF739FD2A4656
:107AB00029462046BDE87040FFF73CBEF8B5836913
:107AC0009E5C602E0446154606D1076814480A4697
:107AD000144907F0FBFB38600023022D84F8543072
:107AE0000DD8A36DDA8C52B91B8BDB0707D40E4B74
:107AF0005A5D31462046BDE8F840FFF71BBE002224
:107B000011462046FFF780FFB4F84220E36BED43B7
:107B10001A442A4400212046FFF7F6FE0022E8E737
:107B2000D8AC05087C9705085899050870B500245D
:107B3000054626466B6CA34200DC70BD2B6A03EB46
:107B4000C4035A78012A07D15E70B5F842105A680A
:107B500021442846FFF745FF0134EBE737B50446DB
:107B60000D4601920093FFF7E1FFDDE90012E06DA1
:107B7000FFF7D6FCE06D0322294603B0BDE8304094
:107B8000FFF793BD13B504460191FFF7CFFF0199AD
:107B9000E06D032202B0BDE81040FFF786BD38B5A6
:107BA0000025044680F854500821FFF7EBFF2A46D1
:107BB00029462046BDE83840FFF7BCBD37B504462E
:107BC0000D4601920093FFF7B1FFDDE90012E06D71
:107BD000FFF7A6FCE06D0322294603B0BDE8304064
:107BE000FFF763BD10B4002302F1290480F854307C
:107BF0000A46E1B25DF8044BFFF7E0BF002370B521
:107C000004460E4680F85430154662B1037C53B1E9
:107C1000084604F00FFF021E05DD20467021BDE876
:107C20007040FFF79CBD06353246E9B2204600237E
:107C3000FFF7C4FF002220461146BDE87040FFF761
:107C400079BDF8B5164604460F46FFF76FFF31467B
:107C50002046FFF75EFD0025636C2A46B5420CD135
:107C6000B4F84220394620461A44FFF75DFE294603
:107C70002046BDE8F840FFF72BBD5819216A0135B1
:107C800021F83020EAE773B504461E460D460192FE
:107C9000FFF74CFF019AE06D0021FFF741FCE06D1A
:107CA00032460121FFF73CFCE06D0322294602B079
:107CB000BDE87040FFF7F9BC037C33B1436CC943A6
:107CC0001944036A13F831007047184670470000E2
:107CD00070B50E46154643B9037C33B15268C06D8A
:107CE000FFF71EFC2C78204670BD2C782CB96A68F2
:107CF000C06D3146FFF714FCF5E7012C07D16B6826
:107D00000133C06D07223146FFF75EFC0AE0A31E77
:107D1000012B09D86A68C06D520042F00102314659
:107D2000FFF7FEFB0024DEE7542C01D10023E8E737
:107D3000014804F0DDFC00BF91970508F8B5002567
:107D400004462E46636CAB4205DC00252F46636C6F
:107D5000AB4210DCF8BD236A03EBC5035A78012A55
:107D600007D15E70B4F842105A6829442046FFF7E4
:107D700038FE0135E6E7266A06EBC5025378022B8A
:107D80000ED10023577019462046FFF7A1FF06F8D1
:107D90003500B4F84210002229442046FFF721FEA6
:107DA0000135D4E713B50023044680F8543001911F
:107DB000FFF7C4FF0199E06D02B0BDE81040FFF786
:107DC00020BC38B50D46044611467AB10022114652
:107DD000C06DFFF7A5FBE06D00220121FFF7C0FB9E
:107DE00029462046BDE83840FFF7DCBFFFF739FDE4
:107DF000F6E72DE9F04104460E46A2B3D0E90B5C4C
:107E000005F18045013D0CEB85050023284617460A
:107E1000984690F9011000290FDA90F90310002913
:107E20000BDAB8F1000F08BF80462BB1B0F800E0C4
:107E300059886EF30E0159800346013FA0F10400FA
:107E4000E7D16FF003014A43E06DA918CBB98C4527
:107E500010D91A4644F24001FFF7AFFAE06D002254
:107E60000321FFF77DFB26F400412046BDE8F041E9
:107E7000FFF798BFAA5A1946C2F30E02FFF785FB17
:107E8000ECE75A8847F6FE7161F30E025A803946D4
:107E900026F40042FFF779FBE06D3A460421FFF734
:107EA0005FFBE06D3A463946FFF73AFBE06D3A4634
:107EB0000121FFF755FBB8F80060C6F30E06D2E7C4
:107EC00073B504460D46164619462A460193FFF738
:107ED0009BFD636C206A01995B1B00EBC30210F8E9
:107EE000333033705378012B0DD0022B14D0C3B92B
:107EF000B4F84220636C1A44521B204602B0BDE81D
:107F00007040FFF701BD52688A420AD0E06D02B0AE
:107F1000BDE87040FFF756BA00232046FFF7D8FEB1
:107F2000307002B070BD10B513460022044680F8D0
:107F300054200A460121FFF7C3FF20464FF0FF31CE
:107F4000BDE81040FFF7C4BB70B5049E04461D4653
:107F5000FFF7E9FF324629462046BDE87040FFF7AB
:107F6000E2BF7FB501250DF10F030DF10E01009564
:107F700000220446FFF7E8FF9DF80F609DF80E1001
:107F800020460022FFF7D6FB2A4631462046FFF75F
:107F9000D1FB04B070BDF0B585B001250DF10F0324
:107FA0000DF10E01009500220446FFF7CDFF9DF86C
:107FB0000F709DF80E602A4639462046FFF7BAFB3F
:107FC000314620460022FFF7B5FB2A4639462046B7
:107FD000FFF7B0FB002231462046FFF7ABFB05B0B0
:107FE000F0BD30B587B00D461A434FF0000104468E
:107FF00080F85410039224D1FFF798FD039AE06DA6
:108000000121FFF78DFA039AE06D0221FFF788FA4C
:10801000B4F84E20B4F84C3029690133501CA4F850
:108020004E001A442046FFF796FCE06D03221A2109
:10803000FFF73BFB002211462046FFF77BFB07B012
:1080400030BD0123009302220DF116030DF117013B
:10805000FFF77AFF2046FFF769FDD9E72DE9F041E8
:10806000DDE9068604461D46089FFFF75CFF424691
:1080700029462046FFF757FF3A4631462046BDE8DD
:10808000F041FFF750BF2DE9F04186B002260DF117
:108090001703012501930DF115010DF11603029649
:1080A000009500220446FFF7D9FF9DF817809DF840
:1080B00016709DF8151020460022FFF73BFB324654
:1080C00041462046FFF736FB2A4639462046FFF751
:1080D00031FB06B0BDE8F08130B587B00DF1170374
:1080E0000025019302230446009301220DF116039B
:1080F0000DF115010295FFF7B1FF20461921FFF799
:1081000041FD2A4629462046FFF714FB07B030BD43
:10811000F7B5C46A05460E46D4B1036B04F180443A
:10812000013C03EB840292F90120002A21DA33F8A2
:108130002430C3F30E038B421BD100220DF1070143
:10814000FFF7F1FEE86D00220121FFF709FA012493
:108150000027284685F85470FFF7F0FDE86D31469A
:10816000FFF7A7F81CB139462846FFF77AFB03B0A2
:10817000F0BD0024ECE770B500260446012280F82B
:1081800054603146C06DFFF7F2F922212046FFF717
:10819000F9FCD4E90B35013B05EB8305E3626B8801
:1081A00047F6FF72C3F30E03934228D00422E06D1A
:1081B0003146FFF7DCF9E06D4FF42051FFF797F8F7
:1081C0006368E06D1A683146FFF73FFA698847F641
:1081D000FE73C1F30E029A420BD1E06D4FF48E4153
:1081E000FFF785F8636820461968BDE87040FFF71F
:1081F0008FBFC1F30E012046FFF7D4FDF2E770BD3B
:108200002DE9F0430446816885B0FFF781FFA36D37
:10821000DA8C198B12B901F0110373B311F001015B
:1082200017D1B4F8402020460132FFF76DFBA36D53
:10823000DD8C55B9E06D4FF42051FFF758F8A26876
:10824000E06D01322946FFF700FA05212046FFF7CD
:1082500099FC21212046FFF795FCA36D1A8BD207CC
:1082600006D4DB8C23B9A16820460131FFF750FF0B
:10827000E06D05220021FFF77AF9E06DFFF77EF847
:10828000237C002B5BD1E36DE56B5B686363A36DBF
:10829000013D9E8B1F8BB3F81E90B3F82080EA003F
:1082A00006F0030302F0780207F00F071A432D09C6
:1082B000B60845EA0703334343EA090353EA0803D0
:1082C000E06D74D10121FFF703F80421B4F84830C0
:1082D00003F001025B0842EA4102A4F848300BB106
:1082E00042F08002E06D0121FEF7F2FFB4F8485041
:1082F000002D7CD1A36DE06DDA8A0121FEF7E8FF45
:10830000A36DE06DDA8A0121120AFEF7E1FFA36D89
:10831000E06D9A8A0121FEF7DBFFA36DE06D9A8A7A
:108320000121120AFEF7D4FFE36D5E68D4E916203E
:10833000538DAB425DDC43689B1BA4F84830E06D75
:10834000FEF7D4FFE368B4F84A00A4F84C00032B0E
:1083500012D1B4F84E3001301844237C002B55D193
:10836000A36D9D8BDB8B1D4428448000F7F79AFE9C
:10837000274B206540F82530E368042B14D1257C79
:10838000A16DE36D0869002D4FF00005D3E90232BD
:1083900003950D8B0295898B0191216D009114BF7E
:1083A0000421032102F008FD05B0BDE8F08342F08E
:1083B00080020121FEF78CFFBA012B0103F030038C
:1083C00002F040021A4308F001031A434FEAC903BE
:1083D00003F008031A43B30003F004031A43AD0883
:1083E0007F0876084FEA59094FEA580861E70021EB
:1083F0006CE7D26A02EBC50312F83520042A03D1D8
:108400005A880121FEF764FF01358FE70025ACE7AC
:10841000309D0508F8B543681E68836D86601D8B26
:10842000DB8C05F011021343044600F0E88015F0E0
:10843000010506F1020715D1B0F840202946FFF7E3
:1084400063FA2A46E06D01232946FFF7BDF80521AE
:108450002046FFF797FBB4F840102A46013120462A
:10846000FFF7BFFAD4E91630DA8C002A59D1198BFC
:1084700011F0010508D14FF42051FEF738FFE06DEF
:108480003A462946FFF7E1F800221146E06DFFF772
:1084900075F820212046FFF775FB4FF42051E06D61
:1084A000FEF725FF3A460021E06DFFF7CEF8A36DF9
:1084B000198B11F0010100F089800122E06D00218B
:1084C000FFF755F8E06D46F27011FEF710FFE06D12
:1084D00002220021FFF724F8E06DFEF74FFF394636
:1084E0002046FFF715FEA36D1B8BDB0740F187804D
:1084F000B4F84020204601320021FFF705FAE06D74
:108500004FF48E41FEF7F3FEE06D4368A363002154
:108510000122FFF72CF820462221BDE8F840FFF7A2
:1085200031BB00231A4644F24001FEF746FFE06DDE
:1085300000220421FFF714F8751C3A46E06D04216F
:10854000FFF723F829462046FFF7E2FDE06D0422FD
:108550000521FFF70CF800221146E06DFFF70EF839
:1085600020212046FFF70EFB0522E06D0421FEF7D7
:10857000F7FF0336E06D4FF42051FEF7B8FEE06DD3
:1085800032460121FFF761F800231A46E06D44F2FC
:108590004001FEF712FF0022E06D0321FEF7E0FF2D
:1085A000E06D44F22071FEF7A2FE31462046FFF74F
:1085B000AFFD0322E06D0421FEF7D9FF4FF43051E7
:1085C000E06DFEF794FE2A4601216DE7B4F84020E5
:1085D00020460132FFF798F905212046FFF7D2FA2D
:1085E000A36D198B11F001017FF467AFE06D0122DB
:1085F000FEF7BDFF22212046FFF7C4FA6FE7F8BD62
:10860000538B2DE9F0410446C160D81E43424341DB
:10861000237400230F466364518CA4F84A30A4F8F5
:108620004E3084F854306369A2658B42154605D2FA
:10863000A069F7F752FD6B8CA0616361A26D918B0D
:10864000D38B2A8B0B44510748BF013392074FF05D
:10865000000248BF01331146934241D1227C002AD7
:1086600052D1602162699A4250D8E26900236021A8
:108670009A424FD1042FE06D0CBF02210121FEF779
:10868000F6FDA26D0023A4F84030D38C1BB9118BEA
:1086900001F0110111B11221A4F840106E8CA98CC7
:1086A00094F81080E06D3144E163B8F1000F00F000
:1086B000EA80002B33D1128BD70707D4032E334621
:1086C000AE8BA8BF0323032E00D9013B12F0110F7C
:1086D00026D12E8BB4F84020B60648BF013222E0E6
:1086E000A06981540132B7E7C86A00EBC2000132C9
:1086F0004178CE0741BF4688A06909098155A16D1F
:10870000488D9042F0DCACE70022F8E7A269D15432
:108710000133A7E7206A20F833100133A8E70023CC
:10872000B4F840200232A4F84220B4F842201144A8
:10873000C91AFEF7F5FDE06D032300220621FEF7BE
:1087400043FF00230622E06D0721FEF73DFFA36DE6
:10875000DA8C1AB91B8B03F030032BB1B4F840103C
:10876000E06D0022FEF7FCFEE06DAD4E012200211F
:10877000FEF728FEE06D02220121FEF723FE032210
:10878000E06D0621FEF71EFEE06D4FF42451FEF76A
:10879000AEFD6368E06D1A6801210432FEF755FFF3
:1087A000AA8BE06D0221FEF7BBFEE06D02230022E2
:1087B0004FF48541FEF701FE6368E06D1A68002101
:1087C0000532FEF742FF6368E06D19680431FEF779
:1087D00070FDAB8BE06D5A0042EA43420221FEF786
:1087E0009FFEE06D03222C21FEF75FFF6368E06DC2
:1087F00019680531FEF75DFD0025A36D9A8BAA422D
:1088000014DC032A0DD9DA8C5AB91B8BDB0708D488
:10881000B4F84220E36BE06D1A44033A0621FEF7F8
:10882000A6FE2046BDE8F041FFF7F4BD2B46062228
:10883000E06D0021FEF7C8FEA3695A5D22B1012355
:1088400003212046FFF78AF9022D11DCA36DDA8C93
:1088500072B91A8BD2070BD4022D02D19B8B032B3A
:1088600006D1715DE06D0022FEF7ACFD0135C4E775
:10887000B4F84210E36B194401390022491B204629
:10888000FFF7AFF8F2E7168B16F0010646D04FF46B
:10889000A0232364626B0421FEF71AFDA26BE06D36
:1088A0000421FEF715FDE06D1221FEF739FDE06DA4
:1088B00042460621FEF786FD01221146E06DFEF7D5
:1088C0004FFEB4F84030E06D06224146FEF77CFED4
:1088D000E06D032342464146FEF776FEA26DE06D51
:1088E000918BD38B42460B440721FEF76DFE204649
:1088F000FFF790FDA36DDA8C002A51D000231946B2
:108900006E8D9E4264D8042F06D1A88BEB8B00227B
:108910001844904240F08180BDE8F081B4F84030C6
:1089200005339BB2A4F842301944FEF7F9FCE06D20
:10893000324603230621FEF747FEA26DE06D918BC0
:10894000D38B06220B440721FEF73EFEB4F84010FD
:10895000E06D3246FEF704FE626BE06D3146FEF7D5
:10896000DFFDB4F84010324620460131FFF739F8F8
:10897000E26BE06D3146FEF7D3FDB4F840103246AD
:1089800020460331FFF72DF8B4F84020E06D314662
:10899000FEF7F4FDE06D04222D21FEF786FEA6E72A
:1089A0001E8B16F00106A9D1DFF874806B8CB342E0
:1089B000A4DDB4F84220E36B18F8011BE06D1A4403
:1089C000013A921B0136FEF7D2FD032EEED195E758
:1089D000EA6A02EBC30012F83320042A04BF42887B
:1089E000A06903F1010308BF815489E7EB6A03EB37
:1089F000C1035F78FF070BD55F88974208D15B689A
:108A0000216DDB0043F0020341F82230013280E7A0
:108A100001318E42EADC0523F2E70021F9E700BFCD
:108A2000589905087FB504460E46154682B90DF1E2
:108A30000F01FFF778FA3246092120460123FFF79C
:108A4000BDF82A4629462046FEF774FE04B070BDE4
:108A5000012A0FD10223009300220DF10F030DF123
:108A60000E01FFF771FA012332460E212046FFF76F
:108A7000A5F8EBE70DF10F010022FFF754FA0223EE
:108A8000E06D1A4644F24001FEF797FCEBE773B540
:108A900004460E4615466AB901220DF10701FFF79B
:108AA00042FA0C3500233246E9B22046FFF786F839
:108AB00002B070BD0021FFF7FFF88DF8070020B964
:108AC00001220DF107012046E9E70DF107012046DB
:108AD0000022FFF728FA9DF80720204601230421F1
:108AE000FFF73CF8E06D00220121FEF76BFCD8E7B0
:108AF00073B50D4616460DF1070100220446FFF737
:108B000012FA721C2A4420460221FFF79AF8012328
:108B100045EA062228212046FFF720F802B070BD62
:108B200037B504460D4600220DF10701FFF7FBF9AA
:108B30002A4620460221FFF784F801232A462721EE
:108B40002046FFF70BF803B030BD37B50D460022C5
:108B50000DF107010446FFF7E6F955B10121204662
:108B60000422FFF76EF81E212046FFF70BF803B032
:108B700030BD2A46E06D0121FEF7D2FC20461E21C1
:108B8000FFF700F82A4629462046FEF7D3FDEEE718
:108B900037B500220DF107010446FFF7C4F99DF82F
:108BA00007302BB105490648256806F08FFB286081
:108BB00022212046FEF7E6FF03B030BD9697050858
:108BC000D8AC050873B501220D460DF10701044626
:108BD000FFF7A9F99DF8076066B92A4611212046DA
:108BE0003346FEF7BBFF324631462046FEF7A2FD74
:108BF00002B070BD20460121FEF76AFD044B054915
:108C00005A5D0548246806F061FB2060F0E700BF6C
:108C100058C40508A0970508D8AC05082DE9F3410C
:108C20000E460021174604461D46FFF745F802464A
:108C30008DF8070048BB0DF107012046FFF773F9D7
:108C40001DB901212046FEF743FD10212046FEF705
:108C500099FF1DB99DF8073084F824302046FFF7AE
:108C60006DF8E06D4FF420518EB3FEF740FB3A46AD
:108C70000121E06DFEF7E9FC25B94FF0FF312046F8
:108C8000FEF726FD02B0BDE8F08100220DF10701DC
:108C90002046FFF748F91DB901212046FEF718FDCF
:108CA0009DF807305A1E022AD3D9072B98BF0A4ACB
:108CB0000A4998BF32F813200948D4F8008088BFC9
:108CC00040F2922206F002FBC8F80000C1E7FEF76E
:108CD0000EFB3A463146CCE758980508AD97050893
:108CE000D8AC05080023FFF799BF0123FFF796BF13
:108CF000022A7FB504460E46154614D8836DDA8CD9
:108D00008AB91B8BDB070ED41D4B0DF10F015A5D89
:108D1000FFF709F9A1699DF80F204B5D602B13D176
:108D20004A5504B070BD0DF10F0120460022FFF737
:108D3000FAF8E16BB4F842300B44E94300221944DD
:108D40002046FEF74EFEE5E79342EAD0072B98BF98
:108D50000C49246898BF31F813300B4888BF40F2A3
:108D60009223072A96BF074940F2922231F8122037
:108D700000920649324606F0A9FA2060D1E700BF0A
:108D80005899050858980508D8AC0508BA970508F9
:108D900037B504460D465BB90E210192FEF79EFDE4
:108DA000019A2946204603B0BDE83040FFF7A0BF36
:108DB00003B030BD2DE9F041002580F85450456CDA
:108DC000D0F820C0DDF81880013D0CEBC506044644
:108DD0007778012F14D1D6F804E09E4510D0C6450F
:108DE0000ED01CF835300B70716811603A46FEF7F2
:108DF0000BFE20464FF0FF31BDE8F041FEF768BCA6
:108E0000136820460A460121FFF75AF8F1E710B52A
:108E100086B0002305934FF0FF33009305AA0DF1B0
:108E200013010446FFF7C6FF9DF81310059A20466C
:108E3000CDE90212FEF77EFCDDE902122046FEF7C4
:108E400079FC06B010BD0000F0B50D4685B00121DB
:108E50000446FEF731FF002106468DF80A00204641
:108E6000FEF72AFFB31E012B8DF80B0000F2D18014
:108E7000861E012E00F2F780A5F109030C2B9CBF82
:108E80000D35EDB21F2D01D0212D23D100230093EC
:108E900001220DF10A030DF10B012046FFF754F8F2
:108EA0009DF80A30022B07D07E4B7F495A5D7F48E0
:108EB000266806F00BFA30601F2D0CBF2E212F21E3
:108EC0002046FEF75FFE002202212046FEF732FC1C
:108ED00005B0F0BD01260223039303AA00230DF180
:108EE0000B0120460096FFF765FF32460DF10A019F
:108EF0002046FFF718F8A5F11903B34217D8192D2A
:108F0000E06D039B08D132464FF48141FEF755FADC
:108F10009DF80A100122D8E79DF80A20032A08BF0D
:108F200044F2C001324618BF4FF48241EEE7162DDD
:108F300005D1039B32464FF48641E06DE6E7172DDD
:108F400004D1039B324644F24001F6E7182D04D1C8
:108F5000039B32464FF48041EFE71B2D06D1039B64
:108F6000E06D32463146FEF774FCD1E71C2D08D186
:108F70000399E06D41F6092343EA8111FEF7B7F941
:108F8000C6E71D2D04D1039B324644F24031D4E79D
:108F9000052D31D89DF80A209DF80B309A4205D056
:108FA00043494248266806F091F930609DF80A303E
:108FB0000022032B114620460CBF00260626FEF792
:108FC00023FD0122039BE06D4FF48541FEF7F5F987
:108FD0003544384BE06D33F81510FEF788F9E06D35
:108FE00042F20101FEF783F94FF40051E06DFEF704
:108FF0007EF90022012168E720460121FEF768FB87
:10900000284B2D495A5D2948246806F05FF92060F5
:109010005EE7064327D1012700970DF10A030222DC
:109020000DF10B012046FEF78FFF322D17D0332DA7
:1090300017D1072500232A4612212046FEF78EFD70
:1090400057B1E06D00220121FEF7BCF90023032295
:1090500011212046FEF782FD0022114635E7062544
:10906000E8E73746E6E74FF0FF312046FEF730FBF2
:109070009DF80A300D482468072B9CBF0F4A32F830
:1090800013209DF80B3088BF40F29222072B96BF29
:109090000A4940F2922331F81330094906F016F9D3
:1090A000B5E700BF26C30508CA970508D8AC050870
:1090B000DA97050840990508ED97050858980508BE
:1090C000FB97050870B5044686B00D4616461BB9D9
:1090D000FFF70EFE06B070BD00221146FEF794FCAD
:1090E000204600220121FEF78FFC32462946204609
:1090F000FEF7E4FC002304934FF0FF33009304AA2F
:109100000DF10F012046FFF755FE01230593049B47
:1091100000930DF10F01204605AAFFF74BFEDDE994
:10912000043141EAC30141F4C041E06D41F0400126
:10913000FEF7DDF8CEE77FB504460D4616461BB9AF
:10914000FEF7BCFC04B070BD00221146FEF75CFCCB
:10915000324629462046FEF7B1FC4FF0FF3300258A
:10916000009303AA0DF10B0120460395FFF722FEA1
:10917000039AE06D29460123FEF726FA2A4629467E
:109180002046FEF7D7FADDE703297FB504461646E9
:1091900012D101220DF10F01FEF7C5FE18250023A3
:1091A0000DF10F0231462046FEF78AFE2946204681
:1091B000FEF7E8FC04B070BD052906D101220DF1CF
:1091C0000F01FEF7B0FE1725E9E702230093012205
:1091D0000DF10F030DF10E01FEF7B6FE1925DEE7C6
:1091E000F0B5044685B00E461546C2B90223077C89
:1091F00002740DF10E01009301220DF10F03FEF731
:10920000A3FE324627742B4623212046FEF7D6FCC8
:109210002A4611462046FEF78DFA05B0F0BD012A18
:1092200010D1002780F854703B460DF10F022946FB
:10923000FEF746FE32462B4624212046FEF7BEFCB2
:109240003A46E6E70DF10F010022FEF76CFE2521FC
:109250002046FEF797FCE0E72DE9F84F04460F465D
:109260009146FEF763FC0025A8464D4510D1002627
:10927000B3464E452BD171422046FEF729FAB4F889
:109280004220636C39461A44BDE8F84FFEF74CBBE8
:10929000666CD4F820A0013E761B0AEBC602537818
:1092A000022B12D182F80180012339462046FEF7B5
:1092B0000FFD0AF83600B4F84210636C1944013906
:1092C0003A46491B2046FEF78CFB0135CDE7636C1F
:1092D000D4F820A003F1FF38A8EB06081AF83820CC
:1092E000BAB1B4F842501D44013DAD1B2A460021DD
:1092F0002046FEF709FB1AF83820012304212046F6
:10930000FEF72CFC002229462046FEF76AFB0AF8ED
:1093100038B00136ADE70000037C37B504460D4692
:1093200013B1544803F0E4F9826D138B43F0010349
:109330001383FEF703FD012D0BD1636819682046E6
:109340000231FEF72FFD6368196820460131FEF7F0
:10935000DFFE012200212046FFF77EFF00220221CE
:109360002046FEF73EFBE06D01220021FEF7D8F813
:10937000E06D00220521FEF7F3F86368E06D1A68DE
:109380000021FEF702F9B4F8401000220131204616
:10939000FEF727FBA168E06DFEF733F96368E06D27
:1093A0001968FDF786FFE36ABBB1226B03F18043C6
:1093B000013B02EB83039A420FD893F90310002973
:1093C0001BDA1A88E06DC2F30E020021FEF7DDF809
:1093D000E06D00220321FEF7C3F801212046FEF7CD
:1093E000E1F965B9E06D29460122FEF7C0F82221B6
:1093F0002046FEF7C7FB03B030BD043BDBE76368E4
:10940000196820460231FEF783FE0DF10701204660
:109410000122FEF788FD00230DF1070220460121FD
:10942000FEF74EFDE06D01220221FEF7A0F8204676
:1094300002220021FEF77EF9012220460221FFF7D9
:109440000BFF20463021FEF79DFBE06D4FF42051CD
:10945000FDF74DFF6368E06D1A6801210132FEF7E8
:10946000F4F820460121FEF79DF92046FEF798FA10
:10947000C1E700BF15980508F8B5174604460D4624
:10948000520093B10B1D1A440221FFF7E5FE45EA95
:10949000072301221D212046FEF7F5FB002220466E
:1094A0001146BDE8F840FEF745B980F854308B1CF2
:1094B0001A440221FFF7D0FE3B462A461C21EAE768
:1094C0002DE9F7431646002701EB42020D4680F8CE
:1094D0005470114604469846FEF7EEFB70288DF84E
:1094E000060033D1626C236A03EBC203394620467F
:1094F00013F80C6CFEF7E0FB072805460DD888B181
:109500002046FEF74DFA636C226A03F10053013BDB
:1095100002F8336003B0BDE8F0835428F0D01F4850
:1095200003F0E6F802460DF107012046FEF7FBFCCA
:109530002046FEF7DAF8324603210123FEF70EFB40
:109540002A4631462046FEF7F5F8E3E745EA0629C4
:10955000B8F1000F0DD0033202212046FFF77CFE48
:109560004B463A461D212046FEF78DFB0022114650
:10957000E8E756EA050303D002212046FFF76CFE18
:109580000DF1060120460022FEF7CDFC01234A46DC
:109590001B212046FEF7E2FAE8E700BF2298050803
:1095A00070B50E46002180F8541004990B43044610
:1095B000154620D10221FFF74FFE2A46E06D01211A
:1095C000FDF7AEFFB4F84E20B4F84C3031690133EA
:1095D000501CA4F84E001A442046FEF7BCF9E06D7A
:1095E00003222B21FEF761F8002220461146BDE838
:1095F0007040FEF79FB802320221FFF72DFE45F4BE
:109600008072DBE770B5042A86B004460E46154624
:109610002AD102294FF0000518D10DF116030122BD
:109620000DF117010095FEF78FFCE06D2B46072228
:109630003146FDF7C9FF26212046FEF7A3FA002296
:1096400011462046FEF776F806B070BD0DF1150301
:1096500001930123009302950DF1160302220DF1EF
:109660001701FEF7FBFCE6E70023012A80F85430DF
:1096700001D9032A04D1324601212046FFF7ECFD2F
:10968000133500233246E9B22046FEF767FAD6E7E3
:1096900070B50025044604220E4680F85450294631
:1096A000FFF7DAFD20460421FEF712F81F21FEF72E
:1096B00069FAE06D4FF42051FDF719FEE06D324676
:1096C0002946FDF7C2FF2A4629462046BDE87040DC
:1096D000FEF730B870B5002504460E4680F85450A9
:1096E0002946FEF7BEF820464FF0FF31FDF7F0FFA8
:1096F000636819680231FEF70BFD2A4620465421A3
:10970000FEF72DF82A4620465421FEF728F82A466F
:1097100020465421FEF723F8204605220221FFF7B8
:109720009BFD03222B4620461C21FEF7ACFA636802
:1097300020461968FEF736FBE06D3146FDF7B9FDAE
:1097400020460121FEF78DF820460221FEF72AF877
:10975000E06D01222946FDF70AFFE06D4FF420512C
:10976000FDF7C5FD6368E06D1A6829460232FDF712
:109770006CFF2B46E06D2A460121FDF725FF2946A7
:1097800020460122FDF7D6FF2A4629462046FDF74E
:10979000D1FF2A4620465421FDF7E1FF204605224D
:1097A0000221FFF759FD2B46032220461C21FEF71C
:1097B0006AFA20461021FEF7E5F9E06D4FF42051DA
:1097C000FDF795FD6368E06D1A6829460132FDF7E3
:1097D0003CFF636820461968FEF79AFCE06D2A4654
:1097E0002946FDF79DFEE06D2A460121FDF7B8FEF2
:1097F0006368196820460131BDE87040FEF788BCF7
:1098000073B504460E461546002A56D1134601216B
:109810000DF10702FEF754FB022211462046FEF727
:1098200010FA01230D220A212046FEF7C7F9022271
:109830000DF107012046FEF776FB01220DF107012D
:109840002046FEF770FB2A460DF107012046FEF781
:109850006AFB9DF8071001222046FDF76BFF9DF87B
:10986000071002222046FDF765FF0222114620461E
:10987000FEF7E7F901230C220A212046FEF79EF9A4
:10988000022211462046FFF7E7FC2B462A461C2100
:109890002046FEF7F8F92A4629462046FDF74AFFFA
:1098A0002046FEF74BFA204601223146FDF798FF8D
:1098B0002046FFF7ACFA02B070BD002380F85430A8
:1098C000FEF73CFAAB1E5A425A4131462046FDF79C
:1098D00087FFF0E737B504460D4682B10322012128
:1098E000FFF7BAFC022201212046FEF7AAF9002365
:1098F0002A460B212046FEF761F903B030BD0DF179
:109900000701FEF710FB022211462046FEF799F9E7
:1099100001232A460A21EDE77FB5836D1D8B15F0E3
:109920000102044613D001220021FFF795FC00221A
:1099300002212046FEF755F80022E06D1146FDF7A2
:10994000EFFDE06D00220521FDF70AFE1FE0037C1C
:10995000002B53D011460192FEF7AEF95428019A1C
:10996000C5F3871528D12046FDF7BFFE019AC5B97A
:10997000E06D2B4607222946FDF726FEA36DDA8C03
:10998000002ADED11B8B03F01103002BD9D1E26A30
:10999000A1682046FEF72DFA012384F8543004B064
:1099A00070BDE06D1146FDF7BBFD01232A46042181
:1099B0002046FEF7D3F8E1E70DF10F012046FEF750
:1099C000B2FA9DF80F30AB4215D0072D98BF0E4A62
:1099D0000E4898BF32F81520266888BF40F29222C0
:1099E000072B96BF084940F2922331F813300849FB
:1099F00005F06CFC3060002DC0D0D6E71A460DF1A2
:109A00000F01FEF790FAB9E758980508D8AC050899
:109A10002A9805082DE9F04188B004460D460DF15D
:109A20001C08002940F020810121FEF745F9064677
:109A30008DF8170088BB01462046FEF73DF98DF8EA
:109A40001C00C0B9012241462046FEF76CFA0022F4
:109A50000DF117012046FEF766FA04220F210223BA
:109A60002046FEF77BF8002211462046FDF762FEF5
:109A700008B0BDE8F081324641462046FEF753FA71
:109A80009DF81C20204601230421FEF767F8E06DB5
:109A900032460121FDF796FCD9E7636C226A013B4F
:109AA00002EBC30132F8332040F202239A426DD117
:109AB000204601264F68FDF718FE334600964246C1
:109AC0000DF117010795FFF775F99DF81730062B73
:109AD00026D0072B3FD0052B40F0B680C7B17B1EA8
:109AE0001E2BE06D09D8079B00972A464FF4F041E2
:109AF000FDF7A1FE00220221B7E73A463146FDF705
:109B00000FFD079BE06D32463146FDF7A2FE07963A
:109B10000799C90041F4F041E06DFDF7E8FBE9E782
:109B2000A7B17B1E1E2BE06D05D8079B00972A4628
:109B30004FF40841DCE77A003146FDF7F1FC079B62
:109B4000E06D32463146FDF784FE07960799C9005D
:109B500041F40841E0E7A7B17B1E1E2BE06D05D85C
:109B6000079B00972A464FF4D041C1E7BA0031461F
:109B7000FDF7D6FC079BE06D32463146FDF769FEE6
:109B800007960799C90041F4D041C5E7012307931F
:109B900042462B4606A920460095FFF70BF92A46B8
:109BA0000DF117012046FEF7BEF99DF818309A1EF8
:109BB000012A0ED9072B98BFBD4ABE4998BF32F87B
:109BC0001320BD48256888BF40F2922205F07EFB35
:109BD00028609DF81730062B0CD0072B19D0052BC9
:109BE00032D100221146079BE06DFDF732FE4FF4A3
:109BF000F04191E700221146079BE06DFDF729FE39
:109C000000221146079BE06DFDF723FE4FF408414B
:109C100082E700221146079BE06DFDF71AFE002245
:109C20001146079BE06DFDF714FE00221146079BCD
:109C3000E06DFDF70EFE00221146079BE06DFDF77B
:109C400008FE4FF4D04167E7072B98BF984A9B491D
:109C500098BF32F813209848256888BF40F29222B6
:109C600005F034FB286045E7012940F06581FEF7E7
:109C700023F806468DF8150048BB01462046FEF73E
:109C80001BF8022102468DF818002046FEF714F852
:109C900052EA00038DF81C0008D03146204603220A
:109CA000FFF7DAFA03212046FDF712FD0223CDE982
:109CB00001830023009306A920460DF1150301221C
:109CC000FEF7CCF90F212046FDF75CFFD0E6636C70
:109CD000226A013B02EBC30132F8332040F2022337
:109CE0009A4240F0938020464E68FDF7FEFC022326
:109CF0000022CDE90623009306AA2B460DF115019B
:109D0000FFF758F8069B009542460DF117012046D3
:109D1000FFF750F89DF817305A1E022A0ED9072B6C
:109D200098BF634A664998BF32F813206248256895
:109D300088BF40F2922205F0C9FA28609DF81530DC
:109D4000062B27D0072B43D0052B40F0E580BEB172
:109D5000731E1E2BE06D07D8DDE9063200964FF426
:109D6000E041FDF768FD83E632460121FDF7D8FBAF
:109D70000122069BE06D1146FDF76BFD0123069362
:109D8000DDE9063141EAC30141F4E041E06DFDF750
:109D9000AEFA6DE6AEB1731E1E2BE06D05D8DDE99F
:109DA000063200964FF40041DBE772000121FDF717
:109DB000B7FB0122069BE06D1146FDF74AFD01232A
:109DC0000693DDE9063141EAC30141F40041DDE7D4
:109DD000AEB1731E1E2BE06D05D8DDE9063200968C
:109DE0004FF4C041BDE7B2000121FDF799FB01220C
:109DF000069BE06D1146FDF72CFD01230693DDE97E
:109E0000063141EAC30141F4C041BFE70223079391
:109E1000009306AA00230DF1160120460695FEF7D1
:109E2000C9FF00220DF115012046FEF77CF89DF8D0
:109E300016309A1E012A0ED9072B98BF1C4A2149B9
:109E400098BF32F813201C48256888BF40F2922240
:109E500005F03CFA2860069B0093424600230DF172
:109E600017012046FEF7A6FF9DF817305A1E022A5A
:109E70000ED9072B98BF0E4A114998BF32F813200C
:109E80000D48256888BF40F2922205F01FFA28602D
:109E90009DF81530062B17D0072B23D0052B3BD16F
:109EA00000221146069BE06DFDF7D3FC07996BE796
:109EB000589805083B980508D8AC0508329805085D
:109EC000459805085098050800221146069BE06D4C
:109ED000FDF7BFFC00221146069BE06DFDF7B9FCC3
:109EE000079972E700221146069BE06DFDF7B1FC71
:109EF00000221146069BE06DFDF7ABFC00221146E7
:109F0000069BE06DFDF7A5FC00221146069BE06D67
:109F1000FDF79FFC079976E7072B98BF0D4A0E497E
:109F200098BF32F813200D48246888BF40F292226F
:109F300005F0CCF920609BE50025434606A9009575
:109F40000122FEF701F802232A460F212046FDF7E1
:109F500005FE8DE5589805084A980508D8AC05080F
:109F600073B5064660200D460192F6F7B4F8C0E9D5
:109F7000006508250446C5614020F6F793F8A56200
:109F800020622020F6F78EF820632020F6F7A3F851
:109F90000199E065FDF758F9204602B070BD10B593
:109FA00004460021C06DFDF757F9E06DF6F7A2F801
:109FB000206BF6F79FF8A069F6F79CF8206AF6F791
:109FC00099F82046BDE81040F6F794B838B5054634
:109FD000B2B1940714D110792E2811D192687AB1B8
:109FE00090070DD15468E0B2922809D1240A022CBE
:109FF00006D191681960049BD2681A60012038BDAF
:10A000000A460448044905F061F96B6A18600020AB
:10A01000F5E700BFACAB05085B990508038C032B83
:10A0200070B5C46A03D1856A00239D4205D144F806
:10A030002120FDF73EF9012070BD54F823609642BF
:10A0400001D00133F1E70020F6E710B50446FDF733
:10A0500095F92046BDE81040FDF748B938B58BB2F8
:10A06000032B04460D460384426205D1826AC06A0E
:10A070009200002115F094FB042D20460CBF022114
:10A080000121FDF7F4F820460021BDE83840FDF736
:10A0900047B9000002F00F03022B10B5044608D0A8
:10A0A0000A460D490D4805F011F9636A1860002051
:10A0B0000FE0816A12090023994204D1238C042BFA
:10A0C000F5D10749EEE7E06A50F82300904201D14C
:10A0D000184610BD0133EFE777990508ACAB0508CA
:10A0E0007D99050800F00F03022B02D10009F6F755
:10A0F00047BE0148704700BF5949060870B505467C
:10A1000010460E46FFF7EEFF0378732B19D1437804
:10A11000BBB103460A22002013F8014F5CB91F2887
:10A1200008D90B490B481F23324605F0CFF86B6A5C
:10A130001860002070BD303C092C02D802FB0040A2
:10A14000EAE705490348324605F0C0F8EFE700BFEB
:10A1500089990508ACAB050896990508F8B5044639
:10A1600010460D461E46FFF7BDFF174A077800212F
:10A1700094465378BB421BD190F801E093789E45FA
:10A1800016D190F802E0D378734511D16BB91CF861
:10A190002100B04208D90D490D4833462A4605F042
:10A1A00095F8636A18600020F8BDC378002BEED0E4
:10A1B0000131152902F10402DBD1064904482A467F
:10A1C00005F084F8EDE700BFE09A050889990508D5
:10A1D000ACAB05089F9905082DE9F34706460F46E5
:10A1E000002A3CD093073AD113792F2B37D19268AC
:10A1F00002F00F03022B08D10F23FFF7AFFF01245A
:10A200008440204602B0BDE8F08742B312F0030A52
:10A2100025D113799F2B22D1D5682B79A12B1ED163
:10A2200092680F23FFF79AFF4FF0010808FA00F435
:10A2300001AAA22105F10800F9F766F88146CA458E
:10A24000DFDA019A0F2352F82A2039463046FFF709
:10A2500085FF08FA00F31C430AF1010AEFE70449FD
:10A2600004483A4605F032F8736A00241860C8E7DB
:10A27000A5990508ACAB0508F0B585B005460E46B6
:10A28000104603A91F46F8F737FE48B90B490C489A
:10A29000324605F01BF86B6A1860002005B0F0BD6F
:10A2A000039803F051F830EA0703F7D00346054955
:10A2B00000973246024805F009F8ECE7B699050820
:10A2C000ACAB0508BC9905082DE9F0470F4688B0EE
:10A2D000044605A938461E469146F6F756FD037812
:10A2E000762B054640F02B81B9F1020F40F0D68065
:10A2F00040F2B3439F4232D14EF6B4684FF42C691A
:10A3000006E04EF6B168F9E74EF6B1684FF42469FD
:10A31000326829462046FFF7F1FE72680746294653
:10A320002046FFF7EBFEFB02420102F0200203F49D
:10A3300070431343B90143EA0903C0F3430001F03A
:10A34000400143EA000241EA08012046FCF7D9FF38
:10A3500029E24EF6B868D1E74EF6BD68CEE740F286
:10A36000BF439F42CDD040F2BE439F42CCD040F28B
:10A37000B4439F42EDD040F2B5439F42ECD040F24F
:10A38000BD439F421ED13068FFF7ACFEAE4915F0C9
:10A390004DFAA8B132680F2329462046FFF7DEFEAA
:10A3A00007467068FFF79EFEA84915F03FFA00289F
:10A3B00040F0BC803A0342F421624EF6F161C4E7FA
:10A3C0000F27EEE740F2BC439F422ED13068FFF7E3
:10A3D00089FE0378722B18D132680F232946204654
:10A3E000FFF7BCFE2946726880462046FFF786FECE
:10A3F0004EF610610746FA01D2B242EA0832C7F3BC
:10A40000430742F4216239439FE7326829462046D8
:10A41000FFF774FE2946726807460F232046FFF7B0
:10A420009DFE4FF46E418046E5E740F2BA439F42FD
:10A430002ED14EF69058326829462046FFF75EFE30
:10A4400007AB00930746726806AB29462046FFF724
:10A45000BDFD002800F0A781069A07232946204663
:10A46000FFF77CFE079A06464FF47F732946204685
:10A47000FFF702FFFB02B90103F4704301F0400152
:10A4800043EA900041EA080140F4206231435CE76E
:10A49000B7F5986F4AD14EF68058CCE7B9F1030F63
:10A4A00044D1DFF8C081002700F1010A03224146B0
:10A4B000504615F0D3F9A0BB2B7993BB644B32689F
:10A4C00013F8278029462046FFF718FE72680746D2
:10A4D00029462046FFF712FEB268814629462046EB
:10A4E000FFF70CFEFB02420103F4704302F020026E
:10A4F0001A4342EA50034FEAC912D2B21343BF01D2
:10A500004FEA0812D2B207F0400708F0F00142F417
:10A51000206247EA590941F46E411A4349EA0101B0
:10A5200013E70137042F08F10408BFD14B4649490E
:10A5300049482A4604F0CAFE636A186033E1B9F15B
:10A54000000F10D140F2EA339F4205D14FF43F4152
:10A550002046FCF7CCFE26E140F2C3439F42E5D102
:10A560004BF63071F4E7B9F1010F40F0FC8040F296
:10A57000FA22974212D1014632682046FFF78AFD3F
:10A5800001462046FCF744FF002840F00C81334987
:10A590003148646A04F010FE206004E1B7F5407FA2
:10A5A00009D1014632682046FFF774FD0146204676
:10A5B000FCF782FFE8E7B7F5427F09D10146326830
:10A5C0000F232046FFF7CAFDC00040F48E41BFE7CD
:10A5D000622B49D1059B032B0CD0052B40F09080BA
:10A5E000C3785F2B40F08C8003796E2B02D0772BE1
:10A5F00040F0868069781A4B00224FF0FF37587878
:10A60000884205D195F802C09878844508BF1F7824
:10A6100001320E2A03F10303F1D1781C86D032688F
:10A6200029462046FFF736FD059B052B024609D13A
:10A630002B79A3F177014B424B4139462046FCF779
:10A6400005FFA1E70023F8E7D2990508DC99050882
:10A65000D09A0508EF990508ACAB0508FC990508E8
:10A660003B9A0508D19A0508692B49D14378742B88
:10A6700046D13068FFF736FDC54B017800221F46F2
:10A680005E788E4228D190F801C09E78B44523D1DF
:10A6900086780EBBAE1C31460B4601311878002877
:10A6A000FAD1691D8B423FF641AF02EB4202013BFA
:10A6B000BA5C12F0010F4FEAC2000CBF4FF0080C59
:10A6C0004FF0000C00F008000821B3420AD241EA22
:10A6D000021141F43F413BE701320E2A03F103032B
:10A6E000CED123E713F80179742F4FEA510101D13C
:10A6F0000143EAE7652F7FF419AF4CEA0101E4E773
:10A7000040F226339F4202D14BF2726120E740F2C1
:10A7100027339F4202D14BF2626119E740F21243A4
:10A720009F420ED1326829462046FFF755FD10F4AE
:10A730007F4F024602D140F4344109E74EF62D1115
:10A7400003E6782F7FF4F2AE326829462046FFF701
:10A7500043FD10F47F4F024602D140F43C41F7E63E
:10A760004EF6BD01F1E5B9F1020F40F0AE8173681C
:10A7700003F00F03022B40F2DD3340F09E809F4236
:10A7800014D1014632680F232046FFF7E7FC7268B8
:10A79000074629460F232046FFF7E0FC39460246CC
:10A7A0002046FCF70FFE08B0BDE8F08740F21733F3
:10A7B0009F421CD14FF6B0294FF2800732680F2319
:10A7C00029462046FFF7CAFC7268804629460F23B7
:10A7D0002046FFF7C3FC47EA000242EA082249EAA2
:10A7E0000001B2E54FF690294FF2A007E6E740F2EC
:10A7F0001E439F42F6D040F2E2339F422BD10146E6
:10A8000032680C232046FFF7A9FC07467068FFF763
:10A8100069FC014603905F4815F008F898B1039968
:10A820005D4815F003F8A0B12A465C495C4804F085
:10A830004DFD636A0022186042EA072242F400429A
:10A840004FF2EF3181E50023564A02EBC302D25C9E
:10A85000F2E70123F8E740F2EE239F4215D14FF4CF
:10A8600080473268294607232046FFF777FC726845
:10A870008046294607232046FFF770FC42460346E0
:10A8800039462046FCF799FD8DE7DFF82081002747
:10A8900003224146284614F0E1FF40B9EB7833B972
:10A8A000414B13F827703F0147F48047D9E7013740
:10A8B0000F2F08F10408EBD138E69F421CD14FF46A
:10A8C00000573268072329462046FFF747FC2946F0
:10A8D00080467268FF232046FFF7CEFC47EA00015E
:10A8E00041EA082134E64FF42057EAE74FF4405795
:10A8F000E7E74FF46057E4E740F219339F42F2D0A4
:10A9000040F2E3239F42F1D040F276439F42F0D0E1
:10A9100040F2DF339F4219D14FF2402832680F23B3
:10A9200029462046FFF71AFC726807464FF6FF7368
:10A9300029462046FFF7A0FC3A46034641462046FA
:10A94000FCF752FD2FE74FF2C028E7E740F2DE3375
:10A950009F42F8D0B7F5787F2AD1014632680F239D
:10A960002046FFF7FBFB2946074672684FF0FF338E
:10A970002046FFF781FC3A4683B205464FF240215C
:10A980002046FCF731FD2B0C3A464FF2C021D6E7AA
:10A990003B9A0508359B05083E9B0508E29905088A
:10A9A000ACAB0508349B05087C9A05087D9A050820
:10A9B000B7F56B7F28D1014632680F232046FFF799
:10A9C000CDFB07AB00930746726806AB29462046CD
:10A9D000FFF7FCFA00283FF4E6AE069A0F2329465B
:10A9E0002046FFF7BBFB079A0646FF232946204671
:10A9F000FFF742FC830843EA073246F4684142F419
:10AA0000706241F05001A0E440F2AA339F4241D06D
:10AA100040F2AB339F423FD040F2AD339F423DD036
:10AA2000972F3DD040F272439F423BD040F2744397
:10AA30009F427FF47BAD0523874A294632F8237075
:10AA4000326807232046FFF789FB07AB0093804657
:10AA5000726806AB29462046FFF7B8FA00283FF493
:10AA600065AD069A072329462046FFF777FBFA04CF
:10AA7000064619D51F23079A29462046FFF7FCFBF7
:10AA8000034647EA08079B0147EAC60103F4F86357
:10AA900019435DE50023CFE70123CDE70223CBE790
:10AAA0000323C9E70423C7E73B04079A06D53E23DF
:10AAB00029462046FFF7E0FB4308E2E77C232946CE
:10AAC0002046FFF7D9FB8308DBE7B9F1030F7FF4DA
:10AAD0002DADB7F56F7F21D10027326807232946B6
:10AAE0002046FFF73BFB7268814607232946204634
:10AAF000FFF734FB29468046B2681F232046FFF744
:10AB0000BBFB47EA090747EA801747EAC8011FE588
:10AB10004FF40067E1E74FF48057DEE740F2BD33C2
:10AB20009F42F5D040F2F6239F42F4D040F2E32357
:10AB30009F422BD14FF4C058326807232946204644
:10AB4000FFF70CFB72680723074629462046FFF7EC
:10AB500005FBB26802F00F03022B81460ED10723DA
:10AB600029462046FFF7FAFA47EAC90747EA0801EB
:10AB700041EA8011ECE44FF4D058DDE70723294681
:10AB8000204648F48068FFF777FBEDE740F24B433F
:10AB90009F4222D14FF6903832680F232946204633
:10ABA000FFF7DCFA726881460F2329462046FFF73B
:10ABB000D5FAB268074629460F232046FFF7CEFA9A
:10ABC00040EA092040F4704242F0F00248EA0701EE
:10ABD000FFF7BBBB4FF6B038DEE740F296439F422B
:10ABE000F8D040F276439F42C5D040F273439F4273
:10ABF0007FF49CAC014632680F232046FFF7AEFA83
:10AC000072680F23294607462046FFF7A7FA07ABCD
:10AC100000938046B26806AB29462046FFF7D6F976
:10AC200000283FF4C0AD069A0F2329462046FFF7BF
:10AC300095FA079A0646FF2329462046FFF71CFB94
:10AC40003B0243EA083346F4684143EA900241F08C
:10AC50004001FFF77ABB00BFB89A050804292DE927
:10AC6000F04106460C46904625D9446A13491448DB
:10AC700004F0A2FA206000242046BDE8F08100091B
:10AC8000F6F77EF8074614F0C3FD022810D13B7892
:10AC9000722B0DD17A7805F130039A4208D1013533
:10ACA000A542E9D058F8250000F00F03022BE6D0AA
:10ACB000746A0449DBE70025F2E700BF079A05083C
:10ACC000ACAB0508269A050838B505463020F5F7DF
:10ACD000E9F920220446002114F062FD29462046AD
:10ACE000FCF7B2FAA562A800F5F7DCF9E0622046AD
:10ACF00038BD10B50446C06AF5F7FCF920460021BE
:10AD0000FCF7AAFA2046BDE81040F5F7F3B901298F
:10AD100010B5146828D934F01001037815D1302B00
:10AD20001ED1417841F02001782900F1020303D1BE
:10AD300010211160181A10BDCCB96F2901D108215A
:10AD4000F7E7622911D10221F3E7082C11D1302B4A
:10AD50000DD1437843F020036F2B08D1831CE9E722
:10AD6000082C04D0022C02D00CB90A23136003462D
:10AD7000E0E7022CFBD1302BF9D1437843F02003DC
:10AD8000622BEAE708B51020F5F7A5F90278012152
:10AD900061F30202027008BD10B5048803F07F035E
:10ADA000DB0024F47F7443F0020324F00304234304
:10ADB000C0E90112038010BD10B5049B039CDB00A9
:10ADC00001F0070103F47E730B43074901EA842174
:10ADD0000B430168490D49050B43C0E90032029B52
:10ADE0008360059BC36010BD00FC1F0038B504469E
:10ADF00008462378656803F00703042B11460BD837
:10AE0000022B0BD9A3682A4604F076FF23881A0781
:10AE100001D50B4B036038BD052B08D0A3682A462B
:10AE200004F03AFF23881B07F5D5064BF2E72068AC
:10AE3000E2682946C0F38A20BDE8384004F064BFC8
:10AE400010B10508D4B0050838B5154611F4807264
:10AE50000C4614BFD5E900121146FFF7C7FF62097F
:10AE600002F008022A44E1B2BDE8384003F0DCB940
:10AE70002DE9F04303685A1C02601B780022C3F3DB
:10AE8000C304C3F3800E03F0030715461646944629
:10AE9000D0F800801B0608F101091ED4C1E9046541
:10AEA00001340022C1E9004EC1E902C7134614462D
:10AEB00006270568691C01602D7805F0010696409B
:10AEC000334307FB02FCC5F3450606FA0CF62D06D4
:10AED00044EA06042DD50132EBE7C0F8009098F85B
:10AEE00000304FEA420903F0300808FA09F844EA52
:10AEF000080403F0020808FA02F84EEA080EC3F349
:10AF0000801808FA02F84CEA080C03F0040808FA62
:10AF100002F847EA0807C3F3C00808FA02F846EA4D
:10AF2000080603F0010808FA02F845EA08050132AC
:10AF3000AEE723440B4403600846BDE8F083028873
:10AF40004B0803F4806322F4816243EA113322F058
:10AF500007021343038043880A0103F4706302F479
:10AF6000E0421343C9B2194341807047D0E900035E
:10AF7000184770B505460C468E18B44200D170BD16
:10AF8000D5E90003984704F8010BF6E770B50546CC
:10AF90000C460026D5E90003984724B123681870B1
:10AFA00023680133236000F07F0343EAC6160306DB
:10AFB000F0D4304670BDF8B50C4600210746FFF7C7
:10AFC000E5FF20B93846BDE8F840FFF7CFBFC3071B
:10AFD0004FEA500527D523885A1B02F01F0204EBC5
:10AFE000420193424E8835460DD2911C04EB41003C
:10AFF000C2F11F0252000146023814F0B9FB638807
:10B00000A4F8403000222388501C40009A1A811C6A
:10B0100021442044520014F0ABFB218804EB41048E
:10B0200066802846F8BD2846F5F73CF82A460646CD
:10B0300001463846FFF79DFF29463046F5F7FAFDF1
:10B0400005463046F5F756F82188013101F01F0119
:10B05000218004EB41046580E3E700002DE9F8431B
:10B06000DFF8988005460E46174600242868FFF74B
:10B070007DFF5FFA80F9B9F1FF0F01D1BDE8F883D8
:10B08000C2070FD528680021FFF780FF10F0010FDD
:10B090001CBF6B685C684FEA50000CBF06EB800475
:10B0A00004EB8004B9F10B0F4FEA590310D8DB070A
:10B0B0000CD528680021FFF769FF5FEA99091BD0CA
:10B0C0006B6853F829300246214610E00120F4E76E
:10B0D000062B1BBF03F18043073B434658F8233040
:10B0E0000120F0E751F804CB9C4441F804CC013A2C
:10B0F000F8D204EB8004B9E73B46E4E7309D05084D
:10B100002DE9F04F894695B000210446FFF73EFF38
:10B1100000F003054FEA900805F1020A1C22002105
:10B120000DA814F03DFBBAF1020F404640F0AC8090
:10B13000F4F7B8FF09A9CDE9080006462046FFF755
:10B1400025FF09A92046FFF721FF0DA908A8FFF751
:10B150008FFE49462046099DFFF72DFF2870000A03
:10B16000687049462046FFF726FFA870000AE8707D
:10B170000999089A0431521A20460991FFF7F9FEFD
:10B18000089D06EB0807AF424FD800212046FFF785
:10B19000FDFE002105902046FFF7F8FE0690DDE950
:10B1A00010031844059B1844069BBAF1020F18447B
:10B1B00007D00F9B9D064CBF02300130590648BF97
:10B1C00001308000F4F76EFF4FF0000B0746054694
:10B1D000DDE9103213445B4500F2D980BAF1020F69
:10B1E00011D0B14B2B600F9B9A0600F1DC80043527
:10B1F0000F9B5B0607D500212046FFF7C7FEF4F73B
:10B200006AFF45F8040B00230493DDE904329342FE
:10B2100040F0DA8005EB83054FF0000B069B9B4561
:10B2200040F010814FF00009A2E02046FFF79EFE9B
:10B230000022287009A928460EF09EFA099B0128D1
:10B2400003F1FF3305F1010B099313D14946204661
:10B25000FFF7B1FE6870000AA870099B023B05F178
:10B26000030B0993099A59462046FFF782FE099D70
:10B270005D4488E70228F5D12046FFF777FE0306F4
:10B280000BF8010BF8D4EDE7F4F70CFF424601464A
:10B2900006462046FFF76DFE032D1CD1BAF1030FC1
:10B2A00050D100212046FFF771FE304409900DA9CE
:10B2B00009A8FFF7DDFD494605462046FFF77BFE5E
:10B2C0002870000A687049462046FFF774FEA8708F
:10B2D000000AE87059E700212046FFF757FE0025D5
:10B2E0000746BD42DAD000212046FFF74FFE49460F
:10B2F00083462046FFF75FFE4FEA9B03014606EBBD
:10B300009B001BF0030B04D1F154090A4170013575
:10B31000E7E7BBF1030F04D1C90041F0020101606E
:10B32000F5E7BBF1020F40F0BC80C90041F0020B11
:10B330001FFA8BF1FFF703FE4FEA1B410430FFF7C2
:10B34000FEFDE4E700212046FFF720FE0027BAF1CA
:10B35000050FCDE910770F907FF417AF39462046DF
:10B36000FFF714FE394610902046FFF70FFE814686
:10B37000FFF708FDBAF1020F05466CD10F9B3A4664
:10B380003146FFF709FD284615B0BDE8F08F494664
:10B390002046FFF710FEC00040F0020045F8040B05
:10B3A0000BF1010B14E700212046FFF7EFFD04909D
:10B3B000F4F778FE049A834601462046FFF7D9FD4C
:10B3C000083545F804BC13E72046FFF7CFFD5FFAC8
:10B3D00080FBBBF1650F33D000212046FFF7D6FD7F
:10B3E0000146079009A8F5F7C9FD079A0B99204671
:10B3F000FFF7BFFDBBF1730F0BD0BBF1620F0AD19A
:10B400002A4809A907F050F9049B45F823000133A5
:10B41000FAE62748F5E7BBF1690FDDE90A104FF0BE
:10B42000000303D10A22D7F763FDEDE7ABF1630C0C
:10B43000DCF10002009342EB0C02D7F7D7FDE3E703
:10B440001C48E1E749462046FFF75AFE45F82B0025
:10B450000BF1010BE2E60F9BDB06CDE9094712D5A4
:10B46000154CD4F8C41021B9084605F03DFDC4F8C8
:10B47000C4003146D4F8C40005F0DFFA3246314644
:10B4800009A8FFF7EBFD0F9B0293109BCDF80C90E2
:10B49000CDE900733246434651462846FFF78CFCFF
:10B4A00071E789B24BE700BF309D0508E4BC050891
:10B4B00048BF050828BA0508805C002030B593B065
:10B4C000042269460446FFF754FD9DF800304D2BD9
:10B4D00002D0174800F018FF9DF80130052BF8D175
:10B4E0009DF8023003F00303022BF2D19DF80330E4
:10B4F0001F2BEED800212046FFF748FD2028E8D872
:10B500009DF802309B0804D0043B032B01D9094865
:10B51000E0E7002301A92046ADF80430FFF7F0FD75
:10B52000A368054620689847284613B030BD00BF81
:10B530009F9B0508AB9B05081FB5014601A813F0AA
:10B540005FFC01A8FFF7BAFF05B05DF804FB00003F
:10B55000F8B5204C00250127F5F730FBE564A4F889
:10B56000EE51A4F8EC7103F0C3FD1B4B656304F1CD
:10B570009006C4E90B3504F13C00184BA36303218A
:10B58000C4F8E05184F8E45103F0CAFB3946304670
:10B5900003F0C6FBBA21AA22304603F03FFC104B51
:10B5A0001A681B6852685B68966004F5F870DE6084
:10B5B000C4E93055C4E97055C4E97255C4F8D05196
:10B5C0001AF0F2F9394604F5F870BDE8F8401AF0BF
:10B5D000EFB900BF805C002054A90508C0C1050870
:10B5E0002463002008B5084BD3F8C00008B9074809
:10B5F00008BD002240F27A51043001F0D7FB002848
:10B60000F5D04068F4E700BF805C0020CCC6050898
:10B61000044B1B685B68C0000A4640F00201986852
:10B6200003F0FCBB24630020044B1B685B68C00074
:10B6300040F00201986803F000BC00BF24630020C2
:10B64000044B1B685B68C0000A4640F00201D868E2
:10B6500003F0E4BB24630020044B1B685B68C0005C
:10B6600040F00201D86803F0E8BB00BF246300206B
:10B67000F8B51C46930707460D46164609D11368D0
:10B680009A88910617D5530612D5EA68124B9A424A
:10B6900001D12660F8BD58B9104B9D4208D00C204E
:10B6A000F4F700FD0E4B8660C0E900352060F1E73D
:10B6B000C4E90067EEE70B4A934202D17368236046
:10B6C000E8E7094A9342E4D110B101F087FD05464D
:10B6D0007368C4E90035DDE7CD52030864B5050899
:10B6E000F49C0508A4C3050868C3050800232DE9D8
:10B6F000F041C2E900330D460746144601F06EFDE5
:10B700000A2D064602D12060BDE8F081192D05D131
:10B71000836A1BB10F4BC4E90037F5E7F3692BB11E
:10B72000224629463846BDE8F0411847B06B00284C
:10B73000EAD0E9001A4641F00201043001F036FB7C
:10B740000028E1D04268234631463846BDE8F04142
:10B75000FFF78EBF9CC7050830B595B0054602A817
:10B76000CDE900211C46F4F75FFCDDE9002130B98A
:10B770002846FFF7BBFFF4F74DFC15B030BD002C99
:10B78000FBD1039B0449186809F050FF0028F4D14D
:10B790000398F4F761FC00BF38A7050870B5456849
:10B7A0000024AB68A34200D870BDEB6853F83400A6
:10B7B000E60078B104280DD007F0B6FC03785F2BC3
:10B7C00008D0EB68985907F097FCEB683344596848
:10B7D000FFF71EFF0134E4E708B519B903F0DCFCFC
:10B7E000F4F73AFC03F0E8FCFAE70EB403B503AA59
:10B7F00052F8041B019203F007FDF4F72DFC000042
:10B80000134B1B6813B55B68C1000446D86841F050
:10B81000020100220430019101F0C8FA019948B9EF
:10B820000C4BD3F8C03043B10246181D01F0BEFAEC
:10B83000019910B1406802B010BD0748002201F024
:10B84000B5FA0028F6D1054905482246FFF7CDFF95
:10B8500024630020805C00200CC80508B79B050805
:10B8600008AA05080E4B1A68196852684968926858
:10B87000C968914210B504460CD01B685B68C100D2
:10B880009868002241F00201043001F08FFA08B1FB
:10B89000406810BD2046BDE81040FFF7B1BF00BFB3
:10B8A0002463002030B5032885B005460C4607D137
:10B8B000084601F0ADFEF8B10E24204605B030BDBB
:10B8C000CA072DD54910082828D801A353F820F01D
:10B8D000BBB8020801B902081DB902081DB9020867
:10B8E000F5B802081DB90208BBB80208FDB8020885
:10B8F000BBB802080029DFD01E24DEE70029DCDA0D
:10B90000B1F1404F05D14FF0804004F062FE044693
:10B91000D3E74C42640044F00104CEE7CC43F9E79E
:10B92000062821D101F00703022B0CD08B071BD175
:10B930000B689A691D4B9A4216D1486840B98B68CA
:10B94000C86803930CE0CC082046F5F70FFA18B14D
:10B95000400040F00104B0E703A92046F5F715FACE
:10B960000399F5F71BF9F3E7204601F037FC43692B
:10B970004BB9082D0DD1204601F03CFC0C49024684
:10B980000C48FFF732FF2146284698470028BED1D1
:10B99000EFE7094B20465A5D019201F02BFC019A1A
:10B9A000064903460348FFF720FF00BF993103080B
:10B9B000C39B050824AC050858C40508CA9B0508A4
:10B9C00030B585B0CDE902210446019301F006FCB3
:10B9D000056945B1DDE9013203992046AC4605B061
:10B9E000BDE830406047204601F004FC02490246B1
:10B9F0000248FFF7FAFE00BFD39B050824AC0508F8
:10BA000000231A461946FFF7DBBF00002DE9F0417D
:10BA1000224C15462268526896B0D268009222687D
:10BA200052689268019222685268D5602268526812
:10BA30000746936004A80E46F4F7F6FAA04608BB42
:10BA40003C683246394602A8F7F772FCB6FA86F22D
:10BA50002146520902A8FAF77BFD044615B1FFF70B
:10BA6000CFFF0446F4F7D6FA009AD8F800305B68A6
:10BA7000DA60019AD8F800305B6820469A6016B008
:10BA8000BDE8F081009A236805985B68DA60019A46
:10BA900023685B689A60F4F7DFFA00BF2463002034
:10BAA00007B50022019101AB0121FFF789FF03B027
:10BAB0005DF804FB30B45568003D144618BF0125FD
:10BAC000C5F1020302EB83030A462918206830BC43
:10BAD000FFF776BF10B5044603F006FC38B100232B
:10BAE00020461A46BDE810401946FFF769BF2046B8
:10BAF00003F010FC28B9BDE810400349034803F0E7
:10BB00005BBB204610BD00BFD99B050824AC0508CF
:10BB10007FB50623CDE90233C0000F4B40F0020091
:10BB20000190D3F8C000CDE9041278B1002240F2B0
:10BB3000EA51043001F03AF940B1406801AB00220B
:10BB40000521FFF73DFF07B05DF804FB01A90520C3
:10BB50000AF0BEFDF7E700BF805C002037B5154650
:10BB600004460191FFF7C2FD2A68019B92B9A20722
:10BB700008D12168084A914204D1E288074908485F
:10BB8000FFF733FE2046019301F034FB019B05498A
:10BB90000246F4E703B030BD1CC40508FA9B050853
:10BBA00038A70508039C050807B56A46FFF7D6FFC6
:10BBB000DDE9000111B903B05DF804FB02F0CEFA33
:10BBC000F9E700002DE9FF411D4606460C461746E1
:10BBD00001F004FB324B984208D12B463A462146ED
:10BBE000304604F03FF904B0BDE8F081D0F8288079
:10BBF000B8F1000F08D0062C21D13046C04728608C
:10BC0000003818BF0120EEE7062C18D101AA19212F
:10BC10003046FFF76BFD019B6BB901AA8A213046C4
:10BC2000FFF79CFF039401AA00210120FFF742FFC8
:10BC300028600120D7E701AA41464046F6E7002CDC
:10BC4000EBD1384601F0CAFA164909F0EFFC01AA17
:10BC500068B147213046FFF749FD019B7BB101AA3E
:10BC600021462046FFF726FF28602046BBE79B21A0
:10BC70003046FFF73BFD019B0BB10397D3E70A4921
:10BC8000384603F04EFB30B10849094803F094FAF6
:10BC900028600220A7E73846FFF71CFFF8E700BF3F
:10BCA00098B0050828A8050870AB05080B9C050886
:10BCB000F8AA050873B505460C46164601F08EFA3B
:10BCC000C36943B10422CDE9002621466A462846CD
:10BCD0009847009B43B1284601F08CFA034902467D
:10BCE00023460348FFF781FD02B070BD039C0508A1
:10BCF00038A7050873B506460C4601F06FFA174AD7
:10BD0000436A9342054627D063B134B9144A93423B
:10BD100003D01020F4F7C6F904466B6A214630467A
:10BD2000984778B96A460F213046FFF7DFFC009B41
:10BD300053B11CB91020F4F7B5F904462146684602
:10BD400004F098F902B070BD304601F053FA05498D
:10BD500002460548FFF749FD3046F3E7D1D7020810
:10BD600035500308229C050824AC050837B5044665
:10BD700001F034FA856A1DB12046A84703B030BDF2
:10BD80006A4619212046FFF7B1FC009B2BB16A4699
:10BD900029462846FFF78EFEF0E7204601F02AFAF2
:10BDA000024902460248FFF720FD00BF2F9C05080C
:10BDB00024AC050830B5054695B000F00DFF2846C7
:10BDC00001F00CFA846A2CB12846A04704462046AC
:10BDD00015B030BD6A4619212846FFF787FC009B45
:10BDE000ABB102A8F4F720F9014630B96A46FFF773
:10BDF00061FE0446F4F70EF9E9E7039B0849186869
:10BE000009F014FC0028E2D10398F4F725F928463C
:10BE100001F0F0F9034902460348FFF7E6FC00BFD2
:10BE200070AB05082F9C050824AC05082DE9F04FE0
:10BE30002DED028B13688BB008EE103A00284ED11E
:10BE400002F104090446C1F3072301935B005FFA82
:10BE500081F853FA81F1029359F821B009EB81017D
:10BE60004F68002F3FD017F003003CD13968824A59
:10BE7000914202D1384602F0CEFF019B1E18760097
:10BE80004FEA880ABBF1000F2FD108F101031E44CD
:10BE9000B000F4F707F905460CB10460012405EB86
:10BEA00084005246494613F035FC4444019B09EB9B
:10BEB0000A01DA0005EB840013F02CFC029B2344FA
:10BEC0009846002F00F0868017F0030340F095801D
:10BED0003968694A914240F090801E4677E0546884
:10BEE00002F10809AFE70020C7E71BF0030F2AD1D2
:10BEF000DBF8002061498A4202D061498A4222D19E
:10BF000006AA05A9584601F0DFFA059B0133434410
:10BF10001E44B000F4F7C6F805460CB104600124D5
:10BF20005246494605EB840013F0F4FB059A069946
:10BF300008EB0400920005EB800013F0EBFB059B7F
:10BF400043441C44B2E708F104021644B000F4F77D
:10BF5000A9F805460CB1046001245246494605EB98
:10BF6000840013F0D7FB06A95846FFF7C3FE4444EC
:10BF700080464046FFF71EFF0246002896D0A642A4
:10BF800007D8F10028460392F4F7A7F8039A05466C
:10BF9000760045F824200134EBE7FB6853F83600BF
:10BFA0004FEAC60990B1042810D000F00703022B15
:10BFB00001D008F035F845F82800FA684FEA880300
:10BFC0004A442B4452685A6008F102080136BB68A3
:10BFD0009E42E2D3A8EB040221462B46520818EEFB
:10BFE000100AFFF7EDFC04462846F4F783F82046D4
:10BFF0000BB0BDEC028BBDE8F08F06AA6A21384673
:10C00000FFF7ACFD002106AA0846FFF753FD00210B
:10C01000FFF770FE82465046FFF7CCFE81460028AF
:10C02000D8D008F101039E4208D87600042E38BF0C
:10C0300004262846B100F4F750F8054609F0070336
:10C04000022B03D0484607F0EBFF814606AA0F21DA
:10C050003846FFF783FD06AA00210120CDF8209085
:10C06000FFF728FD4FEA88032B4445F8289008F194
:10C0700002085860CFE700BFECA50508C8C1050855
:10C080005CB3050870B5830786B00C4615461BD116
:10C0900003681D4A934202D01C4A934214D102AA5B
:10C0A00001A901F011FA019BA34228D31AD8029BDF
:10C0B000043D03EB84049C4201D106B070BD54F8EA
:10C0C000042D45F8042FF6E702A9FFF713FE00231D
:10C0D00006460193019BA342304606D3FFF76AFE52
:10C0E0000028EAD00A4922460BE0FFF763FE30B190
:10C0F000019BDA432244013345F82200E9E7019A23
:10C1000004490548FFF771FBC8C105085CB3050881
:10C11000529C05083D9C05089CAC05082DE9FF4193
:10C1200083071546CFB2C1F3072437D103683A4AD3
:10C13000934202D0394A934230D10290029803AA26
:10C1400001A901F0C1F901983B1983425ED8039916
:10C15000002601EB8003A64216D1C01B01EB87012C
:10C16000801B04F0C1FE039945F82600BC0005EBD6
:10C1700086080B194246994202F104020AD10023B3
:10C18000029304B0BDE8F08153F8042D45F8262051
:10C190000136E0E753F8040D1060ECE70021FFF7EB
:10C1A000A9FD002380460193019BBB4219D30021C6
:10C1B000084604F099FE06464046FFF7FBFD01469F
:10C1C000D0B9B168A14221D345F8246005EB8102C2
:10C1D00005EB8403091BAB4212D1304604F09FFEED
:10C1E000CFE74046FFF7E6FD80B1019BFA1A2244F3
:10C1F000013345F82200D6E7304604F01EFCDBE7A9
:10C20000F468D01A205843F8040DE4E7019A044971
:10C210000448FFF7EAFA00BFC8C105085CB3050887
:10C220003D9C05089CAC05082DE9F04786B000AFA1
:10C2300007F1100205460C46FFF758FA7B6923B157
:10C24000254926482246FFF7D0FA386900283ED112
:10C2500028460AF0D5FB0028F2D007F11002284644
:10C260001721FFF743FA07F10C01386906F076FF52
:10C2700078602046F4F77FFDD7F80C90796809F1D3
:10C2800001068519EB1D23F00703ADEB030D6B468B
:10C290004A464FEAD30A184613F03CFA2E2309F80F
:10C2A0003A302046F4F76CFD78602046F4F763FDE1
:10C2B000E846464402467968304613F02BFA294690
:10C2C0004046F4F7B7FC01221E21FFF721FC183786
:10C2D000BD46BDE8F08700BF6F9C050864A805084F
:10C2E00007B50190F3F7DCFF019A18B10349044840
:10C2F000FFF772FA03490248FFF777FA759C0508C1
:10C30000CCA90508919C0508014608B50148FFF72E
:10C3100063FA00BF9CAC05082DE9F043072889B0FB
:10C3200081468846174603D191421BD00E2509E06D
:10C33000022801D0052809D13A464146484601F075
:10C340008DF90546284609B0BDE8F08308282AD1B2
:10C35000104602F0C9FF38B13946404602F0E1FF0D
:10C360000028E3D01E25EDE717F0030440F03F81DD
:10C370003A68BE4B9A4240F03A8107F108057B6863
:10C38000A342D3D955F8041B0291084602F0ACFF32
:10C390000299002800F06481404602F0C2FF0028A4
:10C3A000E0D10134EBE711F0010F00F03F814E10B6
:10C3B000D10740F10B815410232800F21881DFE8E7
:10C3C00010F0F500F9001601FD000101160116013B
:10C3D0001601160124003000330036007A00820076
:10C3E00085008800160194009D00AD00B500240072
:10C3F0003000330036007A00820085008800160184
:10C4000094009D00AD00B500DD0046EA040898EAFE
:10C4100048034FEA480065D54046C11704F0C9F803
:10C420008FE786EA0408F2E706EA0408EFE7002C43
:10C4300002DA8F48FFF768FF1F2C09DC6FF04043DA
:10C440002341B34204DB4FF040432341B3422FDD8D
:10C450003046F11704F0ADF88046404600F0BEFECD
:10C460008369002B40F0EB80A9F116030C2B40F2FE
:10C47000EF80B9F1240F06D94346A9F10F09B84658
:10C480005FFA89F91F46B9F1240F40F0B08004A982
:10C490004046FFF72FFC04462046FFF78BFC0028A0
:10C4A0003FF444AF394601F04FF90028F4D059E782
:10C4B00006FA04F8ABE7002CBBDB1F2CA8BF1F2437
:10C4C00046FA04F8A3E706EB0408A0E7A6EB040885
:10C4D0009DE7214630460DF04DFB0028B8D104FB06
:10C4E00006F0400040F001052CE7002C00F0BA8077
:10C4F000214630460DF06FFB804688E7002C00F0A7
:10C50000B18007EE906AB8EEE70A07EE904AF8EEBF
:10C51000E77A80EE270A03F033F812E7002C00F0E8
:10C52000A180214630460DF048FBE5E7002C21DADA
:10C5300007EE906A1146B8EEE70A03F087F800E7C5
:10C54000E20708D5294640460DF014FB00287FF489
:10C550007FAF05FB08F8012C3FF459AF2946284668
:10C5600064100DF007FB00287FF472AF6D43002CC0
:10C57000E6D14CE735464FF00108F8E7002C71D0C2
:10C580000021022008F0CAF82146054630460DF089
:10C5900022FB400040F00100A860214630460DF02B
:10C5A0000CFB400040F00100E860CBE6A642FFF63D
:10C5B000D9AEBBE6A6423FF7D5AEB7E6A6427FF7B7
:10C5C000D1AEB3E6A642BFF6CDAEAFE693072DD10E
:10C5D0001368284A93421CD107EE906A3946B8EE98
:10C5E000E70A03F033F8054600287FF4ABAE224B90
:10C5F000404613F80920039200F0FCFD02903846F3
:10C6000000F0F8FDDDE9023200901C491C48FFF7FC
:10C61000ECF81C4A934209D107EE906ADFED1A0A42
:10C62000B8EEE70A394601F049FFDCE7B9F1060F39
:10C6300001BF43464FF02409B8461F460DE73A466E
:10C64000414648469847054600283FF40DAF79E635
:10C65000434609F10F09B8465FFA89F91F46FCE61F
:10C660000F46C4E709490A48FFF7B6F8C8C10508EC
:10C67000B09C05089CAD050826C30508C59C0508A7
:10C6800024AC050864A3050800000000D89C050838
:10C6900014AD0508014608B50148FFF79DF800BF35
:10C6A00024AC050873B504461E460D4651B1186802
:10C6B000019200F093FD6368019A834202D005481D
:10C6C000FFF7E8FFA0683346294602B0BDE8704096
:10C6D000FFF776B9E49C0508400040F0010108B579
:10C6E000024802F05EFDF3F7B7FC00BF80AA050820
:10C6F000014608B50148FFF76FF800BF44AA0508D6
:10C7000008B540F22A71024802F04BFDF3F7A4FC91
:10C71000F8AA050810B594B0044602A80191F3F7F1
:10C7200083FC48B920460199FFF7BAF90446F3F7AC
:10C7300071FC204614B010BD0399024800F086FD3C
:10C740000024F6E7308C0508064B03F12C02DA646E
:10C75000B3F8EC2112B20021012A596308BFA3F8F3
:10C76000EC117047805C0020EFF3108172B6084A2C
:10C77000B2F8EC311B0443BFB2F8EC3103F1FF33E4
:10C780001BB24FF6FF73A2F8EC3181F310887047AB
:10C79000805C0020EFF3108172B60C4BB3F8EC21F3
:10C7A000013212B2A3F8EC2118463AB9DA6C12B988
:10C7B00093F8EE212AB10023A0F8EC3181F3108820
:10C7C00070470122A3F8EC21F8E700BF805C00204D
:10C7D00070B5124B93F8EE514FF6FF720446A3F872
:10C7E000EC21C5B193F8EF2102F10A0103EBC10678
:10C7F000013202F00702013D53F83100716883F8FD
:10C80000EF2183F8EE5184F31088FFF783FFBDE832
:10C810007040FFF7BFBF80F31088F8E7805C00200E
:10C82000114BB3F8EC2112B210B5E2B9EFF310815D
:10C8300072B6B3F8EC2112B29AB9DC6C64B1DA6466
:10C8400093F8EE2112B90122A3F8EC2120B181F373
:10C8500010882046F3F700FCBDE810400846FFF7BB
:10C86000B7BF81F3108810BD805C002070B5EFF376
:10C87000108572B60F4B93F8EE21082A18D0B3F842
:10C88000EC4124B2012C04BF0024A3F8EC4193F83E
:10C89000EF41561C224402F00702093283F8EE6190
:10C8A00003EBC203C3E90201012085F3108870BDC8
:10C8B0000020FAE7805C002058B1064A13685B68E4
:10C8C000DB68984204D012685268D06018467047FE
:10C8D000002070472463002001F00F01012903D0DC
:10C8E000022906D039B97047002814BF1E200E2037
:10C8F000704703F06EBE03F0F1BE08B500F080FD96
:10C9000010EE100A27F096F941EC100B08BD00F06C
:10C9100077BD08B551EC100B27F0E4F9BDE80840ED
:10C9200000EE100A02F02CBE02F02ABEF0B593B061
:10C930000546684616680F461446F3F775FB78B946
:10C94000002E0CBF39460021234632462846FFF709
:10C9500039F90546F3F75EFB012D0BD1284611E0AE
:10C96000019B23601049206802F0DBFC60B920685D
:10C97000F3F772FB2368002DF4D10BB90623236073
:10C980003EB9002013B0F0BD206802F0D5FB206056
:10C99000F6E70649304602F0C4FC0028F1D03046E4
:10C9A000FFF798F8E4E700BF70AB050828A8050872
:10C9B000036803B94068FFF7FDB91346C1F30722C6
:10C9C000C9B2FEF7FDBF1FB501F00F03012B0446EE
:10C9D00011D011F00E0F08D17BB1012201A9204620
:10C9E00000F0F7FE58B1019807E0023B012BF4D8A4
:10C9F00000F0AAFC01E000F00BFE04B010BD2046E0
:10CA0000F6E708B528B1062803D0FFF763F8F3F777
:10CA100023FB08BD10B50C4619B9BDE81040FFF75F
:10CA200069B9FFF767F984421CBF0023C4E90030ED
:10CA3000002010BD40F20E43984217D840F20A433E
:10CA4000984209D85E281DD075281DD03E2814BFF5
:10CA50004FF0FF3001207047A0F20C40022803D8AD
:10CA6000DFE800F00C0E14000420704740F29A43F7
:10CA7000984214BF4FF0FF300320704706207047E4
:10CA8000072070470220704700207047052070473C
:10CA900038B5034615460C4609B92C460BE052B191
:10CAA00011462046984758B1636833B9656044F031
:10CAB0000103A560EB60204638BDA368DD60F6E7A2
:10CAC0006B68E3606C60002BE7D145F00103AC605C
:10CAD000E360E2E7F8B5064631B1002511F0010345
:10CAE00004D00023EB6029460846F8BDCC68CB6033
:10CAF00014F0010307D1E768E36022463046FFF7F0
:10CB0000C7FF3C4601460A4630462946FFF7C0FFAC
:10CB100021460546E2E78A422DE9F04184460E4669
:10CB200006D1002351685360BDE8F041FFF7D2BF42
:10CB3000D2F80C80B8F1000F12D01446E468E30775
:10CB4000FCD524F0010451686368934208F00107A2
:10CB500016D1002339B99F4208BF41466160D360B6
:10CB60003046BDE8F0815360D3606046FFF7B2FF06
:10CB700005466060C5F80C80002FF1D0A560EFE796
:10CB80001D46DB689342FBD100225A60DA606046A2
:10CB9000FFF7A0FF0028EDD0E8600546EAE70000B7
:10CBA000024B1B685B681860704700BF246300205D
:10CBB000044B1B685B6882B0186801ABC01A02B0F6
:10CBC000704700BF24630020024B1B685B685860FD
:10CBD000704700BF2463002008B5FFF7E9FF044B4E
:10CBE0001B685B685B68984201D3FFF789FD08BD4D
:10CBF0002463002010B50346C2F34F04500C21B14A
:10CC0000D20702D40C48FFF745FDA04206D1984256
:10CC100010D00A4902460A48FEF7E7FD984204D9B7
:10CC2000C21A08490648FEF7E0FD9C4202D20649B6
:10CC30002246F0E710BD00BF709E05087A9E0508E9
:10CC400024AC05088C9E0508949E05082DE9F74F35
:10CC5000DDE90CA7002406468B4615460193A04645
:10CC6000A146019B9C4204D1B1453CD22248FFF72A
:10CC700011FDB44210D2BAF802209205F6D45BF846
:10CC8000240009F101099AF80220012A24D100F0B8
:10CC9000BFFC07F8240017E0BAF80010C900002212
:10CCA00041F00201284600F081F888B9BAF8022064
:10CCB000D30505D5BAF8002010491148FEF795FDB7
:10CCC000DAF8042047F8242001340AF1080AC8E7FA
:10CCD000406808F10108D6E7022A01D100F016FBEE
:10CCE00047F82400F0E72B68B8EBD30F01D20548D2
:10CCF000BDE703B0BDE8F08FA69E0508A19E05081C
:10CD000024AC0508B09E050830B589B00446154628
:10CD100002EB800205A8039300F01FF80D9A019220
:10CD20000C9A0092039B05AA29462046FFF78EFF26
:10CD300009B030BD08B50148FFF7DAFCBA9E050816
:10CD400010B50446416019B981600123236010BD0C
:10CD5000C800F3F7C0F9A060F7E74160C90041F0EF
:10CD6000070101608260704703789B0710B5044695
:10CD700002D48068F3F7BEF92368002262F3DF0370
:10CD80006260236010BD03789B0710B5044602D48F
:10CD90008068F3F7AFF9236803F0040343F001035D
:10CDA00023600023C4E9013310BD00002DE9F74FD3
:10CDB0000378914613F0010204460E46009210D00B
:10CDC00001F00702022A0CD011F0030203D1086817
:10CDD0007A49884204D0B9F1010F02D0002556E00B
:10CDE00000925B0760D52768A56827F007072F44E6
:10CDF000BD4230D3B9F1010FF0D1D4E90032B2EB2A
:10CE0000D30FC3F3DC0111D104316160A068C90004
:10CE1000F3F763F9D4E90032A2EBD30223F007035E
:10CE2000A060D2000021184412F0BAFC2368A16867
:10CE3000C3F3DC02501C60F3DF03236041F832606F
:10CE400006F00706022E01EBC20520D023786FF30F
:10CE5000000323701BE02868B0421CD1B9F1020F17
:10CE600015D123686E68083B7A1B05F10801236021
:10CE7000083A284612F07CFC2568A368C5F3DC025A
:10CE800025F007051D44002143F832106E60284646
:10CE900003B0BDE8F08F009B23B9314600F054FC8D
:10CEA0000028DBD10835A3E763682BB9B9F1010F7E
:10CEB00094D1204600F084F806F0070BBBF1020F76
:10CEC00029D1F008F3F752FF82466268BAFBF2F10B
:10CED00002FB11A217464FF00008A16851F8370075
:10CEE00001EBC705F0B9B9F1010F7FF477AF236803
:10CEF000C3F3DC020132B8F1000F18BF454662F3FC
:10CF0000DF03BBF1020F2360C5E90060BFD02378C7
:10CF100060F300039DE731460620FEF7C3FC4FEAAD
:10CF2000600AD2E7042823D1B8F1000F08BFA84651
:10CF300061680137B7FBF1F001FB1077BA42CCD141
:10CF4000B9F1010F7FF44AAFB8F1000F31D0236877
:10CF500000220833BBF1020F2360C8F80060C8F854
:10CF6000042003D0237862F30003237045468EE744
:10CF7000B04211D1B9F1020F89D123686268083B30
:10CF800001372360B7FBF2F302FB1377A36853F872
:10CF9000373063B92B607AE7009B002BC8D131464C
:10CFA000019200F0D1FB019A0028C1D0E2E70423EE
:10CFB000F0E7204600F004F887E700BF48BF050807
:10CFC0002DE9F04146681A490446731C002231F8E5
:10CFD000025BAB4206D90132222AF8D103EB53039C
:10CFE00043F00105E800A768F3F775F8236865606A
:10CFF00003F0060343F001032360A0603D1D4FF0E2
:10D000000008B04504D13846BDE8F041F3F772B8E6
:10D0100055F8041C39B1042905D001222046FFF738
:10D02000C5FE2B68436008F101080835E9E700BF39
:10D03000E29E050810B500230446016043608800A5
:10D04000F3F749F8A06010BD03682DE9F74F0446D7
:10D050000F46924623B912F0010F60D000F062F83B
:10D0600039460620FEF71EFC22684FEA600B0AF0E4
:10D070000103BBFBF2F9009302FB19B94D460026F0
:10D08000A06850F82580AA0000EB8501B8F1000FD8
:10D090000BD11AF0010F42D0002E08BF0E46636874
:10D0A00001336360B846376033E0B8F1040F17D13D
:10D0B000002E08BF0E4622680135B5FBF2F102FBD7
:10D0C0001155A945DCD1009B4BB3002EE7D120467A
:10D0D00000F028F82268BBFBF2F902FB19B9CDE792
:10D0E00039464046019200F02FFB019A0028E2D019
:10D0F0001AF0020F0DD063682068013B01356360B0
:10D10000B5FBF0F1A36800FB115553F8251021B9C8
:10D110009950404603B0BDE8F08F0421F8E74FF086
:10D120000008F6E7F8B505688668154904466B1CE3
:10D13000002231F8020B834206D90132222AF8D1AB
:10D1400003EB530343F00100002320606360800081
:10D15000F2F7C1FF3746A06006EB8505AF4204D168
:10D160003046BDE8F840F2F7C5BF57F8041B002968
:10D17000F4D00429F2D001222046FFF765FFEDE745
:10D18000E29E050870B501680023994201D1002292
:10D1900014E0846854F8232004EB83060133002A4A
:10D1A000F3D0042AF1D04568013D4560B3FBF1F0AE
:10D1B00001FB103354F8233013B93360104670BDAF
:10D1C0000423FAE710B504468068F2F793FF0023C2
:10D1D000C4E90033A36010BD7047000083070FBF90
:10D1E0000068034B00F00F0053F82000704700BFA9
:10D1F00014A0050808B5FFF7F1FFBDE80840C08896
:10D20000F3F7BEBD37B50D4604460192FFF7E4FCC7
:10D210002846FFF7E3FF836833B1019A2946204689
:10D2200003B0BDE830401847C2880349204603B028
:10D23000BDE83040D6F7B2BB269F05080A46014636
:10D240000148FFF7DFBF00BF10D305082DE9F34702
:10D25000044608460E4602F05DF898B101AA6946F8
:10D26000304602F0B5F8009B63B11A491A4FDFF857
:10D270007080DFF868902046D6F712F8009D033DD5
:10D28000002D0BDA022231462046FFF7BBFF13497F
:10D290002046D6F705F802B0BDE8F087019A02EB08
:10D2A000850339465B6852F825202046D6F776FB81
:10D2B000019B4FEA850A53449A682AB94946204699
:10D2C000D5F7EEFF033DDBE741462046D6F766FB88
:10D2D000F8E700BF2B9F05084F9F05085F4405082E
:10D2E000649F050808B50246FFF778FF0649006904
:10D2F000884203D0003818BF012008BDBDE80840AF
:10D30000104608F083B800BF355203080E2808B550
:10D31000014613D01E2813D0C20701D5401008BD06
:10D32000830707D10268074B9A4203D1BDE8084042
:10D3300003F0FEB90820FEF7B5FAF7E70020EEE7A4
:10D340000120ECE7ECB10508C20705D4830705D13D
:10D350000268034B9A4201D103F0E2B9FFF7D6BF4E
:10D36000ECB105080E2810B50C4603D100230B6064
:10D37000012203E01E2803D101220A60104610BDDD
:10D3800010F0010202D043100B60F7E78107F5D1DE
:10D390000168034B9942F1D103F0CAF92060E7E735
:10D3A000ECB105080E2810B50C461DD01E281ED065
:10D3B00010F0010209D0431000EE103AB8EEC00A96
:10D3C00084ED000A0122104610BD8107FBD10368DD
:10D3D00008498B4202D103F0E9FAF1E706498B4292
:10D3E000F1D102F030F9EBE79FED040AE8E7B7EE80
:10D3F000000AE5E7ECB105089CAD05080000000057
:10D4000013B501A90446FFF7CDFF38B92046FFF751
:10D41000F1FE044902460448FEF7E7F99DED010AD2
:10D4200002B010BD6D9F050824AC05080E28F8B5A4
:10D430000D46144604D100230B602360012612E040
:10D440001E2804D14FF07E530B600023F5E710F047
:10D4500001060AD0431007EE903AF8EEE77A00236F
:10D46000C1ED007A13603046F8BD8707FBD1036831
:10D47000094FBB4204D103F099FA85ED000AE4E7B5
:10D48000064FBB4202D102F0DEF8F6E7044CA3429D
:10D49000E9D101F00DF8D1E7ECB105089CAD050824
:10D4A00064A3050810B50446FFF7C0FF38B920464D
:10D4B000FFF7A0FE024902460248FEF796F910BDAA
:10D4C000789F050824AC050838B5840703460ED1BB
:10D4D00004680B4DAC4203D1BDE8384007F028BAD0
:10D4E000084DAC4203D1BDE8384003F013BD1846E7
:10D4F000FFF780FE044902460448FEF776F900BFB4
:10D50000C8C105085CB305087F9F050824AC050861
:10D5100013B50C4601A9FFF7D7FF019BA34204D026
:10D52000034904482246FEF760F902B010BD00BF6F
:10D53000889F05089CAC0508F0B51F46D30785B049
:10D5400006460D4614460FD554100394039A002A3C
:10D55000BCBF52190392039ADFB1002A15DA0023E7
:10D560000393039805B0F0BD03A91046FFF7FAFE38
:10D570000028EBD1F28801922046FFF73BFE019A8A
:10D58000084903460848FEF730F9AA42E9D903954D
:10D59000E7E7002A01DBAA42E3D3F2880349044803
:10D5A000FEF723F99A9F050824AC0508AB9F0508F0
:10D5B000DCA80508820701D003F00BB8002803DBC4
:10D5C000400040F00100704703F088B8830710B5B1
:10D5D000014610D102680D4B9A420CD100F00703AE
:10D5E000022B06D1C008F3F7C6FB400040F0010053
:10D5F00010BD8068F9E70846FFF7F0FD43691BB1ED
:10D60000BDE81040052018471846F1E7E4BC0508BE
:10D610000E2810B504461FD01E2801D1012010BDD0
:10D62000062819D0C20703D5013818BF0120F6E734
:10D63000FFF7D4FD436943B121460420984720B148
:10D64000A0F11E0358425841E9E72046FFF7BEFF0C
:10D650000028E3D00138E8E70020E0E705282DE9BD
:10D66000F84F15BF1E260E264FF00E094FF01E096B
:10D67000914207460C46154607D1C80720D40846F4
:10D68000FFF7ACFD838859071AD504F00703022B76
:10D6900005D0A20717D122682A4B9A4213D105F070
:10D6A0000703022B05D0AB0712D12A68254B9A42FB
:10D6B0000ED12946204605F0D7FC002808BF4E466B
:10D6C0003046BDE8F88F14F0010A06D0E80734D4DC
:10D6D00023464FF0010A2C461D462046FFF77EFDEB
:10D6E000D0F818B08046BBF1000F10D08288110727
:10D6F00004D42846FFF772FD804508D1052F0DD0D0
:10D70000D8F818302A4621460220984780B9BAF145
:10D71000000FDDD0AC4218BF4E46D1E7D306EFD59F
:10D720002A4621463846D8470028E9D00646C7E7AA
:10D73000022F04D0FFF76CFFBFE74E46C0E7064656
:10D74000BEE700BF48BF050808B50A4601460220EB
:10D75000FFF784FFBDE80840FFF75ABF10B5044645
:10D76000FFF734FF38B92046FFF744FD024902466F
:10D770000248FEF73AF810BDB29F050824AC050830
:10D7800038B504461546FFF729FD036A13B1204654
:10D790009847A0B9204635B9FFF72CFD0849024645
:10D7A0000848FEF722F8042D04D1FFF723FD0649AF
:10D7B0000246F5E7FFF71EFD04490246F0E738BDD3
:10D7C000BF9F050824AC0508D99F0508EB9F0508F5
:10D7D000704710B50446FFF701FDC36A2BB1204620
:10D7E0009847B0FA80F0400910BD1846FCE70000E9
:10D7F00008B5FFF7EEFF10B90148FEF74BFF08BD73
:10D80000FD9F0508062806BF480040F001000020E3
:10D810007047042803D0052807D0002070478B6884
:10D82000002B14BF1E200E2070478868400040F077
:10D8300001007047074B0268C1E900300023C1E9CD
:10D840000233054B9A4202BF4368C3F317238B6030
:10D8500008467047DCA00508B8A10508F8B50D46D4
:10D860000179044601F07F0116464020002208F0AD
:10D870005FFBA368E26827682A6043436B602379F3
:10D8800003F07F01A96008498F4209D1190601D42C
:10D89000B30707D46368C3F3172300FB0320286092
:10D8A0000020F8BD0120FCE7B8A10508F8B500226A
:10D8B00005460E460146402008F03AFB0746102078
:10D8C000F2F7F0FB094A0A4B0571012D18BF134608
:10D8D000036043686FF31F230446C0E9013606FB6B
:10D8E00007F0F2F7DFFBE0602046F8BD40A1050835
:10D8F0007CA105087FB504460122084601A9FFF76F
:10D9000077FF00222179402008F012FB6368029D16
:10D91000B5FBF0F5B5EB132F0646C3F3172219D963
:10D92000A16829444143E068F2F7D7FB6368E060EF
:10D930006FF31F236360D4E9020305FB06F200FBCB
:10D940000630019911F0E6FEA36806201D44A5608B
:10D9500004B070BD521B62F31F23EBE7F7B54668B6
:10D9600036F0FF0604460B461FD10191324601797D
:10D97000402008F0DDFA6268082161F31F22A168E7
:10D980006260083105464143E068F2F7A6FB626831
:10D99000A168E060C2F3172201FB0557013A6A4310
:10D9A0003146384411F0FCFE019B2079D4E9022174
:10D9B00008F090FDA3680133A36063680620A3F517
:10D9C0008073636003B0F0BD4268C36891688B42A6
:10D9D00030B40AD21479D16882685D1CC5601A44DB
:10D9E00004F07F0030BC08F043BB002030BC70471F
:10D9F0002DE9F04F044687B00D4616460AB90025BA
:10DA0000C6E011F003078068DFF8149240F0D6807A
:10DA10000B687D4A934240F0D1806A4607F02CFFA4
:10DA200010B97A48FEF764FE2179042E01F07F01D7
:10DA30003A464FF0400000F0948008F079FA16F072
:10DA40000302054659D133687149186A884247D1A3
:10DA50003179402001F07F0108F06AFAA84202D033
:10DA60006C48FEF751FC33684B45D6E9028B04D174
:10DA70007368C3F3172305FB03BBDDE900022368CA
:10DA8000E668A2EB000A4B45A8EB0A0737D194F9E8
:10DA90000430002BB3DA002FE2D16368C3F31723FD
:10DAA00005FB036605FB08F2594605FB006011F013
:10DAB0005FFE0199A2680098521A40446A4305FB30
:10DAC000016105FB006011F053FEA068AAEB08029B
:10DAD00038446A43002105FB006011F061FE35E027
:10DAE0004D4A934209D1012DBAD12A4603A93046A5
:10DAF000FFF77EFEDDE903B8BFE7484892E7002F55
:10DB0000D0DD6368B7EB132F0BD9A16839443046D9
:10DB10006943F2F7E2FA6368E06067F31F230646A1
:10DB200063600098A268019940443A44121A6A431B
:10DB300001FB056105FB006011F01AFE009805FB72
:10DB400008F2594600FB056011F012FE6368C7EB4E
:10DB5000132262F31F236360A3681F44A760062596
:10DB600016E008F0E5F923684B45064614D110206D
:10DB7000F2F798FA054694E80F0085E80F00009A3E
:10DB800002EB112363F31F216960019B9B1AAB60B9
:10DB9000284607B0BDE8F08FDDE900312079C91AC9
:10DBA000FFF784FEDDE90032E168D21A05467243D0
:10DBB00006FB0311C06811F0ADFDE9E700232A461A
:10DBC00001462068FFF7B8FC23684B45024611D197
:10DBD0006368042E00EB13220ED094F90430002B5E
:10DBE000BFF60DAF2079E168334600F07F0008F002
:10DBF00071FCB4E7042EF5D12079E16800F07F00D4
:10DC000008F036FA0546C3E78CBA050854A00508A3
:10DC1000F1D9020878A00508E4BC050893A005081E
:10DC2000B8A1050870B51B2888B006460C461546F5
:10DC300026D005D8022865D00E284CD0002447E015
:10DC40002428FBD1012205A92846FFF7C2FD0028A0
:10DC50004AD0A10712D12268364B9A420ED1012236
:10DC600002A92046FFF7FAFD01230093DDE9020136
:10DC7000DDE9052304F046FC002858D10E2427E0F6
:10DC8000012202A92046FFF7E9FD2846012205A945
:10DC9000FFF7AEFD00229DF81010402008F048F973
:10DCA000A168069EB6FBF0F6054631449DF81000CB
:10DCB000FFF7FCFD0446DDE90212C06811F02AFD01
:10DCC000E068039B059906FB05F2184411F022FD5C
:10DCD000204608B070BD0A68174B9A42AED029465C
:10DCE0002046FFF707FEF3E7EA0708D4AB07C5D1E4
:10DCF0002B68124A934202D0114A9342BED10020AF
:10DD0000FEF7F6FC012202A92046FFF7A7FD01223B
:10DD100005A92846FFF75DFD0028AFD0069B0093BC
:10DD2000DDE90212059B304607F0E5FDA4E71E245D
:10DD3000CEE700BF7CA10508B8A10508ECB1050835
:10DD40009CAD05082DE9F043012885B007460E4635
:10DD500008D08B0724D10B68254A934202D0254A6C
:10DD600093421DD1012201A93046FFF732FDB8B11F
:10DD700000223946402008F0DBF8029EB6FBF0F6A0
:10DD8000054631463846FFF791FD0199044606FBEA
:10DD900005F2C06811F0BEFC204605B0BDE8F08376
:10DDA0003046FFF713FC054600B1451029463846BA
:10DDB000FFF77CFD002104463046FDF79BFF4FF046
:10DDC000000806463046FDF7F5FF03460028E3D07D
:10DDD00025B919462046FFF7C1FDF3E74246E16841
:10DDE00008F10109384608F075FBC846EAE700BFAC
:10DDF000E4BC05087CA1050838B50D461C46114653
:10DE00002846094AFEF7F6FE206805F08DF9012D37
:10DE1000007804D1BDE838400021FFF747BD6168B4
:10DE2000BDE83840FFF78EBF040002000B79012BDC
:10DE3000F7B505460C4610D11B490193D5F730FACA
:10DE4000D4E90221019B284604F082FA17492846AA
:10DE500003B0BDE8F040D5F723BA1A461449D5F708
:10DE60009DFDA368002BF1D01249134F2846D5F72A
:10DE700017FA0026A368B34204D810492846D5F7FC
:10DE80000FFAE3E71EB139462846D5F709FA3246BC
:10DE9000E168207908F0ECF8012201462846FFF7F6
:10DEA000B1F90136E6E700BFAEA00508B49906084F
:10DEB000BAA00508C5A00508C9A0050898A10608CC
:10DEC00037B50C462046114606221D46FEF792FE47
:10DED00034B92146012003B0BDE83040FFF7E6BC6D
:10DEE0002968CA070BD48B0703D10A680C4B9A42E6
:10DEF00005D0012003B0BDE83040FFF723BF08463E
:10DF0000FFF704FA014601900120FFF7CFFC019AC8
:10DF100004460021C06811F043FC204603B030BD28
:10DF2000ECB1050870B50646102014460D46F2F710
:10DF3000B9F8054A067102604268C4606FF31F2297
:10DF4000C0E9012570BD00BFB8A105087FB51D4619
:10DF5000084611464FF00212FEF74CFE28680122D7
:10DF600001A9FFF745FC9DF80C40029E21460022C6
:10DF7000402007F0DDFF019AB6FBF0F12046FFF7E5
:10DF8000D1FF0322044601A92868FFF722FC18B13B
:10DF9000237963F07F032371204604B070BD000035
:10DFA00038B5054610200C46F2F77CF8034A0260AB
:10DFB0000122C0E90125C46038BD00BF7CA105086D
:10DFC000136870B56BB94468A51C50F825509C4285
:10DFD00007D055F82360B14204D1023350F8233002
:10DFE000136070BD0133F2E72DE9F0470F46144985
:10DFF000DFF85490DFF854A016460446D5F750F9E0
:10E0000006F1080800257368AB4205D820460D4983
:10E01000BDE8F047D5F744B91DB149462046D5F7CC
:10E020003FF957F8252051462046D5F7B7FC58F858
:10E03000041B01222046FFF7E5F80135E3E700BFA6
:10E0400079BA0508B4990608C9A00508F4A105081D
:10E050004B6802330A4651F82310FFF7C5BF0E295B
:10E0600014BF03210121FEF757B9052805D00E2959
:10E0700014BF03210121FDF715BC0020704738B5FE
:10E080000C462046114602221D46FEF7B3FD1CB188
:10E090002868FFF7BDFA08B90E2038BD1E20FCE73E
:10E0A000032A05D10E2914BF04490549D5F7F8B84C
:10E0B0000E2914BF03490449F8E700BF248C050862
:10E0C000298C0508368D0508308D0508136813B9AD
:10E0D0004068FDF70BBB70472DE9F84F984602EBFF
:10E0E00043035D1C042B00AF82468B4616464FEA65
:10E0F00085051FD8EB1D23F00703ADEB030D6C4620
:10E100004FF000092046B96A40F804BB2A1F11F0FD
:10E1100001FB23464246711C5046FDF751FC044664
:10E12000B9F1000F02D04846F1F7E4FF2046BD46A2
:10E13000BDE8F88F2846F1F7C0FF04460028D9D083
:10E140008146DFE707B5009313460A46D0E901018F
:10E15000FFF7C2FF03B05DF804FB000038B50546C9
:10E160000C200C46F1F79EFF024A8460C0E90025AE
:10E1700038BD00BF70A20508406870474160704715
:10E1800010B504460820F1F78DFF024AC0E90024CB
:10E1900010BD00BFACA205082DE9F047866806EB6C
:10E1A000010A04460F460AEB420007EB4209052824
:10E1B00088B01546984604F10C014FEA890915D834
:10E1C000B600324603A811F0A5FA03AB4A46414611
:10E1D000981911F09FFA606803AB2A465146FDF783
:10E1E000EFFB0446204608B0BDE8F08780000191AF
:10E1F000F1F758FFA26801999200064611F08AFAD9
:10E20000A0684A46414606EB800011F083FAA168F7
:10E21000606833462A463944FDF7D2FB044630464F
:10E22000F1F768FFDEE70000F7B5CD1CAD0007464B
:10E2300028460E460192F1F735FF074B8660C0E98C
:10E24000003704460199A5F10C020C3011F062FA76
