:020000040800F2
:10000000100D00204D0200085F260008B51F0008F3
:100010005D260008E109000889370008000000009B
:10002000000000000000000000000000E1340008B3
:10003000E30900080000000061260008E33400081E
:1000400067020008670200086702000867020008EC
:1000500067020008670200086702000867020008DC
:1000600067020008670200086702000867020008CC
:1000700067020008670200086702000867020008BC
:10008000670200086702000867020008000000001D
:1000900000000000000000000000000067020008EF
:1000A000670200086702000867020008670200088C
:1000B000670200086702000867020008670200087C
:1000C000670200086702000867020008670200086C
:1000D00067020008670200086702000800000000CD
:1000E00067020008670200086702000800000000BD
:1000F000000000000000000000000000670200088F
:10010000000000006702000867020008670200089C
:1001100000000000000000000000000000000000DF
:10012000670200086702000867020008670200080B
:10013000670200080000000000000000000000004E
:10014000000000000000000000000000670200083E
:1001500067020008670200086702000867020008DB
:1001600067020008670200080000000000000000AD
:10017000000000000000000000000000000000007F
:1001800000000000670200080000000000000000FE
:100190006702000800F002F800F048F80AA090E8B2
:1001A000000C82448344AAF10107DA4501D100F032
:1001B0003DF8AFF2090EBAE80F0013F0010F18BFB7
:1001C000FB1A43F001031847A0EB0000C0EB00004E
:1001D000103A24BF78C878C1FAD8520724BF30C873
:1001E00030C144BF04680C60704700000023002445
:1001F00000250026103A28BF78C1FBD8520728BF37
:1002000030C148BF0B607047642900F049817829EC
:1002100000F08281002070471FB503F027FC9DE8A5
:10022000030000F087FA1FBD10B510BD00F056FBAB
:100230001146FFF7F1FF03F08BFB00F074FB03B4F2
:10024000FFF7F2FF03BC00F0A5FB00000948804760
:1002500009480047FEE7FEE7FEE7FEE7FEE7FEE7A8
:10026000FEE7FEE7FEE7FEE704480549054A064BC0
:100270007047000075350008950100081007002040
:10028000100D0020100900201009002070B506464E
:1002900000F034FA056806F10B0020F00704B442C0
:1002A0009CBF002070BD2B466A68BAB11068A0429E
:1002B00010D304F1080188423CBF5068586007D34E
:1002C0005168101941601168091B01605860146081
:1002D000101D70BD13465268002AE7D121462846FA
:1002E00000F014FA0028DED170BD70B50446051F79
:1002F00000F004FA0068002C14BF446870BD002CA4
:1003000018BFAC423CBF20466468F8D301680A18A5
:10031000AA4218BF456003D12A680546114401600E
:1003200028684119A1421CBF6C6070BD616869609A
:1003300021680844286070BD53EA020C00F069800F
:100340002DE9F04B4FF00006002B1FBFB3FA83F5E9
:1003500003FA05F424FA05F65E4012BF1643B2FA1A
:1003600082F502FA05F4C5F120051EBF22FA05FC4C
:1003700044EA0C04203556EA044C4FEA144418BFF2
:10038000641C4FF000084FF00009904271EB030C21
:1003900039D3002919BFB1FA81F701FA07F6B0FA8B
:1003A00080F700FA07F6C7F120071EBF20FA07FC06
:1003B00046EA0C062037B6FBF4FCA7EB0507103F16
:1003C00007F01F0BCBF120060CFA0BFB2CFA06F6FC
:1003D00044BFB3460026202FA4BF5E464FF0000B5B
:1003E0005BEA060C08BF4FF0010B19EB0B09ABFBE6
:1003F000027C48EB0608C01B06FB02CC0BFB03CCBF
:1004000071EB0C01C1E70B46024641464846BDE888
:10041000F08B13B54FF000004FF00001AFF30080F8
:10042000BDE81C40704700000FB41CB5074B06AA7E
:100430007B4469460090059800F011FA0020694657
:1004400000F020FA1CBC5DF814FB00005104000011
:1004500070B5044685690068C10601D5302600E004
:100460002026C00707D070BDD4E90121304690474F
:10047000206A401C20626D1EF6D570BD70B5044622
:1004800085690078C00707D170BDD4E9012120201B
:100490009047206A401C20626D1EF6D570BD00009A
:1004A0002DE9F0410646002410687529314616A54D
:1004B00010D0AFF30080002802DA404213A507E015
:1004C00031688A0701D512A502E0490704D511A5B4
:1004D000012401E0AFF3008000210A2206F1240785
:1004E00009E0B0FBF2FCB0FBF2F302FB1C00303081
:1004F00078541846491C0028F3D123462A46304632
:10050000BDE8F04100F04CB9000000002D000000F3
:100510002B0000002000000070B504460D46214667
:100520001068AFF300802188090502D50F4A7A448C
:1005300002E00E4A7A440E32002104F1240305E061
:1005400000F00F060009965D5E54491C0028F7D1A3
:1005500020780023000704D5702D02D009B10223B2
:1005600011322046BDE8704000F01AB9FBE70000E8
:100570002DE9F05F894604464FF0000ADFF824B108
:10058000FB44C0F820A02046E168884700287DD0C1
:10059000252806D0D4E901219047206A401C20621A
:1005A000F1E700255F462046E16888472028064697
:1005B00007DB312E05D2B81910F8200C08B105431D
:1005C000F1E7A80701D525F00405C4F81CA0002711
:1005D000C4F818A02A2E09D0304603F0E6F838B344
:1005E00004EB8708303EC8F8186019E059F8041B7E
:1005F000204604EB87029161E1688847012F064697
:1006000018D1E069002820DA25F020051DE0D8F88F
:10061000180000EB800006EB40003038C8F81800E6
:100620002046E1688847064603F0BFF80028EED16F
:10063000012F0AD02E2E08D12046E16888477F1C62
:100640000646022F45F02005C4DBA069002803DA26
:10065000404245F00105A061E80701D025F01005F2
:10066000A6B1A6F14100192802D8203645F400654C
:100670004A463146204625604D46FFF7C5FD60B12C
:10068000012807D0ED1D25F0070000E007E000F18C
:10069000080978E705F1040975E730467AE7206A2A
:1006A000BDE8F09FD1E700004FF0000200B513460F
:1006B00094469646203922BFA0E80C50A0E80C5082
:1006C000B1F12001BFF4F7AF090728BFA0E80C5033
:1006D00048BF0CC05DF804EB890028BF40F8042B2C
:1006E00008BF704748BF20F8022B11F0804F18BF99
:1006F00000F8012B704770477047704700487047FB
:10070000B4060020704770477047704738B50446FC
:100710000A4600206946AFF30080002808BF38BDB4
:1007200002460099204600F0B7F8012038BD0120AC
:1007300000F0CCB8F8B5AFF30080054600200C46B9
:10074000102000BF0646A819A0420DD932466946BE
:100750000020AFF30080070008BF00F0B7F8009852
:10076000A04218BF0546C419FFF7C8FF0560074639
:10077000F01D20F007004619284600F00AF8B442A0
:1007800008BFF8BDA21B31463868BDE8F84000F04C
:1007900083B800210160C0E9011070471020704744
:1007A0002DE9F0470D4699469246044600F124088B
:1007B0000168880604D5E06921F01001216000E09D
:1007C0000120A84201DD471B00E00027A1697A193A
:1007D00002EB0900081AA0612078C00602D4204666
:1007E000FFF736FE002608E0D4E901211AF80600DA
:1007F0009047206A401C761C20624E45F4DB20782E
:10080000C0060AD52046FFF723FE06E0D4E9012101
:1008100030209047206A401C2062381EA7F1010753
:10082000F4DC07E0D4E9012118F805009047206ABC
:10083000401C2062281EA5F10105F3DC2046FFF7CD
:100840001DFE2078000602D50220BDE8F0870120B9
:10085000FBE7000001694A1C02610878704700B597
:100860008FB0CDE901310021059105497944CDE9E9
:10087000031011466846FFF77BFE0FB000BD000075
:10088000E5FFFFFF0A6802F8010B0A6070470000ED
:1008900000487047AC060020034640688C4600289C
:1008A00018BF88423CBF03464068F8D31868184414
:1008B000884207D00CF1030020F00700001D411A08
:1008C000521A0146081D0A60FFF70FBD10B500F06F
:1008D00039F8BDE8104000F02FB870477546FFF7B3
:1008E000D7FFAE4605006946534620F0070085460F
:1008F00018B020B5FFF7B8FCBDE820404FF0000667
:100900004FF000074FF000084FF0000B21F00701F7
:10091000AC46ACE8C009ACE8C009ACE8C009ACE83A
:10092000C0098D46704710B50446AFF300802046DD
:10093000BDE81040FFF783BC002801D000F02AB8C2
:100940007047000010B5012805D0002103A000F079
:1009500027F8012010BD09A1F8E7000053494752CC
:10096000544D454D3A204F7574206F66206865617F
:1009700070206D656D6F7279000000003A20486547
:100980006170206D656D6F727920636F7272757022
:100990007465640001491820ABBEFEE72600020022
:1009A00070B505460C460A2000E06D1C00F011F8F9
:1009B00035B128780028F8D102E0641C00F009F86D
:1009C00014B120780028F8D1BDE870400A20AFF3B8
:1009D000008008B569468DF800000320ABBE08BD55
:1009E000FEE770477047000070B5044600F010F94C
:1009F0000546601C02D004480078044400F008F961
:100A0000401BA042FAD370BD000000202DE9F84F32
:100A1000DFF8B8A1002201240AF1040B03254FF0EE
:100A20000F090BF1040E00BF0B6804FA02F6334005
:100A3000B34273D10F7907F00307012F01D0022FC2
:100A400016D187684FEA420805FA08FC27EA0C0726
:100A5000D1F80CC00CFA08FC4CEA070CC0F808C02E
:100A60004768B7430E79C6F3001696403E4346608A
:100A70000E79F643B6070DD0C768560005FA06FC96
:100A800027EA0C07D1F808C00CFA06FC4CEA070C60
:100A9000C0F80CC00E7906F00306022E10D1D6085D
:100AA00000EB8608D8F8206057074FEAD76C09FAA0
:100AB0000CF7BE430F6907FA0CF73743C8F82070EC
:100AC00006684FEA420C05FA0CF7BE430F7907F0AF
:100AD000030707FA0CF7374307604E6816F4403FE8
:100AE0006DD03B4E376847F480473760366822F058
:100AF000030706F480460096364E07EB060CDCF83A
:100B0000086897073F0F09FA07F826EA0806DFF892
:100B1000C880404503D14FF000081EE04FE0DFF8E9
:100B2000BC80404502D14FF0010816E0DFF8B080EC
:100B3000404502D14FF002080FE0DFF8A8804045A1
:100B400002D14FF0030808E0DFF89C80404502D155
:100B50004FF0040801E04FF0070808FA07F848EAE8
:100B60000608CCF80888DAF800605746D1F804C0C7
:100B70009E435FEACC3C00D51E433E60DBF800603C
:100B80005F46D1F804C09E435FEA8C3C00D51E430B
:100B90003E60DEF800607746D1F804C09E435FEA0D
:100BA000CC2C00D51E433E60084F0C373E68D1F870
:100BB00004C09E435FEA8C2C00D51E433E60521C4D
:100BC000102AFFF431AFBDE8F88F0000003C01406F
:100BD000443802400030014000000240000402405E
:100BE00000080240000C024000100240006908406A
:100BF00000D0012070470AB1816170470904FBE70A
:100C000002480068C0F30B0070470000002004E0B9
:100C10000148806870470000000000200248816899
:100C20000278114481607047000000200B4810B525
:100C3000016841F400710160016841F48061016064
:100C4000016841F480710160032000F061F8002028
:100C500000F006F800F024F8002010BD003C02402F
:100C600070B50D4D04464FF47A712878B1FBF0F061
:100C70000A490968B1FBF0F001F023F848B9102CDB
:100C800007D200222146501E00F022F800206C609E
:100C900070BD012070BD0000000000200C0000208D
:100CA0000A4808B5016841F480410160006800F419
:100CB000804000900548001F016841F080510160AC
:100CC000006800F08050009008BD000044380240E9
:100CD000F0B40E4B1B680C46C3F30223C3F10705A7
:100CE000042D00D90425191D072901D2002300E095
:100CF000DB1E012606FA05F1491E214099409E405F
:100D0000761E16403143F0BC02F03FBD0CED00E012
:100D1000064900F0070208684FF6FF03184040EA52
:100D20000220034A10430860704700000CED00E009
:100D30000000FA052DE9F843044600684FF0010968
:100D4000C1074FF0000601D1400727D5DFF81C810D
:100D5000C8F86860FFF75CFF0746454D05E000BF37
:100D6000FFF756FFC01B022857D828680001F7D4A8
:100D700060688101207A41EA00703D498431086051
:100D8000C8F86890FFF744FF074604E0FFF740FF0C
:100D9000C01B022841D828680001F7D520788007B9
:100DA00052D533484030016841F0805101600068FD
:100DB000304D00F080500090286840F4807028602A
:100DC000FFF726FF074604E0FFF722FFC01B0228BB
:100DD00023D82868C005F7D5254D7035286810F44C
:100DE000407020D0A18901F4407181421BD0286855
:100DF00020F440712048C0F80090066029602868FF
:100E0000C00710D0FFF704FF064641F2883707E01D
:100E1000FFF7FEFE801BB84202D90320BDE8F8832D
:100E200028688007F4D5E1681148C1F30122083031
:100E3000032A12D0016821F4F81101602868A18901
:100E4000C1F30B01084328602078000703D50B4944
:100E5000207CC1F8E0010020E0E70268084B22F4A2
:100E6000F81219400A430260E8E700000000474218
:100E70000038024000700040400E474200104742D8
:100E8000FFFCFF0F2DE9F0470E46050065D0DFF8A7
:100E90001481D8F80000F7B200F00700B04207D282
:100EA00088F80070D8F8000000F00700B04254D174
:100EB00028683D4C810712D5400703D5206840F4CF
:100EC000E05020602878000703D5206840F4604097
:100ED00020602068A96820F0F0000843206028788E
:100EE000C0072DD0304968680839012812D002287F
:100EF00013D0032811D00968890700292DDA216849
:100F000021F0030101432160FFF782FE814641F297
:100F1000883A0EE009688903EFE709688901ECE780
:100F2000FFF776FEA0EB0901514502D90320BDE889
:100F3000F0872068696800F00C00B0EB810FEFD1FA
:100F4000D8F80010404601F00701B14207D90770F8
:100F5000006800F00700B04201D00120E7E72878E0
:100F6000400705D52068E96820F4E0500843206078
:100F70002878000706D52068296920F4604040EAF7
:100F8000C100206000F018F82168084AC1F303117D
:100F9000515CC8400649086006480068FFF760FEDB
:100FA0000020C4E7003C024008380240763A0008BE
:100FB0000C00002004000020154810B5006810F057
:100FC0000C02144813D01449042A0FD0082A0ED159
:100FD0000F4C241F2268236802F03F025B0207D5F2
:100FE0002068C0F38810A0FB010106E0084610BD90
:100FF0002168C1F38811A1FB00010023FFF79CF9D0
:101000002168C1F30141491C4900B0FBF1F010BD5A
:10101000083802400024F40040787D012DE9F84FA3
:1010200004006ED02078DFF84C93C007A9F10405C6
:101030004AD009F104000168C1F38101012908D0F7
:101040000068C0F3810002280AD1D9F800004002EC
:1010500006D52868800337D560680028E1D033E0E2
:101060006068B0F5803F10D0B0F5A02F286810D090
:1010700020F480302860286820F480202860606890
:10108000A8B1FFF7C5FD06460DE0286840F48030A2
:10109000F4E740F480202860F7E700BFFFF7B8FDD1
:1010A000801B642873D828688003F7D50CE0FFF70D
:1010B000AFFD064605E000BFFFF7AAFD801B6428D0
:1010C000F0D828688003F7D42078DFF8AC82800756
:1010D0004FF0000A3ED5A748001D016811F00C0F23
:1010E00008D00068C0F3810002280BD1D9F80000B5
:1010F000400207D42868800716D5E068012800D18F
:1011000012E033E1E068B8B10120C8F80000FFF751
:101110007FFD064605E000BFFFF77AFD801B022831
:10112000C0D828688007F7D52868216920F0F80022
:1011300040EAC10028600DE0C8F800A0FFF768FD94
:10114000064604E0FFF764FD801B02281FD82868CC
:101150008007F7D42078000722D5864F8748616939
:10116000703771B101210160FFF752FD064604E0BE
:10117000FFF74EFD801B022809D838688007F7D595
:101180000EE0C0F800A0FFF743FD064605E082E050
:10119000FFF73EFD801B02287DD838688007F7D412
:1011A0002078400768D5DFF8CCB100270BF13C0B65
:1011B000DBF80000C0000BD4DBF8001041F08051D8
:1011C000CBF80010DBF80000012700F08050009001
:1011D0006B4E3068C00510D4306840F480703060C9
:1011E000FFF716FD009005E0FFF712FD0099401A89
:1011F000022850D83068C005F6D55E4EA0686C361F
:1012000001280FD00528306810D020F00100306090
:10121000306820F004003060A068B8B1FFF7F8FC37
:1012200000900FE0306840F00100F4E740F0040067
:101230003060F7E7FFF7ECFC0099411A41F2883083
:10124000814266D830688007F4D50EE0FFF7E0FCF5
:10125000009007E0FFF7DCFC0099411A41F288306A
:10126000814256D830688007F4D42FB1DBF80010E3
:1012700021F08051CBF80010A069C8B33D49091D89
:101280000968C1F3810102294AD00228504607D0DB
:10129000C8F8600000E03CE0FFF7BAFC04463BE021
:1012A0004746C8F86000FFF7B3FC064605E000BFFC
:1012B000FFF7AEFC801B02282BD828688001F7D4EA
:1012C000D4E907010843A16A2E4A490802EB01410B
:1012D000626A41EA8211084394F82C1040EA0161E5
:1012E000C9F8001001203866FFF792FC044606E0BA
:1012F0003EE000BFFFF78CFC001B022809D82868DD
:101300008001F7D534E000BFFFF782FC001B022804
:1013100002D90320BDE8F88F28688001F4D427E0C3
:101320000128F7D0D9F80000E26900F48001914269
:101330001CD1226A00F03F01914217D147F6C071DB
:10134000626A0140B1EB821F10D1A26A4FF0FF33F5
:1013500000F4403103EB5202B1EB024F06D194F896
:101360002C1000F07060B0EB016F01D00120D1E7CC
:101370000020CFE70438024000004742800E474279
:10138000007000400000FFFF10B500680B46416888
:101390000D480140080CD870C1F304245C7001F0C2
:1013A0003F049C70C1F34231197052B901F059F9F0
:1013B000D870587801F055F95870987801F051F9C3
:1013C0009870002010BD00003FFFFF0010B50B46D5
:1013D0000168896A596001680969C1F30E01996061
:1013E000006801680E480140C1F305401870C1F360
:1013F00006245C7001F07F049C70402404EA1141D3
:10140000D97052B901F02DF91870587801F029F906
:101410005870987801F025F99870002010BD0000F0
:101420007F7F7F0070B5040002D0607F10B106E0BE
:10143000012070BD00202077204600F049F80220EE
:1014400060772168CA20486221685320486220469C
:1014500001F01CF9FF25042618BB206881681B4A8F
:10146000114081602168886862681043D4E90423D0
:101470001A43104388602168E068086120680169A8
:10148000228941EA024101612068C16821F080019E
:10149000C16020688068800607D4204600F010F9FB
:1014A00018B1206845626677C2E72068016C21F4B4
:1014B000802101642068016CA269114301642068E5
:1014C000456201206077002070BD0000BFFF8FFFE4
:1014D00010B586B0044614216846FFF7E5F80949BF
:1014E000206888420CD102200090000203906846D8
:1014F000FFF720FC08B1FFF775FA034901200860E7
:1015000006B010BD002800403C0E47422DE9F047D0
:101510000446007F0B4601281FD04FF0010984F8D4
:101520001C9002206077DAB19878D97840EA0145BA
:1015300058781978000240EA413005432168CA20F2
:101540004862216853204862204601F09FF8002637
:10155000FF274FF0040860BB1AE00220BDE8F087C7
:101560005878C10603D500F0EF000A305870D878DB
:1015700001F080F80204587801F07CF842EA002279
:10158000987801F077F80243187842EA4035D5E7B9
:101590000F480540206845602068C16821F080013F
:1015A000C1602068806880060AD4204600F088F870
:1015B00030B12068476284F81D8026770120CDE78E
:1015C0002068476284F81D9026770020C6E7000057
:1015D0003FFFFF002DE9F0470446007F0D4601283C
:1015E00027D04FF0010A84F81CA002206077206801
:1015F000002680684FEA4060F2B1002800DBEE7000
:10160000A878297840EA01476878E978000240EA3A
:10161000014007432168CA2048622168532048627C
:10162000204601F033F84FF0FF084FF00409A0BB4B
:1016300016E00220BDE8F087002800DBEE70287875
:1016400001F018F80204687801F014F842EA002268
:10165000A87801F00FF80243E87842EA0047D9E79A
:1016600016480740206807602068816821F48021BF
:101670008160D5E90301084321688A6810438860C6
:101680002068C16821F08001C16020688068800600
:101690000BD4204600F014F838B12168C1F824803A
:1016A00084F81D9026770120C4E72168C1F82480C2
:1016B00084F81DA026770020BCE700007F7F7F0014
:1016C00070B504460068C16821F0A001C160FFF751
:1016D0009FFA05464FF47A7607E000BFFFF798FAC5
:1016E000401BB04201D9032070BD2068C06880064D
:1016F000F4D5002070BD70B5040009D0606A0025E3
:1017000040B125616561A56294F8510040B10CE0DB
:10171000012070BD6068B0F5827FF4D0E561F2E72A
:1017200084F85050204600F045F8022084F851001B
:101730002068016821F040010160A088218900F43F
:10174000827001F404410843A18901F40061084357
:10175000217C01F002010843217D01F001010843D1
:10176000218B01F400710843217F01F03801084307
:1017700094F8201001F080010843218D01F40051FC
:10178000084321680860A069042101EA104094F828
:10179000241001F010010843216848602068C169E5
:1017A00021F40061C1616565012084F851000020C9
:1017B00070BD000010B586B0044614216846FEF7DF
:1017C00073FF14492068884221D113480021026820
:1017D00042F480420260006800F4804005900E48A8
:1017E0001038026842F002020260006800F0020055
:1017F00005904FF4204000900220CDE90101032024
:1018000003900520049069460448FFF7FFF806B0EE
:1018100010BD000000380040403802400004024083
:101820002DE9F84F044640680025984616460F46B5
:101830004FF0040BB0F5827F01D1A06888B194F815
:101840005000012818D0012084F85000FFF7E0F97B
:10185000814694F851004FF0000A01280ED002256D
:1018600082E084F851B013460A462046CDF8008045
:1018700000F036F9BDE8F88F0220FBE7002F72D0A8
:10188000002E70D084F851B0C4F854A0A763A68786
:10189000E687C4F830A0A4F834A0A4F836A0C4F8B1
:1018A00040A0C4F844A0A068B0F5004F09D120685A
:1018B000016821F0400101602068016821F4804145
:1018C000016020680168490603D4016841F04001C5
:1018D0000160E068D8B139E020688168C90709D0A3
:1018E000007BA16B0870A06B401CA063E08F401EC2
:1018F000E0870CE0FFF78CF9A0EB0901414503D329
:10190000B8F1FF3F03D036E0B8F1000F33D0E08FDD
:101910000028E1D11DE020688168C90709D0C068AE
:10192000A16B0880A06B801CA063E08F401EE08745
:101930000CE0FFF76DF9A0EB0901414503D3B8F1C5
:10194000FF3F03D017E0B8F1000F14D0E08F00285C
:10195000E1D14A464146204600F0B5FE08B12020BC
:101960006065606D00B10125012084F8510084F8A4
:1019700050A028467EE70325F6E72DE9F84F0446F8
:1019800090F8500000271D461646894601280DD0C4
:101990004FF0010B84F850B0FFF73AF9804694F805
:1019A0005100BA46012804D0022793E00220BDE886
:1019B000F88FB9F1000F73D0002E71D0032084F896
:1019C0005100C4F854A0C4F83090A686E686C4F846
:1019D00038A0A4F83CA0A4F83EA0C4F844A0C4F8E1
:1019E00040A0A068B0F5004F09D12068016821F03F
:1019F000400101602068016841F480410160206875
:101A00000168490603D4016841F040010160E068C3
:101A1000B0F5006F606803D030B3012E24D041E0F0
:101A200008B1012E1CD1206B21680088C86006E037
:101A300020688168890709D5216B0988C160206BFE
:101A4000801C2063E08E401EE08609E0FFF7E0F88E
:101A5000A0EB0800A84202D3681C01D031E07DB39E
:101A6000E08E0028E4D120E0206B21680078087324
:101A700006E020688168890709D5216B0978017320
:101A8000206B401C2063E08E401EE0860AE0FFF7DA
:101A9000BFF8A0EB0800A84203D3681C02D010E0F6
:101AA00017E06DB1E08E0028E3D14246294620467A
:101AB00000F038FE08B120206065A06818B106E08B
:101AC000FFE7032706E02068C16880680090606D2A
:101AD00000B1012784F851B084F850A0384666E779
:101AE0002DE9F84F044690F8500000270A9E1D4645
:101AF00092468B464FF0010901280ED0012084F850
:101B00005000FFF785F8804694F85100616801287D
:101B10000CD0B1F5827F07D102E00220BDE8F88F3A
:101B2000A16809B9042801D00227C2E0BBF1000F67
:101B300027D0BAF1000F24D01DB394F85100042827
:101B400002D0052084F8510000206065C4F838A058
:101B5000E587A587C4F830B0E586A5862064606473
:101B600020680168490603D4016841F04001016022
:101B7000E068B0F5006F606805D0E8B3012D46D08D
:101B80007FE0012795E008B1012D39D1206B216854
:101B90000088C860206B801C2063E08E401EE086B9
:101BA0002EE02068816889070FD5E18E69B1B9F10F
:101BB000010F0AD1216B0988C160206B801C206352
:101BC000E08E401EE0864FF0000920688168C9075A
:101BD0000CD0E18F51B1C068A16B0880A06B801C54
:101BE000A063E08F401EE0874FF00109FFF710F877
:101BF000A0EB0800B04200E009E001D3701C50D116
:101C0000E08E0028CDD1E08F0028CAD13FE0206BC4
:101C1000216800780873206B401C2063E08E401E12
:101C2000E0862EE02068816889070FD5E18E69B1D2
:101C3000B9F1010F0AD1216B09780173206B401CA7
:101C40002063E08E401EE0864FF000092068816826
:101C5000C9070CD0E18F51B1C068A16B0870A06BAF
:101C6000401CA063E08F401EE0874FF00109FEF7A3
:101C7000CFFFA0EB0800B04202D3701C01D010E0EF
:101C80007EB1E08E0028CDD1E08F0028CAD1424637
:101C90003146204600F046FD28B10127202060652E
:101CA00007E0032705E0A06818B92068C1688068CC
:101CB0000090012084F85100002084F8500038463C
:101CC0002CE710B5401EB0F1807F01D3012010BD7C
:101CD0004FF0E02460610F21601701F056FD0020F5
:101CE000A06107202061002010BD000070B590F8B1
:101CF0003C20012A2CD0012480F83C40022280F8AC
:101D00003D2003685A689D6822F070060A683243D5
:101D10005A60104B02689A420ED0B2F1804F0BD03D
:101D20000D4B9A4208D00D4B9A4205D00C4B9A426B
:101D300002D00C4B9A4204D1496825F08003194324
:101D4000916080F83D40002180F83C10084670BD4D
:101D5000022070BD00000140000400400008004067
:101D6000000C00400040014010B586B0044614212C
:101D70006846FEF799FC2068B0F1804F16D10C48F8
:101D80000021026842F001020260006800F00100D8
:101D900005904FF4004000900220CDE901010120A0
:101DA000CDE9031069460348FEF730FE06B010BDCA
:101DB000303802400000024070B5044690F83C0004
:101DC00000260D4601280FD0012084F83C006AB19E
:101DD000042A1DD0082A2FD00C2A3FD0012600202B
:101DE00084F83C00304670BD022070BD206801F0D0
:101DF00029FC2068816941F00801816120688169BE
:101E000021F004018161206881692A69114311E090
:101E1000206801F03FFC2068816941F40061816124
:101E20002068816921F480618161206881692A6963
:101E300041EA02218161D2E7206801F057FC206865
:101E4000C16941F00801C1612068C16921F0040144
:101E5000C1612068C1692A69114311E0206801F05D
:101E600071FC2068C16941F40061C1612068C169E9
:101E700021F48061C1612068C1692A6941EA0221B7
:101E8000C161ACE710B5040003D094F83D0010B177
:101E900007E0012010BD002084F83C00204600F03F
:101EA0001FF8022084F83D00211D206801F070FB1E
:101EB000012084F8460084F83E0084F83F0084F84E
:101EC000400084F8410084F8420084F8430084F81C
:101ED000440084F8450084F83D00002010BD000057
:101EE00008B50068B0F1804F08D10548016841F09D
:101EF00001010160006800F00100009008BD0000D1
:101F00004038024010B50446022249B104290ED0DF
:101F1000082913D094F84100012816D0012010BDE3
:101F200094F83E000128F9D184F83E200FE094F89F
:101F30003F000128F2D184F83F2008E094F84000E7
:101F40000128EBD184F8402001E084F841200122EF
:101F5000206801F069FB12492068884203D1426C75
:101F600042F400424264206888420ED0B0F1804FB3
:101F70000BD00C49884208D00B49884205D00B4948
:101F8000884202D00A49884204D1816801F00701E1
:101F9000062903D0016841F001010160002010BD55
:101FA000000001400004004000080040000C004018
:101FB00000400140FEE7000001480068406B7047A8
:101FC0001C0100202DE9F0410D462DED028B01464C
:101FD000FFF7F2FF0446884231D0002D2FD000EEEB
:101FE000104A00EE901A01EE105AB8EE400AF8EED0
:101FF000600AB8EE411A70EE600A9FED130A30EEE7
:10200000410A80EE808AFEF703FE104F064601204B
:10201000FEF7EAFCFEF7FCFD801B00EE100A3A68B2
:10202000F8EE400A00EE104AB8EE400A00EE880AC8
:10203000BCEEC00A10EE101A5163A842E7D3BDEC03
:10204000028BBDE8F0810000000000001C010020B0
:102050002DE9FF4F85B01D46059804906548DDF8D1
:1020600048B0904606880C4689460C2B18D00827A5
:1020700015FB07F04000FEF709F9824603A95E4808
:1020800000F0E0FD02A95C4800F0E4FDA8F12000AA
:10209000C0B207900020BBF1000F014602D098E0CB
:1020A0000627E5E7DFF84CE14AE00C2D0ED0534A55
:1020B000079B02EB03120023525C21F0010B0093FB
:1020C00013060AD573BAAEF800300CE0079A02EB9B
:1020D00042034B4A02EB8302EDE7BEF802C09CFAD2
:1020E0009CFCAEF800C007FB00FC0AEB4C08401C4F
:1020F000BEF8003080B228F80B30A84200D3002090
:102100005206641C029B120EA4B29C4203D300BF71
:10211000AEF8006047E0A4EB0903AB4208D1059A92
:10212000039B521C92B24C4605929A42F0D205E0B3
:10213000009B5B1CDBB20093082BC1D3491CC9B2C6
:10214000A942B2D347E00C2D33D02C4A079B02EBB7
:1021500003124FF0000B525C21F0010E130608D55C
:10216000244B07FB00FC0AEB4C081B885BBA28F8E1
:102170000E30401C80B2A84200D300205206641CDE
:10218000029B120EA4B29C420BD2A4EB0903AB42F9
:1021900016D1059A039B521C92B24C4605929A4264
:1021A00015D3144806805046FEF79FF809B0BDE8E5
:1021B000F08F079A02EB4203114A02EB8302C8E751
:1021C0000BF1010303F0FF0BBBF1080FC6D3491C51
:1021D000C9B2A942B7D30C2D09D00820CDE900051A
:1021E00053464A460448049900F092FCD9E7062079
:1021F000F4E700001000002064010020FA3E00080F
:10220000863A00082DE9F84F044600F0FF0910193E
:102210000D46DDE90AB61FFA80F8581987B24FF06B
:10222000000A12E0444503D305EB0B004C4685B28F
:10223000BD420FD25B4629462046CDF800A0FFF7ED
:1022400007FF04EB5B0084B2761C3278A2F1200019
:102250005E28E7D9BDE8F88F2DE9F04F6A4C4FF0C2
:10226000000887B00120C4F8088020730220607342
:1022700045466649664800F08FFF664E22460521B6
:102280003368634898476149B268091F60489047BE
:10229000DFF884A1DAF8000045630022B56A5F4BDD
:1022A00011465B48A847FEF7B3FC05460DF1080B45
:1022B000DFF86C9151E00A20FEF796FBFEF7A8FCD0
:1022C000401BB0F57A7F0CD8FEF7A2FC401B6421BE
:1022D00048434FF47A71B0FBF1F0DAF8001048632C
:1022E0003BE0FEF795FC411B40F6B83081422DD80B
:1022F000FEF78EFC401B0A21A0F57A70B0FBF1F2CC
:1023000048A102A8FEF790F81021CDE9001B208813
:102310000B4682B21E3880B20121FFF773FFFEF731
:1023200077FC401B2168A0F57A7048434FF4FA61AE
:10233000B0FBF1F34FF6FF710320CDE900016268B5
:102340000021B76B3248D21EB84706E0FEF760FCAA
:10235000411B40F6B83081420AD801214F46484619
:10236000FEF744FC0028A6D102E00A20FEF73CFB61
:1023700001213846FEF73AFC0028F6D04FF496715A
:102380000020FFF71FFE6168CDE900180022B56B41
:10239000236811461E48A84724A102A8FEF744F866
:1023A0001026CDE9006B2088042182B25D463346B9
:1023B0000846FFF727FFFEF723FC02461FA102A8ED
:1023C000FEF732F8CDE900652088102382B216218D
:1023D0000420FFF717FF0D481CA10838426802A827
:1023E000FEF722F8CDE900652088102382B228216B
:1023F0000420FFF707FF4FF416714FF4FA70FFF750
:10240000E1FD07B0BDE8F08F9C0600201800002019
:1024100064010020380000201C010020EA4400086C
:10242000000002402530336400000000576541631E
:10243000742053747564696F0000000053544D3369
:102440003246347878203078255800004C434420B8
:1024500049443A3078255800F0B587B014216846D1
:10246000FEF722F929480024016841F004010160C7
:10247000016801F004010591016841F080010160EB
:10248000016801F080010591016841F001010160DE
:10249000016801F001010591016841F0020101604C
:1024A00000681B4E00F002004FF40055059000221A
:1024B00029463046FEF79FFB164F00226911384629
:1024C000FEF799FB01224FF4C0613846FEF793FBFB
:1024D00000950125CDE90154694630460394FEF785
:1024E00095FACDE90054694638460295FEF78EFA12
:1024F0004FF4E060CDE900050320CDE902406946D4
:102500003846FEF783FA07B0F0BD000030380240CD
:10251000000802400000024010B586B01421684651
:10252000FEF7C2F81D4800241B490594C0E90014B9
:102530007F218160FF21C0E9031444618461FEF7BB
:1025400071FF08B1FEF74EFA12208DF800008DF8E9
:1025500001408DF802400394012269460F4804941B
:10256000FFF738F808B1FEF73DFA01208DF81400A6
:1025700009218DF815108DF8160020208DF8170010
:10258000012205A90548FEF7C1FF002801D0FEF78A
:1025900029FA06B010BD000000280040A400002069
:1025A000114810B50F4901604FF4827141604FF43A
:1025B000004181600021C1604FF400720161C0E9F7
:1025C00005120822C0E90721416281620A21C16225
:1025D000FFF791F8002803D0BDE81040FEF702BADB
:1025E00010BD000000380040C400002010B58AB0C3
:1025F000002407941C2168460894FEF755F81648F5
:102600004FF0804101600921C0E901144FF47A7153
:10261000C0E903148461FFF735FC08B1FEF7E2F965
:10262000079407A90C480894FFF760FB08B1FEF770
:10263000D9F96020CDE90004022002900022694609
:1026400004940548FFF7B8FB08B1FEF7CBF9024840
:10265000FFF78AFB0AB010BD1C010020FEE770479F
:102660007047010901EB810100F00F0000EB410010
:10267000C0B27047002102E00A38C0B2491C0A28E3
:10268000FAD2090740EA11607047000070B50446AD
:102690000068C168490614D44FF0FF31C160FEF7ED
:1026A000B7FA05464FF47A7607E000BFFEF7B0FAB6
:1026B000401BB04201D9032070BD2068C0684006AD
:1026C000F4D5002070BDF8B5044640684FF482731D
:1026D000984221D1A0684FF48065B0F5004F01D039
:1026E000A8420AD12068066826F0400606606068A5
:1026F000984211D1A068A8420ED000920B46002249
:102700008021204600F03AF8002804D0606D40F0A7
:10271000200060650320F8BD00920B4600220121D5
:10272000EFE7000038B504461248134B0068B0FBD1
:10273000F3F04FF47A73584300906068B0F5827FED
:102740000DD10B46009200228021204600F016F8A1
:1027500070B1606D40F020006065032038BD0098C6
:1027600030B1401E009020688068C0430006F6D556
:10277000002038BD0C00002000366E012DE9F84322
:102780001E46914688460446089DFEF741FA401BC6
:10279000351AFEF73DFA074625480068C0F3CB30EE
:1027A000684338E0701C37D0FEF732FAC01BA842ED
:1027B00003D215B1009860B32CE02068416821F085
:1027C000E00141606068B0F5827F0BD1A068B0F590
:1027D000004F02D0B0F5806F04D12068016821F06D
:1027E00040010160A06AB0F5005F09D1206801686E
:1027F00021F4005101602068016841F4005101603A
:10280000012084F85100002084F850000320BDE826
:10281000F8830025401E00902068816838EA010096
:1028200004D000214945BDD10020F0E70121F9E79E
:102830000C00002000207047F8B5044600208DF8F9
:102840000000034604F120006A461321054601F00A
:1028500006F906460A21204600F004FA00236A46DB
:102860002821284601F0FBF806440A21204600F002
:10287000F9F900236A463621284601F0F0F8841958
:102880000A480B49027B806801EBC00000790AB955
:1028900040F008008DF8000001226946284601F04A
:1028A000D7F8001901D04FF0FF30F8BD9C0600208A
:1028B00084000020F8B5044600208DF8000003468F
:1028C00004F120006A461321054601F0C8F80646C7
:1028D0000A21204600F0C6F900236A46292128462D
:1028E00001F0BDF806440A21204600F0BBF90023A0
:1028F0006A463621284601F0B2F884190A480B4985
:10290000027B806801EBC00000790AB940F0080042
:102910008DF8000001226946284601F099F8001957
:1029200001D04FF0FF30F8BD9C060020840000204D
:102930002DE9FF4F987AD97A5D7B00EB0120197B56
:102940005F7D090401EB05610144987CDD7C93F80F
:1029500019C000EB05201D7D93F805802D0405EBC3
:1029600007650544987DDF7D83B000EB07201F7E5F
:1029700000243F0407EB0C6738449F7893F803C0AA
:10298000264607EB0C2793F804C04FEA0C4C0CEBDF
:10299000086C6744A7EB010ADFF8C8805F182B4674
:1029A000D8F804100090891A091A8B460A46DDE906
:1029B000030100F08BFC651EF0BB98F80C00DFF8FB
:1029C000A890D8F80810002819F8310001D140F07B
:1029D00008008DF8040003980123203001AA362155
:1029E000009001F03CF838BBDDE903015A4600F0E5
:1029F00007FC08BB78788DF8080038788DF8090056
:102A0000022202A9009801F023F808B12C4603E045
:102A1000B61CBF1C5645EDD398F80C00D8F808102A
:102A2000002809EBC1004646007901D140F00800BA
:102A30008DF80400012300E00EE001AA3621009881
:102A400001F00DF840B9706800900022114633681B
:102A5000039800F03BFC00B12C4607B02046BDE8CF
:102A6000F08F00009C060020840000202DE9F0413A
:102A70001D46134B804600241B684819069F661E9E
:102A8000984218D8404600F0BBFBA0B90020C7F31D
:102A900007220C49FBB205E001F8102001EB4007CA
:102AA000401C7B70A842F7D36A00064908F1200059
:102AB00000F0CEFF00B134462046BDE8F0810000B2
:102AC0009C0600201C0400202DE9F05F8A460F4977
:102AD0001E468346496800259019DDF82890174660
:102AE0004FF0FF38884208D8002409E03A194B46D5
:102AF0005146584600F0C6FC08B1454602E0641C49
:102B0000B442F3D32846BDE8F09F00009C060020A5
:102B10002DE9FF5F1E48DDE90E6791468B4602688E
:102B200031444FF000081C464FF0FF3A914204D860
:102B3000406809EB0701814201D9D04623E0002516
:102B40001FE000BF09EB05025946009800F058FB52
:102B5000A8B900200F4909E014F8012B01F8102052
:102B600001EB400314F8012B5A70401CB042F3D320
:102B7000009872000749203000F06AFF00B1D0468B
:102B80006D1CBD42DED304B04046BDE8F09F00009E
:102B90009C0600209C0100202DE9F84F0026DDE96D
:102BA0000A7899468A468346144635460DE04B46D8
:102BB000224651465846CDF80080FFF757FF10B126
:102BC0004FF0FF3603E0641C6D1CBD42EFD330466E
:102BD000BDE8F88F4FF0FF30704700000248806872
:102BE00008600020704700009C060020FEB51C46CF
:102BF000054600F005FB064605F1200002AA2E213D
:102C0000054600F017FF0644012202A9284600F0FD
:102C100018FF064401226946284600F012FF0644C8
:102C2000012201A9284600F00CFF9DF800109DF834
:102C30000420801901EB0221216001D04FF0FF3008
:102C4000FEBD0000024800680860002070470000D8
:102C50009C06002002484068086000207047000081
:102C60009C06002070B50546C0690E4680470446A4
:102C7000E8698047001BB042FAD3002070BD2DE9FF
:102C8000F74F82B05FEA00087DD04FF0000B08F1EB
:102C900020005C468DF800B05B466A460121019039
:102CA00000F0DDFE78214046FFF7DCFF8DF80040A4
:102CB00000236A460121019800F0D1FE05467821E3
:102CC0004046FFF7CFFF8DF8004001236A461121EF
:102CD000019800F0C4FE054400236A46B121019822
:102CE00000F0BDFE461901258DF800502A466946C0
:102CF000019800F0ADFE87192C268DF800600122A6
:102D00006946019800F0A4FE00EB07094FF02D0A78
:102D100057468DF800A001226946019800F098FE00
:102D200081448DF8005001236A46B221019800F0D9
:102D300096FE81448DF8006001226946019800F0FA
:102D400087FE81448DF8007001226946019800F0E9
:102D50007FFE81448DF8005001236A46B32101981B
:102D600000F07DFE81448DF80060012269460198E3
:102D700000F06EFE81448DF80070012269460198D2
:102D800000F066FE00E0CCE181448DF800500122A5
:102D90006946019800F05CFE00EB09058DF80060C3
:102DA00001226946019800F053FE05448DF8007039
:102DB00001226946019800F04BFE461907258DF85F
:102DC000005001236A46B421019800F048FE0644F1
:102DD000A2208DF8000001236A46C021019800F06E
:102DE0003EFE871902268DF800600122694601988F
:102DF00000F02EFE074484208DF800000122694671
:102E0000019800F025FE0744C5208DF8000001233D
:102E10006A46C121019800F022FE07440A208DF87D
:102E2000000001236A46C221019800F018FE074401
:102E30008DF8004001226946019800F009FEC4198E
:102E40008A278DF8007001236A46C321019800F09B
:102E500006FE04442A208DF80000012269460198EC
:102E600000F0F6FD04448DF8007001236A46C42189
:102E7000019800F0F4FD0444EE208DF800000122DA
:102E80006946019800F0E4FD04440E208DF800002E
:102E900001236A46C521019800F0E1FD044404982D
:102EA0004FF000036A46007B00287ED02021019865
:102EB00000F0D5FD0444012303AA3A21019800F053
:102EC000CEFD0444B1468DF8006001236A46E0213E
:102ED000019800F0C4FD04441C208DF8000001227C
:102EE0006946019800F0B4FD04448DF800500122B9
:102EF0006946019800F0ACFD044412208DF80000F2
:102F000001226946019800F0A3FD044437208DF8A2
:102F1000000001226946019800F09AFD0444322025
:102F20008DF8000001226946019800F091FD0444EB
:102F300029268DF8006001226946019800F088FD7D
:102F400004448DF800A001226946019800F080FD3C
:102F500004448DF8006001226946019800F078FD74
:102F6000044425208DF8000001226946019800F0F4
:102F70006FFD04442B208DF8000001226946019862
:102F800000F066FD044439208DF8000001226946F6
:102F9000019800F05DFD07195C468DF800B0012234
:102FA0006946019800F054FD00E0BFE007440120AD
:102FB0008DF8000002466946019800F049FD07447B
:102FC0004FF0030B8DF800B001226946019800F024
:102FD0003FFD074410208DF800000122694601984A
:102FE00000F036FD07448DF800B001236A46E12168
:102FF000019800F034FD07441D208DF800000122E7
:103000006946019800F024FD07448DF80050012224
:103010006946019800F01CFDC51906208DF80000D6
:1030200001226946019800F013FD47192E258DF8FD
:10303000005001226946019800F00AFD07442C2047
:103040008DF8000001226946019800F001FD074457
:103050008DF8006001226946019800F0F9FCC6195C
:103060008DF800A001226946019800F0F1FC0644A9
:103070008DF8005001226946019800F0E9FC0644F1
:103080008DF8005001226946019800F0E1FC851995
:1030900037208DF8000001226946019800F0D8FC25
:1030A00005443F208DF8000001226946019800F098
:1030B000CFFC05448DF8004001226946019800F0DC
:1030C000C7FC05448DF8004001226946019800F0D4
:1030D000BFFC05448DF8009001226946019800F07C
:1030E000B7FC054410208DF80000012269460198C4
:1030F00000F0AEFC05448DF8004001236A46132120
:10310000019800F0ACFC441901236A46292101987A
:1031100000F0A5FC04444046049900F063F900194E
:1031200001D04FF0FF3005B0BDE8F08F2121BEE6A1
:10313000F8B50E4620306A46DA21074600F07AFCE0
:103140004FF0FF3408B12046F8BD6D46DB2138460C
:103150006A1C00F06FFC0028F5D1AA1CDC2138465F
:1031600000F068FC0028EED1BDF801009DF80010C9
:1031700040BA61F31F4030600020F8BD30B40C4607
:103180000369204630BC1146184730B40C468369A9
:10319000204630BC1146184710B54FF0FF32D8B169
:1031A0000B6803604C6844600C890481CC68C4607F
:1031B0000C6904614C6944618C698461C969C161AD
:1031C0000649416206490162064981620649C0E931
:1031D0000B100BB198470246104610BD7D31000818
:1031E000CD340008ED3100088B31000830B40C46B6
:1031F0004369204630BC114618474FF0FF307047F6
:10320000F8B50D46304914468B680A7B497B012B83
:103210000FD8012902D0022906D018E00AB11835CA
:1032200015E0641C1A3512E0012A10D1641CAD1C93
:103230000DE0012902D0022905D008E00AB11834B6
:1032400005E01A3402E0012A01D1A41C6D1C2030D3
:1032500000236A462A21064600F001FC0746280A98
:103260008DF8000001226946304600F0F1FB07446A
:103270008DF8005001226946304600F0E9FBC5197F
:1032800000236A462B21304600F0E9FB0544200A62
:103290008DF8000001226946304600F0D9FB054454
:1032A0008DF8004001226946304600F0D1FB4419F8
:1032B00000236A462C21304600F0D1FB001901D0D2
:1032C0004FF0FF30F8BD00009C0600202DE9F843C8
:1032D0000C4643491E4615468B680A7BDDF8209054
:1032E000497B012B0ED8012902D0022905D019E013
:1032F0000AB1183416E01A3402E0012A12D1A41CD3
:103300006D1C0FE0012902D0022907D00AE004F168
:1033100001040AB1183505E01A3503E0012A01D18C
:10332000641CAD1C203000236A462A21804600F030
:1033300096FB0746200A8DF80000012269464046A8
:1033400000F086FB07448DF80040012269464046A4
:1033500000F07EFB34440744641E200A8DF8000010
:1033600001226946404600F073FBC6198DF8004003
:1033700001226946404600F06BFB841900236A462F
:103380002B21404600F06BFB0444280A8DF8000016
:1033900001226946404600F05BFB04448DF8005072
:1033A00001226946404600F053FB061905EB09046B
:1033B000641E200A8DF8000001226946404600F094
:1033C00047FB85198DF8004001226946404600F010
:1033D0003FFB401901D04FF0FF30BDE8F8830000FB
:1033E0009C0600202DE9FC4105465023A0204A7B85
:1033F000224C8F6880263FB1012F05D0012A0FD0C3
:103400008AB1022A0FD010E0012A03D02AB1022A81
:1034100003D00AE0C4E9003007E0C4E9006004E03A
:10342000C4E9000301E0C4E900068868A060087BE5
:103430002073487B60736068009000221146284624
:103440002368FFF743FF217B064600290C48A1684B
:1034500000EBC100007901D140F008008DF80400B4
:10346000012301AA362105F1200000F0F8FA8019A5
:1034700001D04FF0FF30BDE8FC8100009C06002029
:1034800084000020F8B506464FF6FF7000EA0320DE
:1034900040EA1320ADF800000B480024651E0368C5
:1034A0008B420DD9406890420AD93046FFF7A8FEFA
:1034B00030B90222694606F1200000F0C9FA00B1D5
:1034C0002C462046F8BD00009C060020F0B41446AF
:1034D0000D46C66821462846B446F0BC1A466047E9
:1034E0007047FDF79BBB000030B593B030216846B4
:1034F000FDF7DAF814210CA8FDF7D6F81B480025D3
:10350000016841F080510160006800F08050119026
:103510001748016821F4404141F40041016000680E
:10352000022400F440401190092000904FF48030B4
:1035300001900120CDE9050480050790192008902D
:10354000A820CDE9090404200B906846FDF766FD2C
:103550000CA90F2081E83100E002CDE90F0502211E
:103560000CA8FDF78FFC13B030BD000040380240BE
:10357000007000400548016841F470010160034992
:103580004FF00060803908607047000088ED00E06F
:10359000F0B502681D4B1E4C9F031E4D1E4E9842F7
:1035A00007D0B84205D0A04203D0A84201D0B04213
:1035B00004D122F0700C4A6842EA0C02984210D002
:1035C000B8420ED0A0420CD0A8420AD0B04208D0D7
:1035D000124CA04205D0124CA04202D0114CA04285
:1035E00003D122F44074CA6822434C6922F080025D
:1035F000224302608A68C2620A688262984201D1EC
:103600000969016301214161F0BD00000000014032
:103610000004004000080040000C00400040014051
:10362000004401400048014010B501F01F03012192
:10363000046A99408C430462016A9A401143016212
:1036400010BD000030B5026A22F001020262026A77
:103650004368846924F073050C682C4322F002054A
:103660008A682A430A4DA8420BD122F00805CA688D
:1036700023F440732A434D6922F004021D438B69F1
:103680002B434360846149684163026230BD00009E
:103690000000014030B5026A22F010020262026AA4
:1036A000436884690D6824F4E64444EA05248D687F
:1036B00022F0200242EA05120B4DA8420ED1CD683D
:1036C00022F0800242EA05124D6923F4406343EA86
:1036D00085038D6922F0400243EA850343608461DB
:1036E00049688163026230BD0000014030B5026A62
:1036F00022F480720262036A4268C46923F4007390
:1037000024F073050C682C438D6843EA05230C4DA7
:10371000A8420ED1CD6823F4006343EA05234D6926
:1037200022F4405242EA05128D6923F4806342EA92
:1037300005124260C4614968C163036230BD000084
:103740000000014030B5026A22F480520262046A2D
:103750004268C3690D6823F4E64343EA05238D6894
:1037600024F4005444EA0534064DA84204D14D69BE
:1037700022F4804242EA85124260C36149680164D2
:10378000046230BD00000140FEE70907090E002871
:1037900004DB00F1E02080F80014704700F00F0017
:1037A00000F1E02080F8141D704730380A2801D25B
:1037B0000120704700207047FDF72ABA70B50B4E04
:1037C00000244FF48075224629463046FDF713FA4F
:1037D0000520FDF709F9012229463046FDF70BFACD
:1037E00000210348FEF78EFB204670BD000002401A
:1037F0001C0100202DE9F341164E88464FF48065E8
:10380000002229463046FDF7F6F96C1000222146C9
:103810003046FDF7F0F96423012269460E48FEF7B1
:10382000ACF80746012221463046FDF7E4F94FF493
:10383000FA73012241460848FDF7F2FFC41901223C
:1038400029463046FDF7D7F9604294FBF0F0BDE819
:10385000FC81000000000240C40000202DE9F0417E
:103860000D4E0C4607464FF480650022294630462F
:10387000FDF7C1F9A2B24FF4FA7339460748FDF7D4
:10388000CFFF0446012229463046FDF7B4F96042D5
:1038900094FBF0F0BDE8F08100000240C40000207D
:1038A0002DE9F0410D4E0C4607464FF4806500228D
:1038B00029463046FDF79FF9A2B2642339460848ED
:1038C000FEF75BF80446012229463046FDF793F9DE
:1038D000604294FBF0F0BDE8F0810000000002407F
:1038E000C40000202DE9F743174E154689464FF4D2
:1038F0008068002241463046FDF77DF977150022A9
:1039000039463046FDF777F96423012269460F48AE
:10391000FEF733F80446012239463046FDF76BF9CD
:103920003DB1AAB24FF4FA7349460848FEF725F8AC
:103930000444012241463046FDF75DF9604294FBA4
:10394000F0F0BDE8FE83000000000240C40000204B
:103950008EB0FDF76BF9FFF7C7FDFEF77DFDFEF7B3
:103960001FFEFEF7D9FDFEF741FEFEF775FC1025A0
:10397000DFF88C8007AC6E0240F2F3190CAF02A99D
:1039800000222048FDF722FD002239461D48FDF7A0
:10399000FBFC9DF80A009DF809309DF80820C0073F
:1039A00001D019A100E01CA107A8FCF73DFDCDE95D
:1039B00000541023A0223A210420FEF723FCFDF737
:1039C00027F9024618A107A8FCF72EFDCDE90054FF
:1039D0001023A0224A210420FEF714FC01223146C4
:1039E00047464046FDF707F94846FCF7FDFF002231
:1039F00031463846FDF7FFF80220FCF7F5FFBDE73A
:103A000000080240A400002054696D653A2025306A
:103A100032643A253032640054696D653A202530AD
:103A200032642025303264005469636B3A20256487
:103A30006D73000030B444680369A44630BC184676
:103A4000604730B4D0E90343A44630BC1846604711
:103A500030B484680369A44630BC1846604730B46B
:103A6000046905682046AC4630BC60474FF04070A2
:103A7000E1EE100A704700000000000000000102A3
:103A80000304060708090000000000000000000011
:103A90000000000000003F400000000000000000A7
:103AA0003000400030004000000009000BC03D0025
:103AB0000BC03D00090018C024407FE02240318047
:103AC0000000180024C01B000D80324001800380DC
:103AD0001C4027401C800740004010006000000090
:103AE0000000000000000000000000001F802040D7
:103AF00040200000402020401F80000000000900FE
:103B000006001F80060009000000040004003F803A
:103B1000040004000000001000600000000000002D
:103B20000000040004000400040004000000000081
:103B300000400000000000000000002001C006005E
:103B40003800400000001F802040204020401F809F
:103B50000000000010403FC000400000000018C0FE
:103B60002140224024401840000010802040244082
:103B700024401B80000002000D0011003FC00140E6
:103B800000003C80244024402440238000001F800B
:103B9000244024403440038000003000200027C02F
:103BA0003800200000001B802440244024401B805B
:103BB00000001C0022C0224022401F8000000000A4
:103BC0000000084000000000000000000000046049
:103BD000000000000000000004000A001100208026
:103BE0004040090009000900090009000000000028
:103BF0004040208011000A000400180020002340EB
:103C00002400180000001F802040274029401F404A
:103C10000000004007C039000F0001C000402040F4
:103C20003FC0244024401B8000001F8020402040D3
:103C300020403080000020403FC0204020401F80B6
:103C4000000020403FC024402E4030C000002040F3
:103C50003FC024402E00300000000F0010802040A4
:103C600022403380020020403FC0040004003FC0D7
:103C70002040204020403FC0204020400000006005
:103C8000202020203FC02000200020403FC02440B2
:103C90000B0030C0204020403FC02040004000408A
:103CA00000C03FC03C0003C03C003FC000002040BB
:103CB0003FC00C4023003FC020001F802040204018
:103CC00020401F80000020403FC0244024001800F6
:103CD00000001F802140214020E01FA00000204064
:103CE0003FC02440260019C0004018C02440244092
:103CF000224031800000300020403FC02040300092
:103D0000000020003F80004000403F802000200055
:103D10003E0001C0070038002000380007C03C000A
:103D200007C038000000204039C0060039C02040DC
:103D300000002000384007C038402000000030401C
:103D400021C02640384020C00000000000007FE075
:103D5000402040200000000070000C000380004064
:103D600000000000402040207FE000000000000034
:103D70002000400020000000000000100010001093
:103D800000100010001000000000400000000000C3
:103D90000000000002800540054003C000402000F4
:103DA0003FC0044004400380000000000380044042
:103DB00004400640000000000380044024403FC04F
:103DC0000040000003800540054003400000000063
:103DD00004401FC0244024402000000002E00550A1
:103DE00005500650042020403FC00440040003C09A
:103DF00000400000044027C0004000000000001008
:103E00000010041027E00000000020403FC00140E7
:103E1000070004C00440204020403FC00040004054
:103E2000000007C0040007C0040003C000000440F5
:103E300007C00440040003C00040000003800440A9
:103E4000044003800000041007F004500440038085
:103E50000000000003800440045007F000100440FC
:103E600007C00240040004000000000006400540B6
:103E7000054004C00000000004001F800440004012
:103E80000000040007800040044007C00040040018
:103E9000070004C0018006000400060001C00700FE
:103EA00001C006000000044006C0010006C0044036
:103EB00000000410071004E0018006000400000068
:103EC000044005C00640044000000000000004005B
:103ED0007BE040200000000000000000FFF0000038
:103EE0000000000040207BE00400000000004000D3
:103EF0008000400020002000400000000000000082
:103F000000000000000000000000000000000000B1
:103F10001FCC000C00000000000000000800300072
:103F200060000800300060000000022003FC1E203A
:103F3000022003FC1E200220000000000E181104C5
:103F40003FFF10840C78000000000F0010840F3831
:103F500000C0077818840078000000780F8410C42F
:103F600011240E9800E40084000808006800700026
:103F70000000000000000000000000000000000041
:103F800007E018182004400200000000400220044E
:103F9000181807E000000000000002400240018005
:103FA0000FF001800240024000000080008000808D
:103FB0000FF800800080008000000001000D000E5E
:103FC00000000000000000000000000000800080F1
:103FD000008000800080008000800000000C000C49
:103FE00000000000000000000000000000060018B3
:103FF00000600180060018002000000007F008089B
:1040000010041004080807F0000000000804080469
:104010001FFC000400040000000000000E0C10143F
:104020001024104411840E0C000000000C18100421
:104030001104110412880C700000000000E003203D
:10404000042408241FFC0024000000001F98108492
:1040500011041104108810700000000007F0088897
:104060001104110418880070000000001C001000EA
:1040700010FC13001C001000000000000E3811445A
:104080001084108411440E38000000000700088CD2
:1040900010441044088807F00000000000000000F1
:1040A000030C030C000000000000000000000001F1
:1040B0000106000000000000000000000080014038
:1040C0000220041008081004000002200220022030
:1040D0000220022002200220000000001004080834
:1040E0000410022001400080000000000E001200B9
:1040F000100C106C10800F00000003E00C1813E48B
:10410000142417C4082807D000000004003C03C48E
:104110001C40074000E4001C000410041FFC1104B4
:10412000110411040E880070000003E00C18100444
:104130001004100410081C10000010041FFC1004D0
:1041400010041004080807F0000010041FFC1104FC
:10415000110417C410040818000010041FFC1104F7
:10416000110017C010000800000003E00C18100434
:10417000100410441C780040000010041FFC108440
:104180000080008010841FFC100400001004100444
:104190001FFC1004100400000000000300011001C7
:1041A00010011FFE10001000000010041FFC11047D
:1041B00003801464181C1004000010041FFC100479
:1041C000000400040004000C000010041FFC1F0089
:1041D00000FC1F001FFC1004000010041FFC0C0456
:1041E000030000E010181FFC100007F0080810047E
:1041F00010041004080807F0000010041FFC1084CD
:104200001080108010800F00000007F008181024A4
:104210001024101C080A07F2000010041FFC1104EF
:10422000110011C011300E0C000400000E1C11040E
:104230001084108410441C38000018001000100472
:104240001FFC100410001800000010001FF81004DC
:104250000004000410041FF8100010001E0011E0FC
:10426000001C007013801C0010001FC0103C00E0F8
:104270001F0000E0103C1FC000001004180C163492
:1042800001C001C01634180C100410001C001304E7
:1042900000FC13041C00100000000804101C106433
:1042A000108413041C04101800000000000000001B
:1042B0007FFE4002400240020000000030000C007F
:1042C00003800060001C0003000000004002400268
:1042D00040027FFE000000000000000000002000FF
:1042E00040004000400020000000000100010001EB
:1042F0000001000100010001000100004000400039
:1043000020000000000000000000000000980124D0
:1043100001440144014400FC000410001FFC00881B
:104320000104010400880070000000000070008893
:1043300001040104010400880000000000700088EE
:104340000104010411081FFC0004000000F80144EE
:1043500001440144014400C80000000001040104BC
:104360000FFC1104110411001800000000D60129EF
:104370000129012901C90106000010041FFC008465
:1043800001000100010400FC000400000104190404
:1043900019FC0004000400000000000000030001FC
:1043A0000101190119FE0000000010041FFC002487
:1043B000004001B4010C01040000000010041004CE
:1043C0001FFC0004000400000000010401FC0104C3
:1043D000010001FC0104010000FC010401FC008457
:1043E00001000100010400FC0004000000F80104C9
:1043F00001040104010400F80000010101FF00852F
:1044000001040104008800700000000000700088B2
:1044100001040104010501FF00010104010401FC84
:1044200000840104010001800000000000CC012490
:104430000124012401240198000000000100010072
:1044400007F80104010400000000010001F8000465
:1044500000040004010801FC000401000180017057
:10446000000C001001600180010001F0010C00301F
:1044700001C00030010C01F0010000000104018CBA
:1044800000740170018C01040000010101810171BF
:10449000000E001801600180010000000184010C81
:1044A000013401440184010C000000000000000000
:1044B000000001003EFC400240020000000000003D
:1044C0000000FFFF0000000000000000400240026A
:1044D0003EFC0100000000000000000060008000C1
:1044E00080004000400020002000424D42A8000013
:1044F00000000000420000002800000080000000D2
:10450000A8000000010010000300000000A8000047
:10451000120B0000120B0000000000000000000061
:1045200000F80000E00700001F000000000000008D
:10453000000000000000000000000000000000007B
:10454000000000000000000000000000000000006B
:10455000000000000000000000000000000000005B
:10456000000000000000000000000000000000004B
:106CE0000000242196B55DEFFFFFFFFFFBDEB294AD
:106CF0000000000000000000000000000000000094
:106D00000000000000000000000000000000000083
:106D10000000000000000000000000000000000073
:106D20000000000000000000000000000000000063
:106D30000000000000000000000000000000000053
:106D40000000000000000000000000000000000043
:106D50000000000000000000000000000000000033
:106D60000000000000000000000000000000000023
:106D70000000000000000000000000000000000013
:106D80000000000000000000000000000000000003
:106D900000000000000000000000000000000000F3
:106DA00000000000000000000000000000000000E3
:106DB00000000000000000000000000000000000D3
:106DC00000000000000000000000000000000000C3
:106DD00000000000000000000000000000000000B3
:106DE000AA52BEF7FFFFBEF796B514A5F7BDBEF7D2
:106DF0005DEFAA520000000000000000000000004B
:106E00000000000000000000000000000000000082
:106E10000000000000000000000000000000000072
:106E20000000000000000000000000000000000062
:106E30000000000000000000000000000000000052
:106E40000000000000000000000000000000000042
:106E500000000000000000000000000000002421ED
:106E60002C632C632C630000000000000000000075
:106E70000000000000000000000000000000000012
:106E80000000000000000000000000000000000002
:106E90000000000000000000000000000000E739D2
:106EA0002C632C63AA5200000000000000000000C8
:106EB00000000000000000000000000000000000D2
:106EC000000000000000E7392C632C632C632C6366
:106ED0002C63E739000000000000000000002421BE
:106EE000BEF7FFFFBEF7AA52000000000000E7391E
:106EF000FBDEBEF7AA520000000000000000000008
:106F000000000000000000002C632C632C632C6345
:106F1000AA52000000000000000000000000000075
:106F20000000000000000000000000000000000061
:106F30000000000000000000000000000000000051
:106F40000000000000000000000000000000000041
:106F5000000000000000FFFFFFFFFFFFFFFFFFFF3B
:106F6000FFFFFFFFFFFFBAD6000000000000000097
:106F700000005DEFFFFFFFFFFFFFFFFFFFFFFFFFD1
:106F8000F7BD00000000000000000000000000004D
:106F900000000000CF7BFFFFFFFFFFFFFFFFFFFFB1
:106FA000FFFFFFFFFFFF14A500000000000000002E
:106FB000000000000000000059CEFFFFFFFFFFFFB0
:106FC000FFFFFFFFFFFFFFFFFFFFFFFFFFFFFFFFD1
:106FD000FFFFFFFFBAD6242100000000000014A527
:106FE000FFFFFFFF2C630000000000000000000016
:106FF0002421FBDEFBDE00000000000000003084E6
:10700000FFFFFFFFFFFFFFFFFFFFFFFFFFFFFFFF90
:10701000FFFFBEF7F7BD2C6300000000000000007A
:107020000000000000000000000000000000000060
:107030000000000000000000000000000000000050
:107040000000000000000000000000000000000040
:107050000000000000002C6330845DEFFFFFFFFFA5
:10706000F7BD00000000E73900000000000000004C
:107070000000AA523084BEF7FFFFFFFFB2942C63DA
:10708000AA52000000000000000000000000000004
:107090000000000024212C6314A5BEF7FFFFFFFFB2
:1070A000308400000000E73900000000000000000C
:1070B0000000000000000000E7393084FBDEFFFF25
:1070C000FFFF5DEF5DEFFFFFFFFF5DEF59CEB29475
:1070D0002C63B294FFFFF7BD0000000000005DEFDD
:1070E000FFFF5DEF00000000000000000000000056
:1070F0000000AA5296B50000000000000000000049
:107100000000AA52FFFFFFFFFBDE2C632C632C6301
:10711000B294FBDEFFFFFFFF59CE242100000000E8
:10712000000000000000000000000000000000005F
:10713000000000000000000000000000000000004F
:10714000000000000000000000000000000000003F
:1071500000000000000000000000AA52FFFFFFFF37
:107160005DEF0000000000000000000000000000D3
:107170000000000000003084FFFFFFFF96B5000014
:1071800000000000000000000000000000000000FF
:1071900000000000000000000000B294FFFFFFFFAD
:1071A000F7BD00000000000000000000000000002B
:1071B00000000000000000000000000024215DEF3E
:1071C000FFFFBEF7242100000000000000000000C7
:1071D00000002421FFFFFFFF000000002421FFFF2B
:1071E000FFFFF7BD000000000000000000000000ED
:1071F000000000000000000000000000000000008F
:107200000000000059CEFFFFFFFFE739000000003B
:10721000000000002C63BEF7FFFFFBDE242100000E
:10722000000000000000000000000000000000005E
:10723000000000000000000000000000000000004E
:10724000000000000000000000000000000000003E
:10725000000000000000000000000000FBDEFFFF57
:10726000FFFF2421000000000000000000000000DB
:107270000000000000002421FFFFFFFFFBDE0000F4
:1072800000000000000000000000000000000000FE
:10729000000000000000000000002421FFFFFFFFAD
:1072A000FBDE000000000000000000000000000005
:1072B0000000000000000000000000000000B29488
:1072C000FFFFFFFF3084000000000000000000000E
:1072D00000002C63FFFFBEF7000000002C63FFFFDF
:1072E000FFFF14A5000000000000000000000000E7
:1072F000000000000000000000000000242114A590
:10730000AA5200003084FFFFFFFFB294000000008B
:10731000000000000000AA52BEF7FFFFFBDE0000E5
:10732000000000000000000000000000000000005D
:10733000000000000000000000000000000000004D
:10734000000000000000000000000000000000003D
:10735000000000000000000000000000B294FFFFE9
:10736000FFFF30840000000000000000000000006B
:10737000000000000000000059CEFFFFFFFF2421A5
:1073800000000000000000000000000000000000FD
:10739000000000000000000000000000BAD6FFFF5F
:1073A000FFFF24210000000000000000000000009A
:1073B0000000000000000000000000000000E739AD
:1073C000FFFFFFFF59CE000000000000000000009A
:1073D000000000003084AA52000000002C63FFFF70
:1073E000FFFF14A5000000000000000000000000E6
:1073F000000000000000000000000000BAD6FFFFFF
:10740000BAD600002421FFFFFFFFFBDE00000000D2
:1074100000000000000000002C63FFFFFFFF14A528
:10742000000000000000000000000000000000005C
:10743000000000000000000000000000000000004C
:10744000000000000000000000000000000000003C
:10745000000000000000000000000000AA52FFFF32
:10746000FFFFF7BD0000000000000000000000006A
:107470000000000000000000B294FFFFFFFF308416
:1074800000000000000000000000000000000000FC
:10749000000000000000000000000000B294FFFFA8
:1074A000FFFF30840000000000000000000000002A
:1074B00000000000000000000000000000000000CC
:1074C0005DEFFFFFFFFF0000000000000000000074
:1074D000000000000000000000000000AA52FFFFB2
:1074E000FFFF14A5000000000000000000000000E5
:1074F00000000000000000000000CF7BFFFFBEF78F
:10750000308400000000BAD6FFFFFFFF24210000F6
:1075100000000000000000000000F7BDFFFFBEF704
:107520002421000000000000000000000000000016
:10753000000000000000000000000000000000004B
:10754000000000000000000000000000000000003B
:107550000000000000000000000000000000BEF776
:10756000FFFF5DEF000000000000000000000000D1
:10757000FBDEFFFFAA520000AA52FFFFFFFFF7BD8C
:10758000000000000000AA522421000000000000BA
:10759000000000000000000000000000AA52FFFFF1
:1075A000FFFFF7BD00000000000000000000000029
:1075B00000000000000000000000000000000000CB
:1075C000F7BDFFFFFFFFCF7B0000000000000000C1
:1075D0000000000000000000000000000000FFFFAD
:1075E000FFFFBAD60000000000000000000000000D
:1075F0000000000000000000000014A5FFFF2C6345
:1076000000000000000014A5FFFFFFFFCF7B00007B
:1076100000000000000000000000CF7BFFFFFFFF24
:1076200030840000000000000000000000000000A6
:10763000000000000000000000000000000000004A
:10764000000000000000000000000000000000003A
:107650003084BAD6CF7B0000000000000000F7BDE8
:10766000FFFFFFFFE7390000000000000000AA5202
:10767000FFFFFFFFAA52000000005DEFFFFFFBDEEF
:10768000000000000000BAD614A5000000000000B1
:1076900096B559CEE7390000000000000000BEF7A3
:1076A000FFFF5DEF00000000000000000000000090
:1076B00000000000000000000000000000000000CA
:1076C0003084FFFFFFFF96B50000000000000000BF
:1076D0000000000000000000000000000000BAD61A
:1076E000FFFFBEF7000000000000000000000000E7
:1076F0000000000000000000000059CEFBDE00008A
:107700000000000000002C63FFFFFFFF14A5000035
:10771000000000000000000000000000FFFFFFFF6D
:10772000F7BD0000000000000000000000000000A5
:107730000000000000000000000000000000000049
:107740000000000000000000000000000000000039
:107750005DEFFFFF14A50000000000000000308472
:10776000FFFFFFFF308400000000000000002C63DA
:10777000FFFFF7BD000000000000F7BDFFFFFFFFA7
:10778000BAD6BAD6BAD6FFFFF7BD00000000E73977
:10779000FFFFFFFF2C630000000000000000F7BDAA
:1077A000FFFFFFFFE73900000000000000000000BD
:1077B00000000000000000000000000000000000C9
:1077C000E739FFFFFFFFFBDE0000000000000000C4
:1077D0000000000000000000000000000000B29463
:1077E000FFFFFFFFAA5200000000000000000000A1
:1077F0000000000000000000000014A5FBDE0000F7
:107800000000000000000000FFFFFFFFBAD60000EC
:10781000000000000000000000000000FFFFFFFF6C
:10782000BAD60000000000000000000000000000C8
:107830000000000000000000000000000000000048
:107840000000000000000000000000000000000038
:10785000FFFFFFFFAA520000000000000000E73910
:10786000FFFFFFFFF7BD00000000000000002C63D9
:10787000FFFF30840000000000003084FFFFFFFFA6
:1078800059CE14A514A559CE5DEF000000002C635D
:10789000FFFFFBDE0000000000000000000030845D
:1078A000FFFFFFFF30840000000000000000000028
:1078B00000000000000000000000000000000000C8
:1078C0000000FBDEFFFFFFFFE739000000000000C3
:1078D0000000000000000000000000000000242163
:1078E000FFFFFFFFF7BD00000000000000000000E8
:1078F000000000000000000000003084FFFFE739B6
:107900000000000000000000BAD6FFFFFFFF0000EB
:10791000000000000000000000000000FFFFFFFF6B
:10792000BAD60000000000000000000000000000C7
:107930000000000000000000000000000000000047
:107940000000000000000000000000000000000037
:10795000FFFFF7BD00000000000000000000000075
:107960005DEFFFFF5DEF0000000000000000AA5285
:10797000FFFFB294000000000000E739FFFFFFFFA7
:1079800096B500000000AA52FFFF000000002C6323
:10799000FFFF308400000000000000000000E73915
:1079A000FFFFFFFFF7BD0000000000000000000027
:1079B00000000000000000000000000000000000C7
:1079C0000000B294FFFFFFFFB2940000000000002F
:1079D00000000000000000000000000000000000A7
:1079E000F7BDFFFFBEF724210000000000000000EB
:1079F000000000000000AA5296B52421BEF714A58D
:107A0000000000000000000014A5FFFFFFFF2C6332
:107A1000000000000000000000000000FFFFFFFF6A
:107A2000BAD60000000000000000000000000000C6
:107A30000000000000000000000000000000000046
:107A40000000000000000000000000000000000036
:107A5000BEF759CE0000000000000000000000004A
:107A6000F7BDFFFFFFFFE739000000000000000046
:107A70005DEFBAD600000000000000005DEFFFFFE0
:107A8000FBDE000000000000000000000000AA5221
:107A9000FFFFB294000000000000000000000000A2
:107AA0005DEFFFFF5DEF0000000000000000000040
:107AB00000000000000000000000000000000000C6
:107AC0000000E739FFFFFFFFFBDE000000000000C1
:107AD00000000000000000000000000000000000A6
:107AE0002421BEF7FFFF96B5000000000000000053
:107AF0000000000000002C63BAD6000014A5BEF7F9
:107B0000AA520000000000002C63FFFFFFFFB294A8
:107B100000000000000000000000CF7BFFFFFFFF1F
:107B200096B500000000000000000000000000000A
:107B30000000000000000000000000000000000045
:107B40000000000000000000000000000000000035
:107B5000F7BDFFFFE7390000000000000000000053
:107B60003084FFFFFFFFB29400000000000000001F
:107B7000CF7BFFFF3084000000000000F7BDFFFF57
:107B8000FFFFE7390000000000000000E739E73997
:107B90005DEFFBDE000000000000000000000000C0
:107BA000F7BDFFFFFFFFE739000000000000000005
:107BB00000000000000000000000000000000000C5
:107BC00000000000F7BDFFFFFFFFE73900000000E5
:107BD00000000000000000000000000000000000A5
:107BE0000000CF7BFFFFFFFF2C63000000000000C0
:107BF0000000000000002C63FFFF00000000FBDE1F
:107C0000FBDE2421000000000000FFFFFFFF59CE33
:107C100000000000000000000000BAD6FFFFFFFFD8
:107C2000E739000000000000000000000000000034
:107C30000000000000000000000000000000000044
:107C40000000000000000000000000000000000034
:107C5000E739BEF7FBDE2421000000000000000031
:107C6000E739FFFFFFFF59CE0000000000000000D1
:107C7000000096B5BEF73084000000003084FFFF9E
:107C8000FFFF3084000000000000000014A5BAD6F9
:107C9000CF7BFFFFF7BD00000000000000000000E8
:107CA0003084FFFFFFFFB2940000000000000000DE
:107CB00000000000000000000000000000000000C4
:107CC00000000000E739BEF7FFFF59CE00000000BA
:107CD0000000E739E7390000000000000000000064
:107CE0000000000014A5FFFFBEF7AA52000000002C
:107CF000000000000000CF7BFFFFE73900002421D7
:107D0000FBDE5DEFAA5200003084FFFFFFFFBEF7ED
:107D10000000000000000000B294FFFFFFFF96B5D6
:107D20000000000000000000000000000000000053
:107D30000000000000000000000000000000000043
:107D40000000000000000000000000000000000033
:107D50000000CF7BFFFFBEF796B52C63E73900002C
:107D600000005DEFFFFFBEF7000000000000000014
:107D70000000000096B5FFFFBAD6CF7BAA52FFFFE6
:107D8000FFFF59CE000000000000000096B5BEF7CE
:107D9000000096B5FFFF5DEFB2942C632421000034
:107DA000E739FFFFFFFF59CE000000000000000090
:107DB00000000000000000000000000000000000C3
:107DC000000000000000CF7BFFFFFFFF30840000B9
:107DD0003084BEF7BEF70000000000000000000085
:107DE0000000000000003084FFFFBEF7B2940000E6
:107DF000000000000000BAD6FFFFCF7B00000000AB
:107E0000242159CEFFFFF7BDB29414A5F7BDFBDEC8
:107E10002C6300002421F7BDFFFFFFFFF7BD00002A
:107E20000000000000000000000000000000000052
:107E30000000000000000000000000000000000042
:107E40000000000000000000000000000000000032
:107E500000000000AA52FBDEFFFFFFFFFFFFFFFF55
:107E6000FFFFFFFFFFFFFFFFFFFFFFFFFFFFFFFF22
:107E700059CE2C6300002C63F7BDBEF7FFFFFFFF58
:107E8000FFFFFFFFFFFFFFFFFFFFFFFFFFFFFFFF02
:107E9000AA520000CF7BBEF7FFFFFFFFFFFFFFFFEF
:107EA000FFFFFFFFFFFFFFFFFFFFFFFFFFFFBEF72B
:107EB000F7BDE739000000000000000000000000EE
:107EC00000000000000000002C635DEFFFFF5DEF8D
:107ED000FFFFFFFFBAD60000000000000000000016
:107EE0000000000000000000AA52BAD6FFFF5DEFBC
:107EF000F7BD96B55DEFFFFFBAD62C63000000001A
:107F0000000000002C63BAD6FFFF5DEFF7BD14A59B
:107F100014A5BAD6FFFFFFFFBEF7B2940000000021
:107F20000000000000000000000000000000000051
:107F30000000000000000000000000000000000041
:107F40000000000000000000000000000000000031
:107F50000000000000000000CF7BF7BDBAD6BEF7DE
:107F6000FFFFBEF7BAD6BAD659CE14A514A514A5EC
:107F7000FBDEFFFF2C6300000000000024212C63C7
:107F80002C632C632C632C632C632C632C6396B5BD
:107F9000AA52000000002421308459CEBAD6FFFF37
:107FA000FFFF5DEFBAD6BAD6F7BD14A514A514A588
:107FB000BEF7BEF724210000000000000000000012
:107FC0000000000000000000000024213084F7BD04
:107FD00059CEB294242100000000000000000000EF
:107FE000000000000000000000000000AA5214A5DC
:107FF000BAD659CE14A5E7390000000000000000F1
:108000000000000000000000E739308414A559CEBC
:10801000BAD6F7BD14A5CF7B000000000000000019
:108020000000000000000000000000000000000050
:108030000000000000000000000000000000000040
:108040000000000000000000000000000000000030
:108050000000000000000000000000000000000020
:108060000000000000000000000000000000000010
:10807000CF7BFFFF14A500000000000000000000FF
:1080800000000000000000000000000000000000F0
:1080900000000000000000000000000000000000E0
:1080A00000000000000000000000000000000000D0
:1080B00096B5FFFF2C6300000000000000000000E8
:1080C00000000000000000000000000000000000B0
:1080D00000000000000000000000000000000000A0
:1080E0000000000000000000000000000000000090
:1080F0000000000000000000000000000000000080
:10810000000000000000000000000000000000006F
:10811000000000000000000000000000000000005F
:10812000000000000000000000000000000000004F
:10813000000000000000000000000000000000003F
:10814000000000000000000000000000000000002F
:10815000000000000000000000000000000000001F
:10816000000000000000000000000000000000000F
:10817000AA52BEF7CF7B0000000000000000000004
:1081800000000000000000000000000000000000EF
:1081900000000000000000000000000000000000DF
:1081A00000000000000000000000000000000000CF
:1081B0003084BEF7E7390000000000000000000036
:1081C00000000000000000000000000000000000AF
:1081D000000000000000000000000000000000009F
:1081E000000000000000000000000000000000008F
:1081F000000000000000000000000000000000007F
:109050000000000000000000000000000000E739F0
:109060002C632C632C63242100000000000000000E
:1090700000000000000000000000000000000000F0
:1090800000000000000000000000000000000000E0
:1090900000000000000000000000000000000000D0
:1090A00000000000000000000000000000000000C0
:1090B00000000000000000000000000000000000B0
:1090C00000000000000000000000000000000000A0
:1090D0000000000000000000000000000000000090
:1090E0000000000000000000000000000000000080
:1090F0000000000000000000000000000000000070
:10910000000000000000000000000000000000005F
:10911000000000000000000000000000000000004F
:10912000000000000000000000000000000000003F
:10913000000000000000000000000000000000002F
:10914000000000000000000000000000000000001F
:109150000000000000000000E739F7BDBEF7BEF7D1
:10916000BAD6BAD6BEF7FFFF5DEFF7BDAA52000030
:10917000000000000000000000000000000030843B
:10918000FBDEFFFFFFFFBEF7F7BD2C630000000012
:10919000000000000000E739F7BD5DEFFFFFFFFFB3
:1091A000BEF759CE308424210000AA52BAD6BAD6CE
:1091B000BAD6BAD6BAD6BAD6BAD6000000000000DF
:1091C000000000000000242114A5FBDEFFFFFFFFCC
:1091D0005DEF14A52421000096B5BAD6BAD6BAD64A
:1091E000BAD6BAD6BAD63084000000003084BAD6D7
:1091F000BAD6BAD6BAD6BAD6BAD696B50000000054
:1092000000000000000000000000CF7B59CE5DEFA1
:10921000FFFFFFFFFBDEF7BDAA52000000000000C9
:10922000000000000000000000000000000000003E
:10923000000000000000000000000000000000002E
:10924000000000000000000000000000000000001E
:1092500000000000242196B5FFFFF7BDAA520000D0
:10926000000000002421FFFFFFFFFFFFFFFF59CE9A
:10927000242100000000000000000000F7BDFFFFF7
:10928000FFFFFFFFFFFFFFFFFFFFFFFF96B500009F
:1092900000000000CF7BFFFFFFFFFFFFFFFFFFFF8E
:1092A000FFFFFFFFFFFFBEF714A52C63FFFFFFFFCB
:1092B000FFFFFFFFFFFFFFFFFFFF000000000000B8
:1092C000000000003084BEF7FFFFFFFFFFFFFBDE62
:1092D00014A5FBDE5DEFAA52BAD6FFFFFFFFFFFF2A
:1092E000FFFFFFFFFFFF14A50000000014A5FFFF14
:1092F000FFFFFFFFFFFFFFFFFFFFBAD600000000E8
:10930000000000000000E739BAD6FFFFFFFFFFFFB3
:1093100014A50000E739B2945DEF59CE2421000076
:10932000000000000000000000000000000000003D
:10933000000000000000000000000000000000002D
:10934000000000000000000000000000000000001D
:1093500000002421FBDEFBDEAA520000000000001A
:10936000000000002C63FFFFFFFFFFFFFFFFFFFF78
:10937000FBDE00000000000000003084FFFFFFFF64
:10938000FFFFFFFFFFFFFFFFB294E739FBDEB29460
:1093900000002421BEF7FFFFFFFFFFFFFFFFFFFFDD
:1093A000BEF72421000030845DEFBEF7FFFFFFFF12
:1093B000FFFFFFFFFFFFFFFFFFFF000000000000B7
:1093C00000003084FFFFFFFFFFFFFFFFFFFF2C6364
:1093D00000000000B294BEF75DEFFFFFFFFFFFFF4C
:1093E000FFFFFFFFFFFF14A50000000014A5FFFF13
:1093F000FFFFFFFFFFFFFFFFFFFFBAD600000000E7
:1094000000000000AA52BEF7FFFFFFFFFFFFFFFFB3
:1094100014A5000000000000000014A5FBDE2421BC
:10942000000000000000000000000000000000003C
:10943000000000000000000000000000000000002C
:10944000000000000000000000000000000000001C
:109450000000E73959CE2421000000000000000080
:109460000000E739BEF7FFFFFFFFFFFFFFFFFFFF31
:10947000FFFF14A5000000000000BAD6FFFFFFFFA9
:10948000FFFFFFFFFFFFFFFF2C630000E7395DEFE9
:109490002421CF7BFFFFFFFFFFFFFFFFFFFFFFFF49
:1094A000BAD6000000000000000096B5FFFFFFFFE5
:1094B000FFFFFFFFFFFFFFFFFFFF000000000000B6
:1094C0002C63FFFFFFFFFFFFFFFFFFFFFFFF2C638A
:1094D0000000000000003084FFFFFFFFFFFFFFFFE0
:1094E000FFFFFFFFFFFF14A50000000014A5FFFF12
:1094F000FFFFFFFFFFFFFFFFFFFFBAD600000000E6
:1095000000002421BEF7FFFFFFFFFFFFFFFFFFFF6B
:1095100014A500000000000000000000B294BAD6BC
:10952000000000000000000000000000000000003B
:10953000000000000000000000000000000000002B
:10954000000000000000000000000000000000001B
:10955000000000000000000000000000000000000B
:109560002421FBDEFFFFFFFFFFFFFFFFFFFFFFFFE9
:10957000FFFF5DEF000000000000FFFFFFFFFFFFA7
:10958000FFFFFFFFFFFFFFFF2C6300000000F7BDA0
:109590002C6314A5FFFFFFFFFFFFFFFFFFFFFFFF8F
:1095A000BAD600000000000000002C63FFFFFFFFA0
:1095B000FFFFFFFFFFFFFFFFFFFF000000000000B5
:1095C0005DEFFFFFFFFFFFFFFFFFFFFFFFFF2C63CC
:1095D0000000000000000000BAD6FFFFFFFFFFFF01
:1095E000FFFFFFFFFFFF14A50000000014A5FFFF11
:1095F000FFFFFFFFFFFFFFFFFFFFBAD600000000E5
:109600000000F7BDFFFFFFFFFFFFFFFFFFFFFFFFB2
:1096100014A5000000000000000000000000BAD601
:109620003084000000000000000000000000000086
:10963000000000000000000000000000000000002A
:10964000000000000000000000000000000000001A
:1096500000000000000000000000000000002421C5
:10966000FBDEFFFFFFFFFFFFFFFFFFFFFFFFFFFF2F
:10967000FFFFFFFF000000000000FFFFFFFFFFFFF4
:10968000FFFFFFFFFFFFFFFF2C6300000000000053
:10969000000014A5FFFFFFFFFFFFFFFFFFFFFFFF1D
:1096A000BAD600000000000000002C63FFFFFFFF9F
:1096B000FFFFFFFFFFFFFFFFFFFF00000000CF7B6A
:1096C000FFFFFFFFFFFFFFFFFFFFFFFFFFFF2C6319
:1096D0000000000000000000BAD6FFFFFFFFFFFF00
:1096E000FFFFFFFFFFFF14A50000000014A5FFFF10
:1096F000FFFFFFFFFFFFFFFFFFFFBAD600000000E4
:109700002421FFFFFFFFFFFFFFFFFFFFFFFFFFFF22
:1097100014A50000000000000000000000002C6301
:10972000BAD60000000000000000000000000000A9
:109730000000000000000000000000000000000029
:109740000000000000000000000000000000000019
:109750000000000000000000000000002421FBDEEB
:10976000FFFFFFFFFFFFFFFFFFFFFFFFFFFFFFFF09
:10977000FFFFBEF7000000000000FFFFFFFFFFFF3C
:10978000FFFFFFFFFFFFFFFF2C6300000000000052
:10979000000014A5FFFFFFFFFFFFFFFFFFFFFFFF1C
:1097A000BAD600000000000000002C63FFFFFFFF9E
:1097B000FFFFFFFFFFFFFFFFFFFF0000000096B568
:1097C000FFFFFFFFFFFFFFFFFFFFFFFFFFFF2C6318
:1097D0000000000000000000BAD6FFFFFFFFFFFFFF
:1097E000FFFFFFFFFFFF14A50000000014A5FFFF0F
:1097F000FFFFFFFFFFFFFFFFFFFFBAD600000000E3
:10980000CF7BFFFFFFFFFFFFFFFFFFFFFFFFFFFF1C
:1098100014A500000000000000000000000000008F
:10982000BEF724210000000000000000000000003E
:109830000000000000000000000000000000000028
:109840000000000000000000000000000000000018
:10985000000000000000000000002421FBDEFFFFEC
:10986000FFFFFFFFFFFFFFFFFFFFFFFFFFFFFFFF08
:10987000FFFFF7BD000000000000FFFFFFFFFFFF3C
:10988000FFFFFFFFFFFFFFFF2C6300000000000051
:10989000000014A5FFFFFFFFFFFFFFFFFFFFFFFF1B
:1098A000BAD600000000000000002C63FFFFFFFF9D
:1098B000FFFFFFFFFFFFFFFFFFFF00000000BAD622
:1098C000FFFFFFFFFFFFFFFFFFFFFFFFFFFF2C6317
:1098D0000000000000000000BAD6FFFFFFFFFFFFFE
:1098E000FFFFFFFFFFFF14A50000000014A5FFFF0E
:1098F000FFFFFFFFFFFFFFFFFFFFBAD600000000E2
:1099000014A5FFFFFFFFFFFFFFFFFFFFFFFFFFFFAC
:1099100014A500000000000000000000000000008E
:10992000BAD62C6300000000000000000000000018
:109930000000000000000000000000000000000027
:109940000000000000000000000000000000000017
:1099500000000000000000000000F7BDFFFFFFFF57
:10996000FFFFFFFFFFFFFFFFFFFFFFFFFFFFFFFF07
:10997000FFFFE739000000000000FFFFFFFFFFFFCF
:10998000FFFFFFFFFFFFFFFF2C6300000000000050
:10999000000014A5FFFFFFFFFFFFFFFFFFFFFFFF1A
:1099A000BAD600000000000000002C63FFFFFFFF9C
:1099B000FFFFFFFFFFFFFFFFFFFF00000000BAD621
:1099C000FFFFFFFFFFFFFFFFFFFFFFFFFFFF2C6316
:1099D0000000000000000000BAD6FFFFFFFFFFFFFD
:1099E000FFFFFFFFFFFF14A50000000014A5FFFF0D
:1099F000FFFFFFFFFFFFFFFFFFFFBAD600000000E1
:109A000014A5FFFFFFFFFFFFFFFFFFFFFFFFFFFFAB
:109A100014A500000000000000000000000000008D
:109A2000BAD62C6300000000000000000000000017
:109A30000000000000000000000000000000000026
:109A40000000000000000000000000000000000016
:109A5000000000000000000096B5FFFFFFFFFFFFC1
:109A6000FFFFFFFFFFFFFFFFFFFFFFFFFFFFFFFF06
:109A700014A50000000000000000FFFFFFFFFFFF33
:109A8000FFFFFFFFFFFFFFFF2C630000000000004F
:109A9000000014A5FFFFFFFFFFFFFFFFFFFFFFFF19
:109AA000BAD600000000000000002C63FFFFFFFF9B
:109AB000FFFFFFFFFFFFFFFFFFFF00000000BAD620
:109AC000FFFFFFFFFFFFFFFFFFFFFFFFFFFF2C6315
:109AD0000000000000000000BAD6FFFFFFFFFFFFFC
:109AE000FFFFFFFFFFFF14A50000000014A5FFFF0C
:109AF000FFFFFFFFFFFFFFFFFFFFBAD600000000E0
:109B0000B294FFFFFFFFFFFFFFFFFFFFFFFFFFFF1D
:109B100014A500000000000000000000000000008C
:109B20005DEFE739000000000000000000000000C9
:109B30000000000000000000000000000000000025
:109B40000000000000000000000000000000000015
:109B5000000000000000CF7BFFFFFFFFFFFFFFFFC3
:109B6000FFFFFFFFFFFFFFFFFFFFFFFFFFFF59CEDC
:109B700000000000000000000000FFFFFFFFFFFFEB
:109B8000FFFFFFFFFFFFFFFF2C630000000000004E
:109B9000000014A5FFFFFFFFFFFFFFFFFFFFFFFF18
:109BA000BAD600000000000000002C63FFFFFFFF9A
:109BB000FFFFFFFFFFFFFFFFFFFF0000000014A5F6
:109BC000FFFFFFFFFFFFFFFFFFFFFFFFFFFF2C6314
:109BD0000000000000000000BAD6FFFFFFFFFFFFFB
:109BE000FFFFFFFFFFFF14A50000000014A5FFFF0B
:109BF000FFFFFFFFFFFFFFFFFFFFBAD600000000DF
:109C0000AA52FFFFFFFFFFFFFFFFFFFFFFFFFFFF66
:109C100014A5000000000000000000000000E7396B
:109C2000BEF700000000000000000000000000007F
:109C30000000000000000000000000000000000024
:109C40000000000000000000000000000000000014
:109C5000000000002421BEF7FFFFFFFFFFFFFFFF12
:109C6000FFFFFFFFFFFFFFFFFFFFFFFFFBDE2421E2
:109C700000000000000000000000FFFFFFFFFFFFEA
:109C8000FFFFFFFFFFFFFFFF2C630000000000004D
:109C9000000014A5FFFFFFFFFFFFFFFFFFFFFFFF17
:109CA000BAD600000000000000002C63FFFFFFFF99
:109CB000FFFFFFFFFFFFFFFFFFFF00000000AA52B2
:109CC000FFFFFFFFFFFFFFFFFFFFFFFFFFFF2C6313
:109CD0000000000000000000BAD6FFFFFFFFFFFFFA
:109CE000FFFFFFFFFFFF14A50000000014A5FFFF0A
:109CF000FFFFFFFFFFFFFFFFFFFFBAD600000000DE
:109D000000005DEFFFFFFFFFFFFFFFFFFFFFFFFF13
:109D100014A500000000000000000000000014A5D1
:109D200096B50000000000000000000000000000E8
:109D30000000000000000000000000000000000023
:109D40000000000000000000000000000000000013
:109D50000000000014A5FFFFFFFFFFFFFFFFFFFF54
:109D6000FFFFFFFFFFFFFFFFFFFF5DEF242100006C
:109D700000000000000000000000FFFFFFFFFFFFE9
:109D8000FFFFFFFFFFFFFFFF2C630000000000004C
:109D9000000014A5FFFFFFFFFFFFFFFFFFFFFFFF16
:109DA000BAD600000000000000002C63FFFFFFFF98
:109DB000FFFFFFFFFFFFFFFFFFFF000000000000AD
:109DC00059CEFFFFFFFFFFFFFFFFFFFFFFFF2C63E9
:109DD0000000000000000000BAD6FFFFFFFFFFFFF9
:109DE000FFFFFFFFFFFF14A50000000014A5FFFF09
:109DF000FFFFFFFFFFFFFFFFFFFFBAD600000000DD
:109E00000000CF7BFFFFFFFFFFFFFFFFFFFFFFFF14
:109E100014A500000000000000000000AA525DEF41
:109E200024210000000000000000000000000000ED
:109E30000000000000000000000000000000000022
:109E40000000000000000000000000000000000012
:109E5000000000005DEFFFFFFFFFFFFFFFFFFFFFC0
:109E6000FFFFFFFFFFFFFFFFBEF7AA520000000049
:109E700000000000000000000000FFFFFFFFFFFFE8
:109E8000FFFFFFFFFFFFFFFF2C630000000000004B
:109E9000000014A5FFFFFFFFFFFFFFFFFFFFFFFF15
:109EA000BAD600000000000000002C63FFFFFFFF97
:109EB000FFFFFFFFFFFFFFFFFFFF000000000000AC
:109EC00024215DEFFFFFFFFFFFFFFFFFFFFF2C637C
:109ED00000000000000024215DEFFFFFFFFFFFFFF7
:109EE000FFFFFFFFFFFF14A50000000014A5FFFF08
:109EF000FFFFFFFFFFFFFFFFFFFFBAD600000000DC
:109F000000000000F7BDFFFFFFFFFFFFFFFFFFFFA7
:109F100014A50000000000000000AA52BEF7308423
:109F20000000000000000000000000000000000031
:109F30000000000000000000000000000000000021
:109F40000000000000000000000000000000000011
:109F500000000000FFFFFFFFFFFFFFFFFFFFFFFF0D
:109F6000FFFFFFFFFFFFBEF7AA5200000000000046
:109F700000000000000000000000FFFFFFFFFFFFE7
:109F8000FFFFFFFFFFFFFFFF2C630000000000004A
:109F9000000014A5FFFFFFFFFFFFFFFFFFFFFFFF14
:109FA000BAD600000000000000002C63FFFFFFFF96
:109FB000FFFFFFFFFFFFFFFFFFFF000000000000AB
:109FC0000000AA52FBDEFFFFFFFFFFFFFFFF2C6335
:109FD000000000002C63FBDE5DEFFFFFFFFFFFFFD3
:109FE000FFFFFFFFFFFF14A50000000014A5FFFF07
:109FF000FFFFFFFFFFFFFFFFFFFFBAD600000000DB
:10A0000000000000000096B5FFFFFFFFFFFFFFFF0D
:10A0100014A5000000000000B2945DEF3084000041
:10A020000000000000000000000000000000000030
:10A030000000000000000000000000000000000020
:10A040000000000000000000000000000000000010
:10A0500000000000FFFFFFFFFFFFFFFFFFFFFFFF0C
:10A06000FFFFFFFFFFFFAA520000000000000000FA
:10A0700000000000E739BAD6BAD6FFFFFFFFFFFFA6
:10A08000FFFFFFFFFFFFFFFFFBDEBAD6BAD630842B
:10A09000000014A5FFFFFFFFFFFFFFFFFFFFFFFF13
:10A0A000BAD600000000000000002C63FFFFFFFF95
:10A0B000FFFFFFFFFFFFFFFFFFFF000000000000AA
:10A0C00000000000242114A5BEF7FFFFFFFFFBDE08
:10A0D00014A5FBDEBAD6E739BAD6FFFFFFFFFFFFB4
:10A0E000FFFFFFFFFFFF14A50000000014A5FFFF06
:10A0F000FFFFFFFFFFFFFFFFFFFFBAD600000000DA
:10A1000000000000000000002C63BAD6FFFFFFFF34
:10A11000BAD614A5F7BDBEF7F7BDE73900000000B9
:10A12000000000000000000000000000000000002F
:10A13000000000000000000000000000000000001F
:10A14000000000000000000000000000000000000F
:10A150000000000059CEFFFFFFFFFFFFFFFFFFFFE2
:10A16000FFFFFFFF3084000000000000000000003F
:10A170000000000024212C632C63FFFFFFFFFFFF82
:10A18000FFFFFFFFFFFFFFFF2C632C632C63E7390A
:10A190000000E7392C632C632C632C632C632C6345
:10A1A000AA52000000000000000024212C632C6350
:10A1B0002C632C632C632C632C63000000000000D4
:10A1C000000000000000000000002C6314A514A58E
:10A1D0003084E73900000000BAD6FFFFFFFFFFFF21
:10A1E000FFFFFFFFFFFF14A500000000E7392C630D
:10A1F0002C632C632C632C632C63AA520000000098
:10A20000000000000000000000000000E73930847A
:10A2100014A514A5CF7B242100000000000000003D
:10A22000000000000000000000000000000000002E
:10A23000000000000000000000000000000000001E
:10A24000000000000000000000000000000000000E
:10A2500000000000AA52FFFFFFFFFFFFFFFFFFFF0C
:10A26000FFFF14A500000000000000000000AA523B
:10A27000AA520000000000000000FFFFFFFFFFFFE8
:10A28000FFFFFFFFFFFFFFFF242100000000000091
:10A2900000000000000000000000000000000000BE
:10A2A00000000000000000000000000000000000AE
:10A2B000000000000000000000000000000000009E
:10A2C000000000000000000000000000000000008E
:10A2D0000000000000000000BAD6FFFFFFFFFFFFF4
:10A2E000FFFFFFFFFFFF14A5000000000000242176
:10A2F000308414A514A53084E73900000000000064
:10A30000000000000000000000000000000000004D
:10A31000000000000000000000000000000000003D
:10A32000000000000000000000000000000000002D
:10A33000000000000000000000000000000000001D
:10A34000000000000000000000000000000000000D
:10A350000000000000003084FFFFFFFFFFFFFFFF51
:10A36000FFFF24210000000000000000B294FFFF66
:10A370002C630000000000000000E73914A55DEF29
:10A38000FFFFFFFFFFFFFFFF2C6300000000000046
:10A3900000000000000000000000000000000000BD
:10A3A00000000000000000000000000000000000AD
:10A3B000000000000000000000000000000000009D
:10A3C000000000000000000000000000000000008D
:10A3D0000000000000000000BAD6FFFFFFFFFFFFF3
:10A3E000FFFFFFFFFFFF14A500000000E739BEF7E5
:10A3F000FFFFFFFFFFFFFFFFBEF7CF7B0000000066
:10A40000000000000000000000000000000000004C
:10A41000000000000000000000000000000000003C
:10A42000000000000000000000000000000000002C
:10A43000000000000000000000000000000000001C
:10A44000000000000000000000000000000000000C
:10A450000000000000000000AA52BAD6FFFFFFFF74
:10A46000FFFF14A52C632C6396B55DEFBAD6AA52F4
:10A4700000000000000000000000000000000000DC
:10A4800030845DEFFFFFFFFF2C6300000000000041
:10A4900000000000000000000000000000000000BC
:10A4A00000000000000000000000000000000000AC
:10A4B000000000000000000000000000000000009C
:10A4C000000000000000000000000000000000008C
:10A4D0000000000000000000BAD6FFFFFFFFFFFFF2
:10A4E000FFFFFFFFFFFF14A50000000014A5FFFF02
:10A4F000FFFFFFFFFFFFFFFFFFFFBAD600000000D6
:10A50000000000000000000000000000000000004B
:10A51000000000000000000000000000000000003B
:10A52000000000000000000000000000000000002B
:10A53000000000000000000000000000000000001B
:10A54000000000000000000000000000000000000B
:10A55000000000000000000000000000E739B29495
:10A56000F7BDBAD6BAD659CE14A5AA52000000003B
:10A5700000000000000000000000000000000000DB
:10A580000000000030845DEF2C630000000000003C
:10A5900000000000000000000000000000000000BB
:10A5A00000000000000000000000000000000000AB
:10A5B000000000000000000000000000000000009B
:10A5C000000000000000000000000000000000008B
:10A5D0000000000000000000AA522C632C632C63D2
:10A5E0002C632C632C63E739000000002C63FFFF11
:10A5F000FFFFFFFFFFFFFFFFFFFF14A500000000AC
:10A60000000000000000000000000000000000004A
:10A61000000000000000000000000000000000003A
:10A62000000000000000000000000000000000002A
:10A63000000000000000000000000000000000001A
:10A64000000000000000000000000000000000000A
:10A6500000000000000000000000000000000000FA
:10A6600000000000000000000000000000000000EA
:10A6700000000000000000000000000000000000DA
:10A680000000000000002421242100000000000040
:10A6900000000000000000000000000000000000BA
:10A6A00000000000000000000000000000000000AA
:10A6B000000000000000000000000000000000009A
:10A6C000000000000000000000000000000000008A
:10A6D000000000000000000000000000000000007A
:10A6E00000000000000000000000000000002C63DB
:10A6F000F7BDBAD6BAD659CE3084000000000000AB
:10A700000000000000000000000000000000000049
:10A710000000000000000000000000000000000039
:10A720000000000000000000000000000000000029
:10A730000000000000000000000000000000000019
:10B1400000000000000000000000242100000000BA
:10B1500000000000000000000000000000000000EF
:10B16000000000002421000000000000000000009A
:10B1700000000000000000000000000000000000CF
:10B1800000000000000000000000000000000000BF
:10B1900000000000000000000000000000000000AF
:10B1A000000000000000000000000000000000009F
:10B1B000000000000000000000000000000000008F
:10B1C000000000000000000000000000000000007F
:10B1D000000000000000000000000000000000006F
:10B1E000000000000000000000000000000000005F
:10B1F000000000000000000000000000000000004F
:10B20000000000000000000000000000000000003E
:10B21000000000000000000000000000000000002E
:10B22000000000000000000000000000000000001E
:10B23000000000000000000000000000000000000E
:10B2400000000000000000000000F7BD000000004A
:10B2500000000000000000000000000000000000EE
:10B260000000242159CE0000000000000000000072
:10B2700000000000000000000000000000000000CE
:10B2800000000000000000000000000000000000BE
:10B2900000000000000000000000AA5200000000B2
:10B2A000000000000000000000000000000000009E
:10B2B000000000000000000000000000000000008E
:10B2C000000000000000000000000000000000007E
:10B2D000000000000000000000000000000000006E
:10B2E000000000000000000000000000000000005E
:10B2F000000000000000000000000000000000004E
:10B30000000000000000000000000000000000003D
:10B31000000000000000000000000000000000002D
:10B32000000000000000000000000000000000001D
:10B33000000000000000000000000000000000000D
:10B340000000000000000000CF7BFFFF2C63000026
:10B3500000000000000000000000000000000000ED
:10B36000000014A5FFFFE739000000000000000006
:10B3700000000000000000000000000000000000CD
:10B38000E73996B5FBDEFFFFFFFFBEF759CE3084ED
:10B39000242100000000000000005DEFCF7B0000D2
:10B3A000000000000000000000000000000000009D
:10B3B00000000000E739BAD6BAD6BAD6BAD6BAD69D
:10B3C000BAD6BAD6BAD6BAD6BAD624210000000068
:10B3D00000000000308459CE5DEFFFFFFFFF5DEFFE
:10B3E000F7BD2C630000000000000000000000001A
:10B3F0000000242114A55DEFFFFFFFFF5DEF96B570
:10B40000E73900000000000000000000000000001C
:10B41000000000000000000000000000000000002C
:10B42000000000000000000000000000000000001C
:10B43000000000000000000000000000000000000C
:10B44000000000000000000059CEFFFF5DEF00008B
:10B4500000000000000000000000000000000000EC
:10B46000E739FFFFFFFFF7BD00000000000000000C
:10B47000000000000000000000000000000014A513
:10B48000FFFFFFFFBEF7AA5200002421CF7BBAD6F0
:10B49000BEF7B29400000000000030845DEF24216C
:10B4A000000000000000000000000000000000009C
:10B4B00000000000F7BDFFFFFFFFFFFFFFFFFFFFE2
:10B4C000FFFFFFFFFFFFFFFF14A5000000000000CB
:10B4D000AA52FBDEFFFFFFFFFFFF59CE0000242131
:10B4E000CF7BBAD6BAD6E7390000000000000000D2
:10B4F0002421FBDEFFFFFFFFFFFFFFFFFFFFFFFF3A
:10B50000BEF73084000000000000000000000000D2
:10B51000000000000000000000000000000000002B
:10B52000000000000000000000000000000000001B
:10B53000000000000000000000000000000000000B
:10B54000000000000000E739FFFFFFFFFFFF30842D
:10B5500000000000000000000000000000000000EB
:10B56000F7BDFFFFFFFFFFFF2421000000000000E8
:10B57000000000000000000000000000F7BDFFFF19
:10B58000FFFFFFFFBAD6000000000000000000002F
:10B590002C63BEF759CE242100000000BAD6F7BDB7
:10B5A0002C632C632C632C632C632C632C632C6323
:10B5B0002C633084FFFFFFFFFFFFFFFFFFFFFFFF54
:10B5C000FFFFFFFFFFFFBEF7242100000000AA528B
:10B5D000BEF7FFFFFFFFFFFFFFFF14A50000000005
:10B5E00000000000CF7B5DEFAA52000000000000C9
:10B5F000F7BDFFFFFFFFFFFFFFFFFFFFFFFFAA52A7
:10B600002C63BEF7AA5200000000000000000000FA
:10B61000000000000000000000000000000000002A
:10B62000000000000000000000000000000000001A
:10B63000000000000000000000000000000000000A
:10B6400000000000000014A5FFFFFFFFFFFFBEF792
:10B650002421000000000000000000000000E73985
:10B66000FFFFFFFFFFFFFFFF14A500000000000029
:10B670000000000000000000000014A5FFFFFFFF15
:10B68000FFFFFFFFBAD6000000000000000000002E
:10B6900000002421FBDEBAD6000000002C63FFFF6F
:10B6A000FBDEBAD6BAD6BAD6BAD6BAD6BAD6BAD6D1
:10B6B000BAD6BEF7FFFFFFFFFFFFFFFFFFFFFFFF51
:10B6C000FFFFFFFFFFFFB294000000002421BEF740
:10B6D000FFFFFFFFFFFFFFFFFFFF14A500000000BB
:10B6E000000000000000AA525DEFAA520000000016
:10B6F000FFFFFFFFFFFFFFFFFFFFFFFFFFFF000058
:10B700000000CF7BBAD6000000000000000000005F
:10B710000000000000000000000000000000000029
:10B720000000000000000000000000000000000019
:10B730000000000000000000000000000000000009
:10B740000000000000005DEFFFFFFFFFFFFFFFFFB5
:10B7500014A5000000000000000000000000F7BD7C
:10B76000FFFFFFFFFFFFFFFFBEF70000000000002C
:10B770000000000000000000E739FFFFFFFFFFFFAF
:10B78000FFFFFFFFBAD6000000000000000000002D
:10B7900000000000AA52BEF7AA5200000000F7BD48
:10B7A000F7BD0000000000000000000000000000E5
:10B7B000AA52FFFFFFFFFFFFFFFFFFFFFFFFFFFF9B
:10B7C000FFFFFFFF5DEF000000000000F7BDFFFF7F
:10B7D000FFFFFFFFFFFFFFFFFFFF14A500000000BA
:10B7E0000000000000000000B29459CE00002C635D
:10B7F000FFFFFFFFFFFFFFFFFFFFFFFFFFFF000057
:10B80000000000005DEF00000000000000000000EC
:10B810000000000000000000000000000000000028
:10B820000000000000000000000000000000000018
:10B830000000000000000000000000000000000008
:10B8400000000000CF7BFFFFFFFFFFFFFFFFFFFFB8
:10B85000BEF7242100000000000000002C63FFFF61
:10B86000FFFFFFFFFFFFFFFFFFFF3084000000002E
:10B87000000000000000000014A5FFFFFFFFFFFF15
:10B88000FFFFFFFFBAD6000000000000000000002C
:10B89000000000000000E739000000000000242143
:10B8A000BEF7AA52000000000000000000000000E7
:10B8B000BAD6FFFFFFFFFFFFFFFFFFFFFFFFFFFF06
:10B8C000FFFFFFFFCF7B000000002421FFFFFFFFF1
:10B8D000FFFFFFFFFFFFFFFFFFFF14A500000000B9
:10B8E00000000000000000000000E73900002C63A9
:10B8F000FFFFFFFFFFFFFFFFFFFFFFFFFFFF000056
:10B900000000000000000000000000000000000037
:10B910000000000000000000000000000000000027
:10B920000000000000000000000000000000000017
:10B930000000000000000000000000000000000007
:10B9400000000000BAD6FFFFFFFFFFFFFFFFFFFF71
:10B95000FFFFF7BD0000000000000000BAD6FFFFA7
:10B96000FFFFFFFFFFFFFFFFFFFF5DEF0000000095
:10B970000000000000000000FBDEFFFFFFFFFFFFF4
:10B98000FFFFFFFFBAD6000000000000000000002B
:10B9900000000000000000000000000000000000A7
:10B9A000B294BAD6000000000000000000002C6332
:10B9B000FFFFFFFFFFFFFFFFFFFFFFFFFFFFFFFF97
:10B9C000FFFFBAD6000000000000CF7BFFFFFFFFA3
:10B9D000FFFFFFFFFFFFFFFFFFFF14A500000000B8
:10B9E00000000000000000000000000000002C63C8
:10B9F000FFFFFFFFFFFFFFFFFFFFFFFFFFFF000055
:10BA00000000000000000000000000000000000036
:10BA10000000000000000000000000000000000026
:10BA20000000000000000000000000000000000016
:10BA30000000000000000000000000000000000006
:10BA40000000E739FFFFFFFFFFFFFFFFFFFFFFFFE2
:10BA5000FFFFFFFFE739000000002C63FFFFFFFF3F
:10BA6000FFFFFFFFFFFFFFFFFFFFFFFF2C63000053
:10BA70000000000000000000FFFFFFFFFFFFFFFFCE
:10BA8000FFFFFFFFFBDE2C632C632C632C632C6316
:10BA90002C632C632C632C63AA520000000000006E
:10BAA00000005DEFCF7B0000000000000000BAD670
:10BAB000FFFFFFFFFFFFFFFFFFFFFFFFFFFFFFFF96
:10BAC000FFFF2C6300000000000014A5FFFFFFFF34
:10BAD000FFFFFFFFFFFFFFFFFFFF14A500000000B7
:10BAE00000000000000000000000000000002C63C7
:10BAF000FFFFFFFFFFFFFFFFFFFFFFFFFFFF000054
:10BB00000000000000000000000000000000000035
:10BB10000000000000000000000000000000000025
:10BB20000000000000000000000000000000000015
:10BB30000000000000000000000000000000000005
:10BB4000000096B5FFFFFFFFFFFFFFFFFFFFFFFFB6
:10BB5000FFFFFFFFBAD6000000005DEFFFFFFFFF11
:10BB6000FFFFFFFFFFFFFFFFFFFFFFFFBAD6000051
:10BB70000000000000000000FFFFFFFFFFFFFFFFCD
:10BB8000FFFFFFFFBEF7BAD6BAD6BAD6FBDEFFFF7D
:10BB9000FFFFFFFFFFFFFFFFBAD60000000000001D
:10BBA00000002C635DEF2421000000003084FFFFC3
:10BBB000FFFFFFFFFFFFFFFFFFFFFFFFFFFFFFFF95
:10BBC000F7BD000000000000000014A5FFFFFFFF0C
:10BBD000FFFFFFFFFFFFFFFFFFFF14A500000000B6
:10BBE00000000000000000000000000000002C63C6
:10BBF000FFFFFFFFFFFFFFFFFFFFFFFFFFFF000053
:10BC00000000000000000000000000000000000034
:10BC10000000000000000000000000000000000024
:10BC20000000000000000000000000000000000014
:10BC30000000000000000000000000000000000004
:10BC40000000BEF7FFFFFFFFFFFFFFFFFFFFFFFF4B
:10BC5000FFFFFFFFFFFF2C63B294FFFFFFFFFFFF1B
:10BC6000FFFFFFFFFFFFFFFFFFFFFFFFBEF7AA522F
:10BC700000000000000000005DEFFFFFFFFFFFFF7E
:10BC8000FFFFFFFFBAD60000000000002C63FFFF9B
:10BC9000FFFFFFFFFFFFFFFFF7BD000000000000F8
:10BCA0000000000059CE14A5000000005DEFFFFF6A
:10BCB000FFFFFFFFFFFFFFFFFFFFFFFFFFFFBEF7DD
:10BCC000E7390000000000000000B294FFFFFFFF12
:10BCD000FFFFFFFFFFFFFFFFFFFF14A500000000B5
:10BCE00000000000000000000000000000002C63C5
:10BCF000FFFFFFFFFFFFFFFFFFFFFFFFFFFF000052
:10BD00000000000000000000000000000000000033
:10BD10000000000000000000000000000000000023
:10BD20000000000000000000000000000000000013
:10BD30000000000000000000000000000000000003
:10BD40003084FFFFFFFFFFFFFFFFFFFFFFFFFFFF4D
:10BD5000FFFFF7BD14A55DEFBEF7FFFFFFFFFFFF7D
:10BD6000FFFFFFFFFFFFFFFFFFFFF7BDF7BDF7BDC1
:10BD70000000000000000000F7BDFFFFFFFFFFFF15
:10BD8000FFFFFFFFBAD60000000000002C63FFFF9A
:10BD9000FFFFFFFFFFFFFFFFB29400000000000065
:10BDA00000000000E7395DEFE7393084FFFFFFFF57
:10BDB000FFFFFFFFFFFFFFFFFFFFFFFFFFFF14A5D8
:10BDC00000000000000000000000AA52FFFFFFFF7B
:10BDD000FFFFFFFFFFFFFFFFFFFF14A500000000B4
:10BDE00000000000000000000000000000002C63C4
:10BDF000FFFFFFFFFFFFFFFFFFFFFFFFFFFF000051
:10BE00000000000000000000000000000000000032
:10BE10000000000000000000000000000000000022
:10BE20000000000000000000000000000000000012
:10BE30000000000000000000000000000000000002
:10BE4000BAD6FFFFFFFFFFFFFFFFFFFFFFFFFFFF70
:10BE5000FFFFAA522421BEF7FFFFFFFFFFFFFFFFF6
:10BE6000FFFFFFFFFFFFFFFFBEF72421E739FFFFC2
:10BE7000E7390000000000002C63FFFFFFFFFFFF19
:10BE8000FFFFFFFFBAD60000000000002C63FFFF99
:10BE9000FFFFFFFFFFFFFFFFE7390000000000008A
:10BEA00000000000000014A559CE5DEFFFFFFFFF6A
:10BEB000FFFFFFFFFFFFFFFFFFFFFFFFBEF7242194
:10BEC0000000000000000000000000005DEFFFFF28
:10BED000FFFFFFFFFFFFFFFFFFFF14A500000000B3
:10BEE00000000000000000000000000000002C63C3
:10BEF000FFFFFFFFFFFFFFFFFFFFFFFFFFFF000050
:10BF00000000000000000000000000000000000031
:10BF10000000000000000000000000000000000021
:10BF20000000000000000000000000000000000011
:10BF30000000000000000000000000000000E739E1
:10BF4000FFFFFFFFFFFFFFFFFFFFFFFFFFFFFFFF01
:10BF5000BAD6000000003084FFFFFFFFFFFFFFFFA5
:10BF6000FFFFFFFFFFFFFFFF14A50000000059CEF9
:10BF700014A50000000000000000BAD6FFFFFFFF7C
:10BF8000FFFFFFFFBAD60000000000002C63FFFF98
:10BF9000FFFFFFFFFFFF96B500000000000000005C
:10BFA00000000000000024215DEFFFFFFFFFFFFF06
:10BFB000FFFFFFFFFFFFFFFFFFFFFFFF30840000D9
:10BFC000000000000000000000000000CF7BFFFF29
:10BFD000FFFFFFFFFFFFFFFFFFFF14A500000000B2
:10BFE0000000000000002421F7BD000000002C63C9
:10BFF000FFFFFFFFFFFFFFFFFFFFFFFFFFFF00004F
:10C000000000000000000000000000000000000030
:10C010000000000000000000000000000000000020
:10C020000000000000000000000000000000000010
:10C03000000000000000000000000000000096B5B5
:10C04000FFFFFFFFFFFFFFFFFFFFFFFFFFFFFFFF00
:10C0500030840000000000005DEFFFFFFFFFFFFFE6
:10C06000FFFFFFFFFFFF5DEF2421000000002C63B6
:10C07000BEF72421000000000000E739BEF7FFFFF3
:10C08000FFFFFFFFBAD60000000000002C63FFFF97
:10C09000FFFFFFFFFBDE2421000000000000000086
:10C0A0000000000000000000CF7BFFFFFFFFFFFF4C
:10C0B000FFFFFFFFFFFFFFFFFFFF5DEF000000003E
:10C0C0000000000000000000000000000000F7BDBC
:10C0D000FFFFFFFFFFFFFFFFFFFF14A500000000B1
:10C0E000000000000000F7BDBAD6000000002C637D
:10C0F000FFFFFFFFFFFFFFFFFFFFFFFFFFFF00004E
:10C10000000000000000000000000000000000002F
:10C11000000000000000000000000000000000001F
:10C12000000000000000000000000000000000000F
:10C130000000000000000000000000002421BEF705
:10C14000FFFFFFFFFFFFFFFFFFFFFFFFFFFFBEF748
:10C1500000000000000000002C63FFFFFFFFFFFF56
:10C16000FFFFFFFFFFFF3084000000000000000021
:10C170005DEF30840000000000000000AA525DEF77
:10C18000FFFFFFFF5DEF000000000000CF7BFFFF1F
:10C19000FFFFFBDE24210000000000000000000083
:10C1A00000000000000000000000BAD6FFFFFFFF03
:10C1B000FFFFFFFFFFFFFFFFFFFF2C6300000000FA
:10C1C000000000000000000000000000000000006F
:10C1D00096B5FFFFFFFFFFFFFFFF96B500000000D1
:10C1E00000002C63BAD6FBDE2421000000002C6383
:10C1F000FFFFFFFFFFFFFFFFFFFFFFFFFFFF00004D
:10C20000000000000000000000000000000000002E
:10C21000000000000000000000000000000000001E
:10C22000000000000000000000000000000000000E
:10C230000000000000000000000000003084FFFF4C
:10C24000FFFFFFFFFFFFFFFFFFFFFFFFFFFF14A543
:10C2500000000000000000000000BAD6FFFFFFFF52
:10C26000FFFFFFFF5DEF0000000000000000000086
:10C27000B2945DEF000000000000000000002421E7
:10C2800014A5BEF7FFFFBAD614A596B5BEF75DEFAD
:10C2900014A50000000000000000000000000000E5
:10C2A00000000000000000000000E739FFFFFFFF72
:10C2B000FFFFFFFFFFFFFFFFBAD6000000000000F6
:10C2C000000000000000000000000000000000006E
:10C2D00000002C63BAD6FFFFFFFFBEF796B514A58A
:10C2E000FBDE5DEF14A500000000CF7BBAD6FBDEBD
:10C2F000FFFFFFFFFFFFFFFFFFFFFFFFFFFFBAD6BC
:10C30000BAD6BAD6AA520000000000000000000011
:10C31000000000000000000000000000000000001D
:10C32000000000000000000000000000000000000D
:10C330000000000000000000000000005DEFFFFFB3
:10C34000FFFFFFFFFFFFFFFFFFFFFFFFFFFFE739DB
:10C35000000000000000000000002C63FFFFFFFF52
:10C36000FFFFFFFF2C630000000000000000000042
:10C370002421BEF73084000000000000000000000F
:10C38000000000002C6314A514A514A52C63000064
:10C39000000000000000000000000000000000009D
:10C3A00000000000000000000000000014A5FFFFD6
:10C3B000FFFFFFFFFFFFFFFFAA5200000000000089
:10C3C000000000000000000000000000000000006D
:10C3D000000000000000E739308414A514A5B294D1
:10C3E0002C630000000000000000E7392C63B294C9
:10C3F000FFFFFFFFFFFFFFFFFFFFFFFFFBDE2C63E1
:10C400002C632C63242100000000000000000000C9
:10C41000000000000000000000000000000000001C
:10C42000000000000000000000000000000000000C
:10C43000000000000000000000002C63FFFFFFFF71
:10C44000FFFFFFFFFFFFFFFFFFFFFFFF59CE0000D1
:10C45000000000000000000000000000F7BDFFFF2A
:10C46000FFFFBAD60000000000000000000000003E
:10C470000000F7BDBAD60000000000000000000078
:10C4800000000000000000000000000000000000AC
:10C49000000000000000000000000000000000009C
:10C4A0000000000000000000000000002421BEF792
:10C4B000FFFFFFFFFFFFF7BD0000000000000000CE
:10C4C000000000000000000000000000000000006C
:10C4D000000000000000000000000000000000005C
:10C4E00000000000000000000000000000002C63BD
:10C4F000FFFFFFFFFFFFFFFFFFFFFFFFFBDE00006F
:10C50000000000000000000000000000000000002B
:10C51000000000000000000000000000000000001B
:10C52000000000000000000000000000000000000B
:10C530000000000000000000000059CEFFFFFFFFD8
:10C54000FFFFFFFFFFFFFFFFFFFFFFFF3084000043
:10C55000000000000000000000000000E739FFFFBD
:10C56000FFFF2C630000000000000000000000003E
:10C570000000AA52FFFF2C63000000000000000032
:10C5800000000000000000000000000000000000AB
:10C59000000000000000000000000000000000009B
:10C5A00000000000000000000000000000003084D7
:10C5B000FFFFFFFFBEF72421000000000000000085
:10C5C000000000000000000000000000000000006B
:10C5D000000000000000000000000000000000005B
:10C5E000000000000000000000000000000000004B
:10C5F000AA52F7BDBEF7FFFFFFFFFFFFFFFF0000DE
:10C60000000000000000000000000000000000002A
:10C61000000000000000000000000000000000001A
:10C62000000000000000000000000000000000000A
:10C630000000000000000000E739FFFFFFFFFFFFE0
:10C64000FFFFFFFFFFFFFFFFFFFFBEF7000000003F
:10C65000000000000000000000000000000096B58F
:10C66000BAD600000000000000000000000000003A
:10C6700000000000FBDEF7BD00000000000000002D
:10C6800000000000000000000000000000000000AA
:10C69000000000000000000000000000000000009A
:10C6A000000000000000000000000000000000008A
:10C6B000BAD6FFFF14A50000000000000000000033
:10C6C000000000000000000000000000000000006A
:10C6D000000000000000000000000000000000005A
:10C6E000000000000000000000000000000000004A
:10C6F00000000000242114A5BEF7FFFFFFFF00008B
:10C700000000000000000000000000000000000029
:10C710000000000000000000000000000000000019
:10C720000000000000000000000000000000000009
:10C730000000000000000000E7392C632C632C632C
:10C740002C632C632C632C632C63AA520000000022
:10C750000000000000000000000000000000242194
:10C760002C6300000000000000000000000000003A
:10C7700000000000E739E739000000000000000079
:10C7800000000000000000000000000000000000A9
:10C790000000000000000000000000000000000099
:10C7A0000000000000000000000000000000000089
:10C7B0002C635DEF24210000000000000000000059
:10C7C0000000000000000000000000000000000069
:10C7D0000000000000000000000000000000000059
:10C7E0000000000000000000000000000000000049
:10C7F0000000000000000000242114A5BEF7000086
:10C800000000000000000000000000000000000028
:10C810000000000000000000000000000000000018
:10C820000000000000000000000000000000000008
:10C8300000000000000000000000000000000000F8
:10C8400000000000000000000000000000000000E8
:10C8500000000000000000000000000000000000D8
:10C8600000000000000000000000000000000000C8
:10C8700000000000000000000000000000000000B8
:10C8800000000000000000000000000000000000A8
:10C890000000000000000000000000000000000098
:10C8A0000000000000000000000000000000000088
:10C8B0000000E73900000000000000000000000058
:10C8C0000000000000000000000000000000000068
:10C8D0000000000000000000000000000000000058
:10C8E0000000000000000000000000000000000048
:10C8F000000000000000000000000000E739000018
:10C900000000000000000000000000000000000027
:10C910000000000000000000000000000000000017
:10C920000000000000000000000000000000000007
:10C9300000000000000000000000000000000000F7
:10E1500000F800F80000000000000000E007E00701
:10E16000E007E007E007E007E007E007E007E00777
:10E17000E007E007E007E007E007E007E007E00767
:10E1800000000000000000001F001F001F001F0013
:10E190001F001F001F001F001F001F001F001F0087
:10E1A0001F001F001F001F001F001F0000000000B5
:10E1B000000000000000000000000000000000005F
:10E1C000000000000000000000000000000000004F
:10E1D000000000000000000000000000000000003F
:10E1E000000000000000000000000000000000002F
:10E1F000000000000000000000000000000000001F
:10E20000000000000000000000000000000000000E
:10E2100000000000000000000000000000000000FE
:10E2200000000000000000000000000000000000EE
:10E2300000F800F800F800F800F800F800F800F81E
:10E2400000F800F800F800F800F800F800F800F80E
:10E2500000F800F80000000000000000E007E00700
:10E26000E007E007E007E007E007E007E007E00776
:10E27000E007E007E007E007E007E007E007E00766
:10E2800000000000000000001F001F001F001F0012
:10E290001F001F001F001F001F001F001F001F0086
:10E2A0001F001F001F001F001F001F0000000000B4
:10E2B000000000000000000000000000000000005E
:10E2C000000000000000000000000000000000004E
:10E2D000000000000000000000000000000000003E
:10E2E000000000000000000000000000000000002E
:10E2F000000000000000000000000000000000001E
:10E30000000000000000000000000000000000000D
:10E3100000000000000000000000000000000000FD
:10E3200000000000000000000000000000000000ED
:10E3300000F800F800F800F800F800F800F800F81D
:10E3400000F800F800F800F800F800F800F800F80D
:10E3500000F800F80000000000000000E007E007FF
:10E36000E007E007E007E007E007E007E007E00775
:10E37000E007E007E007E007E007E007E007E00765
:10E3800000000000000000001F001F001F001F0011
:10E390001F001F001F001F001F001F001F001F0085
:10E3A0001F001F001F001F001F001F0000000000B3
:10E3B000000000000000000000000000000000005D
:10E3C000000000000000000000000000000000004D
:10E3D000000000000000000000000000000000003D
:10E3E000000000000000000000000000000000002D
:10E3F000000000000000000000000000000000001D
:10E40000000000000000000000000000000000000C
:10E4100000000000000000000000000000000000FC
:10E4200000000000000000000000000000000000EC
:10E4300000F800F800F800F800F800F800F800F81C
:10E4400000F800F800F800F800F800F800F800F80C
:10E4500000F800F80000000000000000E007E007FE
:10E46000E007E007E007E007E007E007E007E00774
:10E47000E007E007E007E007E007E007E007E00764
:10E4800000000000000000001F001F001F001F0010
:10E490001F001F001F001F001F001F001F001F0084
:10E4A0001F001F001F001F001F001F0000000000B2
:10E4B000000000000000000000000000000000005C
:10E4C000000000000000000000000000000000004C
:10E4D000000000000000000000000000000000003C
:10E4E000000000000000000000000000000000002C
:10E4F000000000000000000000000000000000001C
:10E50000000000000000000000000000000000000B
:10E5100000000000000000000000000000000000FB
:10E5200000000000000000000000000000000000EB
:10E5300000F800F800F800F800F800F800F800F81B
:10E5400000F800F800F800F800F800F800F800F80B
:10E5500000F800F80000000000000000E007E007FD
:10E56000E007E007E007E007E007E007E007E00773
:10E57000E007E007E007E007E007E007E007E00763
:10E5800000000000000000001F001F001F001F000F
:10E590001F001F001F001F001F001F001F001F0083
:10E5A0001F001F001F001F001F001F0000000000B1
:10E5B000000000000000000000000000000000005B
:10E5C000000000000000000000000000000000004B
:10E5D000000000000000000000000000000000003B
:10E5E000000000000000000000000000000000002B
:10E5F000000000000000000000000000000000001B
:10E60000000000000000000000000000000000000A
:10E6100000000000000000000000000000000000FA
:10E6200000000000000000000000000000000000EA
:10E6300000F800F800F800F800F800F800F800F81A
:10E6400000F800F800F800F800F800F800F800F80A
:10E6500000F800F80000000000000000E007E007FC
:10E66000E007E007E007E007E007E007E007E00772
:10E67000E007E007E007E007E007E007E007E00762
:10E6800000000000000000001F001F001F001F000E
:10E690001F001F001F001F001F001F001F001F0082
:10E6A0001F001F001F001F001F001F0000000000B0
:10E6B000000000000000000000000000000000005A
:10E6C000000000000000000000000000000000004A
:10E6D000000000000000000000000000000000003A
:10E6E000000000000000000000000000000000002A
:10E6F000000000000000000000000000000000001A
:10E700000000000000000000000000000000000009
:10E7100000000000000000000000000000000000F9
:10E7200000000000000000000000000000000000E9
:10E7300000F800F800F800F800F800F800F800F819
:10E7400000F800F800F800F800F800F800F800F809
:10E7500000F800F80000000000000000E007E007FB
:10E76000E007E007E007E007E007E007E007E00771
:10E77000E007E007E007E007E007E007E007E00761
:10E7800000000000000000001F001F001F001F000D
:10E790001F001F001F001F001F001F001F001F0081
:10E7A0001F001F001F001F001F001F0000000000AF
:10E7B0000000000000000000000000000000000059
:10E7C0000000000000000000000000000000000049
:10E7D0000000000000000000000000000000000039
:10E7E0000000000000000000000000000000000029
:10ED20000000000000000000000000000030313250
:10ED300033343536373839414243444546403058FC
:10ED400000303132333435363738396162636465C7
:10ED50006640307800040000080000000000000059
:10ED6000020001000010000088ED000800000020F3
:10ED7000A4000000D00100082CEE0008A400002030
:10ED80006C0C0000EC010008010000001000000005
:10ED9000000000000024F400FFFF0000000000005D
:10EDA000BD3700080000000000000000E538000842
:10EDB000F5370008A13800085D380008B9370008A9
:10EDC0007F2C00083528000831310008B5280008DC
:10EDD00039280008FB310008D52B0008E53300086E
:10EDE000DD2B00080132000831290008112B000832
:10EDF0006D2A0008C92A0008992B0008ED2B00088D
:10EE000085340008452C0008552C000840000000FF
:10EE1000C000000080000000000000002000000092
:0CEE200060000000E0000000A000000006
:040000050800019559
:00000001FF
