:020000040800F2
:10000000F8BF012019010208931F0508811F050888
:10001000951F0508A11F0508AD1F05080000000079
:10002000000000000000000000000000B91F0508EB
:10003000BB1F0508000000000530050861300508F9
:1000400001000208A9200508B5200508BD20050803
:10005000A18A0508010002083D2005084320050883
:10006000492005084F20050855200508F9510508C5
:100070000952050819520508295205083952050880
:100080004952050859520508010002080000000005
:100090000000000000000000000000005B200508D8
:1000A000D1200508D7200508E9200508EF2005081C
:1000B000F5200508FB200508012105083321050866
:1000C000392105083F2105084521050801000208DE
:1000D0000100020821210508272105080000000071
:1000E0007F200508AF200508C91F05080000000093
:1000F0000000000000000000000000006952050838
:1001000000000000010002080921050801000208A2
:1001100000000000000000000000000000000000DF
:10012000795205088952050899520508A95205080F
:10013000B9520508000000000000000000000000A7
:10014000000000000000000000000000BD1F0508C6
:10015000C9520508D9520508E95205082D2105089C
:100160004B21050851210508000000000000000097
:10017000000000000000000000000000000000007F
:100180000000000001000208000000000000000064
:10019000010002080100020842884378007843EA1F
:1001A000022340EA032070470B0A017043700B0CD6
:1001B000090E8370C1707047036A0239023B8B429B
:1001C00083BFC389406B01FB0300002070470246D8
:1001D00000F10B010020C30143EA500312F8010BA8
:1001E00050FA83F38A42D8B2F5D1704737B50D463D
:1001F000044620B9092000232B6003B030BD0368FA
:10020000002BF7D05A79002AF4D081885A8991427C
:10021000F0D10DF107020621186802F0F5FA002866
:10022000E8D19DF8070010F00100E3D12368E3E76F
:1002300038B50368044618785D1C20B140F2B5114A
:1002400042F0E6FC08B1256038BD4FF0FF30FBE717
:10025000CA7E8B7E032843EA022301BF487D0A7DC4
:1002600042EA002243EA024318467047C2F30723DA
:100270008A76CB760378032B01BF120C0A75120A1B
:100280004A75704770B5C37904460BB9002070BD3C
:1002900000F13C06826B00680123314602F09FFAB0
:1002A00080B9A16BE36A626AE071CB1A9342EDD226
:1002B000A379022BEAD10A4401233146206802F0D7
:1002C0008EFAE3E70120E2E7836B8B4270B50646C6
:1002D0000D4612D0FFF7D6FF044660B92A46012327
:1002E00006F13C01306802F06BFA00281CBF4FF0A9
:1002F000FF350124B563204670BD0024FBE70000F4
:10030000002310B5C3714FF0FF3383630446FFF73A
:10031000DBFF18BB94F83B2294F83A3243EA0223FD
:100320004AF6552293421BD194F83C30EB2B03D074
:100330001833DBB2012B15D803220B4904F17200EC
:1003400049F094F848B10522084904F18E0049F0BB
:100350008DF8002814BF0220002010BD0420FCE707
:100360000320FAE70220F8E70B8006080F80060852
:100370002DE9F043437987B0044601F0FE059BB1B7
:1003800006210DF10702006802F03EFA9DF8070011
:10039000C10709D4002D00F0BC8010F0040000D08B
:1003A0000A2007B0BDE8F083002363710DF1070256
:1003B0000521206802F028FA9DF80730DA0700F1DD
:1003C000AA800DB15B07EBD400212046FFF798FF10
:1003D0000228034603D0012824D8257975B304F2F6
:1003E0000225002102AF15F8040C10B12846FFF7D2
:1003F000D3FE47F821000131042905F11005F2D19F
:10040000267906B1013E57F826507DB1294620468F
:10041000FFF776FF0346227952B9012B0ED9013638
:10042000032EF0D9042B07D10120BAE70323F2E70A
:10043000042BF9D0012B01D90D20B2E794F8482004
:1004400094F8473043EA0223B3F5007FF4D194F8DF
:10045000533094F8526056EA032604D104F1600048
:10046000FFF79AFE064694F84C90666209F1FF3356
:10047000012B84F80690DFD894F84970BBB2E38171
:10048000002BD9D07B1E3B42D6D194F84E3094F845
:100490004D8048EA032818F00F0FA4F80C80CBD148
:1004A00094F8501094F84F0050EA012003D104F161
:1004B0005C00FFF771FE94F84B2094F84A3053EA41
:1004C0000223B9D006FB09F903EB18124A44824211
:1004D000B2D8811AB1FBF7F10029ADD0454881426D
:1004E000AAD84FF6F570814217D903271BE0B8F15F
:1004F000000FA1D0022F4FEA410018BF40184B4413
:1005000018BF01F0010123630CBF014601EB50014C
:1005100024E0284645E7032043E740F6F577B94253
:1005200094BF0127022702312B442A44032F216262
:10053000A562E3626263DAD194F8672094F86630CA
:1005400053EA02237FF478AFB8F1000F7FF474AF61
:1005500004F16800FFF720FE2063890001F2FF111B
:10056000B6EB512FFFF468AF4FF0FF33C4E905330A
:10057000032F4FF0800323722FD194F86D2094F84D
:100580006C3043EA0223012B27D1691C2046FFF778
:100590009BFE10BB94F83B2294F83A32207243EA57
:1005A00002234AF65522934217D104F13C00FFF78B
:1005B000F3FD114B984210D104F50870FFF7ECFDE4
:1005C0000E4B984209D104F50970FFF7E5FDA061D3
:1005D00004F50A70FFF7E0FD6061094A677113884E
:1005E00001339BB2138063810020064B2361E061DD
:1005F000D7E600BFF5FFFF0F5252614172724161B1
:10060000540000205600002001292DE9F04705463E
:100610000C46174672D9036A8B426FD94379022B75
:100620003FD0032B50D0012B68D101EB5108C16A98
:1006300001EB5821FFF748FE064638BB05F13C099F
:1006400008F1010AC8F3080814F001041FBF19F8E3
:10065000083003F00F023B0103F0F00314BF134313
:10066000FBB209F80830E96A0123EB7101EB5A216A
:100670002846FFF729FE064640B9CAF3080A44B1E6
:10068000C7F3071709F80A700123EB713046BDE87C
:10069000F08719F80A30C7F3032723F00F031F432D
:1006A000F0E7C16A01EB1421FFF70EFE06460028B1
:1006B000ECD1640005F13C0304F4FF741A191F55D2
:1006C000C7F307275770DFE7C16A01EBD411FFF7C3
:1006D000FBFD06460028D9D1A40005F13C0304F433
:1006E000FE741C442046FFF757FD27F0704700F0CA
:1006F000704139432046FFF757FDC5E70226C5E79D
:100700000129F8B505460C4652D9036A99424FD2E1
:100710004379022B29D0032B38D0012B48D101EB90
:100720005106C16A01EB5621FFF7CEFD10B14FF023
:10073000FF30F8BD771CE96AC6F308062E4401EBCA
:100740005721284696F83C60FFF7BEFD0028EED101
:10075000C7F308073D44E30795F83C0046EA00204C
:100760004CBF0009C0F30B00E3E7C16A01EB1421A1
:10077000FFF7AAFD0028DAD164003C3504F4FF74C9
:100780002B19285D5B7840EA0320D2E7C16A01EBB0
:10079000D411FFF799FD0028C9D1A40005F13C0050
:1007A00004F4FE742044FFF7F7FC20F07040C0E72B
:1007B0000120BEE7B1F5001FF8B506460D4601D38E
:1007C0000220F8BDCA06FBD1826804683161C2B953
:1007D0006379022B01D9236BA3B9A389B3EB551F0E
:1007E000EED9236BB361B3697261002BE8D003EBE0
:1007F00055233C34C5F308052C44B361F461002053
:10080000DFE71346E7891A467F02BD42114604D24C
:100810002046FFF7D1FCB061E5E73068FFF770FFD5
:10082000431C024606D00128CAD9236A8342C7D98D
:10083000ED1BEAE70120C4E72DE9F0418046056899
:100840000F4649B96E69CEB12B6AB34298BF0126F3
:10085000AB69ABB9002409E02846FFF751FF012836
:10086000044658D9421C04D14FF0FF342046BDE85D
:10087000F0812B6A8342F9D83E46E9E70126E7E793
:10088000BE4215D12B6AD8F80000741C9C4228BFC8
:1008900002242146FFF734FF01283CD0431CE3D05B
:1008A000D8B16B69012B03D92A6A934238BF1E461F
:1008B00034462B6A0134A34202D8012ECAD902243D
:1008C0002146D8F80000FFF71BFF40B1012822D0D5
:1008D0000130C9D0B442ECD1BCE7002CE8D04FF0D5
:1008E000FF3221462846FFF78FFE90B957B92A6A92
:1008F000AB696C61023A93420FD92B7A43F0010342
:100900002B72B3E7224639462846FFF77DFE0028C2
:10091000EDD00128A8D00124A8E7013BAB61ECE7AA
:10092000F8B50D46012D074611462CD90468236AF7
:10093000AB4228D92AB14FF0FF322046FFF764FEC0
:1009400030B929463868FFF7DBFE064608B90020B3
:10095000F8BD012817D0431C17D000222946204695
:10096000FFF752FE0028F3D1226AA369911E8B4241
:1009700005D20133A361237A43F001032372B2420B
:100980003546DED8E3E70220E2E70120E0E7F8B5EC
:1009900005460E46FFF776FC0446F8B93146284670
:1009A000FFF70AFC05F13C060746A8634FF4007206
:1009B0002146304648F046FDEB899C4204D3E88945
:1009C000001B18BF0120F8BD01233A1931462868E1
:1009D00001F005FF0028F2D10134EDE70120F2E734
:1009E0002DE9F843076905682037B7F5001F24BFD4
:1009F0000023836183690446894673B1C7F30808FD
:100A0000B8F1000F39D141690133836139B9AB893C
:100A1000B3EB571F31D80023A36104200BE0EB890F
:100A2000013B13EA572328D12846FFF769FE012826
:100A3000064602D80220BDE8F883421C01D10120FD
:100A4000F9E72B6A834212D8B9F1000FE3D061694C
:100A50002046FFF7F1FE0646A8B10128EAD0431C64
:100A6000EDD001462846FFF792FF0028E7D16661E6
:100A700031462846FFF7A0FBA0613C35454427617D
:100A8000E5610020D7E70720D5E7F8B50F4600213C
:100A900004460668FFF78EFEA8B90546A1693046F0
:100AA000FFF712FC78B9E3691B78E52B00D01BB97E
:100AB0000135BD4201D1F8BD054601212046FFF7B1
:100AC0008FFF0028EAD0042808BF0720F3E70000C2
:100AD0002DE9F84FFF250668DFF8248182460F468E
:100AE0002C464FF0040B4FF6FF79DAF8181019B9BD
:100AF000BBF1000F76D065E03046FFF7E5FB83469B
:100B000000285FD1DAF81C000278002A74D0C37A7A
:100B1000E52A03F03F038AF8063059D02E2A57D031
:100B200023F02001A1F1080CDCF1000141EB0C01E4
:100B3000B9424DD10F2B50D1510647D5DAF81030BC
:100B4000457BCAF82C3002F0BF02437BAB423FD159
:100B5000C17E837E43EA01231BB2002B38D101788A
:100B6000D6F810C021F0400101390D2461434FF047
:100B7000010E13F8084000EB040B045D9BF801B074
:100B800044EA0B24BEF1000F24D0FF2920D82CF812
:100B90001140A646013101330D2BEAD103785B06E3
:100BA00007D5BEF1000F04D0FF2911D800232CF87F
:100BB0001130541EE4B200215046FFF711FF834666
:100BC000002892D00023CAF818300DE09442BCD01F
:100BD000FF24F0E74C45DED0FAE744B9FFF7F7FA17
:100BE000A84204D14FF0000B5846BDE8F88F4FF0F3
:100BF000FF33CAF82C30F7E74FF0040BE2E700BFF1
:100C0000EC7F0608C16A4B1C2DE9F04104460568DB
:100C1000066918D1E5274FF00108A1692846FFF7BA
:100C200053FB60B9E3691F7085F807802369B342FD
:100C30000DD201462046FFF7D3FE0028EDD0042850
:100C400008BF022003E0FFF7B5FD0028E2D0BDE8B1
:100C5000F08100002DE9F04F002185B00446D0F866
:100C600000A0FFF7A7FD8046002840F093804FF0DA
:100C7000FF334FF0FF09E3624E46A1695046FFF78C
:100C800023FB8046002840F08580E5692F78002FFF
:100C900000F08480EA7AE52F02F03F03A37103D0CD
:100CA000120705D50F2B05D04FF0FF33E36258E054
:100CB0000F2B5DD194F82B30580648D479064ED5C9
:100CC000236995F80D90E36207F0BF076B7B4B45F6
:100CD00047D1EB7EAE7E46EA032636B2002E40D1E7
:100CE00095F80080DAF810B008F03F0808F1FF33FB
:100CF0004FF00D0808FB03F801212A4BF25CAB18FA
:100D00005878AB5C43EA002369B3B8F1FF0F28D8E9
:100D10001846039341F090FF08F1010202903BF85E
:100D20001800019241F088FF0299814219D1039B7A
:100D3000019A1946904601360D2EDED12B785A06BF
:100D400003D511B13BF818305BB9013FFEB2002169
:100D50002046FFF745FE804600288ED01AE0BE42AE
:100D6000B4D0FF26F3E74FF6FF729342E3D0F8E7E3
:100D700026B92846FFF72BFA48450BD094F82B30BC
:100D8000DB0791D40B2204F12001284648F06EFBCA
:100D9000002889D1404605B0BDE8F08F4FF0040827
:100DA000F8E700BFEC7F06082DE9F04F90F82BB074
:100DB0001BF0A00489B0054640F0828007683A69BC
:100DC00032F81430002B63D105F1200696E80700B5
:100DD0000DF114091BF0010F89E8070077D04023BB
:100DE00085F82B304FF0010899E80700B4463B69BD
:100DF000ACE803002CF8022BB8F1050F4FEA1242C1
:100E00008CF8002058D9981E424630F8021F00295D
:100E100040D1072102F00F0C0CF13000392801F10C
:100E2000FF3103AB88BF0CF1370003EB010C120953
:100E30008CF80100EED108AB58184FF07E0C00F88A
:100E400014CC8A4204D0B05C202802F1010C35D1C8
:100E5000324407299BBF08AB5818202010F8140C07
:100E600002F8010BA2EB060098BF01310728F0D968
:100E70002846FFF7EFFE824628BB08F10108B8F1CB
:100E8000640FB1D14FF0070A504609B0BDE8F08FAA
:100E9000013495E74FF0100C01F0010E0EEB420209
:100EA000D30344BF82F4883282F02102BCF1010CEA
:100EB0004FEA5101F0D1A8E74246AAE76246C0E7EF
:100EC0004FF0060AE0E70428DED185F82BB01BF0CE
:100ED000020F1BBF0C340D230124B4FBF3F418BF25
:100EE000013421462846FFF7D0FD82460028CBD1A9
:100EF000013C56D029692846A1EB4411FFF75AFC62
:100F000082460028C0D13046FFF761F94FF6FF79DD
:100F10008046A9693846FFF7D7F982460028B3D141
:100F2000EB69D7F810E083F80D800F22E1B24FF0A3
:100F30000D0CDA724A1E0CFB02F218739876D87602
:100F40000192844648451FBF019A3EF812000132C3
:100F50000192234A1CF802A00CF1010C03EB0A0BCE
:100F600003F80A004FEA102A002808BF4846BCF1DF
:100F70000D0F8BF801A0E5D1484503D0019A3EF84A
:100F800012200AB941F0400119700123FB710021C0
:100F90002846FFF725FD824600287FF475AF013C07
:100FA000B7D1A9693846FFF78FF9824600287FF448
:100FB0006BAF01462022E86948F044FA03CEEB69A2
:100FC00018605960B278318819819A7295F82B307F
:100FD000EA6903F0180313730123FB7154E700BFA0
:100FE000EC7F0608F8B50446FFF74CF905460028E3
:100FF00042D16379032B37D1277A012F34D104F101
:101000003C0601464FF40072304648F01BFA552367
:1010100084F83A32AA2384F83B32522341227221C7
:1010200084F83C3084F83D30612384F83E3084F805
:101030003F2084F8222284F8233284F8201284F896
:10104000211204F50970A169FFF7AEF8616904F592
:101050000A70FFF7A9F8A26A20680132A2633B4632
:10106000314601F0BCFB257200221146206801F0D8
:10107000CBFB003018BF0120F8BD2DE9F047002759
:10108000D0F800908F75836906460C46002B00F05F
:101090009680C36A013370D1F0690023451E19465A
:1010A0002E2715F8012F202A01F1010110D0052A61
:1010B00008BFE522092906D10B2B9EBF04EB030CC8
:1010C00001338CF8097004EB030C01338CF8092010
:1010D0000B29E6D1E21800215172A27D002A5CD1D1
:1010E000002B51D004F109010825134611F8012BFA
:1010F000002A4CD092B22E2AA2F1410708BF102537
:10110000192F03D8077B3D4218BF20320A730133E1
:10111000ECE7B8F1000F05D100F520539BB2B3F511
:10112000006F13D340F2B51140EA084041F050FD82
:10113000FF28C5F1FF0A18D9BAF1010F20D96319A8
:10114000020A9A75D87502231D4400200237804692
:10115000D9F81030D85B0028DBD1B8F1000F18BFE8
:10116000002525440023AB7596E748B1BAF1000F7E
:1011700008D0631998750123E6E7B8463D46E7E7CE
:101180000025EAE75546E8E73F23A37501232344FA
:1011900000229A75037B03B96372F169CB7A2372DB
:1011A00001F11C00FEF7F8FF2060CA7D8B7D43EA49
:1011B0000223E3804A7E0B7E43EA0223A380BDE83C
:1011C000F08700002DE9F04F87B0036801930B789A
:1011D0002F2B0646884601D05C2B0AD14246137855
:1011E0002F2B904602F10102F9D05C2BF7D000239F
:1011F00001E0019BDB69B36098F800301F2B00F21F
:101200002981802386F82B3000213046FFF7D2FA5F
:1012100007B0BDE8F08FFE2D00F244812AF81530AA
:1012200001351DE108F101030593DDF8148098F8FC
:1012300000302F2BF6D05C2BF4D00024012D2CD1C4
:10124000BAF800302E2B2ED100232AF8153006F1E3
:1012500020029D4294BF20212E2101330B2B02F846
:10126000011BF6D144F0200486F82B403046FFF7EE
:10127000F1FC96F82B30002800F0DA800428C7D162
:10128000990603F0040240F1CF80002A00F0E280CA
:10129000802386F82B300020BAE7022D03D1BAF85C
:1012A00002302E2BCCD00AEB45039DBB00230AEB6A
:1012B00045022AF81530002D00F0F4803AF813109A
:1012C000202903F101002DD00BB92E2902D144F0C1
:1012D0000304E4B232F8021D2E2901D0013DF9D1F8
:1012E0004FF020314FF0000971623162C6F82710CB
:1012F0004FF0080B4F463AF813005A1C20B3202831
:1013000003D02E2810D1954212D044F00304E4B249
:101310001346F0E733F8022D202A01D02E2AC5D13A
:10132000013DC2E70346C9E7D94505D295423ED102
:10133000BBF10B0F33D102E0BBF10B0F29D144F00D
:101340000304E4B24FF00B0B96F82030E52B04BFFA
:10135000052386F82030BBF1080F04BFBF00FFB2A1
:1013600007F00C030C2B03D007F00303032B02D16F
:1013700044F00204E4B2A3073FF576AFFD0744BF93
:1013800044F01004E4B2780744BF44F00804E4B227
:101390006AE7954203D044F00304E4B2D4D3BF001B
:1013A000FFB22A464FF00B0B4FF00809B0E77F2839
:1013B00038D944F00203DBB240F2B5110392029334
:1013C00041F006FC10F0800FDDE9023210D000F091
:1013D0007F004149085C30B1404C14F8011F0029DE
:1013E00068D08142F9D143F00303DBB25F2011E002
:1013F000FF28F0D90BF1FF31894504D344F00304F1
:10140000E4B2D94684E706EB0901040A81F82040DA
:1014100009F1010906EB09011C4681F8200009F1D8
:10142000010975E72346D7E7002A08BF0520EFE644
:101430005A073FF5EDAEB379DB0635D5019B03F1D5
:101440003C013369C3F308031944019B5879FEF743
:10145000FFFEB0603368CDF81480D3F810A00025EB
:1014600005A8FEF7E5FE421C1CD0B0F5803F24BF66
:10147000030C2AF8153083B228BF01351F2B15D96C
:101480002F2B3FF4D2AE5C2B3FF4CFAE7F2B3FF639
:10149000C2AE1349184611F8012F002A3FF4BBAE23
:1014A0009042F8D10620B3E60520B1E6DDF81480BD
:1014B0000424C3E6A0F1410189B2192901D847F0FB
:1014C0000207A0F1610189B219299EBF203847F0B7
:1014D000010780B29EE700BF6C7F06086E80060899
:1014E0006580060800214171FEF742BF2DE9F047F3
:1014F00005468CB091461F460C46002900F0BF807F
:1015000003F03F063146FEF733FF002840F0AF807E
:101510000DF13008494648F8305D4046FFF752FE6D
:10152000024620B99DF92B30002BB8BF062217F0D8
:101530001C0F49D0002A3ED0042A39D14046FFF77B
:1015400033FC0246A0BB46F00806310746D5DDF85D
:101550001CA0A946514619F8050FFEF779FE07466B
:1015600057F034FC01460AF10E00FEF71DFE079B02
:101570002022DA72079900224846FEF777FE079B81
:1015800000221A775A779A77DA770123EB712FB313
:1015900039464046D5F83890FFF7C2F9024638B9C7
:1015A00049462846FEF790FE013F6F610246A8B10A
:1015B0000023236032E09DF8063013F0110F5AD15A
:1015C0007807C2D50822F3E7002AF1D19DF806304A
:1015D000DA064ED4BF0701D5D8074CD4AB6B079FB2
:1015E0002362676268793107394648BF46F0400692
:1015F000FEF72EFE0146A06007F11C00FEF7CCFDB1
:101600006B89A380B2064FF000030746E0602560B7
:1016100026746374E361636104D4002210460CB045
:10162000BDE8F0870028F8D0EE8960617602BE42FE
:101630000FD30022A161002ABAD1C7F30803002BFF
:10164000EBD02846FEF7B8FDB8B100EB5720E061BB
:10165000E4E72068FFF754F801280146A7EB0607E6
:1016600003D9431CE3D10122E4E70222E2E7024668
:101670009EE704229CE707229AE7022298E70922C4
:10168000CCE72DE9F04F994685B000238846C9F88C
:10169000003003A904461546FEF7A8FD0646E0B94A
:1016A000667CD6B9237CDA0779D5E3686769DF1BE6
:1016B000AF4228BF2F4687B16269C2F30803002BEF
:1016C00054D1039BDB89013B13EA522A13D142B95F
:1016D000A06801280AD802266674304605B0BDE825
:1016E000F08FA1692068FFF70BF8F2E7431C01D1E6
:1016F0000126F1E7A061DDF80CB0A1695846FEF7BC
:101700005BFD0028E7D00AEB00037D0A01932BD094
:10171000BBF80E20DBF800000AEB0501914288BF00
:10172000A2EB0A052B46019A414601F049F8002830
:10173000DED10399CB795BB1886B019BC01AA842BB
:1017400006D24FF400723C3108EB402047F036FEE1
:101750006D02D9F800302B44C9F8003063697F1B53
:10176000A8441D446561A6E7019BE3616569E169E1
:101770000398C5F30805C5F50075BD4228BF3D4671
:10178000FEF7A2FD0028B3D1039963693C31C3F38E
:1017900008032A461944404647F010FED9E70726B9
:1017A0009BE72DE9F04F9B4685B000238946CBF897
:1017B000003003A904461746FEF718FD064610BB85
:1017C000667C06BB237C9A0740F1A7806369FB42D5
:1017D00000D3DF439FB16369C3F30802002A7FD1BE
:1017E000039AD289013A12EA532201921ED173B9A7
:1017F000A06870B901462046FFF71EF848B9237C5F
:1018000043F040032374304605B0BDE8F08FA16972
:10181000F1E7012802D102266674F4E7431C01D1E6
:101820000126F9E7A368A06103B9A0600398E36902
:10183000826B9A4203D1FEF725FD0028F0D1DDF836
:101840000CA0A1695046FEF7B7FC0028E3D0019B2D
:101850007D0A03EB000835D0019ABAF80E30DAF8A9
:1018600000002A449A4284BF019A9D1A2B464246A0
:10187000494600F0B4FF0028D2D1DDF80CA0DAF818
:101880003810A1EB0801A9420BD201904FF400726D
:1018900009EB41210AF13C0047F090FD019B8AF8D9
:1018A00007306D02DBF800302B44CBF80030636961
:1018B0007F1BA9441D44E3686561AB422CBFE36014
:1018C000E56087E76269E3689A4207D35046FEF70E
:1018D000D9FC0028A4D1039BC3F83880C4F81C802D
:1018E0006569E1690398C5F30805C5F50075BD4252
:1018F00028BF3D46FEF7E8FC002891D103986369B4
:101900003C30C3F308032A461844494647F056FDC5
:10191000039B4FF00102DA71C4E7072673E7F7B5BE
:1019200001A90446FEF762FC054660BB237C5B060A
:1019300029D557F04BFA216A07460198FEF7C4FCF7
:10194000054600BB666AF37A43F02003F372206811
:10195000A26831460530FEF789FCE16806F11C00FB
:10196000FEF722FC394606F11600FEF71DFC019831
:10197000B5740123F574C371FFF734FB237C23F0A6
:10198000400305462374284603B0F0BD13B5044652
:10199000FFF7C5FF28B901A92046FEF727FC00B9CB
:1019A000206002B010BD70B50E468CB00021054617
:1019B000FEF7DEFC044668B90CA8314640F8305DFD
:1019C000FFF700FC044690B99DF92B30002B04DA98
:1019D000029BEB6120460CB070BD9DF80630DB0623
:1019E00009D507996879FEF733FCE861F2E7042826
:1019F00008BF0524EEE70524ECE72DE9F0470E4685
:101A00000021D2B0317080469146FEF7B1FC074606
:101A1000D0B9D8F81C30CDF8008002934D46DDF8DF
:101A200008A0BAF1000F15D14D4502D1013D2F2379
:101A300073557119334611F8012B03F8012B9A1BCA
:101A40002A449145F7D81E4600233846337052B0D9
:101A5000BDE8F08720216846FEF7ACFE00284BD198
:101A600006994046FEF730FC0446002842D107990B
:101A700098F80500FEF7ECFB214602906846FEF759
:101A800099FE002838D100216846FFF721F8044666
:101A900068B9079998F80500FEF7DAFB50450BD0B6
:101AA00021466846FEF79CFF04460028EBD0042C34
:101AB00014BF27460227C7E70CA96846FFF7DDFADF
:101AC0000CAA2244631C927D62B99D4216D32A1B44
:101AD0002346324443B96B1E1B1B2F22E44325448B
:101AE000F2549CE71C46EBE7013B0CA91944897DA5
:101AF000D154EFE70746A7E70746A5E71127A3E775
:101B0000F7B50D4601A90446FEF770FB064600280E
:101B10003FD1667C002E3CD1E368AB4204D2227CEC
:101B200012F0020F08BF1D460022636962610DB901
:101B300028461CE0019AD7897F0203B3013B6A1E45
:101B4000B3FBF7F1B2FBF7F28A4218D37A421340A3
:101B5000A1696361ED1A002940D10020E36865693D
:101B60009D4281BF237CE56043F040032374C5F3AD
:101B7000080575B1E36983420BD0E06109E0A16813
:101B800079B92046FEF758FE0128014604D1022605
:101B90006674304603B0F0BD013001D10126F7E78D
:101BA000A160A161D7E73B446361237C9A07A5EB61
:101BB000070506D52046FEF73FFE014628B9054633
:101BC0000FE02068FEF79CFD01464B1CE6D0012982
:101BD000DDD9019B1B6A8B42D9D9A161BD426369E2
:101BE000E1D863692B446361C5F30803002BB4D0CB
:101BF0000198FEF7E1FA0028C9D000EB5520ADE7C7
:101C000070B5054616460C4621B30021FEF7B0FB21
:101C100068B9256031462046FFF7D4FAE0B994F957
:101C20002B30002B0BDBA379DB0603D4052000232C
:101C300023600EE06879E169FEF70AFBA0606B891A
:101C4000A38000212046FEF7B5FD0428EED0002831
:101C5000EDD170BD0920FCE70428E7D0E7E713B514
:101C600001A90446FEF7C2FA00B9206002B010BD17
:101C700073B50D4601A90446FEF7B8FA20B901462E
:101C800020461DB9FEF796FD02B070BDFEF720FF9D
:101C900010F0FB06F8D129462046FFF7EEF9314651
:101CA0002046FEF79DFE042808BF0020ECE770B533
:101CB0000E468CB0002104461546FEF759FB0094F1
:101CC000044670B931466846FFF77CFA044640B9CD
:101CD0009DF92B30002B07DB1DB129466846FFF725
:101CE000CCF920460CB070BD0624FAE72DE9F84F78
:101CF000884600210446FEF73BFB074640B9D4F86E
:101D000020A0A369AAF10202934204D8C8F80030C7
:101D10003846BDE8F88F6379012B17D102260546B6
:101D200031462046FEF7ECFC431C37D0012837D063
:101D300000B90135236A0136B342F1D8C8F8005022
:101D4000237AA56143F001032372E1E7E16A0646C5
:101D5000054604F13C0936B9204601F1010BFEF7B6
:101D6000B3FAF8B959466379022B09EB06000DD195
:101D700019F80630427853EA022308BF01350236CB
:101D8000BAF1010AC6F30806E5D1D7E7FEF704FA6F
:101D900030F0704308BF01350436F1E70127CDE785
:101DA0000227CBE70746C9E72DE9F0410F4698B077
:101DB00002210646FEF7DCFA0446A0B918AD394602
:101DC00045F8606D2846FFF7FDF9044658B99DF8BF
:101DD0002B309A063ED41B063CD49DF8068018F0A2
:101DE000010F04D00724204618B0BDE8F081079900
:101DF0007079FEF72DFA18F0100F07460BD1284620
:101E0000FEF700FF04460028EDD1D7B93046FFF7B2
:101E1000E9F80446E7E7F3698342E3D00E902146F0
:101E20000CA80C96FEF7C6FC04460028DBD1014640
:101E30000CA8FEF74DFE04460028D3D00428D2D1CA
:101E4000DDE7024639462846FEF76AFD04460028CB
:101E5000DCD0C8E70624C6E72DE9F04F0E4691B066
:101E600002210546FEF784FA0446002871D10DF1DF
:101E70004008314648F8305D4046FFF7A3F9044674
:101E8000002874D0042864D19DF83B1011F0200183
:101E90006FD110AF47F8405D3846FEF7CDFC0646DF
:101EA00000285AD001285AD0431C5C425C4156F0AD
:101EB0008DFF8246002C54D131462846FEF767FD3F
:101EC000044600284DD14FF02033EB632B64C5F856
:101ED00043302E2385F83C30102385F84730514697
:101EE00005F1520005F13C0405F10509FEF75CF926
:101EF000324621464846FEF7B9F905F15C031A4619
:101F000051F8040B42F8040B9942F9D12E2385F8BD
:101F10005D30069A48464FF0010BFEF7A7F985F8A9
:101F200007B04046FEF740FF0446D0B90B98514633
:101F30001630FEF739F932460B994846FEF796F906
:101F40000B9B1022DA72284685F807B0FFF74AF893
:101F50000446204611B0BDE8F08F0724A7E702240D
:101F6000A5E7002231463846FEF7DAFCF1E70824FF
:101F7000EFE70624EDE72DE9F0410C46A0B0022181
:101F800006469046FEF7F4F9002879D120AF2146A5
:101F900047F8606D3846FFF715F9002870D19DF8B5
:101FA0004B3013F0A00F6ED10F9B6C4603F1200550
:101FB00018685968224603C20833AB421446F7D169
:101FC0003D460FCD14AC0FC40FCD0FC495E80F00E4
:101FD00084E80F00414614A8FFF7F4F848B9169AB0
:101FE0000A9B9A4203D1189A0C9B9A4203D008206C
:101FF00046E0042844D114A8FEF7D6FE00283FD1BD
:102000001B990DF10D0301F10D020DF11D0053F8A7
:10201000044B42F8044B8342F9D1188810809B7816
:1020200093709DF80B30DA0658BF43F0200301246B
:10203000CB72F471CB7ADB061BD50A9A169B9A42B7
:1020400017D07079FEF704F901463046FEF7B4F870
:102050000146D0B13046FEF737F988B996F85D30C1
:102060002E2B06D1169A06F15C01701DFEF7FEF8C4
:10207000F4713846FEF7C6FD10B93046FEF7B2FFE0
:1020800020B0BDE8F0810620FAE70220F8E7000062
:10209000F0B595B0074601910221FEF769F90546B2
:1020A000002833D102AE4FF0203302930446736010
:1020B000C6F80730019B1B781F2B20D89DF80830ED
:1020C000E52B22D01CB1631EF25C202A30D0002107
:1020D00008A808970A91FEF76DFB0546B0B90121E3
:1020E00008A8FEF7F5FC70BB0F9A1CB3334603CB70
:1020F0001060516019889B78937211811CE001A8CF
:10210000FEF796F8B0F5803F03D30625284615B0B4
:10211000F0BD40F091FD40F2B51140F059FD0028AE
:10212000F3D01D4A12F8013F83B39842FAD1ECE78D
:102130001C46C7E7E52313700123FB713846FEF701
:1021400051FF0546E2E70428FBD1002CDED0012137
:1021500008A8FEF79AFC05460028D7D120220146A0
:102160000F9847F06FF90F9B0822DA720F9ABDE7BC
:10217000092CCAD814AB2344020A03F8482C0134B2
:1021800014AB2344013403F8480C93E7FF28EFD83D
:102190000A2CF5D9B9E700BFF87F06082DE9F04F02
:1021A00006688BB01C4600234371039103790293A8
:1021B000154605210DF11F02304600F025FB9DF864
:1021C0001F30DF0700F18782580700F1868208AAD6
:1021D0000321304600F018FB30B9089A531EB3F5BE
:1021E000004F01D21A4201D00123089345B15D4B43
:1021F000A5F500729A4203D913200BB0BDE8F08F09
:102200006A1E2A40F8D1149B5B0A0593002C00F04B
:102210006682002B00F06382029B002B63D00123B7
:102220002146304600F0CCFA08B10120E5E794F8E9
:10223000FF2194F8FE3143EA02234AF655229342E5
:1022400001D00E20D9E7029B04EB031101F5D771F1
:102250000B79002BF5D001F10800FDF79DFF8146B9
:1022600001F10C00FDF798FF0990DDF824A0BAF108
:10227000150FE6D96B0A802BBED8039A12F0020E16
:1022800008D002F00701022900F038821146C90780
:1022900040F134820399CA07AED5002B53D132489E
:1022A0004FEA1A354FF0010830F8021F09B1A94270
:1022B00031D940F6F571BAFBF8F58D429BBF05EBBD
:1022C0004505013502356D088CBF6D00033505F2FB
:1022D000FF154FF020018CBF022701276D0A4FF038
:1022E000010B01912CE209AA0121304600F08CFA81
:1022F00000289AD1039B13F0080F099B0CBF4FF0E5
:102300003F094FF000094B459BD3A3EB0903099309
:10231000ABE75B00F8E14FEA4808C5E7022F25D19B
:10232000049A4FF6F5718A420FD9002B40F0E281F2
:102330004FEA4803402BB0D9BEF1000F40F0E081D6
:10234000802B3FF67EAF9846B3E7049A40F6F571CE
:102350008A4212D8002B7FF474AF4FEA4803802BD7
:102360009BD96EE700FEFF0014800608049A40F631
:10237000F5739A423FF665AF01274FF400720021D2
:10238000204647F05FF8D74B84F80EB01A682260F9
:102390005A6862601A899B7A2281032F4FF00202E9
:1023A000A3724FF00003E3722273CBF3072B4FF0BD
:1023B0000102637418BF0223BAF5803F84F80D80D0
:1023C00084F80FB02274A37480F01D8184F813A0E8
:1023D000CAF3072A84F814A0F82363753F232376F1
:1023E0004FF0000AFF2384F819A0A37684F81BA0FD
:1023F000494604F11C00FDF7D7FE032F40F0098188
:1024000056F0E4FC014604F14300FDF7CDFE2946F9
:1024100004F12400FDF7C8FE022384F82C300123C8
:1024200084F83030062384F83230802384F840303A
:10243000292384F84230AC4B84F82DA084F82EA0D8
:1024400084F82FA084F831A084F833A004F1470267
:1024500003F1100153F8040B42F8040B8B42F9D13D
:1024600019889B7893704FF0550B6FF055031180CE
:10247000304684F8FF3184F8FEB101234A462146F4
:1024800000F0ADF9824600287FF4CFAE032F3FD194
:10249000012309F106022146304600F0A0F94FF46D
:1024A00000725146204646F0CDFF522323706370E0
:1024B0006123A37084F8E731049B41227221E2700A
:1024C00084F8E41184F8E51184F8E621591E04F536
:1024D000F470FDF769FE022384F8EC316FF05503C8
:1024E00084F8FF3109F107020123214684F8EDA1A8
:1024F00084F8EEA184F8EFA184F8FEB1304600F034
:102500006EF9012309EB03022146304600F067F91A
:10251000149B23F4FF7222F001020021204646F0B2
:1025200091FF032F40F09280F8232370FF23637004
:10253000A370E37023716371A371E37123726372FB
:10254000A3720F23E372059B009AAB4228BF2B4670
:10255000214630469A4600F042F9014600287FF4B1
:1025600064AE4FF40072204646F06CFF009BB5EB62
:102570000A0553440093E6D1019B032F08BF43464D
:102580000193019B059A934228BF13462146009A66
:1025900030461D4600F023F900287FF446AE009B2C
:1025A0002B440093019B5B1B0193EAD1032F56D070
:1025B000099BB3F5803F54D2022F14BF0125042597
:1025C000029B002B4FD0002201232146304600F011
:1025D000F7F8024600287FF428AE029B04EB0313B1
:1025E00083F8B25101232146304600F0F8F8002864
:1025F0007FF41BAE00221146304600F005F9003092
:1026000018BF0120F9E5514604F12000FDF7CCFD8B
:10261000E2E656F0DBFB014604F12700FDF7C4FDBE
:10262000C5F30723E375802384F82430292384F835
:1026300026302E4BA57504F12B0203F1100153F83F
:10264000040B42F8040B8B42F9D109E7012F28490A
:10265000204618BF6FF00701FDF7A6FD73E70C25B4
:10266000AEE70625ACE7039B1B07C3D44FF400720B
:102670000299204646F0E6FE552384F8FE31099A79
:1026800084F8C251AA2384F8FF31029B84F8BE313A
:1026900084F8C1314A4443F6C163B2FBF3F2FE232E
:1026A00084F8C331930843F03F03012784F8C43111
:1026B00084F8C521494604F5E37084F8BF7184F8B5
:1026C000C071FDF771FD099904F5E570FDF76CFD2A
:1026D0003B46029A87E703208FE50A208DE511200B
:1026E0008BE500BF328006083E800608528006084F
:1026F000F8FFFF00BEF1000F3FF4A3AD002B59D14E
:102700002D484FEA5A45012330F8021F19B1A9425A
:102710007FF6FFAD0021BAFBF3F0284F8500A0F54E
:102720007F40F63805F20725B8424FEA55253FF6B7
:1027300088AD98460B46002101914FF0200B0327EE
:1027400009EB0B0100910199DDF820C06818009990
:1027500008440CF1FF31032F0144CCF1000C08BFF9
:10276000009A01EA0C01A1EB000101BF52188B4451
:102770001146009118BF6D18C9EB08110844824535
:10278000FFF45FAD019AAAEB0B01491B032FA1EBEC
:102790000201B1FBF8F204927FF4C0AD4FF6F5717F
:1027A0008A423FF6EAAD002B7FF44BAD5FEA580357
:1027B0003FF447AD1946AEE722800608FFFFFE0F43
:1027C00010B50C4611461A4638B1234604303FF086
:1027D000B1F9003018BF012010BD0420FCE710B58E
:1027E0000C4611461A4650B1234604303FF0E4F936
:1027F00010F11E0F05D0003018BF012010BD0420BD
:10280000FCE70220FAE7000070B50D4614460646C4
:10281000002833D001F00703234AD15C00292FD0D0
:10282000002204303FF016FA062D27D8DFE805F025
:1028300008050A162619190006202BF001FB206056
:10284000002070BD062805D14FF400732380238833
:10285000B360F5E72BF0F4FA2080F8E7012323605A
:10286000EEE7062801D0430806D1336A002B0CBFDF
:10287000042300232370E3E70123FBE70420E0E7C0
:10288000062DFBD801A353F825F000BF412800080E
:1028900039280008492800085D2800087D2800081C
:1028A0006B2800086B280008587C060837B51D46C1
:1028B000043001AB1446FEF774FF38B1064B1B5CC5
:1028C0002B604FF0FF34204603B030BD019BA34284
:1028D000F9D01C23F4E700BF737C060813B51C462F
:1028E000043001ABFEF7CDFE30B1044B1B5C23601E
:1028F0004FF0FF3002B010BD0198FBE7737C060873
:1029000070B5054608460C462BF0E2F92346024610
:1029100002492846BDE8704001F060B8687C0608AE
:102920002DE9F84380461046894631F0E5FA264DF8
:10293000013800242A4610F8013FCBB92C201DF0A5
:10294000B1FC0746064647F8045B484631F0D4FA26
:10295000E3B20246394608F14400FEF7C7FD0546DA
:1029600040B330461DF0B8FC184B585D2AF0A2FB6E
:10297000722B13D008D8612B19D0622B0CD02B2BC3
:10298000D9D144F00304D6E7772B0AD0782B0BD0AB
:10299000742B08BF1546CEE70D4DCCE744F001047B
:1029A000C9E744F00A04C6E744F00604C3E744F06C
:1029B0001204C0E7E30603D531693846FFF7A0F8F3
:1029C0003046BDE8F88300BFA87C0608737C060883
:1029D000887C0608022970B5044615461E4613D1A8
:1029E0005368012B0AD0022B0CD01BB91168201D93
:1029F000FFF786F8A3692B60002070BD81692B6802
:102A00001944F4E70169FAE701290AD10430FEF715
:102A100086FF0028F0D0084B1B5C33604FF0FF307E
:102A2000EBE7042906D14368002BE5D00430FEF71C
:102A3000ADFFEEE71623F0E7737C06082DE9F04FB3
:102A40002DED028B89B00629CDE90112B0EE408A46
:102A500007469B469DF8502014D8012905D93F23ED
:102A60000370013700233B7002E0019B002BF9D17A
:102A7000019B012B94BF0020012009B0BDEC028B0B
:102A8000BDE8F08F10EE103A002B24DAB4EE400AC5
:102A9000F1EE10FA1FD62D22441C0270B1EE408ACE
:102AA0009FEDC67A029B0397F0EEC87AF4EE477A60
:102AB000F1EE10FA03F0200213DD82F049032370D7
:102AC00082F04E0382F046026370E01CA270002385
:102AD0000370C01BD1E712B17C1C3A70E0E73C46A2
:102AE000DEE7B4EE488AF1EE10FA08D742F04E0362
:102AF00082F0410223706270E01CA370E7E7029B42
:102B0000BBF1000F43F02009B8BF4FF0060BB9F13D
:102B1000670F04D1BBF1000F08BF4FF0010B019B01
:102B200003F1FF3818EE103AE21B191EA8EB020859
:102B300020D1B9F1660F0CD10BF101024245A8BFBB
:102B4000A8F1020B0BF101004FF0660A0026B04617
:102B50000DE00BF105024245A8BFA8F1060B0026C7
:102B6000B9F1650FCA463046F1D14FF02B08324615
:102B700035463AE0C1F3C752A2F17F0307EE903A1F
:102B80009FED8F7AF8EEE77AB1F17E5F67EE877A94
:102B9000FDEEE77A17EE905A80F0B280F8EEE70A81
:102BA000B2EE040A45F0B0F86E42B4EEC08AF1EE1F
:102BB00010FA354600F18580B9F1660F08D0B9F1F9
:102BC000670F40F08980042E00F38680721E9344C4
:102BD0000BF101024245A8BFA8F1020B00260BF140
:102BE0000100B04632464FF0660ABAF1650F2BEA93
:102BF000EB7140F0D880481C831BB3464FF0000CAB
:102C00000493F2EE048A049B13EB0B0040F1DA808C
:102C1000BCF1040F29DD631E3026184610F8012987
:102C20002E2A00F01881A2F1300CBCF1090F40F2FD
:102C300008815F1C3B78302B17D17A782E2A40F020
:102C40000E81BAF1660F00F00A81B8F12D0F3A70CB
:102C50007B7040F00281013D08BF4FF02B082346F6
:102C60009F42C0F0048131233B70B9F1670F0AD154
:102C700049B123461C46013B14F8012C302AF9D0F7
:102C80002E2A08BF1C46B8F1000F15D0029B84F80D
:102C9000018003F020030A2143F04503237095FBD4
:102CA000F1F393FBF1F201FB135501FB12323032C9
:102CB0003035A270E570043400232370039BE01AC2
:102CC000DBE6F34300EE903AB2EE040AF8EEE00AD7
:102CD00045F01AF8013668E7A8F105025A4505DC07
:102CE000B9F1670F14BFA8F1060B934688EE008A6E
:102CF0007642CA4600204FF02D08024675E701359E
:102D00006B1C00EE903AB2EE040AF8EEE00A44F0D2
:102D1000FBFFB4EEC08AF1EE10FAF0DAB9F1660FFB
:102D200017D1454518DA0BEB05020132424508DBA5
:102D3000A8EB0503A3F1020BBBF1FF3F08BF4FF067
:102D4000000B05EB0B0001302E462A464FF0000821
:102D500049E7B9F1650F0DD1A8F105025A4501DC2B
:102D6000A8F1060B00202E464FF02B0802464FF02C
:102D7000650A3AE7B9F1670F0FD10BF1040242453A
:102D800001DBA8F1050B5D4503DB2E464FF0670A1A
:102D900005E06A1CABEB020BD3E72E46CA460020C7
:102DA0004FF02B08A9E7BAF1670F7FF425AFBBF10D
:102DB000000FD6BF0120084601461DE7FFFF7F7FB9
:102DC0009B209A3EBBF1000F36DD07EE90BAB2EEC3
:102DD000040AF8EEE70ACDE90620059144F094FFD5
:102DE000DDE9051207984FF0000CB4EEC80AF1EEC9
:102DF00010FA06DC0CF1010CBCF1090F38EE408A28
:102E0000F3D1E0B10CF1300E84F800E0A2EB060E35
:102E10001EEB0B0F04F1010005D121B14FF02E0E76
:102E2000A01C84F801E0BBF1000FD8BF28EE288A6F
:102E30000BF1FF3B0446E6E6B7EE000AD3E7204677
:102E4000F1E7392A03D001321A701F46F2E69F4299
:102E500046703FF4EFAE0346DFE60135FFE6039A26
:102E60000198631C9A1A824238BF1C46F7E613F891
:102E7000012C03F80129F3E608B5044631B1054BEE
:102E800003604A6C096800232DF0A8F820461DF065
:102E9000D1F900BFD00506082DE9FF471F46019272
:102EA000461812B1023A222A34D80546B5422C46B9
:102EB00039D220781EF0C2FB013580460028F5D1BA
:102EC00023782B2B29D12C46311B204601AA28F030
:102ED00012FC2518A9460024B1454B4626D3B8F16B
:102EE000000F00D06442640044F00104AB4209D0FA
:102EF0001D46B5422B4642D2187801351EF09EFB86
:102F00000028F6D12049019A20482DF027F83946AB
:102F1000FFF7B2FF1E4829F0B9FE2D2B04BF2C4647
:102F20004FF00108D0E74FF00008CDE719F8012B6A
:102F3000A2F1300ABAF1090F09D95F2ACCD042F0C8
:102F40002002A2F161011929C9D8A2F1570A0199F9
:102F50005145C4D9204637F0E7FD28B9019B03FB52
:102F600004A494EA4403B7D504A8019B40F8045D87
:102F70004246711B2EF0DCF9039B0446B6E7C1D133
:102F8000204604B0BDE8F08732F90508600606085F
:102F90001DF905082DE9F04F2DED068B85B09FED4D
:102FA000C79ADFEDC79ACDE901234FF00008149BC3
:102FB000039304464718C146B0EE49AABC4280F0CC
:102FC0008F8120781EF03AFB00283ED123782B2BEE
:102FD00041D10134BC4280F08381237843F0200347
:102FE000692B3ED1A31C9F4240F28181637843F05C
:102FF00020036E2B40F07B81A37843F02003662BE7
:1030000040F07581E31D9F4204F103051AD9E3786E
:1030100043F02003692B15D1237943F020036E2B55
:1030200010D1637943F02003692B0BD1A37943F0CE
:103030002003742B06D1E37943F02003792B01D1CF
:1030400004F108059FED9F8A20E00134B0EE498A23
:10305000B0EE489AB2E72D2BBFD101344FF00109F1
:10306000B8E76E2B59D1A31C9F4240F24081637890
:1030700043F02003612B40F03A81A37843F0200312
:103080006E2B40F034819FED908AE51C019B7BB153
:10309000BD420DD22B7843F020036A2B08D1AC42FD
:1030A000F7EE007A08BFB0EE678A013548F00208F3
:1030B000B9F1000F03D0B1EE488A4FF00109AC42DC
:1030C0000DD0BD422C4680F0CD80207801351EF019
:1030D000B5FA0028F5D1029B002B40F0D7807B4940
:1030E0007B482CF0AFFE0399FFF7C6FE02260D4683
:1030F00095F800B0ABF1300ABAF1090F05F1010102
:103100005ED8022E14D1734DAC4502DC0A2505FBB6
:103110000CACB942EBD30D466CE000222546DFED46
:10312000678A9646134694461646B2EE047ADFE75F
:10313000BAF1000F04D0F4EEE98AF1EE10FA15DBD3
:103140000EB90133E5E70EF1010E0126E1E7F4EED9
:10315000E98AF1EE10FA46BFF0EE4A7AE8EE877A95
:10316000013203F1FF3348BFF0EE678A002BEED146
:103170007346F4EEE98A7BB9F1EE10FA1BD507EE3F
:1031800090AAF8EEE77A012EE8EE877AF0EE678AE9
:1031900054D1013A9E46BCE7F1EE10FA42BFF0EE80
:1031A0004A7AE8EE877A02F1FF3203F1FF3348BF33
:1031B000F0EE678ADDE7002E43D10132B646A8E77C
:1031C0009EB9BBF12E0FC0D04BF0200ABAF1650FAB
:1031D0000DD18F4240F296806E782B2E28D1A91CFB
:1031E000B9423FF47CAF022693E7022EECD1BBF14B
:1031F0005F0F8ED008B1CCF1000C13449C441CF13D
:10320000250FBEBFDFED347A0CF1250C68EEA78ADE
:103210001CF1090F17D3CCF1000300EE903AB2EE87
:10322000040AF8EEE00A44F06FFD88EE808A2DE78C
:103230002D2E7FF45BAFA91C0120D1E79E461E46D0
:1032400067E79E4681E707EE90CAB2EE040AF8EE01
:10325000E70A44F059FD20EE288A17E725469FED3E
:10326000178A17E77FF437AFB8F1010F3FF437AF94
:10327000B8F1000F11D0F0EE480AB0EE490A05B0DF
:10328000BDEC068BBDE8F04F2BF032BEB8F1000F5D
:103290007FF425AF4FF00108DAE6029B23B1DFEDA2
:1032A000070AB0EE480AEAE7B0EE480A05B0BDECFE
:1032B000068BBDE8F04F2CF09FBF00BF0000000060
:1032C000EC78AD600000807F0000C07F17F9050832
:1032D0006006060864666606EA1C08020000000034
:1032E000002325461A465FED038A9C4685E7019B2D
:1032F000002BB3D1B9F1000F3FF4F1AE25461FED1D
:10330000098AD8E63FF4EBAE05E700BF0846114650
:1033100047F054B870B5054608460E4646F0C8F862
:10332000044620B102466B6828683146984720461B
:1033300070BD00002DE9F74F01919DF830109146C6
:103340000D9A11F0DF0F0646A2EB09023DD030299D
:103350000CA9244F0EBF4FF010080F464FF0010884
:1033600013F0800435D0022492FBF4F4151B002CDA
:1033700036DDA246D045C346A8BFD3467368306841
:103380005A463946AAEB0B0A9847BAF1000FF1DC0E
:10339000B9F1000F05D07368019930684A46984723
:1033A0004C44002D0DDD2C44A845C146A8BFA946BC
:1033B000736830684A463946A5EB09059847002DE1
:1033C000F2DC204603B0BDE8F08F074F4FF0100845
:1033D000C6E713F0010501D11446C8E71546D7E743
:1033E0000024D5E78CE905087BE905082DE9F043C1
:1033F00089B007460020119D9DF84880139E8DF8E6
:103400000F0002B3814219DA2D228DF80F204942B4
:10341000109A08ACA2F10A0C0DF1100EB1FBF3F0FA
:1034200003FB1012092A8CBF6244303204F8012DCC
:10343000744501460DD00028F0D10AE0A80726D532
:103440002B228DF80F200029E2D108AC302304F89C
:10345000013D15F040099DF80F301CD023B3012227
:10346000CDE900822B460DF10F013846FFF762FFD0
:10347000013E814608AACDE900862B46121B214653
:103480003846FFF757FF484409B0BDE8F0836A07A4
:10349000D9D52022D5E7002BECD004AA9442E9D953
:1034A00004F8013C013CE5E79946E3E72DE9F04FDC
:1034B00091B082461C46C8079DF86C301A9D059352
:1034C0000F469146DDE91C860BD4B90703D13A6853
:1034D000804B9A4205D038462AF0B2FC400040F0BA
:1034E000010715F0810306D1059A302A03D1B045B2
:1034F000B8BFB0461E4638462DF02EFE00280DF10E
:10350000200B18DBAA0712D52B238DF820300DF1E4
:103510002103E1B2EC061DD5B9F1020F0DD11A4617
:10352000302002F8020B481C5870134612E06B075B
:1035300001D52023E9E75B46EBE7B9F1080F3ED15F
:10354000A8054FF030021A7045BF01F10E025A7003
:1035500001330233002215F0200F1A70A3EB0B0386
:10356000049314BF2C231346012E0CA8C8BF45F0AA
:103570004005099015F040044FF01000CDE90A0213
:103580008DF81F20CDE9021323D0CDE900923B46F0
:103590000BAA0AA909A82DF0B9FC03782D2B8146A6
:1035A00040F086800B9C8DF81F30013C012E00F10D
:1035B00001090B9400F3898000273C4636E0B9F1FD
:1035C000100FC7D11A46302002F8020B01F1170084
:1035D000AAE708ABCDE900930BAA3B460AA909A8C4
:1035E0002DF094FC012E81461FDD0B9CB442B8BF28
:1035F0003446A04516DD15F00107A8EB040401D000
:103600002746002425F001054CB120230093002318
:1036100001941A4630495046FFF78CFE0446302389
:10362000059303E000273C46ECE7274669061DD5D5
:103630009DF81F305BB100230122CDE900320DF16E
:103640001F015046FFF776FE08F1FF380444049B43
:1036500063B100230122CDE900325946049A504655
:10366000FFF768FE049B0444A8EB0308059B009346
:10367000012ED8BF464601962B460B9A4946504626
:10368000FFF758FE04444FB1202300930023019715
:103690001A4611495046FFF74DFE044409980CABF9
:1036A000984201D01CF018FE204611B0BDE8F08F02
:1036B000012E81DD0B9C9DF81F30B442B8BF34460B
:1036C00003B10134049B1C4493E7B442B8BF3446B1
:1036D000F7E700BFBC090608D08706082DE9F043CC
:1036E00016468BB0B20780469946129F3CD416F01E
:1036F000040F0CBF0023202300930A46139B2021B4
:1037000002A8FFF79BF9F30504460DD5431C1F2BB8
:103710000AD80AAA1444252204F8202C0AAA1A441A
:10372000002102F8201C1C4616F040051ED09DF812
:1037300008302F2B4FF000031AD8012202A9CDE93F
:1037400000324046FFF7F6FD013F0546013C0DF112
:103750000901CDE90097334622464046FFF7EAFDCE
:1037600028440BB0BDE8F0832B23C5E702A9F0E79E
:1037700002A91D46EDE700002DE9F04F824689B011
:10378000144600250E46334613F8012B8AB9B14280
:1037900013D30B78002B00F01981013120224FF058
:1037A00000090B780E46481C8BB998464FF0FF3342
:1037B0004FE0252AEBD01E46E5E7771ADAF8043009
:1037C000DAF800003A4698473D443146E1E72D2BB0
:1037D00003D149F001090146E3E72B2B02D149F05F
:1037E0000209F8E7202B02D149F00409F3E7212B65
:1037F00002D149F00809EEE7302B22D149F0400907
:103800001A46E8E70A2000FB0838A8F130080E46FF
:1038100011F8013BA3F130000928F3D92E2BC5D1B3
:1038200073782A2B10D008460023064610F8011B97
:10383000A1F13007092F0CD80A2606FB0313303BF1
:10384000F3E74FF00008E2E72368023623EAE37368
:10385000043431786C2908BF01363778002F00F026
:10386000B580642F00F08B8028D8502F2DD00ED833
:10387000A7F14501022940F29180DAF80430DAF824
:1038800000000122314698470135A3464FE0622FE0
:1038900040D053D8582FF0D17B1C27F00F070F3F93
:1038A000CDE9022803F00603FFB204F1040BCDF8C2
:1038B00004900097C3F1100300226AE0712F48D0F2
:1038C0000DD8672F6AD9702FD7D16123009304F1E7
:1038D000040BCDE90228CDF804901023ECE7752FF6
:1038E000DAD0782FD8D0732FC7D104F1040B246815
:1038F0002046CDE9042345F0DBFD059B5A1C049AC4
:1039000002D0984228BF1846CDE900284B4602460F
:10391000214608E0236804F1040BCDE900284BB1EF
:103920002C494B4604225046FFF704FD0544711C08
:103930005C4627E74B4605222749F4E708A9236898
:1039400001F8043D04F1040BCDE900284B460122A7
:10395000E9E707A92068CDE904231DF04CFC059B8D
:10396000049A0146581C04F1040B03D007988342C3
:1039700038BF0793CDE900284B46079AD3E7612368
:10398000CDE90228009304F1040BCDF804900A233A
:10399000012221685046FFF729FDC7E7073424F0CC
:1039A0000704D4E90001CDE9042356F043F9059B4F
:1039B000049ACDE9008300EE100A134639464A46C0
:1039C000504604F1080BFFF789FEAFE7284609B01F
:1039D000BDE8F08F70E9050875E905080EB403B578
:1039E00003AA52F8041B0192FFF7C6FE02B05DF86D
:0839F00004EB03B07047000076
:020000040802F0
:10000000FEE700000F49D1F8883043F47003C1F8CF
:1000100088300D4B1A68002042F001021A60986087
:100020001A6822F0847222F480321A60074A5A60F9
:100030001A6822F480221A60D8604FF000638B6047
:10004000704700BF00ED00E000380240103000248F
:1000500030B5002595B01024224629460AA80495FB
:1000600029F0F0F9284B01951A6C42F080521A647D
:100070001B6C03F080530193019B244B02951A687B
:1000800042F440421A601B68059503F44043029312
:100090000122029B4FF48033CDE908234FF4800105
:1000A0000223CDE90E31129304230F224FF4A05006
:1000B00013934FF48053CDE90B5403921924C022BB
:1000C000CDE9060308A8CDE910422DF0B7F810B12C
:1000D0000F4831F0EFFB119B10996343B3FBF1F331
:1000E0003021B3FBF1F201FB1232003218BF0122C2
:1000F0001299B3FBF1F103A833F000F908B10548F8
:10010000E7E715B030BD00BF003802400070004086
:1001100014A0050826A005080446DFF82CD00B49DA
:100120000B4A0C4B03E051F8040B42F8040B9A42C3
:10013000F9D300200849094A01E041F8040B914233
:10014000FBD3204631F042BDF8BF0120E4D70608BA
:10015000000000203400002034000020343400204F
:1001600040F8044B40F8045B40F8046B40F8047B13
:1001700040F8048B40F8049B40F804AB40F804BB03
:1001800040F804CB40F804DB68467047034B1B681B
:100190005B685A6902605861002070478033002014
:1001A000034B1B685B685A6912685A61704700BF4D
:1001B00080330020034B1B685B689A69C0E900210B
:1001C0009861704780330020054B1B685A6893691B
:1001D0001968916110B15A6818461047704700BFFE
:1001E0008033002038B5064B1B685D680446AB6958
:1001F0000BB1A34200D338BD0120FFF7E5FFF6E7BE
:1002000080330020C460056146618761C0F81C80AE
:10021000C0F82090C0F824A0C0F828B0C0F82CD0B6
:1002200080ED0C8B80ED0E9B80ED10ABC0F808E0EC
:10023000FFF7ACBF134A126855686C6908B50CB972
:1002400031F0B0FC60602046FFF7CCFF23686B61A3
:100250002046C468056946698769D0F81C80D0F8D3
:100260002090D0F824A0D0F828B0D0F82CD090ED71
:100270000C8B90ED0E9B90ED10ABD0F808E00120B8
:10028000704700BF8033002010B50021044600F005
:1002900091FA18B914B120460CF0E4FC10BD00210D
:1002A00000F088BA10B50121044600F083FA18B9AD
:1002B00014B120460CF0D6FC10BDFFF7E5BF10B519
:1002C00001220C4600F0D0FB18B914B120460CF006
:1002D000C9FC10BD00F0C8BB00F050BB2DE9F041D7
:1002E0002A4C00250326D4F88872002101314318D6
:1002F0009A0803F00303BA5C5B0042FA03F303F0CD
:100300000303022BF2D0D4F8943209018F0803EBD7
:10031000001089B300EB870703681A0729D1D4F8C6
:1003200094125A1A4FEA121E4FEA921C99420EF08A
:1003300003024FEA42021CD8D4F89812994218D905
:10034000D4F8888218F80C1041FA02F303F0030382
:1003500006FA02F2012B42EA01020AD105F5AA715E
:100360003F2D08F80C209ABF24F811E00135C4F89D
:10037000A4320430B842CFD12DB1013D05F5AA73A6
:1003800034F81300AFE7BDE8F08100BF402C002037
:10039000F8B521F00F052A1A02F10052013A174967
:1003A000174CD300A1FB03235B0A9A00591C0732A8
:1003B00001EBD2020144A5EB8317C4F8901200218F
:1003C000C4F88C32C4F89472C4F88802C4F8985205
:1003D00029F038F80B4B1B685868012100234FF0B7
:1003E000FF32C4F89C32C4F8A0320381C4F82C3325
:1003F000A4F82813C4F83023F8BD00BFF32C23FA67
:10040000402C002080330020034B1B685A6813895E
:1004100001331381704700BF80330020034B1B68FA
:100420005A681389013B1381704700BF8033002055
:10043000034B1B685B681889003018BF01207047A8
:1004400080330020F8B51D4B1D4D1B6859680B8982
:10045000002201330B8105F10804C5F82C23C5F8EF
:10046000A42205F5EC76032754F8043F1A0719D1A6
:10047000D5F89412581A4FEA901C000900F00302B4
:100480008B424FEA42020DD3D5F898128B4209D223
:10049000D5F8881211F80CE04EFA02F303F00303CA
:1004A000012B02D0A642DFD1F8BD07FA02F242EAE0
:1004B0000E0201F80C20FFF711FFF3E78033002054
:1004C000402C002079B3F8B5041F174E04EB8105CA
:1004D000032754F8043F1A0719D1D6F89412581A72
:1004E0004FEA901C000900F0030299424FEA4202D1
:1004F0000DD8D6F89812994209D9D6F8881211F871
:100500000CE04EFA02F303F00303012B02D0A542E4
:10051000DFD1F8BD07FA02F242EA0E0201F80C2020
:10052000FFF7DCFEF3E77047402C00202DE9F04F89
:10053000584ED6F88C42D6F8A43285B0A4000025D7
:10054000A2468BB3C6F8A45204B30027BA08D6F863
:10055000881207F003038A5C5B0042FA03F303F09E
:100560000303032B05D00137A742EFD3D6F8A432FB
:10057000E6E73846FFF7B2FED6F88C420137A40012
:10058000BC42E3D8D6F8A432DAE794B9424BC6F8B5
:10059000A0A21B685A6813890021013BC6F89C126F
:1005A000138105B0BDE8F08FD6F8A032A342ECD29B
:1005B0005C1C4FF0000CE2466746032306E0032A6A
:1005C0005DD0012A18D00137A742DFD04FEA970843
:1005D000D6F8880207F0030510F808106D0041FAFC
:1005E00005F202F00302022A00EB080EE7D1BCF18B
:1005F000000F3BD1BA46E6E74FEAD709D6F890227A
:1006000012F809C007F0070B4CFA0BF0C0074A4478
:100610002CD53801D6F8941251F800E00844BEF108
:10062000000F16D002AA40F2E62101930BF0A8FCBD
:10063000DDE9013242B10CF085FDDDE902010CF08B
:100640004BFD0CF095FD019BD6F8902212F809C0E5
:100650004A44012101FA0BFB2CEA0B0C82F800C082
:10066000D6F8882212F8081002EB080E03FA05F5F6
:1006700021EA05018EF800104FF0010CA3E70222D9
:1006800002FA05F521EA050100F80810BA464FF014
:10069000000C98E7402C002080330020054B0649D1
:1006A0001B685A681389013313810023C1F8A432EF
:1006B000FFF73CBF80330020402C00203C4B2DE94D
:1006C000F047D3F89412D3F89822D3F88C62D3F879
:1006D00088720023C0E90133C0E90333C0E9053360
:1006E000521A02601D46B6009E469C461C461A469B
:1006F00099461946984617F8093049000B4103F00E
:100700000303012B49D040D3022B02D101354560B0
:100710000134013296420ED04FEA920902F00301F1
:1007200017F809304FEA410A43FA0AF313F00303BA
:1007300001D0012BDFD1012C11D0022C02D1416953
:10074000013141618169A14238BF846196420FD075
:10075000012B26D04FEA920902F00301CBE7016991
:10076000013101618169A14238BF84619642EFD1B4
:10077000C44503D99642C0F80CC017D12D014FEAE9
:100780000E13C0E90153BDE8F0870EF1010EC0F869
:1007900008E00CF1010C1C46BBE7013545601C4626
:1007A000B7E7E045E6D34FF0000CD3E7E046FAE7C1
:1007B000402C00200F302DE9F04706095ED06D4B2C
:1007C0001B685B681B89002B58D16B4DB5F828332B
:1007D000002B01F001040CBF4FF0010E4FF0000E92
:1007E00051D1D5F89C12D5F88C728F4239D9D5F8F1
:1007F00088C2481E604400231AE001339E4254D947
:1008000012F00C0F1ED101339E4240F2A98012F06B
:10081000300F1CD101339E4240F2A58012F0C00F70
:100820001AD101339E4240F2A1800131B94218D25F
:1008300010F8012F12F0030FDFD012F00C0F4FF061
:100840000003E0D012F0300F4FF00003E2D012F0BE
:10085000C00F4FF00003E4D00131B9424FF0000364
:10086000E6D3BEF1000F09D136F0E4FED5F89C12B4
:10087000D5F88C728F424FF0010EB8D84FF00008B7
:100880004046BDE8F087D5F82C23D5F830339A429E
:10089000A7D336F0CFFED5F89C12D5F88C728F42D4
:1008A00088BF4FF0010EA2D8E8E78900012B01F1C3
:1008B000010EA1EB030204BF4FEA9E03C5F89C3270
:1008C000D5F8A032571C8B4238BF0B464FEA970829
:1008D000C5F8A03207F003031CF808905800012364
:1008E0008340023243EA090391420CF8083012D3E4
:1008F0004FF002089008D5F888C202F003031CF8F4
:1009000000905B0008FA03F3013243EA09039142C5
:100910000CF80030EED2D5F894A2D5F82C334FEA7B
:100920000719AEEB07020AEB09081E441201404604
:100930000021C5F82C6328F085FD002CA0D00023F1
:10094000D5F890124AF80930FA080123885C07F0BC
:10095000070703FA07F707438F544046BDE8F087BF
:1009600089000131A2E7890002319FE78900033144
:100970009CE700BF80330020402C00201D4B1B68EB
:100980005B681B89ABBBA0B3F0B41B4ED6F89432A6
:10099000D6F89052C01AC10904096B5C04F007072D
:1009A0000122BA4023EA02036B54D6F89C22830941
:1009B0009342D6F8880238BFC6F89C32C15CA508BD
:1009C00004F0030303275B0007FA03F321EA0303A0
:1009D00043550134D6F88802A50804F00303415DAD
:1009E0005A0041FA02F202F00302022AEBD0F0BCF4
:1009F0007047704780330020402C002010F00F0318
:100A00001BD11849D1F89422824216D810B4D1F8DB
:100A10009842844222D9801AD1F888428109020979
:100A2000615C02F003004000014101F00301012973
:100A3000184604D05DF8044B704700207047013021
:100A40001318990803F00303615C5B0041FA03F398
:100A500003F00303022BF2D00001EBE718465DF828
:100A6000044B7047402C00202DE9F84F8E4600289B
:100A700000F08B808C4B1B685B68002959D01F8964
:100A8000002F58D1894DD5F89412D5F88C32A0EBAF
:100A900001094FEA1916711C4FEA830A0EF10F0C77
:100AA0008A454FEA1C1C40F2FB80D5F888B24FF013
:100AB00001088C0801F003031BF804405B0044FAB2
:100AC00003F303F00303022B39D023B9013708EBFA
:100AD0000703634535D3E04553D036D847446745CF
:100AE0000446C0F08B8006EB0C014644B1420FD99E
:100AF0004FF0020EB208D5F8880206F00303875CB7
:100B00005B000EFA03F301363B43B1428354F1D14B
:100B1000D5F8A032ACEB08028B4238BF0B4612016D
:100B200004EB081000212646C5F8A03228F08AFC04
:100B300002E01B897BB300263046BDE8F88F08F140
:100B4000010801318A45B4D1C5E7B444674646443B
:100B50004FF00309B908D5F8884207F00303625C37
:100B60005B0009FA03F3013722EA0303BE42635430
:100B7000F0D1D5F89C324FEA9C029A4238BFC5F8B2
:100B80009C2206463046BDE8F88F01467046BDE817
:100B9000F84FFFF70FBE454DD5F89412D5F8906287
:100BA000401AC1090409735C04F007070122BA4026
:100BB00023EA02037354D5F89C32D5F88862800981
:100BC000984238BFC5F89C02315C04F00303A008CA
:100BD00003275B0007FA03F321EA030333540134CC
:100BE000D5F88862A00804F00303315C5A0041FA8A
:100BF00002F202F00302022AEBD09CE74FEAD9117D
:100C0000D5F89032595C06F007063141002A92D09F
:100C100001F001017046FFF7CDFD064600288AD09D
:100C20004FEA0812214628F0C9FB1F4B1B685B687E
:100C30001B89002B80D1D5F89402D5F890C2201AD8
:100C4000C10907091CF8013007F007040122A2407E
:100C500023EA02030CF80130D5F89C32D5F888421B
:100C60008009984238BFC5F89C02215C07F0030355
:100C7000B8084FF0030C5B000CFA03F321EA0303FE
:100C800023540137D5F88842B80807F00303215CE4
:100C90005A0041FA02F202F00302022AEBD04BE7BB
:100CA0004FF0010817E700BF80330020402C0020E0
:100CB0002DE9F04F414BD3F89842D3F89422D3F862
:100CC0008C12D3F8883287B00025A21A04920590BE
:100CD0004FEA810EA8462F460395AA46AB462E46FC
:100CE000A9462C46AC462A4613F80C105200114176
:100CF00001F0030101294ED047D3022902D10BF1A3
:100D0000010B0136013474450CD04FEA940C04F009
:100D1000030213F80C105000014111F0030101D03F
:100D20000129E1D1012E0FD0022E08BF08F10108E0
:100D3000B54238BF354674450DD001292FD04FEA52
:100D4000940C04F00302CFE7B54238BF3546744532
:100D500007F10107F1D14FEA0A130093039B059CA9
:100D6000049A1749994538BF994620464FEA0B1314
:100D7000E2F734FECDE9005943463A462046114990
:100D8000E2F72CFE07B0BDE8F08F0AF1010A09F185
:100D900001090E46B6E70BF1010B0E46B2E7039AC6
:100DA0004A4528BF4FF00009C9D2CDF80C904FEA50
:100DB000940C4FF0000904F0030295E7402C00204A
:100DC00080A00508A4A005082DE9F84F514F52490D
:100DD000D7F894228046E2F701FED7F88C52AD0096
:100DE00000F08380DFF86491DFF864A1002418E04C
:100DF000D7F8882212F80B3043FA06F606F00306FD
:100E0000022E6ED0032E6AD0012E44D02E224349EA
:100E10004046E2F7E3FDD7F88C520134AD00A5421D
:100E200063D904F00306A1064FEA46064FEA940B85
:100E3000DED1AC4229D2D7F8880210F80B2032411B
:100E4000920722D1224605E010F80CC04CFA01F1BD
:100E50008B0748D1013202F00301AA424FEA920CFB
:100E60004FEA4101F0D12A1B7F2A0ED992092C4961
:100E70004046E2F7B3FDD7F88C3225F03F04B4EBDF
:100E8000830F32D24FEA940B002622014946404696
:100E9000E2F7A4FDACE7D7F894222301D2585245DB
:100EA00029D0204B9A422AD01F4B9A4229D01F4B5F
:100EB0009A4222D01E4B9A421FD01E4B9A4222D0F9
:100EC0001D4B9A421FD01D4B9A421ED01C4B9A427A
:100ED0001DD01C4B9A4214BF68224D2297E76D2209
:100EE00095E73D2293E71546BDE740461649BDE824
:100EF000F84FE2F70FBA542289E7532287E74C22D2
:100F000085E7442283E7412281E746227FE74222A8
:100F10007DE700BF402C00203CA005087CA0050810
:100F200058A00508100B0608E00106085816060828
:100F3000A4140608CCFE050880FE05081007060864
:100F400064070608A40C0608E8A0050874A00508B4
:100F5000CC170608064B02685B6A5968C1F31E018C
:100F60008A4203D3521A0260184670471B68F4E79E
:100F7000402C0020014441F20553884204D398B22A
:100F8000002808BF0120704710F8012B03EB431322
:100F90005340F2E7034B044A5A620022C3F8DC21B3
:100FA000704700BF402C0020744A06082DE9F04726
:100FB00081468846002940D0FFF7DCFF204B5C6A61
:100FC00082460CB9204633E094F90730E668002BDE
:100FD00006F1FF364FF0000512DB6F000136B54217
:100FE00012D32468EDE777197F08BB1D424654F8F9
:100FF0002310484628F07EFA0028CCBF3D463E46E6
:10100000731B012BEFD8E8E72369DB5B9A4511D10D
:1010100063695B5D98450DD104EB85034246494603
:10102000986928F023FA28B96068C0F31E002844A4
:10103000BDE8F08701350237D1E70120F8E700BFAE
:10104000402C00202DE9F84381460E46FFF7AEFF05
:101050000246002840F09380FF2E03D949494A48B0
:101060000BF010F8494CD4F8DC01751CA0B1D4F891
:10107000E431D4F8E0112B448B420DD92944FFF719
:1010800029F90746F0B90246D4F8E411D4F8DC0196
:10109000FFF720F9C4F8DC71D4F8DC31F3B9802D06
:1010A0002F4638BF80273846FFF7F9F8C4F8DC012F
:1010B00078B92846FFF7F3F8C4F8DC0140B92846B0
:1010C0000BF0D0FDD4F8E0312B44C4F8E031E3E775
:1010D0002F460023C4F8E071C4F8E431D4F8E431B9
:1010E000D4F8DC711D44314648461F44C4F8E4512D
:1010F000FFF740FF49468046324638464FF0000928
:1011000028F05CF907F80690636AD3E90253AB4212
:1011100023D36D000A2D38BF0A25C5EBC500183052
:10112000FFF7BDF810B9C4F8DC01C8E700F11803F7
:1011300003EB8503626A036103EB45034361536874
:101140000260D268C0F80C90C3F31E0313444268D7
:1011500063F31E02C0E901256062636AD3E90302FA
:101160005B6922F810801E54821D636A43F8227066
:10117000DA680132DA605A68C2F31E02024410468D
:10118000BDE8F883BBC6050864050608402C0020AE
:1011900010B5044628F08CF901462046BDE8104001
:1011A000FFF750BF07B502AB43F8040D1846FFF731
:1011B000D1FE019A036933F8120003B05DF804FB15
:1011C00007B502AB43F8040D1846FFF7C3FE019BB9
:1011D0004269D05C03B05DF804FB07B502AB43F88D
:1011E000040D1846FFF7B6FE019B063350F82300A6
:1011F00003B05DF804FB13B502AB0C4643F8040DD5
:101200001846FFF7A7FE019B4269D25C22600633B5
:1012100050F8230002B010BD2DE9F8431D4600230D
:1012200003600B6013602B60164BDFF85C905C6A08
:101230000746884616460CB14C4505D12B683268E6
:1012400013442B60BDE8F8833B6801333B60E268E0
:10125000D8F800301344C8F800306269E368D11848
:101260008A4207D32046FFF7C9FB2B68246818443D
:101270002860E0E7336812F8010B01330344336060
:10128000EEE700BF402C0020744A06082DE9F84321
:101290000D4B0E4F5C6ADFF83880DFF838900CB1E8
:1012A000BC4201D1BDE8F883E36804F1180505EB01
:1012B0008306B54201D32468F1E755F8042B414673
:1012C0004846E2F78BFBF4E7402C0020744A0608FE
:1012D000B4C6050868E9050830B50023202411F8D4
:1012E000012F0AB9027030BD120600F101051FD5A9
:1012F0000BB1047028460B78124A03F07F036BB9D8
:10130000013A12F8013F13F0800F054600F1010089
:101310000BD003F07F032B700123E0E712F9015B90
:10132000002DFBDA013BDBB2E9E700F8013CE8E71E
:10133000012B04BF047028460B7803700130022390
:10134000CDE700BFEAA0050838B5446803680C443F
:101350009C4205460FD9037B1BB1002106480AF0C9
:1013600091FE103424F00704083421468068FEF70B
:10137000A6FF2C60A86038BD6405060870B5044659
:101380000E4611461546FFF7DFFFD4E901302A4625
:101390003146184428F03EF862682A44626070BD05
:1013A00070B5466804468E42354628BF0D46012179
:1013B000FFF7CAFFA368681C5919721B184428F06C
:1013C00029F86368A06801336360284470BD38B5AC
:1013D00004460025002914BF0846012020606560EE
:1013E000FEF752FF2573A06038BD38B505460C46A0
:1013F0000131FFF7ECFF6C6038BD0023C0E901321A
:10140000012301600373704738B514460546FFF7A2
:10141000DEFF024B2560636038BD00BF7D1302080C
:10142000037B10B5044613B98068FEF755FF00230F
:10143000A36010BD38B505461020FEF725FF2946EC
:101440000446FFF7C4FF204638BD10B5044648B136
:10145000037B13B98068FEF73FFF2046BDE81040CC
:10146000FEF73ABF10BD000038B5037B04460D46B9
:101470001BB1002106480AF005FE01688068294476
:10148000FEF71DFF2368A0601D442560184438BD89
:101490006405060838B504460D46FFF755FFD4E944
:1014A00001301D446560184438BDD0E900239A42DC
:1014B00010B5044602D10121FFF7D6FFD4E901326D
:1014C0000021D154A06810BD10B50C460121FFF7D2
:1014D000E1FF047010BD7F29F8B50C46CEB204D8E8
:1014E0000121FFF7D7FF0670F8BD06F03F06B1F502
:1014F000006FC1F3871546F0800607D20221FFF77F
:10150000C9FF65F03F0505704670EDE705F03F0542
:10151000B1F5803FC1F3073745F0800508D20321BC
:10152000FFF7B8FF67F01F03037045708670DBE7B5
:101530000421FFF7AFFFA40C07F03F0364F00F0492
:1015400063F07F03047043708570C670CCE738B5D4
:10155000054608460C4627F0ABFF214602462846C2
:10156000BDE83840FFF70ABF10B51446FFF718FF73
:10157000047010BD10B51446FFF712FF047010BDC3
:1015800043688B4234BF00235B1A4360704738B511
:10159000154642688A4204460B4603D929448A42CA
:1015A00001D8436038BD8068D21A521B01441844E8
:1015B00027F030FF6268521B6260F3E703781A0677
:1015C0000AD503F07F034022134207D110F8012F00
:1015D00002F0C001802905D01846704723EA0203B3
:1015E0005208F1E702F03F0242EA8313EEE7421CA1
:1015F00010460132037803F0C003802BF8D0704707
:101600000023814201D81846704711F8012D02F0DD
:10161000C002802A18BF0133F3E7014403460020CB
:1016200099421A4600D87047127802F0C002802A08
:1016300003F1010318BF0130F2E700007F289DBFCE
:10164000024B185CC0F34000002070479DE905087C
:101650007F289DBF024B185CC0F3C000002070477C
:101660009DE905087F289DBF024B185CC0F38000F0
:10167000002070479DE905087F289DBF024B185C3C
:10168000C0F38010002070479DE905087F2809D825
:10169000064B1B5C13F00C0F06D1A0F15F03584200
:1016A0005841704700207047012070479DE90508A8
:1016B0007F289DBF024B185CC0F3001000207047CC
:1016C0009DE905087F289DBF024B185CC0F34010C0
:1016D000002070479DE9050808B50246FFF7E8FFBE
:1016E00000B12032104608BD08B50246FFF7EAFFF8
:1016F00000B1203A104608BD3038092884BF20F0D8
:1017000020000738704710B501440246E524002048
:10171000914203D8B0FA80F0400917E012F8013B7B
:1017200030B103F0C003802B11D10138C0B2EFE714
:10173000BF2B09D9F72B09D8DB0803F0060344FABD
:1017400003F303F00300E3E71B06E1D510BD00201F
:10175000FCE7023981420B4603D31A880239002A7A
:10176000F8D00233181A4010704770B51C09944223
:1017700015D2121B01EB4401154603F00F030E4670
:10178000012D31F8024B18BF3468DC40A4B2013D92
:1017900020F8024BF3D104B9013A104670BD002283
:1017A000FBE7F0B5059E0024921B2546A6420ED10C
:1017B0007600841900230E449A4213D104EB4203AD
:1017C00015B124F812500233181A4010F0BD31F848
:1017D000147033F814C067443D4420F814502D0CA5
:1017E0000134E3E736F813100D4424F813502D0CA0
:1017F0000133E1E7F0B4049E0025921B2C46AE4273
:101800000AD17600851900230E449A420FD105EBC8
:101810004201F0BCFFF79DBF31F815703C4433F82E
:101820001570E41B20F8154024140135E7E736F85D
:1018300013100C4425F8134024140133E5E72DE977
:10184000F043079CDDF828E0DDE90876551E0239F3
:1018500084464FF6FF78A4EB02096C1C0AD100EB1A
:1018600042011FB1012320F812300231BDE8F043DC
:10187000FFF76FBF31F8024F4444264409EB0504DB
:10188000AC4296BF1C884FF6FF744444744486EA09
:10189000040E17FA8EF72CF8027B98BF02334FEA3A
:1018A000144E360C3F0C013DD7E738B502290446EB
:1018B000806838BF02210D4618B12368B1EB930F41
:1018C00007D96900FEF7FBFC2368A06065F39F035E
:1018D000236038BD38B505460C20FEF7D5FC2A78C4
:1018E000037862F300036FF3410304460370286832
:1018F0002368C0F39D0060F39F0323606B686360FF
:101900004000FEF7C1FCA0602A68A968C2F39D02EE
:10191000520027F053FD204638BD10B501394B1C4D
:1019200001D1002010BD30F8113032F811401B1BDE
:10193000002B04DB01F1FF31F1D00120F2E74FF081
:10194000FF30EFE710B5044638B18068FEF7C4FCFD
:101950002046BDE81040FEF7BFBC10BD38B50546B7
:101960000C460221FFF7A1FF2B78002CB5BF43F0F6
:1019700001036FF300032B702B704FF00003B8BF0F
:1019800064426B6004B938BDD5E90132581C686007
:1019900022F81340240CF5E70023C0E900338360EC
:1019A000704728B103789B0702D48068FEF794BC87
:1019B000704738B505460C464968FFF776FF227830
:1019C0002B78A86862F300032B7063686B60626811
:1019D000A1685200BDE8384027F0F0BC0A4629B99A
:1019E0000178426062F3000101707047FFF7B6BFF3
:1019F00008B5FFF7D1FFBDE80840FFF7EFBF30B4EF
:101A0000057805F0FE0545F002050570056862F3EE
:101A10009F0500220560C0E9012130BC1946FFF78F
:101A2000DDBFF8B504469DF818501E461746042140
:101A3000FFF73BFF3846314623787DB1002F76F122
:101A400000020BDA43F001037842237066EB460193
:101A50000023636050EA010304D1F8BD6FF3000373
:101A60002370F5E7D4E901325D1C656022F81300AC
:101A7000030C43EA01430A0C18461146EAE72DE934
:101A8000F04110EE106A0378F20F62F30003037066
:101A9000C6F30F4313F4FF43074607D13B786FF3B8
:101AA00000033B7000237B60BDE8F081B3F5FF4F7E
:101AB000F4D0C6F3C754A4F17F05002DEEDB04D1AA
:101AC0000121BDE8F041FFF749BF162DC6F3160608
:101AD000D8BFC5F1170546F40006DCBFEE4000256F
:101AE000A4F16F084FF01003C8BF093598FBF3F855
:101AF000CCBF963C2C464146C4BF05F00F0594FB75
:101B0000F3F4FFF7D2FEC7F8048024B1620000218D
:101B1000B86827F097FC45B1BB6806FA05F2C5F135
:101B2000100523F81420EE40013464004FEA480801
:101B30004445B9D0BB681E53360C0234F8E72DE992
:101B4000F84304468F18C2F35B020D469846511CB9
:101B5000089EFFF7AAFE2278B8F1000F0CD042F0E1
:101B6000010200232270636028461FFA86FCB842F7
:101B700005D3401BBDE8F88368F30002F1E7027863
:101B8000A2F13003092B00F1010E05D9A2F14103A6
:101B9000192B15D8A2F13703B342EAD2D4E90101D7
:101BA00080468946B8F1000F11D101EB400213B114
:101BB00021F810300232521A521062607046D6E795
:101BC000A2F16103192BD4D8A2F15703E4E7B9F8C5
:101BD000002002FB0C3329F8023B08F1FF381B0CF4
:101BE000E0E7F8B5044615461E46C1B1531E1E4433
:101BF0004FF0FF37E9000F3109092046FFF755FE86
:101C0000237800216FF30003237061604DB9D4E99C
:101C1000011000EB4101FFF79CFD6060F8BD01275A
:101C2000E8E700230F2908DC32788A401343013D9E
:101C30009BB201F108013E44F4D16268501C60601F
:101C4000A068103920F81230E0E738B50B78057835
:101C5000044603F0010305F00100181A0A460BD1EF
:101C600061685368994208D30AD89268A068FFF760
:101C700054FEEB0748BF404238BD4FF0FF30F8E755
:101C80000120F6E7884210B5044601D0FFF791FE27
:101C900023786FF30003237010BD884210B504460B
:101CA00001D0FFF786FE63683BB12378C3F30002DF
:101CB000C2F1010262F30003237010BD88421FB518
:101CC000044601D0FFF775FE626862B90121204623
:101CD000FFF7EBFDA268012313806360237843F0D4
:101CE0000103237010E02378D9070FD56FF30003A9
:101CF000A16823700123ADF80E30009308460DF162
:101D00000E03FFF777FD606004B010BD511C204644
:101D1000FFF7CBFDD4E901210123ADF80E3000938C
:101D200008460DF10E03FFF73CFD6060D6E72DE994
:101D3000F0470E4649680546174601B12AB93146B3
:101D40002846BDE8F047FFF734BE02F10F0424092E
:101D50002144FFF7AAFDD6E9011017F00F026FF03A
:101D6000004E04EB010707EB0E086FF0010C0CFBB3
:101D700001FCAB684FEA48088E440CEB4E0E08BFDE
:101D80001022C444864403EB0C090020C2F1100267
:101D9000F1B9D04023F80C006FF0010303FB04936A
:101DA00004F100420233013A1846520027F04AFB80
:101DB00008F102080346434417B133F8022D92B1EB
:101DC0006F6032782B7862F300032B70BDE8F087E8
:101DD0003EF811A04AEA000020FA02FA29F811A000
:101DE00000040139D4E7013FE6E7F0B50E46496843
:101DF00085B00546144601B12AB931462846FFF799
:101E0000D8FD05B0F0BDFFF750FDD6E9012123460E
:101E1000A868FFF7AAFC686031782B7861F30003AB
:101E20002B70DB070246ECD500237768ADF80E3047
:101E300021099F4201D08B4212D18F42E1D9B36870
:101E400004F00F0433F81110012303FA04F4013CE9
:101E5000214218BFADF80E30BDF80E304BB9D0E7B7
:101E6000B06830F8130078B101238F42ADF80E301E
:101E7000E5D8A96801234AB1009308460DF10E0385
:101E8000FFF78FFC6860BCE70133D2E70B806B6023
:101E9000B7E773B553680C4649689942064615463C
:101EA00006D308D89268A068FFF737FD002802DA49
:101EB00023462C461D4623782A7861685340DB0769
:101EC0001BD401313046FFF7F0FC6B680093AB6820
:101ED000B068D4E90121FFF764FC70602378726870
:101EE000C3F30003002A0CBF002303F00103327880
:101EF00063F30002327002B070BD3046FFF7D5FCCC
:101F00006B680093AB68B068D4E90121FFF772FCFD
:101F1000E3E7F7B553680C4649689942054616460B
:101F200006D324D89268A068FFF7F7FC00281EDAD1
:101F30002346012734461E46237832786168534091
:101F4000DB0716D501312846FFF7AFFC7368009315
:101F5000B368A868D4E90121FFF723FC68606A68C8
:101F60002B7892B962F300032B7003B0F0BD002709
:101F7000E2E72846FFF799FC73680093B368A86806
:101F8000D4E90121FFF736FCE8E7227802F00102EC
:101F9000002FE7D0C2F10102E4E72DE9F04F164629
:101FA0004A6873689A4224BF33460E460D4628BFDE
:101FB0001D4633787168DA0785B0044621D42B7842
:101FC00013F001071DD1FFF770FCD5E9011CA068D3
:101FD000B6683B4699420BD100EB4101FFF7B9FBD4
:101FE000237860606FF30003237005B0BDE8F08FC5
:101FF00036F813203CF813502A4020F81320013300
:10200000E8E701312046FFF750FC32782978D6F80E
:1020100004C0A068D5F8088082EA0103DB4303F01E
:1020200001035F420093B368BFB202F00102A3F163
:1020300002096B68029701F001015742BFB2C1F17A
:10204000000EA3EB0C0301971FFA8EFE0CF1FF3775
:10205000824603937B1C16D1009B00EB4C011BB105
:10206000012320F81C300231FFF773FB60603378E6
:102070002A78C3F30003C2F300021340227863F30B
:1020800000022270B1E739F802BF019B83EA0B0B13
:10209000039B5A4403EB070BBB4598BFB8F800B04D
:1020A000029B94BF8EEA0B0BF346594402EA010BE4
:1020B0008BEA030B009B13FA8BF32AF8023B4FEADF
:1020C000134398BF08F10208090C120C0093013F5A
:1020D000C0E72DE9F84F15464A686B689A4224BF5D
:1020E0002B460D460E4628BF1E462B786968DA0738
:1020F00004462ED4327812F001082AD1FFF7D5FB1E
:10210000D6E9013CA9686D68A768ED1A424693427A
:1021100010D15B00194400223B44954213D103EBDC
:102120004503DB1B5B10636023786FF300032370B0
:10213000BDE8F88F31F812003CF81260304327F800
:1021400012000132E3E731F8120023F812000132E5
:10215000E3E701312046FFF7A8FBD6E901382F78E5
:1021600036786968A068AD6807F0010706F00106D7
:10217000C7F1000EC6F1000C1FFA8EFE1FFA8CFC90
:102180004A1E023D82464FF00109A3EB010B531C8E
:1021900008D100EB4101FFF7DCFA2378606043F0DF
:1021A0000103C4E735F8023F8EEA03031F440BEB3B
:1021B0000203934296BFB8F8003063468CEA0303EB
:1021C0001E4447EA06036FEA030319FA83F398BF34
:1021D00008F102082AF8023B360C3F0C4FEA13497B
:1021E000013AD4E7F0B514464A6863689A4228BFBA
:1021F00023460E4624BF0C461E4627783378616876
:102200005F4017F0010785B005463AD1FFF74DFB57
:10221000237813F0010328D1D6E90117A268646876
:10222000A868641A994210D149000A440023014465
:10223000A34214D101EB4301FFF78BFA2B786860BE
:102240006FF300032B7005B0F0BD32F8136037F860
:1022500013C086EA0C0620F813600133E2E732F877
:10226000136021F813600133E2E7CDE902770197AB
:1022700073680093B368A868D4E90121FFF7DFFA17
:10228000DCE70131FFF711FB3378A868DB4303F08B
:10229000010303932378DB4303F00103029301233B
:1022A000019373680093B368D4E90121FFF7C7FA7B
:1022B0002B78686043F00103C4E72DE9F04F4B68C9
:1022C00085B004460E4615460BB1536843B92378D2
:1022D0006FF3000323700023636005B0BDE8F08F47
:1022E00081422FD1FFF7F6FAA5420646074600D1F4
:1022F00005466B68716820461944FFF7D6FA2268D4
:10230000A068C2F39D025200002127F09BF8B36839
:10231000D6F804C002936FF00103D4F808A003FBC1
:102320000CF3D5E90128023B0AEB4C010020039392
:1023300092B3039BDDF808B0CDF804C003EB010EA7
:10234000002318E0824204D1FFF7C4FA054607468D
:10235000CFE70027CDE73EF8029F99443BF8023BC8
:102360001846B8F8003003FB00930198AEF800302F
:1023700001381B0C019001980028ECD1084601F1AE
:10238000020E0BB10B807046A0EB0A004010013A20
:1023900008F102087146CBE76060337829784B403A
:1023A00013F0010F237838460CBF62F3000343F0AB
:1023B0000103237005B0BDE8F04FFFF7C3BA4B68C7
:1023C00070B50546144613B11378DA0706D52B7895
:1023D0006FF300032B7000236B6070BD636823B93B
:1023E0000121BDE87040FFF7B9BA0846FFF772FA5D
:1023F00006462046FFF76EFA012104462846FFF7FD
:10240000ADFA636883B1A3681B88DB0704D5324645
:1024100029462846FFF751FFD4E901210123084648
:10242000FFF7A3F9606038B93046FFF78BFA204612
:10243000BDE87040FFF786BA324631463046FFF7B6
:102440003CFFDEE72DE9F04F0C46516891B0914614
:10245000013105460393FFF728FAD9F80420A8684C
:1024600001325200002126F0EDFF2B786FF30003BC
:102470002B7000236B60D9F8041020460131FFF760
:1024800014FA49462046FFF794FA039B6768D4F88C
:1024900008B0D3E901360193AB680493019BBB42BA
:1024A0003CD83DD3324639465846FFF736FA002825
:1024B00033D1049A6060012313806B6023786168D4
:1024C000C3F3000200290CBF002202F0010262F3F4
:1024D0000003039A237099F8003012785340DB0709
:1024E00018D56B682A78003318BF012363F3000204
:1024F0002A70636873B14FF0FF310DA8FFF778FAC7
:102500000DAA29462846FFF7C4FC039A2146204617
:10251000FFF7BFFC11B0BDE8F08F01DA0023CCE774
:10252000019B03F1004001384FEA400A36F81020C1
:10253000002312F4004F03F1010153D07A009BB243
:102540004FF0000E791C02F102080292C3F1100252
:102550002BF817E0D8446160DC4677460592C44505
:1025600044D336F8100000FA03F20592019A012ACA
:1025700009D906EB0A00C3F1100730F8020CF84045
:10258000059F07430597019A891A6960049A01F12A
:102590000041013902EB410207920AF102020B925B
:1025A000029AB11E5A440A91D4F804A001990692E5
:1025B000514527D30AF1004A0AF1FF3A0BEB4A0AC8
:1025C0000020C3F11006D34575D96FF000416B6848
:1025D0002BB15A18049830F81220002A75D06FF0E9
:1025E000004177E0520092B20B46A2E7BCF800E04F
:1025F0000EFA03F21743059A2CF8027B2EFA02F723
:10260000BFB2ACE7108832F8021C41EA00410598DD
:10261000B1FBF0F10B980291101A089000260A986D
:10262000089F0990B646BA420ED806990888023A21
:102630000644002E39D10799029821F80209079122
:102640000AF1FF316160AFE70999B7F8008031F80E
:10265000020F0991984040EA1E4E02991FFA8EF02F
:10266000484318FA86F81FFA80FC000CA8EB0C0C03
:10267000C0EB264027F802CB00EB2C46D3E738F816
:1026800002CF0CFA03FC4CEA1E4EB0F800C017FA59
:102690008EF7674420F8027B3F0C06998142EED802
:1026A000029901393E440291C3E70027DDF82880F2
:1026B0000898BE46F1E7BAF8002042FA03F1014358
:1026C000B2402AF8021990B27DE7013B6B607EE7C9
:1026D000013B63606368002B3FF4F0AE5A183BF88F
:1026E0001220002AF4D0E9E6F0B51F464B6885B009
:1026F00004460D4616464BB11378DA0706D47B68BC
:10270000012B0BD1BB681B88012B07D123786FF3FA
:10271000000323700023636005B0F0BD0121204653
:10272000FFF71CF97368002BF6D02846FFF7D2F8A4
:1027300005463046FFF7CEF8064601A8FFF72CF90C
:102740007368B3B1B3681B88DB070AD52A462146F4
:102750002046FFF7B2FD3B462246214601A8FFF77F
:1027600071FED6E9012101230846FEF7FEFF7060E5
:1027700048B901A8FFF715F92846FFF7E3F83046F6
:10278000FFF7E0F8C8E72A4629462846FFF795FDF7
:102790003B462A46294601A8FFF754FED0E710B56C
:1027A000D0E90121002301EB4202914205D30278D6
:1027B000D20748BF5B42184610BD32F8024D44EACA
:1027C0000343F2E730B5D0E90124002304EB4202D1
:1027D000944206D30278D20748BF5B420B600120C7
:1027E00030BDB3F5004F04D232F8025D45EA034331
:1027F000EEE70020F4E72DE9F0470746D1B198183D
:10280000D7E901E40025A4F1020C4FF001092E469E
:1028100003EB0208BEF1000F0ED1B1B3C21A184685
:102820003B7813F0010F14BFFF210021BDE8F047F2
:1028300026F008BE1846E3E73CF8024F103644EA9B
:10284000054597F800A0072E0AF0010A02DC0EF1F8
:10285000FF3EDFE7ACB2BAF1000F05D0E44359FA0E
:1028600084F4A4B24FEA1429E4B249B100F1FF3A6A
:1028700000F8014C53450BD0083E2D0A5046E0E7C6
:1028800000F1010A0470C245F5E713441A1AC7E7BC
:10289000BDE8F087D0E901329FED0C0A9FED0C7A7C
:1028A00002EB43039A4205D30378DB0748BFB1EE3E
:1028B000400A704733F8021D07EE901AF8EEE77AE7
:1028C000E0EE077AB0EE670AECE700BF0000000018
:1028D000000080472DE9F84F44689DF828A00B9D23
:1028E0008046894616469B469CB982B1561E2B46A9
:1028F00016F8012F18463AB930230370002300F868
:10290000013F401BBDE8F88F03F8012BF0E7284694
:10291000F2E764002046FDF7B7FC22460746D8F8E8
:10292000081026F04BFDABF13A0B28462A4607EB80
:10293000040CACF1020300219F421C4632D9303115
:10294000392988BF5944541C11703B469C4519468F
:1029500032D8BAF1000F08D00123211A032902BF8F
:10296000941C82F801A02046D3B13846FDF7B4FC90
:102970003EB1304626F09CFD23463044B0421C4612
:1029800023D898F80030DB0742BF2D232370013491
:10299000631E2A469A421DD300232370601BB1E7B1
:1029A0002246C6E7248844EA0141B1FBF9F423F842
:1029B000024909FB1411BFE7098802330029C5D079
:1029C000BAF1000FECD00023C7E710F8012D03F88F
:1029D000012BD3E71178187802F8010B03F80119DD
:1029E000D8E7D0E9023293423DBF5A1C8260187882
:1029F0004FF0FF307047036810B5044613B14068CC
:102A0000FDF76AFC2046BDE81040FDF765BC0000FC
:102A1000F8B5054610200C461F461646FDF734FC57
:102A2000054B8460C0E900743444C4606B60034BA0
:102A30002860AB60F8BD00BFE3290208F72902084F
:102A400002690A2A10B5044635D1836A01338362CC
:102A50000123A269E36263696261226F2361002A34
:102A600031D0616E8A423FBF501CA16E20678A5CE4
:102A700028BF0022A2613BB9E2692261226A626139
:102A8000626AA2616366236763690D2B08D1A3693B
:102A90000A229342626103D1D4E901039847A061FD
:102AA000A369013306D163695A1C03D00A2B1CBFEA
:102AB0000A23A36110BDC36A092A04BF073323F0A8
:102AC00007030133C5E7D4E901039847A061DBE7B9
:102AD00038B504460D462069431C1AD00A2806D191
:102AE0000DB1636BB3B12046FFF7AAFFF3E7FEF722
:102AF000A5FD0028F7D12369232B08D12046FFF735
:102B00009FFF23695A1CE6D00A2BF7D1E3E75C2B21
:102B100002D00025284638BD63690A2BF9D120462A
:102B2000FFF78EFFDFE700000369272B2BD0222B56
:102B300029D0A3F1620113291ED8174ACA40D2072F
:102B40001AD54269272A1ED0222A1CD0722B1CD1EA
:102B5000662A06D18269272A15D0222A13D0722B21
:102B600015D14369622B0CD1806927280BD0A0F1C5
:102B70002203584258417047662BF0D14269722AAD
:102B8000E8D00020704701207047662BF6D0622BFA
:102B9000F7D14369722BE6E711000900436E2DE976
:102BA000F74F0446A3B1036F93B929216030FEF7B4
:102BB0008BFC2369E36163692362A3696362A36E8B
:102BC0001A7822615A7862619B78A3610323236794
:102BD0000023636501212046FFF77AFF216BA36A7A
:102BE00063640029E36AA364054607DA082384F8CE
:102BF0004C300131216303B0BDE8F08F04D00723CE
:102C000084F84C300139F5E7002836D02046FFF72C
:102C10005FFFD4E90F20062384F84C306FF00043A7
:102C2000D118E56A30F81110013D8D42E3D019D971
:102C3000A16B8A4207D308314900FDF740FBA36B23
:102C400020640833A363D4E90F32591CE16322F8EE
:102C50001350236B01332363CDE7013AE263226B08
:102C6000013A2263E26BD11830F811108D42F4D38F
:102C7000C1D0022384F84C30BDE72669771C02D10D
:102C800084F84C00B7E72046FFF74EFF07460028C0
:102C900000F0C48184F84C502369752B53D0622B0B
:102CA0003DD16369722B4FF000054FD02E464FF097
:102CB00001080D2394F84C20002A52D184F84C309E
:102CC000B8F1000F08D02046FFF7BAFEB8F1020FA6
:102CD00002D12046FFF7B4FE2369222B0CBF22232A
:102CE000272320460093FFF7ABFE2369009A934207
:102CF0003AD163699A4237D12046FFF7A1FE2046B8
:102D0000FFF79EFE4FF0030825B1C14904F16000B2
:102D1000FEF71DFC4FF0000B04F1600A4DE0722B32
:102D200006D16369622B10D0662B13D10523A1E76E
:102D3000662B12D16369722BF8D03D4600264FF006
:102D400001080C23B6E70025F8E700253E464FF0C2
:102D50000208AEE700253E46F1E700252E46A846CC
:102D6000EFE79A42ACD046E74FF00108CCE7009A73
:102D70009A4218D004F1500B21690DB17B2938D04B
:102D80005C2940F03D8120460191FFF759FED4F8BF
:102D900010900199002E00F0848004F15000FEF79D
:102DA0009AFBCB46FEE0009904F150000BF1010BB9
:102DB000FEF791FB2046FFF743FE2369591C00F004
:102DC0002181B8F1010F02D10A2B00F01B81C3450C
:102DD000CDD3594604F15000FEF7D2FB0121204625
:102DE000FFF776FE2046FFF79FFE00287FF454AFE2
:102DF00001E72046FFF724FE21697B290AD15846C6
:102E0000FEF762FB2046FFF71BFE7B215846FEF7CC
:102E10005BFBB1E728215046FEF756FBD4F86490DF
:102E200000222169481C0FD03ABB3A290CD07D29D9
:102E30000AD0212921D160697238012822D8A069DD
:102E40003A2801D07D281DD1D4E91921881810F81D
:102E5000010C3D2808D1A2EB090249445846FEF76F
:102E60008DFA636E013B636650462921FEF72CFB09
:102E70002C215046FEF728FBC7E721F020005B28F5
:102E80000AD10132C9B250460192FEF71DFB20461D
:102E9000FFF7D6FD019AC4E75D2808BF02F1FF32B3
:102EA000F0E7B9F1620F52D029D8B9F14E0F00F016
:102EB000838010D8B9F1220F1FD0B9F1270F1CD091
:102EC000B9F10A0F40D0A9F1300BBBF1070F40F266
:102ED00085805C2161E7B9F15C0F0ED0B9F1610F1B
:102EE0007FD0B9F1550FEED194F84C200D2A3AD18C
:102EF0005C2104F15000FEF7EEFACB461BE0B9F17D
:102F0000740F27D00BD8B9F16E0F26D0B9F1720F1C
:102F10000FD0B9F1660FD6D14FF00C0B0BE0B9F121
:102F2000760F1DD0E0D3B9F1780FCCD14FF0020964
:102F300020E04FF00D0B94F84C300C2B54D1594637
:102F400004F15000FEF7C7FA4FF0000B32E74FF0E4
:102F5000080BF0E74FF0090BEDE74FF00A0BEAE73B
:102F60004FF00B0BE7E7B9F1750F14BF4FF00809ED
:102F70004FF004094FF0000B11E02046FFF760FD11
:102F8000226901921046FEF777FB002800F0548179
:102F9000019A1046FEF7B0FB4FEA0B1B834419F170
:102FA000FF39EAD2BBF1FF3FCED01A4B9B45C2D9C5
:102FB000012384F84C30C7E717480AF053F820463D
:102FC000FFF73EFD2269303A02EBCB0B6269303AE3
:102FD000072AE7D8B9F10109F1D1E3E74FF0030976
:102FE000F4E74FF0070BA6E7BBF1FF0FE0D80D2B7E
:102FF000DED15FFA8BF104F15000FEF765FAA3E72A
:10300000C9B2F8E7C3453CBF032384F84C30E0E67F
:1030100062EA0508FFFF10006BEA05083046FEF77C
:1030200017FB054620691DB95F2801D07F283ED9CE
:10303000092384F84C3004F15005C1B22846FEF74C
:1030400043FA2046FFF7FCFC2069421C1BD12846AE
:10305000FEF72BFA7B4F0646002557F82510304621
:1030600026F030FA00281CD10F35EDB2122D84F86D
:103070004C507FF4C0AD744BD3F8E831002B14BF33
:103080000F231123F6E5FEF7E3FA40B920695F2824
:1030900005D07F2803D8FEF7E5FA0028D7D0217C99
:1030A000CCE7FFF6A8AD0135242DD6D1A3E5FEF778
:1030B000D9FA68B321692E2935D10B2384F84C3015
:1030C00004F150063046FEF706FA2046FFF7B8FC3A
:1030D0000B272069431C3FF48EAD002D35D120F025
:1030E0002003452B31D16521304684F84C70FEF722
:1030F000F2F92046FFF7A4FC21692B2901D02D29E4
:10310000E7D13046FEF7E7F92046FFF799FCE0E704
:1031100023692E2B04D16069FEF7A4FA0028C9D1D7
:1031200000254A4F31E00A23302984F84C30C7D1BA
:10313000656945F02005A5F16203162B9DBF444D3E
:10314000DD4005F001050025BAE7FEF781FA28B158
:1031500021692E290DD184F84C70D2E72069FEF741
:1031600081FA0028F4D123692E2BF1D05F2BCBD02C
:1031700041E521F020034A2BC3D1ECE7652E01D0B5
:10318000632E00D10137013501373E7816B123692E
:10319000B342F3D12046FFF753FC0EB9012369E592
:1031A000212E07D123693D2BF8D12046FFF748FC9B
:1031B0003A235FE52E2E0FD123692E2B02D16369AE
:1031C0002E2B01D05D2355E52046FFF739FC204624
:1031D000FFF736FC0E234DE56FF0010303FB057787
:1031E0002B4607EB45025678632E01D0652E0BD196
:1031F0000135216917F81520914213D12046FFF7B8
:103200001FFC2B46652EECD1124AD35C84F84C305F
:1032100003F0FD02552A01D0592B05D1636B013310
:103220006363E8E4632EEEE7562B02D0582A7FF45E
:10323000E2AC636B013BF3E7012384F84C30834637
:1032400079E600BF30EB0508402C00201DEA050898
:103250000120400004EB05087FB5064601AD74204F
:1032600085E80E00FDF710F80446034695E80700D0
:1032700043F8046B83E8070001236FF00102002587
:10328000C4E90A320A22C4E90E23C4E90C55142009
:10329000FCF7FAFF2021206404F15000FEF797F8B4
:1032A000294604F16000FEF792F8236C256720465A
:1032B0001D80C4E905552561FFF7C2FB2046FFF7D5
:1032C000BFFB2046FFF7BCFB2046FFF767FCA36C63
:1032D000012B06D094F84C30062B1CBF072384F832
:1032E0004C30204604B070BD30B585B001AC054609
:1032F0002046FFF78DFB94E80E002846FFF7ACFF51
:1033000005B030BD30B585B001AC0546014620465C
:103310001FF088FB94E80E002846FFF79DFF05B0DC
:1033200030BD10B5044690B1C3684068984704F1B9
:103330005000FEF775F804F16000FEF771F8206C9C
:10334000FCF7CAFF2046BDE81040FCF7C5BF10BD22
:10335000D0E90432013B036152F823007047C1F108
:103360007F5101F57F11036901F57F513F31194408
:10337000436953F821007047F8B5446A06460D4684
:10338000B4B1D4E900030B44834222D908310022AE
:1033900001442046FCF79EFF0246B8B9616820460A
:1033A0000831FCF797FF63682360336A6360346217
:1033B000802D2F4638BF802707F10800FCF764FFF7
:1033C0000023076043600446706202E023682B44D8
:1033D000236060680544656008342044F8BD38B552
:1033E0000D46D0E903138B42044608D310318900FF
:1033F0004069FCF764FFE36860611033E360D4E97F
:103400000432591C216142F8235038BDF8B50D46ED
:103410001F46D0E900138B420446164608D31031EC
:10342000C9008068FCF74BFF2168A0601031216063
:10343000D4E901104B1C636050F8312065F317028A
:1034400000EBC10340F83120DE705F60F8BD10B4BE
:103450008469CAB20023616C5DF8044BFFF7D6BFE4
:1034600010F001021CD110F003030CD000F00F0388
:10347000062B15D00A2B11D100090E3803288CBF5A
:1034800000200120704770B102793A2A08D02D2A15
:1034900008D18068B0FA80F0400970471046704744
:1034A0000120704718467047C20702D540F001005E
:1034B0007047830710D0030900F00F00062803D1DE
:1034C000D80040F002007047A3F10F00022809D88D
:1034D000064B53F82000704730B103793A2B03D1E3
:1034E000806870470248704702487047C0EB050883
:1034F000E4100608C017060838B505460C46FFF765
:10350000AFFF38B12846FFF7CFFF0AF0EBFD031BF2
:103510005842584138BDF8B505460F461446164680
:10352000A6B93146204611F0CFFF0646C4B90C219A
:103530002846FFF721FF4FF49D7301460760C0E95D
:1035400001362846FFF74BFF012008E0013E3146D7
:103550002846FFF704FFFFF783FF0028E0D1F8BDFE
:103560002846FFF7F5FE013C0146FFF79DFF06EBFD
:10357000840398600029D9D08B07D7D1686A00F1FD
:1035800008039942D2D3426813449942CED24B6881
:103590001B0A0233A2EB83034360C7E738B5D307A6
:1035A0000D46144602D542F0010038BD0C21FFF74C
:1035B000E3FE4FF49D730560C0E90134F5E70000B8
:1035C000F7B58669054696F84C0009280F461FD1C5
:1035D000D6E91510FDF736FD902F04460ED1C10037
:1035E000002241F0020105F128000AF01DF928B17E
:1035F0004268716C2846FFF7D1FF02E0200140F0DD
:1036000002000146284603B0BDE8F040FFF7E7BEE0
:103610000A2807D100223346D6E91510DFF73CFC13
:103620000246E6E70B2812D1009600230122D6E9D4
:103630001510DFF7AFFC04460C212846766CFFF727
:103640009BFE4FF49D730660C0E90134D9E70C2856
:1036500013D1D6E915100A2906D8FDF7F3FC30B1CD
:10366000000140F00600CCE7FDF7A0FCF7E7D6E943
:103670001521074810F080F8DDE70D2804D1D6E9C0
:10368000151010F063F9D6E7000140F00A00B8E722
:103690005816060810F0010204D040F0010008603E
:1036A00001207047A8B110F003030FD102793A2A24
:1036B0000ED183680B6013F001000AD19A0708D17C
:1036C0001868044BC31A5842584170471046704757
:1036D00018467047BC0906080021FFF70DBF0121FD
:1036E000FFF70ABF2DE9F04F2D2A85B00446884622
:1036F00016461D4610D10021FFF731FE20B1870785
:1037000027D10379922B24D1A6F11E03012B00F2BD
:103710008180A946AA462FE0922A1DD10021FFF7F9
:103720001EFE01460028EFD08807EDD10B79952BBE
:1037300004D12046FFF70CFE013DE5E7962BE3D1CF
:103740002046FFF705FE4B6823F0FF0343F092038A
:103750004B6005B0BDE8F08F962A08BF0135D3E76E
:103760001E2E4AD1FFF7BBFFD8B95846FFF7B4FF6A
:10377000002818BF5746BA460AF1FF37B9F1000FC3
:103780000FD009F1FF3949462046FFF7E8FD2369CC
:103790006269A3EB0A03834642F82300B9F1000FE4
:1037A000DED10021B94230D16D1A012DD1D0A6F160
:1037B0002303022B01D92A2E71D1691E2046FFF75F
:1037C000CEFD01A9FFF766FF00285BD0232E3BD07A
:1037D000242E3CD0252E14BF4FF022094FF018099B
:1037E000AF1E002F36DA002D40F05F812946019A86
:1037F0002046FFF7D3FE01461FE0FFF76DFF0028CC
:10380000CFD15846FFF76BFFB2E72046FFF7A0FD88
:103810000131C7E7202ECAD100212046FFF79FFDC6
:103820000746FFF759FF60B93846FFF758FF0028F1
:10383000BDD0FA212046FFF78BFD2046FFF7CFFDD4
:1038400087E74FF48D71F5E74FF01609C8E74FF0A1
:103850001709C5E739462046FFF781FD02A9FFF7A2
:1038600019FF78B1B9F1220F07D0DDE901124846FE
:1038700009F014FA013F0190B3E702980DF06CFCD7
:103880000028F2DA922E40F01581D4E9012303EBEF
:10389000C20313F8053C2D2B40F0C48021E1A6F1B2
:1038A0002603022B38D8691E2046FFF758FD01A9D0
:1038B000FFF7F0FE0028E5D0A5F10209B9F1000FED
:1038C00091DD09F1FF312046FFF749FD02A9FFF71D
:1038D000E1FE0028D6D049462046FFF740FDC0F360
:1038E00007104328CED04528CCD02538C7B202983F
:1038F0000DF032FC1A2F0AD80028C3DBDDE90112D3
:10390000384609F0CBF9A9F102090190D6E71E2F3C
:10391000F4D90028F2D1B5E7292E18D1002120468C
:10392000FFF71DFD01A9FFF7B5FE00287AD00121A0
:103930002046FFF714FDC0F3071034281ABF4038A3
:10394000C0B20220019908F001FC01904BE7052E5E
:1039500074D100212046FFF702FD0746002861D000
:1039600010F0030A03D10379563B012B5AD90121E8
:103970002046FFF7F4FC00F00F03022B52D1BAF1FE
:10398000000F4FD13B792C2B4CD1BB6803F00F02B9
:10399000022A47D11B09482B44D1FB68002B41D098
:1039A0009A073FD11A79302A3CD1D3F808B04FEAB0
:1039B00010195846FFF754FD68B9594959480CF099
:1039C00041FAA1693A680968054653460CF006FBBE
:1039D0002846FCF72FFC5846FFF766FD4FEAC90161
:1039E0000746012241F0020104F1280009F01CFF02
:1039F00047604846FDF7F1FB03785F2B20460BD16B
:103A0000FFF7A6FC2046FFF7A3FC00230822194677
:103A10002046FFF767FE9CE6FFF79AFC59462046D2
:103A2000FFF7DDFCA91C89002046FFF7A5FC46EA4C
:103A300005230746C0F80080436062E02C2E7FF427
:103A400021AF01212046FFF78AFC002102462046D3
:103A5000FFF785FC02F00F03022BE3D10028E1D031
:103A60008707DFD10379322BDCD11109C9008768C0
:103A70002D48002241F0020109F0D6FE0028D1D0E5
:103A800002AA3909406808F07BFA029B002BC9D0D2
:103A9000D90705D49A07C5D11968244A9142C1D1E2
:103AA000039A002ABED101939DE62046FFF750FC01
:103AB000013D98E6962E12D1D4E9012303EBC2030F
:103AC00013F8153C2D2BADD12A4641462046FFF771
:103AD00022FD0028A6D06368023B636039E6062E0B
:103AE00019D12A4641462046FFF715FD00287FF4EC
:103AF00030AE97E72046FFF72BFC013D07EB85032F
:103B00009860002DF6D1962E03D139462046FFF756
:103B100066FC394691E6362EE3D0332EBCE600BF74
:103B200065EC0508D0050608CCEB0508BC090608BD
:103B3000036830B513B91360184630BD9C0702D036
:103B400010600120F9E75C68E5B28D42F8D10833D6
:103B50001360200AF1E700002DE9F04FB64B97B053
:103B60000024CDE9073102900F4605A8B349019220
:103B7000CDE90544FCF71EFB40234FF40070CDE96E
:103B80000934FCF781FB20230B908020CDE90C3415
:103B9000FCF77AFB2146CDE90E0713A8CDE91144C5
:103BA00009F004FE019B002B53D0022B0CBF3F22D7
:103BB00022460023796C09A8FFF728FC4FF0000883
:103BC0000A9C002C00F06D81013C0B9B9C4D0A94DB
:103BD00003EBC40253F83430D6785268C3F3170AA3
:103BE000984B13F806B0984B9B5D632E88BF43F447
:103BF000807305EB43050BF03003102B0BF00F091E
:103C000029D0202B5AD0B8F1000F40F024810BF0BE
:103C100001030393039B134035F8134024F47F61A1
:103C200021F00F01B1F5805F40F0308197F84C1022
:103C3000C4F30B04A14202F1010440F00B811BB953
:103C4000314609A8FFF7BCFC3846FEF7A7FF22461D
:103C5000E0E73D22ADE712B1B8F1000FAED005EBC1
:103C60004205914502D84FF00108A9E7A84635F86A
:103C7000023B23F47F6121F00F01B1F5805F0DD18C
:103C800097F84C10C3F30B03994215D109A831469C
:103C9000FFF796FC3846FEF781FF8FE7531C4B4534
:103CA00004D23246514609A8FFF7B0FBB8F800101D
:103CB00009A8FFF7CCFB81E70132D2E7B8F1000F8A
:103CC00011D002F10043013B35F8133023F47F6338
:103CD00023F00F03B3F5405F1BD1002109A8039225
:103CE000FFF77DFB039A05EB4204914525D8019B24
:103CF000002B46D1002405EB49092246A94560D195
:103D0000012A40F081801BF0400F7DD0002529461C
:103D100074E0012AA7D997F84C30072B40F0F080C7
:103D20004A494B480CF08EF8002304467A6C3968F7
:103D30000CF054F92046FCF77DFAA04634F8023B1B
:103D400023F47F6121F00F01B1F5805F17D197F85F
:103D50004C10DBB299420ED1092905D1314609A890
:103D60000392FFF72DFC039A03923846FEF716FFE5
:103D7000039A0132B9E7002A3FF475AFCBE7531C31
:103D80008FE7052EB6D1002109A8FFF7E8FA002831
:103D9000B0D1012109A8FFF7E2FA830700F0BE8045
:103DA00000F00F000228A5D009A8FFF7D1FA09A852
:103DB000FFF7CEFA00230822514609A8FFF792FC2C
:103DC000FCE639F8023D23F47F6121F00F01B1F5E3
:103DD000805F05D1DBB2092B90D1013401328DE730
:103DE000214609A8FFF7BBFA00B10132013485E78B
:103DF000FFF7AEFA0135002818BF0146A54209A811
:103E0000F6D1FFF7ECFAD9E61BF0800F04D00021C1
:103E100009A8FFF7E4FA013423463246CCE7012A29
:103E20003FF421AF12F001011CD0B9F1030F7FF470
:103E300072AF012116E000BF233302087DBE0208E5
:103E400022ED050871EC0508AAF0050800EC05084C
:103E5000FC0306082246B9F1020FE0D1012A3FF423
:103E600002AF00211BF0010F02F1FF3308D0688878
:103E700020F47F6020F00F00B0F5805F08BF53088A
:103E8000012BCAD100293FF499AEC6E7531C514615
:103E900009A83246FFF7BAFA214609A8FFF7D7FA70
:103EA0008EE613A809F09AFC129850B14168224698
:103EB0000831FCF70FFA129B5A681A60119A5A607F
:103EC000119397F84C30002B7FF425AF0D9B002BFE
:103ED0003FF421AF0E9B0B981B681093FCF7FCF985
:103EE0000E98FCF7F9F90120FCF76EF910AB93E896
:103EF0000300029B83E80300184617B0BDE8F08F6B
:103F0000022B01D109490CE7042B02D108490948C9
:103F100008E7052B0CBF08490849F8E700283FF4DB
:103F2000E9AE03793A2B7FF4E5AE3DE712EC0508E4
:103F300039EC0508D00506084CEC050861EC0508CD
:103F400010B5406800B910BD4468FCF7C5F92046BB
:103F5000F8E70000F8B5054630200E461746FCF796
:103F6000ACF9072D04460570C66001D0012D0ED1B5
:103F7000B3681B09A38207F0F5FB042320612783A4
:103F8000E3842020FCF780F9E0622046F8BD014B75
:103F90005B5DEFE75AF1050810B50446C06AFCF70F
:103FA0009BF92046BDE81040FCF796B930B5048D6A
:103FB0000022944202D80023184630BDC36A03EBA6
:103FC000C2035D688D42F7D00132F2E770B5044656
:103FD0000D461646FFF7EAFFC0B9E18C238D8B42F0
:103FE00008D30631C900E06AFCF769F9E38CE062A6
:103FF0000633E384238DE26A591C02EBC30021855A
:1040000002F83360002343704380456070BD43680D
:104010000BB9FFF7CBBF1846F9E7F8B544680F4670
:104020002CB9F8BD042BFCD105230370F9E7234616
:104030005D68002DF5D07E6818463146FFF7B6FF63
:104040002B460028F4D00378043B022BE9D8062342
:104050003B701D46002231462046FFF7B7FF03782C
:10406000002BDFD105706468F4E7036A1B8B012B1A
:104070001EBFC3685B18C3607047836A10B50446EF
:104080009B6F406A9847238B226A0133918C9BB2C5
:104090009942238338BF938410BD038B10B5013B35
:1040A0000383836A0446D3F88030406A98472046E9
:1040B0000121BDE81040FFF7D8BF2DE9F04180464F
:1040C0001F4659B111F0030510D14E68F3B2934267
:1040D0000CD1360A01F10804B54201DBBDE8F081DC
:1040E00054F8041B4046B8470135F5E740463B46C7
:1040F000BDE8F04118472DE9F04F044685B00D4664
:1041000091469A461BB1CB8A43F00803CB82236ABF
:10411000A5F81E90DA8A42F03002DA821B78002B72
:1041200049D1A36A606AD3F8B0604A46534629462B
:10413000B44605B0BDE8F04F6047DB6A03EBC60B41
:1041400013F83630053B012B20D8002319E0EB6A29
:10415000039A039903EBC20213F83130062B0ED1F8
:10416000DBF804105368994209D1A36ABBF8022016
:104170001B69606A1F460023B84708F10108039BCA
:1041800001330393039A2B8D9342E0DC0136236ABB
:104190001A8DB242D1DCD4E90903B8F1000FC0D0C6
:1041A000CDF800A0D3F8B44042464B462946A0477C
:1041B00005B0BDE8F08F0026B046E8E72DE9F041F4
:1041C0000446884611461A4600238578078A468A9F
:1041D000837003610F4BFFF770FF6368C3B9618A97
:1041E00051B1228A42B9A36A606AD3F89C309847D9
:1041F000A36A606A1B6C9847238A628A41462046FC
:10420000FFF779FF003518BF0125A5702782668268
:10421000BDE8F081F14E0208024B89689D22FFF74C
:104220004CBF00BF496B0208024B89686B22FFF745
:1042300044BF00BF69680208836A10B50446D3F81A
:104240008430406A00219847A36A606A1B6B102182
:104250009847A36A606AD3F8C8300121984720467E
:104260000321BDE81040FFF700BF38B5836A04465C
:104270005B6C406A00229847A36A606AD3F8BC501E
:1042800000231A461946A8472046BDE83840FFF7E4
:10429000D3BF836A89681B6D406A002209091847E9
:1042A000836A8968DB6B406A184710B50446084684
:1042B00011461A46FFF74EFE236A436000238360CF
:1042C000E36913B9E06110BD13469A68002AFBD177
:1042D0009860F8E770B54378012B05460C4606D187
:1042E000036A0A461B8B0221FFF7DFFF2061A268E9
:1042F000216928464C23BDE87040FFF75FBF70B5C9
:1043000013464278012A06460C4604D10A46072184
:10431000FFF7CBFFA061A569E26830464623294636
:10432000FFF74CFFA88A70BD2DE9F04F87B0054616
:1043300000AF0C4611B90121116013E011F0030622
:1043400019D10B79682B06D1CB681B0913608C68D7
:10435000002CF0D0012604F00F03022B0DD121090F
:10436000002EE9D0AB6A686ADB6A002298471C37E6
:10437000BD46BDE8F08F0026EDE716B9A3681B091E
:104380001360636804F1080B1B0ABB6003F1FF3A7A
:104390000BEB8308D94659F8040B0009FCF710FF12
:1043A000C8458244F7D10AF10E0323F00703ADEBB1
:1043B000030D6B46FB60C7F804D000235BF8040BC9
:1043C0003B6007F114010009FCF715FFD7F81480D2
:1043D00001464246F86824F0F1FFFB68BA6843449E
:1043E00098463B6801339A4217D151467868FCF7EA
:1043F00029FEAB6A0146DB6A686A00229847002EF4
:10440000B5D00C34A145B2D054F8041BAB6A686A2D
:104410001B6D002209099847F4E708F10102FA60D0
:104420004FF02E0288F80020C8E7036823B919B1BD
:104430008B0704BF0B6803607047000038B5436802
:1044400004460D465BB9114605480BF0FBFC2946B6
:10445000606004F10800BDE83840FFF7E6BF38BDF2
:10446000D00506082DE9F04F04460D4662702B7802
:104470002162072B4FF000018DB01646C16005D0B8
:10448000854AFFF7DBFF0DB0BDE8F08F012A05D0AC
:10449000036B021D1B68C06A314698476378D5F8E4
:1044A0000C80032B10D10BAA462108F10C00FFF75A
:1044B0003FFB236B0B9A9B680146E06A9847636851
:1044C0006883002B40F0B080D8F81010002944D049
:1044D00001F00F05022D3CD10B095E2B0ED004D844
:1044E0003E2B0AD06D4A2046CBE7752B37D040F2E1
:1044F000CB429342F6D1032500E00125D8F81430D1
:10450000089309AA192108A8FFF712FB4FF0000928
:104510000590059B994524D16378012B15D9236B10
:10452000E06A5B68294698476378042B0DD1206ABE
:104530000395438B02930023CDE90033E26A0069BF
:10454000D2E90232052107F024F96368002B6BD110
:1045500099E7534A2046FFF771FF0225CEE7002571
:10456000CCE7099B53F829100B79082B4FEA890BEC
:1045700002D109F10109CCE7052B01D0494AB2E784
:10458000CB68002BFAD18B681A792C2AF6D19F6858
:1045900007F00F02022AF1D1DB680493002BEDD063
:1045A0009A07EBD11B79302BE8D1049B0AAA03F1BF
:1045B0000800A421FFF7BCFA3F0940F2CF339F4225
:1045C00082461BD1012805D10A9A136803F00F0314
:1045D000022B04D0344A099B53F80B1083E7E1689F
:1045E000012E01F10103E36019D01268236BE06A28
:1045F000DB681209984790B92C4AECE7B7F5417F80
:1046000016D1012803D10A9B1968C80701D4284A8A
:10461000E1E7012E03D04910E06A03F0EEFA636887
:10462000002BA6D0DDF81080D8F80030A3602AE770
:1046300040F24A339F4224D1012803D90A9B1B68C8
:10464000DA0701D41B4AC6E7012EE8D05B100693B7
:1046500001270A9B0BA953F82700FFF71BF808B99D
:10466000154AB8E7E36A0B9807930CF079FEDDE989
:10467000061302460137184603F0C6FABA45E8D1D8
:10468000CDE7012ECBD0236B0246D3F810B0E06A01
:104690000A9B3946D847C2E77AF3050890F3050824
:1046A00094F305089CF30508AAF30508B6F305087A
:1046B000BAF30508C6F30508D8F3050870B51378F2
:1046C00005460E4614467BB9012313701146006A55
:1046D000FFF7A3FC2378012B0AD1064A314628466E
:1046E000BDE87040FFF7AABE062B01D0024AF7E7EB
:1046F00070BD00BF04F2050811F20508014AFFF77A
:104700009DBE00BFE3F305080B79092B70B50CBF04
:10471000858AC58A4FF6FF739D42044602D1064A38
:10472000FFF78CFE218B628BA36A606A5B6F8A1A2B
:104730002946BDE870401847DEF1050838B5137802
:10474000054633B1032B04D0064ABDE83840FFF7D5
:1047500075BE032414705168286AFFF758FC00B135
:10476000047038BDF7F1050838B50546A9B101F068
:104770000F03022B0DD10C09204608F096FE0028ED
:1047800006DA2246064907480BF0E8FB686000207D
:1047900038BD054AFFF752FEF9E70846F8E700BFC3
:1047A00032F405088406060837F405082DE9F843B5
:1047B0000546006A1746C28A12F0020C0E4606D061
:1047C000324A31462846BDE8F843FFF737BE01F0CC
:1047D0000F01022917D1AC78310984B1838B0133E1
:1047E000838364464FF0010800294DD00022FFF773
:1047F000EDFB03788146002B31D0254AE1E7438B5E
:1048000001334383EEE73179B942344608D1B168C8
:10481000AB780909002BF2D0838B01338383E1E766
:10482000994214D1AC78002CCAD10123AB70B16885
:1048300051B301F00F03022B18BF0C4642F00402E3
:1048400018BFA168C28209094FF00308CCE7B1681C
:1048500042F002020909C2824FF00508C4E70423AE
:10486000037080F801802B6A1B8B032B0CD1482F1F
:104870000AD14CB1E1682846FFF776FF99F801307C
:1048800043EA001089F80100BDE8F88361EC0508EF
:1048900070F305084F234E22FFF788BF49234822B3
:1048A000FFF784BF10B44278046A012A0B4604D192
:1048B00020465DF8044BFFF789BB816A406A2246B7
:1048C00010315DF8044B02F071BC000070B5054674
:1048D0000C4600292ED0CA0706D5836A5B6B4910A7
:1048E000686ABDE8704018478B0717D004F00F04C2
:1048F000022C4FEA11110AD0062C0CD0062919D02F
:10490000836A406A1B6BC9B2BDE870401847BDE8B6
:104910007040FFF7C7BF836A9B6BE1E7836A096852
:10492000DB68406A98472279034B214653F82230CE
:104930002846D6E770BD00BF50F205082DE9F74FB5
:1049400005460C4616461F462046FEF7C5FE40B1FA
:104950006EB9AB6A9B6E3946686A03B0BDE8F04F2A
:1049600018472046FEF7BBFE20B1002EF1D103B060
:10497000BDE8F08F002C48D0A30746D163684FEA0A
:10498000132ADBB21E2B17D1D6B1083404EB8A0AE6
:10499000A245ECD03B46324654F8041B2846FFF7AC
:1049A000CDFFF5E75B46019A59F8041B2846FFF74F
:1049B000C5FF08F1010812E01F2B20D1002EE4D022
:1049C000D5F80CB00BF10103EB600AF1FF33009353
:1049D00086F0010304F108094FF000080193009BE1
:1049E0004345DFDC0AF101013B4654F82110324611
:1049F0002846FFF7A3FFAB6A59469B6AACE7202B1A
:104A000003D186F00106A4689EE721462846FFF7F9
:104A10005DFFAB6A686ADB6E3A46314603B0BDE8BB
:104A2000F04F184738B5036A1B78072B04460A462F
:104A300006D0022B04D0154ABDE83840FFF7FEBC73
:104A4000956885B9A36A606A1B6B10219847A36AB1
:104A5000606AD3F8C8300021984720460121BDE89C
:104A60003840FFF702BBAB070BD12B79AF2B08D136
:104A70002046A968FFF72AFF2046BDE83840FFF727
:104A8000DBBB29462046FFF721FFE0E73EF405089F
:104A900070B54378CD68012B0446164606D1036AEB
:104AA0000A461B8B3146FFF700FC686100231A465B
:104AB00069692046FFF71FFBE9682046FFF706FFFC
:104AC000062E05D1A36A606AD3F884300021984786
:104AD000A36A606AD3F8B8500023AC461A46012195
:104AE000BDE87040604738B50C460546C968FFF719
:104AF000EDFEA1682846BDE83840FFF7E7BE0B7918
:104B0000342B70B504460D4610D18968FFF7DEFEE0
:104B1000ED68AD6885B9A36A606A1B6B1021984780
:104B2000A36A0422D3F89C3002211AE0836A406A07
:104B30001B6B10219847ECE7AB071FD12B799A2B01
:104B400013D1A36A606A1B6B10219847A9680029DA
:104B5000E6D02046FFF7BAFEA36AD3F89C300422C1
:104B60000321606ABDE8704018479B2B06D1A968F5
:104B70002046FFF7ABFEEB689968E8E72946204638
:104B8000FFF7A4FECCE710B504468968FFF79EFE48
:104B9000A36A606ADB6C0021BDE810401847000082
:104BA0002DE9F7438D680446164645B9F2B1836A8C
:104BB000D3F89C3002222946606A984716E0AB077A
:104BC00040F085802B79372B13D132B1836A406A4C
:104BD000D3F89C3002220121984720462946FFF74E
:104BE00075FEA36A606AD3F8A030984703B0BDE8A9
:104BF000F0839F2B6BD1EB681A79A12A57D1A221A0
:104C000001AA03F10800FEF793FFA968804619B3D3
:104C10008F0721D10B79372B1ED136B1A36A411CE6
:104C2000D3F89C30606A02229847A9682046FFF7B3
:104C30004DFEA36A606AD3F8A03098474FF001098F
:104C4000002747450ED1B9F1000FCFD1A36A032247
:104C5000D3F89C30791CAFE72046FFF737FE4FF0C2
:104C60000009EDE7019B53F8271099B18E0711D188
:104C70000E79A6F13700464246412046FFF726FE50
:104C8000B9F1000F0FD03EB9164A29462046FFF76A
:104C9000D5FBABE70026F0E7A36A606AD3F8A03043
:104CA00098470137CDE7002EFBD00F4AEDE7AB6800
:104CB0004BB19A0707D11B79372B04D1042229461F
:104CC000FFF7E6FE92E7052229462046F8E7294647
:104CD0002046FFF7FBFDA36A0322D3F89C30012195
:104CE0006AE700BFA7F10508B5F105080122FFF743
:104CF00057BF70B50D46C9680446FFF7E7FDA968C0
:104D0000A36A606AD3F89430C1F3071134291ABF3B
:104D10004039C9B20221BDE870401847F8B54E6865
:104D20000C4689680746FFF7D1FD360A0C3400258A
:104D30000235AE4204F1080400DCF8BD54F8041C4E
:104D40003846FFF7C3FD54F8081CBB6A786AD3F8ED
:104D5000983009092539C9B29847E9E72DE9F041AA
:104D60004D680C4689688046FFF7B0FDA5F10D0738
:104D7000FFB22D0A0C340126AE4201DBBDE8F08102
:104D800054F8041B4046FFF7A1FDD8F82830D8F8A6
:104D90002400D3F89830394698470136ECE72DE9DE
:104DA000F0414D68044688462D0A8968FFF78EFD5C
:104DB000032D83BFE7687B1CE36000270126731C7B
:104DC000AB4222DB032D57DDE568606A6B1CE360B4
:104DD000A36A29469B6E9847A36A606A9B6A394614
:104DE0009847A36A606A9B6801219847A36A606A32
:104DF0001B6E9847A36A606ADB6D9847A36A606A76
:104E00009B6A2946BDE8F041184708EB8603204617
:104E1000D9680236FFF75AFDAE4207DAA36A606A24
:104E20005B6D9847A36A606A5B6E984758F82610D6
:104E3000A36A606AD3F8983001F00F020A2A10D1F1
:104E4000C1F3071126291ABF3539C9B2062198477F
:104E5000AE42B4DAA36A606A1B6F3A4600219847F3
:104E6000ADE70A79852A01D13221F0E78A680AB9CB
:104E70000721ECE73321EAE7BDE8F08110B50446ED
:104E80008968FFF723FDA36A606AD3F89430032191
:104E9000BDE8104018472DE9F0474D68D0F80C8068
:104EA0005FFA85F9A9F11E03D3F1000949EB030963
:104EB00008F101030446C3602D0A01F1080600272A
:104EC000AF4206DBA36A606A9B6A4146BDE8F047D1
:104ED000184756F8041B20460137FFF7F7FCAF428E
:104EE000EEDAA36A606A1B6F424649469847E7E7D5
:104EF00001F00F03022B70B5044610D00B79492B3B
:104F000001D04F2B02D10123A37070BD4A2BFCD0DE
:104F1000502BFAD0482B0CBF0D69CD685DB9A37832
:104F2000002BF2D1638A002BEFD020461B4ABDE84C
:104F30007040FFF783BA837843B3038A8E680133E6
:104F40009BB2012B03820ED1418AD0E90903D1B172
:104F5000D3F89C3000229847A36A606AD3F89C304B
:104F600002220021984729462046FFF7AFFCA36A9A
:104F7000606A9B6B31099847A36A606AD3F8A030D6
:104F8000BDE8704018471B6C9847E5E7438A01333A
:104F900029464382BDE87040FFF798BC30F205080F
:104FA0002DE9F041C568CF68AB1CC3608846044654
:104FB00000222B46B968FFF7C1FCD8F8081020463C
:104FC000FFF784FCA36A606A9B6E6E1C31469847AB
:104FD000A36A606A9B6A29469847A36A606A9B68CD
:104FE0004FF0FF319847F9682046FFF76FFCA36A3E
:104FF000606A9B6A3146BDE8F04118472DE9F14FE0
:10500000C668B0F814B0B0F816A0B0F81A9086824E
:10501000B31CC36006F10108038BA0F81680044698
:10502000438388680D46FEF757FBF8B9E7687B1C99
:10503000E360A868FEF753FB20B9A36A606A9B6E21
:1050400041469847A36A606A9B6A39469847E9686F
:105050002046FFF73BFCA36A606A9B6A414698477B
:105060003B460122A9682046FFF768FC2969A4F89D
:1050700014B02046A4F816A0A4F81A90FFF726FC56
:10508000A36A606A9B6A314601B0BDE8F04F1847D9
:105090002DE9F347C668731CC360044688680D4653
:1050A000FEF71AFB0246E8B9E7687B1CE360A968D3
:1050B0003B462046FFF742FC2046E968FFF706FC26
:1050C000A868FEF70CFBD8B92B690BB96B6923B143
:1050D000A36A606A9B6E31469847A36A606A9B6ABE
:1050E0003946984701AA712105F11000FEF720FD0D
:1050F0000027824657450BD169692046FFF7E6FB3A
:10510000A36A606A9B6A3146984702B0BDE8F0879F
:10511000019B53F82780D8F80800FEF7DDFA024615
:10512000F8B9D4F80C9009F10103E360D8F808103D
:105130004B462046FFF702FC2046D8F80C10FFF73C
:10514000C5FBD8F80800FEF7CAFA0028D8D1A36A30
:10515000606A9B6E31469847A36A606A9B6A4946BB
:1051600098470137C6E770B58D6804463DB9836A34
:10517000D3F8C4302946606ABDE870401847AB07D1
:105180000ED12B795E2B0BD1A968FFF79FFBE96845
:105190002046FFF79BFBA36A0221D3F8C430EAE75D
:1051A00029462046FFF792FBA36A0121D3F8C430B9
:1051B000E1E710B504468968FFF788FBA36A606AD7
:1051C000DB6DBDE8104018472DE9F0414D6801F155
:1051D00008042D0A064604EB8507BC4208D1B36AD1
:1051E000706AD3F89C3029460022BDE8F041184788
:1051F00054F8041B3046FFF769FBEEE7896810B4EA
:10520000034641B9826A406AD2F89C400A46234666
:105210005DF8044B18474A68120A022A0BD1CA6883
:105220004AB1940707D11279AC2A04D106225DF85D
:10523000044BFFF72DBC18465DF8044BFFF7C4BFC5
:105240004B682DE9F04106460F461D0A01F108089A
:105250000024AC4201DBBDE8F08158F8041B304665
:10526000FFF734FB736843B1023406F1080057F8C6
:105270002410BDE8F041FFF7D8B80134E9E710B5D4
:105280000446FFF7DDFFA36A606AD3F89830222155
:10529000BDE81040184770B58C68054644B9836A6C
:1052A000D3F89C3001222146686ABDE87040184757
:1052B000A1071ED16368DAB2922A1AD11B0A022B07
:1052C0000CD1E36853B19A0708D11B79AC2B05D1F7
:1052D00021460322BDE87040FFF7DABB214628468D
:1052E000FFF7AEFF6168AB6A0122D3F89C30090A70
:1052F000DAE721462846FFF7E9FAAB6A0122D3F83C
:105300009C301146D0E70000184B2DE9F041D3F84E
:10531000E86104460F463EBBC5686B1CC3600122B2
:105320002B468968FFF70AFBA36A606A5B691F2145
:1053300001229847F96851B12046FFF7C7FAA36ADE
:10534000606AD3F8B870324633460121B847A36A81
:10535000606AD3F8C43001219847A36A606A9B6AE7
:105360002946BDE8F0411847BDE8F081402C0020F7
:10537000026A1278072A2DE9F041044604D01B4A3C
:10538000BDE8F041FFF75AB88D685DB9836A406A9D
:105390001B6B10219847A36A606AD3F8C030BDE840
:1053A000F041184715F003021DD12B791B2B1AD1A0
:1053B000C668EF68731CC360B9683346FFF7BEFA6E
:1053C000A9682046FFF782FAA36A606AD3F8C03062
:1053D0009847A36A606A9B6A31469847F9682046F5
:1053E000FFF774FAD7E72946F9E700BF64F3050829
:1053F00010B44478026A012C0B4604D110465DF8C3
:10540000044B01F0C4BE816A5DF8044B406A183158
:1054100001F0CCBE2DE9F14F8F0704460D4616462C
:1054200012D001F00F03022B17D109090AB1022A89
:1054300005D1204601B0BDE8F04FFFF7D9BF01B05C
:10544000BDE8F04FFFF72EBA4968CBB22D2B7BD0C9
:105450000BD8062B0DD02C2B12D04F4A29462046B4
:1054600001B0BDE8F04FFEF7E9BF2E2B7FD09D2B9A
:10547000F3D1002EF1D105F10802090A20467BE0A4
:10548000022A02D0A968FFF721FAEF68002FE4D0C2
:1054900017F00309E1D17B68DAB28E2AB8460DD144
:1054A000022E4FEA132805D007F1080A08F1FF3B46
:1054B000D94511DB08F1010857F8288098F8043025
:1054C000312B24D1022E0FD1A36A606A5B6E9847FC
:1054D000A36ADB6C012115E05AF8041B2046FFF794
:1054E000F5F909F10109E3E7D8F808102046FFF7BC
:1054F000EDF9012EA36AECD19B6D606A9847A36A0F
:10550000DB6C0021606A01B0BDE8F04F1847322B18
:10551000A3D1012ED4E909030CD15B6D9847A36A8E
:10552000D8F808101B6D0022606A090901B0BDE8B7
:10553000F04F1847022E01D11B6E9847A36AD8F886
:1055400008101B6D0122EFE7AA68002A85D0002E03
:1055500083D15168090A022907D1D3682BB1980772
:1055600003D11B79AC2B3FF478AF083286E7002AD1
:105570007FF473AFA96821B901B0BDE8F04F00F026
:1055800075B88E0703D10B79922B0A46E1D005F14D
:105590000802012172E700BF61F105082DE9F0471B
:1055A000C6681F46B31CC360836A04460D469B6AE7
:1055B000406A314691469847A36A606AD3F88830BA
:1055C00006F1010841469847A96800222046FFF7E6
:1055D00021FF2D69002D2DD149462046FFF776F990
:1055E000236A1978A36A06291DD1D3F8C830606AE6
:1055F0002946984720460121FEF737FDA36A606AD5
:10560000DB6D9847A36A606A9B6E31469847A36A30
:10561000606A9B6A41469847A36A606AD3F88C30F7
:10562000BDE8F0471847BA00D3F8A430606A0532E5
:105630009847E7E72B79AD2B07D1A96833460022BD
:105640002046FFF77BF9ED68C4E7E9682046FFF7DD
:105650003DF9A36A606AD3F88430012198477B1C26
:105660004A4629462046FFF799FFCBE72DE9F84344
:105670004FF0FF3705460E469046002401EB070920
:10568000B4420CD17B1C05D1AB6A686AD3F8A83050
:10569000214698470026B4421CD1BDE8F88358F84B
:1056A000241079B18A070DD10B79222B0AD1013749
:1056B0000AD1AB6A686AD3F8AC30A9EB0402214680
:1056C000984727460134DBE72846084ABDE8F843F7
:1056D000FEF7B4BE58F82610B7424FF0000208BFDC
:1056E00089682846FFF796FE0136D4E775F105086C
:1056F0002DE9F0470446904699460F4621B91946D0
:10570000BDE8F047FFF7E2B8C668731CC3601568D0
:1057100035B315F0030A23D12B797B2B20D1A9684F
:10572000FFF7D4F8524631462046FEF7A6FC524613
:10573000E9682046FFF76EFE08F104024B46791E29
:105740002046FFF7D5FFA36A606ADB6F31469847B2
:1057500020460321FEF789FCBDE8F047FEF79DBC1B
:1057600029462046FFF7B2F8204600223146FEF7D0
:1057700084FCA36A606ADB6D9847DDE737B50C46A9
:10578000054601AA7A2104F10800FEF7D1F9E36881
:10579000019A01462846FFF7ABFF03B030BD2DE963
:1057A000F04F8B6803F00F03022B8BB004460D46BD
:1057B00040F00381CB68002B00F0FF80980740F099
:1057C000FC801A792C2A40F0F8809A6802F00F01C8
:1057D000022940F0F28012097C2A40F0EE80DB685A
:1057E0001A79302A40F0E9809B68089309AAA4211D
:1057F00008A8FEF79DF9431E022B00F2DE800999EE
:1058000001280A680DD00228D1F8049000F0218107
:105810008E68F10740F1D180730800F0CE8052B15C
:1058200002E0914603260246930704D11179A63976
:10583000022940F2C280B9F1000F08D019F0030F1D
:1058400005D199F80410A639022940F2B680AB6858
:1058500001932B696F690293E568A38A218B0393F7
:10586000E38A0493638B6183291D0593E1606B1CBC
:105870006FEA0901E38219F0010801F0010305F163
:10588000020AA58205F1030B069305D1494620467D
:105890000792FFF71BF8079A11462046FFF716F804
:1058A000A26A606A926E59469047A26A606A926ADA
:1058B00051469047A26A606A526D90470022019952
:1058C0002046FFF7A7FD02992046FEF7FFFFA26AD8
:1058D000606A926A691C904731462046FEF7F6FFDF
:1058E000A26A606AD2F898200E219047A26A606A84
:1058F000926A59469047A26AB8F1000F53D1936D4E
:10590000606A9847A36A606A1B6E9847A36A606AD8
:10591000D3F89830002EACBF002101219847A36A2C
:10592000606ADB6E524601219847039BA382049B69
:10593000E382059B6383002F3DD0A36A606ADB6D21
:105940009847B8F1000F03D1A36A606ADB6D9847EE
:1059500039462046FEF7BAFFE668606A731CE360CA
:10596000A36A31469B6E9847A36A06999B68606A52
:1059700001319847A36A606A9B6A29469847A36ADF
:10598000606ADB6D9847B8F1000F03D1A36A606AC3
:10599000DB6D984727B1A36A606A9B6A31469847D6
:1059A0000BB0BDE8F08F606A526D904749462046C3
:1059B000FEF78CFFAAE73E46DCE7E668238BB4F8E7
:1059C0001A9063836FEA46436FEA5343B4F814B006
:1059D000A382F31C771CE360B4F816A0E968E782A1
:1059E0002046FEF773FFA36A606AD3F88430012172
:1059F0009847A36A606A9B6A39469847A36A606AB7
:105A0000D3F8883006F10208414698470022A96879
:105A10002046FFF7FFFC29692046FEF757FFA36ADF
:105A2000606A9B6E39469847A36A606A9B6A4146E2
:105A30009847A36A606AD3F88C309847A4F814B0EA
:105A4000A4F816A0A4F81A9069692046FEF73EFF54
:105A5000A1E70326E3E62DE9F74F044692469B466D
:105A6000894629B9194603B0BDE8F04FFEF72EBFAD
:105A7000C5682B1DC36013686F1C05F10208EE1C7E
:105A8000002B00F0F58013F0030240F0F18019794B
:105A90007B2940F0ED80996801920093FEF716FF94
:105AA000A16A606A496D88474FF438712046FEF755
:105AB000DCFBDDE900322046D968FFF7ABFC0222AF
:105AC00029462046FEF7D9FAA36A606A9B6803213B
:105AD00098470AF104025B4609F1FF312046FFF7BF
:105AE000BAFFA36A606A9B686FF002019847A36AD5
:105AF000606A1B6B10219847A36A606A1B6E984707
:105B0000A36A606A9B6E39469847A36A606A9B6A7B
:105B100029469847A36A606A5B6D9847A36A606AE2
:105B20005B69012221219847A36A606AD3F8983003
:105B300008219847A36A606ADB6E424600219847B5
:105B4000A36A606A5B6D9847A36A606A5B6E984758
:105B5000A36A606A1B6E9847A36A606A5B6C002246
:105B600040F2E1219847A36A606A5B6E9847A36A96
:105B7000606A5B6E9847A36A606A5B6D9847A36A28
:105B8000606A1B6D00220A219847A36A606A1B6E37
:105B90009847A36A606A1B6B10219847A36A606AE2
:105BA000D3F8BC5000231A460321A8472046FEF72D
:105BB00043FBA36A606ADB6E324600219847A36A02
:105BC000606ADB6D9847A36A606A1B6B1021984777
:105BD000A36A606A9B6E31469847A36A606A9B68B5
:105BE00002219847A36A606A9B6A41469847A36A64
:105BF000606A5B6E9847A36A606A5B6E9847A36AA7
:105C0000606A9B6A39469847A36A606A5B6C0022A7
:105C100040F2E1219847A36A606A1B6B1021984704
:105C2000A36A606A5B6D9847A36A606A5B6D984778
:105C3000A36A606AD3F8BC5000231A460321A84720
:105C40002046FEF7F9FAA36A606ADB6D9847A36AFB
:105C5000606A9B684FF0FF319847A36A606A9B6A4D
:105C600031469847204603B0BDE8F04FFEF715BA1D
:105C700019462046FEF72AFEA36A606A5B6D9847C4
:105C800020464FF43871FEF7F0FAA36A606ADB6DC4
:105C9000984714E72DE9F041CD6804460E463DBB18
:105CA0000378C3B1036A1D78ADB940F2ED21FEF768
:105CB000F9FDB1682046FEF709FEA36A606AD3F8D1
:105CC000B8602A462B460121B047A36A606ADB6DA3
:105CD000BDE8F0411847B168880700F0BB8001F0CB
:105CE0000F03022B40F0BD802046FEF7EFFDECE7EE
:105CF000AA0740F0B8806B68DAB25B2A14D1ED686D
:105D0000002D40F0B080006A0378072B40F0A98096
:105D1000896801F00F03022B40F0A3800422D140D8
:105D2000BDE8F041FEF752B9562A13D10122896825
:105D3000FFF770FBE9682046FEF7C8FDA968A36A73
:105D4000606AD3F8983009093F39C9B298470222EE
:105D5000B1687AE0572A40F086801B0A5F1E013343
:105D600055F82310FEF7B2FD002F03DDA36A606A29
:105D70005B6D9847B16800222046FFF74BFB083562
:105D80000026BE426DDA0136BE4203DAA36A606ABB
:105D90005B6D9847002255F8041B2046FFF73AFB3D
:105DA000EFE76A68D3B2062B5FD1B768002F5CD0EB
:105DB000BB075AD17B68D9B2062956D14FEA1228BF
:105DC000B8EB132F51D1A8F10203012B4DD8BB68BA
:105DD00023B1980702D11B79222B46D0FB6823B14F
:105DE000990702D11B79222B3FD0B8F1020F06D0C0
:105DF0003B6923B19A0702D11B79222B35D0A968C0
:105E00002046FEF763FDE9682046FEF75FFDB8F126
:105E1000030F07D120462969FEF758FDA36A606A7F
:105E20005B6E9847A36A606A1B6E98470022B96848
:105E30002046FFF7EFFA0022F9682046FFF7EAFA5A
:105E4000B8F1030F0DD1396900222046BDE8F041B9
:105E5000FFF7E0BA00293FF447AF0B793A2B7FF404
:105E600043AFBDE8F081AB079BD029462046FEF743
:105E70002DFD00226CE700002DE9F04104460023CF
:105E8000032A627021620D46C360164684F83420EE
:105E900002D1C08E50BBA063A36A606A1B684FF03A
:105EA000000831462A46A4F8368098470621204645
:105EB000FEF7DBF86778EE68012F04BFA5F82280B3
:105EC000A5F82480B6B1B20714D133793F2B11D194
:105ED000B168FEF7FBFCA36A606AD3F8C03098474C
:105EE000A36A606A5B68BDE8F04118478000FAF772
:105EF000E4F9D0E72B784BB931462046FEF7E6FCB3
:105F0000A36A1B6B606A10219847E4E7072B16D140
:105F1000012F12D10023A3704622574BF16820466F
:105F2000FEF7CBF82B8B032B07D131692046FEF708
:105F30001BFCEB8A43EA8010E8827169DDE7022BE3
:105F40001BD1A36A3168DB68606A98476378012BCC
:105F500007D10023A3704C22484BB1682046FEF7BE
:105F6000ACF8F1682046FEF7B1FCEB8ADB07B2D54E
:105F7000A36A606ADB6D9847C2E7033B032B4ED8E8
:105F8000012FD6F80C8005D104223946206AFEF78D
:105F90001DF86F83A36A3168DB68606A98472B78C5
:105FA000032B23D1A36AD3F89C3001220021606A1D
:105FB00098472B78062B27D1A36A606A1B6C9847F9
:105FC00001212046FEF76EFCA36A606A1B6C9847AD
:105FD000A36A606A1B6C98470023B268414620465A
:105FE000FFF7DCFA2B78062B8AD074E7042B04D158
:105FF000A36A0222D3F89C30D8E7052BD9D1A36A33
:106000000322D3F89C30D1E720460121FEF74AFC59
:10601000A36A606AD3F8843001219847DCE7012F36
:1060200004D104220A212846FDF7D0FF172120467B
:10603000FEF738FC16212046FFF7DAF9B168A36AAB
:10604000606A9B6B090998471A212046FFF7D0F92F
:1060500031692046FEF73AFC0A212846FDF7A6FFE3
:106060000378042BA36A3FF44CAF1D694288606A31
:1060700000230A21A8472EE79D48020895480208F8
:10608000036A10B51A8B0446FEF739F9014620461B
:10609000BDE81040FFF7ACB92DE9F04F8D682B79C2
:1060A000032B87B004460AD12946FFF7E9FFAA6906
:1060B000D38A43F00103D38207B0BDE8F08F026AB0
:1060C000D28AD20704D4624A2946FEF7B7F9F3E729
:1060D000162B40F0AF80C668331DC360E968FEF739
:1060E000F5FBA36A606A5B6C002240F2E2219847EC
:1060F000A36A606AD3F8BC7000231A461946B847F1
:10610000A38AE7680193E38A0293638B0393BB1C22
:10611000E360238B6383A36A606A9B6AA78207F1AB
:10612000010806F1010B4146A4F8168098470122A8
:1061300059462046FDF7A1FFA36A606A5B6D984748
:10614000204640F2E321FEF790F8A968204600229D
:10615000FFF760F9A36A606AD3F8903006F102098C
:10616000002249469847A36A606A9B6A5946984745
:10617000A36A606AD3F8CC309847A36A606A5B6D03
:106180009847A36A606A5B69012240F293219847AD
:10619000A36A606AD3F8983008219847A36A606AB6
:1061A000DB6E06F1030A524600219847A36A606A33
:1061B000DB6D9847A36A606AD3F8903001223146BC
:1061C0009847A36A606A9B6A51469847A36A606AC7
:1061D0009B68012198472046FDF75FFFA36A606A2C
:1061E000D3F8D0309847A36A606A9B6A49469847BB
:1061F00029692046FEF76AFBA36A606A9B6E4146E6
:106200009847019BA382029BE382039B6383A36A5B
:10621000606A9B6A3146984769692046FEF756FBDB
:10622000A36A606A9B6A39469847A36A606ADB6D15
:10623000984741E705AA7A2105F10800FDF778FCA7
:10624000EB68059A01462046FFF705FC34E700BFDE
:1062500090F1050801F00F03022B70B504460D46BE
:10626000164602D01F4AFEF7E9F831462046FEF7EF
:106270002DFBA36A606A5B6D98476378012B4FEA38
:1062800015160FD1226A1378033B032B0AD85068E6
:10629000314600F07CFF0278032A09D13146206A9A
:1062A000FDF794FE31462046BDE87040FFF7A0B8E8
:1062B00000223146206AFDF789FE236A5B685B682D
:1062C00002464BB10378012B01D10023037029460C
:1062D0002046FEF7F3F9E5E729462046FEF72EFAB9
:1062E000E0E700BF61F105082DE9F04F85B0CDE989
:1062F0000021044603AAA42101A81D46FDF718FCAD
:1063000000278346B9463E46B8465F4511D1D4E9D9
:10631000090316B15B6B49469847009AD4E9090313
:10632000002A74D0D3F8BC40334642462946A047E1
:1063300013E0039B53F827A0BAF1000F5CD01AF0CA
:10634000030F59D19AF80420A62A1AD1B00707D50D
:10635000304A51462046FEF771F805B0BDE8F08F8F
:106360001D2F01D92C4AF4E7012303FA07F2DAF8CA
:10637000081046F0010649EA02092046FEF7A6FA8F
:1063800020E0A72A0ED1A26A606A126C9047DAF860
:10639000081046F002062046FEF798FA08F10108B8
:1063A0000137B2E7A82A27D1DAF80C2072B1910799
:1063B0000CD11179AA2907D19268DAF80810204681
:1063C000FFF748FF0135EBE7AC290FD0DAF80810EA
:1063D00001F00F02022A01D0104ABAE7A26A606AED
:1063E000926B09099047DAF80C10D4E7062251465F
:1063F0002046FEF74DFBE5E7B30701D5084AA8E7BD
:10640000B8F1000F01D0074AA3E75146B5E7D3F82A
:10641000B84089E7F0F30508F7F30508FFF305082E
:106420000CF4050813F4050870B50D4641780129F0
:106430000446134603D12A46FDF737FF6861A36A75
:10644000606A9B6C98476E6900231A463146204665
:10645000FDF751FEA36AB18A9B6B606A9847E968B1
:1064600029B18B0703D10B79A32B08BF002120464C
:1064700002230022FFF738FFB08A70BD00231A46BE
:106480008968FFF731BF00002DE9F8430C468968A1
:106490000546FEF71BFAE668002E4BD07768296A9E
:1064A000FBB209788E2BA36819BF04F10C060127F3
:1064B0003F0A0836072903F00F024BD1022A3ED1CA
:1064C0001A099A2A48D132681179302944D1926840
:1064D000002A41D10A212846FEF7E4F92A6AD36A44
:1064E000128D32B93168404A2846BDE8F843FDF7BD
:1064F000A5BF5978C9071FD559682846FEF7D2F9B4
:10650000022FAB6A1DD97268686A1179322918D1D5
:10651000B4682179302914D191685B6C0122090992
:106520009847A168002301222846FFF7DDFE0324D7
:10653000A74231D8BDE8F883013A0833D1E70024F7
:10654000F6E7D3F8B840686A00231A460221A0474C
:106550000124EDE7022AF2D11B09B3F5F87FEED151
:1065600033681A79302AEAD19B68002BE7D013F000
:106570000304E4D11B792F2BDAD1AB6A686AD3F814
:10658000B880224623462146C04733682246996890
:106590002846FEF705FBDBE704F10108B8454FEAA2
:1065A000840356F824101AD20A79322A17D13344B8
:1065B000D3F8049099F80430302B10D18968AB6A75
:1065C000686A5B6C00220909984700230122D9F808
:1065D00008102846FFF788FE08F10104A8E72846BE
:1065E000FEF774F9A046F7E7CBF10508D1E90212EE
:1065F000FFF730BE036A10B51A8B0446FFF714FF8D
:1066000001462046BDE81040FEF7F2BE2DE9F04FEE
:10661000044685B08A4602AA42210AF10800FDF725
:1066200087FA236A019000251E8BA846019B9D4294
:106630000AD1DAF80C100B79032B4ED132462046E2
:10664000FDF75DFE064656E0029B53F825B003AA0F
:106650006C210BF10800FDF76BFA039B19680A091E
:10666000732A81460CD02046FEF730F901274F45AA
:1066700028D3DBF80C1059B12046FEF727F907E0C4
:10668000022807D0294A2046FDF7D8FE08F1010864
:106690000135CBE759680B09412B0DD040F213426D
:1066A00093420BD040F2DE42934209D040F20F32C7
:1066B0009342E7D10426E9E70126E7E70646E5E746
:1066C0000326E3E7039B606A53F82710A36A0022BE
:1066D0001B6D090998470137C9E7442B17D18F680B
:1066E000324639462046FDF70AFEBA69D38A43F09E
:1066F00001030646D3820027A5EB0805BD420BD84F
:1067000031462046FEF774FE05B0BDE8F08F3246F4
:106710002046FFF789FE95E7A36A606AD3F8B88040
:1067200000231A460121C0470137E7E718F20508A0
:106730002DE9F3418D6805F00F030A2B04460E4640
:1067400006D0002D30D0AB072ED12B79652B1ED172
:106750000095002501AA65216846FDF7E9F9019B2E
:10676000002103EB800040F2DA52984215D1F26822
:1067700040F22A439A4235D1236A1F78B7B1394A89
:1067800031462046FDF75AFE02B0BDE8F081622B8B
:106790000AD1AB680093ED68DCE753F8047B9742BD
:1067A0000CBF01310331E0E70021E0E7A36A606A32
:1067B0005B6B9847A36A606A9B6B05219847A36A45
:1067C000606AD3F89C303A460121984701AA2946CD
:1067D0002046FDF7A9FDA36A606ADB6A02223946FA
:1067E0009847D1E7A36A606A5B6B984706F10C0093
:1067F0006A466A21FDF79CF900260746BE42D4E9A5
:10680000090311D1D3F89C3000223146984729461C
:1068100001AA2046FDF788FD0025AE42D4E9090310
:106820000BD1DB6D9847AFE7009A9B6B52F826209F
:106830009168090998470136E0E7009ADB6A52F847
:106840002580D8F808703F09394601229847D8F8C2
:106850000C1029B939462046FEF7CAFD0135DCE7A0
:106860000909F8E752F30508836A37B504460D466F
:106870005B6B406A00219847A36A606A1B6B10211A
:10688000984701AA29462046FDF74EFD019920466A
:10689000FEF7AEFD03B030BD10B44478026A012C9F
:1068A0000B4604D110465DF8044B00F070BC816AC1
:1068B0005DF8044B406A203100F078BC2DE9F04FC0
:1068C00085B0C6681D460E9B0393731C0293B31CD0
:1068D0000446C3600F46934631460122FDF7CDFBC7
:1068E00039462046FDF7F2FFA36A606AD3F890307C
:1068F0000022711C9847A36A606A9B6A31469847D8
:10690000A36A606AD3F8CC309847D4F80C8008F1B9
:106910000103E36000265E4518DB2046FDF7BDFB62
:10692000A36A606AD3F8D0309847A36A02999B6A39
:10693000606A984703992046FDF7C8FFA36A606A1A
:106940009B6A414605B0BDE8F04F18472B46D4F886
:106950000C901A68019209F10102E260019A9768AD
:1069600004350136002F47D1B3453AD1A36A606A96
:10697000DB6D98474FF0000A5746019B2046D968C7
:10698000FDF7A4FFBAF1000F19D0A26A606A126B7A
:1069900010219047A26A606A926A39469047A26ABB
:1069A000606A126B1021904751462046FEF720FD89
:1069B00020465146FFF770FF2046FDF76EFBA36AA5
:1069C000606AD3F89030012241469847A36A606A12
:1069D0009B6A49469847A36A606A9B680121984769
:1069E00099E720461E4A1968FDF728FD204605B0A4
:1069F000BDE8F04FFDF751BB17F003032BD13979F8
:106A000076293A462AD1D368BF684FEA131AA26A98
:106A1000606A526D904739462046FDF757FFA26ADB
:106A2000606AD2F8982008219047A26A606AD76EFF
:106A300000214A46B847BAF1000F97D05146204688
:106A4000FEF7D6FCE7687A1CE2603946022220464F
:106A5000FDF713FB91E74FF0000AD8E79A46D6E717
:106A60001AF405082DE9F347C56899466B1C1746CB
:106A70000E46C360022229460446DDE90AA8FDF756
:106A8000FCFA17BBA36A606A9B68032198473146EA
:106A90002046FDF71BFFA36A606A9B686FF0020146
:106AA0009847A36A606A1B6B10219847A36A606AC3
:106AB0009B6A2946984720464146FDF707FF204636
:106AC00002B0BDE8F047FDF7E8BACDF800A04B46AC
:106AD0003A4631462046FFF7F1FEE2E77FB5CD6842
:106AE0002B79782B06460C4609D1AB68019300231D
:106AF000009389681A46FFF7B5FF04B070BD742B88
:106B000003AA4FF0770116D105F10800FDF710F840
:106B10002B6902463BB9EB680093039BA1683046A2
:106B2000FFF7CCFEE9E79B680193EB680093A1684F
:106B3000039B3046DFE704F10C00FCF7F9FF00236C
:106B400000930246039BE9E701F00F03022B2DE9B6
:106B5000F04705460C4604D10909BDE8F047FFF7A8
:106B60009BBE002955D0A10753D123792C2B38D1B6
:106B7000A168FDF7ABFEE668002E4AD016F00308C8
:106B800047D17768FAB28E2A334609D13F0A06F117
:106B9000080907F1FF3AC24510DC013756F82730E3
:106BA0001A79312A12D199682846FDF78FFEAB6A0F
:106BB000686ADB6C0221BDE8F047184759F8041BEE
:106BC0002846FDF783FE08F10108E4E7322A20D1C8
:106BD0009968AB6A686A1B6D02220909BDE8F04733
:106BE00018472D2B15D1A4689CB163681B0A022B92
:106BF00001D1E36843B904F1080700266368B6EBE6
:106C0000132F0DD3BDE8F0879A07F4D11B79AC2B75
:106C1000F1D121462846064ABDE8F047FDF70EBCF3
:106C200057F8041B2846FFF78FFF0136E6E700BF41
:106C30007CF10508036A1B78072B10B50A46044649
:106C400006D0022B04D0074ABDE81040FDF7F6BB82
:106C500020461146FFF718FC2046BDE81040FDF71E
:106C6000EBBA00BFC0F105082DE9F3414378012BD1
:106C700004460E4608D10F79102F08D0036A1B78FE
:106C80002BB9124AFDF7DAFB02B0BDE8F08101AA88
:106C90006D2106F10800FCF74BFF00258046A84552
:106CA000F2D0019B206A53F8251000220909FDF754
:106CB0008DF9102F02463146204603D1FDF73EFDE7
:106CC0000135ECE7FDF7FAFCFAE700BF3CF30508F5
:106CD0002DE9F04F9BB0CDE9020110201446F9F7E1
:106CE000D3FAA14B1B685B681B69436058220021E3
:106CF000064604A822F0A6FB4FF0FF33012113A89B
:106D00008DF81040099306F051FD039BD900012234
:106D100041F0020113A806F087FD01234360002122
:106D200016A80AF05BFE029A904B126893F8EC31B9
:106D3000002104A8FDF7B9FA054611A800F0FEFEEF
:106D40008B4B0B9C01900D900E934FF000080CB1F3
:106D5000059F27B30B9C14B1059B002B3FD04146E8
:106D60000198DFF80C92DFF80CA2DFF80CB200F00B
:106D7000ECFE0B9C0027059B002C00F04281002BB1
:106D800000F0FC800C9B06A8D968FDF74EFB0C9B1D
:106D9000069A9B8A0399059809F020F934E1238B20
:106DA000042B4FF00102214604A807D1FDF75AFB3E
:106DB000079BA468984538BF9846C8E7FFF75CF87A
:106DC000238D9F42F4D2E36A03EBC70113F83730F7
:106DD000012B02D12046FDF720F90137F0E7E28AC6
:106DE00052071CD5208D411EC900C0B1E26A0A4479
:106DF000577817F0020F2DD08BB192E8030093F86B
:106E0000009093F801E0B3F802C05F6883E80300E4
:106E100082F8009082F801E0A2F802C057604FF0BB
:106E2000000323840027B4F828C0674519DB00233A
:106E30009C454DD1D4F804E0BEF1000F08D00020ED
:106E4000BEF828B00346584552DB002B40F089803D
:106E5000A46880E713B9012F08BF13460138083929
:106E6000C3E72378D4F82C904FEAC70B012B09EB2A
:106E70000B0A05D1DAF804300A2B09D10137D2E721
:106E800019F8373004D9012B04BF032309F80B305C
:106E900019F80B30032B06D1238B032B11D0E38A77
:106EA00043F01003E38219F80B30042B03D09AF857
:106EB0000130DB07E2D5238C5A1C2284AAF8023069
:106EC000DCE7DAF8040006F0F0FA0128EBDCE6E78C
:106ED000E26A02EBC30112F83320052A06D14A7890
:106EE000D7075FBF228C4A800132228401339FE79B
:106EF000DEF82C2002EBC00A12F83020053A012AF5
:106F000015D8002711E0E26A02EBC70912F8372012
:106F1000062A09D1D9F804201146DAF804208A4259
:106F200004BFA9F8023001330137BC45EBD1013071
:106F300089E7E06A00EBC20110F83200062802D1AE
:106F40004878C00702D548881844488001329445E3
:106F5000EFD1628B9BB21A446283228C1344238448
:106F600076E70022F3E700BF80330020402C0020AA
:106F70004CF4050810F605088CF70508238B042B44
:106F800017D10F9B1BB9404604F092FB0F900023D2
:106F90000322214604A80D93CDF840B0FDF762FA14
:106FA000059B23B90422214604A8FDF75BFAA468D7
:106FB000E1E6023B012B20D837B9434607AA05A9D1
:106FC00011A803F0B9FC0746CDE90D7A022221464B
:106FD00004A8FEF751FF059B23B90322214604A80C
:106FE000FEF74AFF059B002BE1D10422214604A8AD
:106FF000FEF742FF0028F8D0D9E7019BCDE90D3913
:10700000E4E7002B7FF4BEAEDDF81490D5F81080D5
:10701000B9F1000F16D0019800F09FFD002F40D16C
:107020000F9808B104F059FB0298FCF789FFAC688F
:107030002846FCF7B1FF2546002CF8D10598A0B3EF
:10704000F9F7F8F8139C1898C4F3DC0464000334CF
:1070500000EB94008000F9F717F924F003040444CE
:10706000F460DDE91441B060A1450BD1189A00230A
:107070009342D0D0199951F82300F16841F82300C8
:107080000133F5E751F8393043B1042B06D001EB59
:10709000C902DB085268521020F8123009F10109C8
:1070A000E2E7384603F06AFCBAE72246314640463A
:1070B00004F084FB1BB0BDE8F08F00BF8842F8B538
:1070C00005460C4601D10120F8BD164B984201D16E
:1070D0000020F9E79942FBD006F0EEFD0646204677
:1070E00006F0EAFD8642F3D10F4B9E4214D16A6846
:1070F00063689A42ECD105F10807083400266B68F2
:10710000B342E0D954F8041B57F8040BFFF7D6FF3D
:107110000028DDD00136F2E721462846BDE8F840D8
:1071200007F086B8A8FA0508CC170608C90010B5FC
:107130000122044641F00201083006F075FB436865
:107140003BB9A368C3F3DC03013B5B0043F00103DD
:1071500043604068C0F34F0010BD70B505460E4651
:107160000024EB69A34208D8314605F114000AF067
:10717000ECFAEC69013C204670BD2B6A314653F8AD
:107180002400FFF79BFF0028F5D10134E9E710B593
:1071900001220446FCF71AFF0378012B05D123785E
:1071A000012B8CBF04230223037010BD70B505466C
:1071B0000E46104619461C46FCF7F8FE03785A1E88
:1071C000012A06D87368002221462846BDE870408F
:1071D0001847032B02D173680122F5E7366842880D
:1071E000042B21462846B4460CBF00230123BDE8EA
:1071F000704060470346426A4079032894BF1846AE
:10720000586B114492BF5962801859627047827955
:1072100003460AB1184670475A79C06A032A0144E6
:1072200001D8D962F6E79A6AD9620244586B1044D1
:10723000704710B50C460121FFF7E9FF047010BD3F
:107240004379012B07D083681944036981605A8C04
:107250009142C8BF5984704738B51446FFF7F0FF14
:107260000121FFF7D4FF047038BD53220121FFF73D
:10727000F3BF54220121FFF7EFBF57220121FFF78F
:10728000EBBF58220221FFF7E7BF59224FF0FF3131
:10729000FFF7E2BF5A220021FFF7DEBF5B22002189
:1072A000FFF7DABF5D224FF0FF31FFF7D5BF0029AE
:1072B0000DBF5E225F2203210021FFF7CDBFA1F1A8
:1072C0003002D2B20021FFF7C7BF62226FF0010186
:1072D000FFF7C2BF10B5632204464FF0FF31FFF73E
:1072E000BBFF0123A37110BD10B501F16402044678
:1072F000D2B24942FFF7B0FF0123A37110BD10B510
:1073000001F167020446D2B24942FFF7A5FF2269A4
:10731000D38A43F00103D38210BD000038B5044680
:107320001D46FFF799FF2A4620460249BDE838402E
:1073300012F0CEBF0F72020870B504460D46C06849
:1073400019461646FFF7F2FE324603462946204606
:10735000BDE87040FFF7E2BF0B4610220121FFF7A6
:10736000EBBF11320B46D2B20121FFF7E5BF10B4DB
:10737000002A4FEA42040B4618BF1522C4F101014E
:1073800008BF14225DF8044BFFF7D6BF16320B4638
:10739000D2B24FF0FF31FFF7CFBF19320B46D2B256
:1073A0000021FFF7C9BF70B4C4682578042D1E46BC
:1073B00008BF6568638808BF45F823605D1C658069
:1073C00070BCFFF7ABBF03F128011346CAB200211E
:1073D000FFF7A4BF022A02F12A020B46D2B214BF61
:1073E000C1F101010121FFF799BF032910B40CD0AD
:1073F00004290DD0002102248B1844EA83032F2294
:10740000C9435DF8044BFFF789BF00210C46F3E741
:107410000121FBE70B4630220139FFF77FBF10B493
:10742000144641EA0223214431225DF8044BFFF760
:1074300075BF012A10B40B46044608D0022A0ED1AB
:1074400069224FF0FF315DF8044BFFF705BF11468D
:107450001B322046D2B25DF8044BFFF76DBF4FF0F0
:10746000FF31F5E76FF00301FFF7EABE0421FFF7F4
:10747000E7BE6FF00201FFF7E3BEF8B50546174619
:107480001E46FFF7DDFE847904BB4379022B25D924
:10749000C46A026AC4F1FF2404F57F0452F826305E
:1074A000FE34442F1C4412D814F1400F14DB3F2C3F
:1074B000D4BF00260126A41BB11C2846FFF7A7FE57
:1074C00007706EB9442F98BF40344470F8BD7F2CCC
:1074D00094BF00260126EEE70126ECE70126EBE744
:1074E0006B79442F98BF04F58044042B05D1B4F583
:1074F000004F24BF012385F8383064F07F03E41186
:1075000043708470E2E710B50B4604464222002126
:10751000FFF7B3FF0123A37110BDF8B505460C4674
:1075200021F400471646CAB90B040ED55921FFF7BE
:1075300080FE59212846FFF77CFE59212846FFF797
:1075400078FE59212846FFF774FE3B46422200216F
:107550002846FFF792FF0123AB71F8BD3B4640225E
:107560000021FFF78AFF210A21F07F013143C9B2D0
:107570002846FFF75EFEEEE710B4002A0CBF022497
:10758000002447320B46D2B221465DF8044BFFF788
:1075900074BF0B464B220121FFF76FBF10B50B469E
:1075A00004464A220021FFF768FF0123A37110BDA2
:1075B000254BD3F8E831022B2DE9F04706468A46E1
:1075C0000DD88569A9420AD9C46A43694D1BE41ADA
:1075D00040F2FF792CB915BBF36AC6E9053ABDE85C
:1075E000F087062D01D90F2C1BD91F2CA04628BFD0
:1075F0004FF01F08444510D8032D2F4628BF0327FE
:1076000001213046FFF7F6FD48EA47130370A4EB6B
:107610000804ED1BDEE7A046EEE70027F0E7062DA5
:10762000F9D94D452F464FF0020128BF4F4630464D
:10763000FFF7E0FD3B0903F0700364F07F021343A2
:1076400003704770A046E2E7402C002038B50D4695
:1076500000218171FFF7F4FD4379012B1EBF036AFE
:10766000C26A43F8252038BD10B5044631B9552209
:107670004FF0FF31BDE81040FFF7EEBD022904D105
:10768000FFF7F3FD2046FFF709FE56226FF00201D7
:107690002046EFE7134621B143224FF0FF31FFF7B9
:1076A000ECBE4422F9E7134621B145224FF0FF31E9
:1076B000FFF7E3BE4622F9E7322938B5054613D075
:1076C000332914D101240721A1F12902D2B24FF0AC
:1076D000FF312846FFF7C0FD5CB12846D3220021C8
:1076E000BDE83840FFF7B8BD01240621ECE70024CF
:1076F000EAE738BD70B50D46044611462AB92B4657
:107700001322BDE87040FFF717BE022A04D1FFF72D
:10771000ACFD2046FFF7BEFD2B4618226FF001019D
:107720002046EEE730B41D4604460B692AB925B958
:107730003222012130BCFFF736BE33224FF0FF3139
:107740002046F7E7F8B515460446069F0A69EEB2EB
:1077500063B95FB91346C5F101012022FFF723FE8B
:1077600031462046BDE8F840FFF763BD1346E943C4
:1077700021222046F2E710B4044643B90F2A06D866
:10778000503AD2B201215DF8044BFFF765BD03F119
:107790002401204613465DF8044BCAB20121FFF7CD
:1077A000BDBD10B404464BB90F2A07D8403AD2B237
:1077B0004FF0FF315DF8044BFFF74EBD03F126019A
:1077C000204613465DF8044BCAB24FF0FF31FFF775
:1077D000A5BD70B4DDE90365D2B203EB460443EA0C
:1077E000062315B101320134D2B2091B70BCFFF778
:1077F00095BD07B5CDE900230B4634220021FFF7E4
:10780000E8FF03B05DF804FB07B5CDE900230B46A4
:1078100036224FF0FF31FFF7DCFF03B05DF804FBC9
:107820000E2910B504460BD10949C068FFF795FC35
:107830002322034601212046BDE81040FFF76EBD1C
:1078400001F14102D2B20121BDE81040FFF704BDB1
:10785000E410060838B504460D461021FFF7E0FF96
:1078600020462946FFF7F2FE02215C22FFF7F4FCD6
:1078700020466FF00301BDE83840FFF7E1BC01F19D
:1078800010033F2B73B506460C4607D8A1F18002C2
:10789000D2B20121FFF7E0FC02B070BD012122222B
:1078A000FFF7DAFC0DF105031946E2B202F07F00A2
:1078B000E41103F8010C601C012803F1FF3516D810
:1078C000013402F0400214D11AB97F2205F8012CCC
:1078D0009D1E491B3046FFF79AFC01AC411E2B460A
:1078E000A3420AD15D1B9DF804204255D4E72B46E4
:1078F000DBE7002AEDD00022E8E713F8012B62F065
:107900007F0201F8012FEBE710B50446C068FFF7CE
:1079100024FC2322034601212046BDE81040FFF746
:10792000FDBC00004379012B70B5044601D1012054
:1079300034E0C26B436A00259B1AC3630564206967
:10794000038D9D420BD36379032B1AD1606AE36ADE
:10795000A06223631844F8F7B0FC6063E7E7C36AEA
:1079600003EBC50213F83530052B08D10121204661
:107970009678FFF73FFC0670236C013323640135D2
:10798000DDE7042BD3D1D4E90A13626A8A4202D11B
:10799000216B994203D0A2622363002070BD94F84A
:1079A00038301BB10549064804F06CFBE268C38A15
:1079B0005268616B006903F0DFFEB8E720F5050847
:1079C000640506082DE9F74F17460023C0E9042394
:1079D00083608371C362436280F838303E8C7B8C55
:1079E000B7F82490B7F81A80B7F816A0B7F81EB009
:1079F00041710122F61808BF16464FEA8904013E7C
:107A0000826104F0040408F003021443F20002F05F
:107A10007802BB8B05460AF00F0A144336094FEA79
:107A200059094FEA980846EA090242EA0A0242EA7C
:107A300008021A4352EA0B0235D101212846FFF70A
:107A4000D9FB04706B79022B18D9D5E90F68740043
:107A500008F0010304F07E044FEA5808B6091C43FD
:107A600058EA06094FF00101284618BF44F0800487
:107A7000FFF7C0FB0470B9F1000FE8D16B6AEB634C
:107A8000B98AE8682C4EFFF751FB2B49024628467D
:107A900012F01EFC00247B8BBA8B1344A34248DDFA
:107AA000398D002241E0012128460193FFF7A2FB16
:107AB00064F07F04320104704FEA8A1402F030024D
:107AC000019B04F0400414430BF001021443DA005C
:107AD00002F0080214434FEA880202F00402144341
:107AE0004FEA490202F002021443B6084FEA59096C
:107AF0004FEA5A0A4FEA58085B084FEA5B0B92E7D5
:107B0000FB6A03EBC2035878C0070DD55888A04222
:107B10000AD15968E868FFF709FB31460246284652
:107B200012F0D6FB0134B6E701329142E8DC0521C0
:107B3000F0E703B0BDE8F08FF571020810B5044618
:107B40004420F8F7BAFBC46010BD10B50446C1610B
:107B50008800F8F799FB206210BD10B50446006A52
:107B6000F8F7BAFB2046BDE81040F8F7B5BB10B5F2
:107B7000044601618800F8F787FB606110BD10B50D
:107B8000044611B1C068F8F7A7FB6069BDE8104072
:107B9000F8F7A2BB012938B504460D460BDC026993
:107BA000406992004FF0FF3121F04CFC002325701A
:107BB0006370636038BD4068F8F766FB6368E06037
:107BC000A360F3E7437810B5024653B944680078E0
:107BD000022808BFD36821440CBF18191846516009
:107BE00010BD0020FCE7002343700378012B9EBFEB
:107BF0004369426843F82120704742684B1E134492
:107C0000494219404160704738B50C461546FFF7A8
:107C1000D9FF10B10444A04200D138BD00F8015B87
:107C20002D0AF8E710B50C460221FFF7CBFF10B183
:107C30000470240A447010BD38B50D460421144662
:107C4000FFF7C0FF28B1057084702D0A240A457023
:107C5000C47038BD70B50546032917D8DFE801F0B8
:107C60001A1A02020024FE2646F435412846FFF780
:107C7000D9FF44B17F2C10D844F4304141F0800149
:107C80002846FFF7CFFFC5E9066470BD023921F031
:107C90000104E8E70024F226E6E7A300A201DBB234
:107CA00043F4506302F4E0421A434FF2AD212846F8
:107CB000FFF7C2FFE7E7C16910B5044629B17F2984
:107CC0000BD841F43041FFF7ADFFA169204641F4E4
:107CD0003D41BDE81040FFF7A5BF8A00D2B289013F
:107CE00001F4E04142F450620A434FF20D21FFF7E4
:107CF000A3FFEAE7114341EAC301FFF793BF072A55
:107D000085BF083AD200D20042F04002072984BF62
:107D1000083941F08001114341F48C41FFF782BFE3
:107D200030B4DCB244EA02225C101D0104F4806429
:107D3000C3F3033305F4E04523432A43194330BC1E
:107D4000FFF77ABF38B5436953F821404368E41A16
:107D5000043C0546C4F34A0141F46041FFF762FF69
:107D60002B78022B0AD124F4FF6020F0070028B101
:107D700010F5006F14BF0020012038BD0120FCE782
:107D8000F8B5446954F822404268A41A043C0746F6
:107D900066101D46ABB9090241F45041F6B23143B9
:107DA000FFF740FF3B78022B09D134F0FF0506D0E6
:107DB00015F5807F14BF002501252846F8BD012553
:107DC000FBE7A312890104F4005203F4806341F439
:107DD0007041C6F30B061943C4F3853442F40042E4
:107DE00032432143FFF728FFE7E738B5436953F8EB
:107DF00021404368E41A043C0546C4F34F02C4F32F
:107E00000A3142F4784241F47041FFF715FF2B78B4
:107E1000022B08D1A00D800528B110F5800F14BFEA
:107E20000020012038BD0120FCE7F8B54768044672
:107E30000D46164613460A464FF24021FFF770FFE3
:107E40002046330C2A464FF2C021FFF769FF38461F
:107E5000F8BD072910B404460AD832F0FF0307D151
:107E600042F4005242EA01215DF8044BFFF7DABE0A
:107E7000130C1B0443B9134620460A465DF8044B15
:107E80004FF24021FFF74CBF20465DF8044BFFF74F
:107E9000CCBF000008B50378012B05D931F0FF03F2
:107EA00002D0064805F0DEF8120242F41042C9B2D0
:107EB0001143BDE80840FFF7B5BE00BF2BF505082C
:107EC00008B50378012B05D932F0FF0302D006482C
:107ED00005F0C8F8090241F41841D2B21143BDE8D7
:107EE0000840FFF79FBE00BF2BF50508090241F4CB
:107EF0002841D2B21143FFF795BE38B5436953F814
:107F0000223042689B1A43F001030C4605460A469C
:107F10000A3B4FF24021FFF703FF23462846224643
:107F20004FF43241FFF7E6FE210104F0070444F468
:107F3000884444F0780401F0800121432846BDE8DC
:107F40003840FFF76FBE072930B4054614460CD8F9
:107F5000072A0AD81F2B08D841EA831343F4D043D9
:107F600043EAC20130BCFFF75DBE9B0043EA013229
:107F700044F47841284641F0D00130BCFFF75CBEA4
:107F8000436953F821104368CB1A043B013130B4E4
:107F9000C3F34A0204460DD0D91C0BDA23F4FF6563
:107FA00025F0070515F5006F04D142F4604130BC9F
:107FB000FFF738BEC3F30A33204642F4384243F495
:107FC000704130BCFFF738BE436953F82220436844
:107FD000D31A043B013230B405464FEA63040ED095
:107FE000DA1C0CDA23F0FF0212F5807F07D10902B8
:107FF000E4B241F45041214330BCFFF713BE890184
:10800000981241F4704103F4005200F48060084378
:10801000C4F30B0442F40042C3F38531224301430D
:10802000284630BCFFF708BE38B514460B46072279
:1080300021460546FFF787FFE100284641F48F41BE
:10804000BDE83840FFF7EEBDC36C19440369C16455
:10805000012B04DD436D5A8C9142C8BF598470478F
:1080600070474FF0FF31FFF7EFBFFFF7FABF6FF038
:108070000301FFF7E9BF38B5C46C036A2144994294
:10808000054608D9083121F00304E100406AF8F7F9
:1080900016F9C5E9084038BD70B504460E46012101
:1080A0001546FFF7E8FFE06C616A01EBC00301F8D9
:1080B000306001215D6020465970BDE87040FFF7D7
:1080C000C3BF70B504460E4601211546FFF7D3FF26
:1080D000E06C616A01EBC003022201F830605D6070
:1080E00020465A700121BDE87040FFF7ADBF002265
:1080F0001146FFF7E6BF0A460221FFF7E2BF38B597
:108100000D1E044615DDFFF7B6FFE36C626A02EB55
:10811000C3020023194602EBC300012D417006BFC4
:1081200094F8280002F8330002F8331001339D421E
:10813000F1D129462046BDE83840FFF785BFF8B5A4
:10814000D0E90B530133AB4204460E46174606D91D
:108150000435A900406BF8F7B2F8E5626063D4E932
:108160000C104B1C236330F8213066F30E0320F80B
:10817000213000EB8102C3F3072367F3C713537069
:108180004FF6FF735380A06D32460021FFF7B5FE16
:10819000A06D00220321BDE8F840FFF77BBE10B4BC
:1081A000019C41EAC301A40104F4F8641143214392
:1081B0005DF8044BFFF736BD41EAC20141F4C051FE
:1081C00041EA8311FFF72EBD0B46D0E90C2102F1E5
:1081D0008042013A01EB820210B50446D0786FF379
:1081E000C710D070043A91420BD892F903000028CE
:1081F000F8DA1288A06DC2F30E020021FFF77DFEAF
:1082000006E063B91A4644F24001A06DFFF772FD23
:10821000A06D00220321BDE81040FFF73BBE10BD5A
:1082200010B504460121FFF7CFFFA06D0122002108
:10823000FFF746FE002220461146BDE81040FFF73A
:108240002BBF10B4D0E91540E48AE407134604D5E7
:1082500006225DF8044BFFF776BE5DF8044BFFF78E
:108260002FBE70B50446D0E91560F68AF6070D46B4
:108270000AD59200FFF7EDFD2A462946A06D062398
:10828000BDE87040FFF798BFBDE87040FFF72EBE15
:1082900003681A78042A70B508BF5A685D8808BF59
:1082A00042F825106A1C04465A800021B0F8482084
:1082B000FFF7C7FF00221146A06D0223FFF743FE20
:1082C00000222B46A06D1146BDE87040FFF73BBE73
:1082D000F8B5C76C446A07F10053023B04EBC304D2
:1082E00004F10803054693E8030084E80300667878
:1082F00056B9B5F84A203A44013A31462846FFF7C4
:10830000A0FF01236370666028464FF0FF31BDE88F
:10831000F840FFF799BE13B5D0E91530DB8ADB07CB
:1083200007D5009106234FF4C041FFF738FF02B094
:1083300010BD02B0BDE81040FFF7ACBD70B5002421
:1083400005462646EB6CA34200DC70BD6B6A03EB6E
:10835000C4035A78012A07D1B5F84A105E705A68EA
:1083600021442846FFF7D7FF0134EBE7F8B5044670
:108370001E4617460D46FFF7E1FF3A463146A06D0F
:10838000FFF767FD2946A06D0322BDE8F840FFF71F
:108390004BBE38B504460D46FFF7D0FF2946A06D09
:1083A0000322BDE83840FFF73FBE10B50821044660
:1083B000FFF7EFFF002220461146BDE81040FFF70F
:1083C0006BBEF8B504461E4617460D46FFF7B6FFCE
:1083D0003A463146A06DFFF73CFD2946A06D0322C9
:1083E000BDE8F840FFF720BE10B402F129040023D5
:1083F0000A46E1B25DF8044BFFF7E3BF70B50446EF
:108400000E46154662B1037D53B1084605F04DF89E
:10841000021E05DD20467021BDE87040FFF751BE09
:1084200006353246E9B220460023FFF7CAFF002294
:1084300020461146BDE87040FFF72EBEF8B516463F
:1084400004460F46FFF77AFF31462046FFF713FE3A
:108450000025E36C2A46B5420CD1B4F84A203946CF
:1084600020461A44FFF7FDFE29462046BDE8F840A5
:10847000FFF7EABD616A581901EBC00C01358CF8B1
:10848000012001F83020E6E7F8B5044617461E46FD
:108490000D46FFF753FF3A46A06D0021FFF7D9FCC8
:1084A0003246A06D0121FFF7D4FC2946A06D0322BE
:1084B000BDE8F840FFF7B8BD2DE9F041C66C0024D7
:1084C00005460F46B61AA046EB6CA34201DCBDE898
:1084D000F081B44211D06B6A03EBC4035A78012ACD
:1084E0000BD15A68BA4208D1B5F84A1083F8018016
:1084F0003A4621442846FFF70EFF0134E4E738B539
:10850000002205460C461146FFF7D6FFE200A86D93
:1085100042F002020021FFF79CFC0022284611468F
:10852000BDE83840FFF7B8BDF8B5C3699E5C602E62
:108530000446154606D1476813480A46134907F012
:108540000DFD3860022D0DD8636D9A8C52B9DB8A0F
:10855000DB0707D40E4B5A5D31462046BDE8F84094
:10856000FFF79ABD002211462046FFF7A5FFB4F899
:108570004A20636CED431A442A4400212046FFF749
:1085800060FE0022E8E700BF84060608B1F5050892
:1085900016F7050838B5002204460D461146FFF7C8
:1085A0008BFF626D2068D38A43F02003D382294673
:1085B000FEF7D3FDB4F84820054600212046FFF71A
:1085C00040FE00221146A06D0123FFF7BCFC0022F3
:1085D0001146A06D0323FFF7B6FC00221146A06DE3
:1085E0002B46FFF7B0FC002220461146BDE838407C
:1085F000FFF752BD0E2902D10749FFF7CBBF102963
:1086000003D100225421FFF75CBDB1F10F0218BF66
:1086100001220121F7E700BFE4100608037D63B1E2
:10862000C1F1FF5101F5FF11C36C01F5FF511F317D
:108630001944436A13F83100704718467047000028
:1086400070B50E4615463BB9037D2BB1806D52685F
:10865000FFF7FFFB287870BD2C7834B96A68806D0D
:108660003146FFF7F6FB0020F5E7012C07D16B68D8
:10867000013307223146806DFFF765FCF3E7A31E47
:10868000012B04D86A68520042F00102E7E7542C3B
:1086900001D10023EDE7014804F0E4FCF9F60508F8
:1086A000F8B50546FFF74AFE00242746EB6CA342C7
:1086B00000DCF8BD6E6A06EBC4025378022B0ED1C3
:1086C0005770012100232846FFF7BAFFB5F84A107A
:1086D00006F83400012221442846FFF71CFE01342D
:1086E000E4E738B504460D46FFF7DAFF2946A06DEA
:1086F000FFF746FCA36D01225A7038BD38B5044619
:108700000D467AB100221146806DFFF7A2FB0022D0
:108710000121A06DFFF7BEFB29462046BDE8384089
:10872000FFF7DFBF1146FFF74FFDF5E72DE9F041F9
:1087300004460E46C2B3D0E90C1C01F18041013958
:108740000CEB81010023084615461F4690F901E015
:10875000BEF1000F11DA90F903E0BEF1000F0CDA60
:10876000002F08BF07463BB1B0F80080B3F802E025
:1087700068F30E0EA3F802E00346013DA0F10400E9
:10878000E4D16FF00300424301EB020EA06DCBB9C0
:10879000F44510D91A4644F24001FFF7ABFA002223
:1087A0000321A06DFFF776FB26F400412046BDE8CB
:1087B000F041FFF796BF8A5A1946C2F30E02FFF73F
:1087C0009CFBECE75A8847F6FE7161F30E025A8073
:1087D000294626F40042FFF790FB2A461321A06D9C
:1087E000FFF758FB2A462946A06DFFF732FB2A46C1
:1087F0000121A06DFFF74EFB3E88C6F30E06D3E7BE
:10880000F8B504460E4617460A4619461D46FFF7B8
:1088100053FEE36C616A981B01EBC00211F8301043
:108820003970517801290DD002D3022913D0F8BD37
:10883000B4F84A201A44921B29462046BDE8F84065
:10884000FFF7FFBC5268AA42F1D02946A06DBDE8EF
:10885000F840FFF754BA002329462046FFF7F0FE00
:108860003870E4E710B5134604460A460121FFF7C5
:10887000C7FF20464FF0FF31BDE81040FFF7E4BBD3
:1088800070B5049E04461D46FFF7ECFF32462946AC
:108890002046BDE87040FFF7E5BF7FB501250DF12B
:1088A0000F030DF10E01009500220446FFF7E8FFCB
:1088B0009DF80F609DF80E1020460022FFF7ECFB9C
:1088C0002A4631462046FFF7E7FB04B070BDF0B5FD
:1088D00085B001250DF10F030DF10E010095002269
:1088E0000446FFF7CDFF9DF80F709DF80E602A46F5
:1088F00039462046FFF7D0FB314620460022FFF7DD
:10890000CBFB2A4639462046FFF7C6FB00223146FC
:108910002046FFF7C1FB05B0F0BD2DE9F041DDE9D0
:10892000068504461F46089EFFF79CFF42463946CF
:108930002046FFF797FF324629462046BDE8F04122
:10894000FFF790BF2DE9F04186B002260DF1170325
:10895000012501930DF115010DF116030296009505
:1089600000220446FFF7D9FF9DF817809DF8167086
:108970009DF8151020460022FFF78EFB3246414637
:108980002046FFF789FB2A4639462046FFF784FB3D
:1089900006B0BDE8F08130B587B00DF117030025B2
:1089A000019302230446009301220DF116030DF1F9
:1089B00015010295FFF7B1FF20461921FFF7E9FCE9
:1089C0002A4629462046FFF767FB07B030BD73B53E
:1089D000046B05460E46D4B104F18044436B013C60
:1089E00003EB840292F90120002A1EDA33F82430C6
:1089F000C3F30E038B4218D100220DF10701FFF7DC
:108A000031FF00220121A86DFFF744FA0124284616
:108A1000FFF746FE3146A86DFFF7E5F81CB10021CF
:108A20002846FFF7D1FB02B070BD0024EFE738B550
:108A3000012204460021806DFFF742FA22212046E0
:108A4000FFF7A7FCD4E90C35013B05EB8305236355
:108A50006B8847F6FF72C3F30E03934228D01322AC
:108A60000021A06DFFF72CFA4FF42051A06DFFF705
:108A7000D9F8A368A06D1A680021FFF7A5FA6988E4
:108A800047F6FE73C1F30E029A420BD14FF48E41AA
:108A9000A06DFFF7C7F8A36820461968BDE8384005
:108AA000FFF795BFC1F30E012046FFF71AFEF2E76C
:108AB00038BD00002DE9F0430446C16885B0FFF7DA
:108AC00086FF636D9A8CD98A12B901F0110373B3D2
:108AD00011F0010117D1B4F8482020460132FFF708
:108AE000B0FB636D9D8C55B94FF42051A06DFFF71D
:108AF00099F8E268A06D01322946FFF765FA052171
:108B00002046FFF746FC21212046FFF742FC636D1B
:108B1000DA8AD20706D49B8C23B9E168204601315A
:108B2000FFF755FF12220021A06DFFF7C9F9A06DD4
:108B3000FFF7C1F8237D002B5FD1A36D656C5B68E7
:108B4000A36323685B88E363636D013D5E8BDF8A0B
:108B5000B3F81C90B3F81E80EA0006F0030302F09D
:108B6000780207F00F071A432D09B60845EA0703F4
:108B7000334343EA090353EA0803A06D6AD1012194
:108B8000FFF742F8B4F85060B4F85270A06D72006C
:108B900007F0010302F07E027F08B60957EA0605D6
:108BA00042EA030218BF42F080020121FFF72CF8CD
:108BB000002DEBD1636DA76D998A20687E68FEF762
:108BC000B5FA4C490246384611F082FB494F626DB6
:108BD000538B918B108D0B44AB4279DCA36D9F8836
:108BE000BE1BA4F850600025D4E915301A8DAA42A6
:108BF00070DC4368DB1BA4F852302369042B25D1B9
:108C0000A36DD3E9027623685868237D5BB9A56B11
:108C1000E16B354400296AD001318900F7F74FFB39
:108C2000E36B40F82350626D237D15690021CDE987
:108C30000211002BD38A08BF0321CDE9000332467D
:108C40003B4618BF0421284602F0A3FD012005B0D1
:108C5000BDE8F08342F080020121FEF7D5FFBA01A2
:108C60002B0103F0300302F040021A4308F0010325
:108C70001A434FEAC90303F008031A43B30003F091
:108C800004031A43AD087F0876084FEA59094FEAF2
:108C900058086BE7D36A03EBC10393F801C01CF0DB
:108CA000010F10D0B3F802C0AC450CD15968206850
:108CB000D4F85880FEF73AFA39460246404611F099
:108CC00007FB013583E701318142E3DB0521EEE754
:108CD0000021F9E7DB6A03EBC50213F83530052BF9
:108CE00003D152880121FEF78FFF01357CE728462A
:108CF00099E700BFC57B0208F8B583681A68C260AF
:108D0000426DD58A928C04461AB915F0110F00F005
:108D1000E2801E6815F0010506F102071CD1B4F8C7
:108D2000482029462046FFF78CFA01232A46294687
:108D3000A06DFFF708F92A4601232946A06DFFF729
:108D400002F905212046FFF724FBB4F848102A4613
:108D500001312046FFF7DFFAD4E915309A8C002A5A
:108D600067D1D98A11F0010508D14FF42051FEF7DF
:108D700059FF3A462946A06DFFF726F90022114611
:108D8000A06DFFF7B3F820212046FFF702FB4FF458
:108D90002051A06DFEF746FF3A460021A06DFFF777
:108DA00013F9636DD98A11F0010109D1B4F8482093
:108DB00020460132FFF745FA05212046FFF7E9FA80
:108DC000D4E91530D98A11F001014FF001027BD0AE
:108DD0000021FFF775F846F27011A06DFEF722FF33
:108DE000A06D02220021FFF734F8A06DFEF763FFAB
:108DF00039462046FFF7EBFD636DDB8ADB076AD55A
:108E0000B4F84820204601320021FFF71AFAA06D7D
:108E10004FF48E41FEF706FFA06D436823640021E6
:108E20000122FFF74DF820462221BDE8F840FFF768
:108E3000B0BA00231A4644F24001FEF75BFF00225D
:108E40001321A06DFFF726F8751C3A460421A06D8A
:108E5000FFF753F829462046FFF7B9FD00221146D7
:108E6000A06DFFF743F820212046FFF792FA033662
:108E70004FF42051A06DFEF7D5FE32460121A06DC2
:108E8000FFF7A2F800231A4644F24001A06DFEF756
:108E900031FF00220321A06DFEF7FCFF44F2207198
:108EA000A06DFEF7BFFE31462046FFF790FD03227E
:108EB0000421A06DFFF704F84FF43051A06DFEF7C8
:108EC000B1FE2A46012169E7FEF7FAFF222120467A
:108ED000FFF75FFA8CE7F8BD138B2DE9F0410446EC
:108EE000D81E43424341237500230E462161E364AB
:108EF000118CA36962658B42154605D2E069F7F7CC
:108F0000DEF92B8CE061A361676DBB8B7A8B1A4411
:108F1000EB8A590748BF01329B074FF0000348BF57
:108F2000013219469A4210D194F814C0BCF1000FD6
:108F300004D0B7F828E0002296450ADCBCF1000F07
:108F4000A26914BF6021002115E0E069C15401331A
:108F5000E8E7F86A00EBC2000132417811F0010F36
:108F60001FBFB0F80280E069090900F80810E3E7C4
:108F7000E069C15401339A42FAD80023216A1846A5
:108F80006027994239D1042E14BF01210221A06D1E
:108F9000FEF700FE0023A4F84830636D9A8C002A87
:108FA00034D1DB8A03F0110313B11323A4F8483042
:108FB00099492068FEF7D1F8277D2B8C666D698C66
:108FC0008046002F00F0DF80CA18B18C6264F9B9C6
:108FD000F08AC60707D4032BA8BF032319466B8B5F
:108FE000032B00D9013910F0110F12D1E88AB4F81F
:108FF0004830800648BF01330EE0626A02EBC30CC2
:109000008CF8010002F833700133BAE71423CDE77E
:109010000021B4F848300233A4F84A30B4F84A309A
:10902000A06D1A44511AFEF715FE012300220721F4
:10903000A06DFEF788FF072211460323A06DFEF7FF
:1090400082FF072243461146A06DFEF77CFF636D49
:109050009A8C1AB9DB8A03F030032BB10022B4F8E2
:109060004810A06DFEF716FF01220021A06D6B4E87
:10907000FEF745FE02220121A06DFEF740FE03220D
:109080000621A06DFEF73BFE4FF42451A06DFEF7C4
:10909000C9FDA368A06D1A6801210432FEF794FF90
:1090A0006A8BA06D0221FEF7D4FE022300224FF44A
:1090B0008541A06DFEF71EFEA368A06D1A68002111
:1090C0000532FEF781FFA368A06D19680431FEF731
:1090D0008AFD6B8BA06D5A0042EA43420221FEF7E3
:1090E000B8FE03222C21A06DFEF79EFFA368A06DA1
:1090F00019680531FEF777FD0025636D5A8BAA428A
:1091000014DC032A0DD99A8C5AB9DB8ADB0708D400
:10911000B4F84A20636CA06D1A44033A0621FEF7A6
:10912000CFFE2046BDE8F041FFF7E6BD2B46062204
:109130000021A06DFEF707FFE3695A5D22B101230C
:1091400003212046FFF712F9022D11DC636D9A8C82
:1091500072B9DA8AD2070BD4022D02D15B8B032BB2
:1091600006D10022715DA06DFEF7C9FD0135C4E78F
:10917000B4F84A10636C194401390022491B204697
:10918000FFF7C9F8F2E7F68AA06D194416F0010658
:10919000616445D0E26B0421FEF736FD226CA06DC0
:1091A0000421FEF731FDB4F84810A06DFEF752FD22
:1091B0004FF4A023A3643A460621A06DFEF79FFD5D
:1091C00001221146A06DFEF765FEB4F84830A06D8F
:1091D00006223946FEF7B7FE01233A463946A06D0E
:1091E000FEF7B1FE03233A463946A06DFEF7ABFE0B
:1091F00043463A460721A06DFEF7A5FE2046FFF73D
:109200007BFD636D9A8C1AB9DE8A16F0010665D073
:109210000023298D18466EE0A8FA050816F7050800
:10922000B4F8483005339BB21944A4F84A30FEF72D
:1092300011FD012332460721A06DFEF784FE0722AF
:1092400011460323A06DFEF77EFE0722434611461A
:10925000A06DFEF778FE3246B4F84810A06DFEF718
:1092600019FE022332463146A06DFEF76CFEE36B19
:1092700023B132463146A06DFEF765FEB4F84810C2
:10928000204600220131FFF746F8626CA06D0021F4
:10929000FEF7DFFDB4F84810204600220331FFF747
:1092A0003AF8B4F84820A06D0021FEF71FFE042212
:1092B0002D21A06DFEF7B8FEA0E7B4F84A20636C3C
:1092C000B95DA06D1A44013A921B0136FEF7F8FD14
:1092D000032E9DD02B8CB342EFDC99E7084FF9E7C2
:1092E000EA6A02EBC30612F83320052A02BF72882D
:1092F000E669B05401339942F2D8BDE8F08100BF6D
:1093000016F7050873B504460E46154672B90122D4
:109310000DF10701FFF7A6FA05F10C010023324613
:10932000C9B22046FFF74DF802B070BD0021FFF72B
:1093300075F98DF8070020B901220DF107012046CB
:10934000E8E70DF1070120460022FFF78BFA9DF8B0
:109350000720204601230421FFF708F800220121FD
:10936000A06DFEF7CCFCD7E773B50D4616460DF1A0
:10937000070100220446FFF775FA721C2A442046B2
:109380000221FFF75BF8012345EA06222821204647
:10939000FEF7ECFF02B070BD37B504460D46002263
:1093A0000DF10701FFF75EFA2A4620460221FFF77A
:1093B00045F801232A4627212046FEF7D7FF03B0B0
:1093C00030BD37B50D4600220DF107010446FFF709
:1093D00049FA55B1012120460422FFF72FF81E213A
:1093E0002046FEF7D6FF03B030BD2A46A06D01210E
:1093F000FEF72FFD20461E21FEF7CBFF2A46294609
:109400002046FEF749FEEEE737B500220DF10701D1
:109410000446FFF727FA9DF807302BB107490848A3
:10942000656806F09BFD286022212046FEF7B1FF0B
:10943000A36D01225A7003B030BD00BFC6F5050808
:109440008406060873B501220E460DF10701044695
:10945000FFF708FA9DF8075065B9324611212046FA
:109460002B46FEF783FF2A4629462046FEF714FEC8
:1094700002B070BD20460121FEF7E6FD044B054910
:109480009A5D0548646806F069FD2060F0E700BF5A
:1094900078190608E4F60508840606082DE9F34164
:1094A0000E460021174604461D46FFF7B7F802A9ED
:1094B000024601F8010D38BB2046FFF7D3F91DB96C
:1094C00001212046FEF7C0FD10212046FEF761FF76
:1094D0001DB99DF8073084F828302046FFF7E0F8E2
:1094E0004FF42051A06D7EB3FEF79CFB3A4601215C
:1094F000A06DFEF769FD25B94FF0FF312046FEF75C
:10950000A3FD02B0BDE8F08100222046FFF7AAF9D2
:109510001DB901212046FEF797FD9DF807305A1E20
:10952000022AD5D9072B98BF0A4A0B4998BF32F8AF
:1095300013200A48D4F8048088BF40F2E31206F0F2
:109540000DFDC8F80000C3E7FEF76CFB3A46314654
:10955000CEE700BF38F505089BF505088406060828
:109560000023FFF79BBF0123FFF798BF022A7FB5B7
:1095700004460E46154614D8436D9A8C8AB9DB8A88
:10958000DB070ED41D4B0DF10F015A5DFFF76AF991
:10959000E1699DF80F204B5D602B13D14A5504B053
:1095A00070BD0DF10F0120460022FFF75BF9616CE1
:1095B000B4F84A300B44E943002219442046FEF730
:1095C000AAFEE5E79342EAD0072B98BF0C496468EE
:1095D00098BF31F813300B4888BF40F2E313072AD5
:1095E00096BF074940F2E31231F812200092064973
:1095F000324606F0B3FC2060D1E700BF16F705083D
:1096000038F5050884060608D8F5050870B504463F
:109610000D46164653B91A465421FEF752FD3246FE
:1096200029462046BDE87040FFF7A0BF70BDF8B5E1
:10963000C46CD0F824C0DDF818E004F10054013CFB
:109640000E460CEBC40105464F78012F12D1496834
:1096500099420FD071450DD01CF834303370116031
:109660003A46FEF729FF28464FF0FF31BDE8F840A3
:10967000FEF7EABC1368012132462846FFF7C0F81E
:10968000F1E77FB504AA002342F8043D4FF0FF3311
:1096900000930DF10B010446FFF7C9FF9DF80B5035
:1096A000039E294632462046FEF7F6FC32462946FE
:1096B0002046FEF7F1FC04B070BD70B5044686B0DC
:1096C0000D4616461BB9FFF751FF06B070BD0022CC
:1096D0001146FEF7F1FE204600220121FEF7ECFEC6
:1096E000324629462046FEF71FFF06AA002342F80D
:1096F000083D4FF0FF3300930DF10F012046FFF7B7
:1097000096FF01230593049B00930DF10F01204662
:1097100005AAFFF78CFF059B0499A06D43F4C04395
:1097200043F0400343EAC101FEF77CFACDE77FB581
:1097300004460D4616461BB9FEF7F6FE04B070BD92
:1097400000221146FEF7B8FE324629462046FEF7B3
:10975000EBFE04AA00254FF0FF3342F8045D0DF143
:109760000B0100932046FFF762FF039AA06D294684
:109770000123FEF7E8FB2A4629462046FEF78CFC2B
:10978000DCE70000F0B50D4685B001210446FEF788
:1097900045FF002102468DF80A002046FEF73EFFF5
:1097A000931E012B07468DF80B0000F2D280861E17
:1097B000012E00F2F880A5F109030C2B9CBF0D359A
:1097C000EDB21F2D01D0212D23D1002300930122C2
:1097D0000DF10A030DF10B012046FFF751F89DF83A
:1097E0000A30022B07D07F4B7F495A5D7F4866685D
:1097F00006F0B4FB30601F2D0CBF2E212F21204618
:10980000FEF7C7FD002202212046FEF745FC05B009
:10981000F0BD04AA0126022342F8043D0DF10B011C
:10982000002320460096FFF702FF32460DF10A01A1
:109830002046FFF717F8A5F11903B34217D8192DE1
:10984000A06D039B08D132464FF48141FEF752FAD6
:1098500001229DF80A10D7E79DF80A20032A08BFC5
:1098600044F2C001324618BF4FF48241EEE7162D94
:1098700005D1039B32464FF48641A06DE6E7172DD4
:1098800004D1039B324644F24001F6E7182D04D17F
:10989000039B32464FF48041EFE71B2D06D1039B1B
:1098A000A06D32463146FEF787FCD1E71C2D08D16A
:1098B0000399A06D41F6092343EA8111FEF7B2F93D
:1098C000C6E71D2D04D1039B324644F24031D4E754
:1098D000052D31D89DF80A209DF80B309A4205D00D
:1098E00043494248666806F039FB30609DF80A300B
:1098F0000022032B1146204614BF06260026FEF741
:10990000DBFD0122039BA06D4FF48541FEF7F2F9C8
:109910003544384BA06D33F81510FEF783F942F249
:109920000101A06DFEF77EF94FF40051A06DFEF726
:1099300079F90022012167E720460121FEF784FB27
:10994000284B2D495A5D2948646806F007FB2060C2
:109950005DE742BB38BB012600960DF10A030222E7
:109960000DF10B012046FEF78BFF322D17D0332D62
:1099700017D03E4600232A4612212046FEF7F6FC69
:1099800056B100220121A06DFEF7B9F90023032290
:1099900011212046FEF7EAFC0022114634E7062595
:1099A000E8E70725E6E74FF0FF312046FEF74CFBDE
:1099B0009DF80A300D486468072B9CBF0F4A32F8A7
:1099C00013209DF80B3088BF40F2E312072B96BF9F
:1099D0000A4940F2E31331F81330094906F0BEFAA0
:1099E000B5E700BF4218060848F5050884060608D2
:1099F00058F50508FEF605086BF5050838F5050865
:109A000079F5050803297FB50546164612D10122CE
:109A10000DF10F01FEF726FF182400230DF10F02B0
:109A200031462846FEF7ECFE21462846FEF7B1FCFB
:109A300004B070BD052906D101220DF10F01FEF71A
:109A400011FF1724E9E70223009301220DF10F0310
:109A50000DF10E01FEF714FF1924DEE77FB5044671
:109A60000E46154682B90DF10F01FEF7FBFE324698
:109A7000092120460123FEF7A4FC2A462946204658
:109A8000FEF70AFB04B070BD012A35D11146FEF77E
:109A9000C5FD02468DF80F0078B9022300930DF141
:109AA0000E010DF10F032046FEF7EAFE01233246B8
:109AB0000E212046FEF785FCE4E70DF10F0220465B
:109AC00000230221FEF79CFE2B469DF80F20204626
:109AD0000421FEF74BFCA06D00220221FEF70FF9D6
:109AE0000DF10E0120460022FEF7BCFE4FF0FF31C3
:109AF0002046FEF7A9FAD9E70DF10F010022FEF783
:109B0000B1FE02231A4644F24001A06DFEF7F2F8BE
:109B1000CCE7F0B5044685B00E461546C2B902231F
:109B2000077D2275009301220DF10F030DF10E0147
:109B3000FEF7A6FE27752B46324623212046FEF768
:109B400040FC002211462046FEF7A6FA05B0F0BD03
:109B5000012A09D100230DF10F022946FEF750FE1C
:109B60002B4632462421E9E70DF10F010022FEF7D2
:109B700079FE25212046FEF70CFCE7E72DE9F84F9A
:109B8000044689461746FEF7D9FB00256FF060486A
:109B9000AA46BD4210D10027BB46BD422BD1694227
:109BA0002046FEF751FAB4F84A20E36C49461A44BD
:109BB000BDE8F84FFEF755BBE66CD4F824B0464438
:109BC000761B0BEBC6025378022B12D182F801A050
:109BD000012349462046FEF733FDB4F84A10E36CF2
:109BE0000BF83600194401394A46491B2046FEF756
:109BF00092FB0135CDE7E36CD4F824A003F10058C3
:109C000008F1FF38A8EB07081AF83820BAB1B4F801
:109C10004A601E44013EF61B324600212046FEF7F4
:109C200010FB01231AF8382004212046FEF79EFB82
:109C3000002231462046FEF76EFB0AF838B00137A5
:109C4000ABE70000037D37B504460D4613B1544819
:109C500003F008FA426DD38A43F00103D382FEF782
:109C60001FFD012D0BD1A368196820460231FEF7B4
:109C700038FDA368196820460131FEF7A8FE0122CD
:109C800000212046FFF77AFF002202212046FEF73E
:109C900042FB01220021A06DFEF7DBF80022122119
:109CA000A06DFEF7F7F8A368A06D1A680021FEF713
:109CB00024F9B4F84810002201312046FEF72BFBAE
:109CC000E168A06DFEF75CF9A368A06D1968FDF767
:109CD0008AFF236BBBB1626B03F18043013B02EB54
:109CE00083039A420FD893F9031000291BDA1A88CC
:109CF000A06DC2F30E020021FEF7FFF8002203213F
:109D0000A06DFEF7C7F801212046FEF7F8F965B906
:109D10002946A06D0122FEF7D3F822212046FEF746
:109D200038FB03B030BD043BDBE7A368196820466D
:109D30000231FEF74CFE0DF1070120460122FEF72D
:109D400091FD00230DF1070220460121FEF758FD89
:109D5000A06D01220221FEF7B3F820460222002165
:109D6000FEF79AF9012220460221FFF707FF20465D
:109D70003021FEF70EFBA06D4FF42051FDF752FF8E
:109D8000A368A06D1A6801210132FEF71DF9204673
:109D90000121FEF7B4F92046FEF79AFAC1E700BFA9
:109DA000F1F60508F8B5164604460D46520093B183
:109DB000CB1C1A440221FFF7E1FE45EA06230122EB
:109DC0001D212046FEF760FB002220461146BDE81B
:109DD000F840FEF761B98B1C1A440221FFF7CEFE52
:109DE00033462A461C21ECE72DE9F341154601EBE9
:109DF00042020E46114604469846FEF70FFC7028B4
:109E00008DF8060032D1E26C636A03EBC2030021D5
:109E1000204613F80C5CFEF701FC07280DD888B12A
:109E20002046FEF755FAE36C626A03F10053013BEA
:109E300002F8335002B0BDE8F0815428F0D01E483B
:109E400003F010F900220DF107012046FEF70AFD8C
:109E50002046FEF706F92A4603210123FEF786FA7B
:109E6000002229462046FEF717F9E3E746EA0527D0
:109E7000B8F1000F0DD0023202212046FFF77EFE1E
:109E80003B4600221D212046FEF7FEFA0022114625
:109E9000E8E706B91DB102212046FFF76FFE0DF17C
:109EA000060120460022FEF7DDFC01233A461B2175
:109EB0002046FEF75BFAE9E793F505082DE9F8433C
:109EC0000446894616460121B0F84820089D1F46E1
:109ED000FEF7B7F901231A461946A06DFEF733F8CD
:109EE0007FBB75BB2046FEF729FA2A460221A06DEA
:109EF000FDF7AFFFD9F810102046FEF7C9F903228D
:109F00001A21A06DFEF790F832460121A06DFDF7F1
:109F1000A0FF324602212046FFF730FE07B925B1E7
:109F20006FF001012046FEF78FF8A06D03222B2170
:109F3000FEF77AF8002220461146BDE8F843FEF706
:109F4000ABB806F10208424620460221FFF716FE92
:109F500041462046FEF778F8FEF7F0F9CAE7F8B573
:109F6000044617460E46B0F8482001211D46FEF76C
:109F700068F901231A461946A06DFDF7E4FFC7B939
:109F8000BDB92046FEF7DAF92A460221A06DFDF799
:109F900060FF31692046FEF77BF9A06D03221A218C
:109FA000FEF742F8002220461146BDE8F840FEF7D1
:109FB00073B8022220461146FFF7E0FD2046FEF767
:109FC000BDF9E6E770B5042A86B004460E4615468C
:109FD0002AD102294FF0000518D10DF116030122F4
:109FE0000DF117010095FEF74BFC2B460722314679
:109FF000A06DFDF7A8FF26212046FEF7CAF9002232
:10A0000011462046FEF748F806B070BD0DF1150365
:10A0100001930123009302950DF1160302220DF125
:10A020001701FEF77AFCE6E7012A01D9032A04D1D9
:10A03000324601212046FFF7A1FD05F1130100235F
:10A040003246C9B22046FEF791F9D8E738B5042266
:10A0500004460D460021FFF791FD20460421FDF73F
:10A06000F3FF1F21FEF795F9A06D4FF42051FDF786
:10A07000D9FD2A46A06D0021FDF7A6FF002220464B
:10A080001146BDE83840FEF707B838B504460D461E
:10A090000021FEF799F820464FF0FF31FDF7D4FF7D
:10A0A000A36819680231FEF792FC20460022542171
:10A0B000FEF707F8204600225421FEF702F820465A
:10A0C00000225421FDF7FDFF204605220221FFF763
:10A0D00055FD0322204600231C21FEF7D5F9A36875
:10A0E00020461968FEF7FDFA2946A06DFDF77BFDB5
:10A0F00020460121FEF768F820460221FDF7FFFF08
:10A100000122A06D0021FDF7DBFEA06D4FF4205170
:10A11000FDF788FDA368A06D1A6800210232FDF7E3
:10A1200053FF00231A46A06D0121FDF70CFF2046C6
:10A1300001220021FDF7B0FF002211462046FDF765
:10A14000ABFF204600225421FDF7BBFF204605222D
:10A150000221FFF713FD0023032220461C21FEF7F6
:10A1600093F920461021FEF714F9A06D4FF4205109
:10A17000FDF758FDA368A06D1A6800210132FDF7B4
:10A1800023FFA36820461968FEF721FC0022114630
:10A19000A06DFDF75EFEA06D01210022FDF77AFEA5
:10A1A000A368196820460131BDE83840FEF70FBCAE
:10A1B00073B504460E461546002A56D113460121B2
:10A1C0000DF10702FEF71CFB022211462046FEF7A6
:10A1D00035F901230D220A212046FEF7F2F802226A
:10A1E0000DF107012046FEF73DFB01220DF10701AD
:10A1F0002046FEF737FB2A460DF107012046FEF701
:10A2000031FB01229DF807102046FDF745FF022291
:10A210009DF807102046FDF73FFF02221146204619
:10A22000FEF70CF901230C220A212046FEF7C9F89B
:10A23000022211462046FFF7A1FC2B462A461C218C
:10A240002046FEF721F92A4629462046FDF724FF3D
:10A250002046FEF725FA204601223146FDF76FFF22
:10A260002046FFF70EFA02B070BDFEF719FAAB1EDA
:10A270005A425A4131462046FDF761FFF3E737B5B0
:10A2800004460D4682B103220121FFF777FC02222A
:10A2900001212046FEF7D2F800232A460B21204652
:10A2A000FEF78FF803B030BD0DF10701FEF7DAFAC3
:10A2B000022211462046FEF7C1F801232A460A2150
:10A2C000EDE70000436D73B5DD8A15F00106044625
:10A2D00013D001220021FFF751FC00220221204669
:10A2E000FEF719F800221146A06DFDF7B2FD00221D
:10A2F0001221A06DFDF7CEFD1CE0027D002A4FD09B
:10A300003146FEF78BF95428C5F3871525D1204631
:10A31000FDF7A7FEADB92B4607222946A06DFDF734
:10A3200012FE636D9A8C002AE1D1DB8A03F01103DF
:10A33000002BDCD1226BE1682046FEF7F7F902B072
:10A3400070BD32463146A06DFDF783FD01232A46DC
:10A3500004212046FEF70AF8E3E732460DF1070133
:10A360002046FEF77FFA9DF80730AB4215D0072D47
:10A3700098BF0E4A0E4898BF32F81520666888BF0D
:10A3800040F2E312072B96BF084940F2E31331F87D
:10A390001330084905F0E2FD3060002DC1D0D5E74B
:10A3A0000DF10701FEF75EFABBE700BF38F50508BF
:10A3B00084060608D0F505082DE9F04389B0044667
:10A3C0000D460DF11C08002940F03C810121FEF7EB
:10A3D00025F90DF12009064609F8090D80BB014653
:10A3E0002046FEF71BF98DF81C00B8B90122414642
:10A3F0002046FEF737FA002249462046FEF732FA99
:10A4000004220F2102232046FDF7B0FF002211464F
:10A410002046FDF741FE09B0BDE8F08332464146D3
:10A420002046FEF71FFA9DF81C2020460123042138
:10A43000FDF79CFF32460121A06DFDF760FCDAE7D5
:10A44000E36C626A03F10053013B02EBC30132F893
:10A45000332040F202239A4240F0828020460126B7
:10A460004F68FDF7FEFD3346424649460096079584
:10A47000FFF7DDF82A4629462046FEF71DF89DF82D
:10A480001730062B2CD0072B4AD0052B40F0CA8062
:10A49000F7B17B1E1E2B0AD8079B00972A464FF464
:10A4A000F041A06DFDF77BFE00220221B0E72A46B5
:10A4B00031462046FEF700F83A463146A06DFDF7DA
:10A4C000C8FC079BA06D32463146FDF775FE079626
:10A4D0000799C90041F4F041A06DFDF7A3FBE3E744
:10A4E000CFB17B1E1E2B05D80097079B2A464FF441
:10A4F0000841D6E72A4631462046FDF7DDFF7A00BF
:10A500003146A06DFDF7A5FC079BA06D3246314694
:10A51000FDF752FE07960799C90041F40841DBE7B1
:10A52000CFB17B1E1E2B05D80097079B2A464FF400
:10A53000D041B6E72A4631462046FDF7BDFFBA00B6
:10A540003146A06DFDF785FC079BA06D3246314674
:10A55000FDF732FE07960799C90041F4D041BBE7E9
:10A560000123079342462B4606A920460095FFF794
:10A570005EF82A4649462046FEF774F92A462946DF
:10A580002046FDF799FF9DF818309A1E012A0ED932
:10A59000072B98BFBA4ABB4998BF32F81320BA4874
:10A5A000656888BF40F2E31205F0D8FC28609DF88A
:10A5B0001730062B0CD0072B19D0052B32D10022D7
:10A5C0001146079BA06DFDF7F7FD4FF4F04183E7BF
:10A5D00000221146079BA06DFDF7EEFD00221146FB
:10A5E000079BA06DFDF7E8FD4FF4084174E70022DA
:10A5F0001146079BA06DFDF7DFFD00221146079B6A
:10A60000A06DFDF7D9FD00221146079BA06DFDF757
:10A61000D3FD00221146079BA06DFDF7CDFD4FF441
:10A62000D04159E7072B98BF954A984998BF32F80F
:10A6300013209548656888BF40F2E31205F08EFC50
:10A64000286031E7012940F06381FDF7E7FF08AF9B
:10A65000014607F80B0D30BB2046FDF7DFFF022156
:10A6600002468DF818002046FDF7D8FF8DF81C0033
:10A6700002B940B1002120460322FFF77FFA0321EF
:10A680002046FDF7E1FC0223CDE90183002300937E
:10A6900006A920463B460122FEF73FF90F2120463E
:10A6A000FDF777FEB7E6E36C626A03F10053013B06
:10A6B00002EBC30132F8332040F202239A4240F009
:10A6C0008C8020464E68FDF7CCFC02230022CDE9A9
:10A6D0000623009306AA2B463946FEF7A8FF069BE1
:10A6E000009542460DF117012046FEF7A0FF9DF8A8
:10A6F00017305A1E022A0ED9072B98BF604A6449A8
:10A7000098BF32F813206048656888BF40F2E312B2
:10A7100005F024FC28609DF81530062B27D0072B68
:10A7200040D0052B40F0E480BEB1731E1E2BA06DFF
:10A7300007D8DDE9063200964FF4E041FDF72FFD22
:10A7400069E632460121FDF784FB0122069BA06DDC
:10A750001146FDF731FD01230693079941F4E041CD
:10A76000069B41EAC301A06DFDF75CFA53E6AEB16A
:10A77000731E1E2BA06D05D80096DDE906324FF43E
:10A780000041DBE772000121FDF763FB0122069B1C
:10A79000A06D1146FDF710FD01230693079941F4C2
:10A7A0000041DDE7AEB1731E1E2BA06D05D80096EB
:10A7B000DDE906324FF4C041C0E7B2000121FDF7E8
:10A7C00048FB0122069BA06D1146FDF7F5FC012315
:10A7D0000693079941F4C041C2E70223079300930F
:10A7E00006AA00230DF1160120460695FEF71FFF6D
:10A7F000002239462046FEF735F89DF816309A1E9D
:10A80000012A0ED9072B98BF1D4A224998BF32F85A
:10A8100013201D48656888BF40F2E31205F09EFBD7
:10A820002860069B0093424600230DF11701204645
:10A83000FEF7FDFE9DF817305A1E022A0ED9072B8F
:10A8400098BF0F4A124998BF32F813200E48656826
:10A8500088BF40F2E31205F081FB28609DF81530B7
:10A86000062B19D0072B27D0052B41D100221146EA
:10A87000069BA06DFDF7A0FC079941F4E04172E74B
:10A8800038F50508F1F5050884060608E8F5050819
:10A89000FBF5050806F6050800221146069BA06D8B
:10A8A000FDF78AFC00221146069BA06DFDF784FC93
:10A8B000079941F4004156E700221146069BA06D1E
:10A8C000FDF77AFC00221146069BA06DFDF774FC93
:10A8D00000221146069BA06DFDF76EFC002211467A
:10A8E000069BA06DFDF768FC079941F4C0413AE76B
:10A8F000072B98BF0D4A0E4998BF32F813200D4818
:10A90000646888BF40F2E31205F028FB206082E50E
:10A910000025434606A900950122FDF7B1FF022359
:10A920002A460F212046FDF721FD74E538F505087C
:10A9300000F60508840606082DE9F04180465C20F3
:10A9400015460F461E46F5F7B8FC856008250446F7
:10A95000C0E9008705624020F5F796FCE562606279
:10A960002020F5F791FC60632020F5F7A6FC314626
:10A97000A065FDF7FCF82046BDE8F08110B504465F
:10A980000021806DFDF7FBF8A06DF5F7A5FC606B6D
:10A99000F5F7A2FCE069F5F79FFC606AF5F79CFC0F
:10A9A0002046BDE81040F5F797BC000038B50446D6
:10A9B000B2B1950714D110792E2811D192687AB1CD
:10A9C00090070DD15068C5B2922D09D1000A022816
:10A9D00006D191681960049BD2681A60012038BDC5
:10A9E0000A460448044905F0B9FA636A1860002071
:10A9F000F5E700BFD00506083AF80508038C032BDD
:10AA000070B5C46A03D1856A00239D4205D144F81C
:10AA10002120FDF7E8F8012070BD54F8236096422C
:10AA200001D00133F1E70020F6E7FDF744B938B56E
:10AA30008BB2032B04460D460384426205D1826A21
:10AA4000C06A920000211EF0FDFC042D20460CBFC0
:10AA500002210121FDF79EF820460021BDE8384083
:10AA6000FDF7F8B802F00F03022B10B5044608D02A
:10AA70000A460C490C4805F071FA636A1860002018
:10AA800010BD836A12090020834204D1238C042B59
:10AA9000F5D10649EEE7E16A51F820109142EFD076
:10AAA0000130F1E772F80508D005060878F80508C6
:10AAB00000F00F03022B02D10009F6F78EBB01480C
:10AAC000704700BFD087060870B5054610460E4691
:10AAD000FFF7EEFF0378732B19D14378BBB1034620
:10AAE0000A22002013F8014F5CB91F2808D91F2340
:10AAF00032460A490A4805F031FA6B6A18600020AC
:10AB000070BD303C092C02D802FB0040EAE7324617
:10AB10000449034805F022FAEFE700BF9BF8050857
:10AB2000D0050608A8F805082DE9F04105461046AD
:10AB30001F460E46FFF7BCFF174B90F800C00022DF
:10AB40009E4603EB8204617861451CD190F8018038
:10AB5000A178884517D190F80280E178414512D15B
:10AB600071B91EF82200B84208D93B4632460B495B
:10AB70000B4805F0F3F96B6A18600020BDE8F0811E
:10AB8000C1780029EDD00132152ADAD132460549C3
:10AB9000034805F0E3F9EEE7B1F805089BF805086E
:10ABA000D005060884F805082DE9F34707468846CE
:10ABB000002A3BD0930739D113792F2B36D19268D5
:10ABC00002F00F03022B08D10F23FFF7ADFF012482
:10ABD0008440204602B0BDE8F0873AB312F0030A81
:10ABE00024D113799F2B21D1D5682B79A12B1DD18D
:10ABF0000F239268FFF798FF012606FA00F401AAD6
:10AC0000A22105F10800F8F793FF8146CA45E0DA72
:10AC1000019A0F2352F82A2041463846FFF784FF55
:10AC200006FA00F004430AF1010AEFE7424604493C
:10AC3000044805F093F97B6A00241860C9E700BF57
:10AC40008AF80508D0050608F0B585B005460E4619
:10AC5000104603A91F46F8F71DFD48B932460B49B7
:10AC60000B4805F07BF96B6A1860002005B0F0BD59
:10AC7000039803F0F1F830EA0703F7D00346009792
:10AC800032460449024805F069F9ECE756F8050830
:10AC9000D00506085CF805082DE9F04F0F4687B08F
:10ACA000044603A938461E469046F6F7A4FA0378F0
:10ACB000762B054640F02A81B8F1020F40F0D5808E
:10ACC000B7F59B6F31D14EF6B4684FF42C6906E0AE
:10ACD0004EF6B168F9E74EF6B1684FF42469326870
:10ACE00029462046FFF7F0FE7268074629462046AF
:10ACF000FFF7EAFEFB02420102F0200203F4704378
:10AD00001343B90143EA0903C0F3430201F04001D0
:10AD10001A4341EA08012046FCF78EFF1DE14EF67A
:10AD2000B868D2E74EF6BD68CFE740F2E4439F42F1
:10AD3000CED040F2E3439F42CDD040F2D9439F4270
:10AD4000EDD040F2DA439F42ECD040F2E2439F4222
:10AD50001ED13068FFF7ACFEAE491EF0B3FBA8B1C0
:10AD60000F23326829462046FFF7DEFE074670684B
:10AD7000FFF79EFEA8491EF0A5FB002840F0BD800D
:10AD80003A0342F421624EF6F161C4E70F27EEE781
:10AD900040F2E1439F422ED13068FFF789FE0378ED
:10ADA000722B18D10F23326829462046FFF7BCFECC
:10ADB0002946804672682046FFF786FE4EF61061EF
:10ADC0000746FA01D2B242EA0832C7F3430742F417
:10ADD000216239439FE7326829462046FFF774FE17
:10ADE000294607460F2372682046FFF79DFE4FF461
:10ADF0006E418046E5E740F2DF439F422ED14EF69A
:10AE00009058326829462046FFF75EFE05AB009356
:10AE1000074604AB726829462046FFF7C7FD0028A5
:10AE200000F09B800723049A29462046FFF77CFE0A
:10AE3000059A064629464FF47F732046FFF704FF24
:10AE4000FA02B90102F4704201F0400142F42062BA
:10AE500041EA080142EA900231435CE740F2E543EF
:10AE60009F424AD14EF68058CBE7B8F1030F44D148
:10AE7000DFF8B491002709F1010A00F1010B032268
:10AE80000AEB870158461EF035FB98BB2B798BBB2C
:10AE9000326819F8278029462046FFF715FE7268A8
:10AEA000074629462046FFF70FFEB268814629462D
:10AEB0002046FFF709FEFA02430102F4704203F054
:10AEC000200313434FEAC912D2B243EA500313439B
:10AED000BF014FEA0812D2B207F0400708F0F001B4
:10AEE00042F4206247EA590941F46E411A4349EAA3
:10AEF000010110E70137042FC1D143462A464749D3
:10AF0000474805F02BF8636A186026E0B8F1000F97
:10AF100010D140F217439F4205D14FF43F412046E4
:10AF2000FCF780FE19E040F2E7439F42E5D14BF683
:10AF30003071F4E7B8F1010F40F00481B7F5457FB7
:10AF40000ED1014632682046FFF78CFD01462046AF
:10AF5000FCF7F8FE002800F0678307B0BDE8F08F2B
:10AF6000B7F5477F09D1014632682046FFF77AFDE1
:10AF700001462046FCF739FFECE7B7F5497F09D1D8
:10AF800001460F2332682046FFF7CEFDC10041F491
:10AF90008E41C4E7622B49D1039B032B0CD0052BB8
:10AFA00040F09480C3785F2B40F0908003796E2B43
:10AFB00002D0772B40F08A8095F801C0194A00230F
:10AFC0004FF0FF3703EB4301501890F801E0E645DE
:10AFD00005D195F802E08078864508BF8F5C013383
:10AFE0000E2BEFD17B1C88D0326829462046FFF714
:10AFF00039FD039B052B024609D12B79A3F1770577
:10B000006B426B4139462046FCF7BAFEA2E70023AB
:10B01000F8E700BFA0F70508AAF70508BDF705087F
:10B02000D005060819F705082AF80508692B4DD13F
:10B030004378742B4AD13068BA4EFFF739FD90F847
:10B0400000C00022374651008B18334493F801E0CA
:10B05000E64529D190F801E09B789E4524D183787C
:10B0600013BBAE1C30460346013093F800C0BCF160
:10B07000000FF8D1681D83423FF63FAF0A44013B01
:10B08000BA5C12F0010F4FEAC2000CBF4FF0080C7F
:10B090004FF0000C00F008000821B34208D241EA4A
:10B0A000021141F43F413AE701320E2ACBD124E7A5
:10B0B00013F80179742F4FEA510101D10143ECE7F4
:10B0C000652F7FF41AAF4CEA0101E6E740F2433303
:10B0D0009F4202D14BF2726121E7B7F5517F02D155
:10B0E0004BF262611BE740F243439F4213D1326847
:10B0F00029462046FFF758FD10F43F4F024607D17E
:10B1000050044ABFD1B242F4344141F4354106E71C
:10B110004EF62D11FFE5782F7FF4EFAE3268294609
:10B120002046FFF741FD10F4FE4F024607D101040F
:10B130004ABFC1B240F43C4141F43D41EFE64EF616
:10B14000BD01E8E5B8F1020F40F0A981736803F092
:10B150000F03022B40F09C80B7F5816F12D132684B
:10B1600001460F232046FFF7DFFC72680746294699
:10B170000F232046FFF7D8FC394602462046FCF74D
:10B18000BEFDEAE640F233339F421CD14FF6B028B1
:10B190004FF280070F23326829462046FFF7C4FC90
:10B1A0007268814629460F232046FFF7BDFC47EA17
:10B1B000000242EA092248EA0001ACE54FF6902875
:10B1C0004FF2A007E6E740F24E439F42F6D040F22E
:10B1D0000C439F422BD1014632680C232046FFF7D7
:10B1E000A3FC07467068FFF763FC064601464E481D
:10B1F0001EF068F998B131464C481EF063F9A0B1D1
:10B200002A464B494B4804F0A9FE636A00221860A5
:10B2100042EA072242F400424FF2EF317BE500237D
:10B22000454A02EBC302D25CF2E70123F8E7B7F527
:10B23000427F15D14FF480473268294607232046C4
:10B24000FFF772FC72688046294607232046FFF705
:10B250006BFC4246034639462046FCF74BFD7CE634
:10B26000DFF8D890002709F1010A03220AEB8701D1
:10B2700028461EF03FF938B9EB782BB919F827703A
:10B280003F0147F48047D7E701370F2FEDD134E670
:10B29000B7F5816F1CD14FF4005707233268294658
:10B2A0002046FFF741FC29468046FF23726820466E
:10B2B000FFF7CAFC47EA000141EA08212FE64FF4F4
:10B2C0002057EAE74FF44057E7E74FF46057E4E7C9
:10B2D00040F235339F42F2D040F2FD239F42F1D03D
:10B2E00040F2AB439F42F0D040F20A439F4227D145
:10B2F0004FF240270F23326829462046FFF714FCFF
:10B300004FF6FF738046726829462046FFF79CFC83
:10B310004246034639462046FCF702FD1DE64FF241
:10B32000C027E7E719F7050806F905080FF905082A
:10B33000B0F70508D005060805F90508D5F7050892
:10B3400040F209439F42EAD040F20B439F421AD198
:10B3500001460F2332682046FFF7E6FB29460746E1
:10B360004FF0FF3372682046FFF76EFC3A4683B217
:10B3700005464FF240212046FCF7D2FC2B0C3A4602
:10B380004FF2C021C7E740F2D3339F4228D1014694
:10B390000F2332682046FFF7C7FB05AB0093074633
:10B3A00004AB726829462046FFF700FB00283FF4F3
:10B3B000D4AD0F23049A29462046FFF7B5FB059A22
:10B3C00006462946FF232046FFF73EFC3A0342F497
:10B3D000706246F4684142EA900241F050019AE4FA
:10B3E00040F2D1339F423FD040F2D2339F423DD012
:10B3F000B7F5757F3CD0972F3CD040F2A7439F42D2
:10B400003AD040F2A9439F427FF477AD05238A4AA0
:10B41000294632F82370326807232046FFF784FB61
:10B4200005AB0093814604AB726829462046FFF7BE
:10B43000BDFA00283FF461AD049A0723294620464F
:10B44000FFF772FBFA04064618D51F23059A294612
:10B450002046FFF7F9FB47EA0901800141EAC601EE
:10B4600000F4F86001435AE50023D0E70123CEE75A
:10B470000223CCE70323CAE70423C8E73B04059A69
:10B4800006D53E2329462046FFF7DEFB4008E2E7CB
:10B490007C2329462046FFF7D7FB8008DBE7B8F17D
:10B4A000030F7FF42AAD40F2E5339F4221D10027FC
:10B4B0000723326829462046FFF736FB07238146DB
:10B4C000726829462046FFF72FFB294680461F2336
:10B4D000B2682046FFF7B8FB47EA090747EA80173A
:10B4E00047EAC8011BE54FF40067E1E74FF48057D6
:10B4F000DEE740F2E6339F42F5D0B7F5447FF5D062
:10B5000040F2FD239F422BD14FF4C05807233268ED
:10B5100029462046FFF708FB07237268074629469D
:10B520002046FFF701FBB26802F00F03022B8146B1
:10B530000ED1072329462046FFF7F6FA47EAC90746
:10B5400047EA080747EA8011E9E44FF4D058DDE7FD
:10B5500007232946204648F48068FFF775FBEDE78E
:10B5600040F27D439F4222D14FF690370F2332683D
:10B5700029462046FFF7D8FA0F23814672682946EC
:10B580002046FFF7D1FAB268804629460F232046AD
:10B59000FFF7CAFA40F4704242F0F00242EA092290
:10B5A00047EA0801FFF7B7BB4FF6B037DEE740F2D6
:10B5B000CA439F42F8D040F2AB439F42C5D0B7F593
:10B5C000956F7FF49AAC01460F2332682046FFF74F
:10B5D000ABFA0F237268294607462046FFF7A4FA04
:10B5E00005AB0093804604ABB26829462046FFF7BE
:10B5F000DDF900283FF4B1AC0F23049A2946204618
:10B60000FFF792FA059A06462946FF232046FFF7E0
:10B610001BFB3A0242EA083246F4684142EA9002D1
:10B6200041F04001FFF777BB04490548646A04F024
:10B6300009FC206091E400BF12F80508CAF705086C
:10B64000D005060804292DE9F04106460C4690462F
:10B6500025D9446A1349144804F0F4FB20600024FF
:10B660002046BDE8F0810009F5F7B7FD07461DF05B
:10B670001FFF022810D13B78722B0DD17A7805F18B
:10B6800030039A4208D10135A542E9D058F8250087
:10B6900000F00F03022BE6D0746A0449DBE70025B3
:10B6A000F2E700BF43F70508D00506086CF7050868
:10B6B00038B505463020F4F7E7FD20220446002186
:10B6C0001DF0C0FE29462046FCF751FAA562A800ED
:10B6D000F4F7DAFDE062204638BD10B50446C06AD2
:10B6E000F4F7FAFD20460021FCF749FA2046BDE8B0
:10B6F0001040F4F7F1BD012910B5146824D934F0D5
:10B700001001037815D1302B1ED1417841F0200172
:10B71000782900F1020303D110211160181A10BD1D
:10B72000ACB96F2901D10821F7E762290DD10221B7
:10B73000F3E7082C0DD1302B09D1437843F02003D7
:10B740006F2B04D1831CE9E70CB90A23136003466D
:10B75000E4E7022CFBD1302BF9D1437843F02003EE
:10B76000622BEEE708B51020F4F7A7FD027801215F
:10B7700061F30202027008BD30B50478022565F35A
:10B7800002040470048863F3C9040480C0E9011250
:10B7900030BD0378426061F30203037003880199AE
:10B7A000029A61F3C9030380009B8360036862F31C
:10B7B00094230360039BC3607047000038B50446C0
:10B7C0000D462378616803F00703032B104603D36B
:10B7D000042B0AD9052B12D0A3682A4605F0A6F837
:10B7E00023881B070AD50A4B07E0A3682A4605F001
:10B7F000CBF823881A0701D5064B036038BD2068B3
:10B80000E268C0F38A20BDE8384005F0C5B800BF43
:10B81000080906082409060838B5144612F480728F
:10B8200018BF1A461D46FFF7C9FF620902F0080259
:10B830002A44E1B2BDE8384003F0DEBAD0E90003A3
:10B84000184770B505460C468E18B44200D170BD3D
:10B85000D5E90003984704F8010BF6E738B505462B
:10B860000024D5E90003984700F07F0343EAC4149D
:10B870000306F6D4204638BD2DE9F04186B00546D2
:10B88000FFF7DCFFC4B2002C53D0012C53D0022CA4
:10B8900053D0032C53D0042C53D02846FFF7DEFF9F
:10B8A000064648B9062C07D12846FFF7C7FF264CA5
:10B8B000204606B0BDE8F0810A2C10D100213046A8
:10B8C00009F002FE0027044600F10808B742EFD055
:10B8D0002846FFF7D1FF013748F8040BF6E7314659
:10B8E00002A8F5F782FD324604992846FFF7A9FF22
:10B8F000631F012B0CD82846FFF7A0FF052C02A8D8
:10B9000003D107F071FF0446D2E707F073FFFAE7AF
:10B91000072CDDE903104FF0000303D10A22D7F70B
:10B92000BBFAF0E7093C624200936241D7F732FB71
:10B93000E9E7064CBCE70624BAE70E24B8E71E2464
:10B94000B6E7034CB4E700BFA0120608A8FA050842
:10B95000E41006082DE9F8432A4E05460F469046A6
:10B9600000242868FFF76AFF5FFA80F9B9F1FF0F3A
:10B9700001D1BDE8F883C2070CD52868FFF76EFF38
:10B9800010F0010F4FEA500416BFA86807EB8404BB
:10B9900000EB84044FEA5903052B11D8DB070DD5C2
:10B9A0002868FFF75BFF5FEA990928D0B9F1010F1A
:10B9B0000CBFAB68EB68024621461AE00120F2E7B3
:10B9C000062B03D16B689B680120F4E7072B02D19B
:10B9D0006B68DB68F8E7082B1BBF03F18043093B6A
:10B9E000334656F82330EFE751F804CB9C4441F836
:10B9F00004CC12F1FF32F7D204EB8004B1E74346E6
:10BA0000D9E700BFA8FA05082DE9F04F91B0064626
:10BA10000A91FFF723FF00F0040200F003030592F0
:10BA2000C208089203F10208002B3CD11046F4F73B
:10BA30002BFC002501460446089A3046FFF701FF1B
:10BA40002F4609950695AA460795059B002B00F001
:10BA500098803046FFF702FF0346B8F1030F08BF96
:10BA6000013305909800F4F70FFC059B814683464F
:10BA700000EB830293457BD1FFF774FEB8F1020F10
:10BA8000834640F088802278214600231206A1EBED
:10BA9000040579D44A4621465846FFF76DFE5846BC
:10BAA00011B0BDE8F08F0898F4F7EEFB089A014654
:10BAB00004463046FFF7C5FEB8F1030F304619D1F2
:10BAC000FFF7CCFE03460690E35C201802460027F1
:10BAD0001906A2EB000506D4002509954FF0000ACF
:10BAE000CDF81CA0B1E712F8013FC3F38011A940C3
:10BAF0000F43EDE7FFF7B2FEB8F1050F07460AD195
:10BB00003046FFF7ABFE09903046FFF7A7FE002353
:10BB100005460693E2E70025B8F1040F099506955E
:10BB2000DCD110F020091FD03046FFF797FE834686
:10BB300017F0400002D03046FFF790FE1BEB0003E9
:10BB400014D0C31C23F0030A0BEB0A00F4F7B5FB77
:10BB500007908244B9F1000F3FF477AF5A4651463F
:10BB60003046FFF76EFE70E7CB46E1E79A46B7E74F
:10BB70000A990B923046FFF747FF0B9A4BF8040BDC
:10BB800078E7DDF81C9077E711F8012FC2F38010F9
:10BB9000A84003437AE70A9B0C96CDE90D3A079B30
:10BBA0000F93FB0612D5154ED6F83C1121B9084665
:10BBB00005F0B8FFC6F83C012146D6F83C0105F077
:10BBC000C4FD224621460CA8FFF7C4FEB8F1030FBE
:10BBD00005D1069B059A234472B149F82230099B8E
:10BBE0000395CDE90173CDF80090089B22464146AC
:10BBF0005846FFF7CEFD52E79946F0E7402C00206B
:10BC00002DE9F047002386B0CDE902338368049321
:10BC100004460368059302A80E463F49F4F7CAFAA2
:10BC200004220DEB02012046FFF70BFE9DF80410E5
:10BC30009DF806204D294FEA92030CD19DF805107E
:10BC4000062908D11BB102F00302022A03D19DF894
:10BC500007201F2A02D9314801F018F823B1043B0C
:10BC6000032B01D92E48F7E72046FFF7F7FD804662
:10BC70002046FFF7F3FD4FEA48050335074600EB82
:10BC800095008000D6F80090F4F7FEFA25F0030541
:10BC90000544C9F80800C9F80C504FF00009C14527
:10BCA0000DD10025BD4231682CD12046FFF7ACFEF6
:10BCB00070600120F4F788FA06B0BDE8F0872046EE
:10BCC000FFF7CCFD10F0010F4FEA500513D12846C5
:10BCD000F4F7DAFA2A46014682462046FFF7B1FD1C
:10BCE0002046FFF7ABFD29465046F5F7ABF9054670
:10BCF0005046F4F7F1FA33689B6823F8195009F1BC
:10BD00000109CCE72046D1F80C80FFF7B5FD48F8D3
:10BD100025000135C6E700BF7DBE02083EF90508D3
:10BD20004AF905081FB50C46014601A816F07AFE2F
:10BD3000214601A8FFF764FF04B010BD838803F417
:10BD4000C072B2F5C07F0FD01A0604D5C37B00EBDA
:10BD500083000069704713F4807307D0C37B00EB46
:10BD60008300036958687047014870471846704758
:10BD7000A16D0308044B81681A681B6852685B68F0
:10BD80001161C268DA60704780330020F8B5324E26
:10BD9000324CF5F7FFF833685B680025DD6101235D
:10BDA000A4F8F431D4F8F8310BB1A4F8F451A4F8A4
:10BDB000005203F0CDFF2A4B2A4F2B486564C4E99B
:10BDC0000F350321294BA364C4F8E85184F8EC51E2
:10BDD00003F032FD3846012103F02EFDAA22BA21DC
:10BDE000384603F041FE33685B68DF6033685B68A8
:10BDF00000211F610846E566C4F83C51C4E92C5592
:10BE0000C4F8B850C4F89C51C4F8A05105F08AFE9B
:10BE10000A21C4F8300105F098FC40F2BA61D4F868
:10BE2000300105F092FC002107F1440005F0D6FD39
:10BE300040F21A73C4F8343107F5D47040F2B2639B
:10BE4000C4F8383127F0B8FC07F5D4700121BDE8FB
:10BE5000F84027F0B5BC00BF80330020402C002004
:10BE6000680406089C2C00208C2C0020C0170608B3
:10BE7000014827F0DFBC00BF442E0020D0E902308B
:10BE80001847000008B5074BD86E08B9064808BD2A
:10BE9000002241F22A71043001F0C6FC0028F5D0DE
:10BEA0004068F4E7402C0020CC1B0608044B1B68BC
:10BEB0005B68C0000A4640F00201D86803F0D4BDB8
:10BEC00080330020044B1B685B68C10041F0020115
:10BED000D86803F0D7BD00BF80330020044B1B6837
:10BEE0005B68C0000A4640F00201186903F0BCBD5F
:10BEF00080330020044B1B685B68C10041F00201E5
:10BF0000186903F0BFBD00BF80330020F8B51C46A0
:10BF1000930707460E46154608D113689A8891067E
:10BF200015D5520610D5B3889B0501D52560F8BDFF
:10BF300050B90F4B9E4207D00E490C2001F0B5FEC0
:10BF4000C0E901652060F2E7C4E90057EFE70A4A5B
:10BF5000934202D16B682360E9E7084A9342E5D136
:10BF600010B101F0A9FE06466B68C4E90036DEE7B1
:10BF7000C00C060858FA05081C190608041906081A
:10BF800000232DE9F041C2E900330E46074614466E
:10BF900001F092FE0A2E054602D12060BDE8F08134
:10BFA000192E07D1838803F4C0731BB1144BC4E965
:10BFB0000037F3E76B7B5BB105EB830322461B691C
:10BFC0003146384698476368042BE7D10023636005
:10BFD000EB7C002BE2D005EB8303F1001869002213
:10BFE00041F00201043001F01FFC0028D6D02346A6
:10BFF000426829463846BDE8F041FFF787BF00BFD9
:10C00000C01C0608F0B593B0054668460E461746B4
:10C010001C46F4F7F7F840B93A4631462846FFF790
:10C02000AFFFF4F7BDF813B0F0BD002CFBD1019BBE
:10C03000044918680AF030FA0028F4D10198F4F79E
:10C04000F9F800BF2803060870B545680024AB68FE
:10C05000A34200D870BDEB6853F83400E60078B115
:10C0600004280DD007F048FF03785F2B08D0EB6859
:10C07000985907F029FFEB6833445968FFF716FF1A
:10C080000134E4E708B519B903F0D6FEF4F7D2F8A5
:10C0900003F0D8FEFAE70EB403B503AA52F8041B66
:10C0A000019203F0F9FEF4F7C5F8000038B5124B21
:10C0B0001B685B68C4000546186944F0020400224E
:10C0C0002146043001F0B0FB40B90C4BDB6E3BB1B4
:10C0D00002462146181D01F0A7FB08B1406838BD93
:10C0E00000222146064801F09FFB0028F6D12A468F
:10C0F00004490548FFF7CFFF80330020402C002083
:10C10000581D0608F2F90508D40406080E4B1A68F3
:10C11000196852684968D2680969914210B50446A5
:10C120000AD01B685B68C100D868002241F0020198
:10C13000043001F079FB20B92046BDE81040FFF73C
:10C14000B5BF406810BD00BF80330020032837B55D
:10C1500005460C4607D1084601F0C4FF00B30E2483
:10C16000204603B030BDCA072ED54B10082829D869
:10C1700001A252F820F000BF61C10208A9C1020863
:10C18000C5C10208C5C102089DC10208C5C1020897
:10C1900061C10208A5C1020861C10208002BDED0FE
:10C1A0001E24DDE7002BDBDAB3F1404F05D14FF061
:10C1B000804005F030F80446D2E75C42640044F069
:10C1C0000104CDE7DC43F9E7062825D101F0070398
:10C1D000022B10D08B071FD10B681A7BE2B103EB47
:10C1E00082031A691E4B9A4216D1486840B98B687F
:10C1F0000193C8680CE0CC082046F4F7D3FF18B1CF
:10C20000400040F00104ABE701A92046F4F7F3FF3A
:10C210000199F4F7AFFEF3E7204601F04DFDC37A34
:10C22000C3B100EB830021460369284698470028E4
:10C23000C1D1042DB4D0A5F10803022B0DD9094BAF
:10C2400020465D5D01F044FD2A4603460649074845
:10C25000FFF721FF062DECD1B0E7002480E700BFF7
:10C260000D4003087819060870FA05081806060834
:10C270002DE9F04104460E461746984601F01CFD94
:10C28000857A55B100EB8500434605693A4631464B
:10C290002046AC46BDE8F0416047204601F018FD5D
:10C2A000024902460248FFF7F6FE00BFCBF9050837
:10C2B0001806060800231A461946FFF7D9BF0000E2
:10C2C000F0B51546164A0C461168496887B00969E9
:10C2D000049111684968C968059111681268496834
:10C2E00052680D610646D3600E4902A8F3F762FF5B
:10C2F0002246376831466846F7F72EFCB4FA84F2D6
:10C30000520939466846FAF7E3FC044615B1FFF7CF
:10C31000D1FF04460120F3F757FF204607B0F0BDD8
:10C320008033002075BD020807B502AB002243F838
:10C33000041D0121FFF79CFF03B05DF804FB30B43E
:10C3400054680034154618BF01246FF0030303FB43
:10C35000042308330A462118286830BCFFF788BF39
:10C3600010B5044603F008FE30B1002320461A46FB
:10C370001946FFF77DFF0446204603F017FE28B953
:10C3800003490448BDE8104003F05CBD204610BDE1
:10C390000FFA0508180606087FB50623C000CDE988
:10C3A00002330E4B40F002000190D86ECDE904122A
:10C3B00078B1002241F25A71043001F035FA40B1EF
:10C3C00001AB002205214068FFF752FF07B05DF87E
:10C3D00004FB01A905200BF0A7F8F7E7402C00208B
:10C3E00070B5164604460D46FFF7CAFD336893B98B
:10C3F000A30709D12268084B9A4205D1E288074970
:10C400002B460748FFF747FE204601F061FC2B460C
:10C4100002460449F5E770BD54190608FEF90508FF
:10C420002803060807FA050807B56A46FFF7D8FF8C
:10C43000DDE9000111B903B05DF804FB02F07CFCFA
:10C44000F9E700002DE9FF41174606460C461D4658
:10C4500001F032FC384A904208D12B463A46214638
:10C46000304604F03FFB04B0BDE8F081818811F450
:10C47000C07816D0062C2FD1304F3B685B68002265
:10C480001A62FFF75BFC0346304698472860E8B91C
:10C490003B685B681B6A0BB12B60E4E72C601846B5
:10C4A000E1E7062C18D101AA19213046FFF768FDF3
:10C4B000019B6BB901AA8A213046FFF791FF0394D3
:10C4C00001AA00210120FFF73AFF28600120CAE7F6
:10C4D00001AA41464046F6E7002CEBD1384601F070
:10C4E000EBFB174909F0D8FF01AA68B14721304694
:10C4F000FFF746FD019B7BB101AA21462046FFF7CD
:10C500001EFF28602046AEE79B213046FFF738FD2E
:10C51000019B0BB10397D3E70A49384603F04DFD61
:10C5200030B10949094803F08DFC286002209AE7E0
:10C530003846FFF715FFF8E7E808060880330020C3
:10C54000B4030608AC0506083FFA050864050608AA
:10C5500073B505460C46164601F0AEFB437B5BB156
:10C5600000EB830004220369CDE9002621466A46D8
:10C5700028469847009B43B1284601F0A9FB234673
:10C58000024603490348FFF786FD02B070BD00BFB5
:10C5900007FA05082803060873B50D46044601F09E
:10C5A0008BFB8388190606462ED403F4C073B3F5BB
:10C5B000C07F29D0C37BB3B14DB900EB83031A69A7
:10C5C000174B9A4203D01020F3F75EFE0546F37B2B
:10C5D000B28806EB8303D2051B69294648BF1B6856
:10C5E0002046984778B96A460F212046FFF7C8FCD5
:10C5F000009B63B11DB91020F3F746FE054629469E
:10C60000684604F06BFB0446204602B070BD20462D
:10C6100001F05EFB034902460348FFF73CFD00BF03
:10C620006F5E0308D1F905081806060837B50546F8
:10C6300001F042FB818811F4C0740BD0104B1B68D1
:10C640005B6800221A62FFF779FB03462846984789
:10C6500003B030BD6A4619212846FFF791FC009BC4
:10C660002BB16A4621462046FFF769FEF0E72846CF
:10C6700001F02EFB034902460348FFF70CFD00BF03
:10C6800080330020E4F905081806060830B5054691
:10C6900095B000F0D7FF284601F00EFB848814F413
:10C6A000C0740DD01C4B1B685B6800221A62FFF738
:10C6B00045FB0346284698470446204615B030BD42
:10C6C0006A4619212846FFF75BFC009BE3B102A8EC
:10C6D000F3F798FD014630B96A46FFF730FE04468D
:10C6E000F3F75EFDE9E7039B0C49186809F0D4FEF7
:10C6F00038B1039803F070FB074B1B685B68186246
:10C70000DBE70398F3F796FD284601F0E1FA0449C8
:10C7100002460448FFF7BFFC80330020AC05060842
:10C72000E4F90508180606082DE9F04F8FB01368E4
:10C730000293002845D1131D01938046CDB2C1F369
:10C74000072B05EB4B039A000392019A52F82370D2
:10C750007F104FD13C46019BA44A4FEA850A03EB68
:10C760000A0900231E469B4548D1B3444FEA4B0BB0
:10C770006B1C002F58D10BEB0306B000F3F784FDC0
:10C780000446B8F1000F03D0C0F800804FF0010854
:10C790005246019904EB88001CF010FE05EB080AD4
:10C7A000D344B34506D920464FEA8B01F3F787FD02
:10C7B0005E460446019B039A13444F460193554637
:10C7C000A1E002F108030193D2F80480B6E727FA4A
:10C7D00009F3D80709D5019B53F8290001F05CFC47
:10C7E00018B101F02DFB0138044409F101094D4550
:10C7F000EDD1B0E74FF000094C46F8E759F83300A7
:10C8000080B909EBC300406860B181070AD10168B3
:10C81000914207D1CDE9043203F023F9DDE9043276
:10C82000711E0E1801339EE71C4404EB0B06B0008A
:10C83000F3F72AFD0446B8F1000F51D0C0F800808C
:10C840004FF0010A4FF000081EE0019B53F828004A
:10C8500027FA08F3DA073ED5830718D10368644A3C
:10C86000934202D0634A934211D10AAA09A901F066
:10C8700091FB099A0A9904EB8A0092001CF09EFD34
:10C88000099B9A4408F101084545DED188E70AA9C9
:10C89000FFF782FEA5EB080204904FEA8A03059297
:10C8A00004980693FFF7F2FE069B02460028E9D0A3
:10C8B000059951448E4209D8F1002046CDE906235E
:10C8C000F3F7FDFCDDE9062304467600E2500AF1A9
:10C8D000010A0433E4E744F82A000AF1010AD1E727
:10C8E000C246AFE7D7E90028002A77D118F003093C
:10C8F00038D1D8F800303D4A934233D1D8F80830C7
:10C90000994513D30837019B9F42EBD1A5EB0A024F
:10C910002346520851460298FFF7AAFC05462046D6
:10C92000F3F7DAFC28460FB0BDE8F08FD8F80C30EA
:10C9300053F839004FEAC90B88B104280FD000F032
:10C940000703022B01D008F04BFA44F82500D8F871
:10C950000C20AB005A44234452685A60023509F156
:10C960000109CBE70AAA6A214046FFF739FD0021F9
:10C970000AAA0846FFF7E3FC0021FFF70DFE4FEA85
:10C98000850903900398FFF781FE83460028B9D0FC
:10C990006A1CB24205D376002046B100F3F78FFC43
:10C9A00004460BF00702022A03D0584608F018FA92
:10C9B00083460AAA0F214046FFF712FD0AAA00216A
:10C9C0000120CDF830B0FFF7BAFC04EB090344F8BE
:10C9D00009B00235586009F10809D3E7AB002344D8
:10C9E00044F825200235C3F804808BE7E0010608EF
:10C9F000CC170608100B0608F0B5830787B00C4665
:10CA000015461BD103681F4A934202D01E4A934227
:10CA100014D102AA01A901F0BDFA019BA3422BD3B4
:10CA20001CD8029B043D03EB84049C4201D107B057
:10CA3000F0BD54F8042D45F8042FF6E702A9FFF7DE
:10CA4000ABFD0023064601936FF04047019BA342D4
:10CA5000304606D3FFF71AFE0028E8D022460B49DD
:10CA60000CE0FFF713FE38B1019BFA1A22440133A0
:10CA700045F822000193E9E7019A05490548FFF7C7
:10CA80000AFB00BFCC170608100B06088EFA050833
:10CA900079FA0508600606082DE9FF418307154667
:10CAA000CFB2C1F3072435D10368394A934202D08B
:10CAB000384A93422ED10290029803AA01A901F0AC
:10CAC00069FA01983B1983425CD80399002601EB6F
:10CAD0008003A64213D1BC00C01B2144801B05F07B
:10CAE00021F8039945F8260005EB86080B19424604
:10CAF0008B420AD10023029304B0BDE8F08153F8C1
:10CB0000042D45F826200136E3E753F8040D42F8DA
:10CB1000040FEDE70021FFF73FFD0023804601935E
:10CB2000019BBB4219D30021084604F0FBFF0646D7
:10CB30004046FFF7ABFD0146D0B9B168A14221D311
:10CB400045F8246005EB810205EB8403091BAB4229
:10CB500012D1304605F001F8CEE74046FFF796FDCA
:10CB600080B1019BFA1A2244013345F82200D6E72E
:10CB7000304604F0EAFDDBE7D01AF468205843F8A9
:10CB8000040DE4E7019A04490448FFF784FA00BF62
:10CB9000CC170608100B060879FA05086006060887
:10CBA0002DE9F04F85B000AF07F1080204460D46AD
:10CBB000FFF7E6F9FB6823B12A4628492848FFF722
:10CBC0006AFAB868002845D107F108024FF43B71B2
:10CBD0002046FFF7D5F9BB68002BEDD007F108021E
:10CBE00020461721FFF7CCF9391DB86807F0ECF99A
:10CBF00083462846F4F7E4FAD7F8048008F10104E4
:10CC000000EB040909F10E0323F00703ADEB030D5C
:10CC10006B464FEAD30A4FEACA06424659463046A7
:10CC20001CF0CCFB2E2308F83A302846F4F7D5FA4E
:10CC300080462846F4F7C4FA34440246414620466A
:10CC40001CF0BCFB49463046F4F7FCF901221E21DA
:10CC5000FFF7A2FB1437BD46BDE8F08FDEF90508EB
:10CC6000D803060808B50446F3F7E2FB18B10449F7
:10CC70000448FFF707FA224603490248FFF70BFA78
:10CC80005CF90508B004060878F90508014608B5FE
:10CC90000148FFF7F7F900BF600606082DE9F047E5
:10CCA000072886B006468946174604D191421CD013
:10CCB0004FF00E0809E0022801D0052809D13A46B4
:10CCC0004946304601F03AFA8046404606B0BDE893
:10CCD000F08708282AD1104603F04EF940B13946B2
:10CCE000484603F06AF90028E2D04FF01E08ECE74E
:10CCF00017F0030440F02D813A68BD4B9A4240F092
:10CD0000288107F108087B68A342D1D958F8045B51
:10CD1000284603F031F9002800F06881294648468A
:10CD200003F04BF90028E0D10134ECE711F0010FDA
:10CD300000F02C8112F0010A4FEA610500F0F88042
:10CD40005410232800F20581DFE810F0E200E6002D
:10CD50000301EA00EE0003010301030103012400C3
:10CD600030003300360066006E007100740003016D
:10CD700081008A009A00A2002400300033003600AF
:10CD800066006E0071007400030181008A009A0041
:10CD9000A200C70045EA040A4FEA4A089AEA080FC7
:10CDA00052D55046C11704F026FA8DE785EA040AE9
:10CDB000F2E705EA040AEFE7002C02DA8D48FFF7F4
:10CDC00065FF1F2C09DC6FF040432341AB4204DBBD
:10CDD0004FF040432341AB421BDD2846E91704F0E6
:10CDE0000AFA8146484600F067FF037B002B40F0BB
:10CDF000D480A6F109030C2B40F2DB80A6F11603C8
:10CE00000C2B00F2D9804B460F36B946F6B21F46BE
:10CE1000E8E705FA04FABFE7002CCFDB1F2CA8BF18
:10CE20001F2445FA04FAB7E705EB040AB4E7A5EBBB
:10CE3000040AB1E7214628460DF076FE0028CCD141
:10CE400004FB05F84FEA480848F001083DE7002CCC
:10CE500000F0DE80214628460DF097FE82469BE7D3
:10CE6000002C00F0D58007EE905AB8EEE70A07EEE6
:10CE7000904AF8EEE77A80EE270A03F0BDF923E73F
:10CE8000002C00F0C580214628460DF070FEE5E735
:10CE9000002C20DA07EE905A1146B8EEE70A03F0AC
:10CEA00011FA11E7E20707D5414650460DF03CFE66
:10CEB000002892D108FB0AFA012C3FF46DAF4146DD
:10CEC000404664100DF030FE002886D108FB08F8BB
:10CED000002CE7D160E7A846FAE7002C00F0988024
:10CEE0000021022008F0F0FA2146804628460DF085
:10CEF0004CFE400040F00100C8F8080021462846DA
:10CF00000DF035FE400040F00100C8F80C00DCE6F2
:10CF1000A542FFF6EAAECBE6A5423FF7E6AEC7E68E
:10CF2000A5427FF7E2AEC3E6A542BFF6DEAEBFE69E
:10CF300093072BD11368304A93421AD107EE905AC7
:10CF40003946B8EEE70A03F0BDF9804600287FF4C1
:10CF5000BCAE2A4B48469C5D00F0BAFE05463846FA
:10CF600000F0B6FE2B460090224625492548FFF7E3
:10CF700092F8254A934209D107EE905A3946DFEDDF
:10CF8000230AB8EEE70A02F083F8DEE7062E01BFB7
:10CF90004B462426B9461F4624E700EB83003A4659
:10CFA0000369494630469847804600283FF421AF40
:10CFB0008BE60D36F6B215E7242E04D94B460F3E0C
:10CFC000B946F6B21F46242EC3D102A94846FFF740
:10CFD000E3FA04462046FFF759FB00283FF468AE09
:10CFE000394601F025F90028F4D07EE62F46B0E757
:10CFF000CC17060897F90508100706084218060816
:10D00000ACF905081806060818000608000000001C
:10D0100001490248FFF736F8BFF90508A8060608D7
:10D02000014608B50148FFF72DF800BF18060608AD
:10D030002DE9F041044617461E460D4641B11868D9
:10D0400000F03AFE6368834202D00548FFF7E8FF2C
:10D0500033463A462946A068BDE8F041FFF708B9D3
:10D0600056F90508014608B50148FFF70BF800BF5F
:10D07000F804060807B502AB002243F8041D01219D
:10D0800002F058FDF3F7D6F8014608B5024809B991
:10D09000FEF7F8FFFFF7EEFFAC05060808B500F055
:10D0A00017FE024902460248FEF7F5FF38FA050866
:10D0B00018060608410008B541F001010148FFF7D4
:10D0C000D9FF00BF1C05060808B541F66A71014882
:10D0D000FFF7D0FF6405060830B593B004466846F4
:10D0E0000D46F3F78FF848B920462946FFF71CF99B
:10D0F0000446F3F755F8204613B030BD01990248B5
:10D1000000F014FE0024F6E768E90508064B1A68EB
:10D110001B68126A9A4201D130BF7047034B4FF02F
:10D1200080525A60704700BF8033002000ED00E05D
:10D13000034B00225A6403F13C02DA61704700BFDE
:10D14000402C0020EFF3108172B6084AB2F8F43197
:10D150001B0443BFB2F8F43103F1FF331BB24FF6A7
:10D16000FF73A2F8F43181F310887047402C00203F
:10D17000EFF3108172B60C4BB3F8F421013212B206
:10D18000A3F8F421184642B9D3F8F82112B993F85C
:10D1900000222AB10023A0F8F43181F310887047EF
:10D1A0000122A3F8F421F8E7402C002070B5EFF33A
:10D1B000108572B60F4B93F80022082A18D0B3F8E6
:10D1C000F44124B2012C04BF0024A3F8F44193F8E5
:10D1D0000142561C224402F00702273283F8006203
:10D1E00003EBC203C3E90201012085F3108870BD7F
:10D1F0000020FAE7402C00202F4B1A685268D269B1
:10D2000070B592B1EFF3108272B619684968C969B6
:10D2100049B11B685B680024DC6120B182F310888F
:10D220000846F3F707F882F31088244AB2F8F4317D
:10D230001BB214464BB9EFF310810B4672B6B2F82D
:10D24000F42115B215B181F3108870BD4FF6FF714E
:10D25000A4F8F411D4F8F801D8B994F800523DB309
:10D2600094F8012202F1280104EBC106013202F018
:10D270000702013D54F83100716884F8012284F8F6
:10D28000005283F31088FFF727FFBDE87040FFF7D7
:10D290006FBF4268C4F8F8210AB9C4F8FC210268DB
:10D2A000056083F310889047EFF3108372B6D1E7DF
:10D2B00083F31088E9E700BF80330020402C002072
:10D2C0000120FFF799BF000008B50120FFF794FF88
:10D2D000074B1B6853B1074826F0ACFAFFF716FF5F
:10D2E00001210448BDE8084026F06ABA30BF08BDF5
:10D2F00088330020442E002008B50120FFF77CFF72
:10D30000074B1B6853B1074826F094FAFFF7FEFE5F
:10D3100001210448BDE8084026F052BA30BF08BDDC
:10D3200088330020442E002058B1064A13685B68F9
:10D330001B69984204D01268526810611846704701
:10D34000002070478033002001F00F0108290DD81C
:10D35000DFE801F011050A0C0C0C0C0C0E00002883
:10D3600014BF1E200E20704703F055BF03F0D6BF38
:10D37000C00040F00200704708B500F0B9FD10EEA3
:10D38000100A2CF0FFFB41EC100B08BD00F0B0BD03
:10D3900008B551EC100B2CF04DFCBDE8084000EE38
:10D3A000100A02F029BF02F027BF0000F0B593B0C9
:10D3B000054668460F4614461668F2F723FF78B90B
:10D3C000002E0CBF39460021234632462846FFF77F
:10D3D00039F80546F2F7E4FE012D0BD1284611E09D
:10D3E000019B23601049206802F0E7FD60B92068C6
:10D3F000F2F720FF2368002DF4D10BB90623236038
:10D400003EB9002013B0F0BD206802F0E5FC2060BA
:10D41000F6E70649304602F0D0FD0028F1D030464C
:10D42000FEF79EFFE4E700BFAC050608B40306085C
:10D43000036803B94068FFF729B91346C1F307220F
:10D44000C9B2FEF715BF1FB501F00F01044603294D
:10D4500007D8DFE801F004020D0D00F043FE04B030
:10D4600010BD012201A900F02BFF08B10198F6E7D9
:10D47000204600F0F1FCF2E708B528B1062803D0F9
:10D48000FEF76EFFF2F7D6FE08BD10B50C4619B9CF
:10D49000BDE81040FFF780B8FFF77EF884421CBF5C
:10D4A0000023C4E90030002010BD40F23C43984204
:10D4B0001CD007D85E2815D075281FD03E280ED165
:10D4C0000120704740F23E43984215D012D340F2FB
:10D4D0003F4398420CD040F2CB43984204D04FF0E7
:10D4E000FF307047022070470320704704207047C8
:10D4F00005207047062070470720704700207047BE
:10D5000038B5034615460C4609B92C460BE052B116
:10D5100011462046984758B1636833B9656044F0B6
:10D520000103A560EB60204638BDA368DD60F6E727
:10D530006B68E3606C60002BE7D145F00103AC60E1
:10D54000E360E2E7F8B5064631B1002511F00103CA
:10D5500004D00023EB6029460846F8BDCC68CB60B8
:10D5600014F0010307D1E768E36022463046FFF775
:10D57000C7FF3C4601460A4630462946FFF7C0FF32
:10D5800021460546E2E78A422DE9F04103460F466F
:10D5900006D1002351685360BDE8F041FFF7D2BFC8
:10D5A000D66896B11446E468E107FCD524F001047E
:10D5B00006F001086568954218D15168002039B914
:10D5C000804518BF0E466660D1603846BDE8F081E0
:10D5D0005060D0601846FFF7B5FF05466060EE600A
:10D5E000B8F1000FF1D0A560EFE70D46E968914270
:10D5F000FBD100205168D06050601846FFF7A2FFB1
:10D600000028ECD0E8600546E9E70000024B1B6803
:10D610005B681860704700BF80330020044B1B68B4
:10D620005B6882B0186801ABC01A02B0704700BFD7
:10D6300080330020024B1B685B685860704700BF56
:10D640008033002008B5FFF7E9FF044B1B685B68D7
:10D650005B68984201D3FFF737FD08BD8033002097
:10D6600010B503461446500CC2F34F0221B1E10736
:10D6700002D40C48FFF7D4FC904206D198420FD058
:10D68000094902460948FEF706FD984204D9C21A24
:10D6900007490648FEF7FFFC9A4201D20549F1E727
:10D6A00010BD00BFE8FB0508F2FB050818060608D8
:10D6B00004FC05080CFC05082DE9F74FDDE90CA575
:10D6C000002481468B469046019326462746019BBF
:10D6D0009C4204D14F453AD22248FFF7A1FC4C4569
:10D6E0000FD2BAF802209205F6D45BF82400013775
:10D6F0009AF80220012A23D100F0F4FC05F8240056
:10D7000017E0BAF80010C900002241F002014046BB
:10D7100000F08AF888B9BAF80220D30505D5BAF81E
:10D72000002011491148FEF7B6FCDAF8042045F84C
:10D73000242001340AF1080AC9E701364068D7E716
:10D74000022A01D100F07CFB45F82400F1E7D8F86B
:10D750000030B6EBD30F01D20548BEE703B0BDE8F9
:10D76000F08F00BF43FC05083EFC050818060608BC
:10D770004DFC050870B586B00446154602EB8002E4
:10D7800003A81E4600F01FF80B9B01930A9B009311
:10D7900003AA334629462046FFF78EFF06B070BD28
:10D7A00008B50148FFF75EFC19FC050810B50446F2
:10D7B000416019B981600123236010BDC800F2F7F0
:10D7C0007CFDA060F7E70368416061F3DF0303605D
:10D7D000DBB243F0070303708260704703789B0756
:10D7E00010B5044602D48068F2F776FD2368002263
:10D7F00062F3DF036260236010BD03789B0710B5FE
:10D80000044602D48068F2F767FD2368002262F3C1
:10D81000DF032360DBB243F0010362F34103626084
:10D820002370A26010BD0000022A2DE9F74F0446C4
:10D830000E46914612D0426882B1914BC1F38601E7
:10D840000B4493F80812B1FBF2F302FB1313826846
:10D8500002EBC30552F83330B34212D0237813F0F1
:10D86000010814D006F00702022A0ED016F00308B1
:10D8700003D13168834A914209D0B9F1010F40D0F8
:10D880000025284603B0BDE8F08F4FF001085B0784
:10D890006CD52768A56827F007072F44BD4232D30F
:10D8A000B9F1010FECD121686368C1F3DC01994241
:10D8B00011D104316160A068C900F2F700FD23684E
:10D8C0006268A060C3F3DC03D21AD200002100EB2F
:10D8D000C3001BF0B7FD2368A168C3F3DC02501C32
:10D8E00001EBC20560F3DF03236041F832600022E0
:10D8F00006F007066A60022EC3D0237862F30003A5
:10D9000069E0C846C3E72868B04225D1B9F1020FE3
:10D9100018D12368D5F804807A1B083B22F007024F
:10D9200005F108012360083A28461BF073FD2368BF
:10D93000A268C3F3DC0302EBC305002142F83310F5
:10D94000C5F804804E4BC6F386061E44A368EB1A46
:10D95000DB1086F8083294E7B8F1000F04D13146A5
:10D9600000F066FC0028D1D1083597E763682BB931
:10D97000B9F1010F84D1204600F086F806F0070BBC
:10D98000BBF1020F29D1F008F3F70CFC03466268E3
:10D99000B3FBF2FA02FB1A3A57460025A16851F888
:10D9A000370001EBC702F0B9B9F1010F7FF468AF9E
:10D9B0002368C3F3DC010131002D08BF154661F374
:10D9C000DF03BBF1020F2360C5E900603FF459AFEC
:10D9D000237860F30003237053E731460620FEF7F7
:10D9E000B5FB4310D3E7042818D1002D08BF154616
:10D9F00062680137B7FBF2F102FB1177BA45CDD16E
:10DA0000B9F1010F7FF43CAF95B3236800220833CE
:10DA10002360BBF1020F2E606A606DE7B04218D13F
:10DA2000B9F1020F0DD123686068083B23607B1CAD
:10DA3000B3FBF0F100FB1133A16851F83330ABB9FF
:10DA400013600F4BC6F386061E44154686F808720F
:10DA500017E7B8F1000FCBD13146CDE9003200F025
:10DA6000E7FBDDE900320028C2D0D9E70423E7E76D
:10DA70002046009300F008F86268009B88E700BF2A
:10DA8000402C002058160608F8B546681949044687
:10DA9000731C002231F81250AB4206D90132222AFF
:10DAA000F8D103EB530343F00105E800A768F2F750
:10DAB00004FC236865606FF3DF032360DBB243F08F
:10DAC00001032370A0600025B54204D13846BDE8AB
:10DAD000F840F2F701BC57F8351049B1042907D0D6
:10DAE00001222046FFF7A0FE07EBC5035B684360F9
:10DAF0000135E9E758FC050810B50023044601602C
:10DB000043608800F2F7D9FBA06010BD03682DE9DF
:10DB1000F74F04468946924623B912F0010F67D0A9
:10DB200000F068F849460620FEF710FB22684FEA2D
:10DB3000600B0AF00103BBFBF2F7009302FB17B77F
:10DB40003D464FF00008A06850F82560AA008118F3
:10DB50006EB91AF0010F4BD06368B8F1000F18BF0F
:10DB6000414601336360C1F800904E4631E0042E17
:10DB700016D1B8F1000F08BF884622680135B5FB01
:10DB8000F2F102FB1155AF42DDD1009B83B3B8F136
:10DB9000000F24D0636801336360C8F80090E4E7A5
:10DBA00049463046019200F043FB019A0028E4D038
:10DBB0001AF0020F0DD063682068013B01356360E5
:10DBC000B5FBF0F1A36800FB115553F8251021B9FE
:10DBD0009950304603B0BDE8F08F0421F8E72046A5
:10DBE00000F008F82268BBFBF2F702FB17B7A7E7C3
:10DBF0000026EEE7F8B505688668154904466B1CF3
:10DC0000002231F81200834206D90132222AF8D1CB
:10DC100003EB530343F001000023206063608000A6
:10DC2000F2F74BFB3746A06006EB8505AF4204D107
:10DC30003046BDE8F840F2F74FBB57F8041B002907
:10DC4000F4D00429F2D001222046FFF75FFFEDE770
:10DC500058FC050870B501680023994201D10022E3
:10DC600014E0846854F8232004EB83060133002A6F
:10DC7000F3D0042AF1D04568013D4560B3FBF1F0D3
:10DC800001FB103354F8233013B93360104670BDD4
:10DC90000423FAE710B504468068F2F71DFB002361
:10DCA000C4E90033A36010BD704710B50C46F2F70D
:10DCB000EBFA046010BD000083070FBF0068034B40
:10DCC00000F00F0053F82000704700BF8CFD0508DE
:10DCD00008B5FFF7F1FFBDE80840C088F3F77DBA4B
:10DCE00070B50D4604461646FFF7ACFC2846FFF714
:10DCF000E3FF437A43B100EB8300324603692946D0
:10DD00002046BDE870401847C28803492046BDE858
:10DD10007040D5F763BE00BF48FD05080A460146BE
:10DD20000148FFF7DDBF00BF382806082DE9F3479B
:10DD3000054608460E4602F039F9A8B101AA69461F
:10DD4000304602F089F9009B73B11A49DFF86C8004
:10DD5000DFF86C90DFF860A02846D5F7DBFA009C6E
:10DD6000E71EA400002F0BDA022231462846FFF7F7
:10DD7000B7FF11492846D5F7CDFA02B0BDE8F087C4
:10DD8000019A224452E9032341462846D5F726FE4C
:10DD9000019B234453F8042C32B951462846D5F749
:10DDA000B9FA033F0C3CDDE749462846D5F716FE95
:10DDB000F7E700BF06FD0508498706082AFD0508A4
:10DDC0003FFD050808B50246FFF776FF837A53B199
:10DDD00000EB8300064B0069984205D11046BDE870
:10DDE000084008F029BA1846003018BF012008BDC5
:10DDF000556003080E2810B503460C4603D10023D6
:10DE00002360012003E01E2802D10120086010BD1C
:10DE1000C10701D54310F3E7820707D10168074A1C
:10DE2000914203D103F0A4FA2060EAE719460820E2
:10DE3000FEF78CF90028F5D1E9E700BFBC09060818
:10DE400013B501A90446FFF7D5FF10B92046FFF727
:10DE500025F9019802B010BDC20705D4830705D18A
:10DE60000268034B9A4201D103F07ABAFFF7E8BF88
:10DE7000BC0906080E2810B503460C4629D01E28FA
:10DE80002AD0C10708D5431000EE103AB8EEC00AF8
:10DE900084ED000A012010BD82070CD102681149EF
:10DEA0008A4202D103F0A0FBF2E70F498A4202D175
:10DEB00002F005FAECE719460920FEF747F970B1C0
:10DEC00010F003030BD10168074A9142F0D01846C5
:10DED000E1E79FED060ADBE7B7EE000AD8E700208E
:10DEE000D9E700BFBC0906081007060800000000BB
:10DEF00013B501A90446FFF7BDFF38B92046FFF767
:10DF0000E7FE044902460448FEF7C5F89DED010A04
:10DF100002B010BDEEFC050818060608F8B5054667
:10DF20000F461646FFF7A6FF044618B100233360DC
:10DF30002046F8BDA9070AD12A680C4B9A4206D19F
:10DF400032463946284601F09DF80124F0E729467B
:10DF50000A20FEF7FBF80028EAD08207E8D1026821
:10DF6000024B9A42E4D132463946ECE718000608E3
:10DF700010B50446FFF7D2FF38B92046FFF7A8FED8
:10DF8000024902460248FEF786F810BDE7FC050884
:10DF90001806060838B5840703460ED104680B4DF1
:10DFA000AC4203D1BDE8384007F0A0BB084DAC42FD
:10DFB00003D1BDE8384003F0CBBD1846FFF788FE1B
:10DFC000044902460448FEF766F800BFCC1706086D
:10DFD000100B0608CCFC05081806060813B50C46FD
:10DFE00001A9FFF7D7FF019BA34204D022460349B2
:10DFF0000348FEF750F802B010BD00BFD5FC05087D
:10E0000060060608F7B51F46D30706460D461446B8
:10E010000ED554100194019A002A1DDA2A44019267
:10E02000E7B1002A14DA00230193019803B0F0BD90
:10E0300001A91046FFF7DEFE0028ECD12046F58846
:10E04000FFF746FE2A46034609490A48FEF723F829
:10E05000AA42EAD90195E8E7002FF9D1019B002BEC
:10E0600001DBAB42E1D3F28803490448FEF713F821
:10E07000AAFC050818060608BBFC050820040608CB
:10E08000820701D003F0C7B8002801DA03F046B9CF
:10E09000400040F001007047830710B5014610D1E1
:10E0A00002680F4B9A420CD100F00703022B06D1F5
:10E0B000C008F3F785F8400040F0010010BD80680B
:10E0C000F9E70846FFF7F8FDC37A33B100EB8300A8
:10E0D000BDE810400369052018471846EEE700BF69
:10E0E000A41406080E2810B5044624D01E2801D119
:10E0F000012010BD06281ED0C20704D510F1FF3044
:10E1000018BF0120F5E7FFF7D7FDC37A5BB100EB3D
:10E110008300214603690420984720B1A0F11E0323
:10E1200058425841E5E72046FFF7B6FF0028DFD008
:10E1300010F1FF30E4E70020DBE7000005282DE9BF
:10E14000F0470BBF4FF00E084FF01E081E260E269C
:10E15000914281460C46154607D1C80761D408464E
:10E16000FFF7AAFD838859075BD504F00703022B4C
:10E1700005D0A20717D122682C4B9A4213D105F083
:10E180000703022B05D0AB0712D12A68274B9A420E
:10E190000ED12946204605F050FE002818BF4646FD
:10E1A0003046BDE8F08714F0010A06D0EF07F7D437
:10E1B00023464FF0010A2C461D462046FFF77CFD02
:10E1C000027B07469AB18188080704D42846FFF7E6
:10E1D00073FD87420BD1B9F1050F0FD03B7B07EBE5
:10E1E00083072A463B6921460220984798B9BAF12D
:10E1F000000FDDD0AC4208BF4646D1E7CB06EDD5D7
:10E2000007EB82022146136948462A4698470028B0
