:020000040800F2
:10000000F8FF0120BDCD04085F4204084D420408FA
:1000100061420408714204088142040800000000A3
:1000200000000000000000000000000091420408F1
:100030009342040800000000D15204082D53040824
:10004000B1CC0408814304088D4304089543040897
:1000500005BF0408B1CC0408154304081B43040879
:1000600021430408274304082D4304088975040824
:1000700099750408A9750408B9750408C9750408B8
:10008000D9750408E9750408B1CC04080000000023
:1000900000000000000000000000000033430408DE
:1000A000A9430408AF430408C1430408C743040834
:1000B000CD430408D3430408D94304080B4404087F
:1000C00011440408174404081D440408B1CC040872
:1000D000B1CC0408F9430408FF4304080000000001
:1000E0005743040887430408A142040800000000A5
:1000F000000000000000000000000000F975040886
:1001000000000000B1CC0408E1430408B1CC0408AD
:1001100000000000000000000000000000000000DF
:100120000976040819760408297604083976040843
:1001300049760408000000000000000000000000F4
:1001400000000000000000000000000095420408CC
:100150005976040869760408797604080544040889
:1001600023440408294404080000000000000000A3
:10017000000000000000000000000000000000007F
:1001800000000000B1CC04080000000000000000E6
:10019000B1CC0408B1CC040842884378007843EA23
:1001A000022340EA032070470B0A017043700B0CD6
:1001B000090E8370C1707047036A0239023B8B429B
:1001C00083BFC389406B01FB0300002070470246D8
:1001D00000F10B010020C30143EA500312F8010BA8
:1001E00050FA83F38A42D8B2F5D1704737B50D463D
:1001F000044620B9092000232B6003B030BD0368FA
:10020000002BF7D05A79002AF4D081885A8991427C
:10021000F0D118680DF10702062102F0EDFA9DF801
:10022000073003F00103184310F0FF00E2D1236808
:10023000E2E738B50468054614F8010B20B140F236
:10024000B51153F083F908B12C6038BD4FF0FF3081
:10025000FBE7CA7E8B7E032843EA022301BF487D69
:100260000A7D42EA002243EA024318467047C2F37D
:1002700007238A76CB760378032B01BF120C0A750D
:10028000120A4A75704770B5C37904460BB900204D
:1002900070BD00F13C06826B00680123314602F01C
:1002A00096FA80B9A16BE36A626AE071CB1A934255
:1002B000EDD2A379022BEAD10A440123314620680A
:1002C00002F085FAE3E70120E2E7836B8B4270B529
:1002D00006460D4612D0FFF7D6FF044660B92A46FF
:1002E000012306F13C01306802F062FA00281CBFCD
:1002F0004FF0FF350124B563204670BD0024FBE7B5
:10030000002310B5C3714FF0FF3383630446FFF73A
:10031000DCFF18BB94F83B2294F83A3243EA0223FC
:100320004AF6552293421BD194F83C30EB2B03D074
:100330001833DBB2012B15D803220B4904F17200EC
:100340003FF00CF848B10522084904F18E003FF057
:1003500005F8002814BF0220002010BD0420FCE78F
:100360000320FAE70220F8E79B8B06089F8B06081C
:100370002DE9F043437987B0044601F0FE059BB1B7
:1003800006210DF10702006802F036FA9DF8070019
:10039000C10709D4002D00F0268110F0040000D020
:1003A0000A2007B0BDE8F083002363710DF1070256
:1003B0000521206802F020FA9DF80730DA0700F1E5
:1003C00014810DB15B07EBD400212046FFF798FFA5
:1003D0000228034603D0012824D8257975B302AD3D
:1003E00004F2022104F242262F4611F8040C10B147
:1003F0000846FFF7D1FE10318E4245F8040BF4D1C8
:10040000267906B1013E57F826507DB1294620468F
:10041000FFF776FF0346227952B9012B0ED9013638
:10042000032EF0D9042B07D10120BAE70323F2E70A
:10043000042BF9D0012B01D90D20B2E794F8482004
:1004400094F8473043EA0223B3F5007FF4D194F8DF
:10045000533094F8526056EA032604D104F1600048
:10046000FFF79AFE064694F84C1066624B1E012B6D
:10047000A171E1D894F849901FFA89F3E381002B28
:10048000DAD009F1FF3313EA090FD5D194F84E30D1
:1004900094F84D7047EA03273FB21FFA87F818F027
:1004A0000F0FA4F80C80C7D194F8503094F84F0087
:1004B00050EA032003D104F15C00FFF76DFE94F8CD
:1004C0004B2094F84A3053EA0223B5D006FB01FCD6
:1004D00003EB181262448242AED8801A4845B0FB42
:1004E000F9F1A9D346488142A6D84FF6F57081426A
:1004F0007DD94FF0030902312B442A44B9F1030F8F
:100500002162A562E36262635BD194F8672094F88C
:10051000663043EA02231F433FB2002F8CD104F11F
:100520006800FFF739FE2063890001F2FF11B6EB86
:10053000512F81D34FF0FF33C4E90533B9F1030FD5
:100540004FF0800323722FD194F86D2094F86C3013
:1005500043EA0223012B27D1691C2046FFF7B5FE91
:1005600010BB94F83B2294F83A32207243EA0223FB
:100570004AF65522934217D104F13C00FFF70CFED6
:10058000204B984210D104F50870FFF705FE1E4B72
:10059000984209D104F50970FFF7FEFDA06104F54A
:1005A0000A70FFF7F9FD6061184A84F80590138816
:1005B00001339BB2138063810020154B2361E061FE
:1005C000EFE6B8F1000F3FF437AF6344B9F1020F23
:1005D00023634FEA41031BBF5B1801F00101194679
:1005E00001EB5301A1E72846DBE60320D9E640F6FC
:1005F000F57949458CBF4FF002094FF001097AE7C0
:10060000F5FFFF0F5252614172724161142B0020BD
:10061000162B002001292DE9F04705460C46174608
:1006200072D9036A8B426FD94379022B3FD0032BD7
:1006300050D0012B68D101EB5108C16A01EB582160
:10064000FFF743FE064638BB05F13C0908F1010AF5
:10065000C8F3080814F001041FBF19F8083003F0AC
:100660000F023B0103F0F00314BF1343FBB209F880
:100670000830E96A0123EB7101EB5A212846FFF7A4
:1006800024FE064640B9CAF3080A44B1C7F3071767
:1006900009F80A700123EB713046BDE8F08719F8BC
:1006A0000A30C7F3032723F00F031F43F0E7C16AA3
:1006B00001EB1421FFF709FE06460028ECD1640087
:1006C00005F13C0304F4FF741A191F55C7F30727FB
:1006D0005770DFE7C16A01EBD411FFF7F6FD06465C
:1006E0000028D9D1A40005F13C0304F4FE741C4495
:1006F0002046FFF751FD27F0704700F07041394365
:100700002046FFF751FDC5E70226C5E70129F8B5E8
:1007100005460C4652D9036A99424FD24379022BBF
:1007200029D0032B38D0012B48D101EB5106C16AE7
:1007300001EB5621FFF7C9FD10B14FF0FF30F8BDB6
:10074000771CE96AC6F308062E4401EB57212846B8
:1007500096F83C60FFF7B9FD0028EED1C7F3080713
:100760003D44E30795F83C0046EA00204CBF0009F1
:10077000C0F30B00E3E7C16A01EB1421FFF7A5FD0D
:100780000028DAD164003C3504F4FF742B19285D8D
:100790005B7840EA0320D2E7C16A01EBD411FFF78E
:1007A00094FD0028C9D1A40005F13C0004F4FE74B6
:1007B0002044FFF7F1FC20F07040C0E70120BEE7C5
:1007C000B1F5001FF8B506460D4601D30220F8BD6D
:1007D000CA06FBD1826804683161CAB96379022B09
:1007E00001D9236B9BB9A389B3EB551FEED9236BBA
:1007F000B361B3697261002BE8D003EB55233C343D
:10080000C5F308052C44B361F4610020DFE71A4604
:10081000E7897F02BD42114604D22046FFF7CCFC97
:10082000B061E6E73068FFF771FF431C024606D06F
:100830000128CBD9236A8342C8D9ED1BEAE70120FE
:10084000C5E72DE9F041804605680F4649B96E6954
:10085000C6B12B6AB34298BF0126AB69A3B9002485
:1008600006E02846FFF752FF0128044603D801247A
:100870002046BDE8F081421C51D02B6A8342F7D854
:100880003E46EAE70126E8E7BE4215D12B6AD8F8D2
:100890000000741CA34298BF02242146FFF736FFD4
:1008A0000128E4D0431C3AD0D8B16B69012B03D99D
:1008B0002A6A934238BF1E4634462B6A0134A3424B
:1008C00002D8012ECBD902242146D8F80000FFF728
:1008D0001DFF40B10128CAD0013020D0B442ECD174
:1008E000BDE7002CE8D04FF0FF3221462846FFF745
:1008F00091FE90B957B92A6AAB696C61023A93428A
:1009000010D92B7A43F001032B72B1E72246394606
:100910002846FFF77FFE0028EDD00128A7D14FF031
:10092000FF34A5E7013BAB61EBE7F8B50D46012DC0
:100930000746114604682BD9236AAB4228D92AB14D
:100940004FF0FF322046FFF765FE30B92946386880
:10095000FFF7DCFE064608B90020F8BD012817D0D5
:10096000431C17D0002229462046FFF753FE0028DB
:10097000F3D1226AA369911E8B4205D20133A36190
:10098000237A43F001032372B2423546DED8E3E70F
:100990000220E2E70120E0E7F8B505460E46FFF742
:1009A00072FC0446F8B931462846FFF705FC05F10C
:1009B0003C060746A8634FF40072214630463EF0DD
:1009C000A7FCEB899C4204D3E889001B18BF0120D7
:1009D000F8BD01233A193146286801F0F8FE0028D5
:1009E000F2D10134EDE70120F2E72DE9F843076980
:1009F00005682037B7F5001F24BF00238361836992
:100A00000446894673B1C7F30808B8F1000F39D11D
:100A100041690133836139B9AB89B3EB571F31D8D1
:100A20000023A36104200BE0EB89013B13EA572369
:100A300028D12846FFF76AFE0128064602D8022080
:100A4000BDE8F883421C01D10120F9E72B6A8342FB
:100A500012D8B9F1000FE3D061692046FFF7F1FE2B
:100A60000646A8B10128EAD0431CEDD0014628462D
:100A7000FFF792FF0028E7D1666131462846FFF76D
:100A80009BFBA0613C3545442761E5610020D7E729
:100A90000720D5E7F8B50F46002104460668FFF7A2
:100AA0008FFEA8B90546A1693046FFF70EFC78B95C
:100AB000E3691B78E52B00D01BB90135BD4201D19C
:100AC000F8BD054601212046FFF78FFF0028EAD038
:100AD000042808BF0720F3E72DE9F84FFF25066833
:100AE00081460F462C464FF0040A4FF6FF78D9F89E
:100AF000181019B9BAF1000F78D067E03046FFF747
:100B0000E4FB8246002861D1D9F81C000378002B51
:100B100076D0C27AE52B02F03F0289F806205BD03E
:100B20002E2B59D022F02001A1F1080CDCF100019C
:100B300041EB0C01B9424FD10F2A52D1590649D588
:100B4000D9F81020457BC9F82C2003F0BF03427B65
:100B5000AA4241D1C17E827E42EA012212B2002A1B
:100B60003AD10178D6F810C0DFF89CA021F04001FE
:100B700001390D2461434FF0010E1AF8014B00EBCF
:100B8000040B045D9BF801B044EA0B24BEF1000F96
:100B900024D0FF2920D82CF81140A646013101327B
:100BA0000D2AEAD10278520607D5BEF1000F04D013
:100BB000FF2911D800222CF811205C1EE4B200217C
:100BC0004846FFF712FF8246002890D00023C9F85C
:100BD00018300DE09C42BAD0FF24F0E74445DED047
:100BE000FAE744B9FFF7F3FAA84204D14FF0000A3C
:100BF0005046BDE8F88F4FF0FF33C9F82C30F7E7C7
:100C00004FF0040AE2E700BF7C8B0608C16A4B1C68
:100C10002DE9F04104460568066918D1E5274FF033
:100C20000108A1692846FFF750FB60B9E3691F700E
:100C300085F807802369B3420DD201462046FFF7AD
:100C4000D4FE0028EDD0042808BF022003E0FFF7FF
:100C5000B7FD0028E2D0BDE8F08100002DE9F04F9B
:100C6000002185B00446D0F80080FFF7A9FD814639
:100C7000002840F08B804FF0FF334FF0FF0AE36213
:100C800057460093A1694046FFF71FFB81460028A5
:100C90007CD1E5692E78002E7CD0EA7AE52E02F030
:100CA0003F03A37103D0120704D50F2B04D0009B80
:100CB000E36252E00F2B57D194F82B30580642D400
:100CC000710648D5236995F80DA0E36206F0BF06CA
:100CD0006B7B534541D1EA7EAB7E53EA02233CD184
:100CE0002F78D8F810B007F03F077B1E0D275F4321
:100CF0002A4B012113F8012BA81815F8029040780F
:100D000049EA002959B3FF2F039326D8484652F0E9
:100D100031FC7A1C02903BF81700019252F02AFC39
:100D20000299814219D1019A039B494617461C4AF0
:100D30009A42DFD12B785A0603D511B13BF8173010
:100D40005BB9013EF7B200212046FFF74EFE814617
:100D5000002897D01AE0B742BAD0FF27F3E74FF642
:100D6000FF729145E3D0F8E727B92846FFF72FFA3D
:100D700050450BD094F82B30DB0798D40B2204F1AC
:100D8000200128463EF0EAFA002890D1484605B0F6
:100D9000BDE8F08F4FF00409F8E700BF7C8B060830
:100DA000898B06082DE9F04F90F82BB01BF0A004BA
:100DB00089B0054640F0E38007683A6932F814309C
:100DC000002B6CD105F1200696E807000DF1140AFE
:100DD0001BF0010F8AE8070000F0D880402385F857
:100DE0002B304FF001089AE80700B4463B69ACE8A5
:100DF00003002CF8022BB8F1050F4FEA12428CF8D1
:100E0000002060D9981E424630F8021F002948D1C0
:100E10000DF1130C072102F00F0E0EF130003928EE
:100E200088BF0EF137000F2A0CF8010901F1FF31DC
:100E30004FEA121049D808AB5A187E2002F8140C59
:100E400005F11F00844600228A4206D01CF801EFFB
:100E5000BEF1200F02F1010939D107299CBF08AB6F
:100E600003EB010C02F1010296BF1CF814CC4FF009
:100E7000200C0131072A00F802C0EED92846FFF7FE
:100E8000EDFE814600287DD108F10108B8F1640F1C
:100E9000A9D14FF00709484609B0BDE8F08F0134E9
:100EA0008CE74FF0100C01F0010E0EEB4202D30361
:100EB00044BF82F4883282F02102BCF1010C4FEA77
:100EC0005101F0D1A0E74246A2E70246A3E74A4615
:100ED000BAE729692846A1EB4411FFF771FC814666
:100EE0000028D8D13046FFF772F94FF6FF7801900D
:100EF000A9693846FFF7E9F981460028CBD1EB69AB
:100F0000019AD7F810E05A73E1B24FF00F024FF098
:100F10000D0CDA72DFF8D8A018734A1E0CFB02F22F
:100F20009876D876844640451AF8019B18BF3EF85B
:100F3000120003F8090003EB090B0CF1010C18BFB8
:100F400001324FEA1029002808BF4046BCF10D0FBE
:100F50008BF80190E7D1404502D03EF812200AB943
:100F600041F0400119700123FB7100212846FFF771
:100F70003CFD814600288ED1013CB9D11AE04FF0EA
:100F8000060988E7042886D185F82BB01BF0020FEC
:100F90001BBF0C340D230124B4FBF3F418BF013440
:100FA00021462846FFF776FD814600287FF473AF7F
:100FB000013C8ED1A9693846FFF787F981460028A0
:100FC0007FF469AF01462022E8693EF0A1F903CE23
:100FD000EB6918605960B278318819819A7295F876
:100FE0002B30EA6903F0180313730123FB7152E7F6
:100FF0007C8B0608F8B50446FFF745F9054600283E
:1010000042D16379032B37D1277A012F34D104F1F0
:101010003C0601464FF4007230463EF079F9552304
:1010200084F83A32AA2384F83B32522341227221B7
:1010300084F83C3084F83D30612384F83E3084F8F5
:101040003F2084F8222284F8233284F8201284F886
:10105000211204F50970A169FFF7A6F8616904F58A
:101060000A70FFF7A1F8A26A20680132A2633B462A
:10107000314601F0ACFB257200221146206801F0D8
:10108000BBFB003018BF0120F8BD2DE9F04700265A
:10109000D0F800A08E75836980460C46002B00F0C6
:1010A0009280C36A01336DD1D8F81C1000234D1E05
:1010B00018462E2615F8012F202A00F101000CD029
:1010C000052A08BFE522092804D10B2B9EBFE7188B
:1010D00001337E72E71801337A720B28EAD1E218E5
:1010E00000205072A27D002A5CD1002B51D06FF0FD
:1010F000080604F109000825361B321810F8013BD8
:10110000002B49D09BB22E2B5FD0A3F14102192AAC
:1011100003D80A7B154200D020330373EDE7B9F101
:10112000000F05D100F520539BB2B3F5006F12D329
:1011300040F2B51140EA094052F0E8F9FF28C7F142
:10114000FF0518D9012D20D9E319020A9A75D8751F
:1011500002231F44002002368146DAF81030985BE3
:101160000028DCD13D46B9F1000F18BF0025254409
:101170000023AB7598E750B1002DF4D0E3199875B2
:101180000123E6E7B1463746E7E70025EBE70546EA
:10119000E9E73F23A37501222244002393750B7BCB
:1011A00003B96372CB7A237201F11C00FEF7F4FFDE
:1011B0002060CA7D8B7D43EA0223E3804A7E0B7E5A
:1011C00043EA0223A380BDE8F0871025A5E70000CD
:1011D0002DE9F04F0B78D0F800B02F2B87B00646E2
:1011E000884601D05C2B0AD1424613782F2B9046BB
:1011F00002F10102F9D05C2BF7D0002301E0DBF80B
:101200001C30B36098F800301F2B00F22D81802332
:1012100086F82B3000213046FFF7D2FA07B0BDE840
:10122000F08FFE2D00F249812AF81530013521E1B9
:1012300008F101020592DDF8148098F800202F2AA9
:10124000F6D05C2AF4D0202B34BF04240024012DD6
:101250002CD1BAF800302E2B2ED100232AF81530CD
:1012600006F120029D428CBF2E21202101330B2B41
:1012700002F8011BF6D144F0200486F82B403046DA
:10128000FFF7ECFC96F82B30002800F0DC800428F7
:10129000C4D1990603F0040240F1D180002A00F085
:1012A000E380802386F82B300020B7E7022D03D19E
:1012B000BAF802302E2BCCD00AEB450385BB0021B7
:1012C0000AEB45032AF81510002D00F0F6803AF8D5
:1012D0001120202A01F101002AD009B92E2A01D1BA
:1012E00044F0030433F8022D2E2A01D0013DF9D138
:1012F0004FF020324FF0000972623262C6F82720A8
:1013000008234F463AF811004A1CF8B1202803D0B0
:101310002E280FD1954211D044F003041146F1E775
:1013200033F8022D202A01D02E2AC8D1013DC5E76D
:101330000146CCE7994504D2954229D10B2B20D107
:1013400001E00B2B18D144F003040B2396F8202066
:10135000E52A04BF052286F82020082B04BFBF0021
:10136000FFB207F00C030C2B03D007F00303032B91
:1013700059D144F0020480E7954202D044F00304BE
:10138000E4D3BF00FFB22A460B234FF00809C5E79C
:101390007F2813D9CDE9022340F2B51144F00203AE
:1013A000019352F0B3F810F0800FDDE9022310D062
:1013B00000F07F004349085C019C30B1DFF80CC1AC
:1013C0001CF8011BE9B18142FAD144F003045F200B
:1013D00010E0FF28F0D9591E894503D344F00304D7
:1013E00099469BE706EB0901040A81F82040019C1D
:1013F00009F1010906EB090109F1010981F8200051
:101400008CE7A0F1410189B2192902D847F00207FF
:10141000F0E7A0F1610189B219299EBF203847F099
:10142000010780B2E6E7A3073FF527AFFD0748BFF6
:1014300044F01004780748BF44F008041DE7002A70
:1014400008BF0520EAE65A073FF5E8AEB379DB06A8
:1014500035D533699BF80500C3F308030BF13C0154
:101460001944FEF7F6FEB0603368CDF81480D3F867
:1014700010A0002505A8FEF7DCFE421C1DD0B0F52B
:10148000803F24BF030C2AF8153083B228BF0135F2
:101490001F2B7FF6D0AE2F2B3FF4CDAE5C2B3FF44D
:1014A000CAAE7F2B3FF6BDAE0749184611F8012B97
:1014B000002A3FF4B6AE8242F8D10620AEE60520FF
:1014C000ACE600BFFC8A0608F68B0608FF8B060810
:1014D00000214171FEF74CBF2DE9F04305468DB068
:1014E00090461E460C46002900F0BE8003F03F07E0
:1014F0003946FEF73DFF002840F0AE804146684681
:101500000095FFF765FE024620B99DF92B30002BB0
:10151000B8BF062216F01C0F6DD0002A3ED0042A58
:1015200039D16846FFF73EFC0246A0BB47F00807EA
:10153000DDF81C902E46494616F8050FFEF789FE89
:1015400080464AF037FE014609F10E00FEF72CFEF8
:10155000079B2022DA72079900223046FEF787FEA9
:10156000079B00221A775A779A77DA770123EB7173
:10157000B8F1000F1BD041466846AE6BFFF7D5F9B6
:10158000024640B931462846FEF79FFE08F1FF317A
:101590006961024658B10023236028E09DF80630B7
:1015A00013F0110F31D1700758D43107C0D4AB6B91
:1015B000079E2362666268793907314648BF47F063
:1015C0004007FEF746FE0146A06006F11C00FEF74C
:1015D000E3FD6B89A380BA064FF000030646E06086
:1015E000256027746374E361636110D400221046A0
:1015F0000DB0BDE8F083002ACDD19DF80630DA06A3
:101600002ED4B607D3D5D807D1D50722C3E70028F3
:10161000ECD0EF8960617F02B7420FD30022A16155
:10162000002AB8D1C6F30803002BDFD02846FEF706
:10163000C3FDB8B100EB5620E061D8E72068FFF7A2
:1016400065F801280146A6EB070603D9431CE3D140
:101650000122E4E70222E2E702469CE708229AE739
:10166000042298E7022296E70922C0E72DE9F04F0D
:10167000994685B000238846C9F8003003A904467E
:101680001546FEF7B3FD0646E0B9667CD6B9237C65
:10169000DA077BD5E3686769DF1BAF4228BF2F46B7
:1016A00087B16269C2F30803002B56D1039BDB8923
:1016B000013B13EA522A13D142B9A06801280AD883
:1016C00002266674304605B0BDE8F08FA169206837
:1016D000FFF71CF8F2E7431C01D10126F1E7A061F6
:1016E000DDF80CB0A1695846FEF766FD0028E7D08A
:1016F0000AEB0003B7F5007F01932CD37D0ABBF8FA
:101700000E20DBF800000AEB0501914288BFA2EB36
:101710000A052B46019A414601F04AF80028DCD11F
:101720000399CB795BB1886B019BC01AA84206D2A2
:101730004FF400723C3108EB40203DF0A5FD6D02F6
:10174000D9F800302B44C9F8003063697F1BA844E6
:101750001D446561A4E7019BE3616569E169039844
:10176000C5F30805C5F50075BD4228BF3D46FEF727
:10177000ACFD0028B1D1039963693C31C3F3080380
:101780002A46194440463DF07FFDD9E7072699E7F0
:101790002DE9F04F9B4685B000238946CBF80030F9
:1017A00003A904461746FEF721FD064618BB667CD2
:1017B0000EBB237C9A0740F1AA806369FB4200D3E9
:1017C000DF43A7B16369C3F30802002A40F08280B7
:1017D000039AD289013A12EA532201921ED173B9B7
:1017E000A06870B901462046FFF72BF848B9237C62
:1017F00043F040032374304605B0BDE8F08FA16983
:10180000F1E7012802D102266674F4E7431C01D1F6
:101810000126F9E7A368A06103B9A0600398E36912
:10182000826B9A4203D1FEF72EFD0028F0D1DDF83D
:101830000CA0A1695046FEF7BFFC0028E3D0019B35
:10184000B7F5007F03EB000836D3019ABAF80E30E3
:10185000DAF800007D0A2A449A4284BF019A9D1A50
:101860002B464246494600F0B2FF0028D0D1DDF8B1
:101870000CA0DAF83810A1EB0801A9420BD20190B4
:101880004FF4007209EB41210AF13C003DF0FCFCF1
:10189000019B8AF807306D02DBF800302B44CBF84F
:1018A000003063697F1BA9441D44E3686561AB4256
:1018B0002CBFE360E56084E76269E3689A4207D37E
:1018C0005046FEF7E0FC0028A2D1039BC3F8388005
:1018D000C4F81C806569E1690398C5F30805C5F57E
:1018E0000075BD4228BF3D46FEF7EFFC00288FD1B2
:1018F000039863693C30C3F308032A4618444946F9
:101900003DF0C2FC039B4FF00102DA71C4E70726E9
:1019100071E7F7B501A90446FEF768FC054660BB10
:10192000237C5B0629D54AF045FC216A07460198CD
:10193000FEF7CBFC054600BB666AF37A43F0200352
:10194000F3722068A26831460530FEF790FCE1682A
:1019500006F11C00FEF728FC394606F11600FEF7DA
:1019600023FC0198B5740123F574C371FFF742FBA2
:10197000237C23F0400305462374284603B0F0BDC2
:1019800013B50446FFF7C5FF28B901A92046FEF7A5
:101990002DFC00B9206002B010BD70B50E468CB0B1
:1019A00000210546FEF7E4FC044660B9314668466E
:1019B0000095FFF70DFC044690B99DF92B30002BE4
:1019C00004DA029BEB6120460CB070BD9DF8063036
:1019D000DB0609D507996879FEF73BFCE861F2E779
:1019E000042808BF0524EEE70524ECE72DE9F047BD
:1019F0000D460021D2B0297080469146FEF7B8FC12
:101A00000446C8B9D8F81C30CDF8008002934E4681
:101A1000DDF808A0BAF1000F14D14E4502BF06F15F
:101A2000FF362F23AB55711B2B469A5D1A7001357B
:101A30006A1891452B46F8D8002320462B7052B0E7
:101A4000BDE8F08720216846FEF7BAFE00284CD199
:101A500006994046FEF739FC0746002843D107990E
:101A600098F80500FEF7F5FB394602906846FEF748
:101A7000A7FE002839D100216846FFF72DF8074658
:101A8000B8BB079998F80500FEF7E3FB50450AD06C
:101A900039466846FEF7A9FF0028ECD00446042C1E
:101AA00008BF0224C8E70CA96846FFF7EEFA0DF15B
:101AB0004602394612F8010B4B1C58B9B34216D8EE
:101AC000AA190B4643B9731ECA43591A2F236B54E4
:101AD00016449DE71946EDE7013B0CA81844807DAC
:101AE00002F8010DEEE70446A6E70446A4E7112438
:101AF000A2E70446D3E7F7B50D4601A90446FEF771
:101B000075FB0646002850D1667C002E4DD1E36857
:101B1000AB4204D2227C12F0020F08BF1D46002205
:101B2000636962619DB90025E2686369934282BF7F
:101B3000227CE36042F04002C3F3080388BF2274B2
:101B4000002B32D0E369AB4218BFE5612DE0019A6A
:101B5000D7897F02FBB1013B6A1EB3FBF7F1B2FBF1
:101B6000F7F28A4217D37A421340A1696361ED1AF2
:101B70000029D8D0BD42636921D863692B446361D1
:101B8000C5F30803002BCED00198FEF715FB50B12A
:101B900000EB5525C8E7A16879B92046FEF751FE4C
:101BA0000128014604D102266674304603B0F0BD18
:101BB000013001D10126F7E7A160A161D8E73B44DC
:101BC0006361237C9A07A5EB070506D52046FEF73F
:101BD00038FE014628B90546CFE72068FEF796FD96
:101BE00001464B1CE6D00129DDD9019B1B6A8B42C3
:101BF000D9D9A161BEE770B5054616460C4621B39A
:101C00000021FEF7B5FB68B9256031462046FFF795
:101C1000DFFAE0B994F92B30002B0BDBA379DB065C
:101C200003D40520002323600EE06879E169FEF704
:101C300010FBA0606B89A38000212046FEF7C0FD49
:101C40000428EED00028EDD170BD0920FCE704285F
:101C5000E7D0E7E713B501A90446FEF7C7FA00B9D4
:101C6000206002B010BD73B50D4601A90446FEF711
:101C7000BDFA20B9014620461DB9FEF7A1FD02B00C
:101C800070BDFEF729FF10F0FB06F8D1294620466B
:101C9000FFF7FBF931462046FEF7A7FE042808BFF0
:101CA0000020ECE770B50E468CB0002104461546C6
:101CB000FEF75EFB0094044670B931466846FFF7B4
:101CC00087FA044640B99DF92B30002B07DB1DB184
:101CD00029466846FFF7D9F920460CB070BD0624A6
:101CE000FAE72DE9F84F884600210446FEF740FB4D
:101CF000074640B9D4F820A0A369AAF10202934292
:101D000004D8C8F800303846BDE8F88F6379012B55
:101D100017D10226054631462046FEF7F7FC431C44
:101D200037D0012837D000B90135236A0136B342D4
:101D3000F1D8C8F80050237AA56143F0010323725B
:101D4000E1E7E16A0646054604F13C0936B920465A
:101D500001F1010BFEF7B9FAF8B959466379022B84
:101D600009EB06000DD119F80630427853EA022338
:101D700008BF01350236BAF1010AC6F30806E5D1FB
:101D8000D7E7FEF709FA30F0704308BF0135043693
:101D9000F1E70127CDE70227CBE70746C9E7F0B512
:101DA0000E4699B002210546FEF7E2FA044688B9CC
:101DB000314668460095FFF70BFA044650B99DF886
:101DC0002B3098063BD4190639D49DF80670FA07D3
:101DD00003D50724204619B0F0BD07996879FEF7AE
:101DE00038FAFB0606460BD46846FEF70FFF04469A
:101DF0000028EFD1D6B92846FFF7FCF80446E9E7FA
:101E0000EB698342E5D00E9021460CA80C95FEF7B5
:101E1000D7FC04460028DDD101460CA8FEF75CFE85
:101E200004460028D5D00428D4D1DDE70246314647
:101E30006846FEF77AFD04460028CBD1DBE706248E
:101E4000C8E72DE9F0430E4691B002210546FEF7A2
:101E50008FFA044600286BD1314604A80495FFF799
:101E6000B7F90446002871D0042861D19DF83B10D1
:101E700011F020016CD168460095FEF7E2FC0646A1
:101E8000002859D0012859D0431C5C425C414AF0DB
:101E900091F98046002C53D131462846FEF77CFD4F
:101EA000044600284CD14FF02033EB632B64C5F877
:101EB00043302E2385F83C30102385F847304146C7
:101EC00005F1520005F13C046F1DFEF76DF9324635
:101ED00021463846FEF7CBF905F15C031A4651F866
:101EE000040B42F8040B9942F9D12E2385F85D309A
:101EF000069A38464FF00109FEF7B9F985F80790C0
:101F000004A8FEF74FFF0446D0B90B98414616309F
:101F1000FEF74AF932460B993846FEF7A8F90B9BB3
:101F20001022DA72284685F80790FFF763F8044616
:101F3000204611B0BDE8F0830724A8E70224A6E7F5
:101F4000002231466846FEF7F0FCF1E70824EFE78F
:101F50000624EDE7F0B50C46A1B00221064617466F
:101F6000FEF706FA002877D1214608A80896FFF761
:101F70002FF9002870D19DF84B3013F0A00F6DD1D0
:101F80000F9B6C4603F1200518685968224603C26E
:101F90000833AB421446F7D108AD0FCD14AC0FC4D3
:101FA0000FCD0FC495E80F0084E80F00394614A840
:101FB000FFF70EF948B9169A0A9B9A4203D1189A6C
:101FC0000C9B9A4203D0082046E0042844D114A870
:101FD000FEF7E8FE00283FD11B990DF10D0301F13A
:101FE0000D020DF11D0053F8044B42F8044B8342DF
:101FF000F9D1188810809B7893709DF80B30DA0621
:1020000058BF43F020030124CB72F471CB7ADB0676
:102010001BD50A9A169B9A4217D07079FEF719F9C8
:1020200001463046FEF7C8F80146C8B13046FEF713
:102030004CF988B996F85D302E2B06D1169A06F128
:102040005C01701DFEF713F9F47108A8FEF7DEFDC0
:1020500010B93046FEF7CEFF21B0F0BD0620FBE7F9
:102060000220F9E7F0B595B0074601910221FEF78D
:102070007FF90546002833D102AE4FF0203302939A
:1020800004467360C6F80730019B1B781F2B20D8CD
:102090009DF80830E52B22D01CB1631EF25C202A8B
:1020A00035D0002108A808970A91FEF789FB05465C
:1020B000B0B9012108A8FEF70FFD98BB0F9A44B3F1
:1020C000334603CB1060516019889B78937211815D
:1020D00021E001A8FEF7ADF8B0F5803F03D3062557
:1020E000284615B0F0BD51F045FA40F2B51151F057
:1020F0000DFA0028F3D01D4A12F8013B13B19842A3
:10210000FAD1ECE7FF2822D80A2C28D9E7E71C46A9
:10211000C2E7E52313700123FB713846FEF76AFF1F
:102120000546DDE70428FBD1002CD9D0012108A801
:10213000FEF7B0FC05460028D2D1202201460F98B8
:102140003DF0E6F80F9B0822DA720F9AB8E7092CE7
:10215000C5D814AB2344020A03F8482C013414AB4D
:102160002344013403F8480C8EE700BF898B06082E
:102170002DE9F04F07688BB01C4600234371039193
:1021800003790293154605210DF11F02384600F030
:1021900033FB9DF81F30DA0700F192825E0700F1F1
:1021A000918208AA0321384600F026FB30B9089A2C
:1021B000531EB3F5004F01D21A4201D001230893F8
:1021C0005DB15F4BA5F500729A4203D913200BB0A5
:1021D000BDE8F08F6B1E2B42F8D1002C00F074820A
:1021E000149BB3F5007FC0F06F82029B002B63D07D
:1021F000012300222146384600F0DAFA08B1012016
:10220000E5E794F8FF2194F8FE3143EA02234AF609
:102210005522934201D00E20D9E7029B04EB031113
:1022200001F5D7710B79002BF5D001F10800FDF70E
:10223000B3FF814601F10C00FDF7AEFF0990DDF818
:1022400024A0BAF1150FE6D9B5F5813FBED2039BA4
:1022500013F0020E4FEA552244D003F00701022981
:1022600000F04082D80740F13D82002A59D135481C
:102270004FEA1A35012630F8021B09B1A94239D9B3
:1022800040F6F571BAFBF6F58D429BBF05EB4505AF
:10229000013502356D088CBF6D00033505F2FF1561
:1022A0004FF020018CBF4FF002084FF001086D0A7B
:1022B0004FF0010B059139E209AA0121384600F0DF
:1022C0009BFA00289BD1039B13F0080F099B14BFB6
:1022D0004FF000094FF03F094B459CD3A3EB090396
:1022E0000993ACE70399C907BFD46FE7520000E236
:1022F000114605E27600BEE7B8F1020F24D1049B37
:102300004FF6F5718B420ED9002A40F0E78172003A
:10231000402AAAD9BEF1000F40F0E781802A3FF69B
:102320007AAF1646ACE7049B40F6F5718B4213D8A2
:10233000002A7FF470AF7200802A96D96BE700BF45
:1023400000FEFF00A68B0608049A40F6F5739A4239
:102350003FF661AF4FF001084FF4007200212046B4
:102360003CF0D6FFD94B84F80EB01A6822605A6848
:1023700062601A899B7A2281B8F1030F4FF0020242
:10238000A3724FF00003E3722273CBF3072B4FF0DD
:102390000102637418BF0223BAF5803F667384F8A4
:1023A0000FB02274A37480F0228184F813A0CAF3C2
:1023B000072A84F814A0F82363753F2323764FF08F
:1023C000000AFF2384F819A0A37684F81BA04946CD
:1023D00004F11C00FDF7E8FEB8F1030F40F00D8199
:1023E00049F0E8FE014604F14300FDF7DDFE294611
:1023F00004F12400FDF7D8FE022384F82C300123D9
:1024000084F83030062384F83230802384F840305A
:10241000292384F84230AE4B84F82DA084F82EA0F6
:1024200084F82FA084F831A084F833A004F1470287
:1024300003F1100153F8040B42F8040B8B42F9D15D
:1024400019889B7893704FF0550B6FF055031180EE
:10245000384684F8FF3184F8FEB101234A4621460C
:1024600000F0B5F9824600287FF4C9AEB8F1030F39
:102470003FD1012309F106022146384600F0A7F9B1
:102480004FF40072514620463CF042FF5223237025
:1024900063706123A37084F8E731049B41227221A9
:1024A000E27084F8E41184F8E51184F8E621591EFD
:1024B00004F5F470FDF778FE022384F8EC316FF038
:1024C000550384F8FF3109F107020123214684F8FE
:1024D000EDA184F8EEA184F8EFA184F8FEB13846AE
:1024E00000F075F9012309EB03022146384600F09C
:1024F0006EF9149B23F4FF7222F0010200212046A2
:102500003CF006FFB8F1030F40F09480F8232370ED
:10251000FF236370A370E37023716371A371E37190
:1025200023726372A3720F23E372149B4FEA532B3F
:102530005D45AA4628BFDA4621465346019A3846E9
:1025400000F045F9014600287FF459AE4FF40072BF
:1025500020463CF0DDFE019BB5EB0A055344019398
:10256000E6D1059BB8F1030F18BF1E465E45354600
:1025700028BF5D462B46019A2146384600F027F9D0
:1025800000287FF43CAE019B761B2B440193EDD1D8
:10259000B8F1030F58D0099BB3F5803F56D2B8F17C
:1025A000020F0CBF04250125029B002B50D00022F6
:1025B00001232146384600F0FBF8024600287FF44C
:1025C0001EAE029B04EB031383F8B2510123214694
:1025D000384600F0FCF800287FF411AE00221146C6
:1025E000384600F009F9003018BF0120EFE55146E8
:1025F00004F12000FDF7D8FDDDE649F0DBFD0146E2
:1026000004F12700FDF7D0FDC5F30723E375802310
:1026100084F82430292384F826302E4BA57504F144
:102620002B0203F1100153F8040B42F8040B8B4208
:10263000F9D105E7B8F1010F2749204618BF6FF01F
:102640000701FDF7B1FD70E70C25ADE70625ABE707
:10265000039B1B07C2D44FF40072029920463CF042
:1026600057FE552384F8FE31099A84F8C251AA23F3
:1026700084F8FF31029B84F8BE3184F8C1314A44AA
:1026800043F6C163B2FBF3F2FE2384F8C33193082F
:1026900043F03F03012684F8C43184F8C52149463C
:1026A00004F5E37084F8BF6184F8C061FDF77CFD38
:1026B000099904F5E570FDF777FD3346029A86E740
:1026C000032084E50A2082E5112080E5C28B0608FC
:1026D000CE8B0608E28B0608F8FFFF00BEF1000F64
:1026E0003FF499AD002A7FF403AE2F484FEA5A45D4
:1026F000012230F8021B19B1A9427FF6F7AD002183
:10270000BAFBF2F0294E8500A0F57F40F63805F2BD
:102710000725B0424FEA55253FF67DAD16460A46DD
:10272000002105914FF0200B4FF0030809EB0B013E
:1027300001910599DDF820C06818019908440CF151
:10274000FF31B8F1030F0144CCF1000C08BF019B2D
:1027500001EA0C01A1EB000101BF5B188B44194693
:10276000019118BF6D18C9EB061108448245FFF4AA
:1027700052AD059BAAEB0301A1EB0B01B8F1030FCE
:10278000A1EB0501B1FBF6F304937FF4B5AD4FF671
:10279000F5718B423FF6E0AD002A7FF43CAD012E8F
:1027A0007FF639AD72089DE7B48B0608FFFFFE0F78
:1027B00010B50C4611461A4638B1234604303CF099
:1027C00047F8003018BF012010BD0420FCE710B509
:1027D0000C4611461A4650B1234604303CF05CF8D2
:1027E00010F11E0F05D0003018BF012010BD0420CD
:1027F000FCE70220FAE7000070B50D4614460646D5
:10280000002836D001F00703244AD15C002932D0D9
:10281000002204303CF06AF8062D2AD8DFE805F0E3
:1028200008050A17291B1B001D482AF0D5FC20604B
:10283000002070BD1A4B984205D14FF400732380DD
:102840002388B360F4E72AF0C7FC2080F8E701236F
:102850002360EDE71248124B984201D0430806D19D
:10286000336A002B0CBF042300232370E0E701230D
:10287000FBE70420DDE7062DFBD801A353F825F084
:1028800031280008292800083B2800084F280008A4
:10289000732800085528000855280008C4F50508C5
:1028A00070B60508086832F0FBBF000037B51D465A
:1028B000043001AB1446FEF76BFF38B1064B1B5CCE
:1028C0002B604FF0FF34204603B030BD019BA34284
:1028D000F9D01C23F4E700BF04F6050813B51C4625
:1028E000043001ABFEF7C2FE30B1044B1B5C236029
:1028F0004FF0FF3002B010BD0198FBE704F6050869
:102900002DE9F8438146506890460F4630F05CFB55
:10291000254A0138002410F8013FD3B92C201DF0BE
:10292000CFFB0646054646F8047BD8F8000030F099
:102930004BFBE3B20246314609F14400FEF7CCFD01
:10294000074640B328461DF0D5FB184BD85D29F04B
:1029500061FE722B11D008D8612B17D0622B18D0D2
:102960002B2BD8D144F00304D5E7772B08D0782B54
:1029700009D0742B08BF1746CDE744F00104CAE71D
:1029800044F00A04C7E744F00604C4E744F0120424
:10299000C1E7074FBFE7E30603D529693046FFF7D4
:1029A000AAF82846BDE8F88354F6050804F6050899
:1029B00018F6050830B587B0054603AC0846114641
:1029C0001A46064B0093019403232AF0A3F82246EB
:1029D00029460020FFF794FF07B030BDECF505084D
:1029E0001FB5054B0393CDE9011201AA0349FFF777
:1029F00087FF05B05DF804FB70B6050854F60508BE
:102A000070B5054608460C462AF004FB23460246EC
:102A100002492846BDE8704000F080BFE0F5050897
:102A2000022970B5044615461E4613D15368012B82
:102A30000AD0022B0CD01BB91168201DFFF75BF8E0
:102A4000A3692B60002070BD81692B681944F4E7ED
:102A50000169FAE701290AD10430FEF75AFF00287C
:102A6000F0D0084B1B5C33604FF0FF30EBE70429DC
:102A700006D14368002BE5D00430FEF781FFEEE776
:102A80001623F0E704F605082DE9F74F0629019013
:102A90009DF8305012D8012907D93F2300F8013B97
:102AA0000190019A0023137001E00029F9D1012956
:102AB00094BF0020012003B0BDE8F08F10EE104A53
:102AC000002C019C25DAB4EE400AF1EE10FA20D673
:102AD0002D2504F8015BB1EE400A9FEDC27AF0EEBD
:102AE000C07AF4EE477A02F0200EF1EE10FA5FFAA7
:102AF0008EF513DD85F04903237085F04E0385F0D4
:102B000046056370E11CA57000230B70019BC81A79
:102B1000D1E7002DE1D004F8015BDEE7B4EE400A16
:102B2000F1EE10FA08D745F04E0385F04105237009
:102B30006570E11CA370E7E7002B42F02002B8BFEC
:102B40000623672A02D1002B08BF01230198251A0A
:102B500010EE100A491B051E01F1FF3C48D1662A00
:102B600038D15D1C6545A8BFCB1E00275D1C6621C2
:102B7000BC463E4623EAE373652940F029815D1C8B
:102B80004FF000084FF02E0BB2EE047A454540F3AB
:102B90008180FDEEC07A04F1010A17EE900A002848
:102BA000A6BF00F130095FFA89F94FF03009E0451E
:102BB00084F8009004D11BB104F1020A84F801B03A
:102BC000F8EEE77A08F1010830EE670A544620EE85
:102BD000070ADBE75D1D6545A8BFCB1F652A1146C7
:102BE0004FF0000540F0EA802B27AC462E46C1E7A7
:102BF000B5F17E5F80F08E80DFED7B7ADFF8F081CB
:102C0000DFF8F0A1B4EEE70AF1EE10FA4FF000059C
:102C1000ACBF4FF031094FF0300920272E46B8ECF9
:102C2000017AB4EEC07AF1EE10FAC4BF0AEB050BDC
:102C30009BED007A05F10405C4BFF61920EE070AE2
:102C4000182D4FEA6707EAD110EE100AB0F17E5F47
:102C500044D2B4EEE70AF1EE10FA3ADB002E14BFCC
:102C60002D272B27B7EE000A662A03D0672A47D103
:102C7000042E45DC672A04BF06F1FF355B195D1C95
:102C80006545A8BFCB1E84F800904BBB01341D46A0
:102C900066211F46662A40F0AF80AE4240F30681AF
:102CA00097B10A2196FBF1F393FBF1F201FB136656
:102CB00001FB12324EF0450E3032303684F800E01F
:102CC0006770A270E670043400232370019BE01A41
:102CD000F1E6F2EE047A20EE270A01362D27C3E74B
:102CE0002E2161701D4602343021013E68D01DB98D
:102CF0002F464FF0FF3C46E004F8011B013DF4E78E
:102D00008D1F9D4260DC672A5CD0CB1F11460025D9
:102D1000AC462FE70025DFF8DC80DFF8D4902027D1
:102D20002E46F8EC017AF4EEC07AF1EE10FA9CBF70
:102D300009EB050ADAED007A05F104059CBFF619E6
:102D400020EE270A182D4FEA6707EAD1FDEEC07A78
:102D500017EE905A092DC2BFDFED247A013620EE1E
:102D6000270A662A11D1664512DA9919013161459F
:102D700005DBACEB0603023B591C08BF0023F5182A
:102D80000135B44600276621F4E6652A40F09680B6
:102D90008D1F9D4200DCCB1F00252B27AC466521F3
:102DA000E8E61D1D654500DB8B1F9E4203DB6721A6
:102DB00000252B27ACE7711C5B1AE0E72F4614E7D0
:102DC000374696E72B46A1E700251146AC46D3E6E9
:102DD00067297FF4D5AE13B901252B46D0E61D46F1
:102DE000CEE600BFFFFF7F7FF8FF7F3FCDCCCC3D1D
:102DF0000897050820970508F1EE047AB4EEE70A73
:102E0000F1EE10FA2BDB04F1FF3C4FF030099CF897
:102E100000502E2DE0460CF1FF3CF8D0A5F1300A11
:102E2000BAF1090F2CD908F1010898F80050302D9B
:102E300015D198F801C0BCF12E0F30D166292ED0E3
:102E40002D2F88F800C088F8015026D1013E08BF18
:102E50002B272146884524D3312188F80010672A82
:102E60007FF41EAF002B3FF41BAF23461C46013BF3
:102E700014F8012C302AF9D02E2A08BF1C460FE77F
:102E8000392D03D0013588F80050CEE701988CF831
:102E900001904045BBD18046C7E70136D9E70134F0
:102EA000D7E711F8015C01F80159D3E7F1EE047A94
:102EB000B4EEE70AF1EE10FAA5DAF1E6672A3FF47C
:102EC00070AF114674E700BF08B5044631B1054B39
:102ED00003608A6B096800232CF03EF920461DF040
:102EE000BBF800BFC8AA05082DE9FF471F4601929D
:102EF000461812B1023A222A34D80546B5422C4669
:102F000039D215F8010B1EF0A7F980460028F5D13B
:102F100023782B2B29D12C46311B204601AA27F0E0
:102F200092FE2518A9460024B1454B4626D3B8F198
:102F3000000F00D06442640044F00104AB4209D0A9
:102F40001D46B5422B4641D2187801351EF084F952
:102F50000028F6D12049019A20482CF063F8394620
:102F6000FFF7B2FF1E4829F07DF92D2B04BF2C4638
:102F70004FF00108D0E74FF00008CDE719F8012B1A
:102F8000A2F1300ABAF1090F09D95F2ACCD042F078
:102F90002002A2F161011929C9D8A2F1570A0199A9
:102FA0005145C4D9204636F0F7FC28B9019B03FBF4
:102FB00004A494EA4403B7D5019B03954246711BD0
:102FC00003A82DF0B1FA039B0446B7E7C2D120460F
:102FD00004B0BDE8F08700BF75970508B8AB0508D9
:102FE000529705082DE9F04F2DED028B83B09146E5
:102FF00000930E9B019346180446B442254680F088
:10300000318128781EF028F9013407460028F4D1D0
:103010002B782B2B09D125468246B4420CD30023B2
:10302000DFED938A1F46194682E02D2B03D12546FA
:103030004FF0010AF1E782462B7843F02003692B19
:1030400032D1AB1C9E4240F205816B7843F02003E5
:103050006E2B40F0FF80AB7843F02003662B40F0EE
:10306000F980EB1D9E4205F103041AD9EB7843F079
:103070002003692B15D12B7943F020036E2B10D13F
:103080006B7943F02003692B0BD1AB7943F020031C
:10309000742B06D1EB7943F02003792B01D105F194
:1030A00008049FED748A14E06E2B59D1AB1C9E422C
:1030B00040F2D0806B7843F02003612B40F0CA804F
:1030C000AB7843F020036E2B40F0C4809FED6A8AFA
:1030D000EC1CBAF1000F01D0B1EE488AA54209D02C
:1030E000B442234680F09880187801341EF0B4F87A
:1030F0000028F5D1614962482BF066FF0199FFF77E
:10310000E3FE02202246144614F801EBAEF1300B28
:10311000BBF1090F47D8022831D15A4A914201DC4C
:1031200008FB01B1B442EDD3BCF1000F00D049421D
:103130000B4413F1250FBEBFDFED537A253368EE44
:10314000A78A13F1090F5CD35B4200EE903AB2EE0E
:10315000040AF8EEE00A3DF087F888EE808AB8E7C6
:103160004FF0000C2A46634661466046DFED408A18
:103170009FED467AF2EE046A4FF00A08C3E7F4EED8
:10318000C78AF1EE10FA0BD507EE90BAF8EEE77A9F
:103190000128E8EEA67AF0EE678A2ED1013BC1E75E
:1031A00028B90133BEE720B9BEF12E0F03D10120AB
:1031B000B8E7022814D04EF0200BBBF1650F0FD1F9
:1031C000A64252D950782B2804D1941CB44291D0F5
:1031D0000220A7E72D2894D1941C4FF0010CF5E7AD
:1031E000B9F1000F04D04EF0200BBBF16A0F06D0EE
:1031F000BEF15F0F96D0144696E7002092E74F4647
:1032000092E707EE903AB2EE040AF8EEE70A3DF0D4
:103210002BF828EE808A5CE77FF46CAF57B19FED06
:10322000140AF0EE480A03B0BDEC028BBDE8F04F83
:103230002AF096BF009B23B1DFED0D0AB0EE480ADD
:10324000F1E7B0EE480A03B0BDEC028BBDE8F04FE9
:103250002CF0A2B8BAF1000F3FF44CAF2C469FED12
:10326000048A39E74FF0000AD9E63FF443AF5BE741
:10327000000000000000807F0000C07F3897050834
:10328000B8AB050864666606EA1C0802EC78AD6017
:103290000846114641F094BE70B5054608460E46F4
:1032A0003CF07EF8044620B102466B68286831463F
:1032B0009847204670BD00002DE9F74F01919DF819
:1032C000301091460D9A11F0DF0F0646A2EB09026D
:1032D0003DD030290CA9244F0EBF4FF010080F46E7
:1032E0004FF0010813F0800435D002EBD274641063
:1032F000151B002C36DDA246D045C346A8BFD346D9
:10330000736830685A463946AAEB0B0A9847BAF1F7
:10331000000FF1DCB9F1000F05D073680199306836
:103320004A4698474C44002D0DDD2C44A845C14623
:10333000A8BFA946736830684A463946A5EB090517
:103340009847002DF2DC204603B0BDE8F08F074F10
:103350004FF01008C6E713F0010501D11446C8E785
:103360001546D7E70024D5E7188405080784050823
:103370002DE9F04389B007460020119D9DF8488053
:10338000139E8DF80F0002B3814219DA2D228DF8B9
:103390000F204942109A08ACA2F10A000DF1100E5C
:1033A000B1FBF3FC03FB1C12092A8CBF121830324C
:1033B00004F8012D74450FD08B420DD86146EFE71C
:1033C000A80727D52B228DF80F200029E2D1302322
:1033D0008DF81F300DF11F0415F040099DF80F30D6
:1033E0001CD023B30122CDE900822B460DF10F0141
:1033F0003846FFF761FF013E814608AACDE9008605
:103400002B46121B21463846FFF756FF484409B0A9
:10341000BDE8F0836A07D8D52022D4E7002BECD092
:1034200004AA9442E9D904F8013C013CE5E7994635
:10343000E3E700002DE9F04F93B080461E46C80731
:103440009DF874301C9D06930C469146DDE91E7A6A
:103450000BD4A10703D12268794B9A4205D02046AC
:1034600029F0BAFE400040F0010415F0810306D1B6
:10347000069A302A03D15745B8BF57469A46204688
:103480002CF061FF00280DF1280B18DBAA0712D5DC
:103490002B238DF828300DF12903E806F6B21DD54F
:1034A000B9F1020F0DD11A46302102F8021B711C2E
:1034B0005970134612E06B0701D52023E9E75B46FC
:1034C000EBE7B9F1080F60D1A9054FF030021A708F
:1034D00045BF06F10E025A7001330233002215F087
:1034E000200F1A70A3EB0B0305930EA90CBF134614
:1034F0002C23BAF1010F0B91C8BF45F040051021F4
:10350000CDE90C1215F040018DF827200791CDE987
:10351000026344D0CDE9009223460DAA0CA90BA862
:103520002CF0E0FD03782D2B814606D18DF8273055
:103530000D9B013B00F101090D93BAF1010F3CDD38
:103540000D9C079B5445B8BF54462BB19DF82730BE
:1035500003B10134059B1C44A7422BDD15F0010388
:10356000A7EB040427D126461C4625F001054EB1E1
:1035700020230093002301961A4632494046FFF764
:103580009BFE06463023069319E0B9F1100FA5D132
:103590001A46302102F8021B06F1170188E70AAB30
:1035A000CDE900930DAA23460CA90BA82CF09AFD97
:1035B0008146C2E700240026D7E700242646079B61
:1035C000DBB19DF8273053B100230122CDE9003251
:1035D0000DF127014046FFF76FFE013F0644059BB2
:1035E0005BB100230122CDE900325946059A4046DD
:1035F000FFF762FE059B0644FF1A069B0093BAF193
:10360000010FC8BF574601972B460D9A49464046C1
:10361000FFF752FE06444CB120230093002301948F
:103620001A4608494046FFF747FE06440B980EAB82
:10363000984201D01CF05EFD304613B0BDE8F08F1B
:1036400058B10508372E06082DE9F04316468BB011
:10365000B20780469946129F3CD416F0040F0CBF67
:103660000023202300930A46139B202102A8FFF782
:103670000BFAF30504460DD5431C1F2B0AD80AAAE2
:103680001444252204F8202C0AAA1A44002102F826
:10369000201C1C4616F040051ED09DF808302F2B2C
:1036A0004FF000031AD8012202A9CDE900324046AA
:1036B000FFF702FE013F0546013C0DF10901CDE98E
:1036C0000097334622464046FFF7F6FD28440BB0EC
:1036D000BDE8F0832B23C5E702A9F0E702A91D4648
:1036E000EDE700002DE9F04F824689B01446002630
:1036F0000B461D4613F8012B0AB1252AF9D1A94220
:1037000008D26F1ADAF80430DAF800003A4698471F
:103710003E4429460B78002B00F0F880013120232D
:103720004FF000090A4612F8015B0DB90A271DE0A7
:103730002D2D03D149F001091146F3E72B2D02D1BC
:1037400049F00209F8E7202D02D149F00409F3E716
:10375000212D02D149F00809EEE7302D22D149F0A0
:1037600040092B46E8E707FB0525303D884611F860
:10377000012BA2F130000928F5D92E2A39D198F869
:1037800001202A2A10D04FF0000B0A27884611F892
:10379000012BA2F1300009280CD807FB0B2BABF151
:1037A000300BF3E70025C1E754F8042B08F10208B9
:1037B00022EAE27B98F800206C2A08BF08F1010891
:1037C00098F80070002F00F0A180642F7DD028D8D9
:1037D000502F2DD010D8A7F14502022A40F2838045
:1037E000DAF80430DAF80000012241469847013641
:1037F00049E04FF0FF3BDDE7622F38D049D8582F22
:10380000EED17A1C27F00F070F3F02F00602FFB23D
:10381000CDE90235CDF804900097C2F110030022E3
:103820005BE0712F3FD00BD8672F5CD9702FD7D1B9
:10383000CDE9023561230093CDF804901023EEE723
:10384000752FDED0782FDCD0732FC9D1BBF1FF3FAD
:1038500054F8047B05D1384605933BF0A1FD059B48
:103860008346CDE900355A464B46394607E054F8C1
:10387000042BCDE900354B4642B12649042250467F
:10388000FFF71AFD064408F1010131E7052222493C
:10389000F5E754F8042B8DF81C20CDE90035012202
:1038A0004B4607A9EBE707A954F8040B05931DF055
:1038B000E6FABBF1FF3F059B08BFDDF81CB0CDE980
:1038C000003501464B465A46D9E7CDE9023561231A
:1038D0000093CDF804900A23012254F8041B5046AB
:1038E000FFF746FDCEE7073424F00704F4E80201B1
:1038F000059350F041F8CDE9005B00EE100A059BFE
:103900004A4639465046FFF79FFEBBE7304609B0AE
:10391000BDE8F08FFC830508018405080EB403B5EB
:1039200003AA52F8041B0192FFF7DCFE02B05DF817
:0839300004EB03B07047000036
:020000040802F0
:10000000034B1B685B681A69026018610020704727
:10001000C0330020034B1B685B681A6912681A61C1
:10002000704700BFC0330020C4600561466187612E
:10003000C0F81C80C0F82090C0F824A0C0F828B0F8
:10004000C0F82CD080ED0C8B80ED0E9B80ED10ABBA
:10005000C0F808E0FFF7D4BF08B5114B1B685A6819
:1000600013690BB923F038FE1968586011611846FE
:10007000C468056946698769D0F81C80D0F820906B
:10008000D0F824A0D0F828B0D0F82CD090ED0C8B6C
:1000900090ED0E9B90ED10ABD0F808E0012070477A
:1000A000C033002010B50021044600F009FB18B948
:1000B00014B120460CF0C0F810BD002100F000BBC8
:1000C00010B50121044600F0FBFA18B914B120461E
:1000D0000CF0B2F810BDFFF7E5BF10B501220C46D9
:1000E00000F032FC18B914B120460CF0A5F810BD90
:1000F00000F02ABC00F0BABB2DE9F0432A4C0025E1
:100100004FF00309D4F8F4710021013143189A0823
:1001100003F00303BA5C5B0042FA03F303F003034A
:10012000022BF2D0D4F8003209018A0803EB001048
:1001300081B300EB820103681A0728D1D4F80022AA
:100140009A4224D89A1AD4F804624FEA921C1209EF
:1001500002F003079E424FEA470718D9D4F8F4E1AA
:100160001EF80C8048FA07F303F00303012B0ED1AD
:1001700009FA07F747EA080704EB45083F2D0EF890
:100180000C709ABF0135A8F80C22C4F8083204306C
:100190008842D0D12DB1013D04EB4503B3F80C02E8
:1001A000B0E7BDE8F08300BF182D0020F0B4194E71
:1001B000D6E97F53C01AC10904096B5C04F0070734
:1001C0000122BA4023EA02036B54D6F89832D6F8DB
:1001D000F4518009984238BFC6F89802295C04F0AF
:1001E0000303A00803275B0007FA03F321EA0303D4
:1001F0002B540134D6F8F451A00804F00303295C11
:100200005A0041FA02F202F00302022AEBD0F0BCDB
:10021000704700BF182D002021F00F0370B5164A5B
:10022000164D1C1AE400A2FB0424640A0219A3EB75
:100230008416C5F8FC2100212246C5E98063C5E982
:100240007D041FF065F8A2000732D208D5F8FC0142
:1002500000211FF05DF800234FF480314FF0FF3292
:1002600005F52770C5F88C12C5E9A432C5F8983297
:10027000BDE8704025F04EBCF32C23FA182D002069
:10028000034AB2F88C320133A2F88C32704700BFB7
:10029000182D0020034AB2F88C32013BA2F88C32B0
:1002A000704700BF182D0020034BB3F88C020030BC
:1002B00018BF0120704700BF182D0020F8B51C4C56
:1002C000B4F88C3200220133A4F88C32C4F89022A6
:1002D000C4F80822251D04F5E676032755F8042FF7
:1002E000130719D1D4F80002824215D3101AD4F89A
:1002F00004124FEA901C000900F003038A424FEAFF
:10030000430309D2D4F8F41111F80CE04EFA03F2C9
:1003100002F00302012A02D0AE42DFD1F8BD07FA93
:1003200003F343EA0E0301F80C30FFF7E5FEF3E7B1
:10033000182D002079B3F8B5041F174E04EB810582
:10034000032754F8043F1A0719D1D6F8000298423F
:1003500015D8181AD6F804124FEA901C000900F0BC
:10036000030299424FEA420209D9D6F8F41111F872
:100370000CE04EFA02F303F00303012B02D0A54276
:10038000DFD1F8BD07FA02F242EA0E0201F80C20B2
:10039000FFF7B2FEF3E77047182D00202DE9F04F6C
:1003A000824CD4F8F831D4F8082285B09B00002A9A
:1003B00000F0868000264FF0030BC4F80862002B83
:1003C00068D0002002E00130984274D2D4F8F47171
:1003D000810800F00302795C520041FA02F202F057
:1003E0000302032AEFD1844600230022013202EBEC
:1003F0000C014FEA910E01F0030117F80EE04900DD
:100400004EFA01F101F003010229EFD0D4F80012F5
:1004100012014FEA920E01EB0C1C92B30CEB8E0E04
:10042000DCF800703A0728D1D4F80022974224D390
:10043000BA1AD4F804524FEA9218120902F00301D2
:10044000AF424FEA410118D2D4F8F49119F808A04C
:100450004AFA01F707F00307012F0ED10BFA01F159
:1004600041EA0A0104EB430A3F2B09F808109ABF3E
:100470000133AAF80C22C4F808720CF1040CF445FC
:10048000CED193B1013B04EB4302D4F8F471B2F83E
:100490000CC2AAE7B4F88C320022013BA4F88C32DB
:1004A000C4F8982205B0BDE8F08FD4F8F8310130D7
:1004B0009B0098428AD3D4F80822002A7FF47DAFAB
:1004C000002BE7D04FF0000E76464FF003094FF0B7
:1004D0000108022704E0012930D001369E42D9D21A
:1004E0004FEA960AD4F8F40106F0030510F80A2042
:1004F0006D0042FA05F101F00301022900EB0A0C3C
:100500000DD00329E7D107FA05F522EA050500F821
:100510000A50D4F8F8314FF0000E9B00DDE7BEF131
:10052000000FDAD009FA05F522EA05058CF800502B
:10053000D4F8F8314FF0010E9B00CEE7F308D4F861
:10054000FC11019311F803E006F0070B4EFA0BF0D3
:100550001944C307E6D53001D4F8002252F800C090
:100560001044BCF1000F14D002AAB1210BF086F99F
:10057000DDE9013242B10CF085F8DDE902010CF051
:1005800067F80CF095F8019BD4F8FC1111F803E022
:10059000194408FA0BFB2EEA0B0E81F800E0D4F8A0
:1005A000F43103EB0A0C13F80A20BBE7182D0020E6
:1005B000054BB3F88C2200210132A3F88C22C3F83A
:1005C0000812FFF7EBBE00BF182D00203B4BD3E90C
:1005D00080122DE9F047D3E97D760023C0E901338D
:1005E000C0E90333C0E90533521A02601D46B60064
:1005F0009E469C461C461A4699461946984617F848
:10060000093049000B4103F00303012B47D0002BB5
:100610003DD0022B02D101354560013401329642B2
:100620000ED04FEA920902F0030117F809304FEAA1
:10063000410A43FA0AF313F0030301D0012BDED180
:10064000012C11D0022C02D1416901314161816933
:10065000A14238BF846196420FD0012B23D04FEACC
:10066000920902F00301CAE7016901310161816960
:10067000A14238BF84619642EFD1C44516D9964253
:10068000C0F80CC012D0E0464FF0000CE7E70EF1C6
:10069000010EC0F808E00CF1010C1C46BEE7013564
:1006A00045601C46BAE7E045EED2E8E72D014FEA87
:1006B0000E13C0E90153BDE8F08700BF182D0020DC
:1006C0000F302DE9F047060951D0674DB5F88C324F
:1006D000002B4CD1B5F88E32002B0C460CBF4FF0DE
:1006E000010E4FF0000E47D1D5F89802D5F8F871F9
:1006F000874239D9D5F8F4C1411E614400221AE07D
:100700000132964253D913F00C0F1ED1013296429A
:1007100040F2A08013F0300F1CD10132964240F21B
:100720009C8013F0C00F1AD10132964240F298809B
:100730000130B84218D211F8013F13F0030FDFD097
:1007400013F00C0F4FF00002E0D013F0300F4FF019
:100750000002E2D013F0C00F4FF00002E4D00130ED
:10076000B8424FF00002E6D3BEF1000F14D04FF0B4
:1007700000084046BDE8F087D5E9A4239A42B3D3E8
:1007800029F0F6F8D5F89802D5F8F871874288BFB5
:100790004FF0010EAED8EAE729F0EAF8D5F8980252
:1007A000D5F8F87187424FF0010EA3D8DFE780003B
:1007B000811A012A01F1010703D1431C9B08C5F8E6
:1007C00098324FEA970E07F003034FEA43081CF8EC
:1007D0000E90012303FA08F3023143EA0903884229
:1007E0000CF80E3013D34FF002084FEA910CD5F8F5
:1007F000F4E101F003031EF80C905B0008FA03F328
:10080000013143EA090388420EF80C30EDD2D5F8E5
:1008100000A2D5F890324FEA07190AEB09081E44E6
:10082000120140460021C5F890621EF071FDE307F9
:100830009FD50023D5F8FC114AF80930FA080123A6
:10084000885C07F0070703FA07F707438F54404611
:10085000BDE8F08780000130AAE780000230A7E7FA
:1008600080000330A4E700BF182D0020F0B41B4E19
:10087000B6F88C327BBB70B3D6E97F53C01AC1097E
:1008800004096B5C04F007070122BA4023EA020363
:100890006B54D6F8982283099342D6F8F40138BFF6
:1008A000C6F89832C15CA50804F0030303275B0077
:1008B00007FA03F321EA030343550134D6F8F401A0
:1008C000A50804F00303415D5A0041FA02F202F068
:1008D0000302022AEBD0F0BC704700BF182D0020A5
:1008E00010F00F030DD11749D1F80022824208D829
:1008F00010B4D1F80442844205D818465DF8044B80
:10090000704700207047801AD1F8F441810902092C
:10091000615C02F003004000014101F00301012984
:100920001846EBD101301318990803F00303615CFA
:100930005B0041FA03F303F00303022BF2D0000142
:10094000DCE700BF182D00202DE9F84F0B460746C5
:10095000002800F0A680574DB5F88C42002971D0D0
:10096000002C71D1D5F80002D5F8F831381A4FEAC9
:10097000101C0CF1010E4FEA830901F10F06F1453D
:100980004FEA161640F29380D5F8F4A14FF0010813
:100990004FEA9E0B0EF003031AF80BB05B004BFA04
:1009A00003F303F00303022B52D023B9013408EB05
:1009B0000403B3424ED3464540D021D34444B4420D
:1009C0004DD2002A40D0C009D5F8FC311B5C0CF098
:1009D000070C43FA0CFC08460CF00101FFF770FE0F
:1009E000044688B34FEA081239461EF04DFCB5F8AC
:1009F0008C3223BB3846FFF7D9FB2046BDE8F88F81
:100A000066443046C4444FF003094FEA900ED5F8CF
:100A1000F41100F0030311F80E405B0009FA03F330
:100A2000013024EA0303604501F80E30EDD1D5F81A
:100A30009832B6089E4238BFC5F898623C462046B8
:100A4000BDE8F88F002CD6D000242046BDE8F88FF2
:100A500008F101080EF1010EF14599D1ABE70CEB5D
:100A60000802B444944510D902219008D5F8F44105
:100A700002F0030314F800E05B0001FA03F3013213
:100A800043EA0E0394452354EFD1A6EB080212016A
:100A900007EB081000213C461EF03AFC2046BDE85A
:100AA000F88F01461846BDE8F84FFFF709BE4FF032
:100AB000010880E7182D002010B58AB003A80B4C60
:100AC000FFF784FD059B00932046DDE903230849D9
:100AD000E2F724FF069A099B019200932046DDE984
:100AE00007230449E2F71AFF0AB010BDF483050892
:100AF000643D0508883D05082DE9F047DFF864A14D
:100B00004949DAF800224948E2F708FFDAF8F81113
:100B1000890074D0DFF85091DFF85081434F0025F1
:100B20000CE0012E46D02E2241493846E2F7F6FE6F
:100B3000DAF8F81101358900A94260D905F00306F9
:100B4000AA064FEA4606DAF8F4010BD0AB08C35CFC
:100B500043FA06F606F00306022E29D0032EE0D152
:100B60006D22E1E72C46A20804F00303825C5B00DF
:100B700042FA03F39B0702D101348C42F3D3621B88
:100B80007F2A0CD992092B493846E2F7C7FEDAF8DA
:100B9000F83124F03F05B5EB830F30D2002609EA87
:100BA000051241463846E2F7B9FEDAF8F401CDE71E
:100BB0003D22B9E7DAF800121F4B2A018A589A42FF
:100BC00023D01E4B9A4222D01D4B9A4225D01D4B5A
:100BD0009A421ED01C4B9A421BD01C4B9A421AD0F0
:100BE0001B4B9A4217D01B4B9A4218D01A4B9A4271
:100BF00017D01A4B9A420CBF4D22682294E718492D
:100C00000A48BDE8F047E2F747BB54228CE74C2284
:100C10008AE7532288E7412286E7442284E7462276
:100C200082E7422280E700BF1C3D0508F4830508E7
:100C3000603D05083C3D05084CC40508F0B20508B8
:100C4000E4A405087CC10508A0BE050850A005085D
:100C500014A00508B8AC050848AD05089CB4050803
:100C6000383D0508182D0020F0FF0F00583D0508FD
:100C7000054B5B695A68824204D8801A043053F8E5
:100C8000200070471B68F5E7182D0020014441F251
:100C90000553884204D398B2002808BF012070474A
:100CA00010F8012B03EB43135340F2E70448054BC4
:100CB00043610023C0F8D03100F5EE7024F02ABF64
:100CC000182D0020701D06082DE9F84F8246894630
:100CD000FFF7DCFF134B5C6983460CB920461EE02E
:100CE000E66804F1100808EB86064546B5422F4633
:100CF00001D32468F1E755F8040B03885B45F5D16F
:100D000083784B45F2D14A46514603301EF026FB0C
:100D10000028EBD16068A7EB080700EBA700BDE84F
:100D2000F88F00BF182D00202DE9F04780460E46B1
:100D3000FFF7CAFF0246002877D1FF2E03D94049AA
:100D400040480BF06FFA404CD4F8D001351D90B1FB
:100D5000D4E975132B448B422BD92944FFF7C8F9EA
:100D60000746E8B90246D4F8D811D4F8D001FFF705
:100D7000BFF9C4F8D071802D2F4638BF8027384680
:100D8000FFF79BF9C4F8D001002852D12846FFF79D
:100D900094F9C4F8D00100284AD128460BF04CFA47
:100DA000D4F8D4312B44C4F8D431D4F8D031002B4A
:100DB000E1D0D4F8D891D4F8D0A131464D44404682
:100DC000C4F8D851FFF762FF0AEB09070AF80900D7
:100DD000000A7870BE7032464146F81C1EF054FA84
:100DE000BB190026DE706369D3E90253AB4212D30C
:100DF0006D000A2D38BF0A25281D8000FFF75DF918
:100E00000028CAD0626902605368D268C660134481
:100E1000C0E9013560616369D9685A68481C0431CA
:100E2000D860013A43F8217002441046BDE8F087CB
:100E30002F460023C4F8D471C4F8D831B9E700BFF5
:100E40009751050814AA0508182D002010B504466E
:100E50001EF0A6FA01462046BDE81040FFF764BF29
:100E600008B5FFF705FF008808BD08B5FFF700FFCC
:100E7000807808BD08B5FFF7FBFE033008BD08B554
:100E8000FFF7F6FE83780B60033008BD2DE9F843C9
:100E90001D46002303600B6013602B60174BDFF8C7
:100EA00060905C690746884616460CB14C4505D1F2
:100EB0002B68326813442B60BDE8F8833B6801332C
:100EC0003B60E268D8F800301344C8F80030E268AC
:100ED00004F1100303EB8202934207D32046FFF78D
:100EE000FFFC2B68246818442860DEE753F8041BD5
:100EF00088783168043101443160EDE7182D002015
:100F0000701D06082DE9F8430E4B0F4F5C69DFF8A2
:100F10003C80DFF83C900CB1BC4201D1BDE8F883C5
:100F2000E36804F1100505EB8306B54201D324689C
:100F3000F1E755F8042B414603324846E2F7EEFC50
:100F4000F3E700BF182D0020701D0608905105081A
:100F5000F483050838B5446803680C449C42054690
:100F600010D9037BDB0703D5002107480BF05AF9A2
:100F7000103424F00704083421468068FFF7ADF8E8
:100F80002C60A86038BD00BF14AA050870B50446DF
:100F90000E4611461546FFF7DDFFD4E901302A461B
:100FA000314618441EF09CF962682A44626070BDA4
:100FB00070B5466804468E42354628BF0D4601216D
:100FC000FFF7C8FFA368681C5919721B18441EF06C
:100FD00087F96368A06801336360284470BD38B541
:100FE0000446081E08BF0120002520606560FFF749
:100FF00059F8237BA06065F30003237338BD38B52F
:1010000005460C460131FFF7EAFF6C6038BD00234E
:10101000C0E90132037B016043F0010303737047B1
:1010200038B514460546FFF7DAFF024B25606360CA
:1010300038BD00BF8D0F0208037BDB0710B50446E7
:1010400002D48068FFF756F80023A36010BD38B5BE
:1010500005461020FFF726F829460446FFF7BFFF94
:10106000204638BD10B5044650B1037BDB0702D4DF
:101070008068FFF73FF82046BDE81040FFF73AB818
:1010800010BD000038B5037BDB0704460D4603D5D1
:10109000002107480BF0C6F8016880682944FFF773
:1010A0001CF82368A0601D442560184438BD00BFAB
:1010B00014AA050838B504460D46FFF74BFFD4E9DE
:1010C00001301D446560184438BDD0E900239A42C0
:1010D00010B5044602D10121FFF7D4FFD4E9013253
:1010E0000021D154A06810BD10B50C460121FFF7B6
:1010F000E1FF047010BD7F29F8B50C46CEB204D8CC
:101100000121FFF7D7FF0670F8BD06F03F06B1F5E5
:10111000006FC1F3871546F0800607D20221FFF762
:10112000C9FF65F03F0505704670EDE705F03F0526
:10113000B1F5803FC1F3073745F0800508D20321A0
:10114000FFF7B8FF67F01F03037045708670DBE799
:101150000421FFF7AFFFA40C07F03F0364F00F0476
:1011600063F07F03047043708570C670CCE738B5B8
:10117000054608460C461EF013F92146024628464D
:10118000BDE83840FFF702BF10B51446FFF710FF67
:10119000047010BD10B51446FFF70AFF047010BDAF
:1011A00043688B422CBF5B1A00234360704738B5FD
:1011B000154642688A4204460B4603D929448A42AE
:1011C00001D8436038BD8068521A014418441EF0AB
:1011D00087F86268521B6260F4E703781A060AD542
:1011E00003F07F034022134207D110F8012F02F0D1
:1011F000C001802905D01846704723EA020352082F
:10120000F1E702F03F0242EA8313EEE7421C104688
:101210000132037803F0C003802BF8D0704700231D
:10122000814201D81846704711F8012D02F0C00222
:10123000802A18BF0133F3E7014403460020994296
:101240001A4600D87047127802F0C002802A03F1D3
:10125000010318BF0130F2E77F289DBF024B185CE5
:10126000C0F3400000207047298405087F289DBFF7
:10127000024B185CC0F3C0000020704729840508A9
:101280007F289DBF024B185CC0F380000020704790
:10129000298405087F289DBF024B185CC0F380108D
:1012A00000207047298405087F2809D8064B1B5C5D
:1012B00013F00C0F06D1A0F15F035842584170475C
:1012C0000020704701207047298405087F289DBFB2
:1012D000024B185CC0F300100020704729840508F9
:1012E0007F289DBF024B185CC0F340100020704760
:1012F0002984050808B50246FFF7E8FF00B120324F
:10130000104608BD08B50246FFF7EAFF00B1203AD3
:10131000104608BD3038092884BF20F02000073867
:10132000704710B501440246E5240020914203D8DD
:10133000B0FA80F0400917E012F8013B30B103F039
:10134000C003802B11D10138C0B2EFE7BF2B09D900
:10135000F72B09D8DB0803F0060344FA03F303F084
:101360000300E3E71B06E1D510BD0020FCE70239CE
:1013700081420B4603D31A880239002AF8D002337F
:101380001B1A5810704770B51C09944215D2121BD5
:1013900001EB4401154603F00F030E46012D31F811
:1013A000024B18BF3468DC40A4B2013D20F8024B68
:1013B000F3D104B9013A104670BD0022FBE7F0B545
:1013C000059D0024521B2746A5420FD16D004419EC
:1013D00000230D449A4214D104EB42031FB10121B2
:1013E00024F812100233181A4010F0BD31F81460BE
:1013F00033F814C066443E4420F81460370C0134BE
:10140000E2E735F813603E4424F81360370C0133EB
:10141000E0E7F0B4049E0025921B2C46AE420AD1B0
:101420007600851900230E449A420FD105EB420144
:10143000F0BCFFF79CBF31F815703C4433F81570D1
:10144000E41B20F8154024140135E7E736F81310A3
:101450000C4425F8134024140133E5E72DE9F0434B
:10146000079CDDF828E0DDE9087602391546844658
:101470004FF6FF78A4EB020955B900EB42011FB10A
:10148000012320F812300231BDE8F043FFF76FBFAF
:1014900031F8024F013D4444264405EB0904AC42B7
:1014A00096BF33F8024B4FF6FF744444744486EA07
:1014B000040E17FA8EF72CF8027B4FEA144E360C06
:1014C0003F0CD9E738B502290446806838BF0221AD
:1014D0000D4618B12368B1EB930F07D96900FEF7E9
:1014E000FCFD2368A06065F39F03236038BD38B519
:1014F00005460C20FEF7D6FD2A78037862F3000338
:101500006FF341030446037028682368C0F39D000D
:1015100060F39F0323606B6863604000FEF7C2FDC9
:10152000A0602A68A968C2F39D0252001DF0ACFEBB
:10153000204638BD10B54B0018441A4409B9084676
:1015400010BD30F8023D32F8024D1B1B002B02DBB0
:1015500004D10139F2E74FF0FF30F1E70120EFE766
:1015600010B5044638B18068FEF7C4FD2046BDE8DA
:101570001040FEF7BFBD10BD38B505460C46022130
:10158000FFF7A0FF002C2B78B4BF0122002262F3EA
:1015900000032B704FF00003B8BF64426B6004B9C6
:1015A00038BDD5E90132581C686022F81340240C7C
:1015B000F5E70023C0E900338360704728B1037862
:1015C0009B0702D48068FEF795BD704738B5054685
:1015D0000C464968FFF776FF22782B78A86862F3FB
:1015E00000032B7063686B606268A1685200BDE8FD
:1015F00038401DF049BE034609B959607047FFF7EE
:10160000BBBF08B5FFF7D5FFBDE80840FFF7F3BF44
:1016100030B4046862F39F04046004F0FC0444F0F6
:10162000020400220470C0E9012130BC1946FFF712
:10163000E2BFF8B59DF818700421064614461D4611
:10164000FFF740FF8FB1002C75F100030DDA624205
:1016500065EB45030120317860F300013170002112
:10166000716052EA030104D1F8BD22462B460020E6
:10167000F1E7D6E901104C1C746020F81120110C20
:1016800041EA0341180C0A460346EAE72DE9F04116
:1016900010EE106A0378F20F62F300030370C6F3D2
:1016A0000F4313F4FF43074603D100237B60BDE8DB
:1016B000F081B3F5FF4FF8D0C6F3C753A3F17F0411
:1016C000002CF2DB04D10121BDE8F041FFF754BF4B
:1016D000B3F16F0848BFA3F16008C6F31606162CD5
:1016E0004FEA281846F4000621DCC4F11704E6404E
:1016F0000024254641463846FFF7E4FEC7F804803B
:1017000025B16A000021B8681DF002FE44B1BB6833
:1017100006FA04F223F81520C4F11004E64001355E
:10172000A845C4D0BB6823F81560360CF7E7B3F1C1
:10173000960504F1090448BFA3F1870504F00F04DE
:101740002D11D7E72DE9F84304468F18C2F35B0249
:101750000D46511C9846089EFFF7B4FE22780023E0
:1017600068F300022270636029461FFA86FCB942C2
:10177000084602D3401BBDE8F8830278A2F130038B
:10178000092B01F1010105D9A2F14103192B14D84C
:10179000A2F13703B342EDD2D4E901E0F04681462D
:1017A000B8F1000F10D100EB4E0213B120F81E303B
:1017B0000232121A52106260D9E7A2F16103192BAA
:1017C000D8D8A2F15703E5E7B9F8002002FB0C33A3
:1017D00029F8023B08F1FF381B0CE1E7F8B5044695
:1017E00015461E46C1B1531E1E444FF0FF37E90097
:1017F0000F3109092046FFF765FE237800216FF3BA
:101800000003237061604DB9D4E9011000EB410180
:10181000FFF7ADFD6060F8BD0127E8E700230F2961
:1018200008DC32788A401343013D9BB201F1080184
:101830003E44F4D16268501C6060A068103920F802
:101840001230E0E70A46416838B5044609B95068E5
:1018500090B11378257803F0010305F00100181A00
:101860000AD15368994208D30AD89268A068FFF752
:1018700061FEEB0748BF404238BD4FF0FF30F8E74C
:101880000120F6E7884210B5044601D0FFF79EFE1E
:1018900023786FF30003237010BD884210B504460F
:1018A00001D0FFF793FE2378C3F30002C2F10102D7
:1018B00062F30003237010BD88421FB5044601D0B7
:1018C000FFF784FE626862B901212046FFF7FAFD46
:1018D000A268012313806360237843F0010323701F
:1018E00010E02378D9070FD56FF30003A1682370A8
:1018F0000123ADF80E30009308460DF10E03FFF7FB
:1019000088FD606004B010BD511C2046FFF7DAFD71
:10191000D4E901210123ADF80E30009308460DF102
:101920000E03FFF74CFD6060D6E72DE9F0470E4649
:1019300049680546174601B12AB931462846BDE82F
:10194000F047FFF743BE02F10F0424092144FFF7DB
:10195000B9FD7068A968B36817F00F0E04EB0007B3
:1019600007F1004808F1FF384FEA480801EB080C7E
:1019700008BF4FF0100E03EB40090146E24600227B
:10198000CEF1100E11BB6FF0010358430CEB0009B0
:1019900022FA0EF22CF8002003FB049304F100421B
:1019A0000233013A184652001DF0B2FC08F1020859
:1019B0000346434417B133F8022D8AB16F60327881
:1019C0002B7862F300032B70BDE8F08739F8023DF5
:1019D0001A4322FA0EF32AF8023912040139D1E728
:1019E000013FE7E7F0B50E46496885B00546144665
:1019F00001B12AB931462846FFF7E8FD05B0F0BD30
:101A0000FFF760FDD6E901212346A868FFF7BBFC7C
:101A1000686031782B7861F300032B70DB07024696
:101A2000ECD500237768ADF80E3021099F4201D034
:101A30008B420FD18F42E1D9B36804F00F0433F821
:101A40001110012303FA04F4013C214213D0ADF834
:101A50000E3008E0B06830F8130050B101238F4217
:101A6000ADF80E30E8D8A96801234AB90B806B6045
:101A7000C4E70133DAE7BDF80E30002BBED0F2E741
:101A8000009308460DF10E03FFF799FC6860B5E777
:101A900073B553680C46496899420646154606D305
:101AA00008D89268A068FFF745FD002802DA2346AF
:101AB0002C461D4623782A7861685340DB0713D4EF
:101AC00001313046FFF7FEFC6B680093AB68B068ED
:101AD000D4E90121FFF773FC70602278337862F358
:101AE0000003337002B070BD3046FFF7EBFC6B684B
:101AF0000093AB68B068D4E90121FFF78AFCEBE7FB
:101B0000F7B553680C46496899420646154606D310
:101B100028D89268A068FFF70DFD002822DA234636
:101B200001272C461D4623782A7861685340DB073D
:101B30001AD501313046FFF7C5FC6B680093AB68DE
:101B4000B068D4E90121FFF73AFC7060237803F014
:101B500001030FB183F00103327863F300023270A6
:101B600003B0F0BD0027DEE73046FFF7ABFC6B6843
:101B70000093AB68B068D4E90121FFF74AFCE4E7C1
:101B80002DE9F04F15464A686B689A420E463EBFF3
:101B90002E460B461D4633787168DB0785B0044638
:101BA00021D42B7813F001071DD1FFF78BFCD5E969
:101BB000011CA068B6683B4699420BD100EB41017D
:101BC000FFF7D5FB237860606FF30003237005B047
:101BD000BDE8F08F36F813203CF813502A4020F867
:101BE00013200133E8E701312046FFF76BFC327820
:101BF0002F78AB68009382EA0703DB4303F001030D
:101C0000C3F1000C02F001021FFA8CF1C2F1000CCA
:101C100002911FFA8CF10191B168D6F804E0A06836
:101C2000A1F1020A696807F00107C7F10008A1EBFA
:101C30000E011FFA88F8F44681460391BCF1000FAB
:101C400015D100EB4E011BB1012320F81E300231EB
:101C5000FFF78DFB606033782A78C3F30003C2F38B
:101C600000021340227863F300022270AFE73AF8D3
:101C700002BF019981EA0B0B03990CF1FF3C5A4416
:101C800001EB0C0BE3459FBF009931F802BB0091BB
:101C900088EA0B0B88BFC3465F44029902EA070B30
:101CA0008BEA010B13FA8BF329F8023B3F0C120C61
:101CB0001B0CC3E72DE9F84F16464A6873689A4231
:101CC0000D463EBF35460B461E462B786968DB073E
:101CD00004462ED4327812F001082AD1FFF7F2FB25
:101CE000D6E9013CA9686D68A768ED1A424693429F
:101CF00010D15B00194400223B44954213D103EB01
:101D00004503DB1B5B10636023786FF300032370D4
:101D1000BDE8F88F31F812003CF81260304327F824
:101D200012000132E3E731F8120023F81200013209
:101D3000E3E701312046FFF7C5FBD6E901232F7801
:101D400036786968A068AD6807F0010706F00106FB
:101D5000C7F10008C6F1000CA5F1020E1FFA88F8C1
:101D60001FFA8CFC0D4682464FF00109A2EB010BD5
:101D700045B900EB4101FFF7FAFA2378606043F0C0
:101D80000103C4E73EF8022F013D88EA020217442E
:101D90000BEB0502AA4296BF33F8022B62468CEA8F
:101DA0000202164447EA0602D24319FA82F22AF8DE
:101DB000022B360C3F0C4FEA1249D9E7F0B5164614
:101DC0004A6873689A4238BF0B460C463CBF34469B
:101DD0001E462778337861685F4017F0010785B0A9
:101DE00005463AD1FFF76EFB237813F0010328D1A3
:101DF000D6E90117A2686468A868641A994210D1EC
:101E000049000A4400230144A34214D101EB4301D9
:101E1000FFF7ADFA2B7868606FF300032B7005B005
:101E2000F0BD32F8136037F813C086EA0C0620F8CC
:101E300013600133E2E732F8136021F813600133D5
:101E4000E2E7CDE90277019773680093B368A86869
:101E5000D4E90121FFF702FBDCE70131FFF732FB98
:101E60003378A868DB4303F0010303932378DB4353
:101E700003F0010302930123019373680093B36895
:101E8000D4E90121FFF7EAFA2B78686043F00103F7
:101E9000C4E72DE9F04F4B6885B004460E46154661
:101EA0000BB1536823B90023636005B0BDE8F08F20
:101EB000814234D1FFF71BFBA5420646074600D1FD
:101EC00005466B68716820461944FFF7FBFA2268E3
:101ED000A068C2F39D02520000211DF019FAB368F8
:101EE000A1680193AB68D6F804A002936B680393D2
:101EF00000228B1E009301EB4A0C1346039890427C
:101F000039D163602A78337853402278384663F3B6
:101F10000002227005B0BDE8F04FFFF721BB8242FE
:101F200004D1FFF7E4FA05460746CAE70027C8E7E9
:101F300038F8029F0298994430F812003BF8023BAF
:101F400000FB0393A8F800300EF1FF3E1B0CBEF11E
:101F5000000FEDD1E6460CF1020813B1ACF80030E9
:101F6000C6460098AEEB010E02304FEA6E03013216
:101F7000C4460090C2E7DDE9008BD6460023E6E7C1
:101F80004B6870B50646144613B11378DA0702D5CC
:101F90000023736070BD636823B90121BDE8704000
:101FA000FFF7EABA0846FFF7A2FA05462046FFF710
:101FB0009EFA012104463046FFF7DEFA636883B1DA
:101FC000A3681B88DB0704D52A4631463046FFF755
:101FD00060FFD4E9012101230846FFF7D4F96060CE
:101FE00038B92846FFF7BCFA2046BDE87040FFF735
:101FF000B7BA2A4629462846FFF74BFFDEE72DE908
:10200000F04F0C4651688FB091460131054602935E
:10201000FFF758FAD9F80420A868013252000021CD
:102020001DF076F900236B60D9F8041020460131C9
:10203000FFF748FA49462046FFF7C8FA029B67684F
:102040005B680193BB4232D8029BD4F808B09E680B
:10205000AB6803932DD3324639465846FFF76AFAE8
:10206000002823D1039A6060012313806B60029AD9
:1020700099F8003012785340DB0714D52B7843F0E1
:1020800001032B70636873B14FF0FF310BA8FFF7AA
:10209000B8FA0BAA29462846FFF7FAFC029A21460D
:1020A0002046FFF7F5FC0FB0BDE8F08F01DA002302
:1020B000DCE7019B03F1004001384FEA400A36F8A3
:1020C0001020002312F4004F03F1010152D07A00D6
:1020D0009BB24FF0000E791C02F102080592C3F189
:1020E00010022BF817E0D8446160DC467746049272
:1020F000C44543D336F8100000FA03F20492019A63
:10210000012A09D906EB0A00C3F1100730F8020CC6
:10211000F840049F074304970198059A091A6960DB
:10212000039801F10041013900EB410105910AF1E9
:1021300002010991B11E5A440891D4F804A00199F2
:10214000514527D30AF1004A0AF1FF3A0BEB4A0A3C
:102150000020C3F11006D3457BD96FF000416B68B6
:102160002BB15A18039830F81220002A7BD06FF058
:1021700000417DE0520092B20B46A3E7BCF800E0BC
:102180000EFA03F21743049A2CF8027B2EFA02F798
:10219000BFB2ADE7118832F8027C47EA01470499E3
:1021A000B7FBF1F70999511A069108990791DDF8E3
:1021B00018C000218E4662450CD81088091A0029E3
:1021C00041D1059921F8027905910AF1FF31023ACE
:1021D0006160B2E7079EBCF8008036F8020F0796F0
:1021E000984040EA1E4E1FFA8EF07843404503D2D5
:1021F000A8EB00068E420FD80144A1EB08081FFA95
:1022000088F10031C8F1000618BF0121B6B201EB18
:1022100018412CF8026BCEE7761AB6B20021F8E727
:1022200038F802CF0CFA03FC4CEA1E4EB6F800C098
:1022300010FA8EF0604426F8020B000CB242EFD880
:10224000091A013FBBE70020DDF82080069E864684
:10225000F4E7BAF8002042FA03F10143B2402AF849
:10226000021990B277E7013B6B6078E7013B63604E
:102270006368002B3FF4FBAE5A183BF81220002A8B
:10228000F4D0F4E6F0B51F464B6885B006460C4620
:1022900015464BB11378DA0706D47B68012B07D1BA
:1022A000BB681B88012B03D10023736005B0F0BD10
:1022B00001213046FFF760F96B68002BF6D020460D
:1022C000FFF715F904462846FFF711F9054601A85E
:1022D000FFF76FF96B68B3B1AB681B88DB070AD5F2
:1022E000224631463046FFF7D4FD3B463246314662
:1022F00001A8FFF784FED5E9012101230846FFF775
:1023000042F8686048B901A8FFF758F92046FFF77E
:1023100027F92846FFF724F9C8E722462146204638
:10232000FFF7B7FD3B462246214601A8FFF767FEAF
:10233000D0E710B5D0E90121002301EB4202914220
:1023400005D30278D20748BF5B42184610BD32F869
:10235000024D44EA0343F2E730B5D0E901240023FB
:1023600004EB4202944206D30278D20748BF5B4294
:102370000B60012030BDB3F5004F04D232F8025D8E
:1023800045EA0343EEE70020F4E72DE9F0438846F1
:1023900061B19F18D0E901140025A4F1020E4FF09D
:1023A0000109AC461A4419B9BDE8F0831F46F1E7AC
:1023B0003EF8024F0CF1100C44EA0545BCF1070F42
:1023C00001DC0139EFE70678ACB2F60741BFE44320
:1023D00059FA84F4A4B24FEA1429E4B2B8F1000F18
:1023E00009D07E1E07F8014CB342DDD0ACF1080CD9
:1023F0002D0A3746E2E73E4606F8014B9642F4E7DF
:10240000D0E901329FED0C0A9FED0C7A02EB4303F9
:102410009A4205D30378DB0748BFB1EE400A704704
:1024200033F8021D07EE901AF8EEE77AE0EE077A2D
:10243000B0EE670AECE700BF000000000000804734
:102440002DE9F84F44689DF828A00B9D80468946E9
:1024500016469B469CB982B1561E2B4616F8012F94
:1024600018463AB930230370002300F8013F401B9F
:10247000BDE8F88F03F8012BF0E72846F2E7640087
:102480002046FDF70FFE22460746D8F808101CF03C
:10249000FBFEABF13A0B28462A4607EB040CACF1E5
:1024A000020300219F421C4633D93031392914469A
:1024B00088BF594404F8011B3B469C45194632D855
:1024C000BAF1000F08D00123211A032902BF941C7E
:1024D00082F801A02046D3B13846FDF70BFE3EB18D
:1024E00030461CF05DFF23463044B0421C4623D8E2
:1024F00098F80030DB0744BF2D2304F8013B2B463E
:10250000621E9A421DD800232370601BB0E722464A
:10251000C5E7248844EA0141B1FBF9F423F80249F4
:1025200009FB1411BEE7098802330029C5D0BAF1AE
:10253000000FECD00023C7E710F8012D03F8012BA2
:10254000D3E71978107803F8010B02F80119D8E7DE
:10255000D0E9023293423DBF5A1C826018784FF096
:10256000FF307047036810B5044613B14068FDF7AB
:10257000C1FD2046BDE81040FDF7BCBDF8B50546DD
:1025800010200C461F461646FDF78CFD054B846057
:10259000C0E900743444C4606B60034B2860AB60D6
:1025A000F8BD00BF51250208652502080369272BE5
:1025B0001DD0222B1BD0752B03D023F01002622AD2
:1025C00010D14269272A12D0222A10D0722B09D1A9
:1025D000622A0ED18069272809D0A0F1220358422F
:1025E00058417047622B04D14369722BF1E70120F7
:1025F00070470020704702690A2A10B5044622D1AC
:10260000C3690133C3610123236263692361A36941
:102610006361D4E9010398476369A0610D2B07D179
:102620000A239842636103D1D4E901039847A0616A
:10263000A369013306D163695A1C03D00A2B1CBF5E
:102640000A23A36110BD036A092A04BF073323F0DC
:1026500007030133D8E770B504460E46002520690C
:10266000431C01D1284670BD0A2808D116B1A36ABF
:10267000002BF7D02046FFF7BEFF0125EFE7FEF75E
:10268000EBFD18B12046FFF7B6FFE8E72369232BDF
:1026900008D12046FFF7AFFF23695A1CDFD00A2B71
:1026A000F7D1DCE75C2BDDD163690A2BDAD1204658
:1026B000FFF7A1FFE6E700002DE9F74F04460021F0
:1026C0008164FFF7C8FFE369A363636A256AE56372
:1026D000002B04DA062284F84020013304E007D0FE
:1026E000052284F84020013B636203B0BDE8F08F0F
:1026F00090B3A36A83BBD4E90C20042384F8403050
:102700006FF00043D118013D30F811108D42ECD02C
:1027100017D9E16A8A4207D308314900FDF7DDFC89
:10272000E36A60630833E362D4E90C32591C216325
:1027300022F81350636AD0E7013A2263626A013AD1
:102740006262226BD11830F811108D42F4D3CCD0D4
:10275000022384F84030C8E72169481C01D10023D6
:10276000F7E72046FFF722FF8146002800F03C8172
:10277000002384F840302369752B5BD0622B4ED147
:102780006369722B0DBF4F460027012502250B23DD
:1027900094F84020002A55D184F840303DB12046BD
:1027A000FFF729FF022D02D12046FFF724FF2369FE
:1027B0002046222B14BF4FF027084FF02208FFF7C6
:1027C0001AFF2369434540D1636998453DD12046AE
:1027D000FFF711FF2046FFF70EFF03264FF0000A18
:1027E00004F14405D4F810B0BBF1FF3F00F0F680CF
:1027F000012E03D1BBF10A0F00F0F080B24526D3C1
:10280000514604F14400FEF7CBFC01212046FFF7BE
:1028100022FF2046FFF7CAFE0028ACD165E7722BE5
:102820000CD16369622B4F4615BF012502250A238F
:102830000B23ADE701250A230027A9E700250A237A
:102840002F46A5E79A42A9D04FE70126C6E7D8450B
:1028500009D1414628460AF1010AFEF74CFC204600
:10286000FFF7C9FEBEE7BBF15C0F40F0AC8020462D
:10287000FFF7C1FED4F810A02FB15C212846FEF767
:102880003AFCD34665E0BAF1620F00F0858027D8A4
:10289000BAF14E0F6ED010D8BAF1220F1ED0BAF195
:1028A000270F1BD0BAF10A0F61D0AAF1300BBBF190
:1028B000070FE2D84FF0030A66E0BAF15C0F0DD0C3
:1028C000BAF1610F6BD0BAF1550FEED194F84020F8
:1028D0000B2A1FD15C212846FEF70DFCD3463EE0B3
:1028E000BAF1740F5ED00BD8BAF16E0F5DD0BAF1A9
:1028F000720F5DD0BAF1660FD7D14FF00C0B2EE0FE
:10290000BAF1760F57D0E1D3BAF1780FCDD14FF0AD
:10291000020A06E0BAF1750F0CBF4FF0040A4FF03F
:10292000080A4FF0000B11E02046FFF764FE226911
:1029300001921046FEF7AEFC002800F06281019A79
:102940001046FEF7E7FC4FEA0B1B83441AF1FF3AEF
:10295000EAD2BBF1FF3F0AD0AD4B9B4539D894F882
:1029600040300A2B2AD159462846FEF7C4FB4FF0C7
:10297000000A74E7A74809F059FE2046FFF73BFE1E
:102980002269303A02EBCB0B6269303A072AE0D871
:10299000BAF1010AF1D1DCE74FF0080BDFE74FF0A5
:1029A000070BDCE74FF0090BD9E74FF00A0BD6E72E
:1029B0004FF00D0BD3E74FF00B0BD0E7BBF1FF0F40
:1029C00007D80B2B05D15FFA8BF12846FEF78CFB5D
:1029D000CDE74FF0010384F84030C8E7B2453CBF73
:1029E000032284F840200BE70846FEF73FFC05462B
:1029F00020691DB95F2801D07F283ED9072384F8BC
:102A0000403004F14405C1B22846FEF76DFB204674
:102A1000FFF7F1FD2069421C1BD12846FEF755FB4C
:102A20007D4E0746002556F8041B38461CF0C6FCB0
:102A300000281CD10D35EDB2102D84F840507FF4E4
:102A400054AE764BD3F8E031002B0CBF0F230D238F
:102A50007FE6FEF70BFC40B920695F2805D07F2890
:102A600003D8FEF70DFC0028D7D0217CCCE7FFF679
:102A70003CAE0135242DD6D137E6FEF701FC68B314
:102A800021692E2935D1092384F8403004F1440608
:102A90003046FEF730FB2046FFF7ADFD09272069E1
:102AA000431C3FF422AE002D35D120F02003452BEE
:102AB00031D16521304684F84070FEF71CFB20467A
:102AC000FFF799FD21692B2901D02D29E7D1304647
:102AD000FEF711FB2046FFF78EFDE0E723692E2B62
:102AE00004D16069FEF7CCFB0028C9D100264C4D0B
:102AF00031E00823302984F84030C7D1656945F0BA
:102B00002005A5F16203162B9DBF464DDD4005F063
:102B100001050025BAE7FEF7A9FB28B121692E2996
:102B20000DD184F84070D2E72069FEF7A9FB002898
:102B3000F4D123692E2BF1D05F2BCBD0D5E521F03A
:102B400020034A2BC3D1ECE7652F01D0632F00D1BE
:102B50000135013601352F7817B12369BB42F3D116
:102B60002046FFF748FD0FB90123F2E5212F07D1D9
:102B700023693D2BF8D12046FFF73DFD3723E8E5DB
:102B80002E2F0FD123692E2B02D163692E2B01D05A
:102B90005A23DEE52046FFF72EFD2046FFF72BFDEA
:102BA0000C23D6E50335334615F8027C632F0FD08E
:102BB000652F0DD01C4AD35C84F8403003F0FB0233
:102BC000522A01D0542B14D1A36A0133A3628CE59D
:102BD00015F8012C2169914206F1010607D1204622
:102BE000FFF709FD3346652FE4D00235DCE7632F9C
:102BF000FAE7532A02D0552B7FF477ADA36A013B45
:102C0000E4E74FF0010384F840308346A7E600BFB5
:102C1000FFFF1000EC840508A0850508182D002092
:102C2000A984050801204000758505087FB5064682
:102C300001AD542085E80E00FDF734FA0446034642
:102C400095E8070043F8046B83E8070001236FF061
:102C50000102C4E9073200250A22C4E90B23C4E9B2
:102C600009551420FDF71EFA2021606304F1440089
:102C7000FEF7B5F9636B20461D80C4E90555256153
:102C8000FFF7B9FC2046FFF7B6FC2046FFF7B3FC80
:102C90002046FFF711FDE36B012B18BF05232046EB
:102CA00018BF84F8403004B070BD30B585B001ACB9
:102CB00005462046FFF762FC94E80E002846FFF721
:102CC000B5FF05B030BD30B585B001AC0146054655
:102CD00020461BF063FE2846FEF7B8F894E80E0085
:102CE000FFF7A4FF05B030BD10B5044670B1C3684E
:102CF0004068984704F14400FEF79EF9606BFDF7C9
:102D0000F9F92046BDE81040FDF7F4B910BDD0E94F
:102D10000432013B036152F823007047C1F17F5137
:102D200001F57F11036901F57F513F311944436972
:102D300053F821007047F8B5446A06460D46B4B111
:102D4000D4E900030B44834222D908310022014414
:102D50002046FDF7CDF90246B8B961682046083132
:102D6000FDF7C6F963682360336A63603462802DBF
:102D70002F4638BF802707F10800FDF793F900239D
:102D8000076043600446706202E023682B442360BE
:102D900060680544656008342044F8BD38B50D46C8
:102DA000D0E903138B42044608D3103189004069EF
:102DB000FDF793F9E36860611033E360D4E904320E
:102DC000591C216142F8235038BDF8B50D461F4605
:102DD000D0E900138B420446164608D31031C900CF
:102DE0008068FDF77AF92168A06010312160D4E98C
:102DF00001104B1C636050F8312065F3170200EBA3
:102E0000C10340F83120DE705F60F8BD10B4846902
:102E1000CAB20023A16B5DF8044BFFF7D6BF0000D8
:102E2000F7B586690F4696F84010072905461FD169
:102E3000D6E91210FDF778FF8E2F04460ED18100DF
:102E4000002241F0020105F1280009F0B9FE28B185
:102E50004468E30720D544F0010002E0200140F07F
:102E600002000146284603B0BDE8F040FFF796BFD8
:102E7000082907D133460022D6E91210E0F734F8CA
:102E80000446E6E7092912D1009600230122D6E97B
:102E90001210E0F7A7F804460C212846B66BFFF79E
:102EA0004AFF40F239130660C0E90134D9E7A1F1C5
:102EB0000A03012B1CD8D6E912100A290BD8FDF7FA
:102EC00033FF96F8403048B10A2B0CBF06210A2187
:102ED00041EA0010C5E7FDF7F7FEF2E7064C0748A8
:102EE000D6E912210A2B08BF20460FF02BFBD2E7B0
:102EF000090141F00E00B4E77CC10508A0BE050839
:102F0000DE2807D010F0010306D043080CBF0120D3
:102F1000002070470120704718467047FE2807D0F0
:102F200010F0010306D0430814BF012000207047B1
:102F3000012070471846704710F0010204D040F09D
:102F40000100086001207047A8B110F003030FD101
:102F50000279392A0ED183680B6013F001000AD17F
:102F60009A0708D11868044BC31A58425841704751
:102F7000104670471846704758B105082DE9F04FC4
:102F80002C2A85B00446884616461D460BD10021E2
:102F9000FFF7C4FE80B3810702D10379902B2BD0B9
:102FA00005B0BDE8F08FA2F11D03012B53D82F46C9
:102FB0002A460AE01D2E41D1FFF7B0FFB0B90846FE
:102FC000FFF79EFF002808BF4A4602F1FF396FB1A4
:102FD000013F39462046FFF7A1FE2369A3EB020C0F
:102FE0006369014643F82C00002FE3D100214945D5
:102FF0002CD16D1A012DD3D0A6F12203022B55D866
:10300000691E2046FFF78AFE01A9FFF795FF0028F9
:103010007BD0222E37D0232E0CBF4FF017094FF054
:103020001809AF1E002F31DA002D40F05981019EA2
:10303000F30740F15A8146F001011EE0FFF760FFFF
:103040000028D3D10846FFF769FFBBE72046FFF70A
:103050005EFE0131CBE71F2ACED10021FFF75EFED5
:103060000246FFF74DFF60B91046FFF757FF0028F3
:10307000C2D0DE212046FFF74AFE2046FFF78EFE33
:103080008EE7FE21F6E74FF01609CAE739462046DB
:10309000FFF744FE02A9FFF74FFFB0B3DDE90112CD
:1030A000484609F0E7F8013F0190BBE7A6F1250388
:1030B000022B4DD8691E2046FFF730FE01A9FFF70D
:1030C0003BFF10B3A5F10209B9F1000FACDD09F126
:1030D000FF312046FFF722FE02A9FFF72DFFA0B126
:1030E00049462046FFF71AFEC0F3071000F0FD0323
:1030F000402B0AD0442808D02238C7B202980DF0DD
:1031000022F91A2F17D8002819DAA91C890020469D
:10311000FFF711FE46EA052646600146C0F800802A
:1031200000F10806002DA8D02046FFF7F0FD013D74
:1031300046F82500F6E71E2F01D90028E5D0DDE985
:103140000112384609F096F8A9F102090190BBE78F
:10315000282E18D100212046FFF7E0FD01A9FFF736
:10316000EBFE0028D1D001212046FFF7D7FDC0F3A8
:10317000071031281ABF3D38C0B20220019908F06B
:103180004DFA019050E7052E68D100212046FFF747
:10319000C5FD07460028B8D010F0030A04D14368E3
:1031A00003F0FE03562BB0D001212046FFF7B6FDF9
:1031B00000F00F03022BA8D1BAF1000FA5D13B7983
:1031C0002B2BA2D1BB6803F00F02022A9DD11B0951
:1031D000482B9AD1FB68002B97D09A0795D11A7982
:1031E0002F2A92D1D3F808B04FEA101902A95846F5
:1031F000FFF7A2FE68B9424942480BF0E5FEA1691B
:103200003A680968054653460BF0A6FF2846FCF7C6
:1032100023FF4FEA8901012241F0020104F1280055
:1032200009F0CEFC029B43604846FDF723FE03787D
:103230005F2B20460BD1FFF76AFD2046FFF767FDA5
:103240000023082219462046FFF798FEA8E6FFF75C
:103250005EFD59462046FFF7A1FD56E72B2E7FF471
:1032600054AF01212046FFF759FD00F00F03022B58
:1032700007467FF44AAF00212046FFF74FFD0028A4
:103280003FF443AF10F003027FF43FAF0379312BDB
:103290007FF43BAF39098900D0F808901A4841F013
:1032A000020109F08DFC00283FF42FAF02AA4FEA7B
:1032B0001911406808F0E2FA029B002B3FF425AF99
:1032C000D90707D49A077FF420AF19680F4A9142B3
:1032D0007FF41BAF039A002A7FF417AF0193A3E694
:1032E0002046FFF714FD013D9EE60C212046FFF726
:1032F00022FD40F2391301460560C0E90136BCE603
:10330000BB860508C8AA05083086050858B1050817
:10331000036830B513B91360184630BD9C0702D05E
:1033200010600120F9E75C68E5B28D42F8D10833FE
:103330001360200AF1E700002DE9F04F93B000245C
:10334000402302904FF400700F460192CDE90534FE
:10335000FCF7A8FE202307908020CDE90834FCF775
:10336000A1FE2146CDE90A070FA8CDE90D4409F0D9
:10337000EDFB019B002B4CD0022B0CBF3C222246C4
:103380000023B96BDFF8CCB205A8FFF71EFD4FF0A4
:103390000008069C002C00F05F81013C079BA84DB3
:1033A000069403EBC40253F83430D6785268C3F362
:1033B000170AA44B9B5D0093A34B9B5D642E88BFB3
:1033C00043F4807305EB4305009B03F00F0903F002
:1033D0003003102B1FD0202B51D0B8F1000F00F07C
:1033E0000481B9F1020F40F0F380012A18D00021C6
:1033F0000098C00702F1FF3306D568880BEA000089
:10340000B0F5805F08BF5308012B40F0DF8069B141
:10341000DCE03A22B4E732B905EB4205914508D821
:103420004FF00108B5E7B8F1000FF5D14FF00008F3
:10343000AFE7A84635F8023B03EA0B01B1F5805F20
:103440000DD197F84010C3F30B03994215D105A88D
:103450003146FFF7E5FC3846FFF72EF9E6E7531C47
:103460004B4504D23246514605A8FFF7AEFCB8F8EA
:10347000001005A8FFF7CAFCD8E70132CEE7B8F183
:10348000000F0FD002F10043013B35F813300BEA77
:103490000303B3F5405F1BD1002105A80392FFF79A
:1034A0007DFC039A05EB4204914525D8019B0BB1A5
:1034B000052E43D0002405EB490922464D455BD13A
:1034C000012A7AD1009B5B0677D5002529466EE05C
:1034D000012AA5D997F84030052B40F0EC805B49D4
:1034E0005B480BF071FD00230446BA6B39680BF0A2
:1034F00033FE2046FCF7B0FDA04634F8023B03EA59
:103500000B01B1F5805F17D197F84010DBB29942FB
:103510000ED1072905D1314605A80392FFF780FC9B
:10352000039A03923846FFF7C7F8039A0132BBE7C4
:10353000002A3FF475AFCDE7531C93E7002105A89F
:10354000FFF7ECFB0028B5D1012105A8FFF7E6FB4A
:10355000820700F0B78000F00F000228AAD005A86B
:10356000FFF7D5FB05A8FFF7D2FB00230822514641
:1035700005A8FFF703FD59E739F8023D03EA0B01FF
:10358000B1F5805F05D1DBB2072B97D10134013251
:1035900094E7214605A8FFF7C1FB00B101320134D1
:1035A0008CE7FFF7B4FB0135002818BF0146A542A0
:1035B00005A8F6D1FFF7F2FB38E7009B1D0604D5FE
:1035C000002105A8FFF7EAFB013423463246CEE787
:1035D000012A3FF425AF12F001013FF409AFB9F120
:1035E000030F7FF477AF012102E709EA020303F03A
:1035F000010335F8134004EA0B01B1F5805F13D1E4
:1036000097F84010C4F30B04A14202F1010409D160
:103610001BB9314605A8FFF703FC3846FFF74CF805
:103620002246E2E72246DCE6531C514605A8324614
:10363000FFF7CBFB214605A8FFF7E8FBA9E600BF93
:1036400086870508D7860508048B05086C8605085B
:10365000BCA7050800F0FFFF0FA809F090FA0E982C
:1036600050B1416822460831FCF742FD0E9B5A6872
:103670001A600D9A5A600D9397F84030002B7FF432
:1036800029AF099B002B3FF425AF0A9B07981B68C5
:103690000C93FCF72FFD0A98FCF72CFD3846FFF73A
:1036A00023FB0CAB93E80300029B83E8030018465E
:1036B00013B0BDE8F08F022B01D1064910E706498F
:1036C00006480EE700283FF4F5AE0379392B3FF4A6
:1036D00046AFEFE67E860508AC860508C8AA050851
:1036E00010B5406800B910BD4468FCF703FD2046E2
:1036F000F8E700002DE9F041054630200E469046DF
:103700001F46FCF7E8FC072D04460570C660A0F8CC
:10371000148001D0012D10D1B368C3F30F13E382DD
:1037200007F0CCFA04232061678323852020FCF76F
:10373000B9FCE0622046BDE8F081014B5B5DEEE73D
:10374000B38B050810B50446C06AFCF7D3FC2046CD
:10375000BDE81040FCF7CEBC30B5448D0022944249
:1037600002D80023184630BDC36A03EBC2035D686C
:103770008D42F7D00132F2E770B504460D46164689
:10378000FFF7EAFFC0B9218D638D8B4208D3063164
:10379000C900E06AFCF7A1FC238DE06206332385B3
:1037A000638DE26A591C02EBC300618502F8336045
:1037B000002343704380456070BD43680BB9FFF739
:1037C000CBBF1846F9E7F8B544680F462CB9F8BDE9
:1037D000032BFCD104230370F9E723465D68002D19
:1037E000F5D07E6818463146FFF7B6FF2B46002815
:1037F000F4D00378033B022BE9D805233B701D4628
:10380000002231462046FFF7B7FF0378002BDFD1B7
:1038100005706468F4E7436A5B8B012B1EBF036984
:103820005B1803617047C36A10B50446DB6F806A9A
:103830009847A38B626A0133D18C9BB29942A383D0
:1038400038BFD38410BD838B10B5013B8383C36A1B
:103850000446D3F88430806A984720460121BDE8A9
:103860001040FFF7D8BF2DE9F04180461F4659B1FF
:1038700011F0030510D14E68F3B293420CD1360A11
:1038800001F10804B54201DBBDE8F08154F8041BE6
:103890004046B8470135F5E740463B46BDE8F041B4
:1038A00018472DE9F04F044685B00D4691469A46DB
:1038B0001BB10B8B43F008030B83636AA5F82090C0
:1038C0001A8B42F030021A831B78002B49D1E36A2D
:1038D000A06AD3F8B4604A4653462946B44605B0B8
:1038E000BDE8F04F6047DB6A03EBC60B13F83630D8
:1038F000043B012B20D8002319E0EB6A039A0399BB
:1039000003EBC20213F83130052B0ED1DBF80410A3
:103910005368994209D1E36ABBF802205B69A06A47
:103920001F460023B84708F10108039B01330393A6
:10393000039A6B8D9342E0DC0136636A5A8DB24282
:10394000D1DCB8F1000FC2D0E36ACDF800A0D3F803
:10395000B860A06A4B4642462946B04705B0BDE86C
:10396000F08F0026B046E8E7F8B504460F4611464A
:103970001A46002385794669837143610E4BFFF730
:1039800072FFA368BBB9E18A51B1A28A42B9E36A66
:10399000A06AD3F8A0309847E36AA06A5B6C9847A6
:1039A000A38AE28A39462046FFF77BFF003518BF1D
:1039B0000125A5716661F8BD15510208024B8968A1
:1039C0009B22FFF750BF00BF355E0208024B89689B
:1039D0006A22FFF748BF00BF81410208C36A10B5E1
:1039E0000446D3F88830806A00219847E36AA06AC9
:1039F0005B6B0E219847E36AA06AD3F8CC300121B3
:103A0000984720460321BDE81040FFF704BF38B5B2
:103A1000C36A04469B6C806A00229847E36AA06AE6
:103A2000D3F8C05000231A461946A8472046BDE8DF
:103A30003840FFF7D3BFC36A89685B6D806A002294
:103A400009091847C36A89681B6C806A184710B552
:103A50000446084611462268FFF74CFE636A43603D
:103A600000238360236A13B9206210BD13469A684D
:103A7000002AFBD19860F8E770B54379012B054621
:103A80000C4606D1436A0A465B8B0221FFF7DFFF33
:103A90002061A268216928464B23BDE87040FFF7EA
:103AA00063BF70B513464279012A06460C4604D11D
:103AB0000A460721FFF7CBFFA061A569E2683046FF
:103AC00043232946FFF750FFE88A70BD2DE9F04FE8
:103AD00087B0064600AF0C4611B90121116015E010
:103AE00011F003081BD10B79672B07D1CB681B0999
:103AF00013608C68002CF0D04FF0010804F00F0325
:103B0000022B0FD12109B8F1000FE7D0F36AB06A98
:103B10001B6B002298471C37BD46BDE8F08F4FF065
:103B20000008EBE7B8F1000F02D1A3681B0913608E
:103B300063684FEA132904F1080309F1FF3AFB60B7
:103B40009B4600254D4527DB0AF1070323F00703B9
:103B5000ADEB030DC7F808D06D464FF0000BCB4519
:103B600022DB5146B868FDF7DFF8F36A01461B6BAC
:103B7000B06A00229847B8F1000FCCD00C34012570
:103B80004D45C8DA54F8041BF36AB06A5B6D002235
:103B9000090998470135F3E75BF8040B0009FDF7C5
:103BA00064F901358244CDE7BBF1000F03D04FF03B
:103BB0002E0305F8013BFB6853F8040BFB6007F18B
:103BC00014010009FDF75BF97B697B601A46014629
:103BD00028461BF059FB7B680BF1010B1D44BEE727
:103BE00031B1026801F00303134304BF0B680360A3
:103BF0007047000038B5836804460D465BB911462E
:103C000005480BF0E1F92946A06004F10C00BDE87D
:103C10003840FFF7E5BF38BDC8AA05082DE9F04FC9
:103C200004460D4662712B786162072B4FF000014C
:103C30008DB01646016105D0824AFFF7DBFF0DB05B
:103C4000BDE8F08F012A06D0436B00F108021B6823
:103C5000006B314698476379D5F80C80032B10D15F
:103C60000BAA432108F10C00FFF752FB636B0B9A80
:103C70009B680146206B9847A368A883002B40F0FF
:103C8000AF80D8F81010B9B101F00F05022D0FD197
:103C90000B095E2B11D004D83E2B39D06A4A20463E
:103CA000CBE7752B36D0B3F5906FF7D1032504E041
:103CB000664A2046FFF79EFF0225D8F81430099384
:103CC0000AAA192109A8FFF723FB4FF00009069063
:103CD000069B994520DB6379012B15D9636B206B1B
:103CE0005B68294698476379042B0DD10023606AED
:103CF00003950293818B226BCDE900310521D2E936
:103D00000232006906F0F1FFA368002B68D196E744
:103D10000125D2E70025D0E70A9B53F829100B793B
:103D2000082B4FEA890B02D109F10109D0E7052BD5
:103D300001D0474AB3E7CB68002BFAD18B681A79D8
:103D40002B2AF6D19F6807F00F02022AF1D1DB6817
:103D50000593002BEDD09A07EBD11B792F2BE8D1DF
:103D6000059B0BAA03F10800A321FFF7D1FA3F0935
:103D700040F295339F4282461BD1012805D10B9A10
:103D8000136803F00F03022B04D0324A0A9B53F846
:103D90000B1084E72169012E01F1010323611AD080
:103DA0001268636B206BDB681209984798B92A4A3E
:103DB000ECE740F2DB239F4216D1012803D10B9B95
:103DC0001968CF0701D4254AE0E7012E03D0491036
:103DD000206B03F031FAA368002BA5D0DDF8148026
:103DE000D8F80030E3602AE740F21A339F421DD131
:103DF000012803DD0B9B1B68D80701D4184AC5E7CF
:103E0000012EE8D05B1001270B9A52F82720D1072A
:103E100001D4144ABAE719465210206B07930137B0
:103E200003F011FABA45079BEED1D4E7012ED2D0A8
:103E3000636B0246D3F810B0206B0B9B3946D84712
:103E4000C9E700BF978E0508BB8E0508C88E050818
:103E5000F08E0508138F05082F8F05083F8F050882
:103E60005B8F0508808F0508014AFFF7C3BE00BFBE
:103E7000A28F05080B79092B70B50CBF058B458BFC
:103E80004FF6FF739D42044602D1064AFFF7B2FE89
:103E9000A18BE28BE36AA06A9B6F8A1A2946BDE870
:103EA00070401847748C050838B50546A9B101F073
:103EB0000F03022B0DD10C09204608F049FD002804
:103EC00006DA2246064907480BF0ACF8A860002045
:103ED00038BD054AFFF78EFEF9E70846F8E700BF50
:103EE0006A900508F4AB0508CF8E05082DE9F84364
:103EF0000546406A1746028B12F0020C0E4606D0A9
:103F0000324A31462846BDE8F843FFF773BE01F058
:103F10000F01022917D1AC79310984B1C38B013368
:103F2000C38364464FF0010800294DD00022FFF7FB
:103F300023FC03788146002B31D0254AE1E7838BAF
:103F400001338383EEE73179B942344608D1B16851
:103F5000AB790909002BF2D0C38B0133C383E1E7AE
:103F6000994214D1AC79002CCAD10123AB71B1684C
:103F700051B301F00F03022B18BF0C4642F00402AC
:103F800018BFA168028309094FF00308CCE7B168A4
:103F900042F00202090902834FF00508C4E7032337
:103FA000037080F801806B6A5B8B032B0CD1452F6B
:103FB0000AD14CB1E1682846FFF776FF99F8013045
:103FC00043EA001089F80100BDE8F883AC860508D3
:103FD000828E05084E234D22FFF788BF46234522D7
:103FE000FFF784BF10B44279446A012A0B4604D11A
:103FF00020465DF8044BFFF7BFBBC16A806A2246CA
:1040000014315DF8044B02F009BC10B44479426AE3
:10401000012C0B4604D110465DF8044B02F0F0BBB6
:10402000C16A5DF8044B806A1C3102F0F7BB436A39
:1040300010B55A8B0446FFF734FD01462046BDE813
:104040001040FFF7E2BF00002DE9F3418D6805F055
:104050000F030E2B04460E4606D0002D30D0AB07C2
:104060002ED12B79642B1DD10095002501AA642146
:104070006846FFF74DF90023019A194640F2AE5CFD
:10408000834215DBF26840F2FE339A4236D1636A0E
:104090001F78BFB1394A31462046FFF7ABFD02B069
:1040A000BDE8F081612B0BD1AB680093ED68DDE7D3
:1040B00052F8237067450CBF013103310133DFE74C
:1040C0000021DFE7E36AA06A9B6B9847E36AA06A76
:1040D000DB6B05219847E36AA06AD3F8A0303A4623
:1040E0000121984701AA29462046FFF7EFFCE36A21
:1040F000A06A1B6B022239469847D0E7E36AA06AA0
:104100009B6B984706F10C006A466921FFF700F99E
:1041100000260746BE42D4E90A0311DBD3F8A030DB
:10412000002239469847294601AA2046FFF7CEFCCF
:104130000025BD42D4E90A030BDB1B6E9847AEE7AE
:10414000009ADB6B52F826209168090998470136DE
:10415000E0E7009A1B6B52F82580D8F80860360912
:10416000314601229847D8F80C1029B9314620462B
:10417000FFF74BFF0135DCE70909F8E74B8E05082F
:10418000C36A37B504460D469B6B806A0021984789
:10419000E36AA06A5B6B0E21984701AA2946204674
:1041A000FFF794FC01992046FFF72FFF03B030BDC5
:1041B00010B44479426A012C0B4604D110465DF8D4
:1041C000044B02F01DBBC16A5DF8044B806A2431C8
:1041D00002F024BB37B504460D46B1B1CA0705D578
:1041E000C36A9B6B4910A06A98470EE08B0731D0D9
:1041F00001F00F05062D4FEA111308D00A2D0CD03F
:10420000022D1FD11946FFF7EDFE03B030BDC26A83
:10421000806AD26B19469047F7E74279042A03D0A7
:10422000C36A12491B6CDEE701A91846FCF727FE9A
:10423000E36A0199A46A1D6C0EF00EFC014620464B
:10424000A847E2E7042BE0D0C26A806A526BD9B279
:104250009047DAE7C36A09681B69806A98472A7938
:10426000034B294653F822302046BDE770B60508B7
:10427000E08C05082DE9F14F0D46A90704461646C6
:1042800012D005F00F03022B17D129090AB1022A17
:1042900005D1204601B0BDE8F04FFFF7B6BE01B032
:1042A000BDE8F04FFFF79EBE6968CBB22C2B7BD0E8
:1042B0000BD8062B0DD02B2B12D0554A2946204661
:1042C00001B0BDE8F04FFFF795BC2D2B7DD09B2BA7
:1042D000F3D1002EF1D105F108030A0A002187E08D
:1042E000022A02D0A968FFF775FFEF68002FE4D01B
:1042F00017F00309E1D17B68DAB28C2AB8460DD1F8
:10430000022E4FEA132805D007F1080A08F1FF3BF7
:10431000D94511DB08F1010857F8288098F80430D6
:10432000302B24D1022E0FD1E36AA06A9B6E9847EE
:10433000E36A1B6D012115E05AF8041B2046FFF7C4
:1043400049FF09F10109E3E7D8F808102046FFF713
:1043500041FF012EE36AECD1DB6DA06A9847E36A66
:104360001B6D0021A06A01B0BDE8F04F1847312B4A
:10437000A3D1012ED4E90A030CD19B6D9847E36ABF
:10438000D8F808105B6D0022A06A090901B0BDE8E9
:10439000F04F1847022E01D15B6E9847E36AD8F8B8
:1043A00008105B6D0122EFE7A868002885D0002A7D
:1043B00083D1C16839B311F0030324D14A68D6B25E
:1043C000932E17D11A46816812E0002A7FF475AF48
:1043D000A96829B90B4601B0BDE8F04F00F01AB842
:1043E0008B0703D10B79902B0846E2D000231A46A5
:1043F0002046F0E7942E03D101F10803120AE2E708
:10440000AB2E3FF45AAF00F10803022266E700BF6B
:10441000BA8B05082DE9F84F0F1E054690461E463B
:1044200014BF4FF001094FF0000921D017F0030429
:104430001ED13B79212B1BD1C36A806AD3F8B030DF
:10444000214698474FF0000A08F1FF3BC24512D1C0
:10445000631C2DD1EB6AA86AD3F8AC3009EB0801D4
:10446000984777BB06EB880846452DD1BDE8F88F05
:104470004FF0FF34E6E756F82A1081B18A070ED1D3
:104480000B79212B0BD101340CD1EB6AA86AD3F83C
:10449000B0300AEB0904ABEB0A02214698470AF157
:1044A000010AD3E728460F4ABDE8F84FFFF7A2BB41
:1044B000002FD7D02CB9B96822462846FFF7DAFE7C
:1044C000D0E700223946F8E756F8041BA1454FF023
:1044D000000208BF89682846FFF7CCFE09F10109F0
:1044E000C2E700BFD58B05082DE9F74F04460D46FE
:1044F00016461F462846FEF703FD20B1CEB9E36AF3
:104500003946DB6E4CE02846FEF708FD08B186B15F
:10451000F5E7002D55D0AB0753D16B684FEA132A4E
:10452000DBB21D2B1AD1EEB1083505EB8A0A5545D1
:104530000CD103B0BDE8F08F5B46019A59F8041B1B
:104540002046FFF7D1FF08F101081AE03B4632464A
:1045500055F8041B2046FFF7C7FFE8E71E2B24D1C0
:10456000002EE1D0D4F810B00BF1010323610AF161
:10457000FF33009386F0010305F108094FF00008AE
:104580000193009B4345D7DC0AF101013B4655F8F6
:10459000211032462046FFF7A7FFE36ADB6A59463F
:1045A000A06A03B0BDE8F04F18471F2B03D186F077
:1045B0000106AD689EE72C2B03D1AB68002BA6D17A
:1045C0009CE729462046FFF705FEE36AA06A1B6FB9
:1045D0003A46314603B0BDE8F04F18472DE9F047A1
:1045E00006691F46B31C0361C36A04460D46DB6AB5
:1045F000806A314691469847E36AA06AD3F88C30C6
:1046000006F1010841469847A96800222046FFF7B5
:1046100031FE2D69002D2DD149462046FFF7DAFDE8
:10462000636A1978E36A06291DD1D3F8CC30A06AF1
:104630002946984720460121FFF7EDF8E36AA06A72
:104640001B6E9847E36AA06ADB6E31469847E36ABF
:10465000A06ADB6A41469847E36AA06AD3F89030C3
:10466000BDE8F0471847BA00D3F8A830A06A053271
:104670009847E7E72B79AC2B07D1A968334600228E
:104680002046FFF731FFED68C4E7E9682046FFF7F1
:10469000A1FDE36AA06AD3F88830012198477B1C0A
:1046A0004A4629462046FFF799FFCBE72DE9F0411E
:1046B00004460E466271C36A4662002511460561D2
:1046C0001B68806A3246984706212046FFF7A3F808
:1046D0006779012F08BF7562F5686DB1AA070BD124
:1046E0002B793C2B08D1A968FFF774FDE36AA06A17
:1046F000D3F8C43098472CE033784BB9294620468C
:10470000FFF768FDE36A5B6BA06A0E219847EDE74F
:10471000072B24D1012F12D10023A37143225F4B19
:10472000E9682046FFF79FF8738B032B07D12969AF
:104730002046FFF7B9FB338B43EA801030832046D5
:104740006969FFF747FDE36AA06A9B6898470028FC
:10475000D8D0E36AA06A5B68BDE8F0411847022B35
:104760001BD1E36A29681B69A06A98476379012B0A
:1047700007D10023A3714B22494BA9682046FFF7BC
:1047800072F8E9682046FFF725FD338BDB07ADD5CE
:10479000E36AA06A1B6E9847B4E7033B032B4FD82C
:1047A000012FD5F80C8005D103223946606AFEF747
:1047B000E3FFB783E36A29681B69A06A98473378E7
:1047C000032B24D1E36AD3F8A03001220021A06A90
:1047D00098473378062B28D1E36AA06A5B6C984728
:1047E00001212046FFF7FEFBE36AA06A5B6C984755
:1047F000E36AA06A5B6C98470023AA68414620469A
:10480000FFF7ECFE3378062B7FF470AF7AE7042BCA
:1048100004D1E36A0222D3F8A030D7E7052BD8D120
:10482000E36A0322D3F8A030D0E720460121FFF746
:10483000D9FBE36AA06AD3F8883001219847DBE707
:10484000012F04D103220A213046FEF795FF1721DC
:104850002046FFF7C7FB16212046FFF7D6FBA968C5
:10486000E36AA06ADB6B090998471A212046FFF723
:10487000CCFB29692046FFF7ADFC0A213046FEF744
:104880006BFF0378032BE36A3FF43DAF5D69428819
:10489000A06A00230A21A84728E700BFDD3F0208DD
:1048A000D53F020838B5436A1B78072B04460A46F1
:1048B00006D0022B04D0154ABDE83840FFF79AB95C
:1048C000956885B9E36AA06A5B6B0E219847E36A35
:1048D000A06AD3F8CC300021984720460121BDE8DA
:1048E0003840FEF798BFAB070BD12B79AE2B08D120
:1048F0002046A968FFF76EFC2046BDE83840FFF768
:104900006DB829462046FFF765FCE0E77C90050876
:1049100070B54379CD68012B0446164606D1436A2B
:104920000A465B8B3146FFF792F8686100231A460E
:1049300069692046FEF7B5FFE9682046FFF74AFCA3
:10494000062E05D1E36AA06AD3F888300021984783
:10495000E36AA06AD3F8BC500023AC461A46012192
:10496000BDE87040604700002DE9F04F87B0CDE909
:104970000221044605AAA32103A81F46FEF7C8FC8E
:104980004FF0000B0190D946DA465E46D846019BAF
:104990009B451ADB6EB1BAF1000F6CD1E36AA06AD5
:1049A0005B6C9847B9F1000F6BD1E36AA06A5B6C4E
:1049B0009847029AD4E90A03002A68D0D3F8C04085
:1049C000334642463946A04710E0059A52F82B502C
:1049D000002D41D0A8073FD12A79A52A0FD1F10790
:1049E00007D52C4A29462046FFF704F907B0BDE851
:1049F000F08F46F00106AA460BF1010BC7E7A62A85
:104A000007D1B20701D5244AECE746F00206A946D1
:104A1000F2E7A72A20D1EA6822B1930702D11279DE
:104A2000AB2A12D0A96801F00F02022A01D01B4A5A
:104A3000D8E7E26AA06AD26B09099047E968204684
:104A4000FFF7C8FB08F10108D6E7062229462046F1
:104A5000FFF75EFF0137CFE70EB1114AC2E7B8F1A9
:104A6000000F01D00F4ABDE729462046FFF7B2FBF1
:104A700001374646C0E7DAF808102046FFF7AAFBE0
:104A800090E7D9F808102046FFF7A4FB91E7D3F888
:104A9000BC4095E7BF8F0508D68F0508EE8F050847
:104AA0000F9005082A90050870B50D464179012937
:104AB0000446134603D12A46FEF7C9FF6861E36A3C
:104AC000A06ADB6C98476E6900231A46314620467F
:104AD000FEF7E7FEE36AF18ADB6BA06A9847E968B4
:104AE00029B18B0703D10B79A22B08BF00212046E7
:104AF00002230022FFF738FFF08A70BD436A10B529
:104B00005A8B0446FFF7D0FF01462046BDE810400F
:104B1000FFF77BBA00231A468968FFF725BF38B52F
:104B20000C460546C968FFF755FBA1682846BDE855
:104B30003840FFF74FBB0B79332B70B504460D4659
:104B400010D18968FFF746FBED68AD6885B9E36A67
:104B5000A06A5B6B0E219847E36A0422D3F8A03069
:104B600002211AE0C36A806A5B6B0E219847ECE76A
:104B7000AB071FD12B79982B13D1E36AA06A5B6B2B
:104B80000E219847A9680029E6D02046FFF722FBAE
:104B9000E36AD3F8A03004220321A06ABDE8704084
:104BA0001847992B06D1A9682046FFF713FBEB683D
:104BB0009968E8E729462046FFF70CFBCCE710B5DB
:104BC00004468968FFF706FBE36AA06A1B6D0021B3
:104BD000BDE81040184700002DE9F7438D680446F2
:104BE000164645B9F2B1C36AD3F8A030022229466D
:104BF000A06A984716E0AB0740F086802B79362BE9
:104C000013D132B1C36A806AD3F8A03002220121E5
:104C1000984720462946FFF7DDFAE36AA06AD3F8F1
:104C2000A430984703B0BDE8F0839D2B6CD1EB68AE
:104C30001A79A02A58D1A12101AA03F10800FEF790
:104C400067FBA968804621B38F0722D10B79362BE9
:104C50001FD136B1E36A411CD3F8A030A06A02220A
:104C60009847A9682046FFF7B5FAE36AA06AD3F827
:104C7000A43098474FF00109002747450FDBB9F1F1
:104C8000000FCFD1E36A0322D3F8A03008F101016D
:104C9000AEE72046FFF79EFA4FF00009ECE7019BD4
:104CA00053F8271099B18E0711D10E79A6F136006D
:104CB000464246412046FFF78DFAB9F1000F0FD06A
:104CC0003EB9164A29462046FEF794FFAAE7002679
:104CD000F0E7E36AA06AD3F8A43098470137CCE73D
:104CE000002EFBD00E4AEDE7AB684BB19A0707D117
:104CF0001B79362B04D104222946FFF709FE91E7E0
:104D0000052229462046F8E729462046FFF762FAA1
:104D1000E36A0322D3F8A030012169E7078C050874
:104D2000248C05080122FFF757BF2DE9F041074603
:104D300015460C4611B1FFF74DFA01243DB16E68DE
:104D40004FF00008360A0835B04509DB3444FB6AE9
:104D5000B86AD3F8A03021460022BDE8F0411847D8
:104D600055F8041B3846FFF735FA08F10108EBE760
:104D70000A460021FFF7D9BF2DE9F8430C468968A0
:104D80000546FFF727FAE668002E57D07768696A6C
:104D9000FBB209788C2BA36819BF04F10C0601271C
:104DA0003F0A0836072903F00F024BD1022A47D1E8
:104DB0001A099A2A48D1326811792F2944D1926868
:104DC000002A41D10A212846FFF70CF96A6AD36A02
:104DD000528D32B93168414A2846BDE8F843FEF7A2
:104DE00009BF5978C9070FD559682846FFF7FAF85F
:104DF000022FEB6A0BD8D3F8BC40A86A00231A46EE
:104E00000221A047012417E0013A0833E1E7726864
:104E100011793129EFD1B46821792F29EBD191682B
:104E20009B6CA86A012209099847A1680023012206
:104E30002846FFF799FD0324A74226D8BDE8F8834A
:104E40000024F9E7022AFBD140F29522B2EB131FAE
:104E5000F6D133681A792F2AF2D19B68002BEFD054
:104E600013F00304ECD11B792E2BE5D1EB6AA86A71
:104E7000D3F8BC80224623462146C04733682246E9
:104E800099682846FFF7A8FEBCE704F10108B84579
:104E90004FEA840356F824101AD20A79312A17D11E
:104EA0003344D3F8049099F804302F2B10D189683B
:104EB000EB6AA86A9B6C002209099847002301222B
:104EC000D9F808102846FFF74FFD08F10104B3E7B1
:104ED0002846FFF77FF9A046F7E700BF5C8C05087E
:104EE000436A1B78072B10B50A46044606D0022BEE
:104EF00004D0074ABDE81040FEF77CBE20461146AC
:104F0000FFF73AFF2046BDE81040FEF767BD00BF3F
:104F1000438C050870B50D46C9680446FFF75AF979
:104F2000A968E36AA06AD3F89830C1F30711312960
:104F30001ABF3D39C9B20221BDE870401847F8B523
:104F40004E680C4689680746FFF744F9360A0C3468
:104F500000250235AE4204F1080400DCF8BD54F827
:104F6000041C3846FFF736F954F8081CFB6AB86A87
:104F7000D3F89C3009092239C9B29847E9E72DE9ED
:104F8000F0414D680C4689688046FFF723F9A5F18A
:104F90000C07FFB22D0A0C340126AE4201DBBDE83E
:104FA000F08154F8041B4046FFF714F9D8F82C3070
:104FB000D8F82800D3F89C30394698470136ECE7FA
:104FC0002DE9F0414E6804460D46360A8968FFF720
:104FD00001F9032E83BFD4F8108008F10103236187
:104FE0004FF0000801277B1C9E4222DC032E55DD7A
:104FF0002569A06A6B1C2361E36A2946DB6E98472A
:10500000E36AA06ADB6A41469847E36AA06ADB6804
:1050100001219847E36AA06A5B6E9847E36AA06A39
:105020001B6E9847E36AA06ADB6A2946BDE8F04137
:105030001847296920460237FFF7CCF8B74207DA4C
:10504000E36AA06A9B6D9847E36AA06A9B6E9847E3
:10505000EB68E26AA06AD2F89C2003F00F010E29E7
:1050600011D1C3F30713242B1ABF323BD9B2062147
:105070009047B74205DAE36AA06A5B6F42460021B7
:1050800098470835AFE71979832901D13221EFE735
:105090009B680BB90721EBE73321E9E7BDE8F08115
:1050A00010B504468968FFF795F8E36AA06AD3F85B
:1050B00098300321BDE8104018472DE9F0474D68AE
:1050C000D0F810805FFA85F9A9F11D03D3F100092A
:1050D00049EB030908F10103044603612D0A01F1BC
:1050E00008060027AF4206DBE36AA06ADB6A414696
:1050F000BDE8F047184756F8041B20460137FFF774
:1051000069F8AF42EEDAE36AA06A5B6F424649464D
:105110009847E7E701F00F03022B70B504460ED065
:105120004B6803F0F702462A02D10123837170BD58
:10513000472AFCD0DBB2452B0DD10D696DB9A3799F
:10514000002BF4D1E38A002BF1D020461D4ABDE8A4
:105150007040FEF74FBDCD68F0E7A37943B3A38A53
:105160008E6801339BB2012BA3820ED1E18AD4E970
:105170000A03D1B1D3F8A03000229847E36AA06AAD
:10518000D3F8A03002220021984729462046FFF795
:1051900021F8E36AA06ADB6B31099847E36AA06AE9
:1051A000D3F8A430BDE8704018475B6C9847E5E73A
:1051B000E38A0133E38229462046BDE87040FFF7C9
:1051C00009B800BFB28C05082DE9F0410569CF6828
:1051D000AB1C03618846044600222B46B968FFF7E2
:1051E00083F9D8F808102046FEF7F4FFE36AA06AB6
:1051F000DB6E6E1C31469847E36AA06ADB6A29467B
:105200009847E36AA06ADB684FF0FF319847F96876
:105210002046FEF7DFFFE36AA06ADB6A3146BDE89D
:10522000F04118472DE9F0470446904699460F464D
:1052300021B91946BDE8F047FEF7CCBF0669731CDB
:10524000036115683DB315F0030A24D12B797A2B3D
:1052500021D1A968FEF7BEFF524631462046FEF72F
:10526000E2FA5246E9682046FFF704F808F1040222
:105270004B46791E2046FFF7D5FFE36AA06AD3F8B4
:1052800080303146984720460321FEF7C4FABDE836
:10529000F047FEF7D8BA29462046FEF79BFF204686
:1052A00000223146FEF7BFFAE36AA06A1B6E9847F8
:1052B000DCE737B50C46054601AA792104F1080060
:1052C000FEF726F8E368019A01462846FFF7AAFF91
:1052D00003B030BD2DE9F04F85B006691D460E9B29
:1052E0000393731C0293B31C044603610F46934659
:1052F00031460122FEF797FA39462046FEF76AFF4B
:10530000E36AA06AD3F894300022711C9847E36ADC
:10531000A06ADB6A31469847E36AA06AD3F8D030C6
:105320009847D4F8108008F10103236100265E45F8
:1053300018DB2046FEF787FAE36AA06AD3F8D43078
:105340009847E36A0299DB6AA06A98470399204666
:10535000FEF740FFE36AA06ADB6A414605B0BDE89C
:10536000F04F18472B46D4F810901A68019209F1B3
:1053700001022261019A976804350136002F47D156
:10538000B3453AD1E36AA06A1B6E98474FF0000A12
:105390005746019B2046D968FEF71CFFBAF1000F63
:1053A00019D0E26AA06A526B0E219047E26AA06AA5
:1053B000D26A39469047E26AA06A526B0E21904742
:1053C00051462046FEF721FE20465146FEF7F0FEEC
:1053D0002046FEF738FAE36AA06AD3F89430012237
:1053E00041469847E36AA06ADB6A49469847E36A00
:1053F000A06ADB680121984799E720461E4A196890
:10540000FEF7F8FB204605B0BDE8F04FFEF71BBAEB
:1054100017F003032BD1397975293A462AD1D3687D
:10542000BF684FEA131AE26AA06A926D9047394644
:105430002046FEF7CFFEE26AA06AD2F89C2008213F
:105440009047E26AA06A176F00214A46B847BAF14E
:10545000000F97D051462046FEF7D7FD27697A1CEA
:105460002261394602222046FEF7DDF991E74FF02E
:10547000000AD8E79A46D6E74C9005082DE9F3478D
:10548000056999466B1C17460E46036102222946A0
:105490000446DDE90AA8FEF7C6F917BBE36AA06A6D
:1054A000DB680321984731462046FEF793FEE36A06
:1054B000A06ADB686FF002019847E36AA06A5B6B41
:1054C0000E219847E36AA06ADB6A2946984720467E
:1054D0004146FEF77FFE204602B0BDE8F047FEF7EA
:1054E000B2B9CDF800A04B463A4631462046FFF708
:1054F000F1FEE2E77FB5CD682B79772B06460C46A7
:1055000009D1AB6801930023009389681A46FFF71D
:10551000B5FF04B070BD732B03AA4FF0760116D10E
:1055200005F10800FDF7F4FE2B6902463BB9EB6874
:105530000093039BA1683046FFF7CCFEE9E79B6828
:105540000193EB680093A168039B3046DFE704F109
:105550000C00FDF7DDFE002300930246039BE9E704
:105560002DE9F04F8A6802F00F02022A89B08246C4
:105570000E4640F02B81CA68002A00F0278194076C
:1055800040F0248111792B2940F02081916801F0AD
:105590000F00022840F01A8109097C2940F0168189
:1055A000D26811792F2940F0118192680692A321C7
:1055B00007AA06A8FDF7ACFE421E022A00F20681E9
:1055C000079901280A6800F0F28002284C6800F070
:1055D00061818D68E80740F1F9806B0800F0F68082
:1055E00032B1910704D11179A539022940F2EE8038
:1055F00034B1A30704D12179A539022940F2E6800C
:10560000B3680193336977690293DAF81060DAF8C6
:105610001830BAF81C100493BAF81E30039306F140
:105620000109B31CAAF81E1014F0010806F10401C8
:105630000593AAF81860AAF81A9006F1030BCAF8A5
:10564000101005D1214650460592FEF7C3FD059A7C
:1056500011465046FEF7BEFDDAF82C20DAF8280095
:10566000D26E59469047DAF82C20DAF82800D26A30
:10567000B11C9047DAF82C20DAF82800926D904798
:10568000002201995046FEF7F5FD02995046FEF7BB
:10569000A1FDDAF82C20DAF82800D26A49469047B2
:1056A00029465046FEF796FDDAF82C20DAF8280055
:1056B000D2F89C200E219047DAF82C20DAF8280046
:1056C000D26A59469047DAF82C20B8F1000F72D10F
:1056D000D26DDAF828009047DAF82C20DAF82800A2
:1056E000526E9047DAF82C20DAF82800D2F89C2085
:1056F000002DACBF002101219047DAF82C20DAF808
:105700002800156F0121B21CA847049BCAF8183065
:10571000039BAAF81E30002F56D0DAF82C20DAF8B6
:105720002800126E9047B8F1000F05D1DAF82C204E
:10573000DAF82800126E904739465046FEF74AFDC7
:10574000DAF81050DAF828006A1CCAF81020DAF8E3
:105750002C202946D26E9047E143DAF82C20DAF863
:105760002800D26801F0010101319047DAF82C20BD
:10577000DAF82800D26A31469047DAF82C20DAF8B5
:105780002800126E9047B8F1000F05D1DAF82C20EE
:10579000DAF82800126E904737B1DAF82C20D26A76
:1057A0002946DAF82800904709B0BDE8F08F144682
:1057B000032502461CE7DAF82800926D904721463F
:1057C0005046FEF707FD8DE73D46CFE7DAF810407B
:1057D000BAF81C20BAF81E80AAF81E206FEA4442CC
:1057E0006FEA5242DAF81890AAF81820E21CCAF8B8
:1057F0001020651CF168AAF81A505046FEF7EAFC22
:10580000DAF82C20DAF82800D2F888200121904715
:10581000DAF82C20DAF82800D26A29469047DAF81C
:105820002C20DAF82800D2F88C20A71C39469047A3
:105830000022B1685046FEF71DFD50463169FEF763
:10584000C9FCDAF82C20DAF828009268904730B9C1
:10585000DAF82C20DAF82800D26E29469047DAF8D8
:105860002C20DAF82800D26A39469047DAF82C2042
:10587000DAF82800D2F8902090477169CAF8189099
:10588000AAF81E805046FEF7A5FCDAF82C20214627
:10589000D26A86E70325A3E62DE9F0470669D0F82A
:1058A00018A0B0F81E900683B31C036106F101082E
:1058B000838BA0F81A800446C38388680D46FDF7E1
:1058C0001FFBF8B927697B1C2361A868FDF726FB3D
:1058D00020B9E36AA06ADB6E41469847E36AA06A92
:1058E000DB6A39469847E9682046FEF773FCE36AAD
:1058F000A06ADB6A414698473B460122A9682046D8
:10590000FEF7F2FD2969C4F818A02046A4F81E90FD
:10591000FEF760FCE36AA06ADB6A3146BDE8F04747
:1059200018472DE9F3470669731C0361044688682C
:105930000D46FDF7E5FA024610BB27697B1C236183
:10594000A9683B462046FEF7CFFD2046E968FEF7F2
:1059500041FCA868FDF7E2FA00BB2B690BB96B6943
:105960004BB1E36AA06A9B68984720B9E36AA06AD2
:10597000DB6E31469847E36AA06ADB6A394698478E
:1059800001AA702105F11000FDF7C2FC0027824634
:1059900057450BDB69692046FEF71CFCE36AA06AE9
:1059A000DB6A3146984702B0BDE8F087019B53F8A7
:1059B0002780D8F80800FDF7A3FA024620BBD4F8E8
:1059C000109009F101032361D8F808104B462046D6
:1059D000FEF78AFD2046D8F80C10FEF7FBFBD8F83E
:1059E0000800FDF79BFA0028D8D1E36AA06A9B68FB
:1059F000984720B9E36AA06ADB6E31469847E36AAC
:105A0000A06ADB6A494698470137C1E72DE9F74F9D
:105A1000044692469B46894629B9194603B0BDE81B
:105A2000F04FFEF7D7BB05692B1D036113686F1C90
:105A300005F10208EE1C002B00F0F28013F00302C7
:105A400040F0EE8019797A2940F0EA809968019255
:105A50000093FEF7BFFBE16AA06A896D8847A82121
:105A60002046FDF7D4FFDDE900322046D968FEF775
:105A700001FC022229462046FDF7D5FEE36AA06A12
:105A8000DB68032198470AF104025B4609F1FF3104
:105A90002046FFF7BBFFE36AA06ADB686FF00201F4
:105AA0009847E36AA06A5B6B0E219847E36AA06A95
:105AB0005B6E9847E36AA06ADB6E39469847E36AF3
:105AC000A06ADB6A29469847E36AA06A9B6D9847FB
:105AD000E36AA06A9B69012221219847E36AA06AD0
:105AE000D3F89C3008219847E36AA06A1B6F4246AE
:105AF00000219847E36AA06A9B6D9847E36AA06A11
:105B00009B6E9847E36AA06A5B6E9847E36AA06A57
:105B10009B6C0022A9219847E36AA06A9B6E984774
:105B2000E36AA06A9B6E9847E36AA06A9B6D9847F8
:105B3000E36AA06A5B6D00220A219847E36AA06AC3
:105B40005B6E9847E36AA06A5B6B0E219847E36A35
:105B5000A06AD3F8C05000231A460321A847204664
:105B6000FDF73CFFE36AA06A1B6F324600219847AD
:105B7000E36AA06A1B6E9847E36AA06A5B6B0E211A
:105B80009847E36AA06ADB6E31469847E36AA06AE9
:105B9000DB6802219847E36AA06ADB6A41469847BE
:105BA000E36AA06A9B6E9847E36AA06A9B6E984777
:105BB000E36AA06ADB6A39469847E36AA06A9B6C8D
:105BC0000022A9219847E36AA06A5B6B0E219847DF
:105BD000E36AA06A9B6D9847E36AA06A9B6D984749
:105BE000E36AA06AD3F8C05000231A460321A847ED
:105BF0002046FDF7F3FEE36AA06A1B6E9847E36A4E
:105C0000A06ADB684FF0FF319847E36AA06ADB6A5D
:105C100031469847204603B0BDE8F04FFDF713BE6C
:105C200019462046FEF7D6FAE36AA06A9B6D9847AC
:105C30002046A821FDF7EBFEE36AA06A1B6E984799
:105C400017E72DE9F04F8D682B79032B87B00446B9
:105C50000AD12946FEF7EBF9AA69138B43F0010339
:105C6000138307B0BDE8F08F162B40F0A4800669BF
:105C7000EB684FEA1318331D0361E968FEF7AAFACF
:105C80002046AA21FDF7C3FE41462046FEF7BDF996
:105C90002769A3690293BA1C2261A28BE38BE2837A
:105CA000E26A01937B1C6383194606F1010BA06A2B
:105CB0002783D26A03939047012259462046FDF775
:105CC000B2FD41462046FEF78DF92046AC21FDF796
:105CD0009EFEA96820460022FEF7CCFAE26AA06A7E
:105CE000D2F8948006F1020949460022C047E26AD0
:105CF000A06AD26A59469047E26AA06AD2F8D020D8
:105D00009047E26AA06A926D9047E26AA06AD2F870
:105D1000188040F2B2210122C047E26AA06AD2F89C
:105D20009C2008219047E26AA06AD2F8708006F1B0
:105D3000030A52460021C047E26AA06A126E9047E9
:105D4000E26AA06AD2F8948031460122C047E26A32
:105D5000A06AD26A51469047E26AA06AD2680121DD
:105D600090472046FDF76FFDE26AA06AD2F8D42082
:105D70009047E26AA06AD26A49469047296920465C
:105D8000FEF728FA039BE26AA06AD26E1946904792
:105D9000029BA361019BE383E36AA06ADB6A31464D
:105DA000984769692046FEF715FAE36AA06ADB6A3C
:105DB0003946984755E705AA792105F10800FDF70E
:105DC000A7FAEB68059A01462046FFF71FFE48E751
:105DD00070B58D6804463DB9C36AD3F8C83029460A
:105DE000A06ABDE870401847AB070ED12B795D2B38
:105DF0000BD1A968FEF7EEF9E9682046FEF7EAF94B
:105E0000E36A0221D3F8C830EAE729462046FEF7C4
:105E1000E1F9E36A0121D3F8C830E1E710B504469F
:105E20008968FEF7D7F9E36AA06A1B6EBDE81040E7
:105E3000184700002DE9F04705460C4604F00F0313
:105E4000022B05D121092846BDE8F047FEF7B0B97D
:105E5000002C68D0A20766D123792B2B39D1A168F9
:105E60002846FEF7B7F9E668002E5CD016F0030866
:105E700059D17768FAB28C2A334609D13F0A06F124
:105E8000080907F1FF3AC24510DC013756F8273000
:105E90001A79302A12D199682846FEF79BF9EB6AE5
:105EA000A86A1B6D0221BDE8F047184759F8041B8A
:105EB0002846FEF78FF908F10108E4E7312A32D1CC
:105EC0009968EB6AA86A5B6D02220909BDE8F04790
:105ED00018472C2B27D1A4682CB3E668EEB1B30782
:105EE0001BD17768FAB2932A01D1A468A6E7942A55
:105EF00011D1A1682846FFF79DFF3F0A083600240C
:105F0000BC4201DBBDE8F08756F8041B2846FFF7CA
:105F100091FF0134F4E7AB2A05D0A1682846FFF7CA
:105F200089FFE4688AE721462846024ABDE8F0472F
:105F3000FDF760BEEF8B05082DE9F041CD68044602
:105F40000F4635BB0379BBB1436A1D78A5B9CB2198
:105F5000FEF748F8B9682046FEF73CF9E36AA06A04
:105F6000D3F8BC602A462B460121B047E36AA06AF9
:105F70001B6EBDE8F0411847B968880700F0A9809A
:105F800001F00F03022B40F0AB802046FEF722F910
:105F9000ECE7A90740F097806B68DAB2562A13D174
:105FA0000122B968FEF766F9E9682046FEF712F9A2
:105FB000A968E36AA06AD3F89C3009093C39C9B2E0
:105FC00098470222B96879E0572A25D11B0A03F1C4
:105FD000FF38013355F82310FEF7FCF8B8F1000F35
:105FE00003DDE36AA06A9B6D98470022B9682046EA
:105FF000FEF740F908350026464571DA0136464578
:1060000003DAE36AA06A9B6D9847002255F8041BE7
:106010002046FEF72FF9EFE7062A54D1BE68002E7E
:1060200051D0B2074FD17268D1B206294BD14FEA95
:106030001228B8EB132F46D1A8F10203012B42D846
:10604000B36823B1980702D11B79212B3BD0F368A9
:1060500023B1990702D11B79212B34D0B8F1020F5B
:1060600006D0336923B19A0702D11B79212B2AD09C
:10607000A9682046FEF7AEF8E9682046FEF7AAF8C0
:10608000B8F1030F07D120462969FEF7A3F8E36AA8
:10609000A06A9B6E9847E36AA06A5B6E98470022ED
:1060A000B1682046FEF7E6F80022F1682046FEF7C8
:1060B000E1F8B8F1030F13D1316900222046BDE8A1
:1060C000F041FEF7D7B829462046FEF783F80022B4
:1060D00078E700293FF459AF0B79392B7FF455AF9E
:1060E000BDE8F0812DE9F04F044685B08B4602AA49
:1060F0003F210BF10800FDF70BF9636A00265D8B69
:106100000746B146BE420ADBDBF80C100B79032BC5
:1061100050D12A462046FDF7C4FC054658E0029BB4
:1061200053F82630019303AA6B2103F10800FDF711
:10613000EFF8039B19680A09732A82460DD020469E
:10614000FEF748F84FF00108D04527DB019BD968DE
:1061500059B12046FEF73EF807E0022807D02A4A48
:106160002046FDF747FD09F101090136CAE75968E4
:106170000B09412B0CD0B3F5757F0BD040F29E423A
:10618000934209D040F2E6229342E8D10425EAE79F
:106190000125E8E70546E6E70325E4E7039BA06A57
:1061A00053F82810E36A00225B6D0909984708F14B
:1061B0000108C9E7412B17D18E682A46314620468F
:1061C000FDF76FFCB269138B43F00103054613839F
:1061D0000026A7EB0907B7420BDC29462046FDF74E
:1061E00014FF05B0BDE8F08F2A462046FEF75CFCA0
:1061F00093E7E36AA06AD3F8BC8000231A46012122
:10620000C0470136E7E700BF948C05084B682DE9CD
:10621000F04106460F461D0A01F108080024AC4271
:1062200001DBBDE8F08158F8041B3046FDF7D2FFD2
:10623000B36843B1023406F10C0057F82410BDE8EE
:10624000F041FDF7CDBC0134E9E710B50446FFF796
:10625000DDFFE36AA06AD3F89C302221BDE810403C
:10626000184770B58D68044645B9C36AD3F8A030A5
:1062700001222946A06ABDE870401847AA0739D113
:106280002B79902B36D1EE6836B3B30724D133790E
:10629000932B08D1A968FDF79DFFE36A0122D3F88B
:1062A000A0301146E6E7942B0ED1A968FDF792FFC6
:1062B00031462046FFF7AAFF7168E36A090A012206
:1062C000D3F8A0301144D5E7AB2B05D129460322E2
:1062D000BDE87040FEF71CBBA9682046FDF77AFFB9
:1062E000E9682046FDF776FFE36A0122D3F8A03083
:1062F0000221BFE729462046CDE7896830B405462C
:1063000019B90A4630BCFEF710BDCB688BB113F04B
:1063100003020ED11C79932C01D18968F2E7942CE9
:1063200001D11A46F9E7AB2C03D1062230BCFEF7A7
:10633000EFBA0A4628460021E4E70000184B2DE991
:10634000F041D3F8E06104460F463EBB05696B1C83
:10635000036101222B468968FEF7C6F8E36AA06A4A
:106360009B691F2101229847F96851B12046FDF72A
:1063700031FFE36AA06AD3F8BC703246334601218C
:10638000B847E36AA06AD3F8C83001219847E36AA6
:10639000A06ADB6A2946BDE8F0411847BDE8F081F4
:1063A000182D0020426A1278072A2DE9F041044690
:1063B00004D01B4ABDE8F041FDF71CBC8D685DB9F7
:1063C000C36A806A5B6B0E219847E36AA06AD3F8C0
:1063D000C430BDE8F041184715F003021DD12B79F8
:1063E0001A2B1AD10669EF68731C0361B96833462A
:1063F000FEF77AF8A9682046FDF7ECFEE36AA06A8A
:10640000D3F8C4309847E36AA06ADB6A31469847FC
:10641000F9682046FDF7DEFED7E72946F9E700BF19
:10642000688E05082DE9F74F4379012B04460D4688
:1064300008D10F79102F08D0436A1B782BB9224A54
:10644000FDF7D8FB03B0BDE8F08F01AA6C2105F180
:106450000800FCF75DFFDFF87CB080460026B04501
:10646000F0DD019B606A53F8261000220909FDF750
:1064700083F9102F8146027815D112F0FD0F05D057
:106480005A4629462046FDF7B5FB0AE04FF0020ABE
:1064900080F800A04168606AFDF78FF908B180F8C4
:1064A00000A00136DBE75AB9012202700146606A9A
:1064B000FDF789F999F80030012BF2D1034AE0E7A2
:1064C000052AEED0024ADCE7C88D05080C8E0508C7
:1064D0002A8E0508ED8D05082DE9F04F91B00D4687
:1064E000144601903422002103A818F011FF4FF048
:1064F000FF330893019AAB4B126893F8E43102958D
:10650000002102A88DF80C40FDF7A1FA054600F025
:1065100041FEA54B0A9C0C9080460D9300270CB1C0
:10652000049E26B30A9C14B1049B002B3FD039462D
:10653000404600F032FEDFF870920A9CDFF86CA251
:10654000DFF86CB20026049B002C00F03381002B96
:1065500000F0E8800B9B05A8D968FDF741FB0B9B79
:10656000059ADB8A0299049808F0F6FD25E1638B11
:10657000042B4FF00102214602A807D1FDF74EFB84
:10658000069BA4689F4238BF1F46C8E7FEF78EF8F7
:10659000638D9E42F4D2E36A03EBC60113F83630F2
:1065A000012B02D12046FDF70EF90136F0E7228BD0
:1065B000520712D5618D11F1FF310ED3E26A02EB61
:1065C000C1025078860723D53BB1D3E900C692E8D3
:1065D000030083E80300C2E900C64FF000036384B0
:1065E0000026B4F82AC0664518DB00239C454ED12E
:1065F000D4F804E0BEF1000F08D00020BEF82AB0A5
:106600000346584553DB002B40F08A80A4688AE794
:10661000002BD0D1012808BF1346CCE72378D4F84B
:106620002C904FEAC60B012B09EB0B0A05D1DAF8C7
:1066300004300A2B12D10136D3E719F836300DD9C0
:10664000012B0BD14FF0020309F80B30638B032BA6
:1066500016D0238B43F01003238303E019F80B308B
:10666000022BF3D019F80B30032B03D09AF801302A
:10667000DB07E0D5638C5A1C6284AAF80230DAE7A3
:10668000DAF8040006F064F90128EBDCE1E7E26ADD
:1066900002EBC30112F83320042A06D14A78D60748
:1066A0005FBF628C4A800132628401339EE7DEF86C
:1066B0002C2002EBC00A12F83020043A012A15D827
:1066C000002611E0E26A02EBC60912F83620052A1C
:1066D00009D1D9F804201146DAF804208A4204BF0F
:1066E000A9F8023001330136B445EBD1013088E717
:1066F000E06A00EBC20110F83200052802D14878A8
:10670000C00702D548881844488001329445EFD12B
:10671000A28B9BB21A44A283628C1344638475E7F4
:106720000022F3E7638B042B17D10E9B1BB938466D
:1067300004F066FA0E9000230322214602A80C936F
:10674000CDF83CB0FDF76AFA049B23B90422214638
:1067500002A8FDF763FAA468F5E6023B012B1ED8F8
:106760002EB93A4606A904A803F09AFB0646CDE9DD
:106770000C6A0222214602A8FDF798FF049B002B19
:10678000E9D10322214602A8FDF790FF049B002BCC
:10679000E1D10422214602A8FDF788FFDBE7CDE91D
:1067A0000C89E6E7182D002098900508F09205085E
:1067B000AC940508002B7FF4CDAE404600F0F5FC0C
:1067C00016B1304603F08AFB0E9808B104F02DFA9A
:1067D0000198FCF785FF2C69AE682846FCF7B2FFEC
:1067E0003546002EF8D1049808B1F9F735FC324649
:1067F0003146204604F08EFA11B0BDE8F08F00BF9C
:1068000010B504460122FCF7B7FF2378012B04D909
:106810000378012B04BF0323037010BD70B5054638
:106820000E46104619461C46FCF796FF0378012BCE
:1068300006D17368002221462846BDE870401847FB
:10684000022B02D173680122F5E736684288032BD8
:1068500021462846B4460CBF00230123BDE8704002
:1068600060478079003018BF012070474379012BC1
:1068700009D083681944C36881609A8C9142C8BF6B
:1068800099840023837170476FF00301FFF7EEBF17
:106890000421FFF7EBBF6FF00201FFF7E7BF0346EC
:1068A000026A4079032888BF186B114494BF1846C8
:1068B00080181962704710B50C460121FFF7EFFFF1
:1068C000047010BD0346806A5A79032A88BF5A6A49
:1068D000014484BF1218186B996294BF184680183F
:1068E000704710B50C460121FFF7ECFF047010BD96
:1068F00038B51446FFF7BAFF0121FFF7E3FF047034
:1069000038BD53220121FFF7F3BF54220121FFF7C5
:10691000EFBF57220121FFF7EBBF58220221FFF7FB
:10692000E7BF59224FF0FF31FFF7E2BF5A220021A3
:10693000FFF7DEBF5B220021FFF7DABF5D224FF0D9
:10694000FF31FFF7D5BF002915BF5F225E2203216B
:106950000021FFF7CDBFA1F13002D2B20021FFF735
:10696000C7BF62226FF00101FFF7C2BF10B56322FB
:1069700004464FF0FF31FFF7BBFF0123A37110BDA9
:1069800001F16402D2B24942FFF7B2BF10B501F182
:1069900067020446D2B24942FFF7AAFFE268138BAE
:1069A00043F00103138310BD70B51C461546FFF775
:1069B0005DFF0321FFF786FF4470240A0570847091
:1069C00070BD012A10B40B46044608D0022A0ED12D
:1069D00069224FF0FF315DF8044BFFF789BF114684
:1069E0001B322046D2B25DF8044BFFF7DDBF4FF0FB
:1069F000FF31F5E70B4610220121FFF7D5BF113219
:106A00000B46D2B20121FFF7CFBF10B4002A4FEAE4
:106A100042040B4618BF1522C4F1010108BF14221D
:106A20005DF8044BFFF7C0BF16320B46D2B24FF0F1
:106A3000FF31FFF7B9BF19320B46D2B20021FFF781
:106A4000B3BFF8B516461F46FFF710FF4379032B77
:106A500081BF846AC269C4F5FF4452F8273088BFF9
:106A60007D344FF003018CBFE4180024FFF72AFFA8
:106A70004470241206708470F8BD0B464222002137
:106A8000FFF7DFBFF8B516461F46FFF7EFFE437965
:106A9000032B81BF846AC269C4F1FF2404F57F041B
:106AA00084BF52F82730FD344FF003018CBFE41847
:106AB0000024FFF707FF4470240A06708470F8BDB5
:106AC000002A02F147020B46D2B20CBF022100217C
:106AD000FFF7D8BF0B464B220121FFF7D3BF0B4670
:106AE0004A220021FFF7CEBF264BD3F8E031022B1C
:106AF0002DE9F047064689460ED84569A9420BD9CB
:106B0000846A03694D1BE41A40F2FF7755EA0403D7
:106B100004D1B36AC6E90439BDE8F087062D01D96E
:106B20000F2C1AD91F2CA24628BF4FF01F0A54451C
:106B300010D8032DA84628BF4FF003080121304686
:106B4000FFF7ADFE4AEA48130370A4EB0A04A5EB75
:106B50000805DBE74FF00008F0E7BD42A8464FF01C
:106B6000020128BFB8463046FFF799FE4FEA1813D6
:106B700003F07003234363F07F03037080F8018008
:106B8000A246E2E7182D002038B50D460021FFF798
:106B90006DFE4379012B05D0032B9EBFC369826A2A
:106BA00043F8252038BD70B50D46044611462AB974
:106BB0002B461322BDE87040FFF7F6BE022A04D12F
:106BC000FFF79FFE2046FFF7B1FE2B4618226FF01D
:106BD00001012046EEE710B5044631B955224FF0C9
:106BE000FF31BDE81040FFF783BE022904D1FFF753
:106BF00088FE2046FFF79EFE56226FF002012046D7
:106C0000EFE7134621B143224FF0FF31FFF719BFE1
:106C10004422F9E7134621B145224FF0FF31FFF737
:106C200010BF4622F9E72DE9F04105460C4621F454
:106C300000471646C2B90B040ED55921FFF751FE85
:106C400059212846FFF74DFE59212846FFF749FEF6
:106C500059212846FFF745FE3B462846422200219F
:106C6000BDE8F041FFF7EDBE3B4600214022FFF7B3
:106C7000E8FE210A21F07F0131432846C9B2BDE870
:106C8000F041FFF72EBE322938B5054613D033291F
:106C900014D101240721A1F12902D2B24FF0FF3112
:106CA0002846FFF725FE5CB12846D3220021BDE827
:106CB0003840FFF71DBE01240621ECE70024EAE777
:106CC00038BD4379012B70B5044626D00021FFF76B
:106CD000F2FD626B236A00259B1A6363A563E0687B
:106CE000438D9D421AD3A38FE3876379032B25D16C
:106CF000A36A206A6062E3621844F9F7ECF9E3687A
:106D00002063988BDB8B1844A38F1844B4F8403071
:106D100018448000F9F7DFF9606470BDC36A03EBC3
:106D2000C50213F83530042B06D191782046FFF7C1
:106D3000C2FDA36B0133A3630135D0E7042BECD173
:106D4000038B626C216B0069BDE8704003F0C0BF2B
:106D500001F110033F2B73B506460C4607D8A1F18D
:106D60008002D2B20121FFF7C3FD02B070BD012144
:106D70002222FFF7BDFD0DF105031946E2B202F034
:106D80007F00E41103F8010C601C012803F1FF35BA
:106D900016D8013402F0400214D11AB97F2205F846
:106DA000012C9D1E491B3046FFF78CFD01AC0146AE
:106DB0002B46A3420AD15D1B9DF804204255D4E71F
:106DC0002B46DBE7002AEDD00022E8E713F8012B81
:106DD00062F07F0201F8012BEBE773B50DF10504BA
:106DE00006461D46FFF784FD214605F07F03ED09A9
:106DF00004F8013DF9D1091B3046FFF763FD01ADF1
:106E000001462346AB4205D19DF804201B1BC2540A
:106E100002B070BD13F8012B62F07F0201F8012B64
:106E2000F0E770B4C4681E46A58BE38BB0F8404011
:106E30001D44C38F1D44631CA0F84030631944797E
:106E4000042C04BF446C44F8236070BCFFF7C5BF3A
:106E50000969134308BF32220B4616BF33220121B2
:106E60004FF0FF31FFF7DDBF70B514460A69049992
:106E70000B43054613460CBFC4F10101E143E6B2E2
:106E80000CBF20222122FFF7CCFF31462846BDE867
:106E90007040FFF726BD10B4044643B90F2A06D848
:106EA000503AD2B201215DF8044BFFF721BD03F146
:106EB0002401204613465DF8044BCAB20121FFF7B6
:106EC0008CBF10B404464BB90F2A07D8403AD2B24F
:106ED0004FF0FF315DF8044BFFF70ABD03F12601C7
:106EE000204613465DF8044BCAB24FF0FF31FFF75E
:106EF00074BF03F128011346CAB20021FFF76DBF2A
:106F0000022A02F12A020B46D2B214BFC1F10101DA
:106F10000121FFF762BF032910B40CD004290DD062
:106F2000002102248B1844EA83032F22C9435DF811
:106F3000044BFFF752BF00210C46F3E70121FBE7AA
:106F40000B4630220139FFF748BF10B4144641EA1E
:106F50000223214431225DF8044BFFF73EBF70B499
:106F6000DDE90365D2B203EB460443EA062315B11B
:106F700001320234D2B2091B70BCFFF72EBF07B535
:106F8000CDE900230B4634220021FFF7E8FF03B0D0
:106F90005DF804FB07B5CDE900230B4636224FF020
:106FA000FF31FFF7DCFF03B05DF804FBC268938B91
:106FB000D28B1A44838F10B45C1C134442798487AB
:106FC000042A08BF426C5DF8044B08BF42F8231046
:106FD00023220121FFF701BFFFF7E8BF0C2902D1EF
:106FE0000449FFF7E3BF01F14302D2B20121FFF7E9
:106FF0007FBC00BF2CBA050838B504460D460E21EB
:10700000FFF7ECFF20462946FFF7BEFD02215C2278
:10701000FFF76EFC20466FF00301BDE83840FFF734
:1070200025BC2DE9F74F15460446002361716E8C8F
:107030008360C0E90323837183620362AB8CB5F87C
:107040002680AF8BB5F81890B5F820B00122F6185D
:1070500008BF16468A464FEA8801013E426101F0A8
:10706000040107F003021143F20002F07802EB8BF7
:1070700009F00F09114336094FEA5808BF0846EADC
:10708000080242EA09023A431A4352EA0B023ED18D
:107090002046FFF710FCBAF1020F16D9D4E90D32E1
:1070A000590002F001009B09520801F07E010143E2
:1070B00063631343A26318BF41F080012046FFF7CA
:1070C000FAFBD4E90D321343E8D1236A636302214A
:1070D0002046EE8AFFF7E3FB0670360A467002216F
:1070E0002046AE8AFFF7DBFB00230670BAF1040FDF
:1070F0004FEA16264670A387A4F8403047D1A88BE4
:10710000EA8B1044984242D06E8D00213BE041F062
:10711000800120460193FFF7CEFB4FEA891132012F
:1071200002F03002019B01F0400111430BF001021B
:107130001143DA0002F008021143BA0002F004021F
:1071400011434FEA480202F002021143B6084FEA27
:1071500058084FEA59097F085B084FEA5B0B8EE736
:10716000EA6A02EBC1025778FF070BD557889F42A6
:1071700008D15268616C920042F0020241F823206B
:107180000133BFE701318E42EADC0522F2E703B0AA
:10719000BDE8F08F4820F8F79EBF10B50446816126
:1071A0008800F8F77FFFE06110BD10B50446C069A4
:1071B000F8F7A0FF2046BDE81040F8F79BBF10B5D8
:1071C000044601618800F8F76DFF606110BD10B5DD
:1071D000044611B1C068F8F78DFF6069BDE8104042
:1071E000F8F788BF012938B504460D460ADC026964
:1071F000406992004FF0FF3118F08AF800232560B3
:10720000636038BD4068F8F74DFF6368E060A360D5
:10721000F4E7D0E90032022B0ABFC36800239B18B1
:1072200011444160184670470368012BDEBF436973
:10723000426843F82120704742684B1E134449427C
:107240000B404360704738B50C461546FFF7E1FF29
:1072500010B10444A04200D138BD00F8015B2D0AF2
:10726000F8E7704710B50C460221FFF7D2FF10B1C6
:107270000470240A447010BD38B50D46042114462C
:10728000FFF7C7FF28B1057084702D0A240A4570E6
:10729000C47038BD032998BF144B70B591BF5E5CB4
:1072A0000239FE2621F0010498BF002446F435413E
:1072B0000546FFF7D7FF44B17F2C09D844F430418D
:1072C00041F080012846FFF7CDFFC5E9066470BD97
:1072D000A300A201DBB202F4E0421A4342F450627E
:1072E0004FF2AD212846FFF7C7FFEEE77091050882
:1072F000C16910B5044629B17F290BD841F430414A
:10730000FFF7B0FFA169204641F43D41BDE81040C0
:10731000FFF7A8BF8B008A01DBB202F4E0421A43F8
:1073200042F450624FF20D21FFF7A6FFEAE7114346
:1073300041EAC301FFF796BF072A85BF083AD2008A
:10734000D20042F04002072985BF0839114311439A
:1073500041F0800141F48C41FFF784BF70B5DCB28D
:1073600044EA02225C101D0104F48064C3F3033379
:107370004668234305F4E0452A431943FFF77CFFA1
:10738000304670BD38B5436953F821404368E41A6C
:10739000043C0546C4F34A0141F46041FFF762FF33
:1073A0002B68022B0AD124F4FF6020F0070028B1DB
:1073B00010F5006F14BF0020012038BD0120FCE74C
:1073C000F8B5446954F822404268A41A043C0646C1
:1073D00065101F46B3B9EDB245EA012141F45041B1
:1073E000FFF740FF3368022B0AD134F0FF0307D0C8
:1073F00013F5807F14BF002301231F463846F8BDD4
:107400000123FAE7A61204F4005206F48066C4F3DE
:107410008534C5F30B0534432A4344EA811142F411
:10742000004241F47041FFF727FFE7E738B54369B1
:1074300053F821404368E41A043C0546C4F34F0264
:10744000C4F30A3142F4784241F47041FFF714FF6B
:107450002B68022B08D1A00D800528B110F5800FF4
:1074600014BF0020012038BD0120FCE7F8B5044618
:107470000D461646476813460A464FF24021FFF76D
:107480006DFF330C2A464FF2C0212046FFF766FFFE
:107490003846F8BD072910B404460AD832F0FF0375
:1074A00007D142EA012141F400515DF8044BFFF796
:1074B000D9BE130C1B0443B9134620460A465DF897
:1074C000044B4FF24021FFF749BF20465DF8044BC3
:1074D000FFF7CCBFC9B241EA022141F41041FFF7E6
:1074E000C1BED2B242EA012141F41841FFF7BABE4F
:1074F000D2B242EA012141F42841FFF7B3BE38B5C8
:10750000436953F8223042689B1A083B0C4643F00B
:1075100001030A464FF240210546FFF71FFF2101F4
:1075200001F0800104F00704214341F4884128461A
:1075300041F07801BDE83840FFF794BE072930B428
:10754000054614460CD8072A0AD81F2B08D841EA4A
:10755000C20141EA831141F4D04130BCFFF782BE41
:107560009B0043EA013244F47841284641F0D001BF
:1075700030BCFFF781BE436953F821104368CB1A32
:10758000043B013130B4C3F34A0204460DD0D91C88
:107590000BDA23F4FF6525F0070515F5006F04D11C
:1075A00042F4604130BCFFF75DBEC3F30A332046AE
:1075B00042F4384243F4704130BCFFF75DBE43698A
:1075C00053F822204368D31A043B013230B40546F5
:1075D0004FEA63040ED0DA1C0CDA23F0FF0212F536
:1075E000807F07D1E4B244EA012141F4504130BC2C
:1075F000FFF738BE981203F4005200F48060C3F322
:107600008533C4F30B040343224343EA8111284624
:1076100042F4004241F4704130BCFFF72DBE38B552
:1076200014460B46072221460546FFF787FFE10077
:10763000284641F48F41BDE83840FFF713BE90F86B
:1076400054007047436C1944C3684164012B04DD46
:10765000836D9A8C9142C8BF99847047704700220D
:1076600080F854204FF0FF31FFF7ECBFFFF7F7BF72
:10767000002280F854206FF00301FFF7E3BF4FF0C2
:10768000FF31FFF7DFBF38B5446CC369214499422D
:10769000054608D9083121F00304E100006AF8F733
:1076A0001CFDC5E9074038BD70B504460E460121F2
:1076B0001546FFF7E8FF606C216A01EBC00301F893
:1076C000306001215D6020465970BDE87040FFF7D1
:1076D000B9BF70B504460E4601211546FFF7D3FF2A
:1076E000606C216A01EBC003022201F830605D602A
:1076F00020465A700121BDE87040FFF7A3BF002269
:1077000080F854201146FFF7E4BF002280F854208F
:107710000A460221FFF7DDBF38B50D1E044614DD11
:10772000FFF7B1FF226A616C02EBC103294402EB4F
:10773000C1020020012D08BF94F82410587018BF12
:10774000002103F8081B9A42F4D129462046BDE8DF
:107750003840FFF777BFF8B5D0E90A530133AB42A1
:1077600004460E46174606D90435A900006BF8F703
:10777000B4FCA5622063D4E90B104B1CE36230F823
:10778000213066F30E0320F8213000EB8102C3F3B1
:10779000072367F3C71353704FF6FF735380E06DF1
:1077A00032460021FFF7ABFEE06D00220321BDE869
:1077B000F840FFF78FBE10B4019C41EAC301A40159
:1077C00004F4F864114321435DF8044BFFF74ABD0C
:1077D00041EAC20141EA831141F4C051FFF742BDC1
:1077E0000B46D0E90B2102F18042013A01EB820203
:1077F00010B50446D0786FF3C710D070043A9142A8
:107800000BD892F903000028F8DA1288E06DC2F371
:107810000E020021FFF773FE06E063B91A4644F238
:107820004001E06DFFF783FDE06D00220321BDE81C
:107830001040FFF74FBE10BD10B504460121FFF701
:10784000CFFFE06D01220021FFF74BFE0022204612
:107850001146BDE81040FFF727BF00000C2903D1F7
:10786000084A0021FFF735BF00220E2980F8542076
:1078700001D15421F6E7B1F10D0218BF0122012117
:10788000F0E700BF2CBA050810B4D0E91640248BED
:10789000E407134604D506225DF8044BFFF74EBEFD
:1078A0005DF8044BFFF71DBE70B50446D0E91660C5
:1078B000368BF6070D460AD59200FFF7EBFD2A46F8
:1078C0002946E06D0623BDE87040FFF781BFBDE8A3
:1078D0007040FFF70DBE037C70B50446154623B912
:1078E000826D938BD28B13441D44E368B4F840201F
:1078F000042B08BF236D204608BF43F82510002144
:10790000FFF7C2FF00221146E06D0323FFF716FECA
:1079100000222B46E06D1146BDE87040FFF70EBE19
:10792000F8B5476C046A07F10053023B04EBC3044B
:1079300004F10803054693E8030084E80300667831
:1079400056B9B5F842203A44013A31462846FFF785
:107950009BFF01236370666028464FF0FF31BDE84E
:10796000F840FFF76FBE13B5D0E916301B8BDB076D
:1079700007D5009106234FF4C041FFF71CFF02B06A
:1079800010BD02B0BDE81040FFF7A4BD2DE9F041E5
:10799000466C002405460F46B61AA0466B6CA342FF
:1079A00001DCBDE8F081B44211D02B6A03EBC403C3
:1079B0005A78012A0BD15A68BA4208D1B5F8421058
:1079C00083F801803A4621442846FFF7CCFF013472
:1079D000E4E7826D138B70B543F020030446002565
:1079E00013830E4680F854502A462946FFF7CEFFEF
:1079F000B4F84A200132A4F84A2031462046FFF765
:107A00006AFF2A4629462046BDE87040FFF74CBE73
:107A100070B5002405460E4680F8544022462146A3
:107A2000FFF7B4FFB2002146E86D42F00202FFF713
:107A300031FD224621462846BDE87040FFF734BE9E
:107A4000F8B583699E5C602E0446154606D107682A
:107A500014480A46144907F0E5FA38600023022D5D
:107A600084F854300DD8A36DDA8C52B91B8BDB0728
:107A700007D40E4B5A5D31462046BDE8F840FFF76B
:107A800013BE002211462046FFF780FFB4F84220C3
:107A9000E36BED431A442A4400212046FFF7F4FE2D
:107AA0000022E8E7F4AB0508FA91050812940508EE
:107AB00070B50024054626466B6CA34200DC70BD01
:107AC0002B6A03EBC4035A78012A07D1B5F8421098
:107AD0005E705A6821442846FFF745FF0134EBE702
:107AE000F8B504461E4617460D46FFF7E1FF3A4635
:107AF0003146E06DFFF7CEFC2946E06D0322BDE87C
:107B0000F840FFF78CBD38B504460D46FFF7D0FFAF
:107B10002946E06D0322BDE83840FFF780BD38B547
:107B20000025044680F854500821FFF7ECFF2A4650
:107B300029462046BDE83840FFF7B6BDF8B50446F3
:107B40001E4617460D46FFF7B3FF3A463146E06D35
:107B5000FFF7A0FC2946E06D0322BDE8F840FFF7DF
:107B60005EBD10B4002302F1290480F854300A46A7
:107B7000E1B25DF8044BFFF7E1BF002370B50446A6
:107B80000E4680F85430154662B1037C53B1084666
:107B900004F0DEFE021E05DD20467021BDE87040C7
:107BA000FFF797BD06353246E9B220460023FFF7BE
:107BB000C5FF002220461146BDE87040FFF774BDA6
:107BC000F8B5164604460F46FFF772FF31462046C9
:107BD000FFF759FD0025636C2A46B5420CD1B4F875
:107BE0004220394620461A44FFF75EFE29462046C9
:107BF000BDE8F840FFF726BD5819216A013521F884
:107C00003020EAE7F8B5044617461E460D46FFF752
:107C10004FFF3A46E06D0021FFF73CFC3246E06D35
:107C20000121FFF737FC2946E06D0322BDE8F8404B
:107C3000FFF7F5BC037C63B1C1F1FF5101F5FF1102
:107C4000436C01F5FF511F311944036A13F83100E9
:107C5000704718467047000070B50E4615463BB990
:107C6000037C2BB1C06D5268FFF714FC287870BDFF
:107C70002C7834B96A68C06D3146FFF70BFC0020E0
:107C8000F5E7012C07D16B68013307223146C06D3F
:107C9000FFF754FCF3E7A31E012B04D86A685200D7
:107CA00042F00102E7E7542C01D10023EDE701483F
:107CB00004F0BCFCF1930508F8B5002504462E46F7
:107CC000636CAB4205DC00252F46636CAB4210DCD5
:107CD000F8BD236A03EBC5035A78012A07D1B4F82B
:107CE00042105E705A6829442046FFF73CFE013579
:107CF000E6E7266A06EBC5025378022B0ED1002375
:107D0000577019462046FFF7A7FFB4F8421006F84F
:107D10003500002229442046FFF725FE0135D4E72F
:107D200038B5044600230D4680F85430FFF7C4FFF1
:107D30002946E06DBDE83840FFF71DBC38B5044664
:107D40000D4682B1002307221946C06DFFF7F6FBEE
:107D500000220121E06DFFF7BDFB29462046BDE86A
:107D60003840FFF7DDBF1146FFF73AFDF5E72DE993
:107D7000F04104460E46C2B3D0E90B1C01F180412C
:107D800001390CEB81010023084615461F4690F986
:107D900001E0BEF1000F11DA90F903E0BEF1000F2F
:107DA0000CDA002F08BF07463BB1B0F80080B3F8EB
:107DB00002E068F30E0EA3F802E00346013DA0F1D5
:107DC0000400E4D16FF00300424301EB020EE06DCA
:107DD000CBB9F44510D91A4644F24001FFF7A7FA8F
:107DE00000220321E06DFFF775FB26F400412046D9
:107DF000BDE8F041FFF794BF8A5A1946C2F30E025C
:107E0000FFF77DFBECE75A8847F6FE7161F30E023F
:107E10005A80294626F40042FFF771FB2A460421C6
:107E2000E06DFFF757FB2B4607222946E06DFFF771
:107E300085FB2A460121E06DFFF74CFB3E88C6F327
:107E40000E06D2E7F8B504460E4617460A4619460E
:107E50001D46FFF79BFD616C236A881B03EBC00284
:107E600013F830303B705378012B0DD013B1022B37
:107E700013D0F8BDB4F842200A44921B294620468C
:107E8000BDE8F840FFF700BD5268AA42F1D029468C
:107E9000E06DBDE8F840FFF74FBA002329462046C1
:107EA000FFF7DAFE3870E4E710B50023044680F8E7
:107EB000543013460A460121FFF7C4FF20464FF015
:107EC000FF31BDE81040FFF7BDBB70B5049E04460E
:107ED0001D46FFF7E9FF324629462046BDE87040BF
:107EE000FFF7E2BF7FB501250DF10F030DF10E0184
:107EF000009500220446FFF7E8FF9DF80F609DF80B
:107F00000E1020460022FFF7CFFB2A4631462046BE
:107F1000FFF7CAFB04B070BDF0B585B001250DF1C7
:107F20000F030DF10E01009500220446FFF7CDFF6F
:107F30009DF80F709DF80E602A4639462046FFF7DF
:107F4000B3FB314620460022FFF7AEFB2A463946F6
:107F50002046FFF7A9FB002231462046FFF7A4FB8D
:107F600005B0F0BD7FB50E4652EA03054FF00001A3
:107F7000044680F8541024D1FFF79AFD2A460121C7
:107F8000E06DFFF787FA2A460221E06DFFF782FADB
:107F9000B4F84E20B4F84C3031690133501CA4F8C9
:107FA0004E001A442046FFF796FCE06D03221A218A
:107FB000FFF735FB002211462046FFF775FB04B0A2
:107FC00070BD0123009302220DF10E030DF10F018C
:107FD000FFF77BFF2046FFF76BFDD9E72DE9F04166
:107FE000DDE9068504461F46089EFFF75DFF424611
:107FF00039462046FFF758FF324629462046BDE85D
:10800000F041FFF751BF2DE9F04186B002260DF196
:108010001703012501930DF115010DF116030296C9
:10802000009500220446FFF7D9FF9DF817809DF8C0
:1080300016709DF8151020460022FFF735FB3246DA
:1080400041462046FFF730FB2A4639462046FFF7D7
:108050002BFB06B0BDE8F08130B587B00DF11703FA
:108060000025019302230446009301220DF116031B
:108070000DF115010295FFF7B1FF20461921FFF719
:1080800042FD2A4629462046FFF70EFB07B030BDC9
:10809000F7B5C46A05460F46D4B104F18044036BBA
:1080A000013C03EB840292F90120002A21DA33F823
:1080B0002430C3F30E038B421BD100220DF10701C4
:1080C000FFF7F2FE00220121E86DFFF703FA012419
:1080D0000026284685F85460FFF7EEFD3946E86D26
:1080E000FFF7A2F81CB131462846FFF779FB03B031
:1080F000F0BD0024ECE770B500260446012280F8AC
:1081000054603146C06DFFF7ECF922212046FFF79D
:10811000FAFCD4E90B35013B05EB8305E3626B8880
:1081200047F6FF72C3F30E03934228D00422314670
:10813000E06DFFF7D6F94FF42051E06DFFF792F8AC
:108140006368E06D1A683146FFF739FA698847F6C7
:10815000FE73C1F30E029A420BD14FF48E41E06DD3
:10816000FFF780F8636820461968BDE87040FFF7A4
:108170008FBFC1F30E012046FFF7D2FDF2E770BDBD
:108180002DE9F0430446816885B0FFF781FFA36DB8
:10819000DA8C198B12B901F0110373B311F00101DC
:1081A00017D1B4F8402020460132FFF76DFBA36DD4
:1081B000DD8C55B94FF42051E06DFFF753F8A268FC
:1081C000E06D01322946FFF7FAF905212046FFF755
:1081D0009AFC21212046FFF796FCA36D1A8BD2074B
:1081E00006D4DB8C23B9A16820460131FFF750FF8C
:1081F00005220021E06DFFF774F9E06DFFF778F8D4
:10820000237C002B5CD1E36DE56B5B686363A36D3E
:10821000013D9E8B1F8BB3F81E90B3F82080EA00BF
:1082200006F0030302F0780207F00F071A432D0946
:10823000B60845EA0703334343EA090353EA080350
:10824000E06D75D10121FEF7FEFF0421B4F848303E
:1082500003F001025B0842EA4102A4F848300BB186
:1082600042F080020121E06DFEF7EDFFB4F84850C6
:108270000021002DEAD1A36DE06DDA8A0121FEF71D
:10828000E2FFA36DE06DDA8A0121120AFEF7DBFF3F
:10829000A36DE06D9A8A0121FEF7D5FFA36DE06D15
:1082A0009A8A0121120AFEF7CEFFE36D5E68D4E9D7
:1082B0001620538DAB425BDC43689B1BA4F848300F
:1082C000E06DFEF7CEFFE368B4F84A00A4F84C0076
:1082D000032B12D1B4F84E3001301844237C002B0C
:1082E00053D1A36D9D8BDB8B1D4428448000F7F791
:1082F000D9FE274B206540F82530E368042B14D1C4
:10830000257CA16DE36D0869002D4FF00005D3E9D0
:10831000023203950D8B0295898B0191216D00919D
:1083200014BF0421032102F0E0FC05B0BDE8F08396
:1083300042F080020121FEF786FFBA012B0103F013
:10834000300302F040021A4308F001031A434FEAD7
:10835000C90303F008031A43B30003F004031A43EC
:10836000AD087F0876084FEA59094FEA580860E7D8
:10837000D26A02EBC50312F83520042A03D15A88C9
:108380000121FEF760FF013591E70025AEE700BF50
:10839000549A0508F8B543681E68836D86601D8B86
:1083A000DB8C05F011021343044600F0E88015F061
:1083B000010506F1020715D1B0F840202946FFF764
:1083C00063FA2A4601232946E06DFFF7B7F8052135
:1083D0002046FFF798FBB4F840102A4601312046AA
:1083E000FFF7C1FAD4E91630DA8C002A59D1198B7B
:1083F00011F0010508D14FF42051FEF733FF3A4642
:108400002946E06DFFF7DBF800221146E06DFFF72B
:108410006FF820212046FFF776FB4FF42051E06DE6
:10842000FEF720FF3A460021E06DFFF7C8F8A36D84
:10843000198B11F0010100F0898001220021E06D0B
:10844000FFF74FF846F27011E06DFEF70BFFE06D9D
:1084500002220021FFF71EF8E06DFEF749FF3946C2
:108460002046FFF715FEA36D1B8BDB0740F18780CD
:10847000B4F84020204601320021FFF705FAE06DF4
:108480004FF48E41FEF7EEFEE06D4368A3630021DA
:108490000122FFF726F820462221BDE8F840FFF729
:1084A00032BB00231A4644F24001FEF740FF00228F
:1084B0000421E06DFFF70EF8751C3A460421E06DCB
:1084C000FFF71DF829462046FFF7E2FD04220521AB
:1084D000E06DFFF706F800221146E06DFFF708F89F
:1084E00020212046FFF70FFB05220421E06DFEF757
:1084F000F1FF03364FF42051E06DFEF7B3FE324634
:108500000121E06DFFF75BF800231A4644F24001B9
:10851000E06DFEF70CFF00220321E06DFEF7DAFFAD
:1085200044F22071E06DFEF79DFE31462046FFF7D4
:10853000AFFD03220421E06DFEF7D3FF4FF430516D
:10854000E06DFEF78FFE2A4601216DE7B4F840206A
:1085500020460132FFF798F905212046FFF7D3FAAC
:10856000A36D198B11F001017FF467AFE06D01225B
:10857000FEF7B7FF22212046FFF7C5FA6FE7F8BDE7
:10858000538B2DE9F041DE1E044673427341E160D6
:10859000037400234364A0F84A30A0F84E3080F8FA
:1085A00054300F464369518CA2658B42154605D263
:1085B0008069F7F792FD6B8CA0616361A16D8A8B76
:1085C000CB8B13442A8B500748BF013392074FF0DF
:1085D000000248BF01331046934209D1227C22B1E8
:1085E000B1F82AC00022944506DC6269602115E0DA
:1085F000A669B0540132EFE7CE6A06EBC20601323B
:10860000707810F0010F1FBFB6F802E0A6690009EC
:1086100006F80E00E7E7A069C15401339A42FAD880
:10862000E269002360219A4234D1042F0CBF022159
:108630000121E06DFEF7D6FDA26D0023A4F84030C5
:10864000D38C1BB9118B01F0110111B11221A4F8C7
:1086500040106E8CA98C94F81080E06D3144E16379
:10866000B8F1000F00F0CF80CBB9128BD70707D439
:10867000032E3346AE8BA8BF0323032E00D9013B44
:1086800012F0110F0CD12E8BB4F84020B60648BF63
:10869000013208E0206A20F833100133C3E70023D9
:1086A000B4F840200232A4F84220B4F84220114429
:1086B000C91AFEF7EFFD032300220621E06DFEF745
:1086C0003DFF002306220721E06DFEF737FFA36D73
:1086D000DA8C1AB91B8B03F030032BB10022B4F8EB
:1086E0004010E06DFEF7F6FE01220021E06DA94E7C
:1086F000FEF722FE02220121E06DFEF71DFE03229D
:108700000621E06DFEF718FE4FF42451E06DFEF7F0
:10871000A9FD6368E06D1A6801210432FEF74FFF7E
:10872000AA8BE06D0221FEF7B5FE022300224FF472
:108730008541E06DFEF7FBFD6368E06D1A6800217E
:108740000532FEF73CFF6368E06D19680431FEF7FF
:108750006BFDAB8BE06D5A0042EA43420221FEF70B
:1087600099FE03222C21E06DFEF759FF6368E06D4E
:1087700019680531FEF758FD0025A36D9A8BAA42B2
:1087800014DC032A0DD9DA8C5AB91B8BDB0708D409
:10879000B4F84220E36BE06D1A44033A0621FEF779
:1087A000A0FE2046BDE8F041FFF7F4BD2B460622AF
:1087B0000021E06DFEF7C2FEA3695A5D22B10123DC
:1087C00003212046FFF78CF9022D11DCA36DDA8C12
:1087D00072B91A8BD2070BD4022D02D19B8B032BBB
:1087E00006D10022715DE06DFEF7A6FD0135C4E7FC
:1087F000B4F84210E36B194401390022491B2046AA
:10880000FFF7B1F8F2E7168B16F0010650D04FF4DF
:10881000A0232364626B0421FEF715FDA26BE06DBB
:108820000421FEF710FD1221E06DFEF733FD4246F4
:108830000621E06DFEF780FD01221146E06DFEF796
:1088400049FEB4F84030E06D06224146FEF776FE60
:10885000032342464146E06DFEF770FEA26DE06DD7
:10886000918BD38B42460B440721FEF767FE2046CF
:10887000FFF790FDA36DDA8CB2B91E8B16F00106DE
:1088800012D1DFF810816B8CB3420DDDB4F84220B9
:10889000E36B18F8011BE06D1A44013A921B013694
:1088A000FEF71FFE032EEED100236E8D19464CE01D
:1088B000B4F8403005339BB2A4F842301944FEF7B7
:1088C000E9FC3246E06D03230621FEF737FEA26D78
:1088D000E06D918BD38B06220B440721FEF72EFE11
:1088E0003246B4F84010E06DFEF7F4FD626BE06DC7
:1088F0003146FEF7CFFDB4F8401032462046013134
:10890000FFF731F8E26BE06D3146FEF7C3FDB4F8D6
:108910004010324620460331FFF725F8B4F84020D6
:10892000E06D3146FEF7E4FD04222D21E06DFEF7F7
:1089300076FE9CE7EA6A02EBC30012F83320042AB1
:1089400002BF4288A069815401339E42F2D8042FAD
:1089500005D1A88BEB8B00221844904218D1BDE8BA
:10896000F081EB6A03EBC1035F78FF070BD55F88EB
:10897000974208D15B68216D9B0043F0020341F8E8
:1089800022300132E9E701318E42EADC0523F2E7C9
:108990000021F9E7129405087FB504460D461646F6
:1089A00082B90DF10F01FFF77FFA2A46092120460F
:1089B0000123FFF7C3F8324631462046FEF774FE26
:1089C00004B070BD012A0FD10223009300220DF1E3
:1089D0000F030DF10E01FFF778FA01232A460E214D
:1089E0002046FFF7ABF8EBE70DF10F010022FFF790
:1089F0005BFA02231A4644F24001E06DFEF797FC51
:108A0000EBE773B504460E46154672B901220DF127
:108A10000701FFF749FA05F10C0100233246C9B2FC
:108A20002046FFF78BF802B070BD0021FFF702F976
:108A30008DF8070020B901220DF107012046E8E773
:108A40000DF1070120460022FFF72EFA9DF80720BE
:108A5000204601230421FFF743F800220121E06DA5
:108A6000FEF76AFCD7E773B50D4616460DF1070110
:108A700000220446FFF718FA721C2A4420460221FD
:108A8000FFF79EF8012345EA062228212046FFF73A
:108A900027F802B070BD37B504460D4600220DF12F
:108AA0000701FFF701FA2A4620460221FFF788F85E
:108AB00001232A4627212046FFF712F803B030BDD4
:108AC00037B50D4600220DF107010446FFF7ECF91A
:108AD00055B1012120460422FFF772F81E212046DD
:108AE000FFF711F803B030BD2A46E06D0121FEF713
:108AF000D1FC20461E21FFF706F82A4629462046CB
:108B0000FEF7D2FDEEE7000037B500220DF10701B8
:108B10000446FFF7C9F99DF807302BB1054906480F
:108B2000256806F07FFA286022212046FEF7EBFF39
:108B300003B030BD1C920508F4AB050873B50122E3
:108B40000E460DF107010446FFF7AEF99DF80750F8
:108B500065B93246112120462B46FEF7C1FF2A4651
:108B600029462046FEF7A0FD02B070BD2046012137
:108B7000FEF768FD044B05499A5D0548246806F038
:108B800051FA2060F0E700BFE4C60508C893050865
:108B9000F4AB05082DE9F3410E46002117460446C3
:108BA0001D46FFF747F802468DF8070048BB0DF158
:108BB00007012046FFF778F91DB901212046FEF78D
:108BC00041FD10212046FEF79EFF1DB99DF807309C
:108BD00084F824302046FFF76FF84FF42051E06D01
:108BE0008EB3FEF73FFB3A460121E06DFEF7E7FC4E
:108BF00025B94FF0FF312046FEF724FD02B0BDE855
:108C0000F08100220DF107012046FFF74DF91DB953
:108C100001212046FEF716FD9DF807305A1E022A54
:108C2000D3D9072B98BF0A4A0A4998BF32F81320B4
:108C30000948D4F8008088BF4FF4227206F0F2F998
:108C4000C8F80000C1E7FEF70DFB3A463146CCE715
:108C500074910508D2910508F4AB05080023FFF7CD
:108C600099BF0123FFF796BF022A7FB504460E463F
:108C7000154614D8836DDA8C8AB91B8BDB070ED4AA
:108C80001D4B0DF10F015A5DFFF70EF9A1699DF81B
:108C90000F204B5D602B13D14A5504B070BD0DF110
:108CA0000F0120460022FFF7FFF8E16BB4F84230D5
:108CB0000B44E943002219442046FEF754FEE5E741
:108CC0009342EAD0072B98BF0C49246898BF31F82B
:108CD00013300B4888BF4FF42273072A96BF074909
:108CE0004FF4227231F8122000920649324606F003
:108CF00099F92060D1E700BF129405087491050826
:108D0000F4AB05085392050870B504460D461646A7
:108D10004BB90E21FEF7A2FD324629462046BDE89A
:108D20007040FFF7A1BF70BDF8B5446CD0F820C00B
:108D3000DDF818E004F100540E46013C002180F8F3
:108D400054100CEBC40105464F78012F12D149682D
:108D500099420FD071450DD01CF83430337011603A
:108D60003A46FEF713FE28464FF0FF31BDE8F840C3
:108D7000FEF768BC1368012132462846FFF762F807
:108D8000F1E77FB5002303934FF0FF33009303AA6D
:108D90000DF10B010446FFF7C7FF9DF80B50039E32
:108DA000294632462046FEF77FFC324629462046B9
:108DB000FEF77AFC04B070BDF0B50D4685B0012118
:108DC0000446FEF737FF002106468DF80A002046CC
:108DD000FEF730FF022E8DF80B0040F0AA8002282B
:108DE00040F0D180A5F109030C2B9CBF0D35EDB2ED
:108DF0001F2D01D0212D17D100230DF10B010122D0
:108E0000009320460DF10A03FFF75FF81F2D0CBFFA
:108E10002E212F212046FEF776FE00220221204639
:108E2000FEF742FC05B0F0BD0126002303AA0DF1B8
:108E30000B012046022700960397FFF775FF324685
:108E40000DF10A012046FFF72FF8192D07D1039BDA
:108E500032464FF48141E06DFEF769FA23E01A2DA6
:108E600004D1039B32464FF48241F4E7162D04D11E
:108E7000039B32464FF48641EDE7172D04D1039B47
:108E8000324644F24001E6E7182D04D1039B3246F6
:108E90004FF48041DFE71B2D07D1039BE06D324685
:108EA0003146FEF795FC0122B8E71C2D08D1039945
:108EB000E06D41F6092343EA8111FEF7D3F9F2E7A9
:108EC0001D2D04D1039B012244F24031C3E7052D3F
:108ED00022D8002211462046FEF758FD0122039BAE
:108EE000E06D4FF48541FEF722FA364BE06D33F822
:108EF0001510FEF7B7F9344BE06D5D5D45F4005198
:108F0000FEF7B0F985F0010141F40051E06DFEF784
:108F1000A9F90022012182E720460121FEF792FBF8
:108F20002A4B2B495A5D2B48246806F07BF82060B9
:108F300078E7064327D1012700970DF10A030222A3
:108F40000DF10B012046FEF7C0FF322D17D0332D57
:108F500017D1072500232A4612212046FEF7C0FD1F
:108F600057B100220121E06DFEF7E6F9002303224C
:108F700011212046FEF7B4FD002211464FE70625D9
:108F8000E8E73746E6E74FF0FF312046FEF75AFBA9
:108F90009DF80A300F482468072B9CBF0E4A32F810
:108FA00013209DF80B3088BF4FF42272072B96BF19
:108FB00009494FF4227331F81330084906F032F8AA
:108FC000B5E700BF0694050815940508CEC405084A
:108FD00084910508F4AB050874910508A191050872
:108FE00070B5044686B00D4616461BB9FFF73CFE29
:108FF00006B070BD00221146FEF7C8FC20460022D4
:109000000121FEF7C3FC324629462046FEF718FD33
:10901000002304934FF0FF33009304AA0DF10F01D6
:109020002046FFF781FE01230593049B00930DF179
:109030000F01204605AAFFF777FEDDE9043141EA7A
:10904000C30141F4C04141F04001E06DFEF70AF96F
:10905000CEE77FB504460D4616461BB9FEF7F0FC79
:1090600004B070BD00221146FEF790FC324629463E
:109070002046FEF7E5FC4FF0FF330025009303AADE
:109080000DF10B0120460395FFF74EFE039AE06DAC
:1090900029460123FEF752FA2A4629462046FEF7C2
:1090A00003FBDDE703297FB50546164612D10122F1
:1090B0000DF10F01FEF7F8FE182400230DF10F0249
:1090C00031462846FEF7BEFE21462846FEF71BFD28
:1090D00004B070BD052906D101220DF10F01FEF784
:1090E000E3FE1724E9E70223009301220DF10F03A9
:1090F0000DF10E01FEF7E9FE1924DEE7F0B5044696
:1091000085B00F461546C2B90223067C227400932F
:1091100001220DF10F030DF10E01FEF7D6FE3A46C6
:1091200026742B4623212046FEF708FD2A461146C9
:109130002046FEF7B9FA05B0F0BD012A10D100268D
:1091400080F8546033460DF10F022946FEF77AFE8F
:109150003A462B4624212046FEF7F0FC3246E6E74D
:109160000DF10F010022FEF79FFE25212046FEF79C
:10917000CAFCE0E72DE9F84F044688469246FEF720
:1091800097FC00256FF06047A946554510D1002691
:10919000B34656452BD171422046FEF753FAB4F838
:1091A0004220636C41461A44BDE8F84FFEF77CBB91
:1091B000666CD4F820B03E44761B0BEBC6025378A5
:1091C000022B12D182F80190012341462046FEF77E
:1091D00043FDB4F84210636C0BF8360019440139B2
:1091E0004246491B2046FEF7BEFB0135CDE7636CC6
:1091F000D4F8209003F10057013FBF1B19F8372026
:10920000BAB1B4F842501D44013DAD1B2A460021BD
:109210002046FEF739FB012319F8372004212046A8
:10922000FEF75EFC002229462046FEF79CFB09F86B
:1092300037B00136ADE70000037C73B504460E4637
:1092400013B1554803F0F2F9826D138B43F001031B
:109250001383FEF731FD012E0BD163681968204698
:109260000231FEF75DFD6368196820460131FEF7A3
:109270000FFF012200212046FFF77CFF0022022180
:109280002046FEF770FB01220021E06DFEF702F997
:1092900000220521E06DFEF71DF96368E06D1A6894
:1092A0000021FEF72CF9B4F84010002201312046CD
:1092B000FEF759FBA168E06DFEF75DF96368E06DAC
:1092C0001968FDF7B1FFE36A002B3FD10121204669
:1092D000FEF722FA002E54D0636819682046023146
:1092E000FEF7D6FE0DF1070120460122FEF7DCFD58
:1092F00000230DF1070220460121FEF7A3FDE06DDA
:1093000001220221FEF7EDF8204602220021FEF79D
:10931000CBF9012220460221FFF72CFF2046302105
:10932000FEF7F1FBE06D4FF42051FDF79BFF636802
:10933000E06D1A6801210132FEF741F92046012152
:10934000FEF7EAF92046FEF7EBFA23E003F180434B
:10935000256B013B05EB8305236BAB42B6D895F932
:109360000330002B0BDA2A88E06DC2F30E020021D5
:10937000FEF7C5F800220321E06DFEF7ABF8043DCF
:10938000EAE73146E06D0122FEF7ABF822212046E4
:10939000FEF7B9FB02B070BDE4930508F8B51746B7
:1093A00004460D46520093B10B1D1A440221FFF7EB
:1093B000E1FE45EA072301221D212046FEF722FC9B
:1093C000002220461146BDE8F840FEF76DB984F84A
:1093D00054308B1C1A440221FFF7CCFE3B462A4630
:1093E0001C21EAE72DE9F7431746002501EB42026D
:1093F0000E4680F85450114604469946FEF71AFC72
:1094000070288DF8060033D1626C236A03EBC20327
:109410002946204613F80C6CFEF70CFC07280ED8E2
:1094200045B28DB12046FEF77BFA636C226A03F1E8
:109430000053013B02F8336003B0BDE8F0835428C9
:10944000F0D01F4803F0F2F82A460DF1070120463C
:10945000FEF72AFD2046FEF702F9324603210123DA
:10946000FEF73EFB2A4631462046FEF71DF9E3E7AC
:1094700046EA0728B9F1000F0DD003320221204639
:10948000FFF778FE43462A461D212046FEF7BAFB29
:1094900000221146E8E757EA060303D002212046DE
:1094A000FFF768FE0DF1060120460022FEF7FCFCE6
:1094B000012342461B212046FEF712FBE8E700BFCE
:1094C000CA91050870B5042A86B004460E461546B2
:1094D0002AD102294FF0000518D10DF116030122FF
:1094E0000DF117010095FEF7F0FC2B4607223146DF
:1094F000E06DFEF723F826212046FEF704FB00224C
:1095000011462046FEF7D0F806B070BD0DF11503E8
:1095100001930123009302950DF1160302220DF130
:109520001701FEF75BFDE6E70023012A80F85430BF
:1095300001D9032A04D1324601212046FFF71AFE41
:1095400005F1130100233246C9B22046FEF7C8FADE
:10955000D5E770B50025044604220E4680F8545025
:109560002946FFF707FE20460421FEF76BF81F216E
:10957000FEF7C9FAE06D4FF42051FDF773FE324655
:109580002946E06DFEF71BF82A4629462046BDE82D
:109590007040FEF789B873B504460E461546002A9A
:1095A00056D1134601210DF10702FEF74BFC0222B2
:1095B00011462046FEF704FB01230D220A21204616
:1095C000FEF7BCFA02220DF107012046FEF76CFC03
:1095D00001220DF107012046FEF766FC2A460DF137
:1095E00007012046FEF760FC01229DF80710204687
:1095F000FEF75AF802229DF807102046FEF754F8AD
:10960000022211462046FEF7DBFA01230C220A2132
:109610002046FEF793FA022211462046FFF7AAFDE4
:109620002B462A461C212046FEF7ECFA2A462946FC
:109630002046FEF739F82046FEF73EFB2046012281
:109640003146FEF788F82046FFF79BFB02B070BD5D
:10965000002380F85430FEF72FFBAB1E5A425A41CC
:1096600031462046FEF777F8F0E737B504460D4659
:1096700082B103220121FFF77DFD02220121204654
:10968000FEF79EFA00232A460B212046FEF756FAE3
:1096900003B030BD0DF10701FEF706FC02221146B2
:1096A0002046FEF78DFA01232A460A21EDE7000045
:1096B000836D73B51D8B15F00106044613D001228E
:1096C0000021FFF757FD002202212046FEF74BF94B
:1096D00000221146E06DFDF7DDFE00220521E06D60
:1096E000FDF7F8FE1CE0027C002A52D03146FEF75E
:1096F000A1FA5428C5F3871528D12046FDF7AFFFFE
:10970000C5B92B4607222946E06DFDF717FFA36D6B
:10971000DA8C002AE1D11B8B03F01103002BDCD182
:10972000E26AA1682046FEF722FB012384F8543048
:1097300002B070BD32463146E06DFDF7ABFE01234D
:109740002A4604212046FEF7CBF9E0E732460DF128
:1097500007012046FEF7A8FB9DF80730AB4215D065
:10976000072D98BF0D4A0E4898BF32F8152026687D
:1097700088BF4FF42272072B96BF08494FF422731B
:1097800031F81330074905F04DFC3060002DBED094
:10979000D5E70DF10701FEF787FBB8E774910508DF
:1097A000F4AB05083192050870B5002504460E4655
:1097B00080F854502946FEF713F820464FF0FF3149
:1097C000FDF740FF636819680231FEF761FC2A4625
:1097D00020465421FDF77DFF2A4620465421FDF7FF
:1097E00078FF2A4620465421FDF773FF20460522C4
:1097F0000221FFF7BFFC03222B4620461C21FEF767
:1098000001FA636820461968FEF78AFA3146E06D6E
:10981000FDF70AFD20460121FDF7E2FF2046022167
:10982000FDF77AFF2946E06D0122FDF75AFE2B462F
:10983000E06D07220121FDF781FE2A46E06D01233C
:109840004FF48541FDF773FD6368E06D1A682946A2
:109850000232FDF7B4FE2B462A46E06D0121FDF7EA
:109860006DFE294620460122FDF71EFF2A462946A5
:109870002046FDF719FF2A4620465421FDF729FF0F
:10988000204605220221FFF775FC2B4603222046C5
:109890001C21FEF7B7F920461021FEF734F9E06DE0
:1098A0004FF42051FDF7DEFC6368E06D1A6829462D
:1098B0000132FDF784FE636820461968FEF7E8FB75
:1098C0002B462946E06D0722FDF738FEE06D2A465B
:1098D0000121FDF7FFFD6368196820460131BDE8ED
:1098E0007040FEF7D5BB70B50E46002180F85410CD
:1098F00004990B430446154620D10221FFF73AFC98
:109900002A46E06D0121FDF7C5FDB4F84E20B4F8FC
:109910004C3031690133501CA4F84E001A442046E3
:10992000FDF7D9FFE06D03222B21FDF778FE002221
:1099300020461146BDE87040FDF7B6BE0232022156
:10994000FFF718FC45F48072DBE700002DE9F041D9
:1099500088B004460F460DF11C08002940F0228112
:109960000121FEF767F905468DF8170088BB01460F
:109970002046FEF75FF98DF81C00C0B90122414670
:109980002046FEF791FA00220DF117012046FEF75E
:109990008BFA04220F2102232046FEF7A1F80022B1
:1099A00011462046FDF780FE08B0BDE8F0812A464A
:1099B00041462046FEF778FA9DF81C2020460123F8
:1099C0000421FEF78DF82A460121E06DFDF7B4FC75
:1099D000D9E7636C226A03F10053013B02EBC30138
:1099E00032F8332040F202239A426DD120460125FD
:1099F0004E68FDF734FE2B46009542460DF11701E7
:109A00000797FFF791F99DF81730062B26D0072B03
:109A10003FD0052B40F0B680C6B1731E1E2BE06D03
:109A200009D8079B00963A464FF4F041FDF7C3FE74
:109A300000220221B5E732462946FDF72BFD079BA0
:109A4000E06D2A462946FDF7C3FE07950799C90030
:109A500041F4F041E06DFDF705FCE9E7A6B1731EA6
:109A60001E2BE06D05D80096079B3A464FF408413F
:109A7000DCE772002946FDF70DFD079BE06D2A46E5
:109A80002946FDF7A5FE07950799C90041F408414D
:109A9000E0E7A6B1731E1E2BE06D05D80096079B6C
:109AA0003A464FF4D041C1E7B2002946FDF7F2FC37
:109AB000079BE06D2A462946FDF78AFE0795079920
:109AC000C90041F4D041C5E70123079342463B4614
:109AD00006A920460097FFF727F93A460DF117012E
:109AE0002046FEF7E1F99DF818309A1E012A0ED99A
:109AF000072B98BFBE4ABF4998BF32F81320BE4813
:109B0000256888BF4FF4227205F08CFA28609DF812
:109B10001730062B0CD0072B19D0052B32D1002281
:109B20001146079BE06DFDF753FE4FF4F04191E7BE
:109B300000221146079BE06DFDF74AFE0022114608
:109B4000079BE06DFDF744FE4FF4084182E70022D9
:109B50001146079BE06DFDF73BFE00221146079B77
:109B6000E06DFDF735FE00221146079BE06DFDF725
:109B70002FFE00221146079BE06DFDF729FE4FF4F2
:109B8000D04167E7072B98BF994A9C4998BF32F8A4
:109B900013209948256888BF4FF4227205F042FAD5
:109BA000286045E7012940F06781FEF743F8054644
:109BB0008DF8150048BB01462046FEF73BF8022110
:109BC00002468DF818002046FEF734F852EA0003EA
:109BD0008DF81C0008D0294620460322FFF7CAFA58
:109BE00003212046FDF72EFD0223CDE9018300234A
:109BF000009306A920460DF115030122FEF7EEF9A8
:109C00000F212046FDF77FFFCEE6636C226A03F149
:109C10000053013B02EBC30132F8332040F2022330
:109C20009A4240F0938020464D68FDF718FD0223CC
:109C30000022CDE90623009306AA3B460DF115014B
:109C4000FFF772F8069B009742460DF11701204678
:109C5000FFF76AF89DF817305A1E022A0ED9072B13
:109C600098BF634A664998BF32F813206248266855
:109C700088BF4FF4227205F0D5F930609DF8153099
:109C8000062B27D0072B43D0052B40F0E580BDB134
:109C90006B1E1E2BE06D07D8DDE9063200954FF4F0
:109CA000E041FDF788FD7FE62A460121FDF7F2FB42
:109CB0000122069BE06D1146FDF78AFD0123069304
:109CC000DDE9063141EAC30141F4E041E06DFDF711
:109CD000C9FA69E6ADB16B1E1E2BE06D05D8009583
:109CE000DDE906324FF40041DBE76A000121FDF7B0
:109CF000D1FB0122069BE06D1146FDF769FD0123B2
:109D00000693DDE9063141EAC30141F40041DDE794
:109D1000ADB16B1E1E2BE06D05D80095DDE9063256
:109D20004FF4C041BDE7AA000121FDF7B3FB0122BA
:109D3000069BE06D1146FDF74BFD01230693DDE91F
:109D4000063141EAC30141F4C041BFE70223079352
:109D5000009306AA00230DF1160120460697FEF790
:109D6000E3FF00220DF115012046FEF79DF89DF856
:109D700016309A1E012A0ED9072B98BF1C4A21497A
:109D800098BF32F813201C48256888BF4FF4227210
:109D900005F048F92860069B0093424600230DF128
:109DA00017012046FEF7C0FF9DF817305A1E022A01
:109DB0000ED9072B98BF0E4A114998BF32F81320CD
:109DC0000D48256888BF4FF4227205F02BF92860F2
:109DD0009DF81530062B17D0072B23D0052B3BD130
:109DE00000221146069BE06DFDF7F2FC07996BE738
:109DF0007491050894920508F4AB05087F92050854
:109E0000AF920508D492050800221146069BE06D2A
:109E1000FDF7DEFC00221146069BE06DFDF7D8FC45
:109E2000079972E700221146069BE06DFDF7D0FC12
:109E300000221146069BE06DFDF7CAFC0022114688
:109E4000069BE06DFDF7C4FC00221146069BE06D09
:109E5000FDF7BEFC079976E7072B98BF0D4A0E4920
:109E600098BF32F813200D48246888BF4FF422723F
:109E700005F0D8F8206097E50025434606A900952F
:109E80000122FEF722F802232A460F212046FDF781
:109E900027FE89E574910508C0920508F4AB050812
:109EA000F8B5074660200D461646F6F714F9C0E9E6
:109EB000007508250446C5614020F6F7F3F8A56251
:109EC00020622020F6F7EEF820632020F6F703F951
:109ED0003146E065FDF773F92046F8BD10B504463C
:109EE0000021C06DFDF773F9E06DF6F703F9206B03
:109EF000F6F700F9A069F6F7FDF8206AF6F7FAF828
:109F00002046BDE81040F6F7F5B8000038B5044625
:109F1000B2B1950714D110792D2811D192687AB178
:109F200090070DD15068C5B2902D09D1000A0228C2
:109F300006D191681960049BD2681A60012038BD6F
:109F40000A460448044905F06DF8636A1860002069
:109F5000F5E700BFC8AA05089E950508038C032BEA
:109F600070B5C46A03D1856A00239D4205D144F8C7
:109F70002120FDF759F9012070BD54F82360964265
:109F800001D00133F1E70020F6E710B50446FDF7F4
:109F9000AFF92046BDE81040FDF763B938B58BB284
:109FA000032B04460D460384426205D1826AC06ACF
:109FB0009200002115F0ACF9042D20460CBF0221BF
:109FC0000121FDF70FF920460021BDE83840FDF7DB
:109FD00061B9000002F00F03022B10B5044608D04F
:109FE0000A460C490C4805F01DF8636A1860002009
:109FF00010BD836A12090020834204D1238C042BF4
:10A00000F5D10649EEE7E16A51F820109142EFD010
:10A010000130F1E70C960508C8AA05082196050845
:10A0200000F00F03022B02D10009F6F723BF01480D
:10A03000704700BF372E060870B5054610460E461D
:10A04000FFF7EEFF0378732B19D14378BBB10346BA
:10A050000A22002013F8014F5CB91F2808D91F23DA
:10A0600032460A490A4804F0DDFF6B6A1860002096
:10A0700070BD303C092C02D802FB0040EAE73246B2
:10A080000449034804F0CEFFEFE700BF6B960508D4
:10A09000C8AA050884960508F8B5054610460E4678
:10A0A0001F46FFF7BDFF174A0178002494465378F6
:10A0B0008B421BD190F801E093789E4516D190F821
:10A0C00002E0D378734511D16BB91CF82400B84273
:10A0D00008D93B4632460C490C4804F0A3FF6B6A92
:10A0E00018600020F8BDC378002BEED00134152C89
:10A0F00002F10402DBD132460549044804F092FF24
:10A10000EDE700BFA19605086B960508C8AA0508EB
:10A11000389605082DE9F34707468846002A3BD0C4
:10A12000930739D113792E2B36D1926802F00F03A1
:10A13000022B08D10F23FFF7AFFF012484402046F4
:10A1400002B0BDE8F0873AB312F0030A24D11379C4
:10A150009D2B21D1D5682B79A02B1DD10F2392687F
:10A16000FFF79AFF012606FA00F401AAA12105F1E2
:10A170000800F9F7CDF88146CA45E0DA019A0F23C5
:10A1800052F82A2041463846FFF786FF06FA00F0CB
:10A1900004430AF1010AEFE742460449044804F087
:10A1A00041FF7B6A00241860C9E700BF509605088C
:10A1B000C8AA0508F0B585B005460E46104603A9A5
:10A1C0001F46F8F7B9FE48B932460B490B4804F070
:10A1D00029FF6B6A1860002005B0F0BD039803F0FA
:10A1E0001FF830EA0703F7D00346009732460449C8
:10A1F000024804F017FFECE7C9950508C8AA05084E
:10A20000E19505082DE9F0470F4686B0044603A9FD
:10A2100038461E469046F6F732FE0378762B054602
:10A2200040F02A81B8F1020F40F0D580B7F5936F66
:10A2300031D14EF6B4684FF42C6906E04EF6B168A1
:10A24000F9E74EF6B1684FF4246932682946204692
:10A25000FFF7F2FE7268074629462046FFF7ECFE3C
:10A26000FB02420102F0200203F470431343B901E0
:10A2700043EA0903C0F3430201F040011A4341EAF3
:10A2800008012046FCF7F8FF2CE24EF6B868D2E74A
:10A290004EF6BD68CFE740F2A4439F42CED040F2D5
:10A2A000A3439F42CDD040F299439F42EDD040F26C
:10A2B0009A439F42ECD040F2A2439F421ED13068A5
:10A2C000FFF7AEFEB04915F079F8A8B10F23326858
:10A2D00029462046FFF7E0FE07467068FFF7A0FE1C
:10A2E000AA4915F06BF8002840F0BD803A0342F40B
:10A2F00021624EF6F161C4E70F27EEE740F2A14379
:10A300009F422ED13068FFF78BFE0378722B18D155
:10A310000F23326829462046FFF7BEFE29468046B5
:10A3200072682046FFF788FE4EF610610746FA0174
:10A33000D2B242EA0832C7F3430742F421623943FA
:10A340009FE7326829462046FFF776FE29460746F2
:10A350000F2372682046FFF79FFE4FF46E41804640
:10A36000E5E740F29F439F422ED14EF69058326867
:10A3700029462046FFF760FE05AB0093074604AB75
:10A38000726829462046FFF7C1FD002800F0AA8127
:10A390000723049A29462046FFF77EFE059A0646C3
:10A3A00029464FF47F732046FFF704FFFA02B901F4
:10A3B00002F4704201F0400142EA900241EA0801D1
:10A3C00042F4206231435CE740F2A5439F424AD108
:10A3D0004EF68058CBE7B8F1030F44D1DFF8C491B3
:10A3E000002700F1010A03224946504614F0FEFFFF
:10A3F000A0BB2B7993BB664B326813F827802946A4
:10A400002046FFF719FE7268074629462046FFF7E7
:10A4100013FEB268814629462046FFF70DFEFB0277
:10A42000420103F4704302F020021A4342EA500250
:10A430004FEA08134FEAC910BF01C0B2DBB207F000
:10A44000400708F0F001024343F4206347EA59094A
:10A4500041F46E411A4349EA010112E70137042F22
:10A4600009F10409BFD143462A464A494A4804F043
:10A47000D9FD636A186035E1B8F1000F10D140F2E0
:10A48000D7339F4205D14FF43F412046FCF7EAFE07
:10A4900028E140F2A7439F42E5D14BF63071F4E743
:10A4A000B8F1010F40F0FE8040F2EB22974212D14A
:10A4B000014632682046FFF78DFD01462046FCF735
:10A4C00061FF002840F00E8134493348646A04F08B
:10A4D0007BFD206006E140F2F122974209D101465E
:10A4E00032682046FFF776FD01462046FCF79EFFC6
:10A4F000E7E740F2F922974209D101460F2332687B
:10A500002046FFF7C9FDC10041F48E41BDE7622B33
:10A510004AD1039B032B0CD0052B40F09180C378CC
:10A520005F2B40F08D8003796E2B02D0772B40F0AB
:10A53000878069781A4B00224FF0FF37587888429D
:10A5400005D195F802C09878844508BF1F7801327C
:10A550000E2A03F10303F1D1781C84D03268294616
:10A560002046FFF737FD039B052B024609D12B79C7
:10A57000A3F177014B424B4139462046FCF720FFBF
:10A580009FE70023F8E700BFC0940508CA940508B8
:10A590008E950508F0940508C8AA050825950508B4
:10A5A0001B9405088F950508692B49D14378742BB6
:10A5B00046D13068FFF734FDC44B017800221F46B6
:10A5C0005E788E4228D190F801C09E78B44523D1A0
:10A5D00086780EBBAE1C31460B4601311878002838
:10A5E000FAD1691D8B423FF63EAF02EB4202013BBE
:10A5F000BA5C12F0010F4FEAC2000CBF4FF0080C1A
:10A600004FF0000C00F008000821B3420AD241EAE2
:10A61000021141F43F4138E701320E2A03F10303EE
:10A62000CED120E713F80179742F4FEA510101D1FF
:10A630000143EAE7652F7FF416AF4CEA0101E4E736
:10A6400040F215339F4202D14BF272611DE740F296
:10A6500016339F4202D14BF2626116E7B7F57F7F56
:10A660000ED1326829462046FFF754FD10F47F4F83
:10A67000024602D140F4344107E74EF62D1100E6C0
:10A68000782F7FF4F0AE326829462046FFF742FD6E
:10A6900010F47F4F024602D140F43C41F5E64EF6FD
:10A6A000BD01EEE5B8F1020F40F0AC81736803F034
:10A6B0000F03022B40F2CA3340F09E809F4214D118
:10A6C00001460F2332682046FFF7E6FC7268074612
:10A6D00029460F232046FFF7DFFC39460246204675
:10A6E000FCF72AFE06B0BDE8F08740F207339F4230
:10A6F0001CD14FF6B0284FF280070F23326829464D
:10A700002046FFF7C9FC7268814629460F23204680
:10A71000FFF7C2FC47EA000242EA092248EA0001C8
:10A72000AFE54FF690284FF2A007E6E740F2054369
:10A730009F42F6D040F2CF339F422BD10146326880
:10A740000C232046FFF7A8FC07467068FFF768FC5B
:10A75000064601465E4814F031FE98B131465D4828
:10A7600014F02CFEA0B12A465B495C4804F05AFC68
:10A77000636A0022186042EA072242F400424FF264
:10A78000EF317EE50023564A02EBC302D25CF2E7CA
:10A790000123F8E740F2DF239F4215D14FF48047B1
:10A7A0003268294607232046FFF776FC7268804608
:10A7B000294607232046FFF76FFC424603463946E9
:10A7C0002046FCF7B4FD8DE7DFF81C91002703223B
:10A7D0004946284614F00AFE40B9EB7833B9414B9C
:10A7E00013F827703F0147F48047D9E701370F2F4F
:10A7F00009F10409EBD136E69F421CD14FF4005712
:10A800000723326829462046FFF746FC2946804642
:10A81000FF2372682046FFF7CDFC47EA000141EABA
:10A82000082132E64FF42057EAE74FF44057E7E7B4
:10A830004FF46057E4E740F209339F42F2D0B7F596
:10A84000357FF2D040F25D439F42F1D0B7F5737F80
:10A8500019D14FF240270F23326829462046FFF7CF
:10A860001BFC4FF6FF738046726829462046FFF7AF
:10A87000A1FC4246034639462046FCF76FFD31E70E
:10A880004FF2C027E7E740F2CB339F42F8D040F2C7
:10A89000CD339F422AD101460F2332682046FFF76D
:10A8A000FBFB294607464FF0FF3372682046FFF74F
:10A8B00081FC3A4683B205464FF240212046FCF720
:10A8C0004DFD2B0C3A464FF2C021D5E71B940508ED
:10A8D000F6960508FF960508D0940508C8AA05084D
:10A8E000F5960508399505083A95050840F299331B
:10A8F0009F4228D101460F2332682046FFF7CCFB48
:10A9000005AB0093074604AB726829462046FFF763
:10A91000FDFA00283FF4E6AE0F23049A29462046AC
:10A92000FFF7BAFB059A06462946FF232046FFF7A4
:10A9300041FC820842EA073246F4684142F4706200
:10A9400041F050019DE440F297339F423FD0B7F56C
:10A95000667F3ED040F29A339F423CD0972F3CD046
:10A9600040F259439F423AD040F25B439F427FF40A
:10A970007AAD0523864A294632F8237032680723C8
:10A980002046FFF789FB05AB0093814604AB726854
:10A9900029462046FFF7BAFA00283FF464AD049A2E
:10A9A000072329462046FFF777FBFA04064618D509
:10A9B0001F23059A29462046FFF7FCFB47EA0901B9
:10A9C000800141EAC60100F4F86001435DE500231F
:10A9D000D0E70123CEE70223CCE70323CAE7042311
:10A9E000C8E73B04059A06D53E2329462046FFF7D3
:10A9F000E1FB4008E2E77C2329462046FFF7DAFB2B
:10AA00008008DBE7B8F1030F7FF42DAD40F2A933E6
:10AA10009F4221D100270723326829462046FFF7AD
:10AA20003BFB07238146726829462046FFF734FB2B
:10AA3000294680461F23B2682046FFF7BBFB47EA42
:10AA4000090747EA801747EAC8011EE54FF4006787
:10AA5000E1E74FF48057DEE740F2AA339F42F5D09A
:10AA600040F2E7239F42F4D0B7F5357F2BD14FF466
:10AA7000C0580723326829462046FFF70DFB0723FD
:10AA80007268074629462046FFF706FBB26802F0C7
:10AA90000F03022B81460ED1072329462046FFF7DC
:10AAA000FBFA47EAC90747EA080747EA8011ECE4DE
:10AAB0004FF4D058DDE707232946204648F4806844
:10AAC000FFF778FBEDE740F232439F4222D14FF689
:10AAD00090380F23326829462046FFF7DDFA0F230E
:10AAE0000746726829462046FFF7D6FAB2688146C3
:10AAF00029460F232046FFF7CFFA40EA072242F407
:10AB0000704242F0F00248EA0901FFF7BABB4FF683
:10AB1000B038DEE740F27C439F42F8D040F25D431C
:10AB20009F42C5D040F25A439F427FF49CAC0146FD
:10AB30000F2332682046FFF7AFFA0F2372682946C9
:10AB400007462046FFF7A8FA05AB0093804604AB02
:10AB5000B26829462046FFF7D9F900283FF4C2AD74
:10AB60000F23049A29462046FFF796FA059A0646CF
:10AB70002946FF232046FFF71DFB3A0242EA08322E
:10AB800046F4684142EA900241F04001FFF779BB88
:10AB90007695050804292DE9F04106460C469046B5
:10ABA00025D9446A1349144804F00EFA20600024A1
:10ABB0002046BDE8F0810009F6F75CF9074614F07D
:10ABC000EFFB022810D13B78722B0DD17A7805F17A
:10ABD00030039A4208D10135A542E9D058F8250042
:10ABE00000F00F03022BE6D0746A0449DBE700256E
:10ABF000F2E700BF45940508C8AA0508789405083F
:10AC000038B505463020F5F74DFA202204460021DC
:10AC100014F07EFB29462046FCF7D1FAA562A80075
:10AC2000F5F740FAE062204638BD10B50446C06A28
:10AC3000F5F760FA20460021FCF7C9FA2046BDE886
:10AC40001040F5F757BA012910B5146828D934F027
:10AC50001001037815D1302B1ED1417841F020012D
:10AC6000782900F1020303D110211160181A10BDD8
:10AC7000CCB96F2901D10821F7E7622911D102214E
:10AC8000F3E7082C11D1302B0DD1437843F020038A
:10AC90006F2B08D1831CE9E7082C04D0022C02D0CA
:10ACA0000CB90A2313600346E0E7022CFBD1302BDA
:10ACB000F9D1437843F02003622BEAE708B510206E
:10ACC000F5F709FA0278012161F30202027008BD6A
:10ACD00030B50478022565F302040470048863F338
:10ACE000C9040480C0E9011230BD037861F3020396
:10ACF00003700388029961F3C90303800368019913
:10AD000061F39423C0E90032009B8360039BC3601E
:10AD10007047000038B5044608462378656803F09C
:10AD20000703032B114603D3042B0AD9052B12D09A
:10AD3000A3682A4604F0C8FE23881B070AD50A4BDD
:10AD400007E0A3682A4604F0EFFE23881A0701D51E
:10AD5000064B036038BD2068E2682946C0F38A20AC
:10AD6000BDE8384004F0E8BE20B005085CB0050836
:10AD700038B5154611F480720C4614BFD5E900129F
:10AD80001146FFF7C7FF620902F008022A44E1B248
:10AD9000BDE8384003F068B92DE9F04303685A1C58
:10ADA00002601B780022C3F3C304C3F3800E03F0D8
:10ADB0000307154616469446D0F800801B0608F196
:10ADC00001091ED4C1E9046501340022C1E9004E25
:10ADD000C1E902C71346144606270568691C0160CD
:10ADE0002D7805F001069640334307FB02FCC5F3BE
:10ADF000450606FA0CF62D0644EA06042DD5013266
:10AE0000EBE7C0F8009098F800304FEA420903F0F1
:10AE1000300808FA09F844EA080403F0020808FABE
:10AE200002F84EEA080EC3F3801808FA02F84CEA5A
:10AE3000080C03F0040808FA02F847EA0807C3F30D
:10AE4000C00808FA02F846EA080603F0010808FA02
:10AE500002F845EA08050132AEE723440B440360DB
:10AE60000846BDE8F08303884A0802F4806223F4B0
:10AE7000816342EA113223F007031A4343880280B8
:10AE80000A0103F4706302F4E0421343C9B20B43B6
:10AE900043807047D0E90003184770B505460C465B
:10AEA0008E18B44200D170BDD5E90003984704F86C
:10AEB000010BF6E770B506460C460025D6E90003FF
:10AEC000984724B12368187023680133236000F089
:10AED0007F0343EAC5150306F0D4284670BDF8B5D4
:10AEE0000C4600210746FFF7E5FF20B93846BDE8CC
:10AEF000F840FFF7CFBFC3074FEA500528D5238896
:10AF00005A1B02F01F0204EB420193424E88354661
:10AF10000ED2911C6FF001034900C8185A433E320B
:10AF20002144204414F0DCF96388A4F84030002266
:10AF30002388501C40009A1A811C2144204452004E
:10AF400014F0CEF9238804EB430466802846F8BD4C
:10AF50002846F5F7A7F82A46064601463846FFF781
:10AF60009CFF29463046F5F7DFFE05463046F5F7EB
:10AF7000C1F82388013303F01F03238004EB43044B
:10AF80006580E3E72DE9F843244F0646884691465D
:10AF900000243068FFF77EFFC5B2FF2D01D1BDE868
:10AFA000F883C2070FD500213068FFF783FF10F048
:10AFB000010F18BF73684FEA500416BF586808EBBA
:10AFC000840400EB84046B08052B0FD8DB070BD53A
:10AFD00000213068FFF76EFFAD081CD0736853F88E
:10AFE00025300246214610E00120F5E7062B1BBF65
:10AFF00003F18043073B3B4657F823300120F0E73D
:10B0000051F8045B1D4441F8045C12F1FF32F7D2A1
:10B0100004EB8004BDE74B46E3E700BF549A050804
:10B020002DE9F04F894695B000210446FFF742FF15
:10B0300000F003054FEA900805F1020A1C220021E6
:10B040000DA814F065F9BAF1020F404640F0AB804C
:10B05000F5F728F809A90646CDE908002046FFF7CC
:10B0600029FF09A92046FFF725FF0DA908A8FFF72A
:10B0700093FE49462046099DFFF731FF2870000ADC
:10B08000687049462046FFF72AFFA870000AE8705A
:10B090000999089A0431521A20460991FFF7FDFEDA
:10B0A000089D06EB080BAB454FD800212046FFF763
:10B0B00001FF002105902046FFF7FCFE0690DDE928
:10B0C00010031844059B1844069BBAF1020F18445C
:10B0D00007D00F9B9D064CBF02300130590648BF78
:10B0E00001308000F4F7DEFF4FF0000B0746054605
:10B0F000DDE9103213445B4500F2DA80BAF1020F49
:10B1000011D0AB4B2B600F9B9A0600F1DD8004350C
:10B110000F9B5B0607D500212046FFF7CBFEF4F717
:10B12000DAFF45F8040B00230493DDE9043293426F
:10B1300040F0DB8005EB83054FF0000B069B9B4541
:10B1400040F011814FF00009A3E02046FFF7A2FE76
:10B150000022287009A928460EF02AFA099B012826
:10B1600003F1FF3305F10107099312D14946204647
:10B17000FFF7B5FE6870000AA870099B023BEF1C40
:10B180000993099A39462046FFF787FE099D3D44F9
:10B1900089E70228F5D12046FFF77CFE030607F871
:10B1A000010BF8D4EDE7F4F77DFF42460146064671
:10B1B0002046FFF772FE032D1CD1BAF1030F52D1C6
:10B1C00000212046FFF776FE304409900DA909A81A
:10B1D000FFF7E2FD494605462046FFF780FE28704E
:10B1E000000A687049462046FFF779FEA870000AF9
:10B1F000E8705AE700212046FFF75CFE002507466D
:10B20000BD42DAD000212046FFF754FE494683466E
:10B210002046FFF764FE4FEA9B021BF0030B06EB90
:10B22000020304D1B054000A58700135E8E7BBF1BD
:10B23000030F04D1800040F002001860F5E7BBF175
:10B24000020F40F0B180800040F0020B1FFA8BF13A
:10B2500018460493FFF707FE049B4FEA1B41181D95
:10B26000FFF701FEE1E700212046FFF723FE00275C
:10B27000BAF1050F0F90CDE910777FF416AF39467C
:10B280002046FFF717FE394610902046FFF712FEC2
:10B290008146FFF713FDBAF1020F05466CD10F9BF3
:10B2A0003A463146FFF714FD284615B0BDE8F08F49
:10B2B00049462046FFF713FE800040F0020045F8A3
:10B2C000040B0BF1010B13E700212046FFF7F2FD01
:10B2D0000490F4F7E7FE049A834601462046FFF700
:10B2E000DCFD083545F804BC12E72046FFF7D2FD27
:10B2F0005FFA80FBBBF1650F33D000212046FFF7DA
:10B30000D9FD0146079009A8F5F779FE079A0B9930
:10B310002046FFF7C2FDBBF1730F0BD0BBF1620FEC
:10B320000AD1244809A907F031F9049B45F8230004
:10B330000133F9E62048F5E7BBF1690FDDE90A10B2
:10B340004FF0000303D10A22D7F7CEFDEDE7ABF1B2
:10B35000630CDCF10002009342EB0C02D7F742FED3
:10B36000E3E71648E1E749462046FFF759FE45F86E
:10B370002B000BF1010BE1E60F9BDB06CDE9094742
:10B3800004D53246314609A8FFF7FCFD0F9B029316
:10B39000109BCDF80C90CDE90073324643465146E0
:10B3A0002846FFF7A2FC7FE781B2184658E700BFA6
:10B3B000549A0508A0BE05087CC105082CBA0508EA
:10B3C00030B593B0042269460446FFF766FD9DF848
:10B3D00000304D2B02D0174800F044FF9DF801309B
:10B3E000052BF8D19DF8023003F00303022BF2D1B4
:10B3F0009DF803301F2BEED800212046FFF75AFDA1
:10B400002028E8D89DF802309B0804D0043B032B89
:10B4100001D90948E0E7002301A92046ADF804302E
:10B42000FFF7FEFDA368054620689847284613B03D
:10B4300030BD00BF9D970508B49705081FB50146AC
:10B4400001A813F0ABFA01A8FFF7BAFF05B05DF849
:10B4500004FB0000F8B5204C0025F5F727FC012778
:10B46000A4F8EE51E564A4F8EC7103F045FD1B4B24
:10B47000C4F8E05104F19006C4E90B3504F13C0036
:10B48000174BA363032184F8E451656303F076FB53
:10B490003946304603F072FB5E215622304603F0F7
:10B4A000FCFB104B1A681B6852685B689660DE6094
:10B4B000C4F8CC51C4F8C050C4E96F55C4E9715503
:10B4C00004F5F87420461AF025FB39462046BDE8FD
:10B4D000F8401AF023BB00BF182D002070A8050803
:10B4E00040C40508C033002038B5144B1B685B68A6
:10B4F00084000546D86844F0020400222146043046
:10B5000001F05EFB48B90E4BD3F8C0303BB10246A8
:10B510002146181D01F054FB08B1406838BD0022D7
:10B520002146084801F04CFB0028F6D12A4606497E
:10B53000064803F077FDF4F78FFD00BFC03300200D
:10B54000182D0020C8CB0508DE98050824A9050899
:10B550000E4B1A681968526849689268C968914226
:10B5600010B504460AD01B685B6881009868002209
:10B5700041F00201043001F023FB20B92046BDE870
:10B580001040FFF7B1BF406810BD00BFC0330020BE
:10B5900008B5084BD3F8C00008B9074808BD002219
:10B5A00040F2BE21043001F00BFB0028F5D04068CA
:10B5B000F4E700BF182D0020E0C90508044B1B6804
:10B5C0005B6880000A4640F00201986803F065BBA2
:10B5D000C0330020044B1B685B68810041F002010E
:10B5E000986803F068BB00BFC0330020044B1B68A1
:10B5F0005B6880000A4640F00201D86803F04DBB4A
:10B60000C0330020044B1B685B68810041F00201DD
:10B61000D86803F050BB00BFC0330020032837B503
:10B6200005460C4607D1084601F072FF00B33D4CB9
:10B63000204603B030BDCB072ED54B10082829D8A3
:10B6400001A252F820F000BF31B6020879B6020814
:10B6500095B6020895B602086DB6020895B60208BE
:10B6600031B6020875B6020831B60208002BDED0EA
:10B670002D4CDDE7002BDBDAB3F1404F05D14FF065
:10B68000804004F0C5FE0446D2E75C42640044F00A
:10B690000104CDE7DC43F9E7062820D101F00303DC
:10B6A000022B0BD0DBB90B689A69204B9A4216D15A
:10B6B000486840B98B680193C8680CE08C08204644
:10B6C000F5F7CEFB18B1400040F00104B0E701A946
:10B6D0002046F5F7D4FB0199F5F7D8FAF3E72046B1
:10B6E00001F088FC43695BB9082D0FD1204601F0B9
:10B6F00091FC0F4902460F4803F094FCF4F7ACFCB0
:10B700002146284698470028BDD1EDE70A4B204640
:10B710005D5D01F07FFC2A4603460849054803F0B9
:10B7200081FCEBE708A1050810A1050831300308EA
:10B73000D099050840AB0508E4C60508E899050856
:10B740002DE9F04104460E461746984601F052FC9A
:10B7500005693DB143463A4631462046AC46BDE810
:10B76000F0416047204601F055FC0349024603487A
:10B7700003F058FCF4F770FC7498050840AB05081A
:10B7800000231A461946FFF7DBBF07B500220191D7
:10B7900001AB0121FFF7D4FF03B05DF804FB30B427
:10B7A00054680034154618BF01246FF0030303FBEF
:10B7B000042308330A462118286830BCFFF7C0BFAD
:10B7C000F8B51D46930784460F46164614D11468F3
:10B7D000204B9C4202D153682B60F8BD1E4B9C420B
:10B7E00007D110B101F006FC07467368C5E90037C0
:10B7F000F3E71A4B9C4201D12E60EEE7E38840F25A
:10B800005A3223F00401914203D040F206329342AF
:10B81000F2D1BCF1000F1AD1114B9C420BD0114B4D
:10B820009C4208D0104B9C4205D0104B9C4202D049
:10B830000F4B9C420BD10F4B9F4208D00C20F4F7CA
:10B8400031FC0D4B8660C0E900372860C5E7C5E9CB
:10B85000006CC2E730C60508F4C50508A8C605088F
:10B8600084AD0508C0AD0508FCAD050838AE050877
:10B8700074AE0508D8B405089499050800232DE98D
:10B88000F041C2E900330D460746144601F0B2FB11
:10B890000A2D064602D12060BDE8F081192D05D1A0
:10B8A000836A1BB10F4BC4E90037F5E7F3692BB18D
:10B8B000224629463846BDE8F0411847B06B0028BB
:10B8C000EAD0A9001A4641F00201043001F078F9EB
:10B8D0000028E1D02346426831463846BDE8F041B1
:10B8E000FFF76EBFF0CA050870B5164604460D4650
:10B8F000FFF7C4FF3368A3B9A3070BD12268094B34
:10B900009A4207D1E28808492B46084803F08AFB8F
:10B91000F4F7A2FB204601F07DFB2B4602460449CA
:10B92000F3E770BDA8C60508F698050854A60508F3
:10B930001D99050807B56A46FFF7D6FFDDE9000146
:10B9400011B903B05DF804FB02F028FBF9E7000031
:10B95000F0B593B0054668460E4617461C46F4F708
:10B9600063FB40B93A4631462846FFF787FFF4F7B4
:10B9700051FB13B0F0BD002CFBD1019B04491868AA
:10B9800009F060FD0028F4D10198F4F765FB00BFD1
:10B9900054A6050873B505460C46164601F02AFB69
:10B9A000C36943B10422CDE9002621466A462846F0
:10B9B0009847009B53B1284601F02CFB23460246D2
:10B9C0000349044803F02EFBF4F746FB02B070BDB8
:10B9D0001D99050854A6050873B505460C4601F0E7
:10B9E00009FB184A436A9342064629D063B134B929
:10B9F000154A934203D01020F4F754FB0446736AAF
:10BA000021462846984778B96A460F212846FFF70D
:10BA100035FF009B53B11CB91020F4F743FB0446DB
:10BA20002146684604F03EFA02B070BD284601F097
:10BA3000F1FA06490246064803F0F4FAF4F70CFB63
:10BA40002846F1E7EDD502086D4E03088F980508EA
:10BA500040AB050837B5044601F0CCFA856A1DB144
:10BA60002046A84703B030BD6A4619212046FFF79B
:10BA700005FF009B2BB16A4629462846FFF78FFE3B
:10BA8000F0E7204601F0C6FA03490246034803F0F6
:10BA9000C9FAF4F7E1FA00BFC098050840AB050801
:10BAA00030B5054695B000F099FF284601F0A2FA9E
:10BAB000846A2CB12846A0470446204615B030BD04
:10BAC0006A4619212846FFF7D9FE009BABB102A8B0
:10BAD000F4F7AAFA014630B96A46FFF760FE044659
:10BAE000F4F798FAE9E7039B0849186809F0AAFCFB
:10BAF0000028E2D10398F4F7AFFA284601F08AFA59
:10BB000003490246034803F08DFAF4E78CAA0508BE
:10BB1000C098050840AB05082DE9F04F8BB01368BD
:10BB2000029300284ED102F104090446C1F3072311
:10BB30005FFA81F800935B0008EB0302019359F868
:10BB400022A009EB82025768002F3FD017F00300B4
:10BB50003CD13968804A914202D1384603F09AF8C4
:10BB6000009B1D186D004FEA880BBAF1000F2FD112
:10BB700008F101000544A800F4F794FA06460CB158
:10BB80000460012406EB84005A46494613F07CFB0E
:10BB90004444009B09EB0B01DA0006EB840013F030
:10BBA00073FB019B23449846002F00F0868017F01A
:10BBB000030340F092803968674A914240F08D80DB
:10BBC0001D4677E002F108095468AFE70020C7E797
:10BBD0001AF0030F2AD1DAF8002060498A4202D015
:10BBE0005F498A4222D106AA05A9504601F0EEFB20
:10BBF000059B013343441D44A800F4F753FA06465D
:10BC00000CB1046001245A46494606EB840013F047
:10BC10003BFB059A069908EB0400920006EB8000B6
:10BC200013F032FB059B43441C44B2E708F10400C7
:10BC30000544A800F4F736FA06460CB10460012466
:10BC40005A46494606EB840013F01EFB06A95046EF
:10BC5000FFF7C2FE444480464046FFF721FF0346FB
:10BC6000002896D0A54207D8E90030460393F4F7A0
:10BC700034FA039B06466D0046F824300134EBE7A6
:10BC8000FB6853F835004FEAC50990B1042810D07D
:10BC900000F00303022B01D008F0B6F846F82800A4
:10BCA000FA684FEA88034A44334452685A6008F1FC
:10BCB00002080135BB689D42E2D3A8EB040221468D
:10BCC000334652080298FFF73BFD04463046F4F72E
:10BCD00011FA20460BB0BDE8F08F06AA6A2138465B
:10BCE000FFF702FE002106AA0846FFF758FD0021D3
:10BCF000FFF772FE82465046FFF7D2FE81460028CB
:10BD0000DBD008F101039D4208D86D00042D38BF37
:10BD100004253046A900F4F7E0F9064609F00303CC
:10BD2000022B03D0484608F06FF8814606AA0F217F
:10BD30003846FFF7D9FD06AA00210120CDF8209052
:10BD4000FFF72DFD4FEA8803334446F8289008F1A9
:10BD500002085860CFE700BFE4A405084CC40508FA
:10BD6000F0B20508F0B5830787B00C4615461BD125
:10BD70000368204A934202D01F4A934214D102AA78
:10BD800001A901F023FB019BA3422BD31CD8029BEA
:10BD9000043D03EB84049C4201D107B0F0BD54F88C
:10BDA000042D45F8042FF6E702A9FFF715FE00233E
:10BDB000064601936FF04047019BA342304606D3ED
:10BDC000FFF76EFE0028E8D022460C490CE0FFF792
:10BDD00067FE38B1019BFA1A2244013345F822006C
:10BDE0000193E9E7019A0649064803F01BF9F4F7C5
:10BDF00033F900BF4CC40508F0B20508299A0508BC
:10BE0000069A0508B8AB05082DE9FF4183071546DA
:10BE1000CFB2C1F3072435D103683A4A934202D026
:10BE2000394A93422ED10290029803AA01A901F047
:10BE3000CDFA01983B1983425CD80399002601EBA7
:10BE40008003A64213D1BC00C01B2144801B04F018
:10BE50008BFF039945F8260005EB86080B1942462F
:10BE60008B420AD10023029304B0BDE8F08153F85D
:10BE7000042D45F826200136E3E753F8040D42F877
:10BE8000040FEDE70021FFF7A7FD00238046019393
:10BE9000019BBB4219D30021084604F065FF06460A
:10BEA0004046FFF7FDFD0146D0B9B168A14221D35C
:10BEB00045F8246005EB810205EB8403091BAB42C6
:10BEC00012D1304604F06BFFCEE74046FFF7E8FDA5
:10BED00080B1019BFA1A2244013345F82200D6E7CB
:10BEE000304604F0D9FCDBE7D01AF468205843F858
:10BEF000040DE4E7019A0549054803F093F8F4F7C7
:10BF0000ABF800BF4CC40508F0B20508069A050856
:10BF1000B8AB050810B5044603F0E2F838B10023C9
:10BF200020461A461946BDE81040FFF709BC2046D6
:10BF300003F0ECF828B904490448BDE8104003F0C8
:10BF400043B8204610BD00BF3F99050840AB050827
:10BF50002DE9FF411D4606460C46174601F04AF8FA
:10BF6000324B984208D12B463A462146304603F0E0
:10BF700091FE04B0BDE8F081D0F828802C4BB8F1D8
:10BF8000000F08D09C4221D13046C04728600030C5
:10BF900018BF0120EDE79C4218D101AA19213046B3
:10BFA000FFF76CFC019B6BB901AA8A213046FFF7B1
:10BFB0009BFC039401AA00210120FFF7F0FB2860FD
:10BFC0000120D6E701AA41464046F6E7002CEBD116
:10BFD000384601F00FF8174909F034FA01AA68B1A0
:10BFE00047213046FFF74AFC019B7BB101AA21465D
:10BFF0002046FFF7D4FB28602046BAE79B21304655
:10C00000FFF73CFC019B0BB10397D3E70A49384685
:10C0100003F083F830B10949094802F0D5FF2860E0
:10C020000220A6E73846FFF775FFF8E7E4AF0508FA
:10C0300070B6050844A705088CAA05087499050878
:10C0400014AA05087FB5114B8000CDE90233104BCF
:10C0500040F002000190D3F8C000CDE9041278B19D
:10C06000002240F2F621043000F0AAFD40B101ABFD
:10C07000002205214068FFF763FB07B05DF804FB71
:10C0800001A905200AF092F9F7E700BF70B605088C
:10C09000182D00202DE9F04F85B000AF07F1080200
:10C0A00004460D46FFF7EAFBFB6833B12A462749F1
:10C0B000274802F0B7FFF3F7CFFFB868002840D158
:10C0C00020460AF011FB0028F0D007F108022046B4
:10C0D0001721FFF7D3FB391DB86806F08DFF8346A3
:10C0E0002846F4F7C2FED7F8048008F1010400EBFB
:10C0F000040909F1070323F00703ADEB030D6B46B9
:10C100004FEAD30A4FEACA0642465946304613F070
:10C11000BBF82E2308F83A302846F4F7ABFE8046E9
:10C120002846F4F7A2FE344402464146204613F066
:10C13000ABF849463046F4F7F7FD01220549FFF711
:10C1400081FF1437BD46BDE8F08F00BFAA980508EF
:10C1500080A7050810A1050870B545680024AB68E4
:10C16000A34200D870BDEB6853F83400E60078B104
:10C1700004280DD006F028FF03785F2B08D0EB6869
:10C18000985906F00BFFEB6833445968FFF716FA2D
:10C190000134E4E72DE9F043214C16462268526849
:10C1A00097B0D26800922268526892680192226821
:10C1B0005268D660226852688046936004A8894617
:10C1C000F3F732FF25460746F0B9D8F800404A4653
:10C1D000414602A8F7F7B0F821463A4602A8FAF716
:10C1E0007BF9044616B1FFF7CBFA0446F3F712FFCA
:10C1F000009A2B685B68DA60019A2B685B682046BE
:10C200009A6017B0BDE8F083009A236805985B68D0
:10C21000DA60019A23685B689A60F3F71DFF00BF3C
:10C22000C033002008B519B902F0C0FEF3F714FFBF
:10C2300002F0CAFEFAE7000008B50446F4F734F845
:10C2400018B105490548FFF7EDFF224604490348A8
:10C2500002F0E8FEF3F700FFE3970508E8A80508F9
:10C260000C980508014608B50148FFF7DBFF00BF41
:10C27000B8AB05082DE9F047072886B08246894605
:10C28000174603D1914210D0B94E2DE1022801D0BA
:10C2900005280CD13946484600F046FF10B1BAF1E6
:10C2A000020FF0E7BAF1020FEED0B24E1CE10828FF
:10C2B00028D1104602F014FF30B13946484602F04A
:10C2C0002CFF0028F1D1DFE717F0030440F03081A4
:10C2D0003A68A94B9A4240F02B8107F108067B6827
:10C2E000A342D1D956F8045B284602F0F9FE002893
:10C2F00000F063812946484602F00FFF0028D4D1A0
:10C300000134ECE711F0010F00F0468112F0010852
:10C310004FEA610500F0FC805410232800F20881E8
:10C32000DFE810F0E600EA000601EE00F200060188
:10C3300006010601060124003000330036006B00C0
:10C34000730076007900060185008E009F00A7002B
:10C3500024003000330036006B0073007600790053
:10C36000060185008E009F00A700CB0045EA040867
:10C370004FEA480696EA080F56D54046C11704F022
:10C3800037F86CE085EA0408F2E705EA0408EFE70D
:10C39000002C02DA7948FFF765FF1F2C09DC6FF0EB
:10C3A00040432341AB4204DB4FF040432341AB42C7
:10C3B00020DD2846E91704F01BF88146484600F0C6
:10C3C00019FE8369002B40F0F080BAF1240F40F091
:10C3D000AF8002A94846FFF7FFFA04462046FFF760
:10C3E0005FFB00283FF450AF394600F09DFE002867
:10C3F000F4D05AE705FA04F8BAE7002CCADB1F2C80
:10C40000A8BF1F2445FA04F8B2E705EB0408AFE71C
:10C41000A5EB0408ACE7214628460DF0BDFA00283C
:10C42000C7D104FB05F6760046F001065CE0002C5F
:10C4300000F0C580214628460DF0DFFA804697E7D8
:10C44000002C00F0BC8007EE905AB8EEE70A07EE29
:10C45000904AF8EEE77A80EE270A02F09DFF064642
:10C4600042E0002C00F0AB80214628460DF0B7FAE0
:10C47000E4E7002C1FDA07EE905A1146B8EEE70AFF
:10C4800002F0F6FFEBE7E20707D5314640460DF034
:10C4900083FA00288DD106FB08F8012C3FF468AF21
:10C4A0003146304664100DF077FA002881D176438A
:10C4B000002CE8D15CE72E46FAE7002C7FD0002163
:10C4C000022008F027F82146064628460DF095FA86
:10C4D000400040F00100B060214628460DF07FFA90
:10C4E000400040F00100F060304606B0BDE8F08743
:10C4F000A542FFF6DAAEC7E6A5423FF7D6AEC3E6E1
:10C50000A5427FF7D2AEBFE6A542BFF6CEAEBBE6F0
:10C51000930741D113681A4A93421CD107EE905AEF
:10C520003946B8EEE70A02F0A3FF06460028DBD141
:10C53000144B484613F80A4000F06CFD0546384697
:10C5400000F068FD2B46009022460F490F4802F08C
:10C5500069FDF3F781FD0E4A93421DD107EE905A13
:10C560003946DFED0C0AB8EEE70A01F0CDFEDCE754
:10C5700008A1050810A105084CC405083A9805084B
:10C58000B8AC0508CEC405084F98050840AB0508AF
:10C590006CA2050800000000BAF1060F01BF4B466F
:10C5A0004FF0240AB9461F4608E73A464946504626
:10C5B00098470646002897D107E72F46B8E7024973
:10C5C0000248FFF72FFE00BF46A2050830AC050861
:10C5D000014608B50148FFF725FE00BF40AB05083E
:10C5E0002DE9F041044617461E460D4641B1186834
:10C5F00000F000FD6368834202D00548FFF7E8FFC2
:10C6000033463A462946A068BDE8F041FFF798B89E
:10C61000CB970508410008B541F00101024802F03E
:10C62000C9FCF3F719FD00BF9CA90508014608B530
:10C630000148FFF7F7FD00BF60A9050808B540F203
:10C640005E31024802F0B6FCF3F706FD14AA0508B5
:10C6500030B593B0044668460D46F3F7E5FC48B99B
:10C6600020462946FFF791F80446F3F7D3FC20460D
:10C6700013B030BD0199024800F0F6FC0024F6E743
:10C68000F4830508EFF3108172B6084AB2F8EC3172
:10C690001B0443BFB2F8EC3103F1FF331BB24FF67A
:10C6A000FF73A2F8EC3181F310887047182D002039
:10C6B000EFF3108172B60C4BB3F8EC21013212B2D9
:10C6C000A3F8EC2118463AB9DA6C12B993F8EE21C6
:10C6D0002AB10023A0F8EC3181F3108870470122C1
:10C6E000A3F8EC21F8E700BF182D002070B5124B1D
:10C6F00093F8EE414FF6FF72A3F8EC21CCB193F81A
:10C70000EF2102F10A0103EBC106013202F0070238
:10C71000013C53F83150716883F8EF2183F8EE4102
:10C7200080F310882846FFF793FFBDE87040FFF7BD
:10C73000BFBF80F31088F8E7182D002008B50D4B17
:10C74000B3F8EC2112B2A2B9EFF3108172B6D86C33
:10C7500050B1DA6493F8EE2112B90122A3F8EC216A
:10C7600081F31088F3F778FC0846BDE80840FFF72E
:10C77000BDBF08BD182D002070B5EFF3108572B64F
:10C780000F4B93F8EE41082C18D0B3F8EC2112B2FD
:10C79000012A04BF0022A3F8EC2193F8EF212244E0
:10C7A00002F00702661C093283F8EE6103EBC20354
:10C7B000C3E90201012085F3108870BD0020FAE76B
:10C7C000182D002058B1064A13685B68DB68984250
:10C7D00004D012685268D060184670470020704735
:10C7E000C033002001F00F0102290CD8DFE801F06E
:10C7F0000D020900054A064B002814BF10461846D2
:10C80000704703F005BE03F085BE704710A1050810
:10C8100008A1050808B500F073FD10EE100A27F016
:10C8200053F841EC100B08BD00F06ABD08B551EC9F
:10C83000100B27F0A1F8BDE8084000EE100A02F046
:10C84000ABBD02F0A9BD0000F0B593B00546684647
:10C850000F4614461668F3F7E7FB78B9002E0CBFB5
:10C8600039460021234632462846FFF771FB05462C
:10C87000F3F7D0FB012D0BD1284611E0019B23607B
:10C880001049206802F049FC60B92068F3F7E4FB26
:10C890002368002DF4D10BB90B4B23603EB9002067
:10C8A00013B0F0BD206802F04DFB2060F6E70749A9
:10C8B000304602F032FC0028F1D03046FFF72AFB68
:10C8C000E4E700BF8CAA050870B6050844A7050870
:10C8D000036803B94068FFF7E3B81346C1F30722C2
:10C8E000C9B2FEF72DBF1FB501F00F0104460329A1
:10C8F00007D8DFE801F004020D0D00F009FE04B0D6
:10C9000010BD012201A900F072FE08B10198F6E7FE
:10C91000204600F085FCF2E708B530B1034B9842A1
:10C9200003D0FFF7F7FAF3F797FB08BD70B60508D9
:10C9300010B50C4619B9BDE81040FFF74DB8FFF728
:10C940004BF884421CBF0023C4E90030002010BD16
:10C9500040F2F533984218D00AD85E2817D07528CF
:10C9600017D03E2808BF012018BF4FF0FF30704796
:10C9700040F2F73398420ED00FD3B0F57E7F0ED041
:10C98000B0F5906F08BF0320EEE704207047022047
:10C990007047002070470720704706207047052029
:10C9A00070470000024B1B685B681860704700BF4F
:10C9B000C0330020044B1B685B6882B0186801AB71
:10C9C000C01A02B0704700BFC0330020024B1B6882
:10C9D0005B685860704700BFC033002008B5FFF7A0
:10C9E000E9FF044B1B685B685B68984201D3FFF763
:10C9F00025FE08BDC033002010B503461446500C78
:10CA0000C2F34F0221B1E10702D40D48FFF7E0FD68
:10CA1000904207D1984212D00A4902460A4802F0D1
:10CA200001FB06E0984206D9C21A0849064802F0FE
:10CA3000F9FAF3F711FB9A4201D20549EEE710BD6E
:10CA4000949B0508BC9B050840AB0508F59B0508B1
:10CA5000279C05082DE9F74FDDE90CA50024814648
:10CA60008B469046019326462746019B9C4204D163
:10CA70004F453CD22348FFF7ABFD4C450FD2BAF8E7
:10CA800002209205F6D45BF8240001379AF80220C0
:10CA9000012A25D100F03CFD05F8240019E0BAF880
:10CAA00000108900002241F00201404600F088F8A1
:10CAB00098B9BAF80220D30507D5BAF80020124970
:10CAC000124802F0AFFAF3F7C7FADAF8042045F893
:10CAD000242001340AF1080AC7E701364068D5E787
:10CAE000022A01D100F078FB45F82400F1E7D8F8DC
:10CAF0000030B6EBD30F01D20548BCE703B0BDE868
:10CB0000F08F00BFAF9C0508989C050840AB050856
:10CB1000D09C050870B586B00446154602EB80022D
:10CB200003A81E4600F01FF80B9B01930A9B00937D
:10CB300003AA334629462046FFF78CFF06B070BD96
:10CB400008B50148FFF772FD569C050810B504466C
:10CB5000416019B981600123236010BDC800F3F75B
:10CB6000BAFAA060F7E70368416061F3DF0303608E
:10CB700003F0F80343F00703037082607047037803
:10CB80009B0710B5044602D48068F3F7B3FA236814
:10CB9000002262F3DF036260236010BD03789B070D
:10CBA00010B5044602D48068F3F7A4FA236803F0B2
:10CBB000040343F0010323600023C4E9013310BDE3
:10CBC00003782DE9F74F13F0010804460E4692460C
:10CBD0000ED001F00302022A08D01AB908687F4972
:10CBE00088423FD0BAF1010F40F0F5804FF00108C4
:10CBF0005B0764D52768A56827F007072F44BD4267
:10CC000032D3BAF1010F40F0E680D4E90013C1F34A
:10CC1000DC01994211D104316160A068C900F3F7C9
:10CC20005CFA23686268A060C3F3DC03D21AD20006
:10CC3000002100EBC30012F06BFB2368A168C3F373
:10CC4000DC02501C60F3DF03236041F8326006F021
:10CC50000306022E01EBC20523D023786FF30003F5
:10CC600023701EE09046C3E72868B0421DD1BAF198
:10CC7000020F16D123686E687A1B083B22F0070268
:10CC800005F108012360083A284612F029FB2368C1
:10CC9000A268C3F3DC0302EBC305002142F83310A2
:10CCA0006E60284603B0BDE8F08FB8F1000F04D1E4
:10CCB000314600F039FA0028D9D108359FE763687A
:10CCC00033B9BAF1010F40F08680204600F088F8B1
:10CCD00006F0030BBBF1020F28D1B008F4F7C0F83F
:10CCE00002466368B2FBF3F103FB11231F464FF0CA
:10CCF0000009A16851F8370001EBC705E0B9BAF1A6
:10CD0000010F68D12368C3F3DC020132B9F1000FCF
:10CD100018BF4D4662F3DF03BBF1020F2360C5E984
:10CD20000060BED0237860F3000399E73146062007
:10CD3000FEF774FC4210D4E7042822D1B9F1000FA9
:10CD400008BFA94661680137B7FBF1F001FB107716
:10CD5000BB42CED1BAF1010F3DD1B9F1000F33D0B2
:10CD6000236800220833BBF1020F2360C9F800607A
:10CD7000C9F8042003D0237862F3000323704D46E2
:10CD80008FE7B04211D1BAF1020F8AD123686268ED
:10CD9000083B01372360B7FBF2F302FB1377A3686C
:10CDA00053F8373073B92B607BE7B8F1000FC9D166
:10CDB0003146CDE9003200F0B7F9DDE90032002854
:10CDC000C0D0E0E70423EEE72046009200F008F828
:10CDD0006368009A86E7002563E700BF7CC1050809
:10CDE0002DE9F04146681A490446731C002231F8C7
:10CDF000025BAB4206D90132222AF8D103EB53037E
:10CE000043F00105E800A768F3F765F9236865605A
:10CE100003F0060343F001032360A0603D1D4FF0C3
:10CE20000008B04504D13846BDE8F041F3F762B9D7
:10CE300055F8041C39B1042905D001222046FFF71A
:10CE4000BFFE2B68436008F101080835E9E700BF21
:10CE5000EE9C050810B5002304460160436088007D
:10CE6000F3F739F9A06010BD03682DE9F74F0446C8
:10CE70008946924623B912F0010F5DD000F05EF8AA
:10CE800049460620FEF7CAFB22684FEA600B0AF00B
:10CE90000103BBFBF2F8009302FB18B845460026DD
:10CEA000A06850F82570AA00811867B91AF0010F20
:10CEB00042D0002E08BF0E466368013363604F46C0
:10CEC000C6F8009032E0042F17D1002E08BF0E469E
:10CED00022680135B5FBF2F102FB1155A845DFD1FF
:10CEE000009B4BB3002EE7D1204600F027F82268C4
:10CEF000BBFBF2F802FB18B8D0E74946384601926E
:10CF000000F012F9019A0028E2D01AF0020F0DD0B9
:10CF100063682068013B01356360B5FBF0F1A368ED
:10CF200000FB115553F8251021B99950384603B02C
:10CF3000BDE8F08F0421F8E70027F7E7F8B50568AA
:10CF40008668154904466B1C002231F8020B8342A7
:10CF500006D90132222AF8D103EB530343F0010032
:10CF60000023206063608000F3F7B5F83746A060C7
:10CF700006EB8505AF4204D13046BDE8F840F3F733
:10CF8000B9B857F8041B0029F4D00429F2D00122C3
:10CF90002046FFF769FFEDE7EE9C050870B50168D4
:10CFA0000023994201D1002214E0846854F8232020
:10CFB00004EB83060133002AF3D0042AF1D045683C
:10CFC000013D4560B3FBF1F001FB103354F8233011
:10CFD00013B93360104670BD0423FAE710B5044658
:10CFE0008068F3F787F80023C4E90033A36010BD1D
:10CFF00070470000C30705D400F00303022B03D0E1
:10D0000000687047014870470148704758B10508EB
:10D010007CC1050808B5FFF7EDFFBDE80840C088F2
:10D02000F3F728BF70B50D4604461646FFF7D6FC49
:10D030002846FFF7DFFF83682BB13246294620469A
:10D04000BDE870401847C28802492046BDE87040DC
:10D05000D6F764BC909E05080A4601460148FFF7D2
:10D06000E1BF00BFB8D605082DE9F34705460846DD
:10D070000E4602F04BF898B101AA6946304602F01C
:10D08000AFF8009B63B11A491A4FDFF87080DFF8E0
:10D0900068902846D6F700F9009C033C002C0BDA78
:10D0A000022231462846FFF7BDFF13492846D6F72E
:10D0B000F3F802B0BDE8F087019A4FEA840A02EB68
:10D0C0000A0339465B6852F824202846D6F726FC26
:10D0D000019B53449A682AB949462846D6F7DCF89A
:10D0E000033CDBE741462846D6F718FCF8E700BFCB
:10D0F0004E9E0508729E0508B3510508879E0508D7
:10D1000008B50246FFF776FF064B0069984204D146
:10D110001046BDE8084008F085B8003018BF01206F
:10D1200008BD00BF41500308884210B5044608D12D
:10D13000830744D10368234A934202D0224A934290
:10D140003DD1224B9C4201D1002010BD9942FBD021
:10D15000E00704D5CA07F7D423460C46194604F065
:10D160000302022A01F0030304D082B92068184A9E
:10D1700090420CD1022B05D0002BE5D10A68144B4C
:10D180009A42E1D12046BDE8104005F0BFBE022B17
:10D19000DAD01BB90A680E4B9A42D5D02046FFF769
:10D1A00029FF8369002BCFD00A46022021469847E9
:10D1B0000028C9D0074BC31A58425841C5E701207F
:10D1C000C3E700BFB8AC05086CA2050870B6050837
:10D1D0007CC1050810A1050808B50E4B9842014610
:10D1E00014D00D4B984213D0C20701D5401008BD92
:10D1F000830707D10268094B9A4203D1BDE8084072
:10D2000003F0B2B90820FEF709FAF7E70020EEE7CD
:10D210000120ECE708A1050810A1050858B1050890
:10D22000C20705D4830705D10268034B9A4201D196
:10D2300003F092B9FFF7D0BF58B10508114B9842DF
:10D2400010B50C4603D100230B60012004E00E4B07
:10D25000984202D10120086010BD10F0010102D0F7
:10D2600042102260F1E710F0030307D10168074A7A
:10D27000914205D103F078F92060E6E70846EBE734
:10D280001846E9E708A1050810A1050858B10508E6
:10D29000164A904210B50C461ED0154A90421ED038
:10D2A00010F0010108D0431000EE103AB8EEC00AA9
:10D2B00084ED000A012010BD10F0030212D10368B2
:10D2C0000C498B4202D103F097FAF1E70A498B42ED
:10D2D0000AD102F0C9F8EBE79FED080AE8E7B7EEDC
:10D2E000000AE5E70846E6E71046E4E708A1050876
:10D2F00010A1050858B10508B8AC050800000000E9
:10D3000013B501A90446FFF7C3FF48B92046FFF74C
:10D3100081FE05490246054801F084FEF2F79CFEB5
:10D320009DED010A02B010BD139E050840AB050833
:10D33000F8B51F4EB04203460D46144603D10023F4
:10D340000B602360F8BD1B4EB04204D14FF07E53FA
:10D350000B600023F5E7C70707D5431007EE903AA7
:10D36000F8EEE77AC1ED007AF3E7860715D1066893
:10D37000114FBE4204D103F03FFA85ED000AE8E701
:10D380000E4FBE4202D102F06FF8F6E70C4CA642F7
:10D3900003D1BDE8F84000F0B1BF1846FFF73AFEF0
:10D3A00008490246084801F03DFEF2F755FE00BF6D
:10D3B00008A1050810A1050858B10508B8AC050872
:10D3C0006CA20508F79D050840AB050838B5840731
:10D3D00003460ED104680C4DAC4203D1BDE8384081
:10D3E00007F0AEB9094DAC4203D1BDE8384003F0B7
:10D3F000D1BC1846FFF70EFE05490246054801F06C
:10D4000011FEF2F729FE00BF4CC40508F0B2050872
:10D41000A89D050840AB050813B50C4601A9FFF708
:10D42000D5FF019BA34206D022460449044801F0DF
:10D43000F9FDF2F711FE02B010BD00BFCA9D05084C
:10D44000B8AB0508F7B51F46D30706460D46144688
:10D450000FD554100194019A002ABCBF52190192B1
:10D46000019AE7B1002A16DA00230193019803B06C
:10D47000F0BD01A91046FFF7E1FE0028EBD12046E0
:10D48000F588FFF7C7FD2A4603460A490A4801F016
:10D49000C9FDF2F7E1FDAA42E8D90195E6E7002AC5
:10D4A00001DBAA42E2D3F2880449054801F0BAFD43
:10D4B000EFE700BF659D050840AB0508899D05089D
:10D4C000F8A70508820701D002F0A2BF002801DA00
:10D4D00003F020B8400040F001007047830710B50A
:10D4E000014608D10268094B9A4204D18068400085
:10D4F00040F0010010BD0846FFF77CFD43691BB1F9
:10D500000520BDE8104018471846F3E7A0BE0508FF
:10D5100038B5144B9842044622D0134DA84201D18D
:10D52000012038BD114B98421AD0C20704D510F122
:10D53000FF3018BF0120F4E7FFF75CFD43693BB102
:10D5400021460420984718B1431B58425841E8E748
:10D550002046FFF7C3FF0028E2D010F1FF30E8E7D4
:10D560000020DEE708A1050810A1050870B605082F
:10D5700010B50446FFF7B2FF48B92046FFF74AFD51
:10D5800003490246034801F04DFDF2F765FD10BD69
:10D590002D9E050840AB050838B504461546FFF733
:10D5A00029FD036A13B120469847B0B9204645B912
:10D5B000FFF730FD09490246094801F033FDF2F753
:10D5C0004BFD042D04D1FFF725FD06490246F3E784
:10D5D000FFF720FD04490246EEE738BD959E050899
:10D5E00040AB0508BF9E0508DF9E0508704710B5D3
:10D5F0000446FFF7FFFCC36A2BB120469847B0FAF8
:10D6000080F0400910BD1846FCE7000008B5FFF7A0
:10D61000EEFF10B90148FEF7DBFF08BD409D05088D
:10D62000062806BF480040F00100002070470000B7
:10D63000042803D0052808D0002070478A68054BCD
:10D640000548002A08BF184670478868400040F027
:10D650000100704708A1050810A10508074B0268E2
:10D66000C1E900300023C1E90233054B9A4202BFF1
:10D670004368C3F317238B60084670471C9F050857
:10D680008CA00508F8B50D460179044601F07F012C
:10D6900016464020002208F061FBA2682379E16869
:10D6A0002768296042436A6003F07F02AA60084A43
:10D6B000974209D11A0601D4B30707D46368C3F3AC
:10D6C000172300FB03132B600020F8BD0120FCE7AB
:10D6D0008CA00508F8B5002205460E4601464020FC
:10D6E00008F03CFB07461020F2F7DCFC094A0A4B25
:10D6F0000571012D18BF1346036043686FF31F23A4
:10D700000446C0E9013606FB07F0F2F7CBFCE06007
:10D710002046F8BD14A0050850A005087FB50446B2
:10D720000122084601A9FFF771FF0022217940205C
:10D7300008F014FB6368029DB5FBF0F5C3F31722F4
:10D74000AA42064619D2A16829444143E068F2F78B
:10D75000C4FC6368E0606FF31F236360D4E90203D5
:10D7600005FB06F200FB0630019911F08DFDA36860
:10D7700004481D44A56004B070BD521B62F31F2312
:10D78000EBE700BF70B605082DE9F041456835F0BC
:10D79000FF05044688461ED101792A46402008F03C
:10D7A000DDFA6368A168082262F31F23114406466C
:10D7B00041436360E068F2F790FC6168A268E06052
:10D7C000C1F31721013902FB0667384406FB01F259
:10D7D000294611F09DFD43462079D4E9022108F045
:10D7E000E7FCA36804480133A3606368A3F5807372
:10D7F0006360BDE8F08100BF70B605084268C36889
:10D8000091688B4230B40AD21479D16882685D1C69
:10D81000C5601A4404F07F0030BC08F009BB00204A
:10D8200030BC70472DE9F04F044687B00D461646D0
:10D830000AB90025C6E011F003078068DFF818A2D6
:10D8400040F0D6800B687D4A934240F0D1806A4612
:10D8500007F019FF10B97A48FEF7E8FE2179042E87
:10D8600001F07F013A464FF0400000F0948008F04C
:10D8700075FA16F00302054659D133687149186AE2
:10D88000884247D13179402001F07F0108F066FAE3
:10D89000A84202D06C48FEF7E5FC33685345D6E950
:10D8A000028B04D17368C3F3172305FB03BBDDE9C7
:10D8B00000022368E668A2EB00095345A8EB0907BC
:10D8C00037D194F90430002BB3DA002FE2D163682A
:10D8D000C3F3172305FB036605FB08F2594605FB56
:10D8E000006011F0D1FC0199A2680098521A4044DE
:10D8F0006A4305FB016105FB006011F0F1FCA068C3
:10D90000A9EB080238446A43002105FB006011F0CE
:10D91000FFFC35E04D4A934209D1012DBAD12A4688
:10D9200003A93046FFF772FEDDE903B8BFE74848B8
:10D9300092E7002FD0DD6368B7EB132F0BDDA168F2
:10D94000394430466943F2F7C8FB6368E06067F327
:10D950001F23064663600098A268019940443A4438
:10D96000121A6A4301FB056105FB006011F0B8FC67
:10D97000009805FB08F2594600FB056011F0B0FC69
:10D980006368C7EB132262F31F236360A3681F441D
:10D99000A760304D16E008F0E1F9236853450646CC
:10D9A00014D11020F2F77EFB054694E80F0085E8BD
:10D9B0000F00009A02EB112363F31F216960019BA2
:10D9C0009B1AAB60284607B0BDE8F08FDDE9003157
:10D9D0002079C91AFFF77EFEDDE90032E168D21A2C
:10D9E0000546724306FB0311C06811F04DFCE9E7E0
:10D9F00000232A4601462068FFF724FD236853458B
:10DA0000024611D16368042E00EB13220ED094F964
:10DA10000430002BBFF60DAF2079E168334600F0EB
:10DA20007F0008F0C5FBB4E7042EF5D12079E1684A
:10DA300000F07F0008F0FCF90546C3E794BA05083A
:10DA40009E9F050825D80208CF9F0508A0BE05089F
:10DA5000F09F050870B605088CA0050870B50E2863
:10DA600088B006460C46154651D003D8022865D02A
:10DA7000002449E01B281FD02428F9D1012205A940
:10DA80002846FFF7B4FD00284AD0A10712D122682A
:10DA9000364B9A420ED1012202A92046FFF7F2FD31
:10DAA00001230093DDE90201DDE9052304F098FC80
:10DAB000002858D12E4C27E0012202A92046FFF76A
:10DAC000E1FD2846012205A9FFF7A0FD00229DF8EF
:10DAD0001010402008F042F9A168069DB5FBF0F552
:10DAE000064629449DF81000FFF7F4FD0446DDE9E1
:10DAF0000212C06811F0C8FBE068039B059905FBA2
:10DB000006F2184411F0C0FB204608B070BD0A6848
:10DB1000184B9A42ACD029462046FFF7FFFDF3E7A9
:10DB2000EA0708D4AB07C5D12B68134A934202D049
:10DB3000124A9342BED10020FEF778FD012202A9CD
:10DB40002046FFF79FFD012205A92846FFF74FFD5C
:10DB50000028AFD0069B0093DDE90212059B3046FA
:10DB600007F0D0FDA4E7064CCEE700BF50A00508A3
:10DB700008A105088CA0050858B10508B8AC05082F
:10DB800010A105082DE9F043012885B006460F468F
:10DB900008D08B0724D10B68254A934202D0254A2E
:10DBA00093421DD1012201A93846FFF720FDB8B1EB
:10DBB00000223146402008F0D1F8029CB4FBF0F47A
:10DBC000074621463046FFF785FD04FB07F2054670
:10DBD0000199C06811F058FB284605B0BDE8F083F4
:10DBE0003846FFF77BFCB8B1441021463046FFF7BA
:10DBF00071FD002105463846FDF7EEFE0027804600
:10DC00004046FDF74DFF03460028E5D034B91946DC
:10DC10002846FFF7B9FDF3E70446E6E73A4607F181
:10DC20000109E968304608F0C3FA4F46E8E700BF4B
:10DC3000A0BE050850A0050838B50D461C46114683
:10DC40002846094AFEF7D8FE206805F0BDF9012DE7
:10DC5000007804D10021BDE83840FFF73BBD616882
:10DC6000BDE83840FFF78EBF04000200F8B50E791A
:10DC7000012E05460C460ED11A49D5F70DFB334649
:10DC8000D4E90221284604F0D1FA28461649BDE815
:10DC9000F840D5F701BB32461449D5F73FFEA368DB
:10DCA000002BF2D01249134F2846D5F7F5FA00267B
:10DCB000A368B34204D810492846D5F7EDFAE4E743
:10DCC0001EB139462846D5F7E7FA3246E168207991
:10DCD00008F0AEF8012201462846FFF7A3F9013605
:10DCE000E6E700BF809F0508138306088C9F0508A0
:10DCF000979F05089B9F0508048C060838B50C46BD
:10DD00002046114606221D46FEF776FE2CB9214616
:10DD10000120BDE83840FFF7DDBC2968CA070AD4F6
:10DD20008B0703D10A680C4B9A4204D00120BDE84E
:10DD30003840FFF727BF0846FFF74EFA0546014671
:10DD40000120FFF7C7FC2A4604460021C06811F0F5
:10DD5000DFFA204638BD00BF58B1050870B504464B
:10DD6000102015460E46F2F79DF904714468044AE6
:10DD700002606FF31F24C0E90146C56070BD00BF9B
:10DD80008CA005087FB51D46084611464FF00212CB
:10DD9000FEF732FE012201A92868FFF737FC9DF843
:10DDA0000C40029E21460022402007F0D7FF019A36
:10DDB000B6FBF0F12046FFF7D1FF0322044601A98C
:10DDC0002868FFF714FC18B1237963F07F032371EF
:10DDD000204604B070BD000038B5054610200C4642
:10DDE000F2F760F9034A02600122C0E90125C4602C
:10DDF00038BD00BF50A00508136870B56BB9446802
:10DE0000A51C50F825509C4207D055F82360B1421C
:10DE100004D1023350F82330136070BD0133F2E7B0
:10DE20002DE9F04788461449DFF85490DFF854A0F4
:10DE300016460546D5F730FA06F108070024736840
:10DE4000A34205D828460D49BDE8F047D5F724BAC6
:10DE50001CB149462846D5F71FFA58F824205146E8
:10DE60002846D5F75BFD012257F8041B2846FFF72B
:10DE7000D9F80134E3E700BFDDBA050813830608CB
:10DE80009B9F0508C8A005084B6802330A4651F855
:10DE90002310FFF7C5BF0979490041F00101FEF7E2
:10DEA000E9B9052805D00979490041F00101FDF7DC
:10DEB000B5BB00207047000038B50C46204611461F
:10DEC00002221D46FEF798FD1CB12868FFF720FBD3
:10DED00008B9024838BD0248FCE700BF08A10508A0
:10DEE00010A10508032A0B7905D113B10449D5F710
:10DEF000D3B90449FBE70BB10349F8E70349F6E757
:10DF0000FC830508018405080785050801850508C7
:10DF1000136813B94068FDF7B1BC70472DE9F84F9D
:10DF2000994602EB43035D1C042B00AF82468B46EF
:10DF300090464FEA85051DD8EB1D23F00703ADEB96
:10DF4000030D6C46002620462A1FB96A40F804BB20
:10DF500011F09AF923464A4608F101015046FDF7AF
:10DF6000EFFB044616B13046F2F7C4F82046BD4632
:10DF7000BDE8F88F2846F2F7A0F804460028DBD069
:10DF80000646E0E707B5009313460A46D0E90101CB
:10DF9000FFF7C4FF03B05DF804FB000038B5054689
:10DFA0000C200C46F2F77EF8024A8460C0E9002596
:10DFB00038BD00BF54A105084068704741607047F4
:10DFC00010B504460820F2F76DF8024AC0E90024B3
:10DFD00010BD00BF90A105082DE9F04F86685500DF
:10DFE00006EB0109044609EB050005280D4487B03E
:10DFF0008A461746984604F10C0B4FEA850516D859
:10E00000B6003246594601A811F03EF901AB2A4646
:10E010004146981911F038F9606801AB3A46494613
:10E02000FDF78EFB0446204607B0BDE8F08F800068
:10E03000F2F738F8A26859469200064611F024F922
:10E04000A0682A46414606EB800011F01DF9A16840
:10E05000606833463A465144FDF772FB0446304649
:10E06000F2F748F8DFE700002DE9F041CD1CAD00E4
:10E07000804628460E461746F2F714F8064B86608F
:10E080000446C0E90038A5F10C0239460C3011F005
:10E09000FBF82046BDE8F081CCA10508136810B557
:10E0A000144643B940F21943994205D190ED010A53
:10E0B00001F072F9206010BD40F27A339942FAD132
:10E0C00090ED020AF4E7000030B591ED010A87B047
:10E0D000B5EE400A0023F1EE10FA04460D46009317
:10E0E0004FF067024FF007034FF0100102A80AD16A
:10E0F00095ED020AD4F7C8FC154902AA2046D5F7C7
:10E100000DFC07B030BDD4F7BFFC02AA1149204670
:10E11000D5F704FCD5ED027AF5EEC07AF1EE10FAEF
:10E1200004DAF4EE677AF1EE10FA03D70A492046D2
:10E13000D5F7B2F80023009367221021072302A825
:10E1400095ED020AD4F7A0FC02AA0449D6E700BF65
:10E1500008A205080CA2050810A2050812A20508CD
:10E1600008B50C202DED028BF0EE408AB0EE608AEF
:10E17000F1F798FFC0ED018A80ED028ABDEC028BB9
:10E18000014A026008BD00BF6CA2050808B5072857
:10E1900005D8DFE800F0052A040407041936002139
:10E1A000084608BDD1ED017AF5EE407AF1EE10FA9D
:10E1B00035D1D1ED027A1B4B1B49F5EE407AF1EED9
:10E1C00010FA08BF1946EBE7D1ED017A91ED027A1A
:10E1D000FDEEE77ABDEEC77A17EE903A17EE101A09
:10E1E0004B40590041F00101DAE7D1ED020A91ED0F
:10E1F000010AF1EE600AB1EE400ABDE80840FFF7FF
:10E20000AFBF91ED020AD1ED017A20EE000AA7EE30
:10E21000A70A14F0B9FFBDE8084001F0BDB80249F3
:10E22000BEE700BF08A1050810A1050830B52DED17
:10E23000028B0C4685B01146204604221D46FEF78F
:10E24000DBFBF4B1012C2B6822D09A0742D119686C
:10E25000274A91423ED1D3ED018A93ED028A686844
:10E2600083073FD10268224B9A423BD1D0ED027A1C
:10E27000D0ED010A78EEE78A78EE200AB0EE680A5F
:10E2800003E0DFED1C0AB0EE600AFFF769FF14E05F
:10E2900003F00302022A184604D0AAB91A681649E4
:10E2A0008A420ED103A9184604F0A6FE002300936B
:10E2B00001231A460399D4F795FE05B0BDEC028BF5
:10E2C00030BD0B498A42F8D01846FFF719F8DFED48
