:020000040800F2
:1000000090150020AD0100086F1D000817180008AA
:100010006D1D00081F030008236D0008000000008C
:100020000000000000000000000000000B2100089C
:100030004504000800000000092100080D21000807
:10004000C7010008C7010008C7010008C701000870
:10005000C7010008C7010008C7010008C701000860
:10006000C7010008C7010008C7010008C701000850
:10007000C7010008C7010008C7010008C701000840
:10008000C7010008C7010008C70100080000000000
:10009000000000000000000000000000C701000890
:1000A000C7010008C7010008C7010008C701000810
:1000B000C7010008C7010008C7010008C701000800
:1000C000C7010008C7010008C7010008C7010008F0
:1000D000C7010008C7010008C701000800000000B0
:1000E000C7010008C7010008C701000800000000A0
:1000F000000000000000000000000000C701000830
:1001000000000000C7010008C7010008C70100087F
:1001100000000000000000000000000000000000DF
:10012000C7010008C7010008C7010008C70100088F
:10013000C7010008000000000000000000000000EF
:10014000000000000000000000000000711D000819
:10015000C7010008C7010008C7010008C70100085F
:10016000C7010008C70100080000000000000000EF
:10017000000000000000000000000000000000007F
:1001800000000000C701000800000000000000009F
:10019000C7010008C7010008DFF80CD000F08CF898
:1001A00000480047AD7000089015002006488047C1
:1001B00006480047FEE7FEE7FEE7FEE7FEE7FEE74C
:1001C000FEE7FEE7FEE7FEE791210008990100083F
:1001D0002DE9F05F0546002092469B46884606467C
:1001E000814640241BE0284641464746224600F00F
:1001F00053F853465A46C01A914110D31146184637
:10020000224600F03AF82D1A67EB01084F462246C5
:100210000120002100F031F817EB00094E41201EAB
:10022000A4F10104DFDC484631462A464346BDE8D6
:10023000F09F40EA01039B0703D009E008C9121FA1
:1002400008C0042AFAD203E011F8013B00F8013B90
:10025000521EF9D27047D2B201E000F8012B491EBC
:10026000FBD270470022F6E710B513460A46044653
:100270001946FFF7F0FF204610BD202A04DB203A84
:1002800000FA02F1002070479140C2F1200320FAE9
:1002900003F3194390407047202A04DB203A21FAE7
:1002A00002F00021704721FA02F3D040C2F120028F
:1002B0009140084319467047064C074D06E0E06838
:1002C00040F0010394E8070098471034AC42F6D39D
:1002D000FFF766FF94760008B476000830B4144641
:1002E000D0F84825002544F40074D269A2F8903172
:1002F000D0F848350222DB6903EB8101D1F8901078
:10030000C97845EA012121250574012545744482F7
:100310008182C28230BC03F5C87103F089B9FEE75F
:1003200070B50546D0F84805C46994F84E00032816
:100330001BD0042818D1217B284604F00BF9012892
:1003400012D1217B284604F0E1F8A16A814214D041
:10035000628B824211D2091AA162216A084420628A
:100360005FF0030084F84E0070BD237B628B28464B
:10037000216A02F083FF0420F4E7002084F84E0095
:10038000284603F02EF970BDF8B50646D0F84805AA
:100390000125C46994F84D0001280AD0022807D12C
:1003A000617B304604F0D6F8012811D002281AD01B
:1003B000F8BD228B606A0095637B904200D882B2C0
:1003C0003046E16902F06AFF022084F84D00F8BD72
:1003D000208B626A0021824208D9121A6262E369A4
:1003E0001844E06103D084F84D50F8BD616284F890
:1003F0004D10304603F0F8F8F8BD000010B50022AB
:100400004FEA020100EB8203521CC3F850150F2A79
:10041000F8D300224FF400738418521C84F81C1186
:100420009A42F9D30170417001228270C0F88C1594
:10043000027640238371417680F81C1380F81D23D7
:10044000002010BD70477047A1220274212242741F
:100450000022428282820722C28203F0E9B80000B1
:1004600070B5044600F0DEF80546601C02D0044872
:100470000078044400F0D6F8401BA042FAD370BDC7
:100480000C0000202DE9F84FDFF860B100224FF09A
:1004900001084FF0030A4FF00F090BF1040E00BFE3
:1004A0000B6808FA02F42340A3426ED14D68022D76
:1004B00001D0122D0ED1D50800EB850CDCF82050B0
:1004C0005607F70E09FA07F6B5430E69BE402E43EC
:1004D000CCF82060066855000F790AFA05FC07F091
:1004E000030726EA0C06AF40374307604E68012E2B
:1004F00005D0022E03D0112E01D0122E0ED1866807
:10050000CF6826EA0C06AF40374387604668A643AB
:100510000C79C4F30014944034434460C6688C687A
:1005200026EA0C06AC403443C4604C68E40056D55F
:100530002F4C256845F480452560246822F003058A
:1005400004F4804400942B4C2E19D6F808489507E3
:100550002F0F09FA07F5AC43274DA84201D100251A
:1005600015E0264DA84201D1012510E0244DA842F6
:1005700001D102250BE0234DA84201D1032506E05D
:10058000214DA84202D1042501E028E00725BD4005
:100590002543C6F80858DBF800405D464E689C438A
:1005A000F60300D51C432C60DEF8004075464E680B
:1005B0009C43B60300D51C432C600C4D08352C68B9
:1005C0004E689C43F60200D51C432C60074D0C3549
:1005D0002C684E689C43B60200D51C432C60521C0C
:1005E000102AFFF45DAFBDE8F88F0000003C014029
:1005F0004438024000300140000002400004024044
:1006000000080240000C024000100240426931EA3A
:10061000020200D10904816170470AB1816170470B
:100620000904FBE701488068704700000C000020C7
:10063000D0F8C00203F01EBFD0F8C00203F030BFF4
:10064000006806F0BFB8006806F0C0B801EB810191
:1006500000EBC10090F85C00704701EB810100EBFA
:10066000C100C06C704710B5044690F8B80201286C
:1006700009D0012084F8B802206806F0B2F8002002
:1006800084F8B80210BD022010BD2DE9FE430546D6
:10069000DDE90B7095F8B842DDF828C0012C1CD0BC
:1006A00001EB81044FF0010905EBC40485F8B89211
:1006B000002684F83D6084F83830A4F8400084F8BF
:1006C000391084F83F7002F07F0884F83A805FEABE
:1006D000026805D584F83B9004E00220BDE8FE8363
:1006E00084F83B6084F83CC0CDF800C0CDE90170CF
:1006F000286806F0D7F885F8B862EFE770472DE96B
:10070000F04101EB8104DDE907E700EBC404DDF80B
:1007100018C084F83B20022684F83F30BCF1000F5B
:100720000AD084F84260002553B1012B2BD0022B54
:100730000FD0032B13D10CE0032584F84250F2E7CD
:10074000BCF1010F0BD152B9D7B9012284F8512065
:1007500003E0AAB194F85020AAB184F84260C4E939
:1007600011E784F85C50E56484F8391084F85D5032
:10077000027C04F138010068BDE8F04106F00EB9D2
:1007800094F85120E8E784F84250E8E72DE9F04179
:1007900004460068064606F020F801286FD120685C
:1007A00006F02BFA00286AD0206806F026FA8002AC
:1007B00003D521684FF400104861206806F01DFA47
:1007C000C00203D521684FF480104861206806F00C
:1007D00014FA400103D521684FF080604861206819
:1007E00006F00BFA800702D52168022048612068D4
:1007F00006F003FA800010D5D6F8400420F02E0051
:10080000C6F840042046FFF717FF0121206806F0D4
:10081000D9F921684FF000504861206806F0EDF9E1
:10082000C00102D5204600F020FF206806F0E5F95F
:10083000000705D5204600F0C8F821680820486167
:10084000206806F0DAF9800124D5206806F0A2F8C5
:10085000074600254FF0010815E000BF05F00F0125
:1008600008FA01F038420DD006EB4510D0F800052B
:10087000E9B20004204603D500F0BFFC02E01CE012
:1008800000F0D1FD6D1CA068A842E7D821684FF0A8
:1008900000704861206806F0B0F9C043C0060CD46F
:1008A0002068816921F010018161204600F03AFF43
:1008B0002068816941F010018161BDE8F08170B567
:1008C0008AB0040005D094F8B9022568002618B152
:1008D00007E001200AB070BD84F8B862204600F03D
:1008E00027F8032084F8B902E86BC00500D426611C
:1008F000206805F011FF04F1100128220D4668461A
:10090000FFF797FC94E80F0005F0B0FE0121206886
:1009100006F09EF9282229466846FFF78AFC94E8EB
:100920000F0006F0E3F8012084F8B9020020D1E7B7
:1009300010B586B0044614216846FFF793FC206882
:10094000B0F1A04F2FD119480021026842F00102F6
:100950000260006800F0010005904FF4C050009064
:100960000220CDE90101032003900A20049069468A
:100970000F48FFF787FD0D48001D016841F0800119
:1009800001600A481430016841F480410160006848
:10099000002200F4804005901146432000F0AAF8A0
:1009A000432000F099F806B010BD00003038024036
:1009B00000000240D0F8C00203F016BED0F8C0021A
:1009C00003F016BE006806F02AB9D0F8C00203F0A2
:1009D000C5BD10B5044690F8B80201280DD001201D
:1009E00084F8B802206805F0C5FE0121206805F0F2
:1009F000ABFE002084F8B80210BD022010BD10B577
:100A0000044690F8B802012809D0012084F8B80201
:100A1000206806F035F9002084F8B80210BD0220E5
:100A200010BD00000248816802781144816070475F
:100A30000C0000200B4810B5016841F40071016002
:100A4000016841F480610160016841F480710160D6
:100A5000032000F06FF8002000F006F800F024F802
:100A6000002010BD003C024070B50D4D04464FF40F
:100A70007A712878B1FBF0F00A490968B1FBF0F00F
:100A800000F0E2FA48B9102C07D200222146501E8D
:100A900000F030F800206C6070BD012070BD0000D7
:100AA0000C000020180000200A4808B5016841F435
:100AB00080410160006800F4804000900548001FFC
:100AC000016841F080510160006800F080500090A2
:100AD00008BD000044380240002809DB00F01F0276
:100AE000012191404009800000F1E020C0F8001190
:100AF00070470000F0B40E4B1B680C46C3F3022392
:100B0000C3F10705042D00D90425191D072901D2B9
:100B1000002300E0DB1E012606FA05F1491E2140F4
:100B200099409E40761E16403143F0BC06F00AB94B
:100B30000CED00E0064900F0070208684FF6FF03DD
:100B4000184040EA0220034A104308607047000042
:100B50000CED00E00000FA052DE9F0470E46050017
:100B600065D0DFF81481D8F80000F7B200F00F006C
:100B7000B04207D288F80070D8F8000000F00F00EB
:100B8000B04254D128683D4C810712D5400703D5A7
:100B9000206840F4E05020602878000703D52068E2
:100BA00040F4604020602068A96820F0F00008430D
:100BB00020602878C0072DD030496868083901289E
:100BC00012D0022813D0032811D009688907002900
:100BD0002DDA216821F0030101432160FFF722FD96
:100BE000814641F2883A0EE009688903EFE7096817
:100BF0008901ECE7FFF716FDA0EB0901514502D989
:100C00000320BDE8F0872068696800F00C00B0EBB5
:100C1000810FEFD1D8F80010404601F00F01B1422A
:100C200007D90770006800F00F00B04201D0012022
:100C3000E7E72878400705D52068E96820F4E05008
:100C4000084320602878000706D52068296920F429
:100C5000604040EAC100206000F036F82168084A90
:100C6000C1F30311515CC840064908600020FFF73A
:100C7000FBFE0020C5E70000003C024008380240AF
:100C800054720008180000200448054900680968EB
:100C9000044AC1F38221515CC8407047180000200B
:100CA0000838024064720008044805490068096871
:100CB000044AC1F34231515CC8407047180000201B
:100CC0000838024064720008154810B5006810F03A
:100CD0000C02144813D01449042A0FD0082A0ED14C
:100CE0000F4C241F2268236802F03F025B0207D5E5
:100CF0002068C0F38810A0FB010106E0084610BD83
:100D00002168C1F38811A1FB00010023FFF760FAFD
:100D10002168C1F30141491C4900B0FBF1F010BD4D
:100D2000083802400024F40040787D012DE9F84F96
:100D3000050076D02878DFF8F8B2BE4CC00749D05D
:100D4000DBF800105846C1F38101012908D0006882
:100D5000C0F3810002280AD1201D0068400206D598
:100D60002068800336D568680028E2D032E06868E1
:100D7000B0F5803F10D0B0F5A02F206810D020F43F
:100D800080302060206820F4802020606868A0B156
:100D9000FFF748FC06460CE0206840F48030F4E79A
:100DA00040F480202060F7E7FFF73CFC801B6428BC
:100DB00073D820688003F7D50CE0FFF733FC0646B4
:100DC00005E000BFFFF72EFC801B6428F0D82068E8
:100DD0008003F7D42878DFF8608280074FF000099D
:100DE0003ED5DBF80010584611F00C0F09D0006812
:100DF000C0F3810002280BD18D48001F006840021B
:100E000006D42068800715D5E868012809D111E0CB
:100E1000E868B8B10120C8F80000FFF703FC0646F7
:100E200005E002E1FFF7FEFB801B0228C0D8206826
:100E30008007F7D52068296920F0F80040EAC10052
:100E400020600DE0C8F80090FFF7ECFB064604E0D8
:100E5000FFF7E8FB801B02281FD820688007F7D423
:100E60002878000722D5724E744869696C3671B1D2
:100E700001210160FFF7D6FB074604E0FFF7D2FB34
:100E8000C01B022809D830688007F7D50EE0C0F8EB
:100E90000090FFF7C7FB074605E083E0FFF7C2FBC2
:100EA000C01B02287ED830688007F7D42878400716
:100EB00068D5DFF87CA100270AF1380ADAF80000CB
:100EC000C0000BD4DAF8001041F08051CAF80010CD
:100ED000DAF80000012700F080500090584E30688A
:100EE000C00510D4306840F480703060FFF79AFB82
:100EF000009005E0FFF796FB0099401A022851D8B0
:100F00003068C005F6D54A4EA868683601280FD06B
:100F10000528306810D020F001003060306820F0E3
:100F200004003060A868B8B1FFF77CFB00900FE0C8
:100F3000306840F00100F4E740F004003060F7E76B
:100F4000FFF770FB0099411A41F28830814264D862
:100F500030688007F4D50EE0FFF764FB009007E0EF
:100F6000FFF760FB0099411A41F28830814254D862
:100F700030688007F4D42FB1DAF8001021F08051E6
:100F8000CAF80010A869C0B3DBF80010C1F38101F2
:100F900002294AD00228484607D0C8F86000FFF767
:100FA00041FB00E039E005463AE04746C8F86000FA
:100FB000FFF738FB064604E0FFF734FB801B0228EE
:100FC0002BD820688001F7D4D5E907010843A96A26
:100FD0001C4A490802EB01416A6A41EA821108434E
:100FE00095F82C1040EA01611148001F01600120B2
:100FF0003866FFF717FB054605E014E0FFF712FB24
:10100000401B022809D820688001F7D50BE000BFFB
:10101000FFF708FB401B022802D90320BDE8F88F28
:1010200020688001F4D40020F8E70120F6E70000F2
:10103000083802400038024000004742800E474214
:10104000007000400000FFFF10B5401EB0F1807F2F
:1010500001D3012010BD4FF0E02460610F21601723
:1010600005F070FE0020A06107202061002010BD67
:1010700070B5040004D094F83900002510B106E0E2
:10108000012070BD84F83850204600F023F8242059
:1010900084F839002068C16821F40051C1602046FD
:1010A00001F0A0F82068016921F4904101612068F5
:1010B000416921F02A0141612068C16841F4005171
:1010C000C160E563202084F8390084F83A000020EC
:1010D00070BD000010B586B0044614216846FFF7C5
:1010E000C1F814492068884221D11348016841F0B1
:1010F00010010160006800F0100005900E481438DF
:10110000016841F0010101600068694600F00100DA
:1011100005904FF4C06000900220019001200290E1
:1011200003200390072004900448FFF7ABF906B0B2
:1011300010BD000000100140443802400000024091
:101140002DE9F843044690F839001F4616460D462F
:10115000202850D1A5B19EB194F8380001284AD07A
:10116000012084F838004FF00008C4F83C802120AA
:1011700084F83900FFF756FAA6848146E68426E013
:101180000120BDE8F883E08C401EE084A0684B4657
:10119000B0F5805F4FF000024FF0800120460097CD
:1011A00003D001F075F9E8B90DE001F071F9C8B9A3
:1011B00028882168C0F308004860206908B16D1CC8
:1011C00005E0AD1C03E0216815F8010B4860E08CD8
:1011D0000028D8D14B46002240212046009701F03C
:1011E00057F908B10320CCE7202084F8390084F8AF
:1011F00038800020C5E70220C3E72DE9F05F0746ED
:1012000000680E4600EB4114D4F808054FF0040BBB
:10121000420701EB86004FF0050A4FF0100807EB7C
:10122000C00508D5C4F808B5D4F80C0540F0020094
:10123000C4F80C0530E0D4F80805800601D520205C
:1012400028E0D4F808054FF0080900070FD5D4F8B6
:101250000C0540F00200C4F80C0585F85DA0C4F848
:101260000885C4F80895386805F0BBFA14E0D4F88E
:101270000805400510D5D4F80C0540F00200C4F86C
:101280000C05386805F0ADFAC4F8088585F85D905E
:101290004FF48060C4F80805D4F8080580050ED521
:1012A000D4F80C0540F00200C4F80C05314604F5F2
:1012B000A164386805F095FA4FF4007090E0D4F816
:1012C00008054FF00001C0074FF0010237D0386920
:1012D00030B1A86CD4F81035C3F31203C01AE86417
:1012E00085F85D20A965C4F8082595F83F0020B170
:1012F000022802D003280FD01AE0D4F80C0540F0E1
:101300000200C4F80C05314604F5A164386805F004
:1013100068FAC4F800800BE0D4F8000540F00050F3
:10132000C4F8000585F85C2031463846FFF7E6F939
:1013300015F8500F80F001002870BDE8F09FD4F838
:101340000805800735D5D4F80C0520F00200C4F854
:101350000C0595F85D000223012808D0052809D066
:1013600006280AD0082808D003281FD015E085F8E1
:101370005C2012E085F85CA00FE0A86D401CA86519
:10138000032813D9A96585F85CB0D4F8000520F0CE
:10139000804040F00040C4F80005C4F8083595F8D6
:1013A0005C2031463846FFF7A9F9C6E785F85C307E
:1013B000EBE7D4F80805000614D5D4F80C0540F086
:1013C0000200C4F80C05A86D3146401CA865062033
:1013D00085F85D0004F5A164386805F002FA802004
:1013E0002060AAE7D4F80805C006A6D595F83F0006
:1013F000032803D020B1022802D011E0A96505E03E
:10140000A965386960B9032085F85D00D4F80C053A
:1014100040F00200C4F80C053146386805F0E1F9E7
:10142000C4F8088589E72DE9F047026802EB41140A
:10143000D4F808254FF00403520709D5C4F808353D
:10144000D4F80C0540F00200C4F80C05BDE8F087A4
:10145000D4F8082501EB810596064FF0000200EB59
:10146000C5054FF0020C15D52023C4F8083595F8B2
:101470003D30012BEAD185F83D2085F85CC0D4F8D9
:101480000C2542F00202C4F80C250068BDE8F047C4
:1014900005F0A7B9D4F8086577064FF0010611D515
:1014A00085F85D3085F83D60AA65D4F80C2542F0DA
:1014B0000202C4F80C25006804F5A16405F091F956
:1014C000402010E0D4F80875BF050ED5D4F80C25DF
:1014D00042F00202C4F80C25006804F5A16405F08E
:1014E00080F94FF400702060B0E7D4F80875FF076A
:1014F0000FD0AA65D4F80C2542F00202C4F80C25DE
:10150000006804F5A16405F06CF9266085F85D605B
:101510009CE7D4F808754FF005095FEA07784FF0AB
:1015200008070DD5C4F80875D4F80C2542F002025E
:10153000C4F80C25006805F054F985F85D9085E73E
:10154000D4F808854FF0100A5FEAC86818D5AA6574
:10155000032285F85D2095F83D2022B995F83C20BE
:101560000AB985F83D60D4F80C2542F00202C4F8AF
:101570000C25006804F5A16405F033F95046B2E784
:10158000D4F808855FEA08680FD5D4F80C2542F036
:101590000202C4F80C25006804F5A16405F021F9E5
:1015A000062085F85D0080209DE7D4F808855FEA75
:1015B000485812D5D4F80C2542F00202C4F80C2584
:1015C000006804F5A16405F00CF9C4F800A04FF41C
:1015D0008060206085F85D7038E7D4F80875BF0733
:1015E00096D5D4F80C7527F00207C4F80C7595F859
:1015F0005D70012F0AD0032F17D0042F15D0052FAF
:1016000016D0062F17D0082F15D027E085F85C607C
:1016100095F83F20022A01D0032A1FD195F85120C6
:1016200082F0010285F8512018E085F85CC015E0D1
:1016300085F85C9012E0AE6D761CAE65032E03D982
:10164000AA6585F85C3001E085F85CC0D4F8002517
:1016500022F0804242F00042C4F80025C4F808C5D8
:1016600095F85C20FFF74AF8F0E67CB5046805467B
:10167000D4F840040190D4F8400420F02E000090EB
:10168000019880070DD50198C00706D0A06920F009
:101690000051A1612846FEF7CBFF009840F0020000
:1016A00000900198000732D5009840F008000090A3
:1016B000019840071DD5A869022803D0E8680128D1
:1016C0000CD00FE00198C0F341400228286803D0F5
:1016D000012105F077FA05E00221FAE74EF66020D5
:1016E000C4F804042846FFF769F92846FEF7A0FF6E
:1016F0000DE02846FFF75EF9D4F8400420F02E00F4
:10170000C4F840042868816941F000518161019862
:101710008006009802D540F020000090C4F84004F4
:101720007CBD00002DE9F041024600680646016AD2
:10173000C1F3434301F00F07C1F30A14022B25D173
:10174000002C23D007EB870102EBC105696C00294F
:101750001CD0224605F055FA686C20446864E86C99
:101760002044E86406EB4710D0F81015084A1142EF
:101770000CD0D0F8001521F0804141F00041C0F8B4
:10178000001515F8500F80F001002870BDE8F081B9
:101790000000F81FF0B502460020157A537A16684B
:1017A000044643B18B4220D9536801FB035106EB39
:1017B000D10601F007055368D90803E03078E70047
:1017C000B840641C5F0701D04F1C00E00F46A742E1
:1017D000F4D8E840012101FA03F4641ED5682040E2
:1017E000854202D81569854201D20020F0BD957A64
:1017F00065B15B1E9940014208D060EA0401D069DE
:10180000012801D04843F0BD0846F0BDD169012947
:10181000FBD04843F0BDFEE72DE9F0410746D0F884
:101820004805C46904F58050B0F84E5DD0F8546D99
:10183000A5F580400F286ED2DFE800F00811252EB4
:10184000374049525B646E77808992004DA005F065
:1018500069FA04F500544EA0D4F8A81107E049A095
:1018600005F060FA04F5005452A0D4F8A81105F070
:1018700059FA5BA005F056FA32462946384603F07D
:101880004AFDBDE8F0813FA005F04CFA04F5005494
:1018900054A0D4F8A811EAE73AA005F043FA04F5F9
:1018A00000545AA0D4F8A811E1E736A005F03AFA9E
:1018B00004F500545FA0D4F8A811D8E731A005F0D2
:1018C00031FA04F5005465A0D4F8A811CFE72DA093
:1018D00005F028FA04F500546AA0D4F8A811C6E768
:1018E00028A005F01FFA04F5005471A0D4F8A8113F
:1018F000BDE724A005F016FA04F5005477A0D4F84B
:10190000A811B4E71FA005F00DFA04F500547EA05D
:10191000D4F8A811ABE72CE01AA005F003FA04F5FF
:10192000005485A0D4F8A811A1E716A005F0FAF993
:1019300004F5005489A0D4F8A81198E711A005F087
:10194000F1F904F500548FA0D4F8A8118FE70DA089
:1019500005F0E8F904F5005496A0D4F8A81186E73C
:1019600008A005F0DFF904F500549DA0D4F8A811F3
:101970007DE704A005F0D6F904F50054A3A0D4F83F
:10198000A81174E74445425547203A200000000062
:101990004556543A205054505F45435F556E646538
:1019A00066696E656420696E2073657373696F6E16
:1019B000202575004556543A205054505F45435FEA
:1019C00043616E63656C5472616E73616374696FB9
:1019D0006E20696E2073657373696F6E20257500C4
:1019E0000A0000004556543A205054505F45435F6A
:1019F0004F626A656374416464656420696E207334
:101A0000657373696F6E2025750000004556543A62
:101A1000205054505F45435F4F626A65637452655E
:101A20006D6F76656420696E2073657373696F6E80
:101A3000202575004556543A205054505F45435F69
:101A400053746F7265416464656420696E207365C8
:101A50007373696F6E202575000000004556543A77
:101A6000205054505F45435F53746F726552656DEB
:101A70006F76656420696E2073657373696F6E207D
:101A8000257500004556543A205054505F45435F39
:101A900044657669636550726F704368616E67650F
:101AA0006420696E2073657373696F6E20257500FD
:101AB0004556543A205054505F45435F4F626A6523
:101AC0006374496E666F4368616E67656420696E12
:101AD0002073657373696F6E202575004556543AFF
:101AE000205054505F45435F446576696365496E95
:101AF000666F4368616E67656420696E2073657305
:101B000073696F6E202575004556543A2050545025
:101B10005F45435F526571756573744F626A6563B3
:101B2000745472616E7366657220696E207365739A
:101B300073696F6E202575004556543A20505450F5
:101B40005F45435F53746F726546756C6C20696EB8
:101B50002073657373696F6E202575004556543A7E
:101B6000205054505F45435F446576696365526514
:101B700073657420696E2073657373696F6E2025B9
:101B8000750000004556543A205054505F45435F5D
:101B900053746F72616765496E666F4368616E6703
:101BA000656420696E2073657373696F6E20257597
:101BB000000000004556543A205054505F45435FA2
:101BC00043617074757265436F6D706C65746520E8
:101BD000696E2073657373696F6E20257500000050
:101BE0004556543A205054505F45435F556E7265D8
:101BF000706F7274656453746174757320696E20BC
:101C000073657373696F6E20257500005265636597
:101C10006976656420756E6B6E6F776E206576658C
:101C20006E7420696E2073657373696F6E202575FD
:101C30000000000070B586B014216846FEF712FB64
:101C400015480024016841F004010160016801F0B9
:101C500004010591016841F080010160016801F013
:101C600080010591016841F00101016000680122D5
:101C700000F00100094E5503059029463046FEF755
:101C8000CCFC01200095CDE901046946304603945F
:101C9000FEF7F8FB06B070BD303802400008024085
:101CA0000C4810B50A4901604FF4E1314160002150
:101CB00081600C22C160C0E904128161C161FFF73B
:101CC000D7F9002803D0BDE81040FEF7BCBB10BD1B
:101CD00000100140DC00002010B5012219491A480B
:101CE00002F06CFB08B1FEF7AEFB1849164804F091
:101CF000B1FB08B1FEF7A7FB1549134804F0AAFB96
:101D000008B1FEF7A0FB13490F4804F0A3FB08B18C
:101D1000FEF799FB10490C4804F09CFB08B1FEF754
:101D200092FB0E49084804F095FB08B1FEF78BFBC7
:101D3000054804F081FC002803D0BDE81040FEF700
:101D400082BB10BD4D6600081C0100201C00002055
:101D50003C000020900000205C000020B00000202B
:101D6000014804F0D3B900001C010020FEE77047D1
:101D70000148FEF70BBD0000B806002010B5D0F8F2
:101D8000481541F68A526FF48053C969525AD218E5
:101D90001BD0082A03D00C2A1BD01A2A14D101F513
:101DA0000054D4F8BC0100280ED141F69053D4F869
:101DB000C4014FF47D72194404F5D874FEF739FA62
:101DC000606900F57D70206010BDBDE8104000F036
:101DD0000DB801F50051D1F8BC010028F4D1D1F8BB
:101DE000C40100F57D70C1F8B00110BDF8B5D0F8A0
:101DF00048050C46C66941F69050351846A004F0D7
:101E000091FF484804F08EFF47A004F08BFF06F5D1
:101E10000056D6F8BC0100287CD12888208069793A
:101E2000D5F802006A4661F31F606060E88820818F
:101E300005F1080104F10A0000F001F9BDF8000005
:101E4000012101EB4006A81906F10A020089A4F855
:101E50000A01294604F5887000F068F806EB400294
:101E6000161DC4F80C010E32294604F5EE7000F080
:101E70005DF806EB4002161DC4F8D8010E32294663
:101E800004F52A7000F052F806EB4002161DC4F863
:101E9000A4020E32294604F55D7000F047F806EB07
:101EA0004002161DC4F870030E32294604F58860FE
:101EB00000F03CF806EB4006361DA919C4F83C04B6
:101EC0006A4604F5A1600A3100F0B9F8BDF80000D7
:101ED0006A4606EB4006761CA91904F207600A312F
:101EE00000F0ADF8BDF800006A4606EB4006761C2F
:101EF000A91904F206700A3100F0A1F8BDF800003B
:101F00006A4606EB4000401C291804F605000A3119
:101F100000F095F8F8BD00004445425547203A20AE
:101F200000000000307600080A00000030B50446CA
:101F300000238818C578006865F31F6007E000BFBC
:101F400002EB43050D442D7924F813505B1C984295
:101F5000F6D830BD70B5044600238818C5780068EF
:101F600065F31F600AE000BF02EB83050D44EE79C4
:101F70006D6866F31F6544F823505B1C9842F3D8E4
:101F800070BD38B5D0F8480541F690511546C06986
:101F900044182088108060885080A0889080E27962
:101FA000A179237A100E41EA022141EA034140EA75
:101FB0001340637AA27A40EA13201043E27A41EA9E
:101FC000036140EA0220227B40EA0240627B40EA51
:101FD0000260C5E90210E27BA07B237C110E40EA7F
:101FE000022040EA034041EA1341637CA27C41EABB
:101FF00013211143E27C40EA036041EA0221227D81
:1020000041EA0241627D41EA0261C5E90401617E63
:10201000D4F816006A4661F31F60A86104F11A0142
:1020200005F11C0000F00BF8BDF800006A4604EB57
:10203000400105F21B101B3100F001F838BD10B54E
:102040000B78138011F8012B5300002204E08C5C04
:10205000921C00F8014B92B29A42F8D30021017011
:1020600010BD012902D0022938D04BE09178072910
:1020700048D2DFE801F04704060F2A211800026069
:1020800040E0B0F87E1000EB8103491CA0F87E1000
:102090005A6037E0B0F8801000EB8103491CA0F8CB
:1020A00080105A612EE0B0F8821000EB8103491CC9
:1020B000A0F882105A6225E0B0F8841000EB81038A
:1020C000491CA0F884105A641CE0B0F8861000EB9C
:1020D0008103491CA0F886105A6313E09178012906
:1020E00002D002290ED105E0B0F87C1000EBC1004F
:1020F000426507E0B0F87C1000EBC103491CA0F872
:102100007C109A650020704770477047FEF78ABCC4
:1021100030B593B030216846FEF7A4F814210CA81E
:10212000FEF7A0F818480025016841F080510160D1
:10213000006800F0805011901448016841F440415B
:1021400001600068022400F44040119001200090DA
:10215000000401908001CDE9064019200890C020BC
:10216000CDE9090404200B906846FEF7DFFD0CA9B9
:102170000F2081E83100E002CDE90F0503210CA812
:10218000FEF7EAFC13B030BD40380240007000405A
:102190001048016841F4700101600F48016841F086
:1021A000010101600C4A00210832116002680B4BEA
:1021B0001A400260031D0A4A1A60026822F4802253
:1021C000026005480C3001600249580680390860F9
:1021D0007047000088ED00E000380240FFFFF6FE87
:1021E000103000242DE9F041044600680169E268DE
:1021F00021F44051114301612169A068E26908435B
:102200006169114322680843D16849F20C6399431C
:102210000143D16020684169A26921F440711143F2
:102220004161E2696425B2F5004F974897492268F9
:102230004FF032083FD08A4201D082427CD1FEF773
:1022400033FD00EBC00101EB001061688900B0FBB9
:10225000F1F6FEF729FD00EBC00101EB001061680B
:102260008900B0FBF1F0B0FBF5F06FF018014843C6
:1022700006EB800108EB0110B0FBF5F000F0F00672
:10228000FEF712FD00EBC00101EB00106168890050
:10229000B0FBF1F0B0FBF5F006EB0016FEF704FD25
:1022A00000EBC00101EB001061688900B0FBF1F7A1
:1022B000FEF7FAFCD2E08A4201D082423DD1FEF71D
:1022C000F3FC00EBC00101EB001061684900B0FBBA
:1022D000F1F0B0FBF5F00601FEF7E6FC00EBC00103
:1022E00001EB001061684900B0FBF1F7FEF7DCFC80
:1022F00000EBC00101EB001061684900B0FBF1F098
:10230000B0FBF5F06FF01801484307EB800108EBD4
:10231000C100B0FBF5F000F0F80006EB4006FEF758
:10232000C3FC00EBC00101EB001061684900B0FB89
:10233000F1F7FEF7B9FC3CE055E0FEF7A5FC00EB39
:10234000C00101EB001061684900B0FBF1F0B0FB87
:10235000F5F00601FEF798FC00EBC00101EB001060
:1023600061684900B0FBF1F7FEF78EFC00EBC0019D
:1023700001EB001061684900B0FBF1F0B0FBF5F033
:102380006FF01801484307EB800108EBC100B0FB78
:10239000F5F000F0F80006EB4006FEF775FC00EBE8
:1023A000C00101EB001061684900B0FBF1F7FEF7D6
:1023B0006BFC00EBC00101EB001061684900B0FB51
:1023C000F1F0B0FBF5F06FF01801484307EB800126
:1023D00008EBC100B0FBF5F000F0070021683044C5
:1023E0008860BDE8F081FEF74FFC00EBC00101EB17
:1023F000001061688900B0FBF1F6FEF745FC00EBC8
:10240000C00101EB001061688900B0FBF1F0B0FB86
:10241000F5F06FF01801484306EB800108EB01105E
:10242000B0FBF5F000F0F006FEF72EFC00EBC0016B
:1024300001EB001061688900B0FBF1F0B0FBF5F032
:1024400006EB0016FEF720FC00EBC00101EB0010CC
:1024500061688900B0FBF1F7FEF716FC00EBC001E4
:1024600001EB001061688900B0FBF1F0B0FBF5F002
:102470006FF01801484307EB800108EB0110B0FB37
:10248000F5F000F00F00A9E7001401400010014032
:102490002DE9F041984617460E460446069D1DE07C
:1024A000681C1BD02DB1FEF7BDF8A0EB0800A842B8
:1024B00014D92068C16821F4D071C16020684169D5
:1024C00021F001014161202084F8390084F83A00AC
:1024D000002084F838000320BDE8F08120680068FF
:1024E00036EA000004D00020B842D9D00020F3E73B
:1024F0000120F9E7F0B40F46D0F84815DDE904C62D
:102500000025C9694FF48074022F06D0032F17D01D
:10251000062F0AD0F0BC022070470A6FD27845EA35
:1025200002250022A1F890210FE001EB82024CEA83
:102530000324D2F89020D27845EA0225324605E0FD
:10254000D1F88020D27845EA02250122A123037424
:102550008123437444828582C282F0BC01F5C87134
:1025600001F066B8F0B40F46D0F84815DDE904C6AE
:102570000025C9694FF48074022F06D0032F17D0AD
:10258000062F0AD0F0BC022070470A6FD27845EAC5
:1025900002250022A1F890210FE001EB82024CEA13
:1025A0000324D2F89020D27845EA0225324605E08D
:1025B000D1F88020D27845EA02250122A1230374B4
:1025C0008323437444828582C282F0BC01F5C871C2
:1025D00001F02EB8F0B40F46D0F84815DDE904C676
:1025E0000025C9694FF48074022F06D0032F17D03D
:1025F000062F0AD0F0BC022070470A6FD27845EA55
:1026000002250022A1F890210FE001EB82024CEAA2
:102610000324D2F89020D27845EA0225324605E01C
:10262000D1F88020D27845EA02250122A123037443
:102630008223437444828582C282F0BC01F5C87152
:1026400000F0F6BFF0B40F46D0F84815DDE904C637
:102650000025C9694FF48074022F06D0032F17D0CC
:10266000062F0AD0F0BC022070470A6FD27845EAE4
:1026700002250022A1F890210FE001EB82024CEA32
:102680000324D2F89020D27845EA0225324605E0AC
:10269000D1F88020D27845EA02250122A1230374D3
:1026A0008423437444828582C282F0BC01F5C871E0
:1026B00000F0BEBF70472DE9F0410646D0F848054E
:1026C00000210D46C4690A4640F20113B4F8EA003D
:1026D0000FE004EB82073F6FBF889F4207D104EBF6
:1026E0008200006FC178C07984F8090103E0521CB0
:1026F000D2B29042EDD80020B4F8E8200BE004EB11
:10270000C003D3F8C030DB788B4202D184F80401D7
:1027100003E0401CC0B28242F1D8304600F07CFA9F
:1027200001000ED0C1F30722C8B2C1F30741032A4A
:1027300013D0042A0BD0052A0CD0062A04D0022577
:10274000EBE70220BDE8F08184F80701E5E784F8B3
:102750000501E2E784F80601DFE784F8080104EBED
:102760008000D0F880008088A0F58071033901D006
:102770000020E7E72846E5E72DE9F0410646D0F8D6
:10278000480500210D46C4690A4640F20123B4F809
:10279000EA000FE004EB82073F6FBF889F4207D13A
:1027A00004EB8200006FC178C07984F8510103E026
:1027B000521CD2B29042EDD8304600F02DFA70B1E2
:1027C000C0F30723C2B2C0F30741032B13D0042B7D
:1027D0000BD0052B0CD0062B04D00225ECE70220F1
:1027E000BDE8F08184F84F21E6E784F84D21E3E766
:1027F00084F84E21E0E784F850212846F0E72DE9DF
:10280000FC410746D0F8480501264FF6FF75C4691C
:10281000022063781B1F052B65D2DFE803F0192F18
:10282000034D6300CDE900200A4602230621384605
:10283000FFF760FE012856D004206070B4F89211B2
:10284000B4F8900105EA01210843C4F834014AE0D4
:10285000CDE900200A46022306213846FFF7BAFEDA
:10286000012840D005206070B4F89211B4F89001AE
:1028700005EA01210843C4F82C0134E0CDE9002029
:102880000A46022306213846FFF76CFE01282AD0AB
:1028900007206070B4F89211B4F8900105EA0121A4
:1028A0000843C4F83001D4F82C1188421BD24FF4ED
:1028B0007F40C4F8300116E0CDE900200A4602232B
:1028C00006213846FFF7BEFE01280CD008206070B4
:1028D000B4F89211B4F8900105EA01210843C4F854
:1028E000380100E000263046BDE8FC812DE9F041CA
:1028F000D0F8481501270626CC692178082966D228
:10290000DFE801F065045E040D43502694F842119F
:102910000425012952D194F8401100224BE094F88B
:10292000FA100725012902D0257066704FE094F84F
:10293000F810002203F072FE30BB2570667094F828
:10294000070184F8A00194F8090184F8A1013EE090
:10295000254694F8A12194F8A011FFF750FF012813
:1029600035D095F8A101012804D0401E85F8A101B9
:102970006E702CE095F8070185F8A001002085F81D
:10298000A1016E700520207021E094F84211012908
:1029900006D194F8412194F8401103F03FFEB0B9FC
:1029A000267014E094F8FA100225012906D194F853
:1029B000F92094F8F81003F031FE40B9257006E0D4
:1029C0000121A170D0F898250221904700273846B0
:1029D000BDE8F0812DE9F0410546D0F84805012613
:1029E000C469E078012807D0022821D001270428F3
:1029F0004AD0052851D149E0D5F88C05C0074CD103
:102A0000D5F88C05C4F88C0194F88A3194F88621A5
:102A100004F5C871284601F003FD94F8070184F815
:102A2000A00194F8090184F8A1010220E07034E0CB
:102A300094F88A11284601F08DFD01280DD194F8F3
:102A4000921194F89001FF2202EA01210843C1B2D9
:102A5000284600F03FFB01281FD0D5F88C05D4F89C
:102A60008C11401A94F88B11884216D3D5F88C0536
:102A7000C4F88C0194F88A3194F8862104F5C87161
:102A8000284601F0CDFC08E0012100E002212846A3
:102A900000F020FB08B9E77000263046BDE8F08161
:102AA000F0B504460220D4F8481500231A46CD6933
:102AB00002EBC20101EB021104EB410191F8436307
:102AC000012E1FD191F84463022E1BD191F84A6365
:102AD000370617D5B1F84C73A7B103EB830705EBA5
:102AE0004707BE71B1F84C633E8191F84063FE72B6
:102AF00091F84163BE7291F84E13F98101215B1C7C
:102B00003973DBB2521CD2B20A2AD1D3002B00D0C7
:102B10000020F0BDF0B504460220D4F8481500238B
:102B20001A46CD6902EBC20101EB021104EB41012F
:102B300091F84363012E20D191F84463022E1CD1F9
:102B400091F84A63370618D4B1F84C73AFB103EB70
:102B5000830705EB470707F8386FB1F84C637E80B1
:102B600091F840637E7191F841633E7191F84E1384
:102B7000398101215B1CB971DBB2521CD2B20A2A25
:102B8000D0D3002B00D00020F0BD000070B505466A
:102B9000D0F8480501220226C469FF2311462846C1
:102BA00000F088FDFF280CD05FF0000101EBC100B0
:102BB00000EB011005EB400090F84323032A02D0FC
:102BC00023E0022070BDB0F84C23F2B190F84A2304
:102BD00012061AD501EBC10202EB011105EB41010E
:102BE00091F84A1384F88411B0F84C13A4F88611B4
:102BF00090F8401384F8881190F84E0384F88B0104
:102C0000012084F88901002603E0491CC9B20A2981
:102C1000CCD3304670BD000030B5D0F84805002256
:102C2000C069B0F8EE3012E000EB8204D4F89040B6
:102C300024798C4209D100EB8200D0F89000C07852
:102C400042EA004040F4C06030BD521CD2B2934210
:102C5000EAD80022B0F8F23016E000BF00EB8204A0
:102C6000D4F8A04065798D4202D0A4798C4209D174
:102C700000EB8200D0F8A000C07842EA004040F4A7
:102C8000806030BD521CD2B29342E7D80022B0F827
:102C9000F03012E000EB8204D4F8B04064798C424A
:102CA00009D100EB8200D0F8B000C07842EA0040C1
:102CB00040F4A06030BD521CD2B29342EAD8002248
:102CC000B0F8EC3013E000BF00EB8204D4F8804091
:102CD000E4798C4209D100EB8200D0F88000C07802
:102CE00042EA004040F4407030BD521CD2B29342E0
:102CF000EAD8002030BD704770B50546D0F84805C9
:102D00000026C46994F8431149B1284600F06DFCCF
:102D100094F84311284600F008FD84F8436194F8C4
:102D2000FB1049B1284600F060FC94F8FB102846DF
:102D300000F0FBFC84F8FB6094F88A1149B1284646
:102D400000F053FC94F88A11284600F0EEFC84F859
:102D50008A61D5F84805C06920B104F07FF9D5F83B
:102D60004805C661002070BD2DE9FE434FF0000804
:102D700001220546022647464346114600F09AFCCA
:102D8000FF2816D04FF4D279484604F02DFAD5F832
:102D900048150446C8614946FDF764FA2846FFF71E
:102DA0007FFE81462846FFF7B5FEB9F1020F08D035
:102DB00009E065A003F0B6FFD5F84805016865A0F5
:102DC00014E002280BD000215FF0010601EB810026
:102DD00004EB400090F83E20012A0DD025E05AA0D7
:102DE00003F0A0FFD5F84805016864A003F09AFF3E
:102DF0006CA003F097FFA4E0428F424515D990469E
:102E000090F83D2084F8F82090F83C2084F8F920D0
:102E100090F8382084F8F420428FA4F8F62090F837
:102E2000402084F8FC2084F8FA60027B012A15D146
:102E30000289BA4212D91746C27A84F84021827AAE
:102E400084F84121827984F83C210289A4F83E214A
:102E500090F8400084F8440184F84261491CC9B2EA
:102E60000529B3D32846FFF791FE08B984F8896194
:102E7000284600F0DCF894F8FA0001281BD1284617
:102E8000FFF719FC14F8F41F284600F0DDF9E07193
:102E90000146608895F81D230092CDE9016095F800
:102EA0001C332278284602F037FEE17900222846BA
:102EB000F43C01F0ADFB94F8420101281ED12846F4
:102EC000FFF75AFC94F83C11284604F59E7400F074
:102ED000BBF9E0710146608895F81D230092CDE9A9
:102EE000016095F81C332278284602F015FEE1793E
:102EF00000222846A4F59E7401F08AFB94F889010B
:102F000001281BD194F88411284604F5C27400F0FE
:102F10009BF9A071014695F81D03638803228DE893
:102F20000D0095F81C332278284602F0F5FDA179B2
:102F300000222846A4F5C27401F06AFB2670E670F0
:102F400000263046BDE8FE834445425547203A20DE
:102F50000000000043616E6E6F742046696E64204D
:102F600074686520696E7465726661636520666F5A
:102F70007220257320636C6173732E0025732063A8
:102F80006C61737320636F6E6669677572617469D3
:102F90006F6E206E6F7420737570706F72746564DD
:102FA0002E0000000A0000002DE9F0410646D0F88E
:102FB000480501250527C469A078062830D2DFE836
:102FC00000F02F032010322E94F8040104EBC0000F
:102FD000D0F8C400C07910B10220A07020E0032016
:102FE000FBE794F8040194F8F41004EBC000D0F867
:102FF000C4203046083200F0AFF8050010D1A770A9
:103000000EE004F5867294F8F410304600F0A4F84F
:10301000050005D1A7703046FFF76DFE00E00025E2
:103020002846BDE8F081304600F0A6F8F7E72DE924
:10303000F8430546D0F8480500270921C069ADF8D6
:1030400000103E46A0F8EE70A0F8EA70A0F8EC7010
:1030500005F11C04A0F8E87000F16C0822E0694654
:10306000204600F088FB04464078042802D024283B
:1030700018D107E0A678E2783146284600F03CFBFC
:1030800007460FE095F83803B0420BD307EBC700B3
:1030900000EB071005EB4000224690F84413404631
:1030A000FEF7DFFFB5F83603BDF800108842D6D82A
:1030B0000020BDE8F88370B5D0F848150125CC692B
:1030C00094F8FA10012901D1FFF76EFF284670BD70
:1030D0000020704770B5D0F8482501250129D46932
:1030E00026D0022928D00225D4E94C128A4201D9DF
:1030F000C4F83411D4F83421D4F82C118A4201D206
:10310000C4F83411B4F8341194F8A1218BB294F8B6
:10311000A011FDF7E3F8012808D094F8A1010128D7
:1031200010D0401E84F8A10106206070284670BDB2
:10313000D4E94D12114402E0D4E94D12891AC4F8C1
:103140003411D1E794F8070184F8A00194F809013B
:1031500084F8A1010025E7E730B4134622250322B5
:10316000057401254FF48074457444828182C282C3
:1031700030BC194600F05CBA70B50546D0F8480579
:103180000126C4692079012804D002281CD0022617
:10319000304670BDD5F88C05C007F9D1D5F88C053F
:1031A000C4F800010220207194F8FB30B4F820210B
:1031B000D4F810112846E43401F042F9A08F60637E
:1031C000A063E06A2063E3E794F8FB10284601F06F
:1031D000C1F90128DCD1D5F88C05D4F80011401ACA
:1031E00094F8FC108842D3D3D5F88C05C4F80001BC
:1031F00094F88901012802D12846FFF7EBFBD4F8A7
:103200002411D4F81C01884214D894F8FB30B4F887
:103210002021D4F814112846FC3401F011F9A08CB7
:10322000A1690144A161E1690144E161216A0844A5
:103230002062ADE74FF0FF30C4F818010520A07000
:103240002846FFF737FAA3E710B500224FF6FF73C1
:1032500000EB8204B4F85045240409D49A4205D006
:1032600000EB820041F40041C0F85015D0B210BD0F
:10327000521CD2B20B2AEBD31A46F7E77FB51C4695
:10328000012501AE0023009586E80E0002232A46A0
:10329000214601F0DFF904B0002070BD7FB51D4666
:1032A00090F81D33089C03B100240123CDE90031BF
:1032B000CDE9022402230022294601F0CBF904B013
:1032C000002070BD70B50446D0F84805C16920469D
:1032D0004031FDF7B9F8050004D1D4F89825022152
:1032E00020469047284670BD70B50546D0F8480581
:1032F0000026C469217839B1284600F076F9217892
:10330000284600F012FA2670217B39B1284600F0D9
:103310006CF9217B284600F008FA2673617B39B1ED
:10332000284600F062F9617B284600F0FEF96673DA
:10333000D5F84805C06920B103F090FED5F84805DE
:10334000C661002070BD0000FEB5022705460123BE
:103350003A46394600F0AEF90646FF2846D0014607
:10336000284603F0B7F8502003F03EFFD5F8481583
:103370000446C86106EBC60000EB061005EB4000F2
:1033800090F84A130A0603D56170B0F84C036081C7
:1033900061782846FFF758FF2070014695F81D0315
:1033A000638903228DE80D0095F81C336278284666
:1033B00002F0B2FB21780022284601F029F900230F
:1033C0001A460A21284600F075F9FF2816D000EBAE
:1033D000C00101EB001005EB400090F84A130A060B
:1033E00019D5E173B0F84C13618318E02DA003F0F8
:1033F00099FCD5F8480501682DA006E029A003F046
:1034000091FCD5F84805016839A003F08BFC45A074
:1034100003F088FC43E0A173B0F84C13218390F8CB
:1034200052130A0604D5E173B0F85403608303E035
:10343000A173B0F854032083A17B2846FFF704FF53
:103440006073E17B2846FFF7FFFE2073208B95F821
:103450001D1302260091CDE9016095F81C33A27B73
:10346000617B284602F058FB608B95F81D13009194
:10347000CDE9016095F81C33E27B217B284602F000
:103480004BFB002084F84C000246617B284601F08B
:10349000BFF8217B0022284601F0BAF80027384601
:1034A000FEBD00004445425547203A200000000080
:1034B00043616E6E6F742046696E64207468652087
:1034C000696E7465726661636520666F7220436F12
:1034D0006D6D756E69636174696F6E20496E746598
:1034E000726661636520436C6173732E0000000097
:1034F00043616E6E6F742046696E64207468652047
:10350000696E7465726661636520666F72204461DE
:10351000746120496E7465726661636520436C61F5
:1035200073732E000A00000070472DE9F041054634
:10353000D0F8480501270026C4694FF0040894F824
:103540004C0005284AD2DFE800F00305163B420094
:10355000002743E02122A16C2A7420226A746E8223
:10356000AE8207222846EA8200F062F848B90220BB
:1035700084F84C0032E004F140012846FCF764FF77
:1035800020B101282AD084F84C8027E084F84C60D0
:10359000A06C94F84410027991421FD194F846101F
:1035A000827991421AD194F845104279914215D10D
:1035B000216C0068814211D12846FFF7B5FF0DE06C
:1035C0002846FCF7E1FE2846FCF7AAFE06E00021AB
:1035D000284600F00FF808B984F84C603846BDE87A
:1035E000F081704700207047704710B500F039FF38
:1035F000002010BD8278012A07D102220274012224
:103600004274002242828182C2820022114600F06E
:103610000FB87FB51C46012501AE0023009586E852
:103620000E002A46214601F015F804B0002070BDB6
:1036300070B504460120A3780546012B0CD0022B5F
:1036400009D1204600F0D8FC002158B1032809D048
:10365000022800D1A57070BDA160A281257602214B
:10366000A17070BDA570217670BD7FB51D4690F824
:103670001D33089C03B100240123CDE90031CDE9BD
:10368000022400231A46294600F0E4FF04B000207B
:1036900070BD1FB500231446CDE900310822CDE9E5
:1036A00002231A46214600F0D5FF04B0002010BDC9
:1036B000FCF7D6BE70B50546002005F54D7500BF78
:1036C00000EBC00404EB001405EB4404E67B0A3471
:1036D0008E4201D0FF2909D1A679964201D0FF2A56
:1036E00004D1E4799C4206D0FF2B04D0401CC0B228
:1036F0000A28E5D3FF2070BD30B50346002003F54E
:103700004D7300BF00EBC00404EB001403EB440452
:10371000257B0A348D4202D1E478944204D0401CC7
:10372000C0B20A28EED3FF2030BD0B2907D200EB30
:103730008100B0F85015C1F30E01C0F850150020FB
:10374000704730B48578029C012D0FD141F0800183
:1037500001740621417403214282B1EB122F02D180
:1037600040F2094100E000218182C482224630BC3F
:103770001946FFF75DBF0A8803781A440A8001786A
:1037800008447047F8B50E4600F11C050091044648
:103790002B464FF400720021FFF7D3FF070005D13D
:1037A0003246294604F54D7002F042FC3846F8BD19
:1037B00038B50D460091044600F58E734FF48072C3
:1037C0000021FFF7BEFF002839D194F81C1184F8BE
:1037D000221394F81D1184F82313B4F81E11A4F8D1
:1037E000241394F8201184F8261394F8211184F8F6
:1037F000271394F8221184F8281394F8231184F8DD
:103800002913082D1BD9B4F82411A4F82A13B4F8ED
:103810002611A4F82C13B4F82811A4F82E1394F848
:103820002A1184F8301394F82B1184F8311394F88A
:103830002C1184F8321394F82D1184F8331338BD09
:10384000F8B51C461646009341F4407200F58E739D
:103850001D460021FFF775FF002814D16978032960
:1038600011D129788A1EA24200D814460021A2B2A2
:10387000AD1C04E06B5C891C06F8013B89B29142E7
:10388000F8D300213170F8BD01004FF0000004D0E2
:10389000012901D0022901D0022070470120704780
:1038A00070B50546D0F848050126C4696079062838
:1038B00043D2DFE800F0034222032A3509212846DB
:1038C00000F0B9F800BB95F81C0104F8260F95F834
:1038D0001D016070B5F81E01608095F8200120710F
:1038E00095F82101607195F82201A071B5F82301C6
:1038F0002081022004F8210C1FE0E18D284600F011
:10390000A4F808B90420607117E000221146284687
:1039100000F054FB052108B103280ED161710CE0C1
:103920000021284600F057FB38B901206071D5F816
:1039300098250221284690470026304670BD7047E2
:1039400000238380C380837202810160704770B559
:10395000837A0024BBB901238372002311E0C58858
:103960008688B54212D00668755D01F8015BC5888E
:103970006D1CADB2C5800689B54200D1C4805B1C08
:103980009BB29342EBD38472104670BD847218468A
:1039900070BDF0B5837A0024EBB901238372002354
:1039A00017E08588C7886E1CBE4217D0B0F808C0E3
:1039B000664500D197B1076811F8016B7E5585887F
:1039C0006D1CADB285800689B54200D184805B1C38
:1039D0009BB29342E5D384721046F0BD84721846C0
:1039E000F0BD0000064A417A8378515C012B01D07A
:1039F000807910B10248823800E00248405C70478C
:103A0000907400088C7300080146FF200A780B2A86
:103A10000ED191F8202302EBC20303EB021201EB5B
:103A2000420191F84513012903D0022900D1012058
:103A300070470220704708B500F58E7300914FF46F
:103A400004520121FFF77DFE08BD08B500F58E7315
:103A500000914FF408520121FFF773FE08BD0000EA
:103A600010B500F051F908B1002010BD004810BD9C
:103A70007C09002010B500F0C9F908B1002010BD84
:103A8000004810BD8800002030B4A125029C0574B8
:103A9000012542EA01214574418200218182C482CC
:103AA000224630BC1946FFF7C3BD70B50546D0F8B5
:103AB00048050026C469617839B12846FFF795FDAD
:103AC00061782846FFF731FE6670217839B12846C3
:103AD000FFF78BFD21782846FFF727FE2670D5F8E3
:103AE0004805C06920B103F0B9FAD5F84805C661A8
:103AF000002070BD2DE9FE430546D0F8480500269C
:103B000002240179FF2301222846FFF7D3FD014655
:103B1000FF2822D0284602F0DDFC342003F064FBAD
:103B2000D5F848150446C8610721817095F820032F
:103B300000EBC00101EB001005EB400090F84503DD
:103B4000012817D002281DD04EA003F0EBF853A097
:103B500003F0E8F80220BDE8FE8351A003F0E2F88C
:103B6000D5F84805016851A003F0DCF84BA003F03C
:103B7000D9F885E057A003F0D5F848A003F0D2F8B3
:103B80005A4806E05AA003F0CDF844A003F0CAF862
:103B90005C4820630020A070607195F8200300EB62
:103BA000C00101EB001005EB400090F84A03A0763D
:103BB00095F8200300EBC00101EB001005EB40007D
:103BC000B0F84C03208395F8200300EBC00101EB13
:103BD000001005EB400090F84E03A0830A2801D2A4
:103BE0000A20A08395F8200300EBC00101EB001030
:103BF00005EB400090F84273052F3ED95FF00507B2
:103C000095F820034FF0030800EBC00101EB001012
:103C100005EB400000EBC60090F84A13080613D5E8
:103C200021712846FFF710FB60700146208B95F844
:103C30001D33CDE90038029095F81C3322792846CF
:103C400001F06AFF617812E0E1702846FFF7FCFAA4
:103C50002070228B95F81D33CDE900380292014681
:103C600095F81C33E278284601F056FF21780022AF
:103C7000284600F0CDFC761CF6B2BE42C0D300242C
:103C8000204668E750726F746F636F6C206E6F74BC
:103C900020737570706F727465642E000A000000E6
:103CA0004445425547203A200000000043616E6EB3
:103CB0006F742046696E642074686520696E74654F
:103CC000726661636520666F7220257320636C6184
:103CD00073732E004B6579426F6172642064657660
:103CE00069636520666F756E64210000B93D000848
:103CF0004D6F7573652064657669636520666F75C1
:103D00006E642100793E000870B5D0F84805C4699A
:103D1000228BEAB3244904F10800FFF718FE218B37
:103D200088423ED100212148FDF734FD204C00217E
:103D300060701E482030FDF72DFDA0701B4800214B
:103D40004030FDF727FDE070184800216030FDF796
:103D500021FD2071154800218030FDF71BFD6071A9
:103D600012480021A030FDF715FDA0710F48002179
:103D7000C030FDF70FFDE0710C480021E030FDF789
:103D800009FD2072002529460A48FDF703FD00E0E1
:103D900007E061196D1CEDB24872062DF3D30020C7
:103DA00070BD022070BD00007C0000206C72000815
:103DB0007C0900206C73000810B50146D0F8480556
:103DC0000022114CC3690F48827042700271C270A8
:103DD000827142710272C271104600BF44F8202005
:103DE000401C0228FAD3188B022801D9022018831C
:103DF000502203F1080001F58E715C61FFF7A0FD10
:103E0000002010BD7C0900207C00002010B5D0F8F7
:103E10004805C469228B42B3154904F10800FFF735
:103E200096FD218B884220D100211248FDF7B2FC7B
:103E30000F4C0021241D20700E482030FDF7AAFCF5
:103E400060700C4800216038FDF7A4FCA0700948A0
:103E500000214038FDF79EFCE07006480021203824
:103E6000FDF798FC2071002010BD022010BD00005D
:103E700084000020D875000810B50146D0F8480528
:103E80000B4B0022C0691A705A709A70DA701A715E
:103E90001B1F1A60028B042A01D90422028343618A
:103EA0002822083001F58E71FFF74AFD002010BD71
:103EB000880000202DE9F8430646D0F84805002583
:103EC0000127C4694FF00408A078072862D2DFE810
:103ED00000F0040961612F2A3E00216B30468847BB
:103EE000A77057E0207E00900022012130466369D0
:103EF000FFF7CAFD05004FF0050607D0012D0DD0D4
:103F000003280DD00720A070022543E0228B04F186
:103F100008006169FFF73DFDA6703BE0A77000E077
:103F2000A670002536E0D6F88C05C00730D131E008
:103F30006378227E3046616900F072FA0620A07034
:103F4000D6F88C052062002084F8240022E06178F5
:103F5000304600F0FFFA012806D06178304600F0C4
:103F6000F9FA05280FD015E094F8240090B9228BB7
:103F700004F108006169FFF70CFD84F824703046F5
:103F8000FFF7DDFC06E0A17E3046FFF733FB08B902
:103F900084F802802846BDE8F883D0F84815C9693E
:103FA0008A78062A08D1D0F88C050A6A801A8A8B8A
:103FB000904201D3042088700020704721230374AD
:103FC0000A23437442EA0121418200218182C18295
:103FD0000A46FFF72DBB212202740B2242740022F5
:103FE00009B1428201E0012141828282C282002223
:103FF0001146FFF71DBB00002DE9F84F04460125CF
:10400000007E0B262F464FF009084FF007094FF0AE
:10401000050B4FF00D0A0C2819D2DFE800F0B806A6
:104020000E26313D49616C7D8A9B627904F1100155
:104030002046FFF72EFB022012E06179204600F0B7
:1040400089FA012804D0042872D0022870D09EE09A
:10405000207CE18A00F0800021B180283BD1032040
:10406000207694E0802814D02FE0D4F88C05E081ED
:104070002379A2892046A168FFF7CBFA0420EFE755
:104080002179204600F066FA012802D0052841D0A7
:1040900057E084F818807AE000976379A289204677
:1040A000A168FFF7E2FAD4F88C05E0810620D7E793
:1040B0006179204600F04EFA012806D0052807D085
:1040C000022808D0042809D061E084F818905EE046
:1040D0000C2020761EE084F818B058E0267655E0D3
:1040E0000022237911462046FFF793FAD4F88C0575
:1040F000E0810820B4E72179204600F02BFA01285E
:1041000004D0042824D0052804D040E084F818A066
:1041100000253CE003253AE0009700226379114630
:104120002046FFF7A2FAD4F88C05E0810A2097E731
:104130000EE06179204600F00DFA012804D0022833
:10414000A7D0042804D022E0002584F818A01EE09F
:1041500026761CE0607E401CC0B26076022805D83E
:10416000204600F06EFA2776A77010E0D4F8982564
:104170000621204690470020607606A002F0D2FD7E
:1041800006A002F0CFFD09A002F0CCFD02252846D2
:10419000BDE8F88F4552524F523A2000436F6E747B
:1041A000726F6C206572726F720000000A0000006E
:1041B0002DE9FE430126417800250446374600F5E7
:1041C0008E78082956D2DFE801F0040F27565E6882
:1041D000788F08212046FFF7EBFA00284AD194F89F
:1041E0002903A07167702CE012212046FFF7E0FA46
:1041F0000028F3D1B4F82C1347A002F093FD49A096
:1042000002F090FDB4F82A1347A002F08BFD45A000
:1042100002F088FD02203EE00121204602F0D4F9A0
:10422000002872D10220FFF743FA394684F81C7344
:1042300040A002F077FD3BA002F074FD0320607007
:10424000A07994F81D130091CDE9015094F81C3326
:1042500021798022204601F05FFCA07994F81D139B
:104260000091CDE9015094F81C3361790022204679
:1042700001F052FC49E009212046FFF783FA0028AB
:1042800043D1042007E0B4F836132046FFF77AFA4A
:1042900000283AD10520607037E094F830130625E5
:1042A00049B1FF2342462046FFF7CAFA00282CD125
:1042B000414626A00DE02AA013E094F8311307250B
:1042C00071B1FF2342462046FFF7BAFAE8B94146EA
:1042D00028A002F027FD13A002F024FD657014E071
:1042E00028A002F01FFDF6E794F8321381B1FF23F6
:1042F00042462046FFF7A4FA38B9414625A002F00D
:1043000011FD08A002F00EFD00263046BDE8FE8338
:1043100025A002F007FDF4E75049443A20257868CB
:10432000000000000A0000005649443A2025786841
:1043300000000000416464726573732028232564C3
:10434000292061737369676E65642E004D616E7517
:104350006661637475726572203A202573000000EF
:104360004D616E756661637475726572203A204E98
:104370002F41000050726F64756374203A202573DA
:104380000000000050726F64756374203A204E2F55
:104390004100000053657269616C204E756D626565
:1043A00072203A202573000053657269616C204EBB
:1043B000756D626572203A204E2F410070B50D4632
:1043C000040011D084F890250020C4F84805C4F8F2
:1043D0004C052046FCF712F80DB1C4F8985520465C
:1043E00000F0CCF8002070BD05A002F09BFC06A0F8
:1043F00002F098FC09A002F095FC022070BD0000BC
:104400004552524F523A2000496E76616C696420E1
:10441000486F73742068616E646C65000A00000068
:104420007FB51C46012501AE0023009586E80E00ED
:1044300003232A46214600F00DF904B0002070BD88
:104440007FB51C46012501AE002392B2009586E897
:104450000E002B460022214600F0FCF804B000209C
:1044600070BD10B5D0F89405FCF7FDF8BDE810401C
:10447000FFF70ABA10B5017821B190F81F1301298E
:1044800009D00AE0012180F81E13D0F8982522B146
:104490000421904701E002210170002010BD0000BE
:1044A00010B5044600F0CDF821792046FFF73DF91C
:1044B00061792046FFF739F9002084F81E03D4F80B
:1044C000982512B105212046904706A002F02AFC4B
:1044D0000AA002F027FC204600F0AAF80320207072
:1044E000002010BD55534220446576696365206401
:1044F0006973636F6E6E6563746564000A00000023
:1045000010B5C820FBF7ACFF002010BDD0F8940513
:10451000FCF7A3B810B50124D0F89405FCF793F884
:1045200020B1012805D0022803D101E0002400E0D9
:104530000224204610BDD0F8940501EB810100EB68
:10454000C10090F83B1011B190F85000704790F8FE
:1045500051007047D0F89405FCF778B8D0F88C1566
:10456000491CC0F88C1501780B2905D1D0F84815E5
:10457000002901D0896908477047000010B504463A
:1045800090F8900501281CD10F484FF0A04100225F
:10459000C0F8C042C4F8940501600821816001217F
:1045A000C0E903120221C0E90612FCF788F908B13C
:1045B000FBF749FF0448FCF743F80146204600F0AA
:1045C00024F8002010BD0000B8060020FEB508AF9A
:1045D00097E870008DE87000D0F89405FCF755F866
:1045E000BDE8FE40FFF750B9002180F81F13704767
:1045F000012180F81F13704710B5D0F89405FCF71F
:10460000E1F9BDE81040FFF73FB9C0F88C157047DD
:10461000D0F8940501EB810100EBC10090F83B104C
:1046200011B180F8502001E080F85120002070473F
:1046300010B5D0F89405FCF7CCF9BDE81040FFF7B1
:1046400023B910B5D0F89405FCF7D9F9BDE81040AE
:10465000FFF71AB92DE9FF410DF1280898E8F0009D
:104660008DE8F000D0F89405FCF749F804B0BDE8F7
:10467000F041FFF709B903460220D3F84815C9698C
:104680002AB1012A05D189791846FEF7B3BFC97945
:10469000FAE77047D0F848050549C0694165054902
:1046A0008165012100F8501F8170002070470000D3
:1046B00055534243504030202DE9F84F0746D0F87B
:1046C000480501263546C4694FF00B0A4FF00A0B26
:1046D00094F850004FF009094FF007080C2845D214
:1046E000DFE800F0D20611252E4852757EA7AFCB29
:1046F00084F86110022084F85000009563791F222D
:1047000004F1540159E061793846FFF723FF01288D
:1047100002D002287ED03FE0E06D002829D094F836
:104720006000000601D503204BE0052049E0237915
:1047300062893846D4F88C10FEF7A0FD042040E0D2
:1047400021793846FFF706FF01284FD16289E06DD5
:1047500090420CD9D4F88C10801A1144C4F88C10F3
:10476000E0656BD023793846FEF788FD8CE00020A9
:10477000E06563E00095637922893846D4F88C10AF
:10478000FEF78CFD06201CE061793846FFF7E2FE5B
:10479000012804D00228C8D0052815D074E0228949
:1047A000E06D9042E3D9D4F88C10801A1144C4F81B
:1047B0008C10E06542D0009563793846FEF76EFDB7
:1047C00062E084F850005FE084F850B05CE0237948
:1047D0000D2204F178013846FEF750FD0820F0E77D
:1047E00021793846FFF7B6FE012802D005281DD0F2
:1047F0004AE004F8505F3846A570D7F84815CC69F0
:104800002179FFF783FE0D280CD12149A06F884242
:1048100008D100E036E0A16DE06F884202D194F843
:10482000840008B102262FE000262DE084F8509085
:104830002AE000223846FFF71EFF38B984F850807E
:1048400022E001223846FFF716FF10B1042811D0EC
:104850001AE061793846FFF76EFEC0F10100C2B27E
:1048600061793846FFF7D4FE217900223846FFF7F8
:10487000CFFEDBE784F850A006E0384600F015F8DC
:10488000060001D184F850503046BDE8F88F000092
:1048900055534253A1220274FE22427400224282E6
:1048A00082820122C282FEF7C3BE21210174FF2150
:1048B0004174002141828182C1820A46FEF7B8BE5E
:1048C00070B5D0F848150125CC69A17B21B102292A
:1048D00002D0032934D12DE02146FFF7DBFF00266B
:1048E0000546032801D01DB12AE00025266004E01A
:1048F0002068022801D9022101E02178491C11A079
:10490000216002F00FFA17A002F00CFA0020022238
:104910000CE000BF00EB800101EBC00104EB810162
:10492000401C81F8922081F8C160C0B221688142A8
:10493000F0D805E00021FEF75DFE08B9E07BA0732A
:10494000284670BD4E756D626572206F6620737566
:1049500070706F72746564204C554E3A20256C75EA
:10496000000000000A00000070B50546D0F84805B8
:104970000026C469617939B12846FEF736FE6179AF
:104980002846FEF7D2FE6671217939B12846FEF736
:104990002CFE21792846FEF7C8FE2671D5F8480579
:1049A000C06920B102F05AFBD5F84805C661002065
:1049B00070BD0000FEB50546D0F84805022450231E
:1049C000017906222846FEF775FE0146FF2822D00F
:1049D000284601F07FFDE00102F006FCD5F84815FD
:1049E0000446C86195F8200300EBC00101EB0010FC
:1049F00005EB400090F84A03010619D5E07195F8DF
:104A0000200300EBC00101EB001005EB4000B0F803
:104A10004C03608118E040A002F084F9D5F8480505
:104A2000016840A002F07EF948A002F07BF970E036
:104A3000A07195F8200300EBC00101EB001005EB1D
:104A40004000B0F84C03208195F8200300EBC00132
:104A500001EB001005EB400090F8520301060CD565
:104A6000E07195F8200300EBC00101EB001005EBAD
:104A70004000B0F8540360810BE0A07195F820036A
:104A800000EBC00101EB001005EB4000B0F854034F
:104A900020810020A4F8F800A4F8FA0020736073C5
:104AA000A073A1792846FEF7CFFB6071E179284613
:104AB000FEF7CAFB20712846FFF7ECFD682104F1E0
:104AC0009000FBF7CFFB208995F81D13022600917B
:104AD000CDE9016095F81C33A2796179284601F08F
:104AE0001BF8608995F81D130091CDE9016095F8D8
:104AF0001C33E2792179284601F00EF82179002251
:104B00002846FFF785FD617900222846FFF780FDE2
:104B100000242046FEBD00004445425547203A206F
:104B20000000000043616E6E6F742046696E642061
:104B300074686520696E7465726661636520666F6E
:104B40007220257320636C6173732E000A000000CD
:104B50002DE9F0470746D0F848054FF0010AC4692F
:104B6000207B10B101283BD1DFE1B4F8F8002168C7
:104B700001254FF00008884270D200EB800101EB64
:104B8000C00004EB8000022680F89150B4F8F810C1
:104B90004FF0050901EB810000EBC10004EB80023E
:104BA00092F8900009281BD2DFE800F0051A5CD1CA
:104BB0001BFA1A1AF900DFA002F0B4F8E0A002F024
:104BC000B1F8B4F8F810042001EB810202EBC10146
:104BD00004EB810181F89000D7F88C05C4F8FC0043
:104BE000A5E1C9B238469F3200F032FA002836D12A
:104BF000B4F8F80000EB800101EBC00004EB800189
:104C0000D0A0A23102F08EF8CDA002F08BF8B4F85B
:104C1000F80000EB800101EBC00004EB8001CFA0A5
:104C2000AB3102F07FF8C6A002F07CF8B4F8F800CF
:104C300000EB800101EBC00004EB8001CDA0BC3192
:104C400002F070F8BEA002F06DF8B4F8F80000EBC6
:104C5000800101EBC00004EB8000FAE05CE1022877
:104C600074D0DCE0C9B2384600F0E2FA10B1022894
:104C700036D0D4E0B4F8F80000EB800101EBC000BE
:104C800004EB800090F8921041B180F8C150BFA0B1
:104C900002F048F8AAA002F045F801E080F8C180CF
:104CA000B4F8F820032002EB820101EBC20104EB0F
:104CB000810181F89000B4F8F81001EB810202EB59
:104CC000C10104EB810181F89180B4F8F81001EB87
:104CD000810202EBC10104EB810181F8928026E19F
:104CE000B4F8F80000EB800101EBC00004EB800099
:104CF00090F89210022908D080F8C150A8A002F0C4
:104D000011F88FA002F00EF801E080F8C180B4F82D
:104D1000F81001EB810202EBC10104EB810181F883
:104D20009090B4F8F80000EB800101EBC00004EBB8
:104D3000800080F89150B4F8F80000EB800101EB9E
:104D4000C00004EB800080F89260F0E054E0C9B24B
:104D50003846943200F0E6F9002880D1B4F8F80023
:104D600000EB800101EBC00004EB800090F8C11063
:104D700001292CD150F8941F808841438EA001F066
:104D8000D1FF6FA001F0CEFFB4F8F80000EB800176
:104D900001EBC00004EB8000D0F8941001E0B7E014
:104DA00035E08DA001F0BEFF65A001F0BBFFB4F8B7
:104DB000F80000EB800101EBC00004EB8000B0F8CC
:104DC00098108AA001F0AEFF5DA001F0ABFFB4F82F
:104DD000F80000EB800101EBC00004EB800080F8DC
:104DE0009050B4F8F81001EB810202EBC10104EB22
:104DF000810181F891805FE0B4F8F81001EB810245
:104E000002EBC10104EB810181F890908FE0C9B2FF
:104E100038469C3200F0C3F920B1022851D0042852
:104E200061D084E0B4F8F80000EB800101EBC00031
:104E300004EB800090F89C10062901D002290BD1C8
:104E4000D7F88C25D4F8FC30D21A42F210739A426B
:104E500002D280F890606AE069A001F063FF38A098
:104E600001F060FFB4F8F80000EB800101EBC00036
:104E700004EB800090F89D1065A001F053FF30A076
:104E800001F050FFB4F8F80000EB800101EBC00026
:104E900004EB800090F89E1064A001F043FF28A06E
:104EA00001F040FFB4F8F80000EB800101EBC00016
:104EB00004EB800080F8905034F8F80F401C2080FC
:104EC00035E037A001F02EFF1DA001F02BFFB4F854
:104ED000F810082001EB810202EBC10104EB810113
:104EE00081F8900023E0B4F8F80000EB800101EBBA
:104EF000C00004EB800080F89050B4F8F80000EB9C
:104F0000800101EBC00004EB800080F891600EE0AE
:104F1000491CA4F8F8100AE0A4F8F8802573D7F823
:104F2000982502213846904701E04FF0000A50468C
:104F3000BDE8F0874C554E202325643A2000000040
:104F40000A000000496E71756972792056656E64B9
:104F50006F7220203A20257300000000496E7175A1
:104F60006972792050726F64756374203A202573DA
:104F700000000000496E7175697279205665727380
:104F8000696F6E203A202573000000004D534320C6
:104F9000446576696365207265616479000000008C
:104FA0004D534320446576696365204E4F5420720B
:104FB00065616479000000004D53432044657669C3
:104FC0006365206361706163697479203A20256CA0
:104FD0007520427974657300426C6F636B206E7547
:104FE0006D626572203A20256C750000426C6F631B
:104FF0006B2053697A652020203A20256C750000CB
:1050000053656E7365204B657920203A2025780022
:105010004164646974696F6E616C2053656E736579
:1050200020436F6465203A2025780000416464695C
:1050300074696F6E616C2053656E736520436F6495
:1050400065205175616C69666965723A2025780042
:105050002DE9F0411546D0F8482502270026D469ED
:105060004FF0010894F85220012A02D0022A56D1AA
:1050700026E024208022E06584F860200A2284F85B
:105080006220C4F86360C4F86760A4F86B60122201
:1050900084F86320490184F8641084F8656084F81A
:1050A000666084F8670084F86860022084F85080A5
:1050B00084F8520004F110000127C4F88C002EE09F
:1050C000FFF7FAFA07002AD122212846FBF7CAF88F
:1050D000D4F88C00007800F01F006870D4F88C00C1
:1050E000007840092870D4F88C004078000602D57A
:1050F00085F8028000E0AE7054F88C0F10228168B1
:10510000C5F80310C068C5F80700216805F10C0058
:105110001031FBF78EF82068006AC5F81D0038468C
:10512000BDE8F08170B51646D0F848250125D46950
:1051300094F85220012A02D0022A2ED11AE0082027
:10514000E065802084F860000A2084F86200102165
:1051500004F16300FBF786F8252084F86300012042
:1051600084F85000022084F8520004F11000C4F8C2
:105170008C0012E0FFF7A0FA05000ED154F88C0F56
:105180004188427849BA007862F31F4141EA0060E1
:1051900030602068C08840BAB080284670BD70B5C5
:1051A000154602460E46D2F848150220CC6994F8FE
:1051B0005210012914D0022911D131461046FFF7AF
:1051C0007BFA00280BD154F88C1F897801F00F016D
:1051D00029702168097B69702168497BA97070BDBD
:1051E0000E258020E56584F860000A2084F86200BE
:1051F000102104F16300FBF735F8032084F8630005
:10520000700184F86400002084F8650084F866006A
:1052100084F8675084F86800012084F85000022068
:1052200084F8520004F11000C4F88C00012070BD15
:1052300070B502460220D2F84835DC6994F8523045
:10524000012B06D0022B18D1BDE870401046FFF7A5
:1052500033BA0025E56584F860500A2084F86200BE
:10526000102104F16300FAF7FDFF84F86350012078
:1052700004F8500F0220A070012070BD002070477C
:10528000002070472DE9F0410546D0F848054FF061
:10529000010841F64857C66906F5805494F83C0D5C
:1052A00010B1012834D114E0D5F88C05C0072FD1F6
:1052B000D5F88C05C4F8400D94F82E3D94F8362DA1
:1052C000F119284604F62E54FFF7AAF80120A0731E
:1052D0001EE094F82E1D2846FFF73CF9012802D164
:1052E0002846FCF799FAD5F88C05D4F8401D401AE9
:1052F000B4F8441D88420BD3D5F88C05C4F8400D92
:1053000094F82E3D94F8362DF1192846FFF788F8C9
:105310004046BDE8F081704770B50546D0F84805B5
:105320000026C46904F5805494F82D1D49B128461F
:10533000FEF75BF994F82D1D2846FEF7F6F984F880
:105340002D6D94F82C1D49B12846FEF74EF994F8BE
:105350002C1D2846FEF7E9F984F82C6D94F82E1DD3
:1053600049B12846FEF741F994F82E1D2846FEF76C
:10537000DCF984F82E6DD5F84805C06920B101F03C
:105380006DFED5F84805C661002070BD2DE9FE4FC1
:10539000012305461A460621FEF78CF90746FF2829
:1053A00011D00146284601F095F800204FF0FF0982
:1053B00000EBC00101EB001205EB420292F843132F
:1053C00006290DD020E0022482A001F0ABFC84A0CD
:1053D00001F0A8FC8FA001F0A5FC2046BDE8FE8FDF
:1053E0005FF0000402EBC40191F84A331B0607D5B5
:1053F000B1F84C3323B191F84B13C943890708D056
:10540000641CE4B2052CEDD3401CC0B20A28CFD3F3
:105410004C4642F2D01001F0E7FED5F8481506469A
:10542000C861300008D16BA001F07CFC7AA001F0CB
:1054300079FC78A001F076FC07EBC70000EB0710C1
:1054400005EB400808EBC40706F5805497F84A13AB
:1054500084F8311DB7F84C03A4F8360D284604F63D
:105460002E5407F24A37FDF7EFFE207001463879D7
:10547000E08295F81D03238903228DE80D0095F83D
:105480001C33E278284600F047FB217800222846AA
:10549000A4F62E54FFF7BCF85FF0000101EBC10049
:1054A00000EB011205EB420393F84303062812D1E7
:1054B0005FF0000003EBC00292F84A733F0606D586
:1054C000B2F84C731FB192F84B23920708D4401CDA
:1054D000C0B20528EED3491CC9B20A29DED348461A
:1054E00008EBC00090F84A1384F8301DB0F84C0364
:1054F000A4F8340D284604F62C54FDF7A5FE2070C0
:105500000146208995F81D334FF0020ACDE9003A93
:10551000029095F81C332279284600F0FDFA217894
:1055200000222846A4F62C54FFF772F85FF0000121
:1055300001EBC10000EB011205EB420393F84303BA
:10554000062812D15FF0000003EBC00292F84A7304
:105550003F0606D4B2F84C731FB192F84B23920762
:1055600008D4401CC0B20528EED3491CC9B20A2990
:10557000DED3484608EBC00090F84A1384F82F1D8C
:10558000B0F84C03A4F8320D284604F62D54FDF76C
:105590005BFE20700146B4F8050095F81D230092CB
:1055A000CDE901A0574695F81C33A278284600F0B3
:1055B000B3FA217800222846FFF72AF806F50056AC
:1055C000E7720020C6F8CC01E0732846BDE8FE4F24
:1055D00000F0A9BB4445425547203A200000000096
:1055E00043616E6E6F742046696E64207468652036
:1055F000696E7465726661636520666F72205374AC
:10560000696C6C20496D61676520436C6173732E12
:10561000000000000A00000043616E6E6F7420619C
:105620006C6C6F636174652052414D20666F72200F
:105630004D54502048616E646C6500002DE9F047C0
:105640008046D0F8480501250027C469BA4604F50C
:105650008056A94696F8380D062812D2DFE800F0E9
:10566000FD12031199C70121404600F069FB0500B6
:1056700007D187A001F056FB8BA001F053FB86F801
:10568000389D02E12146404600F050FA0500F8D16D
:1056900086A001F047FB88A001F044FB82A001F046
:1056A00041FB82A001F03EFB21888BA001F03AFB78
:1056B0007DA001F037FB7DA001F034FB6068062877
:1056C00063D08BA18EA001F02DFB77A001F02AFB07
:1056D00076A001F027FBB4F80A01002857D08DA16D
:1056E0008EA001F01FFB70A001F01CFB6FA001F069
:1056F00019FB90A0D4F80C1101F014FB6AA001F082
:1057000011FB6AA001F00EFB94A0D4F8D81101F0AF
:1057100009FB65A001F006FB64A001F003FB98A063
:10572000D4F8A41201F0FEFA5FA001F0FBFA5FA02A
:1057300001F0F8FA04F5A1619BA001F0F3FA5AA078
:1057400001F0F0FA59A001F0EDFA04F207619BA014
:1057500001F0E8FA54A001F0E5FA54A001F0E2FAF1
:1057600004F2067198A001F0DDFA4FA001F0DAFA18
:105770004EA001F0D7FA04F6050198A001F0D2FA84
:1057800049A001F0CFFA04202EE099A19AE799A14F
:10579000A6E704F60411404600F02AFA050074D189
:1057A00042A001F0BFFA96A0D4F8041901F0BAFAA9
:1057B0003DA001F0B7FA0EE03CA001F0B3FA04EB13
:1057C00087003946D0F8082995A001F0ABFA36A039
:1057D00001F0A8FA7F1CD4F80409B842ECD804F50B
:1057E00000540520C4F8C8A186F8380D4DE004F532
:1057F0000057D7F8C80100EB001104EB411204EB8D
:10580000800002F51262D0F80819404600F03EFA16
:1058100005003AD1D7F8C81101EB011004EB401292
:1058200002F63B2383A002F63C1201F07BFA1EA095
:1058300001F078FAD7F8C801401CC7F8C801D4F8BD
:105840000419884221D386F838ADC7E972A9D4F883
:105850000809C6F8180D7DA000E012E001F062FA18
:1058600011A001F05FFA04F63C117EA001F05AFA93
:105870000DA001F057FAD8F898254046022190472C
:1058800003E04046FFF7FEFC00252846BDE8F08710
:105890004D54502053657373696F6E202330204F31
:1058A00070656E65640000000A00000044454255C2
:1058B00047203A20000000003E3E3E3E3E204D5430
:1058C000502044657669636520496E666F726D612C
:1058D00074696F6E000000005374616E64617264DD
:1058E0002076657273696F6E203A2025780000007B
:1058F0004E4F5420535550504F52544544000000D1
:1059000056656E646F72204578744944203A2025AC
:105910007300000056656E646F72000046756E631A
:1059200074696F6E616C206D6F6465203A20257319
:10593000000000004E756D626572206F6620537521
:1059400070706F72746564204F7065726174696FF6
:105950006E287329203A2025640000004E756D6280
:105960006572206F6620537570706F727465642065
:105970004576656E7473287329203A2025640000EB
:105980004E756D626572206F6620537570706F7210
:105990007465642050726F707269657469657320F4
:1059A0003A202564000000004D616E7566616374E5
:1059B00075726572203A2025730000004D6F646592
:1059C0006C203A2025730000446576696365207673
:1059D000657273696F6E203A202573005365726992
:1059E000616C206E756D626572203A20257300002F
:1059F0004D5450005374616E646172640000000085
:105A00004E756D626572206F662073746F72616788
:105A100065204944206974656D73203A202564002F
:105A200073746F72616765232564204944203A20AE
:105A300025780000566F6C756D6523256C753A20CE
:105A400025732020205B25735D0000004D545020FD
:105A5000436C61737320696E697469616C697A65FE
:105A6000642E000025732069732064656661756C7F
:105A7000742073746F7261676520756E69740000BD
:105A80000020704710B5FDF7F5FF040026D0144A3A
:105A9000107808B9507878B1124892F9001003884C
:105AA000194409B2018092F9012043881A4412B2C4
:105AB00042800DA001F036F9A07810B10DA001F0E0
:105AC00031F9E07810B10EA001F02CF9207900280E
:105AD00004D0BDE810400DA001F024B910BD0000B5
:105AE0008800002000000020583A25642C593A25EF
:105AF000640D0A00D7F3BCFCB0B4CFC20D0A00009D
:105B0000D3D2BCFCB0B4CFC20D0A0000D6D0BCFCCE
:105B1000B0B4CFC20D0A0000FEB508AF97E8700020
:105B20008DE87000FEF752FD0020FEBDF0B5064680
:105B3000D0F848050F460125C16989B001F58054A8
:105B400094F8610D012802D0022833D129E001F533
:105B5000005041F6845211440227C0E96B710021C4
:105B6000C0F8B411C0F8C01141F20102C0F8B81178
:105B7000ADF80020D0F8A8210192D0F8A42102921B
:105B8000D0F8A421521CC0F8A4218DF82010694639
:105B9000304600F022FA012084F8600D84F8617D1F
:105BA00008E0304600F000F9050003D139463046E0
:105BB000FCF71CF909B02846F0BD02460020D2F8D7
:105BC0004825D26902F5C67202F5005232F8023C4D
:105BD0000B80D3694B6013688B605368CB6093680C
:105BE0000B61D3684B6113698B615269CA6170475D
:105BF000F0B50646D0F848050F460125C16989B0C1
:105C000001F5805494F8610D012802D002283AD1A0
:105C100029E001F5005041F6845211440227C0E901
:105C20006B710021C0F8B411C0F8C01141F2040238
:105C3000C0F8B811ADF80020D0F8A8210192D0F832
:105C4000A4210292D0F8A421521CC0F8A4218DF8FE
:105C500020106946304600F0C0F9012084F8600D3C
:105C600084F8617D0FE0304600F09EF805000AD10F
:105C7000D6F8480541F690510022C0690144381D0C
:105C8000FCF768F9386009B02846F0BD2DE9F0410D
:105C90000646D0F848050F460125C1698AB001F5CE
:105CA0008054904694F8610D012802D0022836D124
:105CB0002BE001F5005041F684524FF002081144E8
:105CC000C0E96B810021C0F8B411C0F8C011C0F860
:105CD000B81141F20501ADF80010D0F8A8110191FA
:105CE000D0F8A4110291D0F8A411491CC0F8A41155
:105CF000039701278DF820706946304600F06DF952
:105D000084F8607D84F8618D09E0304600F04CF83D
:105D1000050004D1424639463046FCF732F90AB054
:105D20002846BDE8F081D0F848050021C06900F59B
:105D3000805080F8601D012180F8611D00207047AF
:105D400070B5D0F8482501268AB0D46904F580558D
:105D500095F8612D012A02D0022A22D11EE004F515
:105D6000D27404F500540022C4E90021A26041F27B
:105D70000202ADF800200191226802922268521CB2
:105D80002260039101248DF82040694600F025F936
:105D900085F8604D022085F8610D02E000F004F8FE
:105DA00006460AB0304670BD2DE9F04F0646D0F8E1
:105DB00048054FF001088BB0C569474605F580548A
:105DC0004FF0090994F8600D4FF0070B4FF0000AEF
:105DD0000A282BD2DFE800F0FD05132B397C89D48B
:105DE000DFF80097B4F8640D94F82D3D82B241F6C7
:105DF000645029183046FDF751FA022065E094F806
:105E00002D1D3046FEF7A6FB012802D002280BD03C
:105E1000C8E005F50055D5F8AC01E0B3012853D032
:105E2000022803D1052050E084F8607DD1E000977E
:105E300005F5005594F82D3DB4F8322D3046D5F8CF
:105E4000B011FDF72BFA04203FE094F82D1D3046E9
:105E5000FEF780FB012802D0022835D0A2E005F52C
:105E60000055B4F8320DD5F8B411814227D9D5F8D0
:105E7000B021091A0244C5E96C21D5F8B8110844CB
:105E8000C5F8B801B0F57D7F0BD33046FBF776FF40
:105E9000C5F8B8A100E014E0D5F8BC01401CC5F875
:105EA000BC01D5F8B40160B1009794F82D3DB4F869
:105EB000322D3046D5F8B011FDF7F0F989E0C5F87C
:105EC000B4A184F860BD84E0032084F8600D80E014
:105ED00005F5005594F82C3DB4F8342D3046D5F82E
:105EE000B011FDF7CBF90620EFE794F82C1D3046F2
:105EF000FEF730FB012855D194F82C1D3046FEF7F3
:105F000005FB05F50055D5F8C011491CC5F8C011B1
:105F1000012906D1D5F8B0110968C5F8BCA1C5F8AA
:105F2000B411B4F8341D814224D8D5F8B41109B3A2
:105F3000D5F8B021091A0244C5E96C21D5F8B81189
:105F40000844C5F8B801B0F57D7F09D33046FBF7AA
:105F500015FFC5F8B8A1D5F8BC01401CC5F8BC01B7
:105F600094F82C3DB4F8342D3046D5F8B011FDF737
:105F700085F92EE0D5F8B411081AC5F8B401A0E7E8
:105F800042F28410291894F82C3D3F223046FDF748
:105F900075F9082099E794F82C1D3046FEF7DAFAD7
:105FA000012802D0052812D013E001A93046FFF7DE
:105FB00004FEBDF8040042F20101884202D1002033
:105FC00001E001E00220804684F8617D01E084F870
:105FD000609D0BB04046BDE8F08F70B5D0F8480525
:105FE0000D460026C46941F6645020212044FAF78A
:105FF00039F995F82000A4F52774C0F10500404256
:10600000202104F5005401EB800020600120A080D5
:106010002888E080A868A060E868E06028692061BE
:1060200068696061A869A061E869E061304670BD97
:106030002DE9F84105460B782B704B786B704B8837
:106040006B800B792B714B796B718B79AB71CB7941
:106050000846EB710027097A2972092A54D90921C7
:10606000ADF800104BE06946FDF785FB4178042947
:1060700043D107EBC70101EB071105EB410801789C
:1060800088F80A10417888F80B10817888F80C108D
:10609000C17888F80D10017988F80E10417988F8D8
:1060A0000F10817988F81010C17908F10A0488F876
:1060B0001110017A2172002615E06946FDF75BFB9D
:1060C000417805290FD108EBC60102780A7542789C
:1060D0004A7582788A75C278CA7582880A838279FD
:1060E000761C8A76F6B22179B14204D96A88BDF865
:1060F00000108A42E1D87F1CFFB20A2F04D26988BF
:10610000BDF800209142AED8BDE8F881FEB502226C
:1061100004468DF8002094F81F13002031B923782D
:1061200023B12378032B01D0032323702378002588
:1061300008270D260C2B13D2DFE803F0061317E80F
:10614000F34CCD666F7A8EE194F81E03002807D0D9
:1061500001202070C820FDF7ABFA2046FEF74CFA6C
:10616000DFE00129FCD12270DBE06FA000F0DAFD56
:1061700072A000F0D7FD6420FDF79AFA2046FEF7E2
:10618000C9F984F81D030520207000212046FDF781
:106190005BF8607180212046FDF756F820710146BA
:1061A000A07994F81D230092CDE9015094F81C3396
:1061B00080222046FFF7B0FCA07994F81D130091CF
:1061C000CDE9015094F81C33617900222046FFF795
:1061D000A3FCA6E02046FDF7EBFF0028C0D158A0A5
:1061E00000F0A0FD55A000F09DFD84F8205394F828
:1061F0003303012801D0072079E056A000F092FD7A
:106200004EA000F08FFD06E0D4F89825002AA7D014
:10621000012120469047277083E094F839132046E7
:1062200000F0E0F900287CD10920207053A038E06C
:1062300094F83B034FF00A0580060BD50121204658
:1062400000F0DEF900286CD153A000F06BFD3BA0FC
:1062500000F068FD257064E0D4F84C1501B3C4F873
:10626000485594F8432300BF04EB8001D1F834155E
:106270000B79934201D1C4F84815401CC0B20528DF
:10628000F2D3D4F8480518B381682046884770B126
:106290002670D4F84805016847A000F043FD02E0ED
:1062A0004DA000F03FFD25A000F03CFD39E00620A8
:1062B0002070D4F8480501684FA000F033FD1FA0FE
:1062C00000F030FDD4F8982503212046904728E0BF
:1062D00026704EA0E5E7D4F8480550B10169204684
:1062E00088478DF800009DF80000D0B90B20207081
:1062F00017E026704FA000F015FD50A0D1E7D4F8AC
:10630000480570B14169204688470AE02046FAF7FF
:1063100075F8D4F8480520B1C16820468847C4F80C
:1063200048550020FEBD0000555342204465766963
:106330006365204174746163686564000A0000004D
:10634000456E756D65726174696F6E20646F6E6500
:106350002E000000546869732064657669636520C7
:10636000686173206F6E6C79203120636F6E66698F
:106370006775726174696F6E2E0000004465666116
:10638000756C7420636F6E66696775726174696F8E
:106390006E207365742E0000446576696365207213
:1063A000656D6F74652077616B65757020656E61D2
:1063B000626C656400000000446576696365206E68
:1063C0006F7420737570706F7274696E67202573B7
:1063D00020636C6173732E004E6F20436C61737386
:1063E00020686173206265656E20726567697374E9
:1063F000657265642E000000257320636C61737301
:1064000020737461727465642E0000004E6F2072F8
:1064100065676973746572656420636C617373206A
:10642000666F722074686973206465766963652E8F
:10643000000000004552524F523A2000496E7661EA
:106440006C696420436C6173732044726976657271
:106450002E00000010B502460020B1B1D2F84C3534
:10646000052B07D202EB83045B1CC2F84C35C4F841
:10647000341510BD07A000F055FC08A000F052FC38
:106480000DA000F04FFC022010BD02A000F04AFC5D
:106490000AA0F3E74552524F523A20004D6178204E
:1064A000436C617373204E756D6265722072656115
:1064B00063686564000000000A000000496E7661B0
:1064C0006C696420436C6173732068616E646C65F1
:1064D0000000000070B5054690F838030C46002611
:1064E000A04227D985F82043214618A000F01AFCC5
:1064F0001EA000F017FC04EBC40000EB041005EB39
:1065000040041BA094F8431304F2433400F00AFC47
:1065100016A000F007FC617819A000F003FC13A09E
:1065200000F000FCA1781AA000F0FCFB0FA000F026
:10653000F9FB09E01AA000F0F5FB1BA000F0F2FB4C
:106540000AA000F0EFFB0226304670BD5377697455
:106550006368696E6720746F20496E746572666146
:106560006365202823256429000000000A0000003C
:10657000436C617373202020203A20257868000046
:10658000537562436C617373203A2025786800006C
:1065900050726F746F636F6C203A2025786800002A
:1065A0004552524F523A200043616E6E6F74205331
:1065B000656C656374205468697320496E746572F4
:1065C000666163652E0000008278012A06D10022F0
:1065D00002740523437441828282C28200221146E2
:1065E000FDF726B88278012A06D100220274092319
:1065F000437441828282C28200221146FDF718B89C
:106600008278012A06D10022027403234374418256
:106610008282C28200221146FDF70AB88378012BDC
:1066200006D103740B234374428281820021C1820C
:1066300000221146FCF7FCBF10B50446FDF7F8FF39
:1066400001212046FDF75CFF002010BD01290AD082
:106650000548022906D0042903D0052903D10321C6
:1066600000E00121017070470400002070B504466D
:1066700006990A9E049D0D98012916D0E06840F005
:106680004000E060204600F02BF8A16B1EB321F41F
:106690008031A163012D07D1A16841F00601A160FD
:1066A000A16841F02001A16070BDA16B21F480318F
:1066B000A163E168094A1140E160E16821F44011F9
:1066C000E160012803D1E06840F48010E0602046DA
:1066D00000F006F8DEE741F48031DAE7BFFFBDFFE6
:1066E00001220C4902E0521C8A420BD80369002B9C
:1066F000F9DA026942F001020261012204E0521C4F
:106700008A4201D9032070470369DB07F7D10020D3
:1067100070470000400D0300816821F00101816095
:106720000020704700EB4110064AC0F81025D0F851
:10673000001521F0804141F00041C0F80015002013
:10674000704700000000088008B5D0F8402422F00F
:106750002E020092D20405D4012909D1009941F4F6
:10676000805103E021B9009921F48051C0F8401410
:10677000002008BD816841F0010181600020704760
:10678000002110220261054A491C914201D90320CF
:1067900070470369DB06F7D400207047400D030003
:1067A0000022202343EA811101610549521C8A42DB
:1067B00001D90320704703699B06F7D40020704776
:1067C000400D0300D0F8080480B2704708B5D0F837
:1067D00040040090C0F3414008BD406900F0010052
:1067E000704700EB4111D1F800254FF47A73C2F3E2
:1067F00081426AB1022A0BD0D1F8002542F08042D2
:10680000C1F80025D0F8100410F47F0F2ED009E055
:10681000D1F8002542F08042C1F80025C06A10F48A
:106820007F0F07D0D1F8000540F00040C1F8000507
:1068300000207047D1F8000520F00040C1F80005A5
:10684000D1F8000540F00040C1F80005D1F800057E
:1068500020F40040C1F80005012002E0401C9842ED
:10686000E6D8D1F80025002AF8DBE1E7D1F80005E9
:1068700020F00040C1F80005D1F8000540F00040CC
:10688000C1F80005D1F8000520F40040C1F800056A
:10689000012002E0401C9842CAD8D1F80025002A05
:1068A000F8DBC5E72DE9F0430026DDE9078500EBBD
:1068B0004114771EDDF82490C4F80875CDB1012D80
:1068C00032D0022D15D0032D27D00126D0F8187410
:1068D00001F00F0C012101FA0CF10F43C0F81874FC
:1068E000816941F00071816110062AD54FF40040A2
:1068F00028E040F29D47C4F80C75170605D500BF87
:10690000D4F80C7547F4807718E0C76BFF05DDD528
:10691000D4F80C7547F0600710E040F29D67C4F8AA
:106920000C751706ECD4D1E740F22527C4F80C7596
:106930001706CBD5D4F80C7547F4C077C4F80C759E
:10694000C4E70020B8F1020F18D000214FF0FE5725
:1069500007EA83534FF4F04707EAC22213434FF488
:10696000402202EA85421343C9F30A021343034358
:106970000B43C4F80035032D03D008E04FF4003179
:10698000E4E7D4F8000540F00050C4F800053046B4
:10699000BDE8F083D0F8140480B27047F8B54C78A5
:1069A000C56B4FF48073ED054FF0000715D50D79D9
:1069B0009DB912B1012A07D00FE04D79012D0CD1FC
:1069C0002146FFF7AFFE8CE000EB4415D5F80C65CF
:1069D00026F06006C5F80C654F710E695EB10D8931
:1069E0002E44761EB6FBF5F6B6B29E4204D91E467C
:1069F0002B020B6100E00126CB78CBB30B897343EC
:106A0000C1F810306FF06045C3F3120305EAC645C4
:106A10002B438D7A4FF0C04606EA45752B4300EBB9
:106A200044140546C4F8103512B1CB68C4F81435C7
:106A3000D5F80834D4F8005543F3000325F0005589
:106A4000C4F80055D4F800555B1C45EA4373C4F8FC
:106A50000035D4F80055244B1D601D6825F0804595
:106A60001D60CD78002D1D6805D045F4004504E07B
:106A7000FFE70B69C6E725F400451D601D6845F07A
:106A800000451D601B68C4F8003552BBCA7842BB84
:106A90000A6932B3CB7933B1012B0FD0022B02D06C
:106AA000032B17D10AE0D21CC36AC2F38F029BB238
:106AB00093420FD2826942F020020AE0D21CD0F841
:106AC0001034C2F38F029BB2934203D2826942F028
:106AD0008062826100970A8A93B24A78C96800F09E
:106AE0000EF90020F8BD0000080000202DE9F0415B
:106AF0000025DDF8188017460446C0F8005E806B5C
:106B000040F40010A063A06B20F40020A063A06BF1
:106B100020F48020A063E06BC00501D5032B04D0D6
:106B2000D4F8000420F0040103E0D4F8000440F09D
:106B300004012046C4F800141021FFF731FE20465E
:106B4000FFF71EFE0020461E07E000BF04EB4011C9
:106B5000C1F80865C1F80C55401C8742F6D80121E0
:106B60002046FFF7F1FDC820F9F77AFCA5616661C0
:106B7000E06BC00506D54FF4007060620C48A0625F
:106B80000C4804E0802060620B48A0620B48C4F807
:106B90000001B8F1000F03D1A06940F01000A0611E
:106BA000A06907490843A0610020BDE8F08100000A
:106BB000000200010003E00080006000E0004000EF
:106BC000080020A3D0F8002422F00302C0F800241B
:106BD000D0F8002401F003031A43C0F8002401296F
:106BE00002D0022903D006E04BF6803101E041F2E9
:106BF0007071C0F804140020704741698069084032
:106C00007047D21C10B59308002200F5805002E0B6
:106C10000468521C10C19A42FAD3084610BD38B518
:106C20000446D0F8400420F02E00009040F480701C
:106C3000C4F84004642004F58864F9F711FC009856
:106C400020F4807020600A20F9F70AFC002038BD8B
:106C500010B5C26822F0C042C260012902D029B139
:106C6000012010BDC16841F0005102E0C16841F04F
:106C70008041C1603220F9F7F3FB002010BD000015
:106C800030B504468068002520F00100A060102186
:106C90002046FFF785FD2046FFF772FD5FF00000FC
:106CA00004EB4011D1F8002522F0802242F080420E
:106CB000C1F80025401C0F28F2D900204FF47A7348
:106CC00004EB4011D1F8002522F4004242F040428A
:106CD000C1F800256D1C9D4203D8D1F80025002A7B
:106CE000F8DB401C0F28EBD94FF0FF30C4F8140438
:106CF0006061A06840F00100A060002030BD10B5C8
:106D0000029C64B9DB1C9C0800EB0230002300F5F8
:106D1000805002E004C902605B1CA342FAD3002049
:106D200010BDFEE70FB4054B10B503A9044A029845
:106D300000F028F810BC5DF814FB00004570000856
:106D4000D00000200907090E002804DB00F1E02034
:106D500080F80014704700F00F0000F1E02080F888
:106D6000141D704702E008C8121F08C1002AFAD19A
:106D700070477047002001E001C1121F002AFBD1BB
:106D8000704700002DE9FF4F8DB09B460F4604462B
:106D9000002606E025280BD05A460F999047641C20
:106DA000761C20780028F5D111B03046BDE8F08F70
:106DB0000025A8460122984900E0054314F8013F48
:106DC000203B02FA03F00842F7D120782E2817D191
:106DD00014F8010F45F004052A280ED06FF02F0299
:106DE0002078A0F1300109290AD808EB880102EBCC
:106DF000410100EB0108641CF2E757F8048B641CA6
:106E000020786C280DD004DC4C2812D06A2811D1CF
:106E100004E074280DD07A280CD10AE045F400155E
:106E200007E0617845F48015814202D1641C05F5C4
:106E30008015641C2278692A45D008DC002AB3D06A
:106E4000582A69D0632A10D0642A08D13BE0702AFE
:106E500067D0732A13D0752A5CD0782A5CD010468C
:106E60005A460F999047761CD3E017F8040B8DF81B
:106E7000000000208DF80100E946012003E057F8EA
:106E8000049B4FF0FF3069074FF0000501D40AE082
:106E90006D1C45450DDA8542FADB19F8051000290D
:106EA000F6D106E06D1C8542FCDB19F805100029BF
:106EB000F8D12E4404E019F8010B5A460F99904777
:106EC0006D1EF8D2A5E00A200021CDE90801C5F326
:106ED000025002280DD001CFC117031E71F100032B
:106EE0000DDA4FF0000CD0EB0C006CEB01012D2300
:106EF00008E0FF1D27F00707F7E80201EDE72B0583
:106F000004D52B238DF8283001233BE0EB0739D043
:106F10002023F7E70A2000E010200021CDE9080136
:106F200007E01020002145F00405CDE908014FF0ED
:106F30000808C5F3025002280FD001CF00214FF0FE
:106F4000000A2B071FD5702A0DD0DDE908C38CF08D
:106F5000100C5CEA030C0CD015E0FF1D27F00707AE
:106F6000F7E80201EBE740228DF828204FF0010AF4
:106F70000BE050EA010306D030238DF828308DF85D
:106F8000292002239A46582A04D024A20DF1200970
:106F90000B9209E026A2F9E7DDE90823F9F718F9D1
:106FA0000B9B9B5C09F8013D50EA0102F4D1ADEB6B
:106FB000090020300890680701D44FF001080899B3
:106FC000884502DDA8EB010000E000208046002596
:106FD00006E00AA85A46405D0F9990476D1C761C42
:106FE0005545F6DB04E030205A460F999047761C51
:106FF000B8F10001A8F10108F5DC05E019F8010B72
:107000005A460F999047761C0899481E0890002907
:10701000F4DC641CC5E6000009280100303132337D
:1070200034353637383961626364656600000000C4
:1070300030313233343536373839414243444546AE
:107040000000000013B54FF6FF73012269460248A5
:10705000FAF776F800981CBDDC00002010B5002877
:1070600021D0114B0022001F196803E0814203D890
:107070000A4649680029F9D152B11368841A9C4222
:1070800004D1006818441060104602E0506000E02F
:10709000186039B102680B1A934203D10B681A4485
:1070A00002604968416010BDD40000200025FF2423
:1070B000F9F7C0FCFBF72CF8FAF7BCFDFAF7F0FD86
:1070C000FAF70AFE2AA0FFF72DFE32A0FFF72AFEEC
:1070D0004FF4FA764FF40058DFF8C4905FEA4607A1
:1070E000FAF73EFE2F48FCF78FFC022807D02D4808
:1070F000FCF78AFC012818D0022C24D026E0FF2CB3
:1071000003D129A0FFF70EFE022441464846F9F7B5
:107110007DFA2448FCF7A4FCC8B1FCF763FC01002D
:1071200015D026A0FFF7FEFD11E0FF2C03D124A00F
:10713000FFF7F8FD012441464846F9F767FA194878
:10714000FEF7A0FC03E023A0FFF7ECFDFF240020E6
:10715000F9F786F96D1CB5FBF6F006FB105018B96F
:1071600041464846F9F752FABD42B9D30025B7E780
:1071700057654163742053544D33324634313143A3
:1071800045553620436F726520426F6172640D0A67
:10719000000000005374617274202E2E2E0D0A0020
:1071A000000802401C0100200D0AC1ACBDD3B5C4CB
:1071B000CAC7BCFCC5CC0D0A000000002563000056
:1071C0000D0AC1ACBDD3B5C4CAC7CAF3B1EA0D0A32
:1071D000000000000D0ABCFCC5CCB6CFBFAAC1ACF4
:1071E000BDD30D0A00000000F0B50B30154D20F0A6
:1071F00007010024144A0FE003688B420BD38B4233
:1072000005D95E1A43184768C3E9006700E0436880
:10721000136002C004E0021D10680028ECD1204673
:10722000002802D1286808B10020F0BD064A0748AE
:107230001060074A121A22F00702C0E90024012058
:107240002860D7E7D8000020D4000020940900204F
:107250009011002000000000000000000102030463
:107260000607080900000000010203047C0000205A
:10727000010000000000000000000000010000000C
:107280000000000001000000010000007C00002060
:1072900001000000010000000000000001000000EB
:1072A0000000000001000000010000007C00002040
:1072B00001000000020000000000000001000000CA
:1072C0000000000001000000010000007C00002020
:1072D00001000000030000000000000001000000A9
:1072E0000000000001000000010000007C00002000
:1072F0000100000004000000000000000100000088
:107300000000000001000000010000007C000020DF
:107310000100000005000000000000000100000066
:107320000000000001000000010000007C000020BF
:107330000100000006000000000000000100000045
:107340000000000001000000010000007C0000209F
:107350000100000007000000000000000100000024
:107360000000000001000000010000007E0000207D
:10737000080000000006000000000000650000009A
:1073800000000000650000000100000000603132D4
:1073900033343536373839302D3D000D0971776576
:1073A00072747975696F705B5D5C006173646667A8
:1073B000686A6B6C3B27000A00007A786376626E1D
:1073C0006D2C2E2F000000000020000000000000A7
:1073D0000000000000000000000000000D000000A0
:1073E00000000000000000373431002F3835323003
:1073F0002A3936332E2D2B000A0000000000000031
:107400000000000000000000000000000000007EFE
:1074100021402324255E262A28295F2B00000051C5
:10742000574552545955494F507B7D7C0041534438
:107430004647484A4B4C3A22000A00005A584356E5
:10744000424E4D3C3E3F00000000000000000000A6
:10745000000000000000000000000000000000002C
:10746000000000000000000000000000000000001C
:10747000000000000000000000000000000000000C
:1074800000000000000000000000000000000000FC
:10749000000000001F323021132223241825262744
:1074A0003433191A111420151731122F162E020316
:1074B0000405060708090A0B2B6E0F103D0C0D1B67
:1074C0001C1D2A2829013536371E70717273747598
:1074D000767778797A7B7C7D7E4B50554C51565926
:1074E0004F54535A5F64696A6C5D62675C61665BA6
:1074F000606563682D81000000000000000000004E
:10750000000000000000000000000000000000007B
:1075100000000000006B00380000000000000000C8
:10752000000000000000000000000000000000005B
:10753000000000000000000000000000000000004B
:10754000000000000000000000000000000000003B
:10755000000000000000000000000000000000002B
:10756000000000000000000000000000000000001B
:107570003A2C3C7F40393E8084000020010000000E
:1075800000000000000000000100000000000000FA
:107590000100000001000000840000200100000044
:1075A00001000000000000000100000000000000D9
:1075B0000100000001000000840000200100000024
:1075C00002000000000000000100000000000000B8
:1075D00001000000010000008500002008000000FC
:1075E0000000010000000000FFFF0000000000009C
:1075F000FFFF0000010000008600002008000000DE
:107600000000010000000000FFFF0000000000007B
:10761000FFFF000001000000415544494F000000F9
:1076200043444300484944004D5343004D545000E7
:10763000204D54502064657669636520696E666FDD
:107640002073697A65206578636565647320696E67
:107650007465726E616C206275666665722073690E
:107660007A652E202020202020202020202020206D
:1076700020206F6E6C7920617661696C61626C6547
:10768000206461746120617265206465636F646564
:10769000642E0000B476000800000020DC0000002A
:1076A000646D000890770008DC000020B41400002E
:1076B000746D0008000000000000000000000000E1
:1076C0000100000010000000000000000024F40091
:1076D0001876000801000000692D0008F92C000848
:1076E000ED280008B7300008D13000080000000085
:1076F000207600080200000049330008E932000843
:10770000C53200082B350008E535000800000000F0
:107710002476000803000000F53A0008AB3A0008A0
:10772000A1380008B53E00089B3F0008000000009B
:107730000000000000000000000000000000000049
:10774000000000002876000808000000B549000885
:1077500069490008C1480008514B00087D520008E3
:10776000000000002C760008060000008D53000881
:1077700019530008815200083D560008815A00083C
:1077800000000000000000000000000000000000F9
:040000050800019955
:00000001FF
