:020000040800F2
:10000000A05F0020A9010008EB25000803200008DC
:10001000E925000843030008C54900080000000066
:10002000000000000000000000000000393200085D
:10003000450300080000000067270008453200085B
:10004000C3010008C3010008C3010008C301000880
:10005000C301000869270008C3010008C3010008A4
:10006000C3010008C3010008C3010008C301000860
:10007000C3010008C3010008C3010008C301000850
:10008000C3010008C3010008C3010008000000000C
:10009000000000000000000000000000C301000894
:1000A000C3010008C3010008C3010008C301000820
:1000B000C3010008C3010008C3010008C301000810
:1000C000C3010008C3010008C30100083130000863
:1000D000C3010008C3010008C301000800000000BC
:1000E000C3010008C3010008C301000800000000AC
:1000F000000000000000000000000000C301000834
:1001000000000000C3010008C3010008C30100088B
:1001100000000000000000000000000000000000DF
:10012000C3010008C3010008C3010008C30100089F
:10013000C3010008000000000000000000000000F3
:10014000000000000000000000000000ED25000895
:10015000C3010008C3010008C3010008C30100086F
:10016000C3010008C30100080000000000000000F7
:10017000000000000000000000000000000000007F
:1001800000000000C30100080000000000000000A3
:10019000C3010008DFF80CD000F096F800480047D3
:1001A00099700008A05F0020064880470648004775
:1001B000FEE7FEE7FEE7FEE7FEE7FEE7FEE7FEE717
:1001C000FEE7FEE7ED320008950100082DE9F05F3B
:1001D0000546002092469B468846064681464024B6
:1001E0001BE0284641464746224600F05AF853464F
:1001F0005A46C01A914110D311461846224600F0C3
:1002000041F82D1A67EB01084F46224601200021D4
:1002100000F038F817EB00094E41201EA4F101044C
:10022000DFDC484631462A464346BDE8F09F40EAB7
:1002300001039B0703D009E008C9121F08C0042A64
:10024000FAD203E011F8013B00F8013B521EF9D24B
:100250007047D2B201E000F8012B491EFBD2704773
:100260000022F6E710B513460A4604461946FFF782
:10027000F0FF204610BD421C10F8011B0029FBD1E5
:10028000801A7047202A04DB203A00FA02F100208D
:1002900070479140C2F1200320FA03F319439040C4
:1002A0007047202A04DB203A21FA02F0002170472F
:1002B00021FA02F3D040C2F12002914008431946CE
:1002C0007047002070470000064C074D06E0E068CC
:1002D00040F0010394E8070098471034AC42F6D38D
:1002E000FFF75CFFE07A0008007B000870B58C180F
:1002F00010F8015B15F0070301D110F8013B2A113A
:1003000006D110F8012B03E010F8016B01F8016B26
:100310005B1EF9D12B0705D40023521E0DD401F822
:10032000013BFAE710F8013BCB1A921C03E013F8EB
:10033000015B01F8015B521EF9D5A142D8D3002020
:1003400070BDFEE770477047002200F001B8000062
:1003500030B50E4B054601205C7A002C14D1587A3A
:100360001C54587A03EB800045605D7A03F1080065
:100370002A54587A421C5A72303008703A20487019
:100380002F208870CC70002030BD0000743B00200E
:1003900090F83510022903D0802141650120704773
:1003A000052180F835100068016821F00101016025
:1003B0000020704770B5044600F0E6F80546601C62
:1003C00002D004480078044400F0DEF8401BA0424C
:1003D000FAD370BD940000202DE9F84F00224FF0B1
:1003E000010803254FF00F0E0B6808FA02F42340B2
:1003F000A34271D14E68012E05D0022E03D0112EDA
:1004000001D0122E15D18668570005FA07FC26EA9E
:100410000C06D1F80CC00CFA07FC4CEA060CC0F82C
:1004200008C04668A6430C79C4F3001494403443D2
:100430004460C668570005FA07FC8C6826EA0C067B
:10044000BC403443C4604C68022C01D0122C13D140
:10045000D40800EB8404A346D4F8209054074FEA54
:10046000D46A0EFA0AF629EA06090E6906FA0AF6AD
:1004700046EA0906CBF8206004680E7924EA0C04E9
:1004800006F00306BE40264306604C68E40056D5DD
:100490002E4C266846F480462660246822F0030627
:1004A00004F4804400942A4C3444A446D4F8084808
:1004B0009607370F0EFA07F6B443264EB04201D125
:1004C000002615E0244EB04201D1012610E0234E53
:1004D000B04202D102260BE031E0214EB04201D100
:1004E000032605E01F4EB04201D1042600E0072696
:1004F000BE402643CCF808681B4E34684F689C43C6
:10050000FF0300D51C433460174E361D34684F6816
:100510009C43BF0300D51C433460134E0836346837
:100520004F689C43FF0200D51C4334600E4E0C36CE
:1005300034684F689C43BF0200D51C433460521C92
:10054000102AFFF451AFBDE8F88F00004438024094
:100550000030014000000240000402400008024058
:10056000000C024000100240003C01400AB18161D1
:1005700070470904FBE7000002480068C0F30B0065
:1005800070470000002004E00148806870470000C8
:10059000940000200248816802781144816070470D
:1005A000940000200B4810B5016841F4007101600F
:1005B000016841F480610160016841F4807101606B
:1005C000032000F077F8002000F006F800F024F88F
:1005D000002010BD003C024070B50D4D04464FF4A4
:1005E0007A712878B1FBF0F00A490968B1FBF0F0A4
:1005F00001F0F3FC48B9102C07D200222146501E0E
:1006000000F038F800206C6070BD012070BD000063
:1006100094000020A00000200E4808B5016841F4B5
:1006200080410160006800F4804000900948001F8C
:10063000016841F0805101600068002200F08050A4
:1006400000901146052000F015F8BDE8084005208F
:1006500000F002B844380240002809DB00F01F0215
:10066000012191404009800000F1E020C0F8001114
:1006700070470000F0B40E4B1B680C46C3F3022316
:10068000C3F10705042D00D90425191D072901D23E
:10069000002300E0DB1E012606FA05F1491E214079
:1006A00099409E40761E16403143F0BC04F059BB81
:1006B0000CED00E0064900F0070208684FF6FF0362
:1006C000184040EA0220034A1043086070470000C7
:1006D0000CED00E00000FA05704700684162002060
:1006E0007047F0B50368586A39B19C6A4FF4827656
:1006F00000EB144400204D1E0AE040EA02409862DC
:100700000FE006EB8007DF59401C04EB1744C0B232
:10071000A842F6D344EA02404FF4807202EB810112
:1007200058500020F0BDD0F8040403F000B8C1EB2D
:10073000C10200EB8202D0F80404926C02F06BBF9D
:10074000C1EBC10200EB8202D0F80404D2F8082207
:1007500002F0B6BFD0F8040402F0EBBF70B5044657
:100760000B0601F00F00C0EBC00104EB81014FF05C
:1007700001024FF0000503D581F83D203C3103E034
:1007800081F8FD5101F5FE71087094F8BC03012851
:1007900008D084F8BC23206803F046FC84F8BC53DE
:1007A000002070BD022070BD70B5044601F00F003E
:1007B0006268904201D9012070BD0B0601F00F0163
:1007C000C1EBC10104EB81014FF001024FF00005C4
:1007D00003D581F83D203C3103E081F8FD5101F55E
:1007E000FE718D70087094F8BC03012808D084F85D
:1007F000BC23206803F00EFE84F8BC53002070BDBB
:10080000022070BD10B5044690F8BC0301280AD040
:10081000012084F8BC03080607D501F00F01206809
:1008200003F05AFF04E0022010BD206803F044FFEB
:10083000002084F8BC0310BD01F00F01C1EBC10121
:1008400000EB8100D0F8140270472DE9F041044616
:100850000F0601F00F00C0EBC00104EB81014FF067
:1008600001064FF0000503D581F83D603C3103E0FF
:1008700081F8FD5101F5FE7108708A60CB704A78ED
:1008800002B1C880022B00D10D7194F8BC0301287D
:1008900009D084F8BC63206803F022FB284684F862
:1008A000BC53BDE8F0810220FBE770B50C4601F0B7
:1008B0000F05C5EBC50100EB8101C1F81032C1F88D
:1008C00008220023C1F8143281F8FD3181F8FC516F
:1008D000036901F5FE71012B00D10A612207027C38
:1008E000006803D003F0EEFD002070BD03F0DAFCD9
:1008F000FAE770B504460D4601F00F0061688842C2
:1009000001D9012070BD29064FF000064FF0010209
:1009100007D5C0EBC00104EB810181F83D203C31DB
:1009200007E0C5EBC50104EB810181F8FD6101F52C
:10093000FE718A70087094F8BC03012807D084F80F
:10094000BC23206803F092FD280702D007E00220B4
:1009500070BD217C04F57172206803F02FFD84F8CE
:10096000BC63002070BD70B50C4601F00F05C5EBEF
:10097000C50100EB81010B658A6400234B650123EF
:1009800081F83D3001F83C5F0369012B00D10A6119
:100990002207027C006803D003F094FD002070BDA4
:1009A00003F080FCFAE700002DE9FC5F05680446CF
:1009B000284603F0B0FE00287ED1206803F0D7FE61
:1009C000002879D0206803F0D2FE800704D5216882
:1009D000486900F002004861206803F0C8FEC106C3
:1009E00004F57170009034D52068816921F0100100
:1009F00081612F6A07F00F00C0EBC00004EB800696
:100A0000C7F3434006F5FE76022802D0062811D02F
:100A10001AE047F6F070074216D0C7F30A121746DD
:100A20002846F16803F0A7FEF0683844F060B0692A
:100A3000384408E008222846009903F09CFEB0697B
:100A4000C7F30A110844B0612068816941F01001C0
:100A50008161206803F08BFE00034FF0010A4FF024
:100A6000080B5BD50026206803F060FE0746DFF820
:100A7000689351E0F8074DD0F1B2206803F06FFEA3
:100A80008046C00707D005EB4611C1F808AB3146D8
:100A9000204601F0B1FD5FEA087022D505EB461152
:100AA000C1F808BB2068016C00EB46100191D0F83A
:100AB000082B494507D900E08BE1110403D54FF419
:100AC0000041C0F8081B204600F076FA019848451E
:100AD00007D92069012804D120680121009A03F078
:100AE0006DFC5FEAC86004D505EB46111020C1F823
:100AF000080B5FEA886004D505EB46112020C1F899
:100B0000080B5FEA884005D505EB46104FF400510D
:100B1000C0F8081B7F08761C002FABD1206803F0BB
:100B200026FE40034FF000095CD5206803F0F7FD76
:100B30000746002654E0F80750D0F1B2206803F0D1
:100B4000FCFD8046C00723D006F00F020AFA02F02F
:100B5000D5F834288243C5F8342805EB4610C0F890
:100B600008A9206901280FD1C6EBC60004EB80005C
:100B7000D0E911211144816436B9206D20B9206873
:100B80000121009A03F01AFCF1B22046FFF7CFFDD5
:100B90005FEA087003D505EB4611C1F808B95FEAB2
:100BA000C86004D505EB46111020C1F808095FEABA
:100BB000486004D505EB46114020C1F808095FEAFA
:100BC000887004D505EB46110220C1F808095FEAD8
:100BD000086003D53146204601F074FD7F08761C7D
:100BE000002FA8D1206803F0C2FD002811DAD5F843
:100BF000040820F00100C5F8040894F8F403012863
:100C000029D0204600F0BCF92068416901F000417C
:100C10004161206803F0ABFD00050BD5D5F808084D
:100C2000C00702D0204600F0EFF92068416901F4C6
:100C300000614161206803F09AFDC00468D5D5F8D1
:100C4000040820F00100C5F804081021206803F012
:100C500043FD002127E084F8F49300212046FFF7AC
:100C60003BFDD1E705EB41104FF67F32C0F8082974
:100C7000D0F8003923F40013C0F80039D0F8003957
:100C800043F00063C0F80039C0F8082BD0F8002BFF
:100C900022F40012C0F8002BD0F8002B42F00062C2
:100CA000C0F8002B491C60688842DBD8D5F81C08C6
:100CB00040F00110C5F81C08206B60B1D5F884081D
:100CC00040F00B00C5F88408D5F8440840F00B004C
:100CD000C5F844080CE0D5F8141842F22B00014383
:100CE000C5F81418D5F8100840F00B00C5F8100826
:100CF000D5F8000820F4FE60C5F80008217C2068C3
:100D0000009A03F05BFB2068416901F48051416166
:100D1000206803F02CFD800415D5206803F020F92D
:100D2000206803F0EBFCE06000F0D8FA0146227B7B
:100D3000206803F057FD204600F00CF92068416957
:100D400001F400514161206803F011FD000707D54F
:100D5000204600F019F92068416901F0080141615D
:100D6000206803F004FDC00208D50021204600F0F1
:100D700035F82068416901F480114161206803F071
:100D8000F6FC800208D50021204600F02BF82068F0
:100D9000416901F400114161206803F0E8FC400062
:100DA00007D52046FFF7BFFC2068416901F080416C
:100DB0004161206803F0DBFC40070AD520684568E4
:100DC000680702D52046FFF7C5FC20684168294323
:100DD0004160BDE8FC9F00000A30544FD0F8040485
:100DE00002F000BDD0F8040402F0FEBC2DE9F04191
:100DF0008AB0040005D094F8BD032668002520B110
:100E000008E001200AB0BDE8F08184F8BC53204618
:100E100000F05EF8032084F8BD03F06BC00500D439
:100E20002561206803F038FA04F110012822884671
:100E30006846FFF7FCF994E80F0003F09FF80226DC
:100E4000C8BB0021206803F0A4FC002001270EE0AD
:100E5000C0EBC00104EB810181F83D7001F83C0F4B
:100E6000C880CD708D60CD60401CC0B24D6161689E
:100E70008142EDD8002011E0C0EBC00104EB8101FC
:100E800081F8FD5181F8FC0181F8FF51C1F804524D
:100E9000C1F80852401CC0B2C1F8105261688142CA
:100EA000EAD8282241466846FFF7C1F994E80F00C6
:100EB00003F038F910B184F8BD63A2E784F8385024
:100EC00084F8BD73206803F021F900209AE7000040
:100ED00010B586B0044614216846FFF7C1F92068B2
:100EE000B0F1A04F2FD119480021026842F0010251
:100EF0000260006800F0010005904FF4C0500090BF
:100F00000220CDE90101032003900A2004906946E4
:100F10000F48FFF761FA0D48001D016841F080019C
:100F200001600A481430016841F4804101600068A2
:100F3000002200F48040059001214320FFF79AFB36
:100F40004320FFF789FB06B010BD00003038024097
:100F50000000024070B50446C068012570B1022847
:100F600001D0FFF7F0F92946D4F8040402F092FC0E
:100F7000D4F80404BDE8704002F04DBC0025F2E74F
:100F8000D0F8040402F070BCD0F8040402F076BC7F
:100F900010B5044690F8BC0301280BD0012084F85A
:100FA000BC0384F83810206803F00AFC002084F8A1
:100FB000BC0310BD022010BDD0F8042400F57171EF
:100FC000104602F073BC10B50446006894F8BC13D8
:100FD000012906D0012184F8BC13A16A012902D09D
:100FE00008E0022010BDA169012903D0816B41F402
:100FF00080318163206803F07DF8206803F056FBA0
:10100000002084F8BC0310BD10B50446D0F80404D9
:1010100002F08EFC2068D0F8001E41F00101C0F8FB
:10102000001E206A002804D00248016841F0060131
:10103000016010BD10ED00E00648026822F00402D5
:101040000260012903D040BF20BF20BF704730BFDE
:101050007047000010ED00E02DE9F84304460068F9
:101060004FF00109C1074FF0000601D1400727D515
:10107000DFF81C81C8F86860FFF786FA0746454D1F
:1010800005E000BFFFF780FAC01B022857D8286888
:101090000001F7D460688101207A41EA00703D497F
:1010A00084310860C8F86890FFF76EFA074604E0DC
:1010B000FFF76AFAC01B022841D828680001F7D55B
:1010C0002078800752D533484030016841F0805184
:1010D00001600068304D00F080500090286840F4B6
:1010E00080702860FFF750FA074604E0FFF74CFADB
:1010F000C01B022823D82868C005F7D5254D7035B8
:10110000286810F4407020D0A18901F44071814218
:101110001BD0286820F440712048C0F80090066079
:1011200029602868C00710D0FFF72EFA064641F262
:10113000883707E0FFF728FA801BB84202D903205E
:10114000BDE8F88328688007F4D5E1681148C1F349
:1011500001220830032A12D0016821F4F81101603D
:101160002868A189C1F30B01084328602078000793
:1011700003D50B49207CC1F8E0010020E0E70268BC
:10118000084B22F4F81219400A430260E8E7000015
:10119000000047420038024000700040400E4742C5
:1011A00000104742FFFCFF0F2DE9F0470E460500F7
:1011B00065D0DFF81481D8F80000F7B200F00F0016
:1011C000B04207D288F80070D8F8000000F00F0095
:1011D000B04254D128683D4C810712D5400703D551
:1011E000206840F4E05020602878000703D520688C
:1011F00040F4604020602068A96820F0F0000843B7
:1012000020602878C0072DD0304968680839012847
:1012100012D0022813D0032811D0096889070029A9
:101220002DDA216821F0030101432160FFF7ACF9B9
:10123000814641F2883A0EE009688903EFE70968C0
:101240008901ECE7FFF7A0F9A0EB0901514502D9AC
:101250000320BDE8F0872068696800F00C00B0EB5F
:10126000810FEFD1D8F80010404601F00F01B142D4
:1012700007D90770006800F00F00B04201D00120CC
:10128000E7E72878400705D52068E96820F4E050B2
:10129000084320602878000706D52068296920F4D3
:1012A000604040EAC100206000F01EF82168084A52
:1012B000C1F30311515CC840064908600648006844
:1012C000FFF78AF90020C4E7003C024008380240DA
:1012D000D2740008A0000020980000200148006897
:1012E00070470000A0000020154810B5006810F0FD
:1012F0000C02144813D01449042A0FD0082A0ED126
:101300000F4C241F2268236802F03F025B0207D5BE
:101310002068C0F38810A0FB010106E0084610BD5C
:101320002168C1F38811A1FB00010023FEF74EFFE5
:101330002168C1F30141491C4900B0FBF1F010BD27
:10134000083802400024F40040787D012DE9F84F70
:1013500004006ED02078DFF83C93C007A9F10405A3
:101360004AD009F104000168C1F38101012908D0C4
:101370000068C0F3810002280AD1D9F800004002B9
:1013800006D52868800337D560680028E1D033E0AF
:101390006068B0F5803F10D0B0F5A02F286810D05D
:1013A00020F480302860286820F48020286060685D
:1013B000A8B1FFF7E9F806460DE0286840F4803050
:1013C000F4E740F480202860F7E700BFFFF7DCF87F
:1013D000801B642873D828688003F7D50CE0FFF7DA
:1013E000D3F8064605E000BFFFF7CEF8801B64285F
:1013F000F0D828688003F7D42078DFF89C82800733
:101400004FF0000A3ED5A348001D016811F00C0FF3
:1014100008D00068C0F3810002280BD1D9F8000081
:10142000400207D42868800716D5E068012800D15B
:1014300012E02BE1E068B8B10120C8F80000FFF726
:10144000A3F8064605E000BFFFF79EF8801B0228C0
:10145000C0D828688007F7D52868216920F0F800EF
:1014600040EAC10028600DE0C8F800A0FFF78CF842
:10147000064604E0FFF788F8801B02281FD828687A
:101480008007F7D42078000722D5824E834861690F
:10149000703671B101210160FFF776F8074604E06C
:1014A000FFF772F8C01B022809D830688007F7D50B
:1014B0000EE0C0F800A0FFF767F8074605E082E0FD
:1014C000FFF762F8C01B02287DD830688007F7D488
:1014D0002078400768D5DFF8BCB100270BF13C0B42
:1014E000DBF80000C0000BD4DBF8001041F08051A5
:1014F000CBF80010DBF80000012700F080500090CE
:10150000674E3068C00510D4306840F48070306099
:10151000FFF73AF8009005E0FFF736F80099401A17
:10152000022850D83068C005F6D55A4EA0686C36EF
:1015300001280FD00528306810D020F0010030605D
:10154000306820F004003060A068B8B1FFF71CF8E4
:1015500000900FE0306840F00100F4E740F0040034
:101560003060F7E7FFF710F80099411A41F2883030
:10157000814266D830688007F4D50EE0FFF704F8A2
:10158000009007E0FFF700F80099411A41F2883017
:10159000814256D830688007F4D42FB1DBF80010B0
:1015A00021F08051CBF80010A069C8B33949091D5A
:1015B0000968C1F3810102294AD00228504607D0A8
:1015C000C8F8600000E03CE0FEF7DEFF04463BE0C8
:1015D0004746C8F86000FEF7D7FF064605E000BFA3
:1015E000FEF7D2FF801B02282BD828688001F7D491
:1015F000D4E907010843A16A2A4A490802EB0141DC
:10160000626A41EA8211084394F82C1040EA0161B1
:10161000C9F8001001203866FEF7B6FF044606E060
:1016200036E000BFFEF7B0FF001B022809D828688B
:101630008001F7D52CE000BFFEF7A6FF001B0228B3
:1016400002D90320BDE8F88F28688001F4D41FE098
:101650000128F7D0D9F80000E26900F48001914236
:1016600014D1226A00F03F0191420FD147F6C071B8
:10167000626A0140914209D1A26A00F4403191426C
:1016800004D1E16A00F07060884201D00120D9E7FE
:101690000020D7E70438024000004742800E47424E
:1016A000007000400000FFFF70B5040002D0607FB2
:1016B00010B106E0012070BD00202077204600F028
:1016C00049F8022060772168CA20486221685320C7
:1016D0004862204601F054F8FF25042618BB206814
:1016E00081681B4A114081602168886862681043E4
:1016F000D4E904231A43104388602168E068086134
:1017000020680169228941EA024101612068C168BB
:1017100021F08001C16020688068800607D42046DF
:1017200000F0FEF818B1206845626677C2E72068CD
:10173000016C21F4802101642068016CA2691143CD
:1017400001642068456201206077002070BD0000C0
:10175000BFFF8FFF00680349884202D10249012080
:1017600008607047002800403C0E47422DE9F047D2
:101770000446007F0B4601281FD04FF0010984F872
:101780001C9002206077DAB19878D97840EA014558
:1017900058781978000240EA413005432168CA2090
:1017A0004862216853204862204600F0E9FF002685
:1017B000FF274FF0040860BB1AE00220BDE8F08765
:1017C0005878C10603D500F0EF000A305870D87879
:1017D00000F0CBFF0204587800F0C7FF42EA002275
:1017E000987800F0C2FF0243187842EA4035D5E706
:1017F0000F480540206845602068C16821F08001DD
:10180000C1602068806880060AD4204600F088F80D
:1018100030B12068476284F81D8026770120CDE72B
:101820002068476284F81D9026770020C6E70000F4
:101830003FFFFF002DE9F0470446007F0D460128D9
:1018400027D04FF0010A84F81CA00220607720689E
:10185000002680684FEA4060F2B1002800DBEE709D
:10186000A878297840EA01476878E978000240EAD8
:10187000014007432168CA2048622168532048621A
:10188000204600F07DFF4FF0FF084FF00409A0BB99
:1018900016E00220BDE8F087002800DBEE70287813
:1018A00000F063FF0204687800F05FFF42EA002264
:1018B000A87800F05AFF0243E87842EA0047D9E7E7
:1018C00016480740206807602068816821F480215D
:1018D0008160D5E90301084321688A681043886064
:1018E0002068C16821F08001C1602068806880069E
:1018F0000BD4204600F014F838B12168C1F82480D8
:1019000084F81D9026770120C4E72168C1F824805F
:1019100084F81DA026770020BCE700007F7F7F00B1
:1019200070B504460068C16821F0A001C160FEF7EF
:101930002BFE05464FF47A7607E000BFFEF724FE43
:10194000401BB04201D9032070BD2068C0688006EA
:10195000F4D5002070BD704738B5016804464A6868
:101960008868C043430606D5C30704D1D3435B064A
:1019700001D4216C05E0830708D4D3431B0605D4AA
:10198000616C01B02046BDE830400847830603D5AE
:10199000430601D5C30551D4D3439B064ED4430619
:1019A0000AD494F85130032B49D0636D43F00403FB
:1019B0006365CB688B680093830609D4636D43F03D
:1019C000010363658B6800930B6823F040030B6091
:1019D000C00506D4606D40F008006065206880682E
:1019E0000090606D002829D02068416821F0E00156
:1019F0004160012084F85100900701D4D00722D023
:101A00002068416821F003014160114DE06C40B154
:101A10000565E06CFEF7BCFC18B1606D40F040005D
:101A20006065A06C002809D00565A06CFEF7B0FCCD
:101A3000002803D0606D40F04000606538BDC86884
:101A40008868009038BD2046FFF785FF38BD00004C
:101A50003D30000870B5040005D00025A56294F85B
:101A6000510010B106E0012070BD84F850502046AE
:101A700000F030F8022084F851002068016821F05D
:101A800040010160D4E901010843D4E90312114384
:101A9000084361690843218B01F400710843E1693F
:101AA0000843216A0843A16A084321680860A069C5
:101AB000042101EA1040616A0843216848602068F7
:101AC000C16921F40061C1616565012084F851009C
:101AD000002070BD10B586B0044614216846FEF79C
:101AE000BFFB17492068884228D1164800210268A8
:101AF00042F480520260006800F480500590114862
:101B00001438026842F001020260006800F001002F
:101B10000590E02000900220CDE901010320039010
:101B20000520049069460848FEF756FC002211463D
:101B30002320FEF79FFD2320FEF78EFD06B010BD8B
:101B40000030014044380240000002402DE9F84FC7
:101B5000044640680025984616460F464FF0040B91
:101B6000B0F5827F01D1A06888B194F850000128B7
:101B700018D0012084F85000FEF706FD814694F845
:101B800051004FF0000A01280ED002257DE084F8B4
:101B900051B013460A462046CDF8008000F02CF9DB
:101BA000BDE8F88F0220FBE7002F6DD0002E6BD030
:101BB00084F851B0C4F854A0A763A687E687C4F898
:101BC00030A0A4F834A0A4F836A0C4F840A0C4F80B
:101BD00044A0A068B0F5004F04D12068016821F44A
:101BE0008041016020680168490603D4016841F022
:101BF00040010160E068D8B139E020688168C90718
:101C000009D0007BA16B0870A06B401CA063E08F23
:101C1000401EE0870CE0FEF7B7FCA0EB0901414550
:101C200003D3B8F1FF3F03D036E0B8F1000F33D053
:101C3000E08F0028E1D11DE020688168C90709D044
:101C4000C068A16B0880A06B801CA063E08F401E61
:101C5000E0870CE0FEF798FCA0EB0901414503D3B7
:101C6000B8F1FF3F03D017E0B8F1000F14D0E08FB8
:101C70000028E1D14A464146204601F0E7F908B183
:101C800020206065606D00B10125012084F85100BD
:101C900084F850A0284683E70325F6E72DE9F84F9E
:101CA000044690F8500000271D4616468946012834
:101CB0000DD04FF0010B84F850B0FEF765FC804664
:101CC00094F85100BA46012804D002278EE0022081
:101CD000BDE8F88FB9F1000F7DD0002E7BD0032036
:101CE00084F85100C4F854A0C4F83090A686E68663
:101CF000C4F838A0A4F83CA0A4F83EA0C4F844A0BE
:101D0000C4F840A0A068B0F5004F04D12068016875
:101D100041F48041016020680168490603D40168EC
:101D200041F040010160E068B0F5006F606803D0E9
:101D300030B3012E24D040E008B1012E1CD1206B1D
:101D400021680088C86006E020688168890709D595
:101D5000216B0988C160206B801C2063E08E401ECF
:101D6000E08609E0FEF710FCA0EB0800A84202D3D1
:101D7000681C01D031E07DB3E08E0028E4D11FE083
:101D8000206B21680078087306E020688168890765
:101D900009D5216B09780173206B401C2063E08E0C
:101DA000401EE08609E0FEF7EFFBA0EB0800A8422A
:101DB00002D3681C01D010E075B1E08E0028E4D198
:101DC00042462946204601F06FF908B1202060659F
:101DD000A06820B107E008E0FFE7032706E02068DD
:101DE000C16880680090606D00B1012784F851B02F
:101DF00084F850A038466BE72DE9F84F044690F878
:101E0000500000270A9E1D4692468B464FF001095E
:101E100001280ED0012084F85000FEF7B5FB804663
:101E200094F85100616801280CD0B1F5827F07D188
:101E300002E00220BDE8F88FA16809B9042801D0AA
:101E40000227C2E0BBF1000F27D0BAF1000F24D067
:101E50001DB394F85100042802D0052084F85100E5
:101E600000206065C4F838A0E587A587C4F830B0C5
:101E7000E586A5862064606420680168490603D46D
:101E8000016841F040010160E068B0F5006F6068F2
:101E900005D0E8B3012D46D07FE0012795E008B1D9
:101EA000012D39D1206B21680088C860206B801C0F
:101EB0002063E08E401EE0862EE02068816889075E
:101EC0000FD5E18E69B1B9F1010F0AD1216B0988F3
:101ED000C160206B801C2063E08E401EE0864FF0C6
:101EE000000920688168C9070CD0E18F51B1C06832
:101EF000A16B0880A06B801CA063E08F401EE08770
:101F00004FF00109FEF740FBA0EB0800B04200E0F3
:101F100009E001D3701C50D1E08E0028CDD1E08FB4
:101F20000028CAD13FE0206B216800780873206B3D
:101F3000401C2063E08E401EE0862EE02068816811
:101F400089070FD5E18E69B1B9F1010F0AD1216B73
:101F500009780173206B401C2063E08E401EE086F0
:101F60004FF0000920688168C9070CD0E18F51B19A
:101F7000C068A16B0870A06B401CA063E08F401E7E
:101F8000E0874FF00109FEF7FFFAA0EB0800B0422E
:101F900002D3701C01D010E07EB1E08E0028CDD1BC
:101FA000E08F0028CAD142463146204601F07CF835
:101FB00028B101272020606507E0032705E0A0681D
:101FC00018B92068C16880680090012084F8510029
:101FD000002084F8500038462CE710B5401EB0F1C0
:101FE000807F01D3012010BD4FF0E02460610F21FC
:101FF000601702F0B6FE0020A061072020610020DB
:1020000010BDFEE7F0B500230A24302537261F4611
:1020100011E000BFB4EB107F02D905EB107C01E0AA
:1020200006EB107C01F813C001EB430C00015B1CB4
:102030008CF80170DBB29342ECD3F0BD70B5D0F8F0
:10204000BC42054604F58051087F38B9886928B13B
:10205000607A18B90121284601F058FC81212846F0
:1020600001F054FC607A022809D18121284601F050
:102070004DFC2846BDE87040012101F047BC70BD11
:1020800070B5D0F8BC42064604F580550121686958
:102090006863A869A863304601F060FB1F280AD175
:1020A00026492869884206D1697F012903D8A87F7B
:1020B00008B1102808D9697F20230522304600F096
:1020C000C1FE022060720AE041F21F002218304671
:1020D00000F0BEFB0028207A08DA052804D030463C
:1020E000BDE87040FFF7AABF012120E0022823D0FD
:1020F000012821D003281FD0E568BDB104F11002EA
:10210000D6F8BC42304604F580518B69AB4200D30F
:102110002B468E6B751B8D63002581F83C50042186
:102120002172BDE87040812101F00BBC00213046D6
:10213000BDE8704000F0A0B870BD000055534243A8
:1021400010B50446D0F8BC02407A022809D009062E
:1021500011D501280FD02046BDE81040012100F024
:102160008BB88121204601F0D1FB2046BDE810400C
:10217000012101F0CBBB10BD10B5D0F8BC22044644
:10218000107A022805D0032801D0042811D100219B
:102190000AE041F21D00815C801C0244204600F0F0
:1021A00057FB002805DA01212046BDE8104000F069
:1021B00063B810BD10B5D0F8BC220446107A88B1BF
:1021C000012814D141F21D00815C801C024420468C
:1021D00000F03EFB00280ADA2046BDE8104001214D
:1021E00000F04AB82046BDE81040FFF749BF10BDD7
:1021F000D0F8BC0200210172704770B5D0F8BC4223
:1022000005460020207204F58051607281F861005B
:1022100001F8600F8870D5F8C00201680020884777
:102220000121284601F091FA8121284601F08DFA1A
:1022300041F2100022182846BDE870401F230121FA
:1022400001F0E0BA70B5D0F8BC420546002020721B
:10225000012060728121284601F0CBF90121284636
:1022600001F0C7F941F2100022182846BDE870407D
:102270001F23012101F0C6BA70B5D0F8BC42054653
:1022800004F580520B48106382F83C100020207245
:1022900041F2300022180D238121284601F051FB24
:1022A00041F2100022182846BDE870401F2301218A
:1022B00001F0A8BA5553425310B59CB02E492F488F
:1022C000FEF742F82C4C641E0028207051D10122E8
:1022D000611C2B4804F090F9207050B1022020704E
:1022E000C00200220090274B1146601C03F0DEFE66
:1022F00039E0062224A12B4804F0AAF9002832D1A3
:10230000FEF73AF902462848038828A101A802F0FE
:1023100001FD01A8FDF7AFFF02461AAB01A9214854
:1023200004F0E7FA2848416802680B0D27A101A8CC
:1023300002F0F0FC01A8FDF79EFF02461AAB01A9CE
:10234000184804F0D6FA2D4901A802F0E3FC01A8D0
:10235000FDF791FF02461AAB01A9124804F0C9FA31
:10236000104803F08FFE012225A1054804F044F92E
:1023700020701CB010BD00001D00002008000020CF
:10238000180200207C22002057654163742053749A
:102390007564696F20436F726520426F6172642EAD
:1023A000747874004C120020227AFF1F4D43552090
:1023B00049443A20307825782C20524F4D3A202538
:1023C000644B420D0A0D0A00803B00205732355104
:1023D00058580D0A466C6173682049443A203058B9
:1023E00025580D0A466C6173682053697A653A2056
:1023F0002564204D420D0A0D0A0000007C7A000879
:1024000000000000F0B587B014216846FDF728FFF2
:102410002A480024016841F004010160016801F0CC
:1024200004010591016841F080010160016801F03B
:1024300080010591016841F001010160016801F02E
:1024400001010591016841F002010160006801226B
:1024500000F002001A4D5603059031462846FEF75B
:1024600085F8184F012210213846FEF77FF80096B4
:102470000126CDE90164694628460394FDF7ACFFC7
:1024800048F20F700325CDE90005694602943846ED
:10249000FDF7A2FF1020CDE9000669463846CDE9D8
:1024A0000245FDF799FF4FF2FF70CDE9000569463F
:1024B00002940548FDF790FF07B0F0BD30380240A8
:1024C00000080240000002400004024010B586B03F
:1024D00014216846FDF7C4FE1C4800241A490594DF
:1024E000C0E900147F218160FF21C0E90314446129
:1024F0008461FFF7D9F808B1FDF725FF8DF800409A
:102500008DF801408DF802400394012269460F487E
:102510000494FFF78FF908B1FDF715FF01208DF83E
:10252000140004218DF815108DF8160019208DF86F
:102530001700012205A90548FFF718F9002801D066
:10254000FDF701FF06B010BD00280040A0010020EB
:102550000F4810B50D4901604FF4827141600021B0
:102560008160C1604FF400720161C0E90512C16170
:102570000162416281620A21C162FFF76BFA0028A1
:1025800003D0BDE81040FDF7DEBE10BD00300140B5
:10259000C001002010B500220F49104801F00FF8CB
:1025A00008B1FDF7D0FE0E490C4801F0C3FA08B19E
:1025B000FDF7C9FE0B49094801F039FA08B1FDF7EA
:1025C000C2FE064801F030FB002803D0BDE81040F1
:1025D000FDF7B9BE10BD0000240000207C320020B1
:1025E000B000002074000020FEE770470148FEF7AD
:1025F000DBB900004C3700202DE9F04103680D469F
:1026000004461E6C03EB4511D1F8080BD4F810E01A
:102610004FF400474FF0200C04F57172BEF1010F2A
:1026200009D0DFF898E0764539D1020432D500BFF1
:10263000C1F8087B3FE0224B5FEA007E04D59E4252
:1026400039D90004F4D436E05FEA806E02D5C1F8CF
:1026500008CB30E010F0280F2DD19E4201D90004A4
:10266000E6D4C5EBC50004EB8000D1F8101BD0F810
:102670000432C1F31201591AC0F81412D0F808122A
:102680001944C0F8081295B9D4F8100278B901219C
:1026900020680AE080060AD5C1F808CB07E035B902
:1026A000D4F8100218B90021184601F087FEE9B2EB
:1026B0002046FEF745F80020BDE8F0810A31544F6E
:1026C0000A30544F2DE9F84F0E46C1EBC60100EB1E
:1026D000810481460568D4E914103C34884202D94B
:1026E0000120BDE8F88F081AA168814200D208468F
:1026F000C01C870805EB46181BE000BFA0EB010AD1
:10270000A068504500D282460AF10300870899F874
:10271000100000901FFA8AF3F2B22846E16802F036
:10272000D5F8E16801EB0A00E060A16901EB0A005D
:10273000A061D8F8180980B2B84205D3D4E90501E0
:10274000814201D20028D9D1D4E90501884208D8B4
:1027500006F00F0101208840D5F834188143C5F8F0
:1027600034180020BDE770477047002102E00A38A6
:10277000C0B2491C0A28FAD2090740EA1160704722
:1027800070B504460068C168490614D44FF0FF31A3
:10279000C160FDF7F9FE05464FF47A7607E000BF09
:1027A000FDF7F2FE401BB04201D9032070BD206846
:1027B000C0684006F4D5002070BD10B5D0F8BC420A
:1027C0001A4404F58054A36E9A4206D921230522A7
:1027D00000F038FB4FF0FF3010BD002010BD0000AE
:1027E00070B50546D0F8BC02134600F580524FF094
:1027F000FF34966976B15E78F60714D0997861B1A6
:1028000080290DD0517F24230522284600F01AFB91
:10281000204670BD517F2023F6E706220A490FE0CB
:1028200008220A490CE0D5F8C02201EBC1011B794E
:10283000D26902EB81010A79521D934200D81A46EF
:1028400000F029FB002070BD52010020580100203B
:102850002DE9F04713780025D0F8BC424FF0FF3641
:102860004FF00208252B74D00FDC1A2B77D005DC33
:1028700013B3032B42D0122B17D143E01B2B45D0AF
:102880001E2B5FD0232B10D184E05A2B76D006DC90
:10289000282B6ED02A2B6DD02F2B06D196E09E2BA5
:1028A00069D0A82B68D0AA2B67D02023052200F07E
:1028B000C9FA84F809801EE0074604F5805088466E
:1028C000816921B1417F20230522384683E090F8B9
:1028D00062004FF00509022805D0D7F8C0028168D0
:1028E0004046884738B33A2302224146384600F032
:1028F000A9FA84F808903046BDE8F087BDE8F047B3
:1029000000F064BABDE8F047FFF76ABF04F58053F2
:1029100093F86270012F04D1177907F00307022F93
:1029200057D0117901F00300012808D0022803D004
:10293000C843800703D05AE083F8628057E083F8E9
:10294000625054E0107930B141F26200012101552A
:102950004DE023E003E041F26200055547E01279C3
:1029600017212046172A00D811460A4621490DE0B2
:1029700004E01BE022E015E01CE023E0127A1B21BA
:1029800020461B2A00D811460A461B4900F083FA4C
:102990002846B1E7BDE8F04700F0E0B9BDE8F047F0
:1029A00000F05EB9BDE8F04700F08CB9BDE8F04733
:1029B00000F0B3B8BDE8F04700F0FFB8BDE8F0475D
:1029C00000F075BABDE8F04700F0CDBA5278920732
:1029D00004D52423052200F035FA8CE7A4F694727E
:1029E00002F500520CCAFFF7E8FE002883DBE56021
:1029F000CEE7000060010020770100202DE9F047BC
:102A0000D0F8BC62074606F580548846B4F86400E6
:102A1000256F4FF4805145438D4200D30D46B5FBE1
:102A2000F0F083B2D7F8C00206F11001E26ED0F8E0
:102A300010C089464046E047002809DA11230422E5
:102A40004146384600F0FEF94FF0FF30BDE8F08710
:102A50002B464A468121384600F073FFB4F86400E3
:102A6000E26EB5FBF0F1B5FBF0F01144E166216FC9
:102A7000081A2067A16BA1EB0501A16301D1032016
:102A800030720020E2E72DE9F0478846D0F8BC120A
:102A9000064601F580544FF48057B4F86400256F62
:102AA0004543BD4200D33D46B5FBF0F083B2D6F8B6
:102AB000C0021031E26ED0F814C089464046E047AB
:102AC000002809DA032304224146304600F0BAF90F
:102AD0004FF0FF30BDE8F087B4F86400E26EB5FB5C
:102AE000F0F11144E166B5FBF0F1226F531A236750
:102AF000A16BA1EB0501A1630AD04343BB4200D304
:102B00003B464A460121304600F07CFE0020E1E7CA
:102B100000213046FFF7B0FBF8E72DE9F047D0F889
:102B2000BC5207461646287A894678BB05F580547C
:102B30004FF0FF38207F000630D594F8620002285D
:102B400009D0D7F8C00281684846884748B13A237F
:102B50000222494601E03A230222384600F072F987
:102B600011E0D6F80200494600BA20F0FF02707961
:102B70000243E266B6F8070043BA38462367FFF718
:102B80001CFE002803DA4046BDE8F0870CE0B4F8EC
:102B90006410206F4843A169884203D02023617FDD
:102BA0000522DAE7022028724FF48050E860494697
:102BB0003846BDE8F047FFF721BF2DE9F047D0F8D0
:102BC000BC5207461646287A894690BB05F58054C4
:102BD0004FF0FF38207F000633D594F862000228BA
:102BE00009D0D7F8C00281684846884748B13A23DF
:102BF0000222494601E03A230222384600F022F937
:102C000014E056F8020F494600BA20F0FF02F078AF
:102C10000243E266706800BA20F0FF03F0790343D4
:102C200038462367FFF7C9FD002803DA4046BDE8B0
:102C3000F0870CE0B4F86410206F4843A169884223
:102C400003D02023617F0522D7E7022028724FF4AA
:102C50008050E86049463846BDE8F047FFF7CEBEF1
:102C600070B505460E46D5E9AF40436841F26400B1
:102C70002218001D211830469847D0B904F580521B
:102C800092F86200022814D0906E401E010E21744A
:102C9000010C6174010AA174E07400202075607554
:102CA000B2F86400010AA175E0750820E060002018
:102CB00070BD3A2302223146284600F0C3F84FF097
:102CC000FF3070BD2DE9F04106461546D6E9AF400C
:102CD0000F46436841F264002218001D211838464F
:102CE000984780B904F5805292F8620002280AD011
:102CF000D5F80A00697B00BA20F0FF000843E060C5
:102D0000002001460DE03A2302223946304600F009
:102D100099F84FF0FF30BDE8F0812318401C19747A
:102D2000C0B2E3688342F8D8906E401E030E23754C
:102D3000030C6375030AA375E07521766176B2F81A
:102D40006400010AA176E076D5F80A00697B00BA32
:102D500020F0FF000843E0600020DCE77CB505467A
:102D60000E46D5E9AF406A46436801A93046984708
:102D700018BB41F26200005D02281ED0002001460F
:102D80002218401C80B211740C28F9D30820E0747A
:102D90000198401E020E2275020C6275020AA2758D
:102DA000E075022020766176BDF80000010AA17668
:102DB000E0760C20E06000207CBD3A230222314600
:102DC000284600F03FF84FF0FF307CBD70B5D0F8DA
:102DD000BC1201F580539C6914B3002005460C1801
:102DE000401CC0B225741228F9D3702008740C203E
:102DF000C87593F8600093F86140A0421AD001EBC7
:102E0000C00404F58254401C26788E7426790E770F
:102E10006479C0B24C7783F86000042808D009E0D8
:102E2000597F2023052200F00DF84FF0FF3070BDD0
:102E300083F860501220C8601079122800D8C8604A
:102E4000002070BD10B5D0F8BC1201F5805090F88C
:102E5000614001EBC40404F5805484F8402090F8EC
:102E6000612001EBC20202F5805282F8443090F8F2
:102E70006130002201EBC30101F5805181F845204A
:102E800090F86110491CC9B280F86110042901D181
:102E900080F8612010BD10B5C26004E0521E92B2ED
:102EA00084188B5C2374002AF8D1002010BD2DE912
:102EB000F047D0F8BC5206461746287A894620B11A
:102EC0003046BDE8F047FFF7DEBD05F580544FF012
:102ED000FF38A069A0B3207F000631D4D6F8C00225
:102EE00081684846884728B13A230AE03046FFF710
:102EF000A9FF1BE0D6F8C002C1684846884718B150
:102F0000272302224946F1E7D7F80200494600BAD2
:102F100020F0FF0278790243E266B7F8070043BA6F
:102F200030462367FFF749FC002802DA4046BDE837
:102F3000F087B4F86400236F4343A069984203D03C
:102F40002023617F0522D1E74FF48050834200D3D4
:102F5000034601202872014605F11002304600F0B8
:102F600051FC0020E3E72DE9F047D0F8BC520746BA
:102F70001646287A8A4620B13846BDE8F047FFF762
:102F800082BD05F580544FF0FF39A06910B1207F54
:102F9000000606D5617F202305223846FFF752FF41
:102FA0002DE0D7F8C0028168504688474FF00508E9
:102FB00008B13A2306E0D7F8C002C16850468847F6
:102FC00040B12723022251463846FFF73BFF85F8E0
:102FD000088014E056F8020F514600BA20F0FF02B4
:102FE000F0780243E266706800BA20F0FF03F079DF
:102FF000034338462367FFF7E0FB002802DA484620
:10300000BDE8F087B4F86400236F4343A069984299
:10301000C0D14FF48050834200D303460120287270
:10302000014605F11002384600F0ECFB0020E7E70E
:103030000148FEF791BC0000C001002010B5806B74
:103040000021C187C186FEF786FC10BDF8B5044695
:1030500040684FF48273984221D1A0684FF4806594
:10306000B0F5004F01D0A8420AD12068066826F0CA
:10307000400606606068984211D1A068A8420ED050
:1030800000920B4600228021204600F039F80028EB
:1030900004D0606D40F0200060650320F8BD009210
:1030A0000B4600220121EFE738B504461248134BC6
:1030B0000068B0FBF3F04FF47A73584300906068F7
:1030C000B0F5827F0DD10B46009200228021204670
:1030D00000F016F870B1606D40F0200060650320CC
:1030E00038BD009830B1401E009020688068C04311
:1030F0000006F6D5002038BDA000002000366E0185
:103100002DE9F0411D4617460E460446DDF81880AD
:1031100008E0681C06D0FDF737FAA0EB0800A842CB
:103120000BD255B12068806836EA000030D000200C
:10313000B842EED10020BDE8F0812068416821F05E
:10314000E00141606068B0F5827F0BD1A068B0F506
:10315000004F02D0B0F5806F04D12068016821F0E3
:1031600040010160A06AB0F5005F09D120680168E4
:1031700021F4005101602068016841F400510160B0
:10318000012084F85100002084F850000320D2E789
:103190000120CDE7034803690B60808A108000207E
:1031A00070470000803B00200020704700207047DF
:1031B00000207047002070472DE9F0411F4615465A
:1031C0000E460024DFF82C800FE000BFD8F8141062
:1031D00001FB05F00A460146304601F0ADFCD8F887
:1031E0001400641C0644A4B26D1CBC42EED3002043
:1031F000BDE8F081803B00202DE9F041984615465E
:103200000F4600240B4E10E07069684301F0DCFBB0
:10321000716901FB05F00A460146384601F0E8FCF9
:103220007069641C0744A4B26D1C4445ECD30020B3
:10323000BDE8F081803B002070470178407841EA8A
:1032400000207047FDF7A6B930B597B03021684629
:10325000FDF706F814210CA8FDF702F8142111A8B7
:10326000FCF7FEFF1F480025016841F08051016016
:10327000006800F0805016901B48016821F440411E
:1032800041F4004101600068022400F440401690BF
:10329000052000904FF480300190012002908005BD
:1032A000CDE90640192008904FF4A8700990042039
:1032B0000A9007200B906846FEF748F80CA90F20EB
:1032C00081E83100E002CDE90F0502210CA8FDF7ED
:1032D0006BFFE0011490119411A8FDF7BDFE17B02B
:1032E00030BD0000403802400070004005480168D1
:1032F00041F47001016003494FF0006080390860BB
:103300007047000088ED00E010B5D0F8B8220AB18F
:1033100052689047002010BD134610B50A460021A0
:1033200000F070FA002010BD134610B50A460021C7
:1033300000F007FB002010BD10B50446802100F00E
:10334000E5FA2046BDE81040002100F0DFBA10B5D4
:1033500005210023C0F894121A46194600F052FACB
:10336000002010BD10B502238261C0F89432C26102
:1033700013460A46002100F0E4FA002010BD10B503
:1033800004210023C0F894121A46194600F0D9FA15
:10339000002010BD10B50A46024903A000F0DFF876
:1033A000004810BD4C3500204D534320436F6E66DE
:1033B0006967000012200880004870474400002020
:1033C00010B50A46024903A000F0C9F8004810BD34
:1033D0004C3500204D534320496E7465726661631D
:1033E000650000000420088000487047400000206D
:1033F00010B50A46024903A000F0B1F8004810BD1C
:103400004C35002053544D6963726F656C6563746D
:10341000726F6E696373000010B50A46024903A01B
:1034200000F09DF8004810BD4C35002053544D333A
:1034300032204D6173732053746F726167650000B1
:1034400010B51A2008800A480168001D0468001D94
:103450000068081809D008220649FEF7D3FD05497F
:10346000042210312046FEF7CDFD0248801E10BD1B
:10347000107AFF1F5A000020F8B504460020ADF86E
:10348000000048880D46010A08295FD2DFE801F0F4
:103490005E0409175E5E3C45D4F8B412207C0A68CD
:1034A00019E0207C02260028D4F8B80205D0C16AB1
:1034B000684688470146467039E0816AF8E7C0B23D
:1034C000062843D2DFE800F0030A1014181CD4F8D1
:1034D000B402426805E0694690471CE0D4F8B402A3
:1034E000826892B3207CF6E7D4F8B402C268F8E7A9
:1034F000D4F8B4020269F4E7D4F8B4024269F0E700
:10350000D4F8B4028269ECE7207CF0B9D4F8B802B0
:10351000416B68468847014609E0207CA8B9D4F889
:10352000B802016B68468847014607204870EA8860
:103530008AB1BDF8000040B1824200D90246ADF820
:1035400000202046FFF70EFFF8BDFFE72946204682
:10355000FFF7F2FEF8E72046FFF711FFF4E770B53A
:10356000002300281ED00025044602E06D1CEDB2A9
:10357000641C2678002EF9D1022404EB4504148043
:103580001278CA545B1C0322CA5400245B1C06E058
:10359000CA545B1CDAB28C54521CD3B2401C027861
:1035A000002AF5D170BD01004FF0000004D00129C0
:1035B00001D0022901D0032070470120704730B4A8
:1035C000A0B1D0F8B84200230CB1C0F8B832D0F89E
:1035D000CC420CB1C0F8CC3209B1C0F8B412012110
:1035E00080F89C12027030BC00F0BCB830BC0320E4
:1035F000704710B5D0F8C402FDF7D6F8BDE810400A
:10360000FFF7D1BF10B5D0F8C402FDF7A7F8BDE8A9
:103610001040FFF7C8BF70B51646044649B1D4F84C
:10362000B80242691AB194F89C02032842D00320E0
:1036300070BDD4F89412002504F11400022932D18F
:10364000D0E902318B4206D95A1A826031462046AF
:10365000FFF76AFE0FE0994214D14068884211D307
:10366000D4F8981288420DD2002211462046FFF766
:103670005BFEC4F8985200231A461946204600F013
:10368000C1F810E0D4F8B802C16829B194F89C02DE
:10369000032801D1204688478021204600F036F9D2
:1036A0002046FFF754FE94F8A002012806D184F8C2
:1036B000A05203E0204690470028B9D1002070BDF9
:1036C00010B51346044649B1D4F8B80282691AB15C
:1036D00094F89C02032824D0032010BDD4F894123F
:1036E00004F5AA70032920D1D0E9021291420AD927
:1036F0008A1A8260C068824200D302461946204678
:10370000FFF70AFE11E0D4F8B802016929B194F874
:103710009C02032801D1204688472046FFF72FFE50
:1037200003E0204690470028D7D1002010BD00209C
:10373000704710B5012180F89C12D0F8B82212B160
:10374000526801799047002010BD10B5D0F8C4022E
:10375000FDF758F8BDE81040FFF725BFD0F8C402C8
:10376000FDF76AB810B5017839BB15490222C1F8D6
:103770000404C0F8C4124FF0A04008600420486060
:103780000020C1E90320C1E9062008624862C8623E
:1037900008630846FDF72AFB08B1FCF7D4FD802139
:1037A0000748FCF79AFF402200210548FCF799FFE3
:1037B000802201210248FCF794FF002010BD000088
:1037C0004C3700200A0601F07F01D0F8C402C1EB9B
:1037D000C10100EB810002D590F83E00704790F8DF
:1037E000FE017047002070470020704710B51C464E
:1037F0001346D0F8C4022246FDF727F8BDE8104072
:10380000FFF7D1BE10B5D0F8C402FDF74EF8BDE801
:103810001040FFF7C8BE70B50125044680F89C52E1
:103820000020C4F894026060C4F8A402D4F8BC027A
:1038300028B1D4F8B80200214268204690470022FF
:10384000402311462046FFF7D1FF4026A4F86451DB
:103850003346002280212046C4F86061FFF7C6FF8E
:10386000A5840020266270BD90F89C12042903D123
:1038700090F89D1280F89C120020704710B590F8C7
:103880009C12032904D1D0F8B812C96901B1884744
:10389000002010BD01740020704710B5D0F8C4029C
:1038A000FDF776FBBDE81040FFF77DBE70B504461E
:1038B00000F2AA20054600F027F90120C4F894027E
:1038C000B4F8B002C4F8980294F8AA0210F01F01EC
:1038D0000AD001290ED0022912D000F08001204622
:1038E000BDE8704000F012B829462046BDE870409F
:1038F00000F09CB929462046BDE8704000F0C6BAE9
:1039000029462046BDE8704000F01ABA10B5D0F83C
:10391000C402FCF7EEFFBDE81040FFF744BE10B54F
:10392000D0F8C402FDF74FFBBDE81040FFF73BBEE7
:1039300090F89C1280F89D12042180F89C120020BF
:10394000704710B5D0F8C402FDF70DF8BDE810407F
:10395000FFF729BE10B5FEF70FFC002010BD10B513
:10396000FEF728FC002010BD70B504460121FFF7CA
:1039700049FE0025A4F8785181212046FFF742FE38
:1039800025872046FEF734FCD4F8BC0218B103F0BA
:1039900037FAC4F8BC52002070BD00000A21018033
:1039A00000487047480100202021018000487047EE
:1039B000080100202021018000487047E800002015
:1039C00020210180004870472801002070B504467E
:1039D00041F2740003F0A8FBC0B1C4F8BC02207C23
:1039E0000125C0B14023022201212046FFF7FEFE3F
:1039F000A4F878514023022281212046FFF7F6FEE9
:103A000025872046FEF7F9FB002070BD0020C4F892
:103A1000BC02022070BD4FF4007633460222012121
:103A20002046FFF7E3FEA4F878513346E3E719B1E7
:103A3000C0F8C0120020704703207047F8B5002579
:103A4000D0F8BC720646ADF8005008780C4610F06D
:103A5000600120D020293DD16178FE2902D0FF29C4
:103A600038D10EE0618881BBE188012932D100069E
:103A700030D5D6F8C00280698047012239463860C7
:103A80001FE0618809BBE188F9B9000622D43046FD
:103A9000FEF7D8FB23E0607830B1012824D00A2853
:103AA00009D00B2816D111E096F89C02032811D1F9
:103AB0000222694605E096F89C0203280AD10122F9
:103AC000391D3046FFF74EFC09E003E096F89C02F2
:103AD000032806D021463046FFF72EFC0325284652
:103AE000F8BDA0787860FAE796F89C020328F6D132
:103AF00060880028F3D121793046FFF726FE21792E
:103B00003046FEF71DFBEAE770B5054611F8010BDC
:103B10002870087868704C1C2046FFF78EFB688080
:103B2000A41C2046FFF789FBA880A01CFFF785FB9B
:103B3000E88070BD38B504460020ADF8000041B102
:103B4000C4F8B812896A68468847C4F8CC020020D5
:103B500038BD032038BD02460320D2F8B832002B0E
:103B600002D01B6810461847704700002DE9F0414D
:103B70000F462C4E8978002504463170012906D95C
:103B800039462046FFF7D8FB0320BDE8F08194F8C2
:103B90009C0202280CD003281DD039462046FFF78E
:103BA000CBFB31782046FFF7AFFB03252846ECE737
:103BB00099B320466160FFF7CEFF050004D0394677
:103BC0002046FFF7B9FBF1E72046FFF7D8FB0320BB
:103BD00084F89C02EAE74FF00208C1B160688842AD
:103BE0001BD0C1B22046FFF78FFB317820466160C1
:103BF000FFF7B1FF050010D039462046FFF79CFBC8
:103C000021792046FFF780FB84F89C82CEE784F878
:103C10009C8220466160FFF777FB2046FFF7AFFBF1
:103C2000C4E70000AC000020FFF779BE2DE9F041A9
:103C30000A78002512F0600208D0202A01D0402A1C
:103C400071D1D0F8B8229268904731E04B780022C9
:103C500001260A2B67D2DFE803F0415E665866084A
:103C600005662D29FFF708FC5FE004468888D8B96F
:103C7000C888C8B94888802816D200F07F0794F811
:103C80009C02032810D084F89E7239462046FFF724
:103C900004FE2046FFF773FB1FB1022084F89C024C
:103CA00043E084F89C6240E020463CE0FFF75EFF82
:103CB00005463AE0CB88012B35D190F89C32012B98
:103CC00004D0022B02D0032B2DD104E0826001220C
:103CD00000F1080116E00122011D13E090F89C227A
:103CE000012A03D0022A01D0032A1CD1CA88022A41
:103CF00019D1C660D0F8A41209B10321C160022213
:103D000000F10C01FFF72EFB0FE0498801290CD1CF
:103D1000C0F8A46211E090F89C32012B08D0022B6D
:103D200006D0032B04D0FFF707FB2846BDE8F0813F
:103D300049880129F9D1C0F8A422FFF720FBF4E754
:103D40002DE9F0410D46044628780027097910F046
:103D500060000BD0202801D0402873D1D4F8B802DD
:103D6000294682682046904707468CE06878D8B399
:103D7000012822D0032865D194F89C02022802D0A1
:103D800003287CD10BE0002979D0802977D0204608
:103D9000FFF7BCFD80212046FFF7B8FD73E068887F
:103DA00038B931B1802904D0E88810B92046FFF72E
:103DB000ADFD2046FFF7E3FA65E094F89C02022887
:103DC000E1D003285BD16888D8BB480602D02046E2
:103DD000FFF70FFC2046FFF7D2FAD4F8B8022946C5
:103DE0008268204690474EE0FFE794F89C02002648
:103DF000022802D0032842D111E009B180293ED126
:103E0000080601F07F0000EB800004EB800101D583
:103E1000143101E001F5AA7102220E602BE00806C0
:103E200001F00F0000EB800004EB80000BD5808CCC
:103E300040B101F07F0000EB800004EB80051435F9
:103E40000CE020E01BE0B0F86401C0B101F07F009D
:103E500000EB800004EB800505F5AA7541B18029CF
:103E600006D02046FFF7AEFC10B10120286000E02C
:103E70002E60022229462046FFF774FA03E0294605
:103E80002046FFF759FA3846BDE8F08170B506467E
:103E9000087800240D4610F0600003D0202801D0DF
:103EA000402817D196F89C02012803D0022801D09F
:103EB00003280FD1287901280CD8D6F8B8028268D7
:103EC000304690470446E888204306D13046FFF745
:103ED00056FA02E03046FFF72FFA204670BD000088
:103EE00070B50A78012302F00F054E78AB401B4CE9
:103EF000D0F81C58012E17D045EA0343C0F81C38EF
:103F000000EB4210D0F8002B12040BD4D0F8002B99
:103F10000B89C978C3F30A031A4344EA81410A436F
:103F2000C0F8002B002070BD9BB21D43C0F81C5888
:103F300000EB4210D0F800391B04F3D4D0F800395C
:103F40000D89C978C5F30A0589042B4341EA8251DA
:103F50000B432343C0F80039E4E700000080001061
:103F6000D0F800196FF30A01C0F80019D0F804184E
:103F700041F48071C0F804180020704770B5044601
:103F800006990A9E049D0D98012916D0E06840F01C
:103F90004000E060204600F02BF8A16B1EB321F436
:103FA0008031A163012D07D1A16841F00601A16014
:103FB000A16841F02001A16070BDA16B21F48031A6
:103FC000A163E168094A1140E160E16821F4401110
:103FD000E160012803D1E06840F48010E0602046F1
:103FE00000F006F8DEE741F48031DAE7BFFFBDFFFD
:103FF00001220C4902E0521C8A420BD80369002BB3
:10400000F9DA026942F001020261012204E0521C65
:104010008A4201D9032070470369DB07F7D10020EA
:1040200070470000400D030030B54C780A7801233A
:1040300000EB4212012C2CD0D2F8004B002C0BDAF2
:10404000D2F8004B44F00064C2F8004BD2F8004BA9
:1040500044F08044C2F8004BD0F83C580C7804F08F
:104060000F0403FA04F425EA0444C0F83C48D0F8ED
:104070001C48097801F00F018B4024EA0341C0F885
:104080001C18D2F8000B19490840C2F8000B002098
:1040900030BDD2F80049002C0BDAD2F8004944F0C8
:1040A0000064C2F80049D2F8004944F08044C2F8E4
:1040B0000049D0F83C480D7805F00F0503FA05F5E6
:1040C000ADB2AC43C0F83C48D0F81C48097801F0C8
:1040D0000F018B4099B28C43C0F81C48D2F80009FC
:1040E00003490840C2F80009D1E700000078F3EF67
:1040F000007833EC10B5D0F8041821F00201C0F8B4
:1041000004180320FCF756F9002010BD10B5D0F8B4
:10411000041841F00201C0F804180320FCF74AF922
:10412000002010BD2DE9F04F00250E460446DDF8B5
:104130002CC0DDF824B0109F2846294604EB8002ED
:10414000C2F80411401C0F28F8D32046C7B1806B79
:1041500020F40012A263A06B40F40022A263084680
:104160008846C4F8000ED4F800182046C4F8001899
:10417000BCF1010F16D0D0F8001841F0030116E091
:10418000D0F8040840F00202C4F80428A06B40F400
:104190000012A263A06B20F40022A263A06B20F4A3
:1041A0008022DBE7D0F800180BB141F00101C0F824
:1041B0000018102100F090FA00B10125204600F00F
:1041C0007BFA00B101254046C4F81088C4F8148871
:1041D000C4F81C8800214FF000694FF0904A4FF658
:1041E0007F3314E004EB4112D2F800C9BCF1000F98
:1041F00006DA11B1C2F800A904E0C4F8009901E0A0
:10420000C2F80009C2F81009C2F80839491C8E42E8
:10421000E8D8002115E000BF04EB4112D2F800CB32
:10422000BCF1000F06DA11B1C2F800AB04E0C4F82B
:10423000009B01E0C2F8000BC2F8100BC2F8083B6B
:10424000491C8E42E8D8D4F8101821F48072C4F8C2
:104250001028A0616FF080406061BBF1000F03D1B6
:10426000A06940F01000A061A06909490843A0615D
:104270000C9818B1A06940F00800A061012F03D18B
:10428000A06904490843A0612846BDE8F08F0000FA
:1042900000383C8004000040816821F00101816009
:1042A0000020704770B50D784E78434CEBB200EBB0
:1042B0004313012E1FD0D3F8100B6FF31200C3F875
:1042C000100BD3F8100B2040C3F8100B486908B14D
:1042D00088684861D3F8100B40F40020C3F8100B35
:1042E000D3F8100B8C68C4F312042043C3F8100BEE
:1042F000012A55D058E04E69002ED3F8106932D00B
:104300006FF31206C3F81069D3F810692640C3F89A
:1043100010694E698C68A64200D94C61D3F81049E7
:1043200044F40024C3F81049D3F810494E69C6F389
:1043300012063443C3F81049012A22D000EB45127B
:10434000D2F8003943F00443C2F800394A6932B365
:10435000D0F83428097801F00F03012199400A436D
:10436000C0F8342826E02640C3F81069D3F8104975
:1043700044F40024C3F81049D3F810496FF3120431
:10438000D8E7096919B100EB4512C2F8141900EB1E
:104390004510D0F8001941F00441C0F8001909E0B7
:1043A000C86808B1C3F8140BD3F8000B40F0044000
:1043B000C3F8000B002070BDFFFF07E010B5036CD1
:1043C000134CA34203D9D0F8003B002B1EDB002383
:1043D000C0F8103BD0F8103B43F40023C0F8103B6A
:1043E000D0F8103B43F01803C0F8103BD0F8103B56
:1043F00043F0C043C0F8103B012907D1C0F8142B8B
:10440000D0F8001B41F08021C0F8001B002010BD37
:104410000A30544F4A780B78012A00EB43100BD036
:10442000D0F8002B22F40012C0F8002BC978032921
:1044300014D0022912D017E0D0F8002922F400127B
:10444000C0F80029C978032901D002290CD1D0F87D
:10445000001941F08051C0F8001905E0D0F8001BA8
:1044600041F08051C0F8001B002070470A784B785B
:10447000D1B200EB4110012B12D0D0F8001B002963
:1044800006DB2AB1D0F8001B21F08041C0F8001BE8
:10449000D0F8001B41F40011C0F8001B0020704749
:1044A000D0F80019002906DB2AB1D0F8001921F054
:1044B0008041C0F80019D0F8001941F40011C0F88B
:1044C0000019EBE7F8B50C784F78774DE3B26FF051
:1044D000604600EB4313012F26D0D3F8104B6FF347
:1044E0001204C3F8104BD3F8104B2C40C3F8104BF8
:1044F0004C69002C74D08D682C44641EB4FBF5F418
:10450000D3F8105BA4B206EAC4463543C3F8105B87
:10451000D3F8105B8E686643C6F312042543C3F8D4
:10452000105B012A71D0A6E04F691FB3D3F8107950
:104530006FF31207C3F81079D3F810792F40C3F83E
:1045400010794F698D682F447F1EB7FBF5F506EA99
:10455000C545D3F810693543C3F81059D3F810593D
:104560004E69C6F312063543C3F81059CD78012DB4
:1045700010D01BE0D3F810692E40C3F81069D3F8AF
:10458000105945F40025C3F81059D3F810596FF3AA
:10459000120509E0D3F8105925F0C045C3F81059A9
:1045A000D3F8105945F00055C3F81059012A18D016
:1045B00000EB4413D3F8004944F00444C3F8004925
:1045C000CC78012C2FD04A6962B3D0F8342809780E
:1045D00001F00F03012199400A43C0F8342860E03C
:1045E00036E00A691AB100EB4413C3F81429C978FC
:1045F00001290FD1D0F80818C90500EB4411D1F8F2
:10460000002903D442F0005202E030E042F0805230
:10461000C1F8002900EB4410D0F8001941F0044122
:10462000C0F800193DE0D0F80848E405D3F8004987
:1046300002D444F0005401E044F08054C3F800492F
:1046400000928A8A93B20A78C96800F03FF928E09C
:10465000D3F8104B8D68C5F312052C43C3F8104BEB
:10466000D3F8104B44F40024C3F8104B59E7CA6840
:104670000AB1C3F8142BC97801290CD1D0F8080865
:10468000C005D3F8000B02D440F0005001E040F028
:104690008050C3F8000BD3F8000B40F00440C3F87F
:1046A000000B0020F8BD0000FFFF07E0816841F02B
:1046B0000101816000207047002110220261054A3B
:1046C000491C914201D9032070470369DB06F7D4E6
:1046D00000207047400D03000022202343EA81118F
:1046E00001610549521C8A4201D9032070470369C0
:1046F0009B06F7D400207047400D0300D0F808084F
:1047000010F0060004D0022803D0062801D00F20A4
:10471000704702207047406900F001007047D0F8F0
:104720001818D0F81C08084080B27047D0F8181844
:10473000D0F81C080840000C704710B5D0F81038AD
:10474000D0F8342801F00F0400EB4110E24002F0F1
:104750000102D0F8080943EAC212104010BD00EB74
:104760004111D1F8081BD0F814080840704741697E
:10477000806908407047D21C10B59308002200F5EC
:10478000805002E00468521C10C19A42FAD30846D5
:1047900010BD10B5C26822F0C042C260012902D02B
:1047A00029B1012010BDC16841F0005102E0C1688B
:1047B00041F08041C1603220FBF7FCFD002010BDBC
:1047C000D0F8002822F4FE62C0F80028D0F80028B3
:1047D0004FF4FE6303EA01110A43C0F800280020E9
:1047E00070470000022A3ED1264A274B0A449A42CB
:1047F00001D20F2138E0254A254B0A449A4201D2C2
:104800000E2131E0234A244B0A449A4201D20D2161
:104810002AE0224A224B0A449A4201D20C2123E088
:10482000204A214B0A449A4201D20B211CE01F4A24
:104830001F4B0A449A4201D20A2115E01D4A1E4B21
:104840000A449A420FD31D4A1D4B0A449A4201D290
:10485000082109E01B4A11441B4A914201D2072159
:1048600002E0062100E00921C26822F47052C26011
:10487000C2684FF4705303EA81210A43C2600020EA
:1048800070470000405327FF00350C00401E1BFFFF
:1048900040420F0000DC0BFF804F1200808CF9FEBD
:1048A00020D6130060B6E5FE60E3160000D3CEFE0E
:1048B00040771B00C05BB3FEC091210000CA91FE8F
:1048C00020753800E05459FEE09C410010B5029C70
:1048D00064B9DB1C9C0800EB0230002300F580501B
:1048E00002E004C902605B1CA342FAD3002010BDA1
:1048F00010B500F0FDF8034900B1012008700878F8
:1049000010BD00000600002079B1094801290AD035
:10491000022903D0032904D004207047808A108024
:1049200003E0C06800E000691060002070470000EC
:10493000803B00202DE9F0411F4615460E4600241D
:10494000DFF82C800EE000BFD8F8141001FB05F052
:104950000A460146304600F0EFF8D8F81400641C0F
:1049600006446D1CBC42EFD30020BDE8F08100007E
:10497000803B002002480021017000787047000051
:10498000060000202DE9F041984614460F46002508
:104990000B4E0FE07069604300F016F8716901FB7F
:1049A00004F00A460146384600F022F97069641C9A
:1049B00007446D1C4545EDD30020BDE8F0810000A3
:1049C000803B0020FEE7000038B50446FBF7DCFD25
:1049D000054620208DF80000200C8DF80100200AEB
:1049E0008DF802008DF8034000F062F9114C0022AE
:1049F00010212046FBF7BAFD4FF47A730422694672
:104A00000D48FDF74BF9012210212046FBF7AEFDC2
:104A100040F6B83407E000BFFBF7B6FD401BA042EC
:104A200001D9032038BD00F009F80228F4D0002095
:104A300038BD000000000240C00100207CB511A07C
:104A4000114C00680090002210212046FBF78EFDDB
:104A50004FF47A752B46012269460C48FDF71EF982
:104A60002B46012201A90948FDF770F80122102107
:104A70002046FBF77BFD9DF80400C00700D0022014
:104A80007CBD00000500000000000240C0010020C5
:104A900038B504464FF48070A061000160610001E8
:104AA000E060684600F078F8BDF80000A0F56F40BF
:104AB0001338052801D3012038BD00EE100AF8EEA6
:104AC000C00AB0EE000A00F05DF9BCEEC00ABDF805
:104AD000001010EE100A0005C4E900106169B0FB77
:104AE000F1F12161E168B0FBF1F0A060002038BD78
:104AF00038B50DA00D4C0068009000221021204612
:104B0000FBF734FD4FF47A73022269460848FDF73B
:104B1000C5F8012210212046FBF728FDBDE83840EA
:104B20000448FFF7B5BF000066990000000002408E
:104B3000C0010020803B0020F8B5054603208DF819
:104B40000000080C8DF80100080A8DF80200104FD3
:104B500014468DF80310002210213846FBF706FD9D
:104B60004FF47A763346042269460A48FDF796F8F0
:104B7000A2B2334629460748FCF7E8FF08B10120F6
:104B8000F8BD012210213846FBF7F0FC0020F8BDEB
:104B900000000240C00100207CB5044611A0124D67
:104BA00000680190002210212846FBF7DFFC4FF43B
:104BB0007A763346042201A90C48FDF76FF8334694
:104BC000022269460948FCF7C1FF9DF801009DF8E3
:104BD0000010012200EB0120208010212846FBF765
:104BE000C5FC7CBD9000000000000240C001002018
:104BF0002DE9F84F16460C468346FBF7C5FC0746E1
:104C0000002001E000F58070A042FBD9051BB542F1
:104C100000D9354604EB060ADFF88C804FF0020914
:104C20004FF47A768DF80090200C8DF80100200A60
:104C30008DF802008DF8034000F03AF800221021B0
:104C40004046FBF793FC3346042269461748FDF7BC
:104C500025F830B9AAB2334659461448FDF71EF874
:104C600010B10120BDE8F88F012210214046FBF76A
:104C70007DFC06E0FBF788FCC01BB04201D9032095
:104C8000F0E7FFF7DBFE0228F4D02C4404F5807037
:104C9000AB44504502D9AAEB040501E04FF48075FE
:104CA0005445BFD30020DDE700000240C0010020D2
:104CB000F8B515A000680090FBF766FC134E05469A
:104CC000002210213046FBF751FC4FF47A74234642
:104CD000012269460E48FCF7E1FF0122102130460F
:104CE000FBF744FC0AE000BFFBF74EFC401BA04270
:104CF00001D90320F8BD0120FBF75CFBFFF79EFE06
:104D00000228F1D00020F8BD06000000000002409B
:104D1000C00100200FB4084B10B504A902AA0398E3
:104D200000F09EFB044602A9002000F0F9FC20469A
:104D300010BC5DF814FB0000215700084100080278
:104D400018BF04200A0E18BF40F001004FF07F4248
:104D500032EA010108BF40F00200012808BF052027
:104D600070470907090E002804DB00F1E02080F8F5
:104D70000014704700F00F0000F1E02080F8141DCF
:104D80007047000010B510EE100A2DED068BB7EE3F
:104D9000001A10EE901AB0EE418A0022A0F5000C25
:104DA000DFEDFE9A4FF00073BCF1FE4F4FF07F44F1
:104DB00003EB410C80F0B481BCF1804FC0F0208245
:104DC000F74901449FEDF73AB1F5005F40F2D48214
:104DD00000F58021CB0C03F00F0101EE901AC3F314
:104DE00007137F3BA0EBC350B8EEE12A00EE100A98
:104DF0001A44DFEDED2AF0EE411A42EE221AF0EEEF
:104E0000613A70EE232A30EE632A12EE900A00F522
:104E100000606FF30B0001EE900A73EEE13A33EE9F
:104E2000804AC1EE223A22EE230A10EE100A00F563
:104E300000606FF30B0000EE100A00EE612A00EE36
:104E4000442A62EE232A70EE221A21EEA12ADFED17
:104E5000D73A02EE233A23EE023A20EE012A22EE5E
:104E6000811A03EE211A32EE010A10EE100A00F543
:104E700000606FF30B0000EE100A72EE401A31EE84
:104E8000812A9FEDCB1A60EE011A9FEDCA1A20EE1F
:104E9000011A9FEDC90A02EE001A31EE810A10EEE6
:104EA000100A00F500606FF30B0000EE100AC34813
:104EB00071EEC01A31EE812A784400EBC10090ED0A
:104EC000003AD0ED011A100101EE100AF8EEC12AE5
:104ED00032EE211A31EE001A31EE031A31EE221AA7
:104EE00011EE100A00F500606FF30B0009EE100AD6
:104EF00039EE621A31EE431A31EE400A30EE610AA1
:104F000032EE40AA10EE900A002100F500606FF327
:104F10000B0008EE900A084670EEE8AAFBF7D1F9FC
:104F200029EE280A00F00C01F0EEC00A10EE900AFB
:104F3000B0F18B4F0DDD10EE900AB4EB400F08D3AB
:104F400010EE100A4FF08B4262F31E0008EE900A3A
:104F500013E069EE2A0A38EEAA1A4AEE010A30EE88
:104F6000201A11EE100A00F500606FF30B0008EE36
:104F7000900A30EE680A70EE209A0C20FBF7A1F937
:104F800038EEA90AB5EEC00AF1EE10FA34BFFEEE13
:104F9000000AF6EE000A30EE800ABDEEC00A10EEFE
:104FA000100A011100EE101AF8EEC00A00EE100A05
:104FB000B8EEC00A38EEC00A30EE290ADFED801ADA
:104FC0009FED801A00EE211ADFED7F1A7F4900F075
:104FD0000F0040EE011A21EE800A794401EB8001B6
:104FE00091ED001A7A49794401EB8001D1ED001A64
:104FF000784901EE801A794401EB8000764990ED02
:10500000000A31EE001AB0EEE00A10EE100A8842F3
:1050100015DA10EE100AB4EB400F10D39FED6F0AB3
:1050200030EE800ADFED6E0A20EE200A68EE010AFB
:10503000BDEC068BBCEEC00A20EE200A10BD10EEBF
:10504000100A6849884243DA10EE100AB4EB400FA8
:105050003ED3BDEEE00A68EE010A10EE100A00EB46
:10506000D0725110C90501F17E5100EE101AA0EB6B
:105070006200C00560EE200A00F17E5000EE100ACA
:1050800060EE808A18EE900AB4EB400F0FD1022038
:1050900000F0E0F900F0BEF910EE101A18EE100A58
:1050A000BDEC068B61F31E0000EE100A10BD18EE79
:1050B000900A400011D018EE900AFFF73FFE042836
:1050C00008BF00F0AFF9B0EE680ABDEC068B10BD6A
:1050D000F5EEC00AF1EE10FA0FD2022000F0BAF994
:1050E00000F0A0F910EE101A18EE100ABDEC068BB5
:1050F00061F31E0000EE100A10BD022000F0AAF9B4
:1051000000F088F910EE101AB0EE480A10EE100AFE
:10511000BDEC068B61F31E0000EE100A10BD00BF4F
:10512000BCF1804F6CD300BF00F1FF43B3F1FE4FE1
:1051300024D200BFB0EEC00A10EE100AC1F3C7536C
:105140007F2B0DDB972BBFF63BAEC3F196034FF0E1
:10515000010C0CFA03F3A3F1010C1CEA010F08D0B7
:10516000012000F077F9BDEC068BBDE8104000F09F
:1051700049B90B4218BFBFEE008A21E643001CBFAD
:105180004FF08073B3EB400F34D96FF01A02DFEDAC
:10519000161A20EE210A10EE100A27E00000000087
:1051A000001080C0ABAAAA3E0000803D7EE24C3ECB
:1051B00000B03842D49AB8BB3BAA3842802A0000DB
:1051C000FC596337C9FF753A1872313D1E2A000039
:1051D000522A0000C22900000000FC420000FE42EA
:1051E0000000004B000040430000004D10F0004F55
:1051F000A0D1E5E5A0F50003B3F1FE4F21D2DFE534
:1052000003EB4103B3F1007F11D3F5EEC00AF1EED9
:1052100010FA05D1430018BFB4EB400F76D883E7EE
:1052200001F0004141F0FC5100EE901A7CE7B3F12F
:10523000807F06D210EE903AA3F5000300EE903A7C
:1052400072E720F000426FF0FF4C604C02EB0C0361
:10525000A34210D321F000439C44A4450BD3B0F1EA
:105260007E5F18BF5FEA410C50D0B2F1FF4F98BF8C
:10527000B3F1FF4F05D9BDEC068BBDE8104000F03F
:10528000BDB8B0F1FF4F0FD0C1F3C7527F2A09DB81
:10529000972A11DAC2F19602012303FA02F2531E91
:1052A0000B4205D0002208E011F0004F55D128E054
:1052B0000A4218BF012200D1022210F5000F13D0BC
:1052C00028B3B0F1004F26D010F1814F4FD04FF0EE
:1052D000FE42B2EB400F94BF01200020012202EBFE
:1052E000E171884239D10CE011F0004F02D0012A5F
:1052F00038D032E0012A02BF9FED350ABDEC068BA3
:1053000010BD9FED340ABDEC068B10BD2FE011F0EF
:10531000004F0CD121E0B1F1FF4F1ED011F5000F6D
:1053200005D011F0004F15D00AB1012A08D0022093
:1053300000F090F8BDEC068BBDE8104000F054B8CA
:10534000022000F087F800F04FF8BDEC068BB1EEBC
:10535000400A10BD0AB1012A04D0B0EE690ABDECC2
:10536000068B10BDBDEC068B9FED1B0A10BDBDEC7E
:10537000068BB7EE000A10BD30EE410AB5EE001AFA
:105380009FED172A00EE413AB6EE001A60EE001AC1
:1053900000EE431A61EEC11A9FED101A20EE011AB9
:1053A00020EE020A9FED0F2A01EE820A71EE001A2A
:1053B00011EE900A00F500606FF30B0009EE100A81
:1053C00031EE491A31EE00AA9CE50000FFFF3F00D4
:1053D000000080FF0000807F0000008000B0B84126
:1053E000D49A38BB3BAAB841DFED030AB7EE001AE6
:1053F00081EE200A704700000000000030EE200A15
:1054000070470000DFED020A80EEA00A704700003E
:10541000000000009FED020A20EE000A7047000025
:10542000000000709FED020A20EE000A70470000A5
:105430000000001002E008C8121F08C1002AFAD1BB
:1054400070477047002001E001C1121F002AFBD104
:105450007047000001490860704700009C0100206F
:105460002DE9FF4F8DB09B460F460446002606E00F
:1054700025280BD05A460F999047641C761C20783B
:105480000028F5D111B03046BDE8F08F0025A846C0
:105490000122984900E0054314F8013F203B02FA3D
:1054A00003F00842F7D120782E2817D114F8010F05
:1054B00045F004052A280ED06FF02F022078A0F1C5
:1054C000300109290AD808EB880102EB410100EB01
:1054D0000108641CF2E757F8048B641C20786C28E0
:1054E0000DD004DC4C2812D06A2811D104E07428B5
:1054F0000DD07A280CD10AE045F4001507E0617858
:1055000045F48015814202D1641C05F58015641CA8
:105510002278692A45D008DC002AB3D0582A69D0FD
:10552000632A10D0642A08D13BE0702A67D0732A1E
:1055300013D0752A5CD0782A5CD010465A460F9951
:105540009047761CD3E017F8040B8DF8000000207C
:105550008DF80100E946012003E057F8049B4FF065
:10556000FF3069074FF0000501D40AE06D1C454586
:105570000DDA8542FADB19F805100029F6D106E0AC
:105580006D1C8542FCDB19F805100029F8D12E446A
:1055900004E019F8010B5A460F9990476D1EF8D296
:1055A000A5E00A200021CDE90801C5F30250022838
:1055B0000DD001CFC117031E71F100030DDA4FF0BA
:1055C000000CD0EB0C006CEB01012D2308E0FF1D5B
:1055D00027F00707F7E80201EDE72B0504D52B2399
:1055E0008DF8283001233BE0EB0739D02023F7E783
:1055F0000A2000E010200021CDE9080107E010207A
:10560000002145F00405CDE908014FF00808C5F375
:10561000025002280FD001CF00214FF0000A2B07C3
:105620001FD5702A0DD0DDE908C38CF0100C5CEAA0
:10563000030C0CD015E0FF1D27F00707F7E8020167
:10564000EBE740228DF828204FF0010A0BE050EAEA
:10565000010306D030238DF828308DF8292002234D
:105660009A46582A04D024A20DF120090B9209E091
:1056700026A2F9E7DDE90823FAF7A8FD0B9B9B5C5E
:1056800009F8013D50EA0102F4D1ADEB09002030E8
:105690000890680701D44FF001080899884502DD99
:1056A000A8EB010000E000208046002506E00AA8E3
:1056B0005A46405D0F9990476D1C761C5545F6DBA8
:1056C00004E030205A460F999047761CB8F100014B
:1056D000A8F10108F5DC05E019F8010B5A460F990D
:1056E0009047761C0899481E08900029F4DC641C39
:1056F000C5E6000009280100303132333435363731
:10570000383961626364656600000000303132330D
:1057100034353637383941424344454600000000AD
:105720000A68531C0B6010707047000010B50446E7
:105730000020E070401E2063204601F03CFD08B1CF
:10574000042010BD04F2322001F0A0FCA0F52A4193
:10575000553901D0032010BD94F83400E92805D054
:10576000EB2814D194F83600902810D104F16A0087
:1057700001F081FC0749B1EB002F06D004F186004F
:1057800001F079FC0449884201D1002010BD0220BB
:1057900010BD0000004641544641543300E0401C17
:1057A00002780AB18A42FAD1D0B27047F0B500222D
:1057B000144D134605EB021426685EB10768BE421D
:1057C00009D166688768BE4205D1A4684669B442BB
:1057D00004D000E00123521C022AEBD3022A01D09C
:1057E00069B904E04BB9022907D01220F0BD05EBDE
:1057F00002108089B0F5807F01D00020F0BD10201C
:10580000F0BD0000543B002030B50021054B0C4694
:1058100003EB01121568854200D11460491C02296E
:10582000F6D330BD543B00200268090BC06A528990
:10583000B1FBF2F1001D04C81AB1914203D3891AD9
:10584000F8E7002070470068084470478269891EA5
:10585000921E8A4201D800207047C26A408901FB2B
:10586000002070472DE9F05F82460C4601F11A00D6
:1058700001F00CFC78BB2078012700F03F00401EAF
:1058800000EB8001DFF8589001EBC00500264FF6D1
:10589000FF7B00BF19F80600204401F0F7FB8046AB
:1058A0006FB1FF2D17D201F007F907463AF815003E
:1058B0006D1C01F001F987420DD1474601E0D84542
:1058C00009D1761C0D2EE5D32078400606D52FB1E0
:1058D0003AF8150010B10020BDE8F09F0120FBE769
:1058E000627500082DE9F04105680F00804606D07A
:1058F00001F0EEFA022809D20120BDE8F0812E69FC
:1059000016B1A869B04207D8012605E0411CF4D0C1
:10591000A9698142F1D83E463446A869641CA04278
:1059200002D80224022E0AD32146404601F0D0FAC2
:1059300038B10128E1D0411CDFD0B442EDD10020C4
:10594000DBE74FF0FF3632462146284601F04CFC9B
:1059500030B957B122463946284601F045FC20B1FE
:1059600001280FD001242046C7E72C61D5E90501A5
:10597000891E884201D8401E6861287940F00100E4
:105980002871F0E73446EEE72DE9F84F82460068CB
:105990000E680024C76888462546705D6D1C202867
:1059A0001AD32F2813D05C2811D0FF2C39D2012113
:1059B00001F066F85FEA000933D0B9F1800F12D226
:1059C00001466DA0FFF7EAFE58BB0CE06D1C715D4F
:1059D0002F29FBD05C29F9D07219C8F800202028A3
:1059E00005D204250FE027F81490641CD5E70025A4
:1059F00009E000BF07EB440030F8020C202801D07A
:105A00002E2802D1641E002CF4D1002027F81400A7
:105A10003CB10B2220210AF1240001F0C5FB002635
:105A200003E00620BDE8F88F761C37F81600202822
:105A3000FAD02E28F8D01EB145F0030500E0641E10
:105A40002CB107EB440030F8020C2E28F7D14FF0B0
:105A500000094FF0080BCDF8009000BF37F8160092
:105A600006F101065FEA000824D0B8F1200F04D047
:105A7000B8F12E0F04D1A64202D045F00305EDE7A0
:105A80000098584501D2A64219D1BBF10B0F0FD097
:105A9000A64201D045F003050CD84FF00800009055
:105AA0004FEA896026464FF00B0B4FEA1069D5E7A5
:105AB00045F003059AF82400E52838D03AE040463E
:105AC000B8F1800F10D3002100F0DAFF5FEA000880
:105AD00005D02C4901EB080010F8800C804645F0F9
:105AE0000205B8F1000F04D0014627A0FFF756FECB
:105AF00020B14FF05F0845F003050FE0A8F1410029
:105B0000192802D849F0020908E0A8F16100192813
:105B100004D8413049F001091FFA80F8009A0AEBD5
:105B2000020181F824800098401C009096E705212E
:105B30008AF82410BBF1080F03D14FEA89604FEABD
:105B40001069C9F38100032803D06FEA09018907AE
:105B500001D145F00205A90709D409F00301012983
:105B600001D145F01005012801D145F008058AF85A
:105B70002F50002056E70000222A3A3C3E3F7C7F0F
:105B800000000000E27400082B2C3B3D5B5D000030
:105B9000401E022812D20A4901EB00118889B0F593
:105BA000807F05D008B1401E80B2888110B103E02B
:105BB0000020FAE7002008600020704702207047AC
:105BC000543B00202DE9F04704460021D0F8009016
:105BD00000F0CCF900285BD1FF25471EA8462763BB
:105BE0004846E16901F0E7FA060050D1216A0878D9
:105BF00050B1CA7AE52802F03F02A2713FD01307E4
:105C000004D50F2A3BD105E0042640E00F2A01D03D
:105C1000E5B120E094F82F20520632D4420606D592
:105C200091F80D8000F0BF00626905462263A8422A
:105C300009D14A7B424506D1D9F80C00FFF712FE84
:105C400008B16D1E00E0FF25EDB21AE0084601F034
:105C50009AFB40451BD094F82F00C0070FD1D4F811
:105C6000201004F124000B2211F8013B10F8015B15
:105C70005B1B521E02D0002BF6D000E03BB1FF258B
:105C800027630021204600F005F80600A8D0304622
:105C9000BDE8F0872DE9F047054647690468C0690B
:105CA0008946203710B1B7F5001F02D30420BDE8A4
:105CB000F087390560D1401CE861A9694FF0000800
:105CC00029B16089401E10EA173F05D054E02089B1
:105CD000B0EB571F1DD94FE0284601F0F9F80646F2
:105CE00001281BD9701C33D0A069B0423ED8B9F14D
:105CF000000F0ED02846A969FFF7F4FD06000BD06F
:105D0000012E0BD0701C23D0204601F08DFBF8B97A
:105D100006E0C5F81C80C9E70720C8E70220C6E7EF
:105D20004FF48052002104F1340001F03DFA4FF0AD
:105D3000000831462046FFF789FD4FF00109206336
:105D40000DE000BF84F80390204601F06DFB08B120
:105D50000120ACE7206B08F10108401C2063618939
:105D60004145EFD8216BA1EB080020633146204666
:105D7000AE61FFF76BFDE861C7F30B0020443430E0
:105D80006F612862002092E72DE9F04F0446D0F8B9
:105D9000009090F82F0089B010F0A00F03D00620DB
:105DA00009B0BDE8F08F0025D9F80C0000E06D1CAB
:105DB00030F815100029FAD104F124010C226846AC
:105DC000039101F0E7F99DF80B00C00719D04020BE
:105DD00084F82F00012633466946D9F80C20039831
:105DE00001F036F82046FFF7EDFE10B9761C642E60
:105DF000F1D3642E0FD00428D2D19DF80B0084F883
:105E00002F009DF80B00800707D50D200C35B5FB42
:105E1000F0F56D1C02E00720C2E7012500212046B5
:105E2000276800F0A3F888B900263846E16901F038
:105E3000C2F958B9206A0078E5280AD048B100268E
:105E400001212046FFF726FF0028EED0042812D0BB
:105E500012E0761C2846AE42F2D1451E059567D069
:105E60006169684201EB4011204600F07FF85FEA6B
:105E7000000803D076E00720804673E0039801F025
:105E800082FA4FF6FF7B07904846E16901F093F9EB
:105E90005FEA000866D1D9F80C0006900598D4F89E
:105EA0002080C0B20490079988F80D100F2188F85F
:105EB0000B10002188F80C1008F11A0001F05FFAAD
:105EC0000498DFF8A4A0401E00EB800101EBC0069F
:105ED000002701E05D4503D0069830F81650761C87
:105EE0001AF8071001EB0800294601F048FA05B935
:105EF0005D467F1C0D2FEDD35D4505D0069830F82B
:105F0000160008B1049803E0049840F040000490A3
:105F100088F80000012189F8031000212046FFF7CE
:105F2000B9FE5FEA00081DD10598401E0590ABD16F
:105F30004846E16901F03FF95FEA000812D12022EA
:105F40000021206A01F030F90B22206A039901F048
:105F500021F994F82F00216A00F01800087301203D
:105F600089F8030040461BE7627500082DE9F041FF
:105F700007680E460546B1F5001F36D2F00634D14B
:105F80006E61AC6824B93878032805D3BC6A1CB1AB
:105F900078894FEA003812E03889B0EB561F24D9CF
:105FA000B86A12E0284600F093FF0446401C1AD05D
:105FB000022C1AD3B869A04217D9A6EB08064645A9
:105FC0002146EFD23846FFF741FCC5E9064060B1F3
:105FD00000EB1630E861C6F30B0038443430286219
:105FE0000020BDE8F0810120FBE70220F9E7000076
:105FF000084910B50B5C002253B901220A540A1853
:1060000001EB8000127A406801681046884702461A
:10601000104610BD743B002030B4054C231804EB2F
:1060200080001B7A406804691846A44630BC60476B
:10603000743B002030B4054D2C1805EB8000247A09
:10604000406885682046AC4630BC6047743B002001
:10605000044A111802EB8000097A40684268084639
:1060600010470000743B002030B4054D2C1805EBA0
:106070008000247A4068C5682046AC4630BC604742
:10608000743B002038B5044600F0ECFB00280CD12E
:106090006946204601F0F1F9002806D12069FFF792
:1060A00077FD002801D10021216038BD2DE9FF4F87
:1060B00091B01E46144611A81E9D00F06BFF0028EB
:1060C00003DA0B2015B0BDE8F08FF64951F8201027
:1060D00009B100220A70C0B20490FFF789FFC1071E
:1060E00001D00320EEE7400701D50A20EAE70EAA17
:1060F00003210498FFF790FF38B90E9828B1B0F546
:10610000004F02D8411E084201D001200E904FF4EA
:10611000805A24B154453AD3B4F1807F37D8601EF9
:10612000044234D1B5FBFAFBB4FBFAF75FEA0B305B
:10613000344610907ED00CAA01210498FFF76CFF22
:10614000002878D112980C9900076FEAA0104FEA46
:10615000906949456ED3A1EB090086460C908028D2
:1061600068D3802F13D812984FF6F57280071298D3
:1061700040F6F57307D500F0070002287ED012988C
:10618000C0077BD001E0C00701D0022696E01320B3
:1061900098E73D000ED100204FEA5E4C0125C24930
:1061A00001E06D00401C31F81080B8F1000F01D003
:1061B000E045F6D9BEFBF5F00AEB8001C91DB1FB45
:1061C000FAF82021039100210791904232D9B74972
:1061D00088422FD829E000BFB349002001254FEAAB
:1061E0001E3C0E3901E06D00401C31F81080B8F102
:1061F000000F01D0E045F6D9BEFBF5F0984203D977
:10620000042101EB400006E0012600EB40000321E1
:10621000401C01EB50005044401EB0FBFAF8012036
:1062200081030390B1FBFAF007900398484400EB18
:10623000080101E055E034E10590079808440E9903
:1062400000EB010C491EACF1010C2CEA010CACEB8B
:106250000001032E19D0884400EB0511A1EB0901C0
:1062600071453ED803990798AEEB0101A1EB0801F7
:10627000081AB0FBF5F00190032E00E024E00ED0E8
:10628000022E13D0012E2AD02DE0DDF80CC08C4454
:10629000CDF80CC0DDF814C061440591DCE79042F4
:1062A00021D8F7B96F087FF474AF1AE0904211D982
:1062B0003FB94020B0EB450F03D36F003D009BD1A9
:1062C0008AE71298800707D5032662E76F00802FC0
:1062D000F4D906E0984206D8002FF7D001E09842A2
:1062E00001D90E20EEE652460021204600F05CFF68
:1062F0000B226FA1204600F04DFF514604F10B0028
:1063000001F03DF86573039881B204F10E0001F0CD
:1063100036F801202074032E0ED0410204F1110042
:1063200001F02DF80C99B1F5803F07D289B204F144
:10633000130001F024F805E00021EFE704F120004C
:1063400001F015F8F82060753F2104F1180001F004
:1063500016F8FF2104F11A0001F011F8494604F182
:106360001C0001F004F82927032E27D000F00EFEB0
:10637000014604F1270000F0FAFF1FFA88F104F14A
:10638000160000F0FCFF802084F8240084F82670BA
:1063900013224AA104F12B0000F0FCFE04F5FF706B
:1063A0004AF65521089000F0EAFF01234A462146AB
:1063B0000498FFF759FE002873D124E000F0E6FDB1
:1063C000014604F1430000F0D2FF414604F12400ED
:1063D00000F0CDFF022104F12C0000F0C8FF0121E4
:1063E00004F1300000F0CBFF062104F1320000F090
:1063F000C6FF802084F8400084F84270132234A144
:1064000004F14700C8E7032E32D1012309F1060247
:1064100021460498FFF728FE52460021204600F04E
:10642000C3FE3049204600F0A2FF2F4904F5F27068
:1064300000F09DFF019904F5F470491E00F097FFEC
:10644000022104F5F67000F092FF4AF655210898F3
:1064500000F095FF012309F1070221460498FFF798
:1064600003FE012309F1010221460498FFF7FCFD18
:1064700000212046109A00F097FE6FF00701032ECE
:1064800002D0012E32D032E0204600F070FF4FF0F3
:10649000FF31201D00F06BFF6FF0704104F1080028
:1064A00026E073E0A80000207E750008F5FFFF0FCE
:1064B000EBFE904D53444F53352E30004E4F204E3F
:1064C000414D4520202020464154202020202000FE
:1064D0004E4F204E414D452020202046415433321E
:1064E0002020200052526141727241614149204690
:1064F00000F03DFF474658465F4500D83846804685
:106500000346DDE904022146FFF7AEFDF0BB52462B
:106510000021204600F048FE0599B7EB080701EB83
:1065200008000590E7D1032E00D0079D58465D4531
:1065300001D9074600E02F46DDE904023B4621462B
:10654000FFF792FD10BB0598ED1B38440590EDD187
:10655000032E05D00C98B0F5803F03D3062604E047
:106560000C2602E0022E38D001261298000736D4FD
:1065700052460021204600F017FE4AF655210898A1
:1065800000F0FDFE04F5DF75002000E02FE028702C
:1065900001216970A970E8702E710C9909EB010056
:1065A00043F6C161B0FBF1F0FE2169713F2141EA80
:1065B0009001A971E871494605F1080000F0D7FE85
:1065C00005F10C000C9900F0D2FE012300222146B7
:1065D0000498FFF749FD50B901E00426C5E7002201
:1065E00011460498FFF718FD00283FF47BAD012009
:1065F00068E50000F8FFFF002DE9F74181B0904603
:1066000002980090684600F0C5FC040003D50B20FA
:1066100004B0BDE8F0810D4E002756F824501DB19E
:106620002846FFF7F1F82F700198002800D0077076
:1066300046F8240002D0B8F1010F01D00020E7E7AE
:10664000002201A902A800F077FAE1E7A8000020E3
:106650002DE9F743ADF5147D05000BD002F03F06A0
:106660003246694695A800F067FA04004FF000082A
:1066700005D0EFE009200DF5177DBDE8F083009807
:1066800010A90190C16001A8959900F07FFB04005A
:106690000ED19DF83300000601D5062408E07008ED
:1066A00001D0012100E0002101A8FFF77FF8044696
:1066B00016F01C0F5DD04FF00109C4B1042C10D1AD
:1066C0000020674902E0401C022804D201EB0012BE
:1066D0001268002AF7D1022807D001A8FFF754FB5F
:1066E000044646F008065CB1B4E01224B2E09DF81E
:1066F0000A0010F0110F47D1700701D50824A9E056
:10670000300747D500F042FC0746099839460E305D
:1067100000F02DFE09983946163000F028FE099940
:106720002020C8720999009800F092FC07460022C8
:106730000999009800F007FE099800211C3000F02C
:1067400016FE009981F8039017B3D1F8309000221B
:10675000394601A800F0BDFD04007BD149460098F0
:1067600000F029FD04000098A7F1010707610DD092
:1067700070E0ECBB9DF80A00C10601D5042469E075
:10678000B10703D5C00701D0072463E0300701D566
:1067900046F040060098006B68620998A86270088D
:1067A00001D0012100E0002101A800F011FC2861C6
:1067B000B8B30999009800F04BFCA86009981C3008
:1067C00000F059FCC5F82C80E86000992960009918
:1067D00005F130004FF48052C988A9802E7585F8E4
:1067E0001580C5F8208000218146C5F8188000E09A
:1067F00030E000F0D9FCB0062ED5EE6866B3AE618D
:106800000098A968408907030FE0284600F060FB64
:106810000146012800D80224481C03D0F61B24B1ED
:1068200005E01BE00124F61B01E0BE42EDD8E96162
:1068300084B9300510D00098FFF708F870B100EB6C
:1068400016322A620098012349464078FFF7F2FB8E
:1068500010B10124C5F8008020460CE70224F9E7B6
:10686000543B0020F8B50446694600F006FE0028B7
:106870000ED1217D4A060BD508060ED50098226A56
:106880000123407804F13001FFF7EEFB08B101204D
:10689000F8BD207D00F07F00207500F077FB0646F4
:1068A000616A009800F087FC0028F1D1A56A2946AA
:1068B000E87A40F02000E872A268206800F043FD0A
:1068C00005F11C00E16800F052FD314605F11600AB
:1068D00000F04DFD002105F1120000F050FD009880
:1068E0000121C17000F05CFD217D01F0BF01217527
:1068F000F8BD2DE9FE4F04460020884618609946F1
:10690000154602A9204600F0B8FD002806D1607D9A
:10691000002803D1207D800702D40720BDE8FE8F28
:10692000A069012742194FF0020A04F1300B82429C
:1069300000D2C5439BE0A169080575D10298408942
:10694000401E10EA113618D129B1E06A38B120464C
:10695000FEF76AFF07E0A06838B9002100E0E169AE
:106960002046FEF7BFFF00287DD001282DD0411C16
:1069700054D0E061A16801B9A060207D00060BD56C
:106980000298226A012340785946FFF76DFBA0BBAD
:10699000207D00F07F002075E1690298FEF756FF28
:1069A00098B130440190280B009027D032180298FB
:1069B00041898A4201D9891B0091DDE90032407882
:1069C0004146FFF751FBC0B903E084F815A002204F
:1069D000A4E7216A0198081A009988420AD208EBB4
:1069E00000314FF48052584600F0D4FB207D00F077
:1069F0007F0020750098060328E00FE0216A0198C7
:106A000081420FD0E168A06988420BD2029801232D
:106A100059464078019AFFF70DFB18B167750120C0
:106A20007CE701E001982062208BC0F30B00C0F5E9
:106A30008056AE4200D92E46204432464146303080
:106A400000F0A8FB207D40F080002075A069B044D4
:106A50003044A061E168884200D80846E060D9F877
:106A60000000811900E005E0AD1BC9F80010002D01
:106A70007FF461AF207D40F04000207500204DE79D
:106A8000802804D30B4A51B1FF2801D90020704758
:106A900002EB4000A0F58050B0F8000F704732F8CC
:106AA0001130834203D0491C89B28029F7D3803149
:106AB000C8B270478C75000830B5B0F5805F01D260
:106AC0001B4900E01B4931F8022B002A15D09042E7
:106AD00013D331F8024B230AE5B252FA84F484420C
:106AE00021D9092B09D2DFE803F005090E1113158E
:106AF00017191B00801A31F8100030BD811A01F0FF
:106B00000101401A00E0103880B230BD2038FBE7A8
:106B10003038F9E71A38F7E70830F5E75038F3E787
:106B2000A0F5E350F0E7002BCDD101EB4501CAE71A
:106B30008C7600087E7800082DE9FF4100279046FA
:106B40000E460F6000F026FA050003D50B2004B0B6
:106B5000BDE8F0818A4850F825409CB13460207827
:106B600008F0FE0620B16078FFF772FAC1070BD07B
:106B70002770E8B2B8466070FFF73AFAC10708D04C
:106B80000320E4E70C20E2E70EB1400704D4002024
:106B9000DDE71EB1400701D50A20D8E700263146BF
:106BA0002046FEF7C3FD022822D100254FEA0D073B
:106BB00004EB051090F8F61100F5F97019B10830E2
:106BC00000F059FA00E0002047F825006D1C042D64
:106BD000EED3002557F8256036B131462046FEF742
:106BE000A5FD022801D203E003206D1C042DF1D382
:106BF000042809D002286DD204F13F0000F046FAC3
:106C0000B0F5805F66D101E00120A0E704F14A0001
:106C100000F03CFA18B904F1580000F02CFAE061D9
:106C200094F84450A570012D01D0022D52D1454356
:106C300094F841006081E8B3411E08424AD104F152
:106C4000450000F023FA2081400643D104F14700BB
:106C500000F01CFA070004D104F1540000F00BFA14
:106C6000074604F1420000F011FA010032D02389F6
:106C7000481900EBD31297422CD3B81A6789B0FB9E
:106C8000F7F0B8B103274FF6F57C604500D802272E
:106C900040F6F57C604500D80127801C3244E26252
:106CA0003144A061C4E90861032F15D013B1294410
:106CB000A16200E00EE0022F1FD000F0010100EB06
:106CC000400001EB500000BFE16900F6FF70B1EB3E
:106CD000103F14D20D203AE704F15E0000F0D6F91F
:106CE0000028F7D120890028F4D104F1600000F0D9
:106CF000C2F9A062A0698000E6E74000E4E74FF037
:106D0000FF306061206180202071032F2CD104F1BD
:106D1000640000F0BBF9012826D1711C204600F068
:106D20004AFA08BB84F8048004F2322000F0AEF97D
:106D3000A0F52A41553917D104F1340000F09BF930
:106D40001049884210D104F5067000F094F90E49FC
:106D5000884209D104F5077000F08DF9606104F5EF
:106D6000087000F088F9206105492770091F08881C
:106D7000401C0880E0802046FEF746FD07E7000043
:106D8000A8000020525261417272416173B50446FD
:106D90000568019801E0401C019001782F29FAD084
:106DA0005C29F8D00021A16001980078202806D243
:106DB000802084F82F002046FFF7D8F87CBD01A979
:106DC0002046FEF7E1FD0028F8D12046FEF7FAFE46
:106DD00094F82F1028B10428F0D14907EED40520EB
:106DE0007CBD4907FCD4A079C006F8D5A08AC0F3C1
:106DF0000B0041192846343100F02AF9A060DEE783
:106E000010B5002821D0114B0022001F196803E0A3
:106E1000814203D80A4649680029F9D152B1136862
:106E2000841A9C4204D1006818441060104602E0A5
:106E3000506000E0186039B102680B1A934203D128
:106E40000B681A4402604968416010BD940100203B
:106E50007CB516461C4605460B2200F09BF9052C16
:106E600011D91A4A0CE00021B61C2346044663F3EC
:106E70005F044008E30300D55440491C1029F4D3B3
:106E800030880028EFD107214FEA0D0204F00F00EF
:106E90003030392800D9C01D5054491E2409F5D17D
:106EA0007E205054002000E0401C884202D22B5C1F
:106EB000202BF9D1082902D2535C491C00E0202381
:106EC0002B54401C0828F5D37CBD00002110010084
:106ED0002DE9F04104680D4602290CD3A069A842AF
:106EE00009D920784FF0FF36012808D0370D022845
:106EF0002BD0032839D001263046BDE8F081606AE6
:106F000005EB550700EB1731204600F054F9002837
:106F1000F2D1C7F30B0020447F1C90F83480606AE4
:106F200000EB1731204600F046F90028E4D1C7F302
:106F30000B00204490F8341048EA0120E90701D002
:106F40000609D9E7C0F30B06D6E7606A00EBD52146
:106F5000204600F030F90028CED107EA4500204451
:106F6000343000F093F80646C6E7606A00EB9521DE
:106F7000204600F020F90028BED107EA8500204411
:106F8000343000F078F820F07046B5E700487047DC
:106F90000060C15010B504464FF0FF302268002A4F
:106FA00013D0114600E0491C0B78202B0ED33A2B4E
:106FB000F9D112F8013B303B0A2B06D28A4204D1A8
:106FC000002B02D1491C1846216010BD002010BDC5
:106FD000F0B502461D4BD2F80050002003EB001420
:106FE0002668AE4207D166689768BE4203D1A4689E
:106FF0005669B44202D0401C0228EFD3022814D1B3
:10700000002002E0401C022804D203EB0014246894
:10701000002CF7D102280ED003EB001425609568F0
:1070200065605269A2600022A281002903EB001171
:10703000898902D019B10020F0BD491C01E04FF44C
:10704000807103EB0012401C9181F0BD543B002085
:1070500070B506460D4601F11A0000F017F8044617
:107060003078032805D105F1140000F00FF844EA48
:107070000044204670BDC178827842EA01214278FE
:10708000007842EA012140EA012070474178007807
:1070900040EA012070470000F9F784FAFCF7D4F8C1
:1070A000FBF7B0F9FBF754FAFBF706F9FBF772FAB6
:1070B000FBF70CFA50261A4CDFF8688000254FF4D5
:1070C000005760780028A08805D0401E0004000CFE
:1070D000A08009D009E0401C80B2A080B0F5C86F44
:1070E00003D30120607000E06570A088B0FBF6F06B
:1070F000C1B22170A078142801D9A57001E0401C0C
:10710000A070A078884201D3012200E00022394615
:107110004046F9F72BFA01210020F9F78DFFD0E75F
:107120000000002000080240F0B50B30154D20F0A3
:1071300007010024144A0FE003688B420BD38B42F3
:1071400005D95E1A43184768C3E9006700E0436841
:10715000136002C004E0021D10680028ECD1204634
:10716000002802D1286808B10020F0BD064A07486F
:107170001060074A121A22F00702C0E90024012019
:107180002860D7E79801002094010020A43B00204C
:10719000A05B0020002A05D011F8013B00F8013B5C
:1071A000521EF9D1704700005FFA81F100F8011B0F
:1071B000521EFBD1704770B50446006B0D46002689
:1071C000A8420FD0204600F02FF906000AD16078BF
:1071D00001232A4604F13401FEF72CFF08B1751E85
:1071E00001262563304670BD2DE9F047022617467B
:1071F0000D460446022969D3A069A84266D92078C1
:107200004FF00109012806D040F6FF78022836D059
:1072100003285BD143E0616A05EB550801EB1831A7
:107220002046FFF7C8FF060050D1C8F30B002044EA
:10723000343008F10108E90704D00178FAB262F3AA
:107240001F1100E03946017084F80390616A2046FE
:1072500001EB1831FFF7AFFF060037D1C8F30B0081
:1072600020443430E90702D0C7F3071105E0017864
:10727000C7F3032201F0F0011143017024E0606ABA
:1072800000EBD5212046FFF796FF06001ED108EA45
:1072900045002044B9B2343000F071F814E0606A5F
:1072A00000EB95212046FFF786FF06000ED108EA85
:1072B0008500204434300546FFF7DDFE67F31B00F0
:1072C0000146284600F053F884F803903046BDE8A4
:1072D000F0872DE9F041056813460E46074602295E
:1072E0002DD3A869B0422AD93BB14FF0FF321946DD
:1072F0002846FFF779FF00281FD131463846FFF7AF
:10730000E7FD040018D0012C19D0601C19D0002210
:1073100031462846FFF768FF00280ED1D5E9051051
:10732000821E914205D2491C6961297941F001010F
:1073300029712646B042E0D80020BDE8F081022045
:10734000FBE70120F9E770B50C460646154691B2F9
:1073500004F11A0000F013F83078032806D1290C44
:1073600004F11400BDE8704000F009B870BD017070
:10737000090A4170090A8170090AC17070470170D9
:10738000090A41707047014600200B22430803EBB5
:10739000C01011F8013B521E1844C0B2F6D170471C
:1073A00070B5044600F040F8050036D12078032877
:1073B0002CD12079012829D1020304F134000021C5
:1073C0000646FFF7F1FE4AF6552104F23220FFF798
:1073D000D6FF13493046FFF7CAFF124904F506707D
:1073E000FFF7C5FF04F507706169FFF7C0FF04F5FB
:1073F00008702169FFF7BBFF226A0123521C226338
:1074000060783146FEF730FE00202071002260785F
:107410001146FEF701FE00B10125284670BD0000AF
:1074200052526141727241612DE9F0410446C078C7
:107430000027F8B1256B04F13401607801232A4656
:107440008846FEF711FE08B1012713E00020E07026
:10745000606AE169281A88420CD2A67808E0E069DF
:107460000123054460782A464146FEF7FDFD761E5D
:10747000022EF4D23846BDE8F08170B50E46040005
:107480004FF009050CD0206850B1017841B1A188B6
:10749000C288914204D14078FEF7DAFDC00703D0DC
:1074A00000203060284670BD00252068F9E7008084
:1074B00002021F00000053544D2020202020507253
:1074C0006F64756374202020202020202020302E1F
:1074D0003031000000000000000001020304060734
:1074E00008094355454141414143454545494949BD
:1074F00041414592924F4F4F5555594F554F9C4FD3
:107500009E9F41494F55A5A5A6A7A8A9AAABACAD7A
:10751000AEAFB0B1B2B3B4414141B8B9BABBBCBD72
:10752000BEBFC0C1C2C3C4C54141C8C9CACBCCCD0E
:10753000CECFD1D145454549494949D9DADBDCDDD2
:1075400049DF4FE14F4F4F4FE6E8E8555555595940
:10755000EEEFF0F1F2F3F4F5F6F7F8F9FAFBFCFDD3
:10756000FEFF01030507090E10121416181C1E0059
:1075700001000400100040000001000200000100B2
:10758000020004000800100020000000C700FC00FA
:10759000E900E200E400E000E500E700EA00EB00BB
:1075A000E800EF00EE00EC00C400C500C900E600F2
:1075B000C600F400F600F200FB00F900FF00D60060
:1075C000DC00F800A300D800D7009201E100ED0034
:1075D000F300FA00F100D100AA00BA00BF00AE002B
:1075E000AC00BD00BC00A100AB00BB009125922502
:1075F000932502252425C100C200C000A9006325EF
:10760000512557255D25A200A500102514253425F8
:107610002C251C2500253C25E300C3005A255425B4
:1076200069256625602550256C25A400F000D00052
:10763000CA00CB00C8003101CD00CE00CF00182514
:107640000C2588258425A600CC008025D300DF00EA
:10765000D400D200F500D500B500FE00DE00DA004F
:10766000DB00D900FD00DD00AF00B400AD00B100CB
:107670001720BE00B600A700F700B800B000A800B1
:10768000B700B900B300B200A025A00061001A0342
:10769000E0001703F8000703FF0001007801000174
:1076A000300132010601390110014A012E01790130
:1076B000060180014D0043028101820182018401A3
:1076C000840186018701870189018A018B018B0171
:1076D0008D018E018F01900191019101930194011F
:1076E000F60196019701980198013D029B019C01CA
:1076F0009D0120029F01A001A001A201A201A401FD
:10770000A401A601A701A701A901AA01AB01AC012F
:10771000AC01AE01AF01AF01B101B201B301B301E0
:10772000B501B501B701B801B801BA01BB01BC018F
:10773000BC01BE01F701C001C101C201C301C40106
:10774000C501C401C701C801C701CA01CB01CA01F3
:10775000CD011001DD0101008E01DE011201F301F6
:107760000300F101F401F401F801280122021201E1
:107770003A020900652C3B023B023D02662C3F02A7
:1077800040024102410246020A01530240008101C7
:107790008601550289018A0158028F015A0290011F
:1077A0005C025D025E025F0293016102620294016B
:1077B0006402650266026702970196016A02622C02
:1077C0006C026D026E029C01700271029D017302D7
:1077D00074029F0176027702780279027A027B02B4
:1077E0007C02642C7E027F02A60181028202A90132
:1077F0008402850286028702AE014402B101B20111
:1078000045028D028E028F0290029102B7017B0326
:107810000300FD03FE03FF03AC030400860388039B
:1078200089038A03B1031103C2030200A303A30364
:10783000C4030803CC0303008C038E038F03D80317
:107840001801F2030A00F903F303F403F503F60346
:10785000F703F703F903FA03FA0330042003500493
:107860001007600422018A043601C1040E01CF040E
:107870000100C004D00444016105260400007D1D00
:107880000100632C001E9601A01E5A01001F08066D
:10789000101F0606201F0806301F0806401F060698
:1078A000511F0700591F521F5B1F541F5D1F561F9A
:1078B0005F1F601F0806701F0E00BA1FBB1FC81F86
:1078C000C91FCA1FCB1FDA1FDB1FF81FF91FEA1FD2
:1078D000EB1FFA1FFB1F801F0806901F0806A01F42
:1078E0000806B01F0400B81FB91FB21FBC1FCC1F71
:1078F0000100C31FD01F0206E01F0206E51F0100A2
:10790000EC1FF21F0100FC1F4E21010032217021EB
:107910001002842101008321D0241A05302C2F0469
:10792000602C0201672C0601752C0201802C640179
:10793000002D260841FF1A0300000000000000008F
:10794000000000000000B33FB2BE7D3A00002E40B0
:10795000DFCF513800007E40BF51FABA00E0A440AA
:1079600019DAC3BA00E0C840C2ED8AB90040EB4062
:10797000CD1F2CBA001006412AFFFABA00C01541EB
:10798000DFCFD13700D024419A97703A005033416D
:1079900089478E3600404141E75B9D3800B04E413B
:1079A000C00A98B900A05B41558F943A00306841F5
:1079B000DA92C0BA0040744162B3C63A0000803F18
:1079C00000A0853F00908B3F00C0913F0030983F62
:1079D00000F09E3F00F0A53F0050AD3F0000B53FD6
:1079E0000000BD3F0060C53F0020CE3F0040D73FB4
:1079F00000C0E03F00C0EA3F0020F53F000000006B
:107A00007D36AC397D3C3839EBDCF438320A7E39CE
:107A1000124C26399B6AED39A4EE83397F661E39F4
:107A2000F6398A392B426539A48211395B991F399D
:107A3000C3EECD39DDE7C637A5A22F390000803F60
:107A4000C3AA853FC2958B3FD3C3913FF037983F80
:107A500032F59E3FD7FEA53F3F58AD3FF304B53FFB
:107A6000A408BD3F2A67C53F8C24CE3FFD44D73FC5
:107A7000DFCCE03FC7C0EA3F7D25F53F546869731E
:107A80002069732053544D333220776F726B696EC7
:107A90006720776974682046617446730D0A5354F1
:107AA0004D33324634783120436F726520426F6126
:107AB00072642044657369676E204279205765417E
:107AC00063742053747564696F0D0A426F61726448
:107AD0002056657273696F6E3A20332E300D0A009E
:107AE000007B000800000020A0010000EC0200085C
:107AF000D07B0008A0010020005E00004454000874
:107B000061120113F148140875491B0835041A85E0
:107B1000041A09048113B5331B08E5041AF1041390
:107B200019341B0841041A950C1AC10417040309DF
:107B30000412013202164083042A5726020102036E
:107B400001031A1A031BAD314019041AB1041AB506
:107B5000041AB9041AF9041AA90413AE741A083FD6
:107B6000118210D324F413CD391B0869048B3D3ADC
:107B7000A01A55101A5F04C11AB5101AA9041AC127
:107B8000041A9D04140902202008010104C03209CE
:107B900004180A020806500507058102B82C0705DB
:107BA00001070914202240292019070B1C0907206E
:107BB0001B0A0645212A40BC190A1A80021B08200C
:107BC00001322203120812622609121BD1000000A2
:040000050800019559
:00000001FF
